{
  "_format": "hh-sol-artifact-1",
  "contractName": "VanellixRedemption",
  "sourceName": "contracts/modules/VanellixRedemption.sol",
  "abi": [
    {
      "inputs": [],
      "name": "AmountZero",
      "type": "error"
    },
    {
      "inputs": [],
      "name": "ApprovalRequired",
      "type": "error"
    },
    {
      "inputs": [],
      "name": "BurnAddressNotConfigured",
      "type": "error"
    },
    {
      "inputs": [],
      "name": "CallerNotLaunchpadOwner",
      "type": "error"
    },
    {
      "inputs": [],
      "name": "InsufficientBalance",
      "type": "error"
    },
    {
      "inputs": [],
      "name": "LaunchpadNotConfigured",
      "type": "error"
    },
    {
      "inputs": [],
      "name": "RenounceOwnershipDisabled",
      "type": "error"
    },
    {
      "inputs": [],
      "name": "TokenDoesNotBelongToCompany",
      "type": "error"
    },
    {
      "inputs": [],
      "name": "TransferOwnershipDirectDisabled",
      "type": "error"
    },
    {
      "inputs": [],
      "name": "UnauthorizedCaller",
      "type": "error"
    },
    {
      "inputs": [],
      "name": "UpgradeToAndCallDisabled",
      "type": "error"
    },
    {
      "anonymous": false,
      "inputs": [
        {
          "indexed": false,
          "internalType": "address",
          "name": "previousAdmin",
          "type": "address"
        },
        {
          "indexed": false,
          "internalType": "address",
          "name": "newAdmin",
          "type": "address"
        }
      ],
      "name": "AdminChanged",
      "type": "event"
    },
    {
      "anonymous": false,
      "inputs": [
        {
          "indexed": true,
          "internalType": "address",
          "name": "beacon",
          "type": "address"
        }
      ],
      "name": "BeaconUpgraded",
      "type": "event"
    },
    {
      "anonymous": false,
      "inputs": [
        {
          "indexed": false,
          "internalType": "uint8",
          "name": "version",
          "type": "uint8"
        }
      ],
      "name": "Initialized",
      "type": "event"
    },
    {
      "anonymous": false,
      "inputs": [
        {
          "indexed": true,
          "internalType": "address",
          "name": "previousOwner",
          "type": "address"
        },
        {
          "indexed": true,
          "internalType": "address",
          "name": "newOwner",
          "type": "address"
        }
      ],
      "name": "OwnershipTransferred",
      "type": "event"
    },
    {
      "anonymous": false,
      "inputs": [
        {
          "indexed": false,
          "internalType": "address",
          "name": "account",
          "type": "address"
        }
      ],
      "name": "Paused",
      "type": "event"
    },
    {
      "anonymous": false,
      "inputs": [
        {
          "indexed": true,
          "internalType": "address",
          "name": "user",
          "type": "address"
        },
        {
          "indexed": true,
          "internalType": "uint256",
          "name": "companyId",
          "type": "uint256"
        },
        {
          "indexed": true,
          "internalType": "address",
          "name": "token",
          "type": "address"
        },
        {
          "indexed": false,
          "internalType": "uint256",
          "name": "amount",
          "type": "uint256"
        },
        {
          "indexed": false,
          "internalType": "string",
          "name": "references",
          "type": "string"
        }
      ],
      "name": "TokensBurned",
      "type": "event"
    },
    {
      "anonymous": false,
      "inputs": [
        {
          "indexed": false,
          "internalType": "address",
          "name": "account",
          "type": "address"
        }
      ],
      "name": "Unpaused",
      "type": "event"
    },
    {
      "anonymous": false,
      "inputs": [
        {
          "indexed": true,
          "internalType": "address",
          "name": "implementation",
          "type": "address"
        }
      ],
      "name": "Upgraded",
      "type": "event"
    },
    {
      "inputs": [
        {
          "internalType": "uint256",
          "name": "companyId",
          "type": "uint256"
        },
        {
          "internalType": "address",
          "name": "utilityTokenAddress",
          "type": "address"
        },
        {
          "internalType": "uint256",
          "name": "amount",
          "type": "uint256"
        },
        {
          "internalType": "string",
          "name": "references",
          "type": "string"
        }
      ],
      "name": "burnTokens",
      "outputs": [],
      "stateMutability": "nonpayable",
      "type": "function"
    },
    {
      "inputs": [],
      "name": "daoTransitionTimestamp",
      "outputs": [
        {
          "internalType": "uint256",
          "name": "",
          "type": "uint256"
        }
      ],
      "stateMutability": "view",
      "type": "function"
    },
    {
      "inputs": [],
      "name": "getAdminRole",
      "outputs": [
        {
          "internalType": "bytes32",
          "name": "",
          "type": "bytes32"
        }
      ],
      "stateMutability": "view",
      "type": "function"
    },
    {
      "inputs": [
        {
          "internalType": "uint256",
          "name": "companyId",
          "type": "uint256"
        },
        {
          "internalType": "address",
          "name": "user",
          "type": "address"
        }
      ],
      "name": "getBurnedBalance",
      "outputs": [
        {
          "internalType": "uint256",
          "name": "total",
          "type": "uint256"
        }
      ],
      "stateMutability": "view",
      "type": "function"
    },
    {
      "inputs": [
        {
          "internalType": "address",
          "name": "user",
          "type": "address"
        },
        {
          "internalType": "uint256",
          "name": "start",
          "type": "uint256"
        },
        {
          "internalType": "uint256",
          "name": "count",
          "type": "uint256"
        }
      ],
      "name": "getBurnsByUser",
      "outputs": [
        {
          "components": [
            {
              "internalType": "uint256",
              "name": "companyId",
              "type": "uint256"
            },
            {
              "internalType": "address",
              "name": "token",
              "type": "address"
            },
            {
              "internalType": "uint256",
              "name": "amount",
              "type": "uint256"
            }
          ],
          "internalType": "struct VanellixRedemption.CompanyTokenBurn[]",
          "name": "burns",
          "type": "tuple[]"
        }
      ],
      "stateMutability": "view",
      "type": "function"
    },
    {
      "inputs": [],
      "name": "getImplementationType",
      "outputs": [
        {
          "internalType": "bytes32",
          "name": "",
          "type": "bytes32"
        }
      ],
      "stateMutability": "pure",
      "type": "function"
    },
    {
      "inputs": [],
      "name": "getLaunchpadAddress",
      "outputs": [
        {
          "internalType": "address",
          "name": "",
          "type": "address"
        }
      ],
      "stateMutability": "view",
      "type": "function"
    },
    {
      "inputs": [],
      "name": "getMyAddress",
      "outputs": [
        {
          "internalType": "address",
          "name": "",
          "type": "address"
        }
      ],
      "stateMutability": "view",
      "type": "function"
    },
    {
      "inputs": [],
      "name": "getOwner",
      "outputs": [
        {
          "internalType": "address",
          "name": "",
          "type": "address"
        }
      ],
      "stateMutability": "view",
      "type": "function"
    },
    {
      "inputs": [
        {
          "internalType": "address",
          "name": "_launchpad",
          "type": "address"
        }
      ],
      "name": "initialize",
      "outputs": [],
      "stateMutability": "nonpayable",
      "type": "function"
    },
    {
      "inputs": [],
      "name": "launchpad",
      "outputs": [
        {
          "internalType": "contract IVanellixLaunchpadExtended",
          "name": "",
          "type": "address"
        }
      ],
      "stateMutability": "view",
      "type": "function"
    },
    {
      "inputs": [],
      "name": "multiToken",
      "outputs": [
        {
          "internalType": "contract IVanellixCompanyMultiToken",
          "name": "",
          "type": "address"
        }
      ],
      "stateMutability": "view",
      "type": "function"
    },
    {
      "inputs": [],
      "name": "owner",
      "outputs": [
        {
          "internalType": "address",
          "name": "",
          "type": "address"
        }
      ],
      "stateMutability": "view",
      "type": "function"
    },
    {
      "inputs": [],
      "name": "pause",
      "outputs": [],
      "stateMutability": "nonpayable",
      "type": "function"
    },
    {
      "inputs": [],
      "name": "paused",
      "outputs": [
        {
          "internalType": "bool",
          "name": "",
          "type": "bool"
        }
      ],
      "stateMutability": "view",
      "type": "function"
    },
    {
      "inputs": [],
      "name": "proxiableUUID",
      "outputs": [
        {
          "internalType": "bytes32",
          "name": "",
          "type": "bytes32"
        }
      ],
      "stateMutability": "view",
      "type": "function"
    },
    {
      "inputs": [],
      "name": "renounceOwnership",
      "outputs": [],
      "stateMutability": "nonpayable",
      "type": "function"
    },
    {
      "inputs": [
        {
          "internalType": "bytes4",
          "name": "interfaceId",
          "type": "bytes4"
        }
      ],
      "name": "supportsInterface",
      "outputs": [
        {
          "internalType": "bool",
          "name": "",
          "type": "bool"
        }
      ],
      "stateMutability": "view",
      "type": "function"
    },
    {
      "inputs": [
        {
          "internalType": "address",
          "name": "",
          "type": "address"
        },
        {
          "internalType": "uint256",
          "name": "",
          "type": "uint256"
        },
        {
          "internalType": "address",
          "name": "",
          "type": "address"
        }
      ],
      "name": "totalBurnedByUserCompanyToken",
      "outputs": [
        {
          "internalType": "uint256",
          "name": "",
          "type": "uint256"
        }
      ],
      "stateMutability": "view",
      "type": "function"
    },
    {
      "inputs": [
        {
          "internalType": "address",
          "name": "",
          "type": "address"
        }
      ],
      "name": "transferOwnership",
      "outputs": [],
      "stateMutability": "nonpayable",
      "type": "function"
    },
    {
      "inputs": [],
      "name": "unpause",
      "outputs": [],
      "stateMutability": "nonpayable",
      "type": "function"
    },
    {
      "inputs": [],
      "name": "updateOwnerFromLaunchpad",
      "outputs": [],
      "stateMutability": "nonpayable",
      "type": "function"
    },
    {
      "inputs": [
        {
          "internalType": "address",
          "name": "newImplementation",
          "type": "address"
        }
      ],
      "name": "upgradeTo",
      "outputs": [],
      "stateMutability": "nonpayable",
      "type": "function"
    },
    {
      "inputs": [
        {
          "internalType": "address",
          "name": "",
          "type": "address"
        },
        {
          "internalType": "bytes",
          "name": "",
          "type": "bytes"
        }
      ],
      "name": "upgradeToAndCall",
      "outputs": [],
      "stateMutability": "payable",
      "type": "function"
    }
  ],
  "bytecode": "0x60a08060405234602257306080526117a29081610028823960805181610ddd0152f35b600080fdfe608080604052600436101561001357600080fd5b60003560e01c90816301ffc9a7146113165750806302669b52146112ec57806303eac68f1461126157806311f10116146112375780631904e5c91461120d5780632a2767e5146111d25780632a296ecc146111625780633659cfe61461105c5780633f4ba83a14610fb75780634670dca214610f275780634f1ef28614610ea057806352d1902d14610dca5780635c975abb14610da7578063645bb2ef1461064f578063715018a61461062557806374ced870146106065780638456cb5914610582578063850bcab91461044c578063893d20e8146104235780638da5cb5b146104235780639a16629914610408578063b3ecf236146103cd578063c4d66de81461015f5763f2fde38b1461012757600080fd5b3461015a57602036600319011261015a57610140611362565b50610149611629565b635a42e44960e01b60005260046000fd5b600080fd5b3461015a57602036600319011261015a57610178611362565b6000549060ff8260081c1615918280936103c0575b80156103a9575b1561034d5760ff1981166001176000558261033b575b5061016280546001600160a01b0319166001600160a01b03929092169182179055604051632ee325db60e21b8152602060048201819052600a60248301526926bab63a34aa37b5b2b760b11b604483015281606481855afa90811561032f576000916102f5575b5060018060a01b03166001600160601b0360a01b610163541617610163556001600160601b0360a01b6101605416176101605561026760ff60005460081c166102598161170c565b6102628161170c565b61170c565b610270336116c3565b600054906102ba60ff8360081c166102878161170c565b6102908161170c565b60ff1960c9541660c9556102a38161170c565b6102ac8161170c565b600160fb556102628161170c565b6102c057005b61ff0019166000557f7f26b83ff96e1f2b6a682f133852f6798a09c465da95921460cefb3847402498602060405160018152a1005b90506020813d602011610327575b8161031060209383611393565b8101031261015a57610321906115a8565b83610211565b3d9150610303565b6040513d6000823e3d90fd5b61ffff191661010117600055826101aa565b60405162461bcd60e51b815260206004820152602e60248201527f496e697469616c697a61626c653a20636f6e747261637420697320616c72656160448201526d191e481a5b9a5d1a585b1a5e995960921b6064820152608490fd5b50303b1580156101945750600160ff821614610194565b50600160ff82161061018d565b3461015a57600036600319011261015a5760206040517fa36640f9c3d74ee87c99b3aee39f32849dda077410057abc393a2cb9e13139a78152f35b3461015a57600036600319011261015a576020604051308152f35b3461015a57600036600319011261015a576033546040516001600160a01b039091168152602090f35b3461015a57600036600319011261015a5761046561167f565b61046d611629565b610160546001600160a01b031680156105715760405163c696804f60e01b8152602081600481855afa90811561032f57600091610537575b506001600160a01b031633036105265760206004916040519283809263c696804f60e01b82525afa801561032f576000906104eb575b6104e4906116c3565b600160fb55005b506020813d60201161051e575b8161050560209383611393565b8101031261015a576105196104e4916115a8565b6104db565b3d91506104f8565b632508892760e11b60005260046000fd5b90506020813d602011610569575b8161055260209383611393565b8101031261015a57610563906115a8565b826104a5565b3d9150610545565b6336939d7d60e21b60005260046000fd5b3461015a57600036600319011261015a5761059b61167f565b610160546001600160a01b031680156105715733036105f5576105bc61167f565b600160ff1960c954161760c9557f62e78cea01bee320cd4e420270b5ea74000d11b0c9f74754ebdbfc544b05a2586020604051338152a1005b635c427cd960e01b60005260046000fd5b3461015a57600036600319011261015a57602061015f54604051908152f35b3461015a57600036600319011261015a5761063e611629565b63ffc0fd9360e01b60005260046000fd5b3461015a57608036600319011261015a5760043561066b61134c565b906044356064356001600160401b03811161015a573660238201121561015a578060040135916001600160401b03831161015a57366024848401011161015a576106b3611629565b8015610d965761016254604051632d77645f60e21b815290600090829060049082906001600160a01b03165afa90811561032f57600091610cbf575b50516001600160a01b03168015610cae5761016354604051630f6dd15560e41b81526004810187905290600090829060249082906001600160a01b03165afa90811561032f57600091610b11575b5061014001516001600160a01b039687169616869003610b01576040516370a0823160e01b81523360048201526020816024818a5afa801561032f578391600091610acc575b5010610abb57604051636eb1769f60e11b81523360048201523060248201526020816044818a5afa801561032f578391600091610a86575b5010610a7557604051906323b872dd60e01b8252336004830152602482015281604482015260208160648160008a5af1801561032f57610a3e575b5033600052610165602052604060002084600052602052604060002085600052602052604060002054156000146109a0573360005261016460205260406000206040519261084384611378565b8584526020840190878252604085019284845280546801000000000000000081101561098a57610878916001820181556113cf565b61097457600287946024947fb8cffd1bfb953b00e9fa1f22ea464126045371c00b94d3e90c578549fa032e2798518455600184019060018060a01b039051166001600160601b0360a01b8254161790555191015533600052610164602052604060002054336000526101656020526040600020886000526020526040600020896000526020526040600020555b336000526101666020526040600020876000526020526040600020886000526020526040600020610937858254611401565b9055604051938452604060208501528260408501520160608301376000606084830101526060813394601f80199101168101030190a4600160fb55005b634e487b7160e01b600052600060045260246000fd5b634e487b7160e01b600052604160045260246000fd5b33600052610165602052604060002084600052602052604060002085600052602052604060002054916000198301928311610a2857602484916002610a147fb8cffd1bfb953b00e9fa1f22ea464126045371c00b94d3e90c578549fa032e27963360005261016460205260406000206113cf565b5001610a21858254611401565b9055610905565b634e487b7160e01b600052601160045260246000fd5b6020813d602011610a6d575b81610a5760209383611393565b8101031261015a57610a689061161c565b6107f6565b3d9150610a4a565b632fe5a2f760e11b60005260046000fd5b9150506020813d602011610ab3575b81610aa260209383611393565b8101031261015a57829051886107bb565b3d9150610a95565b631e9acf1760e31b60005260046000fd5b9150506020813d602011610af9575b81610ae860209383611393565b8101031261015a5782905188610783565b3d9150610adb565b62453ddf60e81b60005260046000fd5b3d8083833e610b208183611393565b810190602081830312610c92578051906001600160401b038211610caa57019161018083830312610c8f576040519261018084018481106001600160401b03821117610c965760405280518452610b79602082016115a8565b602085015260408101516001600160401b038111610c925783610b9d9183016115bc565b604085015260608101516001600160401b038111610c925783610bc19183016115bc565b606085015260808101516001600160401b038111610c925783610be59183016115bc565b608085015260a08101516001600160401b038111610c925783610c099183016115bc565b60a0850152610c1a60c0820161161c565b60c0850152610c2b60e082016115a8565b60e0850152610100810151610100850152610c4961012082016115a8565b610120850152610c5c61014082016115a8565b610140850152610160810151916001600160401b038311610c8f5750610c839291016115bc565b6101608201528761073d565b80fd5b8280fd5b634e487b7160e01b83526041600452602483fd5b8380fd5b637100da6d60e11b60005260046000fd5b3d8083833e610cce8183611393565b810190602081830312610c92578051906001600160401b038211610caa57019060c082820312610c92576040519260c084018481106001600160401b03821117610d8257604052610d1e836115a8565b8452610d2c602084016115a8565b6020850152604083015160408501526060830151906001600160401b038211610c8f57508291610d5f9160a094016115bc565b6060840152610d70608082016115a8565b6080840152015160a0820152866106ef565b634e487b7160e01b82526041600452602482fd5b6365e52d5160e11b60005260046000fd5b3461015a57600036600319011261015a57602060ff60c954166040519015158152f35b3461015a57600036600319011261015a577f00000000000000000000000000000000000000000000000000000000000000006001600160a01b03163003610e355760206040517f360894a13ba1a3210667c828492db98dca3e2076cc3735a920a3ca505d382bbc8152f35b60405162461bcd60e51b815260206004820152603860248201527f555550535570677261646561626c653a206d757374206e6f742062652063616c60448201527f6c6564207468726f7567682064656c656761746563616c6c00000000000000006064820152608490fd5b604036600319011261015a57610eb4611362565b506024356001600160401b03811161015a573660238201121561015a57806004013590610ee0826113b4565b91610eee6040519384611393565b808352366024828401011161015a576000928160246020940184830137010152610f16611629565b630c5e6cd360e21b60005260046000fd5b3461015a57606036600319011261015a57610f50610f43611362565b6044359060243590611439565b60405180916020820160208352815180915260206040840192019060005b818110610f7c575050500390f35b8251805185526020818101516001600160a01b0316818701526040918201519186019190915286955060609094019390920191600101610f6e565b3461015a57600036600319011261015a57610160546001600160a01b031680156105715733036105f55760c95460ff8116156110205760ff191660c9557f5db9ee0a495bf2e6ff9c91a7834c1ba4fdd244a5e8aa4e537bd38aeae4b073aa6020604051338152a1005b60405162461bcd60e51b815260206004820152601460248201527314185d5cd8589b194e881b9bdd081c185d5cd95960621b6044820152606490fd5b3461015a57602036600319011261015a57611075611362565b61107d611629565b610160546001600160a01b031680156105715733036105f557803b15611107577f360894a13ba1a3210667c828492db98dca3e2076cc3735a920a3ca505d382bbc80546001600160a01b0319166001600160a01b039290921691821790557fbc7cd75a20ee27fd9adebab32041f755214dbc6bffa90cc0225b39da2e5c2d3b600080a2600160fb55005b60405162461bcd60e51b815260206004820152602d60248201527f455243313936373a206e657720696d706c656d656e746174696f6e206973206e60448201526c1bdd08184818dbdb9d1c9858dd609a1b6064820152608490fd5b3461015a57606036600319011261015a5761117b611362565b604435906001600160a01b038216820361015a5760018060a01b0316600052610166602052604060002060243560005260205260406000209060018060a01b03166000526020526020604060002054604051908152f35b3461015a57600036600319011261015a5760206040517ff231c949c28bf5b559ad7f4aed23c5b513f3ebb22b7102cb598e397050bd9b978152f35b3461015a57600036600319011261015a57610163546040516001600160a01b039091168152602090f35b3461015a57600036600319011261015a57610160546040516001600160a01b039091168152602090f35b3461015a57604036600319011261015a5760043561127d61134c565b6001600160a01b031660009081526101646020526040812080549192835b8381106112ad57602085604051908152f35b816112b882856113cf565b5054146112c8575b60010161129b565b936112e460019160026112db88876113cf565b50015490611401565b9490506112c0565b3461015a57600036600319011261015a57610162546040516001600160a01b039091168152602090f35b3461015a57602036600319011261015a576004359063ffffffff60e01b821680920361015a576020916301ffc9a760e01b148152f35b602435906001600160a01b038216820361015a57565b600435906001600160a01b038216820361015a57565b606081019081106001600160401b0382111761098a57604052565b90601f801991011681019081106001600160401b0382111761098a57604052565b6001600160401b03811161098a57601f01601f191660200190565b80548210156113eb576000526003602060002091020190600090565b634e487b7160e01b600052603260045260246000fd5b91908201809211610a2857565b6001600160401b03811161098a5760051b60200190565b80518210156113eb5760209160051b010190565b6001600160a01b0316600090815261016460205260409020805491939282851015611553576114689085611401565b9180831161154b575b50838203918211610a28576114858261140e565b906114936040519283611393565b828252601f196114a28461140e565b0160005b81811061151f575050819460005b8481106114c2575050505050565b806114d86114d260019385611401565b856113cf565b506002604051916114e883611378565b80548352848060a01b03858201541660208401520154604082015261150d8287611425565b526115188186611425565b50016114b4565b60209060405161152e81611378565b6000815260008382015260006040820152828287010152016114a6565b915038611471565b50506040519192506000905061156a602083611393565b81526000805b81811061157c57505090565b60209060405161158b81611378565b600081526000838201526000604082015282828601015201611570565b51906001600160a01b038216820361015a57565b81601f8201121561015a578051906115d3826113b4565b926115e16040519485611393565b8284526020838301011161015a5760005b82811061160757505060206000918301015290565b806020809284010151828287010152016115f2565b5190811515820361015a57565b600260fb541461163a57600260fb55565b60405162461bcd60e51b815260206004820152601f60248201527f5265656e7472616e637947756172643a207265656e7472616e742063616c6c006044820152606490fd5b60ff60c9541661168b57565b60405162461bcd60e51b815260206004820152601060248201526f14185d5cd8589b194e881c185d5cd95960821b6044820152606490fd5b603380546001600160a01b039283166001600160a01b0319821681179092559091167f8be0079c531659141344cd1fd0a4f28419497f9722a3daafe3b4186f6b6457e0600080a3565b1561171357565b60405162461bcd60e51b815260206004820152602b60248201527f496e697469616c697a61626c653a20636f6e7472616374206973206e6f74206960448201526a6e697469616c697a696e6760a81b6064820152608490fdfea26469706673582212204a3b9ed144deba99ef5e0fa9456ffe0ba064d382e2a75ae4199095c6841d6c9764736f6c634300081c0033",
  "linkReferences": {},
  "deployedLinkReferences": {}
}