{
  "_format": "hh-sol-artifact-1",
  "contractName": "WMATICMock",
  "sourceName": "contracts/test/WMATICMock.sol",
  "abi": [
    {
      "inputs": [
        {
          "internalType": "string",
          "name": "name",
          "type": "string"
        },
        {
          "internalType": "string",
          "name": "symbol",
          "type": "string"
        },
        {
          "internalType": "uint8",
          "name": "decimals_",
          "type": "uint8"
        }
      ],
      "stateMutability": "nonpayable",
      "type": "constructor"
    },
    {
      "anonymous": false,
      "inputs": [
        {
          "indexed": true,
          "internalType": "address",
          "name": "owner",
          "type": "address"
        },
        {
          "indexed": true,
          "internalType": "address",
          "name": "spender",
          "type": "address"
        },
        {
          "indexed": false,
          "internalType": "uint256",
          "name": "value",
          "type": "uint256"
        }
      ],
      "name": "Approval",
      "type": "event"
    },
    {
      "anonymous": false,
      "inputs": [
        {
          "indexed": true,
          "internalType": "address",
          "name": "from",
          "type": "address"
        },
        {
          "indexed": true,
          "internalType": "address",
          "name": "to",
          "type": "address"
        },
        {
          "indexed": false,
          "internalType": "uint256",
          "name": "value",
          "type": "uint256"
        }
      ],
      "name": "Transfer",
      "type": "event"
    },
    {
      "inputs": [
        {
          "internalType": "address",
          "name": "owner",
          "type": "address"
        },
        {
          "internalType": "address",
          "name": "spender",
          "type": "address"
        }
      ],
      "name": "allowance",
      "outputs": [
        {
          "internalType": "uint256",
          "name": "",
          "type": "uint256"
        }
      ],
      "stateMutability": "view",
      "type": "function"
    },
    {
      "inputs": [
        {
          "internalType": "address",
          "name": "spender",
          "type": "address"
        },
        {
          "internalType": "uint256",
          "name": "amount",
          "type": "uint256"
        }
      ],
      "name": "approve",
      "outputs": [
        {
          "internalType": "bool",
          "name": "",
          "type": "bool"
        }
      ],
      "stateMutability": "nonpayable",
      "type": "function"
    },
    {
      "inputs": [
        {
          "internalType": "address",
          "name": "account",
          "type": "address"
        }
      ],
      "name": "balanceOf",
      "outputs": [
        {
          "internalType": "uint256",
          "name": "",
          "type": "uint256"
        }
      ],
      "stateMutability": "view",
      "type": "function"
    },
    {
      "inputs": [],
      "name": "decimals",
      "outputs": [
        {
          "internalType": "uint8",
          "name": "",
          "type": "uint8"
        }
      ],
      "stateMutability": "view",
      "type": "function"
    },
    {
      "inputs": [
        {
          "internalType": "address",
          "name": "spender",
          "type": "address"
        },
        {
          "internalType": "uint256",
          "name": "subtractedValue",
          "type": "uint256"
        }
      ],
      "name": "decreaseAllowance",
      "outputs": [
        {
          "internalType": "bool",
          "name": "",
          "type": "bool"
        }
      ],
      "stateMutability": "nonpayable",
      "type": "function"
    },
    {
      "inputs": [],
      "name": "deposit",
      "outputs": [],
      "stateMutability": "payable",
      "type": "function"
    },
    {
      "inputs": [
        {
          "internalType": "address",
          "name": "spender",
          "type": "address"
        },
        {
          "internalType": "uint256",
          "name": "addedValue",
          "type": "uint256"
        }
      ],
      "name": "increaseAllowance",
      "outputs": [
        {
          "internalType": "bool",
          "name": "",
          "type": "bool"
        }
      ],
      "stateMutability": "nonpayable",
      "type": "function"
    },
    {
      "inputs": [
        {
          "internalType": "address",
          "name": "account",
          "type": "address"
        },
        {
          "internalType": "uint256",
          "name": "amount",
          "type": "uint256"
        }
      ],
      "name": "mint",
      "outputs": [],
      "stateMutability": "nonpayable",
      "type": "function"
    },
    {
      "inputs": [],
      "name": "name",
      "outputs": [
        {
          "internalType": "string",
          "name": "",
          "type": "string"
        }
      ],
      "stateMutability": "view",
      "type": "function"
    },
    {
      "inputs": [],
      "name": "symbol",
      "outputs": [
        {
          "internalType": "string",
          "name": "",
          "type": "string"
        }
      ],
      "stateMutability": "view",
      "type": "function"
    },
    {
      "inputs": [],
      "name": "totalSupply",
      "outputs": [
        {
          "internalType": "uint256",
          "name": "",
          "type": "uint256"
        }
      ],
      "stateMutability": "view",
      "type": "function"
    },
    {
      "inputs": [
        {
          "internalType": "address",
          "name": "to",
          "type": "address"
        },
        {
          "internalType": "uint256",
          "name": "amount",
          "type": "uint256"
        }
      ],
      "name": "transfer",
      "outputs": [
        {
          "internalType": "bool",
          "name": "",
          "type": "bool"
        }
      ],
      "stateMutability": "nonpayable",
      "type": "function"
    },
    {
      "inputs": [
        {
          "internalType": "address",
          "name": "from",
          "type": "address"
        },
        {
          "internalType": "address",
          "name": "to",
          "type": "address"
        },
        {
          "internalType": "uint256",
          "name": "amount",
          "type": "uint256"
        }
      ],
      "name": "transferFrom",
      "outputs": [
        {
          "internalType": "bool",
          "name": "",
          "type": "bool"
        }
      ],
      "stateMutability": "nonpayable",
      "type": "function"
    },
    {
      "inputs": [
        {
          "internalType": "uint256",
          "name": "amount",
          "type": "uint256"
        }
      ],
      "name": "withdraw",
      "outputs": [],
      "stateMutability": "nonpayable",
      "type": "function"
    },
    {
      "stateMutability": "payable",
      "type": "receive"
    }
  ],
  "bytecode": "0x60806040523461034457610f3d8038038061001981610349565b9283398101906060818303126103445780516001600160401b038111610344578261004591830161036e565b60208201519092906001600160401b0381116103445760409161006991840161036e565b91015160ff81168091036103445782516001600160401b03811161024d57600354600181811c9116801561033a575b602082101461022d57601f81116102d5575b506020601f821160011461026e5781929394600092610263575b50508160011b916000199060031b1c1916176003555b81516001600160401b03811161024d57600454600181811c91168015610243575b602082101461022d57601f81116101c8575b50602092601f82116001146101635792819293600092610158575b50508160011b916000199060031b1c1916176004555b60ff196005541617600555604051610b6390816103da8239f35b015190503880610128565b601f198216936004600052806000209160005b8681106101b05750836001959610610197575b505050811b0160045561013e565b015160001960f88460031b161c19169055388080610189565b91926020600181928685015181550194019201610176565b60046000527f8a35acfbc15ff81a39ae7d344fd709f28e8600b4aa8c65c6b64bfe7fe36bd19b601f830160051c81019160208410610223575b601f0160051c01905b818110610217575061010d565b6000815560010161020a565b9091508190610201565b634e487b7160e01b600052602260045260246000fd5b90607f16906100fb565b634e487b7160e01b600052604160045260246000fd5b0151905038806100c4565b601f198216906003600052806000209160005b8181106102bd575095836001959697106102a4575b505050811b016003556100da565b015160001960f88460031b161c19169055388080610296565b9192602060018192868b015181550194019201610281565b60036000527fc2575a0e9e593c00f959f8c92f12db2869c3395a3b0502d05e2516446f71f85b601f830160051c81019160208410610330575b601f0160051c01905b81811061032457506100aa565b60008155600101610317565b909150819061030e565b90607f1690610098565b600080fd5b6040519190601f01601f191682016001600160401b0381118382101761024d57604052565b81601f82011215610344578051906001600160401b03821161024d5761039d601f8301601f1916602001610349565b92828452602083830101116103445760005b8281106103c457505060206000918301015290565b806020809284010151828287010152016103af56fe6080806040526004361015610027575b50361561001b57600080fd5b610025343361090b565b005b60003560e01c90816306fdde031461069857508063095ea7b31461067257806318160ddd1461065457806323b872dd146105965780632e1a7d4d14610405578063313ce567146103e4578063395093511461039257806340c10f191461036d57806370a082311461033357806395d89b4114610212578063a457c2d71461016b578063a9059cbb1461013a578063d0e30db0146101245763dd62ed3e146100ce573861000f565b3461011f57604036600319011261011f576100e76107b4565b6100ef6107ca565b6001600160a01b039182166000908152600160209081526040808320949093168252928352819020549051908152f35b600080fd5b600036600319011261011f57610025343361090b565b3461011f57604036600319011261011f576101606101566107b4565b60243590336109ae565b602060405160018152f35b3461011f57604036600319011261011f576101846107b4565b60243590336000526001602052604060002060018060a01b038216600052602052604060002054918083106101bf5761016092039033610803565b60405162461bcd60e51b815260206004820152602560248201527f45524332303a2064656372656173656420616c6c6f77616e63652062656c6f77604482015264207a65726f60d81b6064820152608490fd5b3461011f57600036600319011261011f5760405160006004548060011c90600181168015610329575b602083108114610315578285529081156102f957506001146102a2575b50819003601f01601f191681019067ffffffffffffffff82118183101761028c576102888291826040528261076b565b0390f35b634e487b7160e01b600052604160045260246000fd5b905060046000527f8a35acfbc15ff81a39ae7d344fd709f28e8600b4aa8c65c6b64bfe7fe36bd19b6000905b8282106102e357506020915082010182610258565b60018160209254838588010152019101906102ce565b90506020925060ff191682840152151560051b82010182610258565b634e487b7160e01b84526022600452602484fd5b91607f169161023b565b3461011f57602036600319011261011f576001600160a01b036103546107b4565b1660005260006020526020604060002054604051908152f35b3461011f57604036600319011261011f576100256103896107b4565b6024359061090b565b3461011f57604036600319011261011f576101606103ae6107b4565b336000526001602052604060002060018060a01b0382166000526020526103dd604060002060243590546107e0565b9033610803565b3461011f57600036600319011261011f57602060ff60055416604051908152f35b3461011f57602036600319011261011f57600435336000526000602052806040600020541061055a57331561050b573360005260006020526040600020548181106104bb576000808381948294338452836020520360408320558060025403600255816040518281527fddf252ad1be2c89b69c2b068fc378daa952ba7f163c4a11628f55a4df523b3ef60203392a38181156104b2575b3390f1156104a657005b6040513d6000823e3d90fd5b506108fc61049c565b60405162461bcd60e51b815260206004820152602260248201527f45524332303a206275726e20616d6f756e7420657863656564732062616c616e604482015261636560f01b6064820152608490fd5b60405162461bcd60e51b815260206004820152602160248201527f45524332303a206275726e2066726f6d20746865207a65726f206164647265736044820152607360f81b6064820152608490fd5b60405162461bcd60e51b8152602060048201526014602482015273496e73756666696369656e742062616c616e636560601b6044820152606490fd5b3461011f57606036600319011261011f576105af6107b4565b6105b76107ca565b6001600160a01b03821660009081526001602081815260408084203385529091529091205492604435929184016105f3575b61016093506109ae565b82841061060f5761060a8361016095033383610803565b6105e9565b60405162461bcd60e51b815260206004820152601d60248201527f45524332303a20696e73756666696369656e7420616c6c6f77616e63650000006044820152606490fd5b3461011f57600036600319011261011f576020600254604051908152f35b3461011f57604036600319011261011f5761016061068e6107b4565b6024359033610803565b3461011f57600036600319011261011f5760006003548060011c90600181168015610761575b602083108114610315578285529081156102f9575060011461070a5750819003601f01601f191681019067ffffffffffffffff82118183101761028c576102888291826040528261076b565b905060036000527fc2575a0e9e593c00f959f8c92f12db2869c3395a3b0502d05e2516446f71f85b6000905b82821061074b57506020915082010182610258565b6001816020925483858801015201910190610736565b91607f16916106be565b91909160208152825180602083015260005b81811061079e575060409293506000838284010152601f8019910116010190565b806020809287010151604082860101520161077d565b600435906001600160a01b038216820361011f57565b602435906001600160a01b038216820361011f57565b919082018092116107ed57565b634e487b7160e01b600052601160045260246000fd5b6001600160a01b03169081156108ba576001600160a01b031691821561086a5760207f8c5be1e5ebec7d5bd14f71427d1e84f3dd0314c0f7b2291e5b200ac8c7c3b925918360005260018252604060002085600052825280604060002055604051908152a3565b60405162461bcd60e51b815260206004820152602260248201527f45524332303a20617070726f766520746f20746865207a65726f206164647265604482015261737360f01b6064820152608490fd5b60405162461bcd60e51b8152602060048201526024808201527f45524332303a20617070726f76652066726f6d20746865207a65726f206164646044820152637265737360e01b6064820152608490fd5b6001600160a01b0316908115610969577fddf252ad1be2c89b69c2b068fc378daa952ba7f163c4a11628f55a4df523b3ef60208261094d6000946002546107e0565b60025584845283825260408420818154019055604051908152a3565b60405162461bcd60e51b815260206004820152601f60248201527f45524332303a206d696e7420746f20746865207a65726f2061646472657373006044820152606490fd5b6001600160a01b0316908115610ada576001600160a01b0316918215610a8957816000526000602052604060002054818110610a3557817fddf252ad1be2c89b69c2b068fc378daa952ba7f163c4a11628f55a4df523b3ef9260209285600052600084520360406000205584600052600082526040600020818154019055604051908152a3565b60405162461bcd60e51b815260206004820152602660248201527f45524332303a207472616e7366657220616d6f756e7420657863656564732062604482015265616c616e636560d01b6064820152608490fd5b60405162461bcd60e51b815260206004820152602360248201527f45524332303a207472616e7366657220746f20746865207a65726f206164647260448201526265737360e81b6064820152608490fd5b60405162461bcd60e51b815260206004820152602560248201527f45524332303a207472616e736665722066726f6d20746865207a65726f206164604482015264647265737360d81b6064820152608490fdfea26469706673582212201fb8db5aba34051689cd588414aeb0d60046a99efcce284c44bacc59beba3ae664736f6c634300081c0033",
  "linkReferences": {},
  "deployedLinkReferences": {}
}