{
  "_format": "hh-sol-artifact-1",
  "contractName": "CompanyStaking",
  "sourceName": "contracts/modules/CompanyStaking.sol",
  "abi": [
    {
      "inputs": [],
      "stateMutability": "nonpayable",
      "type": "constructor"
    },
    {
      "inputs": [],
      "name": "CallerNotLaunchpadOwner",
      "type": "error"
    },
    {
      "inputs": [],
      "name": "InvalidRewardAmount",
      "type": "error"
    },
    {
      "inputs": [],
      "name": "LaunchpadNotConfigured",
      "type": "error"
    },
    {
      "inputs": [],
      "name": "MintToZero",
      "type": "error"
    },
    {
      "inputs": [],
      "name": "NotAuthorized",
      "type": "error"
    },
    {
      "inputs": [],
      "name": "RenounceOwnershipDisabled",
      "type": "error"
    },
    {
      "inputs": [],
      "name": "TransferOwnershipDirectDisabled",
      "type": "error"
    },
    {
      "inputs": [],
      "name": "UnauthorizedCaller",
      "type": "error"
    },
    {
      "inputs": [],
      "name": "UpgradeToAndCallDisabled",
      "type": "error"
    },
    {
      "inputs": [],
      "name": "YearInPast",
      "type": "error"
    },
    {
      "inputs": [],
      "name": "ZeroAddress",
      "type": "error"
    },
    {
      "anonymous": false,
      "inputs": [
        {
          "indexed": false,
          "internalType": "address",
          "name": "previousAdmin",
          "type": "address"
        },
        {
          "indexed": false,
          "internalType": "address",
          "name": "newAdmin",
          "type": "address"
        }
      ],
      "name": "AdminChanged",
      "type": "event"
    },
    {
      "anonymous": false,
      "inputs": [
        {
          "indexed": true,
          "internalType": "address",
          "name": "beacon",
          "type": "address"
        }
      ],
      "name": "BeaconUpgraded",
      "type": "event"
    },
    {
      "anonymous": false,
      "inputs": [
        {
          "indexed": false,
          "internalType": "uint8",
          "name": "version",
          "type": "uint8"
        }
      ],
      "name": "Initialized",
      "type": "event"
    },
    {
      "anonymous": false,
      "inputs": [
        {
          "indexed": true,
          "internalType": "address",
          "name": "previousOwner",
          "type": "address"
        },
        {
          "indexed": true,
          "internalType": "address",
          "name": "newOwner",
          "type": "address"
        }
      ],
      "name": "OwnershipTransferred",
      "type": "event"
    },
    {
      "anonymous": false,
      "inputs": [
        {
          "indexed": false,
          "internalType": "address",
          "name": "account",
          "type": "address"
        }
      ],
      "name": "Paused",
      "type": "event"
    },
    {
      "anonymous": false,
      "inputs": [
        {
          "indexed": true,
          "internalType": "uint256",
          "name": "companyId",
          "type": "uint256"
        },
        {
          "indexed": true,
          "internalType": "uint256",
          "name": "poolIndex",
          "type": "uint256"
        },
        {
          "indexed": true,
          "internalType": "address",
          "name": "user",
          "type": "address"
        },
        {
          "indexed": false,
          "internalType": "uint256",
          "name": "amount",
          "type": "uint256"
        }
      ],
      "name": "RewardsClaimed",
      "type": "event"
    },
    {
      "anonymous": false,
      "inputs": [
        {
          "indexed": true,
          "internalType": "uint256",
          "name": "companyId",
          "type": "uint256"
        },
        {
          "indexed": true,
          "internalType": "address",
          "name": "user",
          "type": "address"
        },
        {
          "indexed": false,
          "internalType": "uint256",
          "name": "amount",
          "type": "uint256"
        },
        {
          "indexed": false,
          "internalType": "uint256",
          "name": "durationDays",
          "type": "uint256"
        }
      ],
      "name": "Staked",
      "type": "event"
    },
    {
      "anonymous": false,
      "inputs": [
        {
          "indexed": false,
          "internalType": "address",
          "name": "account",
          "type": "address"
        }
      ],
      "name": "Unpaused",
      "type": "event"
    },
    {
      "anonymous": false,
      "inputs": [
        {
          "indexed": true,
          "internalType": "uint256",
          "name": "companyId",
          "type": "uint256"
        },
        {
          "indexed": true,
          "internalType": "address",
          "name": "user",
          "type": "address"
        },
        {
          "indexed": false,
          "internalType": "uint256",
          "name": "amount",
          "type": "uint256"
        },
        {
          "indexed": false,
          "internalType": "uint256",
          "name": "poolIndex",
          "type": "uint256"
        }
      ],
      "name": "Unstaked",
      "type": "event"
    },
    {
      "anonymous": false,
      "inputs": [
        {
          "indexed": true,
          "internalType": "address",
          "name": "implementation",
          "type": "address"
        }
      ],
      "name": "Upgraded",
      "type": "event"
    },
    {
      "anonymous": false,
      "inputs": [
        {
          "indexed": true,
          "internalType": "uint256",
          "name": "year",
          "type": "uint256"
        },
        {
          "indexed": false,
          "internalType": "uint256",
          "name": "rewardAmount",
          "type": "uint256"
        }
      ],
      "name": "YearlyRewardSet",
      "type": "event"
    },
    {
      "inputs": [],
      "name": "MINT_COOLDOWN",
      "outputs": [
        {
          "internalType": "uint256",
          "name": "",
          "type": "uint256"
        }
      ],
      "stateMutability": "view",
      "type": "function"
    },
    {
      "inputs": [],
      "name": "YEAR_DURATION",
      "outputs": [
        {
          "internalType": "uint256",
          "name": "",
          "type": "uint256"
        }
      ],
      "stateMutability": "view",
      "type": "function"
    },
    {
      "inputs": [
        {
          "internalType": "address",
          "name": "account",
          "type": "address"
        }
      ],
      "name": "balanceOf",
      "outputs": [
        {
          "internalType": "uint256",
          "name": "",
          "type": "uint256"
        }
      ],
      "stateMutability": "view",
      "type": "function"
    },
    {
      "inputs": [],
      "name": "daoTransitionTimestamp",
      "outputs": [
        {
          "internalType": "uint256",
          "name": "",
          "type": "uint256"
        }
      ],
      "stateMutability": "view",
      "type": "function"
    },
    {
      "inputs": [
        {
          "internalType": "address",
          "name": "account",
          "type": "address"
        },
        {
          "internalType": "uint256",
          "name": "year",
          "type": "uint256"
        }
      ],
      "name": "earned",
      "outputs": [
        {
          "internalType": "uint256",
          "name": "",
          "type": "uint256"
        }
      ],
      "stateMutability": "view",
      "type": "function"
    },
    {
      "inputs": [],
      "name": "getAdminRole",
      "outputs": [
        {
          "internalType": "bytes32",
          "name": "",
          "type": "bytes32"
        }
      ],
      "stateMutability": "view",
      "type": "function"
    },
    {
      "inputs": [],
      "name": "getCurrentYear",
      "outputs": [
        {
          "internalType": "uint256",
          "name": "",
          "type": "uint256"
        }
      ],
      "stateMutability": "view",
      "type": "function"
    },
    {
      "inputs": [],
      "name": "getLaunchpadAddress",
      "outputs": [
        {
          "internalType": "address",
          "name": "",
          "type": "address"
        }
      ],
      "stateMutability": "view",
      "type": "function"
    },
    {
      "inputs": [],
      "name": "getMyAddress",
      "outputs": [
        {
          "internalType": "address",
          "name": "",
          "type": "address"
        }
      ],
      "stateMutability": "view",
      "type": "function"
    },
    {
      "inputs": [],
      "name": "getOwner",
      "outputs": [
        {
          "internalType": "address",
          "name": "",
          "type": "address"
        }
      ],
      "stateMutability": "view",
      "type": "function"
    },
    {
      "inputs": [
        {
          "internalType": "address",
          "name": "user",
          "type": "address"
        },
        {
          "internalType": "uint256",
          "name": "year",
          "type": "uint256"
        }
      ],
      "name": "getPendingRewardsByUserAndYear",
      "outputs": [
        {
          "internalType": "uint256",
          "name": "",
          "type": "uint256"
        }
      ],
      "stateMutability": "view",
      "type": "function"
    },
    {
      "inputs": [
        {
          "internalType": "address",
          "name": "caller",
          "type": "address"
        }
      ],
      "name": "getReward",
      "outputs": [
        {
          "internalType": "uint256",
          "name": "totalReward",
          "type": "uint256"
        }
      ],
      "stateMutability": "nonpayable",
      "type": "function"
    },
    {
      "inputs": [
        {
          "internalType": "uint256",
          "name": "year",
          "type": "uint256"
        }
      ],
      "name": "getTotalMintedByYear",
      "outputs": [
        {
          "internalType": "uint256",
          "name": "",
          "type": "uint256"
        }
      ],
      "stateMutability": "view",
      "type": "function"
    },
    {
      "inputs": [
        {
          "internalType": "address",
          "name": "user",
          "type": "address"
        },
        {
          "internalType": "uint256",
          "name": "year",
          "type": "uint256"
        }
      ],
      "name": "getUserMintedByYear",
      "outputs": [
        {
          "internalType": "uint256",
          "name": "",
          "type": "uint256"
        }
      ],
      "stateMutability": "view",
      "type": "function"
    },
    {
      "inputs": [
        {
          "internalType": "uint256",
          "name": "year",
          "type": "uint256"
        }
      ],
      "name": "getYearEndTimestamp",
      "outputs": [
        {
          "internalType": "uint256",
          "name": "",
          "type": "uint256"
        }
      ],
      "stateMutability": "pure",
      "type": "function"
    },
    {
      "inputs": [
        {
          "internalType": "uint256",
          "name": "year",
          "type": "uint256"
        }
      ],
      "name": "getYearStartTimestamp",
      "outputs": [
        {
          "internalType": "uint256",
          "name": "",
          "type": "uint256"
        }
      ],
      "stateMutability": "pure",
      "type": "function"
    },
    {
      "inputs": [
        {
          "internalType": "address",
          "name": "_stakingToken",
          "type": "address"
        },
        {
          "internalType": "uint256",
          "name": "firstYearReward",
          "type": "uint256"
        },
        {
          "internalType": "uint256",
          "name": "secondYearReward",
          "type": "uint256"
        },
        {
          "internalType": "address",
          "name": "_owner",
          "type": "address"
        },
        {
          "internalType": "address",
          "name": "_rewardsToken",
          "type": "address"
        },
        {
          "internalType": "address",
          "name": "_launchpadAddress",
          "type": "address"
        }
      ],
      "name": "initialize",
      "outputs": [],
      "stateMutability": "nonpayable",
      "type": "function"
    },
    {
      "inputs": [],
      "name": "owner",
      "outputs": [
        {
          "internalType": "address",
          "name": "",
          "type": "address"
        }
      ],
      "stateMutability": "view",
      "type": "function"
    },
    {
      "inputs": [],
      "name": "pause",
      "outputs": [],
      "stateMutability": "nonpayable",
      "type": "function"
    },
    {
      "inputs": [],
      "name": "paused",
      "outputs": [
        {
          "internalType": "bool",
          "name": "",
          "type": "bool"
        }
      ],
      "stateMutability": "view",
      "type": "function"
    },
    {
      "inputs": [],
      "name": "poolStartTime",
      "outputs": [
        {
          "internalType": "uint256",
          "name": "",
          "type": "uint256"
        }
      ],
      "stateMutability": "view",
      "type": "function"
    },
    {
      "inputs": [],
      "name": "proxiableUUID",
      "outputs": [
        {
          "internalType": "bytes32",
          "name": "",
          "type": "bytes32"
        }
      ],
      "stateMutability": "view",
      "type": "function"
    },
    {
      "inputs": [],
      "name": "renounceOwnership",
      "outputs": [],
      "stateMutability": "nonpayable",
      "type": "function"
    },
    {
      "inputs": [
        {
          "internalType": "uint256",
          "name": "year",
          "type": "uint256"
        }
      ],
      "name": "rewardPerToken",
      "outputs": [
        {
          "internalType": "uint256",
          "name": "",
          "type": "uint256"
        }
      ],
      "stateMutability": "view",
      "type": "function"
    },
    {
      "inputs": [],
      "name": "rewardsToken",
      "outputs": [
        {
          "internalType": "contract IVanellixUtilityToken",
          "name": "",
          "type": "address"
        }
      ],
      "stateMutability": "view",
      "type": "function"
    },
    {
      "inputs": [
        {
          "internalType": "uint256",
          "name": "year",
          "type": "uint256"
        },
        {
          "internalType": "uint256",
          "name": "rewardAmount",
          "type": "uint256"
        }
      ],
      "name": "setYearlyReward",
      "outputs": [],
      "stateMutability": "nonpayable",
      "type": "function"
    },
    {
      "inputs": [
        {
          "internalType": "uint256",
          "name": "companyId",
          "type": "uint256"
        },
        {
          "internalType": "uint256",
          "name": "amount",
          "type": "uint256"
        },
        {
          "internalType": "uint256",
          "name": "durationDays",
          "type": "uint256"
        },
        {
          "internalType": "address",
          "name": "caller",
          "type": "address"
        }
      ],
      "name": "stake",
      "outputs": [],
      "stateMutability": "nonpayable",
      "type": "function"
    },
    {
      "inputs": [],
      "name": "stakingToken",
      "outputs": [
        {
          "internalType": "contract IERC20",
          "name": "",
          "type": "address"
        }
      ],
      "stateMutability": "view",
      "type": "function"
    },
    {
      "inputs": [
        {
          "internalType": "bytes4",
          "name": "interfaceId",
          "type": "bytes4"
        }
      ],
      "name": "supportsInterface",
      "outputs": [
        {
          "internalType": "bool",
          "name": "",
          "type": "bool"
        }
      ],
      "stateMutability": "view",
      "type": "function"
    },
    {
      "inputs": [],
      "name": "totalSupply",
      "outputs": [
        {
          "internalType": "uint256",
          "name": "",
          "type": "uint256"
        }
      ],
      "stateMutability": "view",
      "type": "function"
    },
    {
      "inputs": [
        {
          "internalType": "address",
          "name": "",
          "type": "address"
        }
      ],
      "name": "transferOwnership",
      "outputs": [],
      "stateMutability": "nonpayable",
      "type": "function"
    },
    {
      "inputs": [],
      "name": "unpause",
      "outputs": [],
      "stateMutability": "nonpayable",
      "type": "function"
    },
    {
      "inputs": [],
      "name": "updateOwnerFromLaunchpad",
      "outputs": [],
      "stateMutability": "nonpayable",
      "type": "function"
    },
    {
      "inputs": [
        {
          "internalType": "address",
          "name": "newImplementation",
          "type": "address"
        }
      ],
      "name": "upgradeTo",
      "outputs": [],
      "stateMutability": "nonpayable",
      "type": "function"
    },
    {
      "inputs": [
        {
          "internalType": "address",
          "name": "",
          "type": "address"
        },
        {
          "internalType": "bytes",
          "name": "",
          "type": "bytes"
        }
      ],
      "name": "upgradeToAndCall",
      "outputs": [],
      "stateMutability": "payable",
      "type": "function"
    },
    {
      "inputs": [
        {
          "internalType": "uint256",
          "name": "companyId",
          "type": "uint256"
        },
        {
          "internalType": "uint256",
          "name": "poolIndex",
          "type": "uint256"
        },
        {
          "internalType": "uint256",
          "name": "amount",
          "type": "uint256"
        },
        {
          "internalType": "address",
          "name": "caller",
          "type": "address"
        }
      ],
      "name": "withdraw",
      "outputs": [],
      "stateMutability": "nonpayable",
      "type": "function"
    }
  ],
  "bytecode": "0x60c0806040523461011d573060805261016280546001600160a01b0319908116909155610163805490911690554260a05260005490600882901c60ff166100cb575060ff80821603610090575b6040516123e590816101238239608051816110c2015260a05181818161025c015281816106e601528181611025015281816114e301528181611e540152611fbd0152f35b60ff90811916176000557f7f26b83ff96e1f2b6a682f133852f6798a09c465da95921460cefb3847402498602060405160ff8152a13861004c565b62461bcd60e51b815260206004820152602760248201527f496e697469616c697a61626c653a20636f6e747261637420697320696e697469604482015266616c697a696e6760c81b6064820152608490fd5b600080fdfe608080604052600436101561001357600080fd5b600090813560e01c90816301ffc9a714611b8d575080630dc0ba7214611b6e57806311917b1d146118d257806311f10116146118a857806318160ddd1461188957806329793b2b146112b657806330815e56146114b05780633659cfe61461138b578063366f8d65146112bb5780633e491d47146112b65780633f4ba83a146112105780634f1ef2861461118557806352d1902d146110af57806358e985861461106b5780635c975abb146110485780635f96dc111461100d5780636198dfae14610fee57806370a0823114610fb4578063715018a614610f8957806372f702f314610f5f57806374ced87014610f405780638456cb5914610ebd578063850bcab914610dac578063874c120b14610d8d578063893d20e814610d645780638da5cb5b14610d645780639a16629914610d49578063b3ecf23614610d0e578063c00007b0146106ab578063ce41607a14610690578063d04b594314610648578063d1af0c7d1461061e578063d331bef71461022a578063f2fde38b146101f8578063f7ee7a43146101da5763f843433c146101ad57600080fd5b346101d75760203660031901126101d7576040602091600435815261017183522054604051908152f35b80fd5b50346101d757806003193601126101d7576020604051620151808152f35b50346101d75760203660031901126101d757600490610215611bc9565b5061021e61210d565b635a42e44960e01b8152fd5b50346101d75761023936611c0b565b90939161024461210d565b61024c612163565b610254612007565b906301e133807f0000000000000000000000000000000000000000000000000000000000000000046107b2810180911161060a576001600160a01b03841696929587158015949093835b89811115806105fd575b1561048f5780895261016460205260408920541580610486575b610421575b6102d081611eb2565b818a52610164602052600460408b2001556001810180821161040d57806102f78892611e89565b4210156103ff5750425b828b52610164602052600560408c20015561037d575b610325908761032a57611cbe565b61029e565b610334818a611d61565b8c8b5261016560205260408b20828c52602052600160408c200155808a52610164602052600460408b2001548c8b5261016560205260408b20828c5260205260408b2055611cbe565b98939189899b98979b9694929652610170602052886040812055885b61016b548110156103e757806103c78c6103b4600194611ccd565b858060a01b0391549060031b1c16611d61565b8c8c526101706020526103df60408d20918254611cb1565b905501610399565b50919398610325908b97989b96929496509050610317565b61040890611e89565b610301565b634e487b7160e01b8a52601160045260248afd5b61016f5489526101646020526040892054818a5261016460205260408a205561044981611e89565b818a52610164602052600560408b20015580895261016460205280600080516020612390833981519152602060408c2054604051908152a26102c7565b508481116102c2565b888b8585858c60018060a01b03610160541660206040518092632ee325db60e21b825281806104c060048201611d1f565b03915afa9081156105f25787916105c3575b50336001600160a01b03909116036105b45782156105a55784865261016e602052826040872054106105a55791604091610592827fffdaf13b1d96bfc2213355f353f84c19493e0681eb0df26f83d862acd266750a956105358261016d54611d41565b61016d55888a5261016e602052858a20610550838254611d41565b905561016354865163a9059cbb60e01b60208201526001600160a01b0392831660248201526044808201949094529283521661058d606483611c39565b6121a7565b82519182526020820152a3600160fb5580f35b633853986560e01b8652600486fd5b63ea8e4eb560e01b8652600486fd5b6105e5915060203d6020116105eb575b6105dd8183611c39565b810190611d00565b876104d2565b503d6105d3565b6040513d89823e3d90fd5b5061016f548111156102a8565b634e487b7160e01b85526011600452602485fd5b50346101d757806003193601126101d757610162546040516001600160a01b039091168152602090f35b50346101d75760203660031901126101d757600435906001820180921161067c57602061067483611e89565b604051908152f35b634e487b7160e01b81526011600452602490fd5b50346101d757806003193601126101d7576020610674612007565b50346101d75760203660031901126101d7576106c5611bc9565b906106ce61210d565b6106d6612163565b6106de612007565b906301e133807f000000000000000000000000000000000000000000000000000000000000000004926107b28401809411610cfa576001600160a01b038116938415801591805b8681111580610ced575b156108e357808652610164602052604086205415806108da575b610875575b61075781611eb2565b818752610164602052600460408820015561077961077482611c8d565b611e89565b4210156108635782425b82885261016460205260056040892001556107ff575b6107a790846107ac57611cbe565b610725565b6107b68187611d61565b8988526101656020526040882082895260205260016040892001558087526101646020526004604088200154898852610165602052604088208289526020526040882055611cbe565b95909186869895949852610170602052856040812055855b61016b548110156108525780610832896103b4600194611ccd565b89895261017060205261084a60408a20918254611cb1565b905501610817565b509396909592939092909190610799565b8261087061077483611c8d565b610783565b61016f5486526101646020526040862054818752610164602052604087205561089d81611e89565b81875261016460205260056040882001558086526101646020528060008051602061239083398151915260206040892054604051908152a261074e565b50818111610749565b8585898460018060a01b03610160541660206040518092632ee325db60e21b8252818061091260048201611d1f565b03915afa908115610ce2578591610cc3575b50336001600160a01b0390911603610cb457818452610168602052604084205462015180810180911161060a574210801590610c9f575b15610c9057610968612007565b82855261016a602052604085205490919015610c8b575081845261016a60205260408420545b61016f5460018101809111610c77575b82811115610c22575084905b8281111580610c15575b15610b0b578281108080610aea575b610ae0576109d18287611d61565b8288526101646020526109f96040892054848a52610164602052600160408b20015490611d41565b9081811115610ad85750905b81610a1b575b5050610a1690611cbe565b6109aa565b90610a169293610aa992610ab1575b86895261016560205260408920858a52602052886001604082200155848952610164602052600160408a2001610a61838254611cb1565b9055858952610164602052600260408a2001610a7e838254611cb1565b905586895261016760205260408920868a5260205260408920610aa2838254611cb1565b9055611cb1565b919087610a0b565b86895261016660205260408920858a5260205260408920600160ff19825416179055610a2a565b905090610a05565b50610a1690611cbe565b508487526101666020526040872082885260205260ff6040882054166109c3565b50929083610b24575b602084600160fb55604051908152f35b82855261016a602052604085205415610c01575b828552610168602052426040862055828552610169602052604085205560018060a01b03610162541690813b15610bfd576040516340c10f1960e01b81526001600160a01b0391909116600482015260248101849052939081908590604490829084905af1938415610bf05781602095610be0575b90507f7f8bc18fa4217890c8e6cb02b6e2d9ba0f67484334ebc4426c6f32b8ab01028085604051868152a4828080610b14565b610be991611c39565b8481610bad565b50604051903d90823e3d90fd5b8480fd5b82855261016a602052806040862055610b38565b5061016f548111156109b4565b80610c72918752610164602052866040812055610c3e81611e89565b81885261016460205260056040892001558060008051602061239083398151915260206040518a8152a28061016f55611cbe565b61099e565b634e487b7160e01b86526011600452602486fd5b61098e565b630fa894ad60e01b8452600484fd5b5081845261016860205260408420541561095b565b63ea8e4eb560e01b8452600484fd5b610cdc915060203d6020116105eb576105dd8183611c39565b85610924565b6040513d87823e3d90fd5b5061016f5481111561072f565b634e487b7160e01b82526011600452602482fd5b50346101d757806003193601126101d75760206040517fa36640f9c3d74ee87c99b3aee39f32849dda077410057abc393a2cb9e13139a78152f35b50346101d757806003193601126101d7576020604051308152f35b50346101d757806003193601126101d7576033546040516001600160a01b039091168152602090f35b50346101d75760203660031901126101d7576020610674600435611eb2565b50346101d757806003193601126101d757610dc5612163565b610dcd61210d565b610160546001600160a01b03168015610eae5760405163c696804f60e01b8152602081600481855afa908115610ea3578391610e84575b506001600160a01b03163303610e755760206004916040519283809263c696804f60e01b82525afa8015610e6a57610e43918391610e4b575b5061207d565b600160fb5580f35b610e64915060203d6020116105eb576105dd8183611c39565b38610e3d565b6040513d84823e3d90fd5b632508892760e11b8252600482fd5b610e9d915060203d6020116105eb576105dd8183611c39565b38610e04565b6040513d85823e3d90fd5b6336939d7d60e21b8252600482fd5b50346101d757806003193601126101d757610ed6612163565b610160546001600160a01b03168015610eae573303610f3157610ef7612163565b600160ff1960c954161760c9557f62e78cea01bee320cd4e420270b5ea74000d11b0c9f74754ebdbfc544b05a2586020604051338152a180f35b635c427cd960e01b8152600490fd5b50346101d757806003193601126101d757602061015f54604051908152f35b50346101d757806003193601126101d757610163546040516001600160a01b039091168152602090f35b50346101d757806003193601126101d757600490610fa561210d565b6001623f026d60e01b03198152fd5b50346101d75760203660031901126101d7576020906040906001600160a01b03610fdc611bc9565b16815261016e83522054604051908152f35b50346101d75760203660031901126101d7576020610674600435611e89565b50346101d757806003193601126101d75760206040517f00000000000000000000000000000000000000000000000000000000000000008152f35b50346101d757806003193601126101d757602060ff60c954166040519015158152f35b50346101d75760403660031901126101d7576020906040906001600160a01b03611093611bc9565b1681526101678352818120602435825283522054604051908152f35b50346101d757806003193601126101d7577f00000000000000000000000000000000000000000000000000000000000000006001600160a01b0316300361111a5760206040517f360894a13ba1a3210667c828492db98dca3e2076cc3735a920a3ca505d382bbc8152f35b60405162461bcd60e51b815260206004820152603860248201527f555550535570677261646561626c653a206d757374206e6f742062652063616c60448201527f6c6564207468726f7567682064656c656761746563616c6c00000000000000006064820152608490fd5b5060403660031901126101d75761119a611bc9565b506024359067ffffffffffffffff82116101d757366023830112156101d7578160040135916111c883611c71565b906111d66040519283611c39565b838252366024858301011161120c578383926004956024602094018483013701015261120061210d565b630c5e6cd360e21b8152fd5b8280fd5b50346101d757806003193601126101d757610160546001600160a01b03168015610eae573303610f315760c95460ff81161561127a5760ff191660c9557f5db9ee0a495bf2e6ff9c91a7834c1ba4fdd244a5e8aa4e537bd38aeae4b073aa6020604051338152a180f35b60405162461bcd60e51b815260206004820152601460248201527314185d5cd8589b194e881b9bdd081c185d5cd95960621b6044820152606490fd5b611be4565b50346101d75760403660031901126101d75760043560018060a01b03610160541660206040518092632ee325db60e21b825281806112fb60048201611d1f565b03915afa908115610ea357839161136c575b50336001600160a01b039091160361135d57611327612007565b811061134e57611339602435826120c6565b61016f548111611347575080f35b61016f5580f35b6394503c3160e01b8252600482fd5b63ea8e4eb560e01b8252600482fd5b611385915060203d6020116105eb576105dd8183611c39565b3861130d565b50346101d75760203660031901126101d7576113a5611bc9565b6113ad61210d565b610160546001600160a01b031680156114a157330361149257803b15611437577f360894a13ba1a3210667c828492db98dca3e2076cc3735a920a3ca505d382bbc80546001600160a01b0319166001600160a01b039290921691821790557fbc7cd75a20ee27fd9adebab32041f755214dbc6bffa90cc0225b39da2e5c2d3b8280a2600160fb5580f35b60405162461bcd60e51b815260206004820152602d60248201527f455243313936373a206e657720696d706c656d656e746174696f6e206973206e60448201526c1bdd08184818dbdb9d1c9858dd609a1b6064820152608490fd5b635c427cd960e01b8252600482fd5b6336939d7d60e21b8352600483fd5b50346101d7576114bf36611c0b565b906114cb94929461210d565b6114d3612163565b6114db612007565b906301e133807f0000000000000000000000000000000000000000000000000000000000000000046107b2810180911161060a576001600160a01b03841696929587158015949093835b898111158061187c575b15611696578089526101646020526040892054158061168d575b611628575b61155781611eb2565b818a52610164602052600460408b20015561157461077482611c8d565b4210156116165785425b828b52610164602052600560408c2001556115a7575b6115a2908761032a57611cbe565b611525565b98939189899b98979b9694929652610170602052886040812055885b61016b548110156115fe57806115de8c6103b4600194611ccd565b8c8c526101706020526115f660408d20918254611cb1565b9055016115c3565b509193986115a2908b97989b96929496509050611594565b8561162361077483611c8d565b61157e565b61016f5489526101646020526040892054818a5261016460205260408a205561165081611e89565b818a52610164602052600560408b20015580895261016460205280600080516020612390833981519152602060408c2054604051908152a261154e565b50848111611549565b888b85858560018060a01b03610160541660206040518092632ee325db60e21b825281806116c660048201611d1f565b03915afa908115611871578691611852575b50336001600160a01b0390911603611843578115611834576116fd8261016d54611cb1565b61016d5583855261016e60205260408520611719838254611cb1565b905583855261016c60205260ff60408620541615611797575b7f17700ceb1658b18206f427c1578048e87504106b14ec69e9b4586d9a95174a329160409161059260018060a01b0361016354168451906323b872dd60e01b60208301528860248301523060448301528460648301526064825261058d608483611c39565b83855261016c60205260408520805460ff1916600117905561016b546801000000000000000081101561182057916040916117fa8460017f17700ceb1658b18206f427c1578048e87504106b14ec69e9b4586d9a95174a32960161016b55611ccd565b81546001600160a01b0360039290921b91821b19169088901b1790559092509050611732565b634e487b7160e01b86526041600452602486fd5b633853986560e01b8552600485fd5b63ea8e4eb560e01b8552600485fd5b61186b915060203d6020116105eb576105dd8183611c39565b866116d8565b6040513d88823e3d90fd5b5061016f5481111561152f565b50346101d757806003193601126101d757602061016d54604051908152f35b50346101d757806003193601126101d757610160546040516001600160a01b039091168152602090f35b50346101d75760c03660031901126101d7576118ec611bc9565b6044356024356064356001600160a01b038116808203611b6a576084356001600160a01b0381169290839003611b665760a4356001600160a01b0381169190829003611b625787549660ff8860081c161597888099611b55575b8015611b3e575b15611ae25760ff1981166001178a5588611ad1575b506001600160a01b0316928315611ac2578415611ac2578515611ab3578615611ab35715611aa4578115611aa4576119f9906119b660ff8a5460081c166119a88161201d565b6119b18161201d565b61201d565b6119bf3361207d565b6119ef60ff8a5460081c166119d38161201d565b6119dc8161201d565b60ff1960c9541660c9556119b18161201d565b600160fb5561207d565b6001600160601b0360a01b610160541617610160556001600160601b0360a01b610163541617610163556001600160601b0360a01b61016254161761016255611a40612007565b906001820191828111610c77578291611a6191611a66959461016f556120c6565b6120c6565b611a6d5780f35b61ff001981541681557f7f26b83ff96e1f2b6a682f133852f6798a09c465da95921460cefb3847402498602060405160018152a180f35b63d92e233d60e01b8852600488fd5b633853986560e01b8952600489fd5b63d92e233d60e01b8952600489fd5b61ffff191661010117895538611962565b60405162461bcd60e51b815260206004820152602e60248201527f496e697469616c697a61626c653a20636f6e747261637420697320616c72656160448201526d191e481a5b9a5d1a585b1a5e995960921b6064820152608490fd5b50303b15801561194d5750600160ff82161461194d565b50600160ff821610611946565b8780fd5b8680fd5b8580fd5b50346101d757806003193601126101d75760206040516301e133808152f35b905034611bc5576020366003190112611bc55760043563ffffffff60e01b811680910361120c576301ffc9a760e01b14815260209150f35b5080fd5b600435906001600160a01b0382168203611bdf57565b600080fd5b34611bdf576040366003190112611bdf576020610674611c02611bc9565b60243590611d61565b6080906003190112611bdf576004359060243590604435906064356001600160a01b0381168103611bdf5790565b90601f8019910116810190811067ffffffffffffffff821117611c5b57604052565b634e487b7160e01b600052604160045260246000fd5b67ffffffffffffffff8111611c5b57601f01601f191660200190565b9060018201809211611c9b57565b634e487b7160e01b600052601160045260246000fd5b91908201809211611c9b57565b6000198114611c9b5760010190565b61016b54811015611cea5761016b60005260206000200190600090565b634e487b7160e01b600052603260045260246000fd5b90816020910312611bdf57516001600160a01b0381168103611bdf5790565b6060906020815260076020820152665374616b696e6760c81b60408201520190565b91908203918211611c9b57565b81810292918115918404141715611c9b57565b81600052610164602052604060002054801580611e4c575b91611e1f92611e31575b611e0690670de0b6b3a7640000611de0611dcb611d9f88611eb2565b9360018060a01b0316938460005261016560205260406000208960005260205260406000205490611d41565b8360005261016e602052604060002054611d4e565b049060005261016560205260406000208560005260205260016040600020015490611cb1565b9260005261016460205260016040600020015490611d41565b9081811115611e2c575090565b905090565b61016f54600090815261016460205260409020549150611d83565b506301e133807f000000000000000000000000000000000000000000000000000000000000000004916107b28301809311611c9b57918311611d79565b6107b1198101908111611c9b576301e133808102908082046301e133801490151715611c9b5790565b61016d54908115611ff05780600052610164602052604060002054801580611fb5575b611f9b575b611f1590611eea61077484611c8d565b421015611f8757611f0f425b8460005261016460205260056040600020015490611d41565b90611d4e565b91670de0b6b3a7640000830292808404670de0b6b3a76400001490151715611c9b57806301e1338002906301e13380820403611c9b578015611f7157611f6e920490600052610164602052600460406000200154611cb1565b90565b634e487b7160e01b600052601260045260246000fd5b611f0f611f9661077485611c8d565b611ef6565b5061016f5460009081526101646020526040902054611eda565b506301e133807f0000000000000000000000000000000000000000000000000000000000000000046107b28101809111611c9b578211611ed5565b905060005261016460205260046040600020015490565b6301e1338042046107b28101809111611c9b5790565b1561202457565b60405162461bcd60e51b815260206004820152602b60248201527f496e697469616c697a61626c653a20636f6e7472616374206973206e6f74206960448201526a6e697469616c697a696e6760a81b6064820152608490fd5b603380546001600160a01b039283166001600160a01b0319821681179092559091167f8be0079c531659141344cd1fd0a4f28419497f9722a3daafe3b4186f6b6457e0600080a3565b90602060008051602061239083398151915291836000526101648252806040600020556120f284611e89565b846000526101648352600560406000200155604051908152a2565b600260fb541461211e57600260fb55565b60405162461bcd60e51b815260206004820152601f60248201527f5265656e7472616e637947756172643a207265656e7472616e742063616c6c006044820152606490fd5b60ff60c9541661216f57565b60405162461bcd60e51b815260206004820152601060248201526f14185d5cd8589b194e881c185d5cd95960821b6044820152606490fd5b60408051909261222b926001600160a01b03169060009081906121ca8786611c39565b602085527f5361666545524332303a206c6f772d6c6576656c2063616c6c206661696c6564602086015260208151910182855af13d156122bb573d9161220f83611c71565b9261221c87519485611c39565b83523d6000602085013e6122bf565b8051908115918215612298575b5050156122425750565b5162461bcd60e51b815260206004820152602a60248201527f5361666545524332303a204552433230206f7065726174696f6e20646964206e6044820152691bdd081cdd58d8d9595960b21b6064820152608490fd5b8192509060209181010312611bdf57602001518015158103611bdf573880612238565b6060915b9192901561232157508151156122d3575090565b3b156122dc5790565b60405162461bcd60e51b815260206004820152601d60248201527f416464726573733a2063616c6c20746f206e6f6e2d636f6e74726163740000006044820152606490fd5b8251909150156123345750805190602001fd5b6040519062461bcd60e51b8252602060048301528181519182602483015260005b8381106123775750508160006044809484010152601f80199101168101030190fd5b6020828201810151604487840101528593500161235556fe7e6ed8c497612f17da5b1176478c0aeb963a5fefd81534fd7bd048feed1e4a7da26469706673582212202d63fe8c18ec7e29b73453e5ab5cd1b72f861971ffb425cac5a3731ff77a544464736f6c634300081c0033",
  "linkReferences": {},
  "deployedLinkReferences": {}
}