{
  "_format": "hh-sol-artifact-1",
  "contractName": "VanellixLaunchpad",
  "sourceName": "contracts/VanellixLaunchpad.sol",
  "abi": [
    {
      "inputs": [],
      "name": "AccountAlreadyAssignedGlobalRole",
      "type": "error"
    },
    {
      "inputs": [],
      "name": "AccountAlreadyOwnsCompany",
      "type": "error"
    },
    {
      "inputs": [],
      "name": "AccountBelongsToCompany",
      "type": "error"
    },
    {
      "inputs": [],
      "name": "BurnWalletAlreadyConfigured",
      "type": "error"
    },
    {
      "inputs": [],
      "name": "BurnWalletNotConfigured",
      "type": "error"
    },
    {
      "inputs": [],
      "name": "CompanyIdAlreadyAssigned",
      "type": "error"
    },
    {
      "inputs": [],
      "name": "CompanyOwnerCannotHaveOtherRoles",
      "type": "error"
    },
    {
      "inputs": [],
      "name": "ConsiglioSaporisAlreadyAssigned",
      "type": "error"
    },
    {
      "inputs": [],
      "name": "DelayNotPassed",
      "type": "error"
    },
    {
      "inputs": [],
      "name": "DirectPauseDisabled",
      "type": "error"
    },
    {
      "inputs": [],
      "name": "DirectUnpauseDisabled",
      "type": "error"
    },
    {
      "inputs": [],
      "name": "DominusCannotAssignLevel3",
      "type": "error"
    },
    {
      "inputs": [],
      "name": "DominusSaporisAlreadyAssigned",
      "type": "error"
    },
    {
      "inputs": [],
      "name": "ExceedsMaxRoleLevel",
      "type": "error"
    },
    {
      "inputs": [],
      "name": "InsufficientPermission",
      "type": "error"
    },
    {
      "inputs": [],
      "name": "InvalidAddress",
      "type": "error"
    },
    {
      "inputs": [],
      "name": "InvalidAmount",
      "type": "error"
    },
    {
      "inputs": [],
      "name": "InvalidBurnVault",
      "type": "error"
    },
    {
      "inputs": [],
      "name": "InvalidCompanyRoleLevel",
      "type": "error"
    },
    {
      "inputs": [],
      "name": "InvalidFeeToken",
      "type": "error"
    },
    {
      "inputs": [],
      "name": "InvalidRoleForCompanyAssignment",
      "type": "error"
    },
    {
      "inputs": [],
      "name": "InvalidRoleForGlobalAssignment",
      "type": "error"
    },
    {
      "inputs": [],
      "name": "InvalidTransitionPeriod",
      "type": "error"
    },
    {
      "inputs": [],
      "name": "LaunchpadNotConfigured",
      "type": "error"
    },
    {
      "inputs": [],
      "name": "NameRequired",
      "type": "error"
    },
    {
      "inputs": [],
      "name": "NewMaxTooLow",
      "type": "error"
    },
    {
      "inputs": [],
      "name": "NoPendingRequest",
      "type": "error"
    },
    {
      "inputs": [],
      "name": "NoPendingTransfer",
      "type": "error"
    },
    {
      "inputs": [],
      "name": "NotAcceptedContract",
      "type": "error"
    },
    {
      "inputs": [],
      "name": "NotAuthorized",
      "type": "error"
    },
    {
      "inputs": [],
      "name": "NotCompanyMember",
      "type": "error"
    },
    {
      "inputs": [],
      "name": "NotCompanySegment",
      "type": "error"
    },
    {
      "inputs": [],
      "name": "NotOwnerNorAdmin",
      "type": "error"
    },
    {
      "inputs": [],
      "name": "OnlyConsiglioOrGlobalAdmin",
      "type": "error"
    },
    {
      "inputs": [],
      "name": "PendingRequestAlreadyExists",
      "type": "error"
    },
    {
      "inputs": [],
      "name": "RenounceOwnershipDisabled",
      "type": "error"
    },
    {
      "inputs": [],
      "name": "RoleDoesNotExist",
      "type": "error"
    },
    {
      "inputs": [],
      "name": "TokenAlreadyFinalized",
      "type": "error"
    },
    {
      "inputs": [],
      "name": "TokenLimitReached",
      "type": "error"
    },
    {
      "inputs": [],
      "name": "TransferDelayNotPassed",
      "type": "error"
    },
    {
      "inputs": [],
      "name": "TransferOwnershipDirectDisabled",
      "type": "error"
    },
    {
      "inputs": [],
      "name": "UnauthorizedCaller",
      "type": "error"
    },
    {
      "inputs": [],
      "name": "UpgradeToAndCallDisabled",
      "type": "error"
    },
    {
      "inputs": [],
      "name": "UpgradeToDisabled",
      "type": "error"
    },
    {
      "inputs": [],
      "name": "ZeroAddress",
      "type": "error"
    },
    {
      "anonymous": false,
      "inputs": [
        {
          "indexed": false,
          "internalType": "address",
          "name": "previousAdmin",
          "type": "address"
        },
        {
          "indexed": false,
          "internalType": "address",
          "name": "newAdmin",
          "type": "address"
        }
      ],
      "name": "AdminChanged",
      "type": "event"
    },
    {
      "anonymous": false,
      "inputs": [
        {
          "indexed": true,
          "internalType": "address",
          "name": "beacon",
          "type": "address"
        }
      ],
      "name": "BeaconUpgraded",
      "type": "event"
    },
    {
      "anonymous": false,
      "inputs": [
        {
          "indexed": true,
          "internalType": "string",
          "name": "segment",
          "type": "string"
        },
        {
          "indexed": true,
          "internalType": "address",
          "name": "contractAddress",
          "type": "address"
        },
        {
          "indexed": true,
          "internalType": "address",
          "name": "setBy",
          "type": "address"
        }
      ],
      "name": "ContractSet",
      "type": "event"
    },
    {
      "anonymous": false,
      "inputs": [
        {
          "indexed": false,
          "internalType": "uint256",
          "name": "percentage",
          "type": "uint256"
        }
      ],
      "name": "FeePercentageSet",
      "type": "event"
    },
    {
      "anonymous": false,
      "inputs": [
        {
          "indexed": true,
          "internalType": "address",
          "name": "token",
          "type": "address"
        }
      ],
      "name": "FeeTokenSet",
      "type": "event"
    },
    {
      "anonymous": false,
      "inputs": [
        {
          "indexed": false,
          "internalType": "uint8",
          "name": "version",
          "type": "uint8"
        }
      ],
      "name": "Initialized",
      "type": "event"
    },
    {
      "anonymous": false,
      "inputs": [
        {
          "indexed": false,
          "internalType": "address",
          "name": "newImplementation",
          "type": "address"
        }
      ],
      "name": "LaunchpadUpgradeAccepted",
      "type": "event"
    },
    {
      "anonymous": false,
      "inputs": [],
      "name": "LaunchpadUpgradeCancelled",
      "type": "event"
    },
    {
      "anonymous": false,
      "inputs": [
        {
          "indexed": false,
          "internalType": "address",
          "name": "newImplementation",
          "type": "address"
        },
        {
          "indexed": false,
          "internalType": "uint256",
          "name": "timestamp",
          "type": "uint256"
        },
        {
          "indexed": true,
          "internalType": "address",
          "name": "assignedBy",
          "type": "address"
        }
      ],
      "name": "LaunchpadUpgradeProposed",
      "type": "event"
    },
    {
      "anonymous": false,
      "inputs": [
        {
          "indexed": true,
          "internalType": "address",
          "name": "currentOwner",
          "type": "address"
        }
      ],
      "name": "OwnershipTransferCancelled",
      "type": "event"
    },
    {
      "anonymous": false,
      "inputs": [
        {
          "indexed": true,
          "internalType": "address",
          "name": "previousOwner",
          "type": "address"
        },
        {
          "indexed": true,
          "internalType": "address",
          "name": "newOwner",
          "type": "address"
        }
      ],
      "name": "OwnershipTransferCompleted",
      "type": "event"
    },
    {
      "anonymous": false,
      "inputs": [
        {
          "indexed": true,
          "internalType": "address",
          "name": "currentOwner",
          "type": "address"
        },
        {
          "indexed": true,
          "internalType": "address",
          "name": "pendingOwner",
          "type": "address"
        },
        {
          "indexed": false,
          "internalType": "uint256",
          "name": "requestTime",
          "type": "uint256"
        }
      ],
      "name": "OwnershipTransferRequested",
      "type": "event"
    },
    {
      "anonymous": false,
      "inputs": [
        {
          "indexed": true,
          "internalType": "address",
          "name": "previousOwner",
          "type": "address"
        },
        {
          "indexed": true,
          "internalType": "address",
          "name": "newOwner",
          "type": "address"
        }
      ],
      "name": "OwnershipTransferred",
      "type": "event"
    },
    {
      "anonymous": false,
      "inputs": [
        {
          "indexed": false,
          "internalType": "address",
          "name": "account",
          "type": "address"
        }
      ],
      "name": "Paused",
      "type": "event"
    },
    {
      "anonymous": false,
      "inputs": [
        {
          "indexed": true,
          "internalType": "address",
          "name": "vault",
          "type": "address"
        }
      ],
      "name": "PyreVaultIgnited",
      "type": "event"
    },
    {
      "anonymous": false,
      "inputs": [
        {
          "indexed": false,
          "internalType": "string",
          "name": "roleName",
          "type": "string"
        },
        {
          "indexed": true,
          "internalType": "address",
          "name": "account",
          "type": "address"
        },
        {
          "indexed": true,
          "internalType": "address",
          "name": "assignedBy",
          "type": "address"
        }
      ],
      "name": "RoleAssignedHierarchical",
      "type": "event"
    },
    {
      "anonymous": false,
      "inputs": [
        {
          "indexed": false,
          "internalType": "string",
          "name": "roleName",
          "type": "string"
        },
        {
          "indexed": true,
          "internalType": "address",
          "name": "account",
          "type": "address"
        },
        {
          "indexed": true,
          "internalType": "address",
          "name": "assignedBy",
          "type": "address"
        },
        {
          "indexed": false,
          "internalType": "uint256",
          "name": "companyId",
          "type": "uint256"
        }
      ],
      "name": "RoleAssignedHierarchicalCompany",
      "type": "event"
    },
    {
      "anonymous": false,
      "inputs": [
        {
          "indexed": false,
          "internalType": "string",
          "name": "roleName",
          "type": "string"
        },
        {
          "indexed": false,
          "internalType": "bytes32",
          "name": "role",
          "type": "bytes32"
        }
      ],
      "name": "RoleCreated",
      "type": "event"
    },
    {
      "anonymous": false,
      "inputs": [
        {
          "indexed": true,
          "internalType": "bytes32",
          "name": "role",
          "type": "bytes32"
        },
        {
          "indexed": true,
          "internalType": "address",
          "name": "account",
          "type": "address"
        },
        {
          "indexed": true,
          "internalType": "address",
          "name": "revokedBy",
          "type": "address"
        }
      ],
      "name": "RoleRevoked",
      "type": "event"
    },
    {
      "anonymous": false,
      "inputs": [
        {
          "indexed": true,
          "internalType": "string",
          "name": "name",
          "type": "string"
        },
        {
          "indexed": true,
          "internalType": "address",
          "name": "router",
          "type": "address"
        },
        {
          "indexed": true,
          "internalType": "address",
          "name": "factory",
          "type": "address"
        }
      ],
      "name": "SwapRouterSet",
      "type": "event"
    },
    {
      "anonymous": false,
      "inputs": [
        {
          "indexed": false,
          "internalType": "uint256",
          "name": "amount",
          "type": "uint256"
        },
        {
          "indexed": true,
          "internalType": "address",
          "name": "token",
          "type": "address"
        },
        {
          "indexed": true,
          "internalType": "uint256",
          "name": "companyId",
          "type": "uint256"
        }
      ],
      "name": "TokensBurned",
      "type": "event"
    },
    {
      "anonymous": false,
      "inputs": [
        {
          "indexed": false,
          "internalType": "address",
          "name": "account",
          "type": "address"
        }
      ],
      "name": "Unpaused",
      "type": "event"
    },
    {
      "anonymous": false,
      "inputs": [
        {
          "indexed": true,
          "internalType": "address",
          "name": "proxy",
          "type": "address"
        },
        {
          "indexed": false,
          "internalType": "address",
          "name": "newImplementation",
          "type": "address"
        }
      ],
      "name": "UpgradeAccepted",
      "type": "event"
    },
    {
      "anonymous": false,
      "inputs": [
        {
          "indexed": true,
          "internalType": "address",
          "name": "proxy",
          "type": "address"
        }
      ],
      "name": "UpgradeCancelled",
      "type": "event"
    },
    {
      "anonymous": false,
      "inputs": [
        {
          "indexed": true,
          "internalType": "address",
          "name": "proxy",
          "type": "address"
        },
        {
          "indexed": false,
          "internalType": "address",
          "name": "newImplementation",
          "type": "address"
        },
        {
          "indexed": false,
          "internalType": "uint256",
          "name": "timestamp",
          "type": "uint256"
        },
        {
          "indexed": true,
          "internalType": "address",
          "name": "assignedBy",
          "type": "address"
        }
      ],
      "name": "UpgradeProposed",
      "type": "event"
    },
    {
      "anonymous": false,
      "inputs": [
        {
          "indexed": true,
          "internalType": "address",
          "name": "implementation",
          "type": "address"
        }
      ],
      "name": "Upgraded",
      "type": "event"
    },
    {
      "anonymous": false,
      "inputs": [
        {
          "indexed": true,
          "internalType": "address",
          "name": "vault",
          "type": "address"
        }
      ],
      "name": "VaultIgnitionCancelled",
      "type": "event"
    },
    {
      "anonymous": false,
      "inputs": [
        {
          "indexed": true,
          "internalType": "address",
          "name": "vault",
          "type": "address"
        },
        {
          "indexed": false,
          "internalType": "uint256",
          "name": "timestamp",
          "type": "uint256"
        }
      ],
      "name": "VaultIgnitionRequested",
      "type": "event"
    },
    {
      "inputs": [
        {
          "internalType": "address",
          "name": "proxy",
          "type": "address"
        }
      ],
      "name": "acceptEmergencyChildUpgrade",
      "outputs": [],
      "stateMutability": "nonpayable",
      "type": "function"
    },
    {
      "inputs": [
        {
          "internalType": "address",
          "name": "newImplementation",
          "type": "address"
        }
      ],
      "name": "acceptEmergencyLaunchpadUpgrade",
      "outputs": [],
      "stateMutability": "nonpayable",
      "type": "function"
    },
    {
      "inputs": [],
      "name": "acceptLaunchpadUpgrade",
      "outputs": [],
      "stateMutability": "nonpayable",
      "type": "function"
    },
    {
      "inputs": [
        {
          "internalType": "address",
          "name": "proxy",
          "type": "address"
        }
      ],
      "name": "acceptUpgrade",
      "outputs": [],
      "stateMutability": "nonpayable",
      "type": "function"
    },
    {
      "inputs": [
        {
          "internalType": "address",
          "name": "vault",
          "type": "address"
        }
      ],
      "name": "activateBurnVault",
      "outputs": [],
      "stateMutability": "nonpayable",
      "type": "function"
    },
    {
      "inputs": [
        {
          "internalType": "uint256",
          "name": "companyId",
          "type": "uint256"
        },
        {
          "internalType": "bytes32",
          "name": "role",
          "type": "bytes32"
        },
        {
          "internalType": "uint256",
          "name": "roleLevel",
          "type": "uint256"
        },
        {
          "internalType": "address",
          "name": "account",
          "type": "address"
        },
        {
          "internalType": "address",
          "name": "assignedBy",
          "type": "address"
        },
        {
          "internalType": "string",
          "name": "roleName",
          "type": "string"
        }
      ],
      "name": "assignCompanyRole",
      "outputs": [],
      "stateMutability": "nonpayable",
      "type": "function"
    },
    {
      "inputs": [
        {
          "internalType": "string",
          "name": "roleName",
          "type": "string"
        },
        {
          "internalType": "address",
          "name": "account",
          "type": "address"
        },
        {
          "internalType": "uint256",
          "name": "roleLevel",
          "type": "uint256"
        }
      ],
      "name": "assignVanellixRole",
      "outputs": [],
      "stateMutability": "nonpayable",
      "type": "function"
    },
    {
      "inputs": [
        {
          "internalType": "address",
          "name": "tokenSale",
          "type": "address"
        },
        {
          "internalType": "address",
          "name": "feeTokenParam",
          "type": "address"
        },
        {
          "internalType": "uint256",
          "name": "totalTransactionAmount",
          "type": "uint256"
        },
        {
          "internalType": "address",
          "name": "sender",
          "type": "address"
        },
        {
          "internalType": "uint256",
          "name": "companyId",
          "type": "uint256"
        }
      ],
      "name": "burnFees",
      "outputs": [
        {
          "internalType": "uint256",
          "name": "",
          "type": "uint256"
        }
      ],
      "stateMutability": "nonpayable",
      "type": "function"
    },
    {
      "inputs": [
        {
          "internalType": "address",
          "name": "proxy",
          "type": "address"
        }
      ],
      "name": "cancelEmergencyChildUpgrade",
      "outputs": [],
      "stateMutability": "nonpayable",
      "type": "function"
    },
    {
      "inputs": [
        {
          "internalType": "address",
          "name": "newImplementation",
          "type": "address"
        }
      ],
      "name": "cancelEmergencyLaunchpadUpgrade",
      "outputs": [],
      "stateMutability": "nonpayable",
      "type": "function"
    },
    {
      "inputs": [],
      "name": "cancelLaunchpadUpgrade",
      "outputs": [],
      "stateMutability": "nonpayable",
      "type": "function"
    },
    {
      "inputs": [],
      "name": "cancelOwnershipTransfer",
      "outputs": [],
      "stateMutability": "nonpayable",
      "type": "function"
    },
    {
      "inputs": [
        {
          "internalType": "address",
          "name": "proxy",
          "type": "address"
        }
      ],
      "name": "cancelUpgrade",
      "outputs": [],
      "stateMutability": "nonpayable",
      "type": "function"
    },
    {
      "inputs": [
        {
          "internalType": "address",
          "name": "vault",
          "type": "address"
        }
      ],
      "name": "cancelVaultUpdate",
      "outputs": [],
      "stateMutability": "nonpayable",
      "type": "function"
    },
    {
      "inputs": [
        {
          "internalType": "address",
          "name": "account",
          "type": "address"
        }
      ],
      "name": "companyIdOwned",
      "outputs": [
        {
          "internalType": "uint256",
          "name": "",
          "type": "uint256"
        }
      ],
      "stateMutability": "view",
      "type": "function"
    },
    {
      "inputs": [
        {
          "internalType": "address",
          "name": "account",
          "type": "address"
        }
      ],
      "name": "companyIdsByUser",
      "outputs": [
        {
          "internalType": "uint256[]",
          "name": "",
          "type": "uint256[]"
        }
      ],
      "stateMutability": "view",
      "type": "function"
    },
    {
      "inputs": [
        {
          "internalType": "uint256",
          "name": "companyId",
          "type": "uint256"
        }
      ],
      "name": "companyOwners",
      "outputs": [
        {
          "internalType": "address",
          "name": "",
          "type": "address"
        }
      ],
      "stateMutability": "view",
      "type": "function"
    },
    {
      "inputs": [
        {
          "internalType": "address",
          "name": "account",
          "type": "address"
        },
        {
          "internalType": "uint256",
          "name": "companyId",
          "type": "uint256"
        }
      ],
      "name": "companyUserRoles",
      "outputs": [
        {
          "components": [
            {
              "internalType": "uint256",
              "name": "companyId",
              "type": "uint256"
            },
            {
              "internalType": "address",
              "name": "wallet",
              "type": "address"
            },
            {
              "internalType": "bytes32",
              "name": "role",
              "type": "bytes32"
            },
            {
              "internalType": "uint256",
              "name": "roleLevel",
              "type": "uint256"
            },
            {
              "internalType": "address",
              "name": "assignedBy",
              "type": "address"
            },
            {
              "internalType": "bool",
              "name": "isActive",
              "type": "bool"
            }
          ],
          "internalType": "struct GlobalStructs.CompanyUserRole",
          "name": "",
          "type": "tuple"
        }
      ],
      "stateMutability": "view",
      "type": "function"
    },
    {
      "inputs": [],
      "name": "completeOwnershipTransfer",
      "outputs": [],
      "stateMutability": "nonpayable",
      "type": "function"
    },
    {
      "inputs": [
        {
          "internalType": "address",
          "name": "vault",
          "type": "address"
        }
      ],
      "name": "confirmVaultUpdate",
      "outputs": [],
      "stateMutability": "nonpayable",
      "type": "function"
    },
    {
      "inputs": [
        {
          "internalType": "string",
          "name": "roleName",
          "type": "string"
        },
        {
          "internalType": "uint256",
          "name": "level",
          "type": "uint256"
        }
      ],
      "name": "createGlobalRole",
      "outputs": [
        {
          "internalType": "bytes32",
          "name": "",
          "type": "bytes32"
        }
      ],
      "stateMutability": "nonpayable",
      "type": "function"
    },
    {
      "inputs": [],
      "name": "daoTransitionTimestamp",
      "outputs": [
        {
          "internalType": "uint256",
          "name": "",
          "type": "uint256"
        }
      ],
      "stateMutability": "view",
      "type": "function"
    },
    {
      "inputs": [
        {
          "internalType": "address",
          "name": "proxy",
          "type": "address"
        },
        {
          "internalType": "address",
          "name": "newImplementation",
          "type": "address"
        }
      ],
      "name": "emergencyProposeChildUpgrade",
      "outputs": [],
      "stateMutability": "nonpayable",
      "type": "function"
    },
    {
      "inputs": [
        {
          "internalType": "address",
          "name": "newImplementation",
          "type": "address"
        }
      ],
      "name": "emergencyProposeLaunchpadUpgrade",
      "outputs": [],
      "stateMutability": "nonpayable",
      "type": "function"
    },
    {
      "inputs": [],
      "name": "feePercentage",
      "outputs": [
        {
          "internalType": "uint256",
          "name": "",
          "type": "uint256"
        }
      ],
      "stateMutability": "view",
      "type": "function"
    },
    {
      "inputs": [],
      "name": "feeToken",
      "outputs": [
        {
          "internalType": "address",
          "name": "",
          "type": "address"
        }
      ],
      "stateMutability": "view",
      "type": "function"
    },
    {
      "inputs": [],
      "name": "getAdminRole",
      "outputs": [
        {
          "internalType": "bytes32",
          "name": "",
          "type": "bytes32"
        }
      ],
      "stateMutability": "view",
      "type": "function"
    },
    {
      "inputs": [],
      "name": "getBurnVaultDetails",
      "outputs": [
        {
          "components": [
            {
              "internalType": "address",
              "name": "wallet",
              "type": "address"
            },
            {
              "internalType": "address",
              "name": "commissionToken",
              "type": "address"
            },
            {
              "internalType": "uint256",
              "name": "commissionPercentage",
              "type": "uint256"
            },
            {
              "internalType": "string",
              "name": "status",
              "type": "string"
            },
            {
              "internalType": "address",
              "name": "comparisonToken",
              "type": "address"
            },
            {
              "internalType": "uint256",
              "name": "burnTokenMinPrice",
              "type": "uint256"
            }
          ],
          "internalType": "struct GlobalStructs.BurnWalletDetail",
          "name": "",
          "type": "tuple"
        }
      ],
      "stateMutability": "view",
      "type": "function"
    },
    {
      "inputs": [
        {
          "internalType": "address",
          "name": "account",
          "type": "address"
        },
        {
          "internalType": "uint256",
          "name": "companyId",
          "type": "uint256"
        }
      ],
      "name": "getCompanyLevel",
      "outputs": [
        {
          "internalType": "uint256",
          "name": "",
          "type": "uint256"
        }
      ],
      "stateMutability": "view",
      "type": "function"
    },
    {
      "inputs": [],
      "name": "getDaoTransitionPeriod",
      "outputs": [
        {
          "internalType": "uint256",
          "name": "",
          "type": "uint256"
        }
      ],
      "stateMutability": "view",
      "type": "function"
    },
    {
      "inputs": [
        {
          "internalType": "string",
          "name": "roleName",
          "type": "string"
        }
      ],
      "name": "getDynamicRole",
      "outputs": [
        {
          "internalType": "bytes32",
          "name": "",
          "type": "bytes32"
        }
      ],
      "stateMutability": "view",
      "type": "function"
    },
    {
      "inputs": [
        {
          "internalType": "string",
          "name": "roleName",
          "type": "string"
        }
      ],
      "name": "getDynamicRoleLevel",
      "outputs": [
        {
          "internalType": "uint256",
          "name": "",
          "type": "uint256"
        }
      ],
      "stateMutability": "view",
      "type": "function"
    },
    {
      "inputs": [],
      "name": "getFeePercentage",
      "outputs": [
        {
          "internalType": "uint256",
          "name": "",
          "type": "uint256"
        }
      ],
      "stateMutability": "view",
      "type": "function"
    },
    {
      "inputs": [],
      "name": "getFeeToken",
      "outputs": [
        {
          "internalType": "address",
          "name": "",
          "type": "address"
        }
      ],
      "stateMutability": "view",
      "type": "function"
    },
    {
      "inputs": [
        {
          "internalType": "address",
          "name": "account",
          "type": "address"
        }
      ],
      "name": "getHighestRoleLevel",
      "outputs": [
        {
          "internalType": "uint256",
          "name": "",
          "type": "uint256"
        }
      ],
      "stateMutability": "view",
      "type": "function"
    },
    {
      "inputs": [],
      "name": "getImplementation",
      "outputs": [
        {
          "internalType": "address",
          "name": "",
          "type": "address"
        }
      ],
      "stateMutability": "view",
      "type": "function"
    },
    {
      "inputs": [],
      "name": "getLaunchpadAddress",
      "outputs": [
        {
          "internalType": "address",
          "name": "",
          "type": "address"
        }
      ],
      "stateMutability": "view",
      "type": "function"
    },
    {
      "inputs": [],
      "name": "getOwner",
      "outputs": [
        {
          "internalType": "address",
          "name": "",
          "type": "address"
        }
      ],
      "stateMutability": "view",
      "type": "function"
    },
    {
      "inputs": [],
      "name": "getOwnerLaunchpad",
      "outputs": [
        {
          "internalType": "address",
          "name": "",
          "type": "address"
        }
      ],
      "stateMutability": "view",
      "type": "function"
    },
    {
      "inputs": [],
      "name": "getPendingChanges",
      "outputs": [
        {
          "components": [
            {
              "internalType": "address",
              "name": "pendingOwner",
              "type": "address"
            },
            {
              "internalType": "uint256",
              "name": "ownershipTransferTimestamp",
              "type": "uint256"
            },
            {
              "components": [
                {
                  "internalType": "address",
                  "name": "wallet",
                  "type": "address"
                },
                {
                  "internalType": "uint256",
                  "name": "timestamp",
                  "type": "uint256"
                }
              ],
              "internalType": "struct GlobalStructs.PendingWalletChange[]",
              "name": "adminAdds",
              "type": "tuple[]"
            },
            {
              "components": [
                {
                  "internalType": "address",
                  "name": "wallet",
                  "type": "address"
                },
                {
                  "internalType": "uint256",
                  "name": "timestamp",
                  "type": "uint256"
                }
              ],
              "internalType": "struct GlobalStructs.PendingWalletChange[]",
              "name": "adminRems",
              "type": "tuple[]"
            },
            {
              "components": [
                {
                  "internalType": "address",
                  "name": "wallet",
                  "type": "address"
                },
                {
                  "internalType": "uint256",
                  "name": "timestamp",
                  "type": "uint256"
                }
              ],
              "internalType": "struct GlobalStructs.PendingWalletChange[]",
              "name": "burnAdds",
              "type": "tuple[]"
            },
            {
              "components": [
                {
                  "internalType": "address",
                  "name": "wallet",
                  "type": "address"
                },
                {
                  "internalType": "uint256",
                  "name": "timestamp",
                  "type": "uint256"
                }
              ],
              "internalType": "struct GlobalStructs.PendingWalletChange[]",
              "name": "burnRems",
              "type": "tuple[]"
            }
          ],
          "internalType": "struct GlobalStructs.PendingChanges",
          "name": "",
          "type": "tuple"
        }
      ],
      "stateMutability": "view",
      "type": "function"
    },
    {
      "inputs": [],
      "name": "getPendingUpgrade",
      "outputs": [
        {
          "internalType": "address",
          "name": "",
          "type": "address"
        }
      ],
      "stateMutability": "view",
      "type": "function"
    },
    {
      "inputs": [
        {
          "internalType": "address",
          "name": "vault",
          "type": "address"
        }
      ],
      "name": "getPendingVaultUpdateTime",
      "outputs": [
        {
          "internalType": "uint256",
          "name": "",
          "type": "uint256"
        }
      ],
      "stateMutability": "view",
      "type": "function"
    },
    {
      "inputs": [],
      "name": "getSwapRouter",
      "outputs": [
        {
          "internalType": "address",
          "name": "",
          "type": "address"
        }
      ],
      "stateMutability": "view",
      "type": "function"
    },
    {
      "inputs": [],
      "name": "getSwapRouterNFactory",
      "outputs": [
        {
          "components": [
            {
              "internalType": "string",
              "name": "name",
              "type": "string"
            },
            {
              "internalType": "address",
              "name": "router",
              "type": "address"
            },
            {
              "internalType": "address",
              "name": "factory",
              "type": "address"
            }
          ],
          "internalType": "struct GlobalStructs.SwapRouterNFactory",
          "name": "",
          "type": "tuple"
        }
      ],
      "stateMutability": "view",
      "type": "function"
    },
    {
      "inputs": [],
      "name": "getTimeRemainingForOwnershipTransfer",
      "outputs": [
        {
          "internalType": "uint256",
          "name": "",
          "type": "uint256"
        }
      ],
      "stateMutability": "view",
      "type": "function"
    },
    {
      "inputs": [],
      "name": "getVersion",
      "outputs": [
        {
          "internalType": "string",
          "name": "",
          "type": "string"
        }
      ],
      "stateMutability": "view",
      "type": "function"
    },
    {
      "inputs": [],
      "name": "initialize",
      "outputs": [],
      "stateMutability": "nonpayable",
      "type": "function"
    },
    {
      "inputs": [
        {
          "internalType": "address",
          "name": "vault",
          "type": "address"
        }
      ],
      "name": "isBurnVault",
      "outputs": [
        {
          "internalType": "bool",
          "name": "",
          "type": "bool"
        }
      ],
      "stateMutability": "view",
      "type": "function"
    },
    {
      "inputs": [],
      "name": "owner",
      "outputs": [
        {
          "internalType": "address",
          "name": "",
          "type": "address"
        }
      ],
      "stateMutability": "view",
      "type": "function"
    },
    {
      "inputs": [],
      "name": "pause",
      "outputs": [],
      "stateMutability": "nonpayable",
      "type": "function"
    },
    {
      "inputs": [
        {
          "internalType": "address",
          "name": "contractAddress",
          "type": "address"
        }
      ],
      "name": "pauseContract",
      "outputs": [],
      "stateMutability": "nonpayable",
      "type": "function"
    },
    {
      "inputs": [],
      "name": "paused",
      "outputs": [
        {
          "internalType": "bool",
          "name": "",
          "type": "bool"
        }
      ],
      "stateMutability": "view",
      "type": "function"
    },
    {
      "inputs": [
        {
          "internalType": "address",
          "name": "proxy",
          "type": "address"
        },
        {
          "internalType": "address",
          "name": "newImplementation",
          "type": "address"
        }
      ],
      "name": "proposeChildUpgrade",
      "outputs": [],
      "stateMutability": "nonpayable",
      "type": "function"
    },
    {
      "inputs": [
        {
          "internalType": "address",
          "name": "newImplementation",
          "type": "address"
        }
      ],
      "name": "proposeLaunchpadUpgrade",
      "outputs": [],
      "stateMutability": "nonpayable",
      "type": "function"
    },
    {
      "inputs": [],
      "name": "proxiableUUID",
      "outputs": [
        {
          "internalType": "bytes32",
          "name": "",
          "type": "bytes32"
        }
      ],
      "stateMutability": "view",
      "type": "function"
    },
    {
      "inputs": [],
      "name": "renounceOwnership",
      "outputs": [],
      "stateMutability": "nonpayable",
      "type": "function"
    },
    {
      "inputs": [
        {
          "internalType": "address",
          "name": "newOwner",
          "type": "address"
        }
      ],
      "name": "requestOwnershipTransfer",
      "outputs": [],
      "stateMutability": "nonpayable",
      "type": "function"
    },
    {
      "inputs": [
        {
          "internalType": "address",
          "name": "vault",
          "type": "address"
        }
      ],
      "name": "requestVaultUpdate",
      "outputs": [],
      "stateMutability": "nonpayable",
      "type": "function"
    },
    {
      "inputs": [
        {
          "internalType": "uint256",
          "name": "companyId",
          "type": "uint256"
        },
        {
          "internalType": "bytes32",
          "name": "role",
          "type": "bytes32"
        },
        {
          "internalType": "uint256",
          "name": "roleLevel",
          "type": "uint256"
        },
        {
          "internalType": "address",
          "name": "account",
          "type": "address"
        },
        {
          "internalType": "address",
          "name": "assignedBy",
          "type": "address"
        },
        {
          "internalType": "string",
          "name": "roleName",
          "type": "string"
        }
      ],
      "name": "revokeCompanyRole",
      "outputs": [],
      "stateMutability": "nonpayable",
      "type": "function"
    },
    {
      "inputs": [
        {
          "internalType": "bytes32",
          "name": "role",
          "type": "bytes32"
        },
        {
          "internalType": "uint256",
          "name": "roleLevel",
          "type": "uint256"
        },
        {
          "internalType": "address",
          "name": "account",
          "type": "address"
        },
        {
          "internalType": "string",
          "name": "roleName",
          "type": "string"
        }
      ],
      "name": "revokeVanellixRole",
      "outputs": [],
      "stateMutability": "nonpayable",
      "type": "function"
    },
    {
      "inputs": [
        {
          "internalType": "address",
          "name": "contractAddress",
          "type": "address"
        },
        {
          "internalType": "string",
          "name": "segment",
          "type": "string"
        }
      ],
      "name": "setContract",
      "outputs": [],
      "stateMutability": "nonpayable",
      "type": "function"
    },
    {
      "inputs": [
        {
          "internalType": "uint256",
          "name": "newPeriod",
          "type": "uint256"
        }
      ],
      "name": "setDaoTransitionPeriod",
      "outputs": [],
      "stateMutability": "nonpayable",
      "type": "function"
    },
    {
      "inputs": [
        {
          "internalType": "uint256",
          "name": "percentage",
          "type": "uint256"
        }
      ],
      "name": "setFeePercentage",
      "outputs": [],
      "stateMutability": "nonpayable",
      "type": "function"
    },
    {
      "inputs": [
        {
          "internalType": "address",
          "name": "token",
          "type": "address"
        }
      ],
      "name": "setFeeToken",
      "outputs": [],
      "stateMutability": "nonpayable",
      "type": "function"
    },
    {
      "inputs": [
        {
          "internalType": "uint256",
          "name": "newMax",
          "type": "uint256"
        }
      ],
      "name": "setMaxRoleLevel",
      "outputs": [],
      "stateMutability": "nonpayable",
      "type": "function"
    },
    {
      "inputs": [
        {
          "internalType": "string",
          "name": "name",
          "type": "string"
        },
        {
          "internalType": "address",
          "name": "router",
          "type": "address"
        },
        {
          "internalType": "address",
          "name": "forge",
          "type": "address"
        }
      ],
      "name": "setSwapRouter",
      "outputs": [],
      "stateMutability": "nonpayable",
      "type": "function"
    },
    {
      "inputs": [
        {
          "internalType": "bytes4",
          "name": "interfaceId",
          "type": "bytes4"
        }
      ],
      "name": "supportsInterface",
      "outputs": [
        {
          "internalType": "bool",
          "name": "",
          "type": "bool"
        }
      ],
      "stateMutability": "view",
      "type": "function"
    },
    {
      "inputs": [],
      "name": "swapRouterNFactory",
      "outputs": [
        {
          "internalType": "string",
          "name": "name",
          "type": "string"
        },
        {
          "internalType": "address",
          "name": "router",
          "type": "address"
        },
        {
          "internalType": "address",
          "name": "factory",
          "type": "address"
        }
      ],
      "stateMutability": "view",
      "type": "function"
    },
    {
      "inputs": [
        {
          "internalType": "address",
          "name": "",
          "type": "address"
        }
      ],
      "name": "transferOwnership",
      "outputs": [],
      "stateMutability": "nonpayable",
      "type": "function"
    },
    {
      "inputs": [],
      "name": "unpause",
      "outputs": [],
      "stateMutability": "nonpayable",
      "type": "function"
    },
    {
      "inputs": [
        {
          "internalType": "address",
          "name": "contractAddress",
          "type": "address"
        }
      ],
      "name": "unpauseContract",
      "outputs": [],
      "stateMutability": "nonpayable",
      "type": "function"
    },
    {
      "inputs": [
        {
          "internalType": "address",
          "name": "proxy",
          "type": "address"
        }
      ],
      "name": "upgradeProposals",
      "outputs": [
        {
          "internalType": "address",
          "name": "newImplementation",
          "type": "address"
        },
        {
          "internalType": "uint256",
          "name": "timestamp",
          "type": "uint256"
        },
        {
          "internalType": "address",
          "name": "assignedBy",
          "type": "address"
        }
      ],
      "stateMutability": "view",
      "type": "function"
    },
    {
      "inputs": [
        {
          "internalType": "address",
          "name": "",
          "type": "address"
        }
      ],
      "name": "upgradeTo",
      "outputs": [],
      "stateMutability": "nonpayable",
      "type": "function"
    },
    {
      "inputs": [
        {
          "internalType": "address",
          "name": "",
          "type": "address"
        },
        {
          "internalType": "bytes",
          "name": "",
          "type": "bytes"
        }
      ],
      "name": "upgradeToAndCall",
      "outputs": [],
      "stateMutability": "payable",
      "type": "function"
    },
    {
      "inputs": [
        {
          "internalType": "string",
          "name": "segment",
          "type": "string"
        }
      ],
      "name": "validateContract",
      "outputs": [
        {
          "internalType": "address",
          "name": "",
          "type": "address"
        }
      ],
      "stateMutability": "view",
      "type": "function"
    },
    {
      "inputs": [
        {
          "internalType": "address",
          "name": "account",
          "type": "address"
        }
      ],
      "name": "vanellixUsers",
      "outputs": [
        {
          "components": [
            {
              "internalType": "address",
              "name": "wallet",
              "type": "address"
            },
            {
              "internalType": "bytes32",
              "name": "role",
              "type": "bytes32"
            },
            {
              "internalType": "uint256",
              "name": "roleLevel",
              "type": "uint256"
            },
            {
              "internalType": "address",
              "name": "assignedBy",
              "type": "address"
            },
            {
              "internalType": "bool",
              "name": "isActive",
              "type": "bool"
            }
          ],
          "internalType": "struct GlobalStructs.VanellixUser",
          "name": "",
          "type": "tuple"
        }
      ],
      "stateMutability": "view",
      "type": "function"
    }
  ],
  "bytecode": "0x60a0806040523460225730608052615e6b90816100288239608051816135490152f35b600080fdfe608080604052600436101561001357600080fd5b600090813560e01c90816301ffc9a714614afe575080630254720814614a4857806304820a19146149765780630952c504146148965780630954ae96146147985780630d8e6e2c146146af57806311efbf611461255257806311f101161461469457806315cce2241461451a5780631b1c2c7f1461423d5780631b81b31d146140a557806323452b9c14613fd3578063257f363314613f9957806332b1364f14613f075780633659cfe614613ed557806336d35c8614613eba5780633705d2f014613e175780633b7774dd14613c295780633f4ba83a14613c015780633f7d9b8214613b0057806344d710a61461399057806345f806ab14613913578063494480d9146136695780634f1ef2861461360c57806352d1902d1461353657806359473acf146133ae5780635c975abb1461338b578063622bfc7014613354578063647846a51461103d5780636bccebdb14613271578063715018a614613246578063725c9c491461321c578063734c619f146131be57806374ced8701461319f57806379194627146130905780637bffffe914612fbb5780638129fc1c14612ac85780638456cb5914612aa0578063892c917514612763578063893d20e8146111c95780638da5cb5b1461273a578063921c2452146126ff57806393e39076146126d5578063949bbc56146126735780639fba32b914612571578063a001ecdd14612552578063a3b8af3914612485578063a93253c114612451578063aaf10f4214612409578063adb99c8a146122ee578063ae06c1b714612216578063aed0814c146121bf578063b3ecf23614612184578063b5dd917c1461204c578063b79a005514611de6578063bb8c976c14611d7c578063be8a366c1461169a578063be92c6db1461142f578063c27bce5f146112fe578063c44fb8ec146111f2578063c5a820ce146111ce578063c696804f146111c9578063c87d29df146111aa578063c978d8a514611182578063c9b4f4ca14611067578063ca709a251461103d578063cfc1b41914610e85578063d294382b14610bef578063d396cf9614610b50578063d42f79ef14610a4b578063d97b9bd51461090a578063e02e351d146108de578063e24e2a6314610716578063e60ad0dc146105ca578063e71a7811146103995763f2fde38b1461036557600080fd5b3461039657602036600319011261039657600490610381614b36565b5061038a6150af565b635a42e44960e01b8152fd5b80fd5b503461039657806003193601126103965761015f5442101561057e576033546001600160a01b0316330361056f575b6103d06150af565b603354610171546001600160a01b039081169116811561056057610172546202a300810180911161054c57421061053d579080610535926001600160601b0360a01b61017154166101715584610172556104e560405161042f81614c0e565b838152602081017fa5ccb6867d103f21ecf1c41cfc2f9edaeab012c60e542a449046031f4b3422f581526003604083019289845260608101938685526080820193600185526104918960018060a01b0316600052610164602052604060002090565b925183546001600160a01b0319166001600160a01b03918216178455905160018401559051600283015593519101805492516001600160a81b0319909316919093161790151560a01b60ff60a01b16179055565b6001600160a01b038116600090815261016460205260409020600301805460ff60a01b191690557fe9a5158ac7353c7c7322ececc080bc8e89334efa5795b6e21e40eb266b0003d68580a3615bb9565b600160fb5580f35b631442118160e11b8352600483fd5b634e487b7160e01b84526011600452602484fd5b63357a03ed60e21b8352600483fd5b63ea8e4eb560e01b8152600490fd5b6040516244414f60e81b8152610163600382015260239020546001600160a01b031680156105bb5733146103c857635c427cd960e01b8152600490fd5b6336939d7d60e21b8252600482fd5b5034610396576020366003190112610396576105e4614b36565b61015f544210156106ca576033546001600160a01b031633036106bb575b61060a6150af565b6001600160a01b038116600090815261017d60205260409020548015610560576201518081018091116106a7574210610698576001600160a01b038116600090815261017d6020526040902061053591908390556040516001600160a01b03821681527f59b22fe8b92d7f99b54034c49432db394b5fad64472967b2cba6f5a999fed00790602090a1615878565b631442118160e11b8252600482fd5b634e487b7160e01b83526011600452602483fd5b63ea8e4eb560e01b8252600482fd5b6040516244414f60e81b8152610163600382015260239020546001600160a01b0316801561070757331461060257635c427cd960e01b8252600482fd5b6336939d7d60e21b8352600483fd5b503461039657608036600319011261039657602435600435610736614b67565b916064356001600160401b0381116108da57610756903690600401614cfb565b61075f3361518e565b600133818060a01b03603354161491149061015f54421060001461087057159081610867575b506108585761079d83915b6107986150af565b614ec8565b54036108495760018110801561083f575b610830576107bb3361518e565b1015610821576001600160a01b0391909116600081815261016460205260409020838155600181018490556002810184905560030183905533917ff6391f5c32d9c69d2a47ea670b442974b53935d1edc7fd64eb21e047a839171b8480a4600160fb5580f35b630deda90360e41b8352600483fd5b63ba8db6af60e01b8452600484fd5b50600281116107ae565b63b810dc5d60e01b8452600484fd5b630ba9cf7d60e01b8552600485fd5b90501538610785565b6040516244414f60e81b8152610163600382015260239020546001600160a01b03169081156108cb571591826108c2575b50816108b7575b506108585761079d8391610790565b9050331415386108a8565b159150386108a1565b6336939d7d60e21b8852600488fd5b8480fd5b50346103965760203660031901126103965760206109026108fd614b36565b61505f565b604051908152f35b503461039657602036600319011261039657610924614b36565b61092d3361518e565b600133818060a01b03603354161491149061015f5442106000146109e4571590816109db575b506109cc5781905b6109636150af565b61096d8180615ce7565b6001600160a01b0316803b156109c957818091600460405180948193631fa5d41d60e11b83525af180156109be576109a9575b50600160fb5580f35b816109b391614c88565b6103965780386109a0565b6040513d84823e3d90fd5b50fd5b630ba9cf7d60e01b8252600482fd5b90501538610953565b6040516244414f60e81b8152610163600382015260239020546001600160a01b0316908115610a3c57159182610a33575b5081610a28575b506109cc57819061095b565b905033141538610a1c565b15915038610a15565b6336939d7d60e21b8552600485fd5b503461039657602036600319011261039657610a65614b36565b61015f54421015610b13576033546001600160a01b031633036106bb575b610a8b6150af565b6001600160a01b038116600090815261016f602052604090205415610b04576001600160a01b038116600090815261016f60205260409020829055610acf81615c02565b6001600160a01b03167f749159e34d3b1d5a3731c64f970f74cb6f8b53447dd949e4f518d2f7e408f61f8280a2600160fb5580f35b63198580dd60e31b8252600482fd5b6040516244414f60e81b8152610163600382015260239020546001600160a01b03168015610707573314610a8357635c427cd960e01b8252600482fd5b50346103965760203660031901126103965760043561015f544210600014610bb2576033546001600160a01b031633036106bb575b610b8d6150af565b620151808110610ba35761018855600160fb5580f35b6352b9311160e11b8252600482fd5b6040516244414f60e81b8152610163600382015260239020546001600160a01b03168015610707573314610b8557635c427cd960e01b8252600482fd5b5034610396576060366003190112610396576004356001600160401b038111610e8157610c20903690600401614cfb565b610c28614b51565b610c30614b67565b9061015f544210600014610e44576033546001600160a01b03163303610e35575b610c596150af565b6040516020810190610c876020828751610c768187858c01614bc6565b81010301601f198101835282614c88565b519020604051858152610c9b602082614c88565b60208151910120148015610e24575b8015610e13575b610e045782516001600160401b038111610df057610cdd81610cd561019354614d42565b610193614f06565b6020601f8211600114610d88579080610d5193928791610d7d575b508160011b916000199060031b1c191617610193555b60018060a01b031691826001600160601b0360a01b6101945416176101945560018060a01b031692836001600160601b0360a01b6101955416176101955561503f565b7fc81c01672b6ff4d4218e8c127ffde1c12f675a7205233e95431fa7df38ce46808480a4600160fb5580f35b905085015138610cf8565b610193865280862090601f198316875b818110610dd85750918391610d51959460019410610dbf575b5050811b0161019355610d0e565b87015160001960f88460031b161c191690553880610db1565b9192602060018192868b015181550194019201610d98565b634e487b7160e01b85526041600452602485fd5b63d92e233d60e01b8452600484fd5b506001600160a01b03821615610cb1565b506001600160a01b03811615610caa565b63ea8e4eb560e01b8452600484fd5b6040516244414f60e81b8152610163600382015260239020546001600160a01b03168015610a3c573314610c5157635c427cd960e01b8452600484fd5b5080fd5b503461039657602036600319011261039657610e9f614b36565b61015f54421015611000576033546001600160a01b031633036106bb575b610ec56150af565b6001600160a01b038116600090815261017b602052604090209060405191610eec83614c5a565b80546001600160a01b039081168452600182015460208501818152600290930154909116604085015215610ff157516202a300810180911161054c57421061053d576001600160a01b038116600090815261017b602052604081206002905b82815560018101839055015581516001600160a01b039182169291849116833b15610e815760405190631b2ce7f360e11b82526004820152818160248183885af180156109be57610fd8575b5050516040516001600160a01b0390911681527f7dab0d5bdb5c06f7a30c06716066047b3d4fe92aa277d95aec0f06a079096ec890602090a2600160fb5580f35b81610fe291614c88565b610fed578238610f97565b8280fd5b63357a03ed60e21b8452600484fd5b6040516244414f60e81b8152610163600382015260239020546001600160a01b03168015610707573314610ebd57635c427cd960e01b8252600482fd5b5034610396578060031936011261039657610191546040516001600160a01b039091168152602090f35b503461039657602036600319011261039657611081614b36565b61015f54421015611145576033546001600160a01b031633036106bb575b6110a76150af565b6110b18180615ce7565b6001600160a01b038116600090815261017d6020526040902054611136576001600160a01b038116600090815261017d60205260409020429055604080516001600160a01b03909216825242602083015233917fb18c6270b71e88d80a33e6ff96678cd5372d68c69a43a813e0d47088e8af81d691819081015b0390a2600160fb5580f35b635631a27d60e11b8252600482fd5b6040516244414f60e81b8152610163600382015260239020546001600160a01b0316801561070757331461109f57635c427cd960e01b8252600482fd5b50346103965760403660031901126103965760206109026111a1614b36565b60243590615b67565b5034610396578060031936011261039657602061018854604051908152f35b614d19565b50346103965760203660031901126103965760206109026111ed614b36565b61518e565b50346103965760203660031901126103965761120c614b36565b61015f544210156112c1576033546001600160a01b031633036106bb575b6112326150af565b6001600160a01b038116600090815261017b6020526040902060010154156112b2576001600160a01b038116600090815261017b602052604081206002905b8281556001810183905501556001600160a01b03167f3198dc80249fcfedbd0d06e1ff49a7695a51b006592328ce0b127cdeab77e9368280a2600160fb5580f35b63357a03ed60e21b8252600482fd5b6040516244414f60e81b8152610163600382015260239020546001600160a01b0316801561070757331461122a57635c427cd960e01b8252600482fd5b503461039657602036600319011261039657611318614b36565b61015f544210156113f2576033546001600160a01b031633036106bb575b61133e6150af565b6001600160a01b038116600090815261017d60205260409020548015610560576201518081018091116106a7574210610698576001600160a01b038116600090815261017b60205260409020906040519161139883614c5a565b80546001600160a01b039081168085526001830154602086015260029092015416604084015215610560576001600160a01b038116600090815261017d6020908152604080832086905561017b9091528120600290610f4b565b6040516244414f60e81b8152610163600382015260239020546001600160a01b0316801561070757331461133657635c427cd960e01b8252600482fd5b50346103965761143e36614e37565b6040516926bab63a34aa37b5b2b760b11b8152610163600a820152602a90205491959094939092916001600160a01b0316330361168b5761147d6150af565b6040516926bab63a34aa37b5b2b760b11b8152610163600a820152602a90206001600160a01b0390541633149060018060a01b0387169660018060a01b0384169686898914918261165d575b6114d290614ec8565b540361164e576001600160a01b038216600090815261016760205260409020868b5260205260408a209360a060405161150a81614c3f565b86548152600180831b03600188015416602082015260028701549081604082015260ff600460038a015499606084019a8b520154600180861b0381166080840152841c1615908115938491015291611645575b50611636578161162e575b5080611624575b156115d4575b5050506001600160a01b031660009081526101676020526040902090855260205260408420600401805460ff60a01b191690557ff6391f5c32d9c69d2a47ea670b442974b53935d1edc7fd64eb21e047a839171b8480a4600160fb5580f35b6115df60019161518e565b119182611604575b50506115f557388080611575565b630deda90360e41b8652600486fd5b5190811080159250611619575b5038806115e7565b600391501038611611565b506003821461156f565b905038611568565b6321bf417f60e21b8b5260048bfd5b9050153861155d565b63b810dc5d60e01b8a5260048afd5b90508480611681575b156116725787906114c9565b630deda90360e41b8b5260048bfd5b5060038414611666565b631792196f60e31b8752600487fd5b5034610396576116a936614e37565b92939491906040516926bab63a34aa37b5b2b760b11b8152610163600a820152602a60018060a01b0391205416330361168b576116e46150af565b6001600160a01b038181169690831695868814611d6d578161170587614ec8565b5403611d5e57600381108015611d54575b611d45578460038203611c3457505060405191610c7660208401875194611748602082818c0198610c7681878c614bc6565b51902060405160208101906e444f4d494e55535f5341504f52495360881b8252600f8152611777602f82614c88565b5190201493611796602060405180938282019586918d51928391614bc6565b519020604051602081019070434f4e5349474c494f5f5341504f52495360781b8252601181526117c7603182614c88565b519020149060036117d88783615b67565b1480918b82611ba9575b506117ee60019161518e565b116040516b546f6b656e466163746f727960a01b8152610163600c820152602c60018060a01b0391205416928b60018060a01b03611846602a6040516926bab63a34aa37b5b2b760b11b8152610163600a8201522090565b541691159485938496611ba1575b5083611b96575b505081611b8b575b50611b7c5790849182611b74575b5081611b6c575b50611b5d576001600160a01b0384166000908152610164602052604090206003015460a01c60ff16611b4e576001600160a01b038416600090815261016a6020526040902054611b3f578280611b20575b80611b00575b611af1576001600160a01b038416600090815261016760205260409020858a526020526040892060ff600482015460a01c16611a05575b50509282819260046119b79661193e7fc56cfa703b6eea7a1c31488509e991f49944dd94f1a0b29c32d87a6ff5f42024999786615d53565b898c5261016760209081526040808e20878f529091528c208581556001810180546001600160a01b0319168c179055600281019190915560038082015501805460ff60a01b198b166001600160a81b031990911617600160a01b1790556119c8575b50505b604051928392604084526040840190614be9565b9060208301520390a3600160fb5580f35b6001600160a01b0316600090815261016a602052604090205580875261017c6020526040872080546001600160a01b0319168617905580386119a0565b8380611a9a575b611a8b5781611a31575b50611a22573880611906565b635c6eedaf60e11b8852600488fd5b6002915001546040516020810191825260208152611a50604082614c88565b519020604051602081019070434f4e5349474c494f5f5341504f52495360781b825260118152611a81603182614c88565b5190201438611a16565b631867be1160e11b8a5260048afd5b5060028101546040516020810191825260208152611ab9604082614c88565b51902060405160208101906e444f4d494e55535f5341504f52495360881b8252600f8152611ae8602f82614c88565b51902014611a0c565b63747536fb60e01b8952600489fd5b5084895261017c60205260408920546001600160a01b03168714156118cf565b5084895261017c60205260408920546001600160a01b031615156118c9565b634979f0c760e11b8952600489fd5b6368527e6960e11b8952600489fd5b637898098b60e11b8952600489fd5b905038611878565b915038611871565b637e1ef5d560e01b8b5260048bfd5b905033141538611863565b141591508b3861185b565b935038611854565b819350600260406117ee92611bd360019560018060a01b0316600052610167602052604060002090565b8c82526020522001546040516020810191825260208152611bf5604082614c88565b519020604051602081019070434f4e5349474c494f5f5341504f52495360781b825260118152611c26603182614c88565b51902014939150508b6117e2565b611c419193949294615b67565b6000198114611d365782811090811591611d2b575b50611d1c5783885261017c60205260408820546001600160a01b03168614611d0d577fc56cfa703b6eea7a1c31488509e991f49944dd94f1a0b29c32d87a6ff5f4202494928492611cac6004936119b797615d53565b878a5261016760209081526040808c20868d529091528a208481556001810180546001600160a01b0319168a1790556002810192909255600382015501805460ff60a01b1988166001600160a81b031990911617600160a01b1790556119a3565b6326b1c0ad60e01b8852600488fd5b630deda90360e41b8852600488fd5b600391501038611c56565b6321bf417f60e21b8952600489fd5b63285544a760e21b8952600489fd5b5060058111611716565b63b810dc5d60e01b8952600489fd5b630deda90360e41b8952600489fd5b503461039657602036600319011261039657600435906001600160401b038211610396576020611daf3660048501614cfb565b81611dc36040519283815193849201614bc6565b61016390820190815281900382019020546040516001600160a01b039091168152f35b5034610396576060366003190112610396576004356001600160401b038111610e8157611e17903690600401614cfb565b611e1f614b51565b604435611e2b3361518e565b600133818060a01b03603354161491149061015f544210600014611fdc57159081611fd3575b50611fc4575b611e5f6150af565b611e6883614ec8565b54908115611fb557600181108015611fab575b611f9c5780611e893361518e565b1015611f8d576001600160a01b038316600090815261016460205260409020916001830193845415801590611f7c575b611f6d576001600160a01b03168087526101686020526040872054909490611f5e5783546001600160a01b03191685178455556002820155600301805460ff60a01b19339081166001600160a81b031990921691909117600160a01b17909155604051602080825291937f2271cff5ceb87d1cb9678385844551fbd00ce3a7914ad55dcab51896c63103d0928291611f5391830190614be9565b0390a3600160fb5580f35b636d1a4ed360e11b8752600487fd5b6368527e6960e11b8752600487fd5b5060ff600385015460a01c16611eb9565b630deda90360e41b8552600485fd5b63ba8db6af60e01b8552600485fd5b5060028111611e7b565b63b810dc5d60e01b8552600485fd5b630ba9cf7d60e01b8452600484fd5b90501538611e51565b6040516244414f60e81b8152610163600382015260239020546001600160a01b031690811561203d57159182612034575b5081612029575b5015611e5757630ba9cf7d60e01b8452600484fd5b905033141538612014565b1591503861200d565b6336939d7d60e21b8752600487fd5b5034610396578060031936011261039657612065614f4b565b5061206e614f4b565b5061016c546001600160a01b031690811561215a5750604051612092604082614c88565b600681526561637469766560d01b6020820152905b61016d549160018060a01b0361016e54169261214060018060a01b0361018c5416926101895492604051956120db87614c3f565b86526020860196875260408601908152606086019182526080860194855260a086019384526040519687966020885260018060a01b03905116602088015260018060a01b0390511660408701525160608601525160c0608086015260e0850190614be9565b91516001600160a01b031660a08401525160c08301520390f35b50604051612169604082614c88565b6008815267696e61637469766560c01b6020820152906120a7565b503461039657806003193601126103965760206040517fa36640f9c3d74ee87c99b3aee39f32849dda077410057abc393a2cb9e13139a78152f35b50346103965780600319360112610396576122076121db614d7c565b60018060a01b03610194541660018060a01b036101955416604051938493606085526060850190614be9565b91602084015260408301520390f35b50346103965760203660031901126103965760043561015f5442106000146122b1576033546001600160a01b031633036106bb575b6122536150af565b61271081116122a2576020817ffdb174bbb157048e9f3962e375891bace08d9741796e3288bf79ab8ccd1dfa209261016d558282604051838152a18061019255604051908152a1600160fb5580f35b63162908e360e11b8252600482fd5b6040516244414f60e81b8152610163600382015260239020546001600160a01b0316801561070757331461224b57635c427cd960e01b8252600482fd5b503461039657602036600319011261039657612308614b36565b6123113361518e565b600133818060a01b03603354161491149061015f5442106000146123b1571590816123a8575b506109cc5781905b6123476150af565b6123518180615ce7565b6001600160a01b0316803b156109c957818091600460405180958193638456cb5960e01b83525af1801561239b5761238b57600160fb5580f35b61239491614c88565b3881610535565b50604051903d90823e3d90fd5b90501538612337565b6040516244414f60e81b8152610163600382015260239020546001600160a01b0316908115610a3c57159182612400575b50816123f5575b506109cc57819061233f565b9050331415386123e9565b159150386123e2565b50346103965780600319360112610396577f360894a13ba1a3210667c828492db98dca3e2076cc3735a920a3ca505d382bbc546040516001600160a01b039091168152602090f35b503461039657602036600319011261039657602090600435815261017c8252604060018060a01b0391205416604051908152f35b50346103965760203660031901126103965761249f614b36565b61015f54421015612515576033546001600160a01b031633036106bb575b6124c56150af565b6001600160a01b038116600090815261017d6020526040902054156112b2576001600160a01b038116600090815261017d6020908152604080832085905561017b90915290208290600290611271565b6040516244414f60e81b8152610163600382015260239020546001600160a01b031680156107075733146124bd57635c427cd960e01b8252600482fd5b5034610396578060031936011261039657602061019254604051908152f35b503461039657604036600319011261039657604060c091612590614b36565b8160a0845161259e81614c3f565b8281528260208201528286820152826060820152826080820152015260018060a01b03168152610167602052818120602435825260205220604051906125e382614c3f565b80549182815260018060a01b03600183015416916020820192835260028101546040830190815260046003830154926060850193845201549360ff60a06080860195600180831b0388168752019560a01c161515855260405195865260018060a01b03905116602086015251604085015251606084015260018060a01b03905116608083015251151560a0820152f35b50346103965760a03660031901126103965761268d614b36565b90612696614b51565b91606435916001600160a01b03831683036103965760206126c88585856126bb6150af565b60843592604435916159fb565b600160fb55604051908152f35b5034610396578060031936011261039657610177546040516001600160a01b039091168152602090f35b503461039657602036600319011261039657600435906001600160401b0382116103965760206109026127353660048601614cfb565b61599f565b50346103965780600319360112610396576033546040516001600160a01b039091168152602090f35b50346103965760403660031901126103965761277d614b36565b612785614b51565b9061015f544210600014612a54576033546001600160a01b03163303612a45575b6127ae6150af565b6127b88282615ce7565b6001600160a01b038116600090815261017b6020526040902060010154612a3657604051632a2767e560e01b81526001600160a01b03821691602082600481865afa918215612a2b5785926129f7575b50833b156129cd57848060405160208101906301ffc9a760e01b82526317e3c03b60e21b602482015260248152612840604482614c88565b5190875afa61284d615d23565b90159081156129dc575b506129cd576040918580845161286d8682614c88565b601a81527f676574496d706c656d656e746174696f6e54797065496d70282900000000000060209091015284516375a8670960e01b906128ac90614c75565b855160208101918252600481526128c4602482614c88565b5190885afa906128d2615d23565b91159182156129a9575b505061299a57907f9d46c424dbb24cb5db0226a1022c4be6afb7410d2c4b320c52a939c9fbeeed4691600282519161291383614c5a565b60018060a01b0387168352602083014281526129488585019233845260018060a01b031660005261017b602052604060002090565b935184546001600160a01b03199081166001600160a01b039283161786559151600186015591519290930180549093169181169190911790915590519316835242602084015233928060408101611f53565b633aa04df960e01b8552600485fd5b8051919250602080820192820191909103126129c95751141538806128dc565b8680fd5b6338951bb760e11b8552600485fd5b6129f09150602080825183010191016159e3565b1538612857565b9091506020813d602011612a23575b81612a1360209383614c88565b810103126108da57519038612808565b3d9150612a06565b6040513d87823e3d90fd5b635631a27d60e11b8352600483fd5b63ea8e4eb560e01b8352600483fd5b6040516244414f60e81b8152610163600382015260239020546001600160a01b03168015612a915733146127a657635c427cd960e01b8352600483fd5b6336939d7d60e21b8452600484fd5b5034610396578060031936011261039657600490612abc6150af565b639809edb560e01b8152fd5b5034610396578060031936011261039657805460ff8160081c161590818092612fae575b8015612f97575b15612f3b5760ff198116600117835581612f2a575b506301e1338042018042116106a75761015f556301e1338061018855612b4660ff835460081c16612b388161593f565b612b418161593f565b61593f565b612b4f33615bb9565b612b9660ff835460081c16612b638161593f565b612b6c8161593f565b60ff1960c9541660c955612b7f8161593f565b612b888161593f565b600160fb55612b418161593f565b600561016155612c0d604051612bab81614c0e565b338152602081017fa5ccb6867d103f21ecf1c41cfc2f9edaeab012c60e542a449046031f4b3422f581526003604083019286845260608101933385526080820193600185526104913360018060a01b0316600052610164602052604060002090565b604090612c438251612c1f8482614c88565b60128152710929aa08aa482a89ea4beac829c8a989892b60731b6020820152615301565b50612c778251612c538482614c88565b6012815271434f4e5349474c494f5f5354454c4c41544f60701b6020820152615301565b50612ca88251612c878482614c88565b600f81526e4c4547415455535f5354454c4c414560881b6020820152615421565b50612cd88251612cb88482614c88565b600e81526d50524145544f525f4c554d494e4160901b6020820152615528565b50612d098251612ce88482614c88565b600f81526e444f4d494e55535f5341504f52495360881b60208201526155fc565b50612d3c8251612d198482614c88565b6011815270434f4e5349474c494f5f5341504f52495360781b60208201526155fc565b50612d6f8251612d4c8482614c88565b601181527043454e545552494f5f4d454e534152554d60781b60208201526156d0565b50612da08251612d7f8482614c88565b600f81526e4d494c495445535f43554c494e414560881b60208201526157a4565b50612dad61016054614d42565b601f8111612eeb575b50602a74158c4815985b995b1b1a5e0813185d5b98da1c1859605a1b01610160556298968061018a55612710610189558261016d558261019255612dfc61019354614d42565b601f8111612eac575b506012680517569636b537761760bc1b016101935573a5e0829caced8ffdd4de3c43696c57f7d7a678ff6001600160601b0360a01b6101945416176101945573a5e0829caced8ffdd4de3c43696c57f7d7a678ff6001600160601b0360a01b61019554161761019555612e76575080f35b60207f7f26b83ff96e1f2b6a682f133852f6798a09c465da95921460cefb38474024989161ff001984541684555160018152a180f35b6101938452612ee590601f0160051c7ffc8af01f449989052b52093a58fc9f42d0b11f0c6dd5dca0463dab62346ccc6890810190614eef565b38612e05565b6101608452612f2490601f0160051c7fec7e130cdeeae65215fabbcddb1de429e603c4887cc659532eda903e4933966390810190614eef565b38612db6565b61ffff191661010117825538612b08565b60405162461bcd60e51b815260206004820152602e60248201527f496e697469616c697a61626c653a20636f6e747261637420697320616c72656160448201526d191e481a5b9a5d1a585b1a5e995960921b6064820152608490fd5b50303b158015612af35750600160ff821614612af3565b50600160ff821610612aec565b503461039657806003193601126103965761015f54421015613053576033546001600160a01b0316330361056f575b612ff26150af565b610178541561304457613018600061017755600061017855600061017955600061017a55565b7f761942e410ba280153b2ed459ded9f9ddb88850faccd07da7acf1da6cdc7d6898180a1600160fb5580f35b63357a03ed60e21b8152600490fd5b6040516244414f60e81b8152610163600382015260239020546001600160a01b031680156105bb573314612fea57635c427cd960e01b8152600490fd5b503461039657806003193601126103965761015f54421015613162576033546001600160a01b0316330361056f575b6130c76150af565b6101785480156112b2576202a300810180911161314e57421061313f5761312260018060a01b0361017754167f59b22fe8b92d7f99b54034c49432db394b5fad64472967b2cba6f5a999fed0076020604051838152a1615878565b610535600061017755600061017855600061017955600061017a55565b631442118160e11b8152600490fd5b634e487b7160e01b82526011600452602482fd5b6040516244414f60e81b8152610163600382015260239020546001600160a01b031680156105bb5733146130bf57635c427cd960e01b8152600490fd5b5034610396578060031936011261039657602061015f54604051908152f35b503461039657602036600319011261039657600435906001600160401b038211610396576020613208816131f53660048701614cfb565b8160405193828580945193849201614bc6565b810161016581520301902054604051908152f35b5034610396578060031936011261039657610194546040516001600160a01b039091168152602090f35b50346103965780600319360112610396576004906132626150af565b6001623f026d60e01b03198152fd5b50346103965760203660031901126103965761328b614b36565b61015f54421015613317576033546001600160a01b031633036106bb575b6132b16150af565b6001600160a01b038116600090815261017d6020526040902054156112b2576001600160a01b0316600090815261017d602052604090208190557f761942e410ba280153b2ed459ded9f9ddb88850faccd07da7acf1da6cdc7d6898180a1600160fb5580f35b6040516244414f60e81b8152610163600382015260239020546001600160a01b031680156107075733146132a957635c427cd960e01b8252600482fd5b5034610396576020366003190112610396576020613370614b36565b61016c546040516001600160a01b0392831691909216148152f35b5034610396578060031936011261039657602060ff60c954166040519015158152f35b5034610396576040366003190112610396576133c8614b36565b6133d0614b51565b61015f544210156134f9576033546001600160a01b03163303612a45575b6133f66150af565b6134008183615ce7565b6001600160a01b038216600090815261017d6020526040902054612a36576001600160a01b038216600090815261017d6020526040902042905560405161344681614c5a565b60018060a01b0382168152600260208201428152604083019033825261347f8660018060a01b031660005261017b602052604060002090565b935184546001600160a01b03199081166001600160a01b03928316178655915160018601559151929093018054909316918116919091179091556040805192821683524260208401523393909116917f9d46c424dbb24cb5db0226a1022c4be6afb7410d2c4b320c52a939c9fbeeed469181908101611f53565b6040516244414f60e81b8152610163600382015260239020546001600160a01b03168015612a915733146133ee57635c427cd960e01b8352600483fd5b50346103965780600319360112610396577f00000000000000000000000000000000000000000000000000000000000000006001600160a01b031630036135a15760206040517f360894a13ba1a3210667c828492db98dca3e2076cc3735a920a3ca505d382bbc8152f35b60405162461bcd60e51b815260206004820152603860248201527f555550535570677261646561626c653a206d757374206e6f742062652063616c60448201527f6c6564207468726f7567682064656c656761746563616c6c00000000000000006064820152608490fd5b50604036600319011261039657613621614b36565b506024356001600160401b038111610e815736602382011215610e81579061365460049236906024818601359101614cc4565b5061365d6150af565b630c5e6cd360e21b8152fd5b503461039657602036600319011261039657613683614b36565b61015f544210156138d6576033546001600160a01b031633036106bb575b6136a96150af565b6136b38180615ce7565b6101785461113657803b156138ac57818060405160208101906301ffc9a760e01b8252632a2767e560e01b6024820152602481526136f2604482614c88565b5190845afa6136ff615d23565b90159081156138bb575b506138ac5760408280825161371e8482614c88565b601781527f676574496d706c656d656e746174696f6e5479706528290000000000000000006020909101528251632a2767e560e01b9061375d90614c75565b83516020810191825260048152613775602482614c88565b5190855afa613782615d23565b9015908115613869575b5061385a578051608081018181106001600160401b03821117610df05782526001600160a01b03929092168083524260208085018290527fce9b24d2dc7f9161cd3535ebadb01aa541e3f9f2b1e7ffb37b9f0fa96d292db884860181905233606090960186905261017780546001600160a01b031990811686179091556101788490556101799190915561017a8054909116861790559251918252918101919091527fb18c6270b71e88d80a33e6ff96678cd5372d68c69a43a813e0d47088e8af81d690806040810161112b565b633aa04df960e01b8352600483fd5b80516020808301935090820191909103126138a857517fce9b24d2dc7f9161cd3535ebadb01aa541e3f9f2b1e7ffb37b9f0fa96d292db814153861378c565b8380fd5b6338951bb760e11b8252600482fd5b6138cf9150602080825183010191016159e3565b1538613709565b6040516244414f60e81b8152610163600382015260239020546001600160a01b031680156107075733146136a157635c427cd960e01b8252600482fd5b5034610396576020366003190112610396576060906040906001600160a01b0361393b614b36565b16815261017b60205220604080519161395383614c5a565b80546001600160a01b0390811680855260018301546020808701829052600290940154909216939094018390526040805194855291840152820152f35b5034610396576020366003190112610396576139aa614b36565b61015f54421015613ac3576033546001600160a01b031633036106bb575b6139d06150af565b6001600160a01b038116600090815261016f602052604090205415610b04576001600160a01b038116600090815261016f60205260409020546202a30081018091116106a7574210613ab4576001600160a01b0381169061deac198201613a9f575b61016c80546001600160a01b0319166001600160a01b038316179055613a73906001600160a01b038116600090815261016f60205260409020849055615c02565b7fbe8b243cc9b5244fd502d39323d3e688e3ca52d8eee47ea6780c3ec5b4113e058280a2600160fb5580f35b803b613a3257630749aedb60e01b8352600483fd5b6364037fb760e11b8252600482fd5b6040516244414f60e81b8152610163600382015260239020546001600160a01b031680156107075733146139c857635c427cd960e01b8252600482fd5b503461039657602036600319011261039657613b1a614b36565b61015f54421015613bc4576033546001600160a01b031633036106bb575b613b406150af565b6001600160a01b038116908115613bb55761016c546001600160a01b0316613ba65761dead8203613b91575b61016c80546001600160a01b0319166001600160a01b03909216919091179055613a73565b803b613b6c57630749aedb60e01b8352600483fd5b63c6f6a6e960e01b8352600483fd5b63d92e233d60e01b8352600483fd5b6040516244414f60e81b8152610163600382015260239020546001600160a01b03168015610707573314613b3857635c427cd960e01b8252600482fd5b5034610396578060031936011261039657600490613c1d6150af565b636aa63d6160e01b8152fd5b5034610396576040366003190112610396576004356001600160401b038111610e8157613c5a903690600401614cfb565b6024359061015f544210600014613dda576033546001600160a01b03163303612a45575b613c866150af565b805115613dcb57610161548015612a91578211613dbc576014610166541015613dad5790602091604051613ce4848201835192613ccd878281880196610c7681878a614bc6565b519020948592604051809381928751928391614bc6565b81016101658152030190205561016654600160401b811015610df057806001613d14920161016655610166615160565b613d995781836040602097613d3b600080516020615e1683398151915296613d6496614f7c565b87815261018789522055610162548411613d8f575b604051918291604083526040830190614be9565b85878301520390a1610162548111613d85575b50600160fb55604051908152f35b6101625538613d77565b8361016255613d50565b634e487b7160e01b85526004859052602485fd5b6353bb24f960e01b8352600483fd5b630af469a960e31b8352600483fd5b636cc61e7360e11b8352600483fd5b6040516244414f60e81b8152610163600382015260239020546001600160a01b03168015612a91573314613c7e57635c427cd960e01b8352600483fd5b503461039657806003193601126103965760408051613e3581614c5a565b606081528260208201520152613e9c604051613e5081614c5a565b613e58614d7c565b815260018060a01b0361019454166020820190815260018060a01b036101955416604083019081526040519384936020855251606060208601526080850190614be9565b91516001600160a01b03908116604085015290511660608301520390f35b503461039657806003193601126103965760206109026152ab565b503461039657602036600319011261039657600490613ef2614b36565b50613efb6150af565b6308ac7db760e21b8152fd5b50346103965760203660031901126103965760043561015f544210600014613f5c576033546001600160a01b031633036106bb575b610162548110613f4d576101615580f35b6309aaecbf60e41b8252600482fd5b6040516244414f60e81b8152610163600382015260239020546001600160a01b03168015610707573314613f3c57635c427cd960e01b8252600482fd5b5034610396576020366003190112610396576020906040906001600160a01b03613fc1614b36565b16815261016f83522054604051908152f35b503461039657806003193601126103965761015f54421015614068576033546001600160a01b0316330361056f575b61400a6150af565b603354610171546001600160a01b039182169116156112b2577f48a87225523c5fd46bf3b7da3223e5525f77b8136a962695d701a24699bef8f38280a26001600160601b0360a01b6101715416610171558061017255600160fb5580f35b6040516244414f60e81b8152610163600382015260239020546001600160a01b031680156105bb57331461400257635c427cd960e01b8152600490fd5b5034610396576020366003190112610396576140bf614b36565b61015f54421015614200576033546001600160a01b031633036106bb575b6140e56150af565b6001600160a01b038116908115613bb5576001600160a01b038116600090815261016f60205260409020546141f1576001600160a01b0316600090815261016f6020526040902042905561017054600160401b8110156141dd576001810161017055610170548110156141c95761017083527f88e1afb22f13be7fec203799fd189c3b9471c5b75e2b22a6d5efec11c7f39255018054600384901b83811b6001600160a01b0390911b199091161790556040514281527f58bb431e0f7936fab42d31349f05b36e6e2bc6030189fafbb5d8b195a3da0cc590602090a2600160fb5580f35b634e487b7160e01b83526032600452602483fd5b634e487b7160e01b83526041600452602483fd5b638c34a7cd60e01b8352600483fd5b6040516244414f60e81b8152610163600382015260239020546001600160a01b031680156107075733146140dd57635c427cd960e01b8252600482fd5b503461039657604036600319011261039657614257614b36565b6024356001600160401b038111610fed57614276903690600401614cfb565b906142803361518e565b600133818060a01b03603354161491149061015f5442106000146144aa571590816144a1575b50614492575b6142b46150af565b6001600160a01b038116908115610e045760206143cc91604051908282018651926142e98582818b0196610c7681878a614bc6565b519020604051848101906244414f60e81b82526003815261430b602382614c88565b519020810361444a575061435d60039160236040516244414f60e81b8152610163858201522060018060a01b039054168061441f575b506001600160a01b031660009081526101646020526040902090565b80546001600160a01b031916861781557ff807ff8eec250923b9076d0fbc12c4f8fc15f4a65bc3bb510202d51d46cd1ef660018201556002810188905501805460ff60a01b1933166001600160a81b031990911617600160a01b1790555b604051809381928751928391614bc6565b8101610163815203019020816001600160601b0360a01b8254161790556143f3339261503f565b7fcd274a007eb61cbcf6df3e9eb2d5bcc233450f045cc22d9ebb0beb460710aca78480a4600160fb5580f35b6001600160a01b03166000908152610164602052604090208301805460ff60a01b1916905538614341565b9050604051838101906926bab63a34aa37b5b2b760b11b8252600a8152614472602a82614c88565b519020036143bb5761016980546001600160a01b031916851790556143bb565b630ba9cf7d60e01b8352600483fd5b905015386142a6565b6040516244414f60e81b8152610163600382015260239020546001600160a01b031690811561450b57159182614502575b50816144f7575b50156142ac57630ba9cf7d60e01b8352600483fd5b9050331415386144e2565b159150386144db565b6336939d7d60e21b8652600486fd5b503461039657602036600319011261039657614534614b36565b61015f54421015614657576033546001600160a01b031633036106bb575b61455a6150af565b6001600160a01b038116908115613bb55761019180546001600160a01b031916831790553b15614648576040516318160ddd60e01b8152602081600481855afa9081614619575b506145b557636cb9962360e01b8252600482fd5b61016e80546001600160a01b03191682179055807f722ff84c1234b2482061def5c82c6b5080c117b3cbb69d686844a051e4b8e7f38380a27f722ff84c1234b2482061def5c82c6b5080c117b3cbb69d686844a051e4b8e7f38280a2600160fb5580f35b6020813d602011614640575b8161463260209383614c88565b810103126138a857516145a1565b3d9150614625565b636cb9962360e01b8252600482fd5b6040516244414f60e81b8152610163600382015260239020546001600160a01b0316801561070757331461455257635c427cd960e01b8252600482fd5b50346103965780600319360112610396576020604051308152f35b5034610396578060031936011261039657604051908061016054906146d382614d42565b80855291600181169081156147715750600114614713575b61470f846146fb81860382614c88565b604051918291602083526020830190614be9565b0390f35b61016081527fec7e130cdeeae65215fabbcddb1de429e603c4887cc659532eda903e49339663939250905b808210614757575090915081016020016146fb826146eb565b91926001816020925483858801015201910190929161473e565b60ff191660208087019190915292151560051b850190920192506146fb91508390506146eb565b50346103965780600319360112610396576147b1614e96565b506147ba614e96565b506147c3615105565b6147cb615105565b61470f6147d6615105565b6148836147e1615105565b9161487060018060a01b0361017154169561485d6101725498604051986148078a614c3f565b895260208901998a5260408901908152606089019283526080890194855260a08901968752604051998a9960208b5260018060a01b0390511660208b01525160408a01525160c060608a015260e0890190614b7d565b9051878203601f19016080890152614b7d565b9051858203601f190160a0870152614b7d565b9051838203601f190160c0850152614b7d565b5034610396576020366003190112610396576148b0614b36565b61015f54421015614939576033546001600160a01b031633036106bb575b6148d66150af565b6033546001600160a01b0391821691168115613bb557816001600160601b0360a01b6101715416176101715542610172557f37cfa1493a4caaf6506c84b43005afeae37478bd57ee3d33b8d93e746295e1756020604051428152a3600160fb5580f35b6040516244414f60e81b8152610163600382015260239020546001600160a01b031680156107075733146148ce57635c427cd960e01b8252600482fd5b503461039657602036600319011261039657604060a091614995614b36565b81608084516149a381614c0e565b82815282602082015282868201528260608201520152600180851b0316815261016460205220604051906149d682614c0e565b600180841b03815416918281526001820154916020820192835260036002820154916040840192835201549260ff608060608501946001808a1b03871686520194871c1615158452604051948552516020850152516040840152600180851b0390511660608301525115156080820152f35b5034610396576020366003190112610396576001600160a01b03614a6a614b36565b16815261016860205260408120604051908160208254918281520190819285526020852090855b818110614ae85750505082614aa7910383614c88565b604051928392602084019060208552518091526040840192915b818110614acf575050500390f35b8251845285945060209384019390920191600101614ac1565b8254845260209093019260019283019201614a91565b905034610e81576020366003190112610e815760043563ffffffff60e01b8116809103610fed576301ffc9a760e01b14815260209150f35b600435906001600160a01b0382168203614b4c57565b600080fd5b602435906001600160a01b0382168203614b4c57565b604435906001600160a01b0382168203614b4c57565b906020808351928381520192019060005b818110614b9b5750505090565b825180516001600160a01b031685526020908101518186015260409094019390920191600101614b8e565b60005b838110614bd95750506000910152565b8181015183820152602001614bc9565b90602091614c0281518092818552858086019101614bc6565b601f01601f1916010190565b60a081019081106001600160401b03821117614c2957604052565b634e487b7160e01b600052604160045260246000fd5b60c081019081106001600160401b03821117614c2957604052565b606081019081106001600160401b03821117614c2957604052565b6001600160401b038111614c2957604052565b90601f801991011681019081106001600160401b03821117614c2957604052565b6001600160401b038111614c2957601f01601f191660200190565b929192614cd082614ca9565b91614cde6040519384614c88565b829481845281830111614b4c578281602093846000960137010152565b9080601f83011215614b4c57816020614d1693359101614cc4565b90565b34614b4c576000366003190112614b4c576033546040516001600160a01b039091168152602090f35b90600182811c92168015614d72575b6020831014614d5c57565b634e487b7160e01b600052602260045260246000fd5b91607f1691614d51565b604051906000826101935491614d9183614d42565b8083529260018116908115614e185750600114614db7575b614db592500383614c88565b565b50610193600090815290917ffc8af01f449989052b52093a58fc9f42d0b11f0c6dd5dca0463dab62346ccc685b818310614dfc575050906020614db592820101614da9565b6020919350806001915483858901015201910190918492614de4565b60209250614db594915060ff191682840152151560051b820101614da9565b9060c0600319830112614b4c576004359160243591604435916064356001600160a01b0381168103614b4c57916084356001600160a01b0381168103614b4c579160a435906001600160401b038211614b4c57614d1691600401614cfb565b60405190614ea382614c3f565b606060a083600081526000602082015282604082015282808201528260808201520152565b6020614ee1918160405193828580945193849201614bc6565b810161016581520301902090565b818110614efa575050565b60008155600101614eef565b9190601f8111614f1557505050565b614db5926000526020600020906020601f840160051c83019310614f41575b601f0160051c0190614eef565b9091508190614f34565b60405190614f5882614c3f565b600060a0838281528260208201528260408201526060808201528260808201520152565b91909182516001600160401b038111614c2957614fa381614f9d8454614d42565b84614f06565b6020601f8211600114614fdd5781929394600092614fd2575b50508160011b916000199060031b1c1916179055565b015190503880614fbc565b601f1982169083600052806000209160005b8181106150275750958360019596971061500e575b505050811b019055565b015160001960f88460031b161c19169055388080615004565b9192602060018192868b015181550194019201614fef565b61505790602060405192828480945193849201614bc6565b810103902090565b6001600160a01b038116600081815261016a602052604090205490919061509c5761508a915061518e565b61509357600090565b64174876e80090565b5060005261016a60205260406000205490565b600260fb54146150c057600260fb55565b60405162461bcd60e51b815260206004820152601f60248201527f5265656e7472616e637947756172643a207265656e7472616e742063616c6c006044820152606490fd5b60405190615114602083614c88565b60008083528290805b81811061512957505050565b6040519060408201918083106001600160401b03841117614c2957602092604052600081526000838201528282860101520161511d565b80548210156151785760005260206000200190600090565b634e487b7160e01b600052603260045260246000fd5b6001600160a01b03166000818152610164602052604090206003810154600019919060a01c60ff168061529e575b80615290575b615284575b5060005b60406000848152610168602052205481101561527e576151f8816040600086815261016860205220615160565b90549060031b1c604060008581526101676020522090600052602052604060002060ff600482015460a01c1680615271575b615238575b506001016151cb565b60030154600381101580615264575b8061525b575b1561522f579150600161522f565b5082811061524d565b5061016154811115615247565b506002810154151561522a565b50905090565b600291500154386151c7565b5060028082015411156151c2565b50600181015415156151bc565b610171546001600160a01b0316156152fc57610172546202a30081018082116152e6574210156152e0574290036202a3000190565b50600090565b634e487b7160e01b600052601160045260246000fd5b600090565b6000815115615412576101615415615403575060146101665410156153f25760209060405161535a838201835192615343868281880196610c7681878a614bc6565b519020938492604051809381928751928391614bc6565b81016101658152030190205561016654600160401b811015614c295780600161538a920161016655610166615160565b6153dc57816153ab600080516020615e16833981519152936153d093614f7c565b8360005261018760205260006040812055604051918291604083526040830190614be9565b8460208301520390a190565b634e487b7160e01b600052600060045260246000fd5b6353bb24f960e01b60005260046000fd5b6336939d7d60e21b8152600490fd5b636cc61e7360e11b8152600490fd5b80511561551757610161548015615506576001116154f55760146101665410156153f257602090604051615468838201835192615343868281880196610c7681878a614bc6565b81016101658152030190205561016654600160401b811015614c2957806001615498920161016655610166615160565b6153dc57816154b9600080516020615e16833981519152936153d093614f7c565b836000526101876020526001604060002055610162546001116154ea57604051918291604083526040830190614be9565b600161016255613d50565b630af469a960e31b60005260046000fd5b6336939d7d60e21b60005260046000fd5b636cc61e7360e11b60005260046000fd5b80511561551757610161548015615506576002116154f55760146101665410156153f25760209060405161556f838201835192615343868281880196610c7681878a614bc6565b81016101658152030190205561016654600160401b811015614c295780600161559f920161016655610166615160565b6153dc57816155c0600080516020615e16833981519152936153d093614f7c565b836000526101876020526002604060002055610162546002116155f157604051918291604083526040830190614be9565b600261016255613d50565b80511561551757610161548015615506576003116154f55760146101665410156153f257602090604051615643838201835192615343868281880196610c7681878a614bc6565b81016101658152030190205561016654600160401b811015614c2957806001615673920161016655610166615160565b6153dc5781615694600080516020615e16833981519152936153d093614f7c565b836000526101876020526003604060002055610162546003116156c557604051918291604083526040830190614be9565b600361016255613d50565b80511561551757610161548015615506576004116154f55760146101665410156153f257602090604051615717838201835192615343868281880196610c7681878a614bc6565b81016101658152030190205561016654600160401b811015614c2957806001615747920161016655610166615160565b6153dc5781615768600080516020615e16833981519152936153d093614f7c565b8360005261018760205260046040600020556101625460041161579957604051918291604083526040830190614be9565b600461016255613d50565b80511561551757610161548015615506576005116154f55760146101665410156153f2576020906040516157eb838201835192615343868281880196610c7681878a614bc6565b81016101658152030190205561016654600160401b811015614c295780600161581b920161016655610166615160565b6153dc578161583c600080516020615e16833981519152936153d093614f7c565b8360005261018760205260056040600020556101625460051161586d57604051918291604083526040830190614be9565b600561016255613d50565b803b156158e4577f360894a13ba1a3210667c828492db98dca3e2076cc3735a920a3ca505d382bbc80546001600160a01b0319166001600160a01b039290921691821790557fbc7cd75a20ee27fd9adebab32041f755214dbc6bffa90cc0225b39da2e5c2d3b600080a2565b60405162461bcd60e51b815260206004820152602d60248201527f455243313936373a206e657720696d706c656d656e746174696f6e206973206e60448201526c1bdd08184818dbdb9d1c9858dd609a1b6064820152608490fd5b1561594657565b60405162461bcd60e51b815260206004820152602b60248201527f496e697469616c697a61626c653a20636f6e7472616374206973206e6f74206960448201526a6e697469616c697a696e6760a81b6064820152608490fd5b60206159b8918160405193828580945193849201614bc6565b81016101658152030190205480156159dc5760005261018760205260406000205490565b5060001990565b90816020910312614b4c57518015158103614b4c5790565b9392909161016d54908181029181830414901517156152e6576127109004938415615b5d576001600160a01b0383169283158015615b55575b615b4457615a4490610160615deb565b15615b335761016c546001600160a01b0316908115615b22576001600160a01b031615615b11576040516323b872dd60e01b81526001600160a01b0390921660048301526024820152604481018490526020816064816000865af18015615b0557615ad8575b507fd9cdec5afc25f7ba2ee747f81cc783a02ebf349091c32d2709b2f81619f754096020604051858152a390565b615af99060203d602011615afe575b615af18183614c88565b8101906159e3565b615aaa565b503d615ae7565b6040513d6000823e3d90fd5b63e6c4247b60e01b60005260046000fd5b63af8c927d60e01b60005260046000fd5b636cb9962360e01b60005260046000fd5b63162908e360e11b60005260046000fd5b506000615a34565b5050505050600090565b60018060a01b0316600052610167602052604060002090600052602052604060002060ff600482015460a01c1680615bac575b615ba5575060001990565b6003015490565b5060028101541515615b9a565b603380546001600160a01b039283166001600160a01b0319821681179092559091167f8be0079c531659141344cd1fd0a4f28419497f9722a3daafe3b4186f6b6457e0600080a3565b60005b6101705480821015615ce257615c1d82610170615160565b905460039190911b1c6001600160a01b0390811690841614615c425750600101615c05565b615c999250615c5a615c759160001901610170615160565b905460039190911b1c6001600160a01b031691610170615160565b81546001600160a01b0393841660039290921b91821b9390911b1916919091179055565b610170548015615ccc5760001901615cb381610170615160565b81549060018060a01b039060031b1b1916905561017055565b634e487b7160e01b600052603160045260246000fd5b505050565b6001600160a01b031615908115615d11575b50615d0057565b63d92e233d60e01b60005260046000fd5b6001600160a01b031615905038615cf9565b3d15615d4e573d90615d3482614ca9565b91615d426040519384614c88565b82523d6000602084013e565b606090565b9060018060a01b03168060005261018f60205260406000208260005260205260ff6040600020541615615d84575050565b60406000828152610168602052208054600160401b811015614c2957615daf91600182018155615160565b81549060031b9084821b91600019901b191617905560005261018f6020526040600020906000526020526040600020600160ff19825416179055565b6001600160a01b03909116908115615e0e57600e01546001600160a01b03161490565b505060009056fee7f2ce811231737c7fa824ab7e10edafbd2c60dfa014137d276462c057da07baa2646970667358221220af84441eae0d25a9c4999dd95b34f02a55f9eda090f107232a44b1b9863ae8ba64736f6c634300081c0033",
  "linkReferences": {},
  "deployedLinkReferences": {}
}