{
  "_format": "hh-sol-artifact-1",
  "contractName": "WrappedUtilityToken",
  "sourceName": "contracts/modules/WrappedUtilityToken.sol",
  "abi": [
    {
      "inputs": [],
      "name": "CallerNotLaunchpadOwner",
      "type": "error"
    },
    {
      "inputs": [],
      "name": "LaunchpadNotConfigured",
      "type": "error"
    },
    {
      "inputs": [],
      "name": "NotAuthorized",
      "type": "error"
    },
    {
      "inputs": [],
      "name": "RenounceOwnershipDisabled",
      "type": "error"
    },
    {
      "inputs": [],
      "name": "TotalSupplyMustBeGreaterThanZero",
      "type": "error"
    },
    {
      "inputs": [],
      "name": "TransferOwnershipDirectDisabled",
      "type": "error"
    },
    {
      "inputs": [],
      "name": "UnauthorizedCaller",
      "type": "error"
    },
    {
      "inputs": [],
      "name": "UpgradeToAndCallDisabled",
      "type": "error"
    },
    {
      "inputs": [],
      "name": "ZeroAddress",
      "type": "error"
    },
    {
      "anonymous": false,
      "inputs": [
        {
          "indexed": false,
          "internalType": "address",
          "name": "previousAdmin",
          "type": "address"
        },
        {
          "indexed": false,
          "internalType": "address",
          "name": "newAdmin",
          "type": "address"
        }
      ],
      "name": "AdminChanged",
      "type": "event"
    },
    {
      "anonymous": false,
      "inputs": [
        {
          "indexed": true,
          "internalType": "address",
          "name": "owner",
          "type": "address"
        },
        {
          "indexed": true,
          "internalType": "address",
          "name": "spender",
          "type": "address"
        },
        {
          "indexed": false,
          "internalType": "uint256",
          "name": "value",
          "type": "uint256"
        }
      ],
      "name": "Approval",
      "type": "event"
    },
    {
      "anonymous": false,
      "inputs": [
        {
          "indexed": true,
          "internalType": "address",
          "name": "beacon",
          "type": "address"
        }
      ],
      "name": "BeaconUpgraded",
      "type": "event"
    },
    {
      "anonymous": false,
      "inputs": [
        {
          "indexed": false,
          "internalType": "uint8",
          "name": "version",
          "type": "uint8"
        }
      ],
      "name": "Initialized",
      "type": "event"
    },
    {
      "anonymous": false,
      "inputs": [
        {
          "indexed": true,
          "internalType": "address",
          "name": "to",
          "type": "address"
        },
        {
          "indexed": false,
          "internalType": "uint256",
          "name": "amount",
          "type": "uint256"
        }
      ],
      "name": "Minted",
      "type": "event"
    },
    {
      "anonymous": false,
      "inputs": [
        {
          "indexed": true,
          "internalType": "address",
          "name": "minter",
          "type": "address"
        },
        {
          "indexed": false,
          "internalType": "bool",
          "name": "allowed",
          "type": "bool"
        }
      ],
      "name": "MinterStatusChanged",
      "type": "event"
    },
    {
      "anonymous": false,
      "inputs": [
        {
          "indexed": true,
          "internalType": "address",
          "name": "previousOwner",
          "type": "address"
        },
        {
          "indexed": true,
          "internalType": "address",
          "name": "newOwner",
          "type": "address"
        }
      ],
      "name": "OwnershipTransferred",
      "type": "event"
    },
    {
      "anonymous": false,
      "inputs": [
        {
          "indexed": false,
          "internalType": "address",
          "name": "account",
          "type": "address"
        }
      ],
      "name": "Paused",
      "type": "event"
    },
    {
      "anonymous": false,
      "inputs": [
        {
          "indexed": true,
          "internalType": "address",
          "name": "from",
          "type": "address"
        },
        {
          "indexed": true,
          "internalType": "address",
          "name": "to",
          "type": "address"
        },
        {
          "indexed": false,
          "internalType": "uint256",
          "name": "value",
          "type": "uint256"
        }
      ],
      "name": "Transfer",
      "type": "event"
    },
    {
      "anonymous": false,
      "inputs": [
        {
          "indexed": false,
          "internalType": "address",
          "name": "account",
          "type": "address"
        }
      ],
      "name": "Unpaused",
      "type": "event"
    },
    {
      "anonymous": false,
      "inputs": [
        {
          "indexed": true,
          "internalType": "address",
          "name": "implementation",
          "type": "address"
        }
      ],
      "name": "Upgraded",
      "type": "event"
    },
    {
      "inputs": [
        {
          "internalType": "address",
          "name": "owner",
          "type": "address"
        },
        {
          "internalType": "address",
          "name": "spender",
          "type": "address"
        }
      ],
      "name": "allowance",
      "outputs": [
        {
          "internalType": "uint256",
          "name": "",
          "type": "uint256"
        }
      ],
      "stateMutability": "view",
      "type": "function"
    },
    {
      "inputs": [
        {
          "internalType": "address",
          "name": "",
          "type": "address"
        }
      ],
      "name": "allowedMinters",
      "outputs": [
        {
          "internalType": "bool",
          "name": "",
          "type": "bool"
        }
      ],
      "stateMutability": "view",
      "type": "function"
    },
    {
      "inputs": [
        {
          "internalType": "address",
          "name": "spender",
          "type": "address"
        },
        {
          "internalType": "uint256",
          "name": "amount",
          "type": "uint256"
        }
      ],
      "name": "approve",
      "outputs": [
        {
          "internalType": "bool",
          "name": "",
          "type": "bool"
        }
      ],
      "stateMutability": "nonpayable",
      "type": "function"
    },
    {
      "inputs": [
        {
          "internalType": "address",
          "name": "account",
          "type": "address"
        }
      ],
      "name": "balanceOf",
      "outputs": [
        {
          "internalType": "uint256",
          "name": "",
          "type": "uint256"
        }
      ],
      "stateMutability": "view",
      "type": "function"
    },
    {
      "inputs": [],
      "name": "companyId",
      "outputs": [
        {
          "internalType": "uint256",
          "name": "",
          "type": "uint256"
        }
      ],
      "stateMutability": "view",
      "type": "function"
    },
    {
      "inputs": [],
      "name": "daoTransitionTimestamp",
      "outputs": [
        {
          "internalType": "uint256",
          "name": "",
          "type": "uint256"
        }
      ],
      "stateMutability": "view",
      "type": "function"
    },
    {
      "inputs": [],
      "name": "decimals",
      "outputs": [
        {
          "internalType": "uint8",
          "name": "",
          "type": "uint8"
        }
      ],
      "stateMutability": "view",
      "type": "function"
    },
    {
      "inputs": [
        {
          "internalType": "address",
          "name": "spender",
          "type": "address"
        },
        {
          "internalType": "uint256",
          "name": "subtractedValue",
          "type": "uint256"
        }
      ],
      "name": "decreaseAllowance",
      "outputs": [
        {
          "internalType": "bool",
          "name": "",
          "type": "bool"
        }
      ],
      "stateMutability": "nonpayable",
      "type": "function"
    },
    {
      "inputs": [],
      "name": "getAdminRole",
      "outputs": [
        {
          "internalType": "bytes32",
          "name": "",
          "type": "bytes32"
        }
      ],
      "stateMutability": "view",
      "type": "function"
    },
    {
      "inputs": [],
      "name": "getLaunchpadAddress",
      "outputs": [
        {
          "internalType": "address",
          "name": "",
          "type": "address"
        }
      ],
      "stateMutability": "view",
      "type": "function"
    },
    {
      "inputs": [],
      "name": "getMyAddress",
      "outputs": [
        {
          "internalType": "address",
          "name": "",
          "type": "address"
        }
      ],
      "stateMutability": "view",
      "type": "function"
    },
    {
      "inputs": [],
      "name": "getOwner",
      "outputs": [
        {
          "internalType": "address",
          "name": "",
          "type": "address"
        }
      ],
      "stateMutability": "view",
      "type": "function"
    },
    {
      "inputs": [
        {
          "internalType": "address",
          "name": "spender",
          "type": "address"
        },
        {
          "internalType": "uint256",
          "name": "addedValue",
          "type": "uint256"
        }
      ],
      "name": "increaseAllowance",
      "outputs": [
        {
          "internalType": "bool",
          "name": "",
          "type": "bool"
        }
      ],
      "stateMutability": "nonpayable",
      "type": "function"
    },
    {
      "inputs": [
        {
          "internalType": "string",
          "name": "name",
          "type": "string"
        },
        {
          "internalType": "string",
          "name": "symbol",
          "type": "string"
        },
        {
          "internalType": "address",
          "name": "_stakingMultiToken",
          "type": "address"
        },
        {
          "internalType": "address",
          "name": "_multiToken",
          "type": "address"
        },
        {
          "internalType": "uint256",
          "name": "_companyId",
          "type": "uint256"
        }
      ],
      "name": "initialize",
      "outputs": [],
      "stateMutability": "nonpayable",
      "type": "function"
    },
    {
      "inputs": [
        {
          "internalType": "address",
          "name": "to",
          "type": "address"
        },
        {
          "internalType": "uint256",
          "name": "amount",
          "type": "uint256"
        }
      ],
      "name": "mint",
      "outputs": [],
      "stateMutability": "nonpayable",
      "type": "function"
    },
    {
      "inputs": [],
      "name": "multiToken",
      "outputs": [
        {
          "internalType": "address",
          "name": "",
          "type": "address"
        }
      ],
      "stateMutability": "view",
      "type": "function"
    },
    {
      "inputs": [],
      "name": "name",
      "outputs": [
        {
          "internalType": "string",
          "name": "",
          "type": "string"
        }
      ],
      "stateMutability": "view",
      "type": "function"
    },
    {
      "inputs": [],
      "name": "owner",
      "outputs": [
        {
          "internalType": "address",
          "name": "",
          "type": "address"
        }
      ],
      "stateMutability": "view",
      "type": "function"
    },
    {
      "inputs": [],
      "name": "pause",
      "outputs": [],
      "stateMutability": "nonpayable",
      "type": "function"
    },
    {
      "inputs": [],
      "name": "paused",
      "outputs": [
        {
          "internalType": "bool",
          "name": "",
          "type": "bool"
        }
      ],
      "stateMutability": "view",
      "type": "function"
    },
    {
      "inputs": [],
      "name": "proxiableUUID",
      "outputs": [
        {
          "internalType": "bytes32",
          "name": "",
          "type": "bytes32"
        }
      ],
      "stateMutability": "view",
      "type": "function"
    },
    {
      "inputs": [],
      "name": "renounceOwnership",
      "outputs": [],
      "stateMutability": "nonpayable",
      "type": "function"
    },
    {
      "inputs": [
        {
          "internalType": "address",
          "name": "minter",
          "type": "address"
        },
        {
          "internalType": "bool",
          "name": "allowed",
          "type": "bool"
        }
      ],
      "name": "setAllowedMinter",
      "outputs": [],
      "stateMutability": "nonpayable",
      "type": "function"
    },
    {
      "inputs": [],
      "name": "stakingMultiToken",
      "outputs": [
        {
          "internalType": "address",
          "name": "",
          "type": "address"
        }
      ],
      "stateMutability": "view",
      "type": "function"
    },
    {
      "inputs": [
        {
          "internalType": "bytes4",
          "name": "interfaceId",
          "type": "bytes4"
        }
      ],
      "name": "supportsInterface",
      "outputs": [
        {
          "internalType": "bool",
          "name": "",
          "type": "bool"
        }
      ],
      "stateMutability": "view",
      "type": "function"
    },
    {
      "inputs": [],
      "name": "symbol",
      "outputs": [
        {
          "internalType": "string",
          "name": "",
          "type": "string"
        }
      ],
      "stateMutability": "view",
      "type": "function"
    },
    {
      "inputs": [],
      "name": "totalSupply",
      "outputs": [
        {
          "internalType": "uint256",
          "name": "",
          "type": "uint256"
        }
      ],
      "stateMutability": "view",
      "type": "function"
    },
    {
      "inputs": [
        {
          "internalType": "address",
          "name": "to",
          "type": "address"
        },
        {
          "internalType": "uint256",
          "name": "amount",
          "type": "uint256"
        }
      ],
      "name": "transfer",
      "outputs": [
        {
          "internalType": "bool",
          "name": "",
          "type": "bool"
        }
      ],
      "stateMutability": "nonpayable",
      "type": "function"
    },
    {
      "inputs": [
        {
          "internalType": "address",
          "name": "from",
          "type": "address"
        },
        {
          "internalType": "address",
          "name": "to",
          "type": "address"
        },
        {
          "internalType": "uint256",
          "name": "amount",
          "type": "uint256"
        }
      ],
      "name": "transferFrom",
      "outputs": [
        {
          "internalType": "bool",
          "name": "",
          "type": "bool"
        }
      ],
      "stateMutability": "nonpayable",
      "type": "function"
    },
    {
      "inputs": [
        {
          "internalType": "address",
          "name": "",
          "type": "address"
        }
      ],
      "name": "transferOwnership",
      "outputs": [],
      "stateMutability": "nonpayable",
      "type": "function"
    },
    {
      "inputs": [],
      "name": "unpause",
      "outputs": [],
      "stateMutability": "nonpayable",
      "type": "function"
    },
    {
      "inputs": [],
      "name": "updateOwnerFromLaunchpad",
      "outputs": [],
      "stateMutability": "nonpayable",
      "type": "function"
    },
    {
      "inputs": [
        {
          "internalType": "address",
          "name": "newImplementation",
          "type": "address"
        }
      ],
      "name": "upgradeTo",
      "outputs": [],
      "stateMutability": "nonpayable",
      "type": "function"
    },
    {
      "inputs": [
        {
          "internalType": "address",
          "name": "",
          "type": "address"
        },
        {
          "internalType": "bytes",
          "name": "",
          "type": "bytes"
        }
      ],
      "name": "upgradeToAndCall",
      "outputs": [],
      "stateMutability": "payable",
      "type": "function"
    }
  ],
  "bytecode": "0x60a080604052346022573060805261190b9081610028823960805181610cbb0152f35b600080fdfe608080604052600436101561001357600080fd5b60003560e01c90816301ffc9a71461131b5750806306fdde0314611284578063095ea7b31461125e57806311f101161461123457806318160ddd146112165780631904e5c9146111ec57806323b872dd1461112d578063313ce567146111115780633659cfe61461100a5780633950935114610fb85780633f4ba83a14610f1357806340c10f1914610e1e578063423afa6614610dde5780634f1ef28614610d7e57806352d1902d14610ca85780635c975abb14610c855780636af9c20514610bb757806370a0823114610b7d578063715018a614610b5357806374ced87014610b345780637bc3a73314610b155780638456cb5914610a91578063850bcab914610974578063893d20e81461094b5780638da5cb5b1461094b57806395d89b411461087f5780639a16629914610864578063a457c2d7146107bd578063a9059cbb1461078c578063b3ecf23614610751578063c9aba0aa14610248578063dd62ed3e146101f7578063f2fde38b146101c45763f71466411461019557600080fd5b346101bf5760003660031901126101bf57610194546040516001600160a01b039091168152602090f35b600080fd5b346101bf5760203660031901126101bf576101dd61139a565b506101e6611750565b635a42e44960e01b60005260046000fd5b346101bf5760403660031901126101bf5761021061139a565b6102186113b0565b6001600160a01b039182166000908152603460209081526040808320949093168252928352819020549051908152f35b346101bf5760a03660031901126101bf5760043567ffffffffffffffff81116101bf5761027990369060040161142f565b60243567ffffffffffffffff81116101bf5761029990369060040161142f565b906044356001600160a01b0381168082036101bf576064356001600160a01b03811691908290036101bf576000549360ff8560081c161594858096610744575b801561072d575b156106d15760ff198116600117600055856106bf575b50811580156106b7575b6106a65761031e60ff60005460081c1661031981611835565b611835565b80519067ffffffffffffffff821161059a57819061033d60365461144d565b601f811161062f575b50602090601f83116001146105bb576000926105b0575b50508160011b916000199060031b1c1916176036555b84519467ffffffffffffffff861161059a5761039060375461144d565b601f811161052d575b50602090601f87116001146104b55795809161046c96976000926104aa575b50508160011b916000199060031b1c1916176037555b6103ec60ff60005460081c166103e381611835565b61031981611835565b6103f5336117ec565b61042660ff60005460081c1661040a81611835565b61041381611835565b60ff1960fb541660fb5561031981611835565b600161012d556bffffffffffffffffffffffff60a01b610194541617610194556bffffffffffffffffffffffff60a01b61019554161761019555608435610196556117ec565b61047257005b61ff0019600054166000557f7f26b83ff96e1f2b6a682f133852f6798a09c465da95921460cefb3847402498602060405160018152a1005b0151905087806103b8565b90601f1987169160376000526000805160206118b68339815191529260005b818110610515575091600193918961046c999a94106104fc575b505050811b016037556103ce565b015160001960f88460031b161c191690558780806104ee565b929360206001819287860151815501950193016104d4565b6037600052601f870160051c6000805160206118b6833981519152019060208810610584575b601f0160051c6000805160206118b683398151915201905b8181106105785750610399565b6000815560010161056b565b6000805160206118b68339815191529150610553565b634e487b7160e01b600052604160045260246000fd5b01519050878061035d565b603660009081526000805160206118968339815191529350601f198516905b81811061061757509084600195949392106105fe575b505050811b01603655610373565b015160001960f88460031b161c191690558780806105f0565b929360206001819287860151815501950193016105da565b9091506036600052601f830160051c600080516020611896833981519152019060208410610690575b90601f8493920160051c60008051602061189683398151915201905b8181106106815750610346565b60008155849350600101610674565b6000805160206118968339815191529150610658565b63d92e233d60e01b60005260046000fd5b508215610300565b61ffff191661010117600055866102f6565b60405162461bcd60e51b815260206004820152602e60248201527f496e697469616c697a61626c653a20636f6e747261637420697320616c72656160448201526d191e481a5b9a5d1a585b1a5e995960921b6064820152608490fd5b50303b1580156102e05750600160ff8216146102e0565b50600160ff8216106102d9565b346101bf5760003660031901126101bf5760206040517fa36640f9c3d74ee87c99b3aee39f32849dda077410057abc393a2cb9e13139a78152f35b346101bf5760403660031901126101bf576107b26107a861139a565b60243590336115d1565b602060405160018152f35b346101bf5760403660031901126101bf576107d661139a565b60243590336000526034602052604060002060018060a01b03821660005260205260406000205491808310610811576107b2920390336114c9565b60405162461bcd60e51b815260206004820152602560248201527f45524332303a2064656372656173656420616c6c6f77616e63652062656c6f77604482015264207a65726f60d81b6064820152608490fd5b346101bf5760003660031901126101bf576020604051308152f35b346101bf5760003660031901126101bf5760405160006037546108a18161144d565b808452906001811690811561092757506001146108d9575b6108d5836108c9818503826113c6565b60405191829182611351565b0390f35b91905060376000526000805160206118b6833981519152916000905b80821061090d575090915081016020016108c96108b9565b9192600181602092548385880101520191019092916108f5565b60ff191660208086019190915291151560051b840190910191506108c990506108b9565b346101bf5760003660031901126101bf576065546040516001600160a01b039091168152602090f35b346101bf5760003660031901126101bf5761098d6117a8565b610995611750565b610192546001600160a01b03168015610a805760405163c696804f60e01b8152602081600481855afa908115610a4457600091610a61575b506001600160a01b03163303610a505760206004916040519283809263c696804f60e01b82525afa8015610a4457610a0d91600091610a15575b506117ec565b600161012d55005b610a37915060203d602011610a3d575b610a2f81836113c6565b8101906114aa565b82610a07565b503d610a25565b6040513d6000823e3d90fd5b632508892760e11b60005260046000fd5b610a7a915060203d602011610a3d57610a2f81836113c6565b826109cd565b6336939d7d60e21b60005260046000fd5b346101bf5760003660031901126101bf57610aaa6117a8565b610192546001600160a01b03168015610a80573303610b0457610acb6117a8565b600160ff1960fb54161760fb557f62e78cea01bee320cd4e420270b5ea74000d11b0c9f74754ebdbfc544b05a2586020604051338152a1005b635c427cd960e01b60005260046000fd5b346101bf5760003660031901126101bf57602061019654604051908152f35b346101bf5760003660031901126101bf57602061019154604051908152f35b346101bf5760003660031901126101bf57610b6c611750565b63ffc0fd9360e01b60005260046000fd5b346101bf5760203660031901126101bf576001600160a01b03610b9e61139a565b1660005260336020526020604060002054604051908152f35b346101bf5760403660031901126101bf57610bd061139a565b602435908115158092036101bf576065546001600160a01b03163303610c415760207f3042b80e435ae46c334b2cfec51a66d64c9a8a8af4cd0c279a124c35a09e91dd9160018060a01b031692836000526101978252604060002060ff1981541660ff8316179055604051908152a2005b606460405162461bcd60e51b815260206004820152602060248201527f4f776e61626c653a2063616c6c6572206973206e6f7420746865206f776e65726044820152fd5b346101bf5760003660031901126101bf57602060ff60fb54166040519015158152f35b346101bf5760003660031901126101bf577f00000000000000000000000000000000000000000000000000000000000000006001600160a01b03163003610d135760206040517f360894a13ba1a3210667c828492db98dca3e2076cc3735a920a3ca505d382bbc8152f35b60405162461bcd60e51b815260206004820152603860248201527f555550535570677261646561626c653a206d757374206e6f742062652063616c60448201527f6c6564207468726f7567682064656c656761746563616c6c00000000000000006064820152608490fd5b60403660031901126101bf57610d9261139a565b5060243567ffffffffffffffff81116101bf57366023820112156101bf57610dc49036906024816004013591016113e8565b50610dcd611750565b630c5e6cd360e21b60005260046000fd5b346101bf5760203660031901126101bf576001600160a01b03610dff61139a565b16600052610197602052602060ff604060002054166040519015158152f35b346101bf5760403660031901126101bf57610e3761139a565b60243590610e43611750565b3360005261019760205260ff6040600020541615610f02576001600160a01b031680156106a6578115610ef1577f30385c845b448a36257a6a1716e6ad2e1bc2cbe333cde1e69fe849ad6511adfe6020600093610ea281603554611487565b603555838552603382526040852081815401905583857fddf252ad1be2c89b69c2b068fc378daa952ba7f163c4a11628f55a4df523b3ef84604051858152a3604051908152a2600161012d5580f35b635c54f7ff60e11b60005260046000fd5b63ea8e4eb560e01b60005260046000fd5b346101bf5760003660031901126101bf57610192546001600160a01b03168015610a80573303610b045760fb5460ff811615610f7c5760ff191660fb557f5db9ee0a495bf2e6ff9c91a7834c1ba4fdd244a5e8aa4e537bd38aeae4b073aa6020604051338152a1005b60405162461bcd60e51b815260206004820152601460248201527314185d5cd8589b194e881b9bdd081c185d5cd95960621b6044820152606490fd5b346101bf5760403660031901126101bf576107b2610fd461139a565b336000526034602052604060002060018060a01b03821660005260205261100360406000206024359054611487565b90336114c9565b346101bf5760203660031901126101bf5761102361139a565b61102b611750565b610192546001600160a01b03168015610a80573303610b0457803b156110b6577f360894a13ba1a3210667c828492db98dca3e2076cc3735a920a3ca505d382bbc80546001600160a01b0319166001600160a01b039290921691821790557fbc7cd75a20ee27fd9adebab32041f755214dbc6bffa90cc0225b39da2e5c2d3b600080a2600161012d55005b60405162461bcd60e51b815260206004820152602d60248201527f455243313936373a206e657720696d706c656d656e746174696f6e206973206e60448201526c1bdd08184818dbdb9d1c9858dd609a1b6064820152608490fd5b346101bf5760003660031901126101bf57602060405160128152f35b346101bf5760603660031901126101bf5761114661139a565b61114e6113b0565b6001600160a01b03821660009081526034602090815260408083203384529091529020549160443591906001840161118b575b6107b293506115d1565b8284106111a7576111a2836107b2950333836114c9565b611181565b60405162461bcd60e51b815260206004820152601d60248201527f45524332303a20696e73756666696369656e7420616c6c6f77616e63650000006044820152606490fd5b346101bf5760003660031901126101bf57610195546040516001600160a01b039091168152602090f35b346101bf5760003660031901126101bf576020603554604051908152f35b346101bf5760003660031901126101bf57610192546040516001600160a01b039091168152602090f35b346101bf5760403660031901126101bf576107b261127a61139a565b60243590336114c9565b346101bf5760003660031901126101bf5760405160006036546112a68161144d565b808452906001811690811561092757506001146112cd576108d5836108c9818503826113c6565b9190506036600052600080516020611896833981519152916000905b808210611301575090915081016020016108c96108b9565b9192600181602092548385880101520191019092916112e9565b346101bf5760203660031901126101bf576004359063ffffffff60e01b82168092036101bf576020916301ffc9a760e01b148152f35b91909160208152825180602083015260005b818110611384575060409293506000838284010152601f8019910116010190565b8060208092870101516040828601015201611363565b600435906001600160a01b03821682036101bf57565b602435906001600160a01b03821682036101bf57565b90601f8019910116810190811067ffffffffffffffff82111761059a57604052565b92919267ffffffffffffffff821161059a5760405191611412601f8201601f1916602001846113c6565b8294818452818301116101bf578281602093846000960137010152565b9080601f830112156101bf5781602061144a933591016113e8565b90565b90600182811c9216801561147d575b602083101461146757565b634e487b7160e01b600052602260045260246000fd5b91607f169161145c565b9190820180921161149457565b634e487b7160e01b600052601160045260246000fd5b908160209103126101bf57516001600160a01b03811681036101bf5790565b6001600160a01b0316908115611580576001600160a01b03169182156115305760207f8c5be1e5ebec7d5bd14f71427d1e84f3dd0314c0f7b2291e5b200ac8c7c3b925918360005260348252604060002085600052825280604060002055604051908152a3565b60405162461bcd60e51b815260206004820152602260248201527f45524332303a20617070726f766520746f20746865207a65726f206164647265604482015261737360f01b6064820152608490fd5b60405162461bcd60e51b8152602060048201526024808201527f45524332303a20617070726f76652066726f6d20746865207a65726f206164646044820152637265737360e01b6064820152608490fd5b6001600160a01b03169081156116fd576001600160a01b03169182156116ac5781600052603360205260406000205481811061165857817fddf252ad1be2c89b69c2b068fc378daa952ba7f163c4a11628f55a4df523b3ef9260209285600052603384520360406000205584600052603382526040600020818154019055604051908152a3565b60405162461bcd60e51b815260206004820152602660248201527f45524332303a207472616e7366657220616d6f756e7420657863656564732062604482015265616c616e636560d01b6064820152608490fd5b60405162461bcd60e51b815260206004820152602360248201527f45524332303a207472616e7366657220746f20746865207a65726f206164647260448201526265737360e81b6064820152608490fd5b60405162461bcd60e51b815260206004820152602560248201527f45524332303a207472616e736665722066726f6d20746865207a65726f206164604482015264647265737360d81b6064820152608490fd5b600261012d541461176357600261012d55565b60405162461bcd60e51b815260206004820152601f60248201527f5265656e7472616e637947756172643a207265656e7472616e742063616c6c006044820152606490fd5b60ff60fb54166117b457565b60405162461bcd60e51b815260206004820152601060248201526f14185d5cd8589b194e881c185d5cd95960821b6044820152606490fd5b606580546001600160a01b039283166001600160a01b0319821681179092559091167f8be0079c531659141344cd1fd0a4f28419497f9722a3daafe3b4186f6b6457e0600080a3565b1561183c57565b60405162461bcd60e51b815260206004820152602b60248201527f496e697469616c697a61626c653a20636f6e7472616374206973206e6f74206960448201526a6e697469616c697a696e6760a81b6064820152608490fdfe4a11f94e20a93c79f6ec743a1954ec4fc2c08429ae2122118bf234b2185c81b842a7b7dd785cd69714a189dffb3fd7d7174edc9ece837694ce50f7078f7c31aea26469706673582212205c07573bca75525b0d35417e1f01f42673a66a77e6af8b59c96e9eb7d9f4e3cb64736f6c634300081c0033",
  "linkReferences": {},
  "deployedLinkReferences": {}
}