{
  "_format": "hh-sol-artifact-1",
  "contractName": "VanellixCompanyMultiToken",
  "sourceName": "contracts/modules/VanellixCompanyMultiToken.sol",
  "abi": [
    {
      "inputs": [
        {
          "internalType": "address",
          "name": "sender",
          "type": "address"
        }
      ],
      "name": "AccountHasGlobalRole",
      "type": "error"
    },
    {
      "inputs": [
        {
          "internalType": "uint256",
          "name": "companyId",
          "type": "uint256"
        }
      ],
      "name": "AtLeastOneSocialRequired",
      "type": "error"
    },
    {
      "inputs": [],
      "name": "CallerNotLaunchpadOwner",
      "type": "error"
    },
    {
      "inputs": [
        {
          "internalType": "address",
          "name": "sender",
          "type": "address"
        }
      ],
      "name": "CallerNotLaunchpadOwnerCompany",
      "type": "error"
    },
    {
      "inputs": [
        {
          "internalType": "uint256",
          "name": "companyId",
          "type": "uint256"
        }
      ],
      "name": "CompanyAddressRequired",
      "type": "error"
    },
    {
      "inputs": [
        {
          "internalType": "uint256",
          "name": "companyId",
          "type": "uint256"
        }
      ],
      "name": "CompanyAlreadyRegistered",
      "type": "error"
    },
    {
      "inputs": [
        {
          "internalType": "uint256",
          "name": "companyId",
          "type": "uint256"
        }
      ],
      "name": "CompanyCountryRequired",
      "type": "error"
    },
    {
      "inputs": [
        {
          "internalType": "uint256",
          "name": "companyId",
          "type": "uint256"
        }
      ],
      "name": "CompanyDINRequired",
      "type": "error"
    },
    {
      "inputs": [
        {
          "internalType": "uint256",
          "name": "companyId",
          "type": "uint256"
        }
      ],
      "name": "CompanyIsActive",
      "type": "error"
    },
    {
      "inputs": [
        {
          "internalType": "uint256",
          "name": "companyId",
          "type": "uint256"
        }
      ],
      "name": "CompanyNameRequired",
      "type": "error"
    },
    {
      "inputs": [
        {
          "internalType": "uint256",
          "name": "companyId",
          "type": "uint256"
        }
      ],
      "name": "CompanyNotActive",
      "type": "error"
    },
    {
      "inputs": [
        {
          "internalType": "uint256",
          "name": "companyId",
          "type": "uint256"
        }
      ],
      "name": "DaoAlreadySet",
      "type": "error"
    },
    {
      "inputs": [
        {
          "internalType": "address",
          "name": "sender",
          "type": "address"
        }
      ],
      "name": "DaoTransitionAlreadyStarted",
      "type": "error"
    },
    {
      "inputs": [
        {
          "internalType": "address",
          "name": "sender",
          "type": "address"
        }
      ],
      "name": "InsufficientPermission",
      "type": "error"
    },
    {
      "inputs": [
        {
          "internalType": "uint256",
          "name": "companyId",
          "type": "uint256"
        }
      ],
      "name": "InvalidCompanyId",
      "type": "error"
    },
    {
      "inputs": [
        {
          "internalType": "uint256",
          "name": "roleLevel",
          "type": "uint256"
        }
      ],
      "name": "InvalidCompanyRoleLevel",
      "type": "error"
    },
    {
      "inputs": [
        {
          "internalType": "address",
          "name": "sender",
          "type": "address"
        }
      ],
      "name": "InvalidContractAddress",
      "type": "error"
    },
    {
      "inputs": [
        {
          "internalType": "address",
          "name": "sender",
          "type": "address"
        }
      ],
      "name": "InvalidTokenData",
      "type": "error"
    },
    {
      "inputs": [
        {
          "internalType": "uint256",
          "name": "tokenId",
          "type": "uint256"
        }
      ],
      "name": "InvalidTokenId",
      "type": "error"
    },
    {
      "inputs": [],
      "name": "LaunchpadNotConfigured",
      "type": "error"
    },
    {
      "inputs": [
        {
          "internalType": "address",
          "name": "sender",
          "type": "address"
        }
      ],
      "name": "LaunchpadNotConfigured",
      "type": "error"
    },
    {
      "inputs": [],
      "name": "MaxCompaniesReached",
      "type": "error"
    },
    {
      "inputs": [
        {
          "internalType": "uint256",
          "name": "requiredPercentage",
          "type": "uint256"
        }
      ],
      "name": "MaximumLiquidityPercentageRequired",
      "type": "error"
    },
    {
      "inputs": [
        {
          "internalType": "uint256",
          "name": "requiredPercentage",
          "type": "uint256"
        }
      ],
      "name": "MinimumLiquidityPercentageRequired",
      "type": "error"
    },
    {
      "inputs": [
        {
          "internalType": "address",
          "name": "sender",
          "type": "address"
        }
      ],
      "name": "NotAuthorized",
      "type": "error"
    },
    {
      "inputs": [
        {
          "internalType": "address",
          "name": "sender",
          "type": "address"
        },
        {
          "internalType": "uint256",
          "name": "companyId",
          "type": "uint256"
        }
      ],
      "name": "NotAuthorizedCaller",
      "type": "error"
    },
    {
      "inputs": [
        {
          "internalType": "address",
          "name": "sender",
          "type": "address"
        },
        {
          "internalType": "uint256",
          "name": "companyId",
          "type": "uint256"
        }
      ],
      "name": "NotAuthorizedCompany",
      "type": "error"
    },
    {
      "inputs": [
        {
          "internalType": "address",
          "name": "sender",
          "type": "address"
        }
      ],
      "name": "NotAuthorizedForCompanyRegistration",
      "type": "error"
    },
    {
      "inputs": [
        {
          "internalType": "address",
          "name": "sender",
          "type": "address"
        },
        {
          "internalType": "uint256",
          "name": "companyId",
          "type": "uint256"
        }
      ],
      "name": "NotCompanyDao",
      "type": "error"
    },
    {
      "inputs": [
        {
          "internalType": "address",
          "name": "sender",
          "type": "address"
        },
        {
          "internalType": "uint256",
          "name": "companyId",
          "type": "uint256"
        }
      ],
      "name": "NotCompanyMember",
      "type": "error"
    },
    {
      "inputs": [
        {
          "internalType": "address",
          "name": "sender",
          "type": "address"
        },
        {
          "internalType": "uint256",
          "name": "companyId",
          "type": "uint256"
        }
      ],
      "name": "NotCompanyOwner",
      "type": "error"
    },
    {
      "inputs": [
        {
          "internalType": "address",
          "name": "sender",
          "type": "address"
        }
      ],
      "name": "NotLaunchpadOwner",
      "type": "error"
    },
    {
      "inputs": [
        {
          "internalType": "address",
          "name": "sender",
          "type": "address"
        }
      ],
      "name": "NotOwnerNorAdmin",
      "type": "error"
    },
    {
      "inputs": [
        {
          "internalType": "uint256",
          "name": "companyId",
          "type": "uint256"
        }
      ],
      "name": "NotRegisteredCompany",
      "type": "error"
    },
    {
      "inputs": [
        {
          "internalType": "address",
          "name": "sender",
          "type": "address"
        }
      ],
      "name": "OnlyConsiglioOrGlobalAdmin",
      "type": "error"
    },
    {
      "inputs": [],
      "name": "RenounceOwnershipDisabled",
      "type": "error"
    },
    {
      "inputs": [
        {
          "internalType": "address",
          "name": "user",
          "type": "address"
        }
      ],
      "name": "RoleAssignmentFailed",
      "type": "error"
    },
    {
      "inputs": [
        {
          "internalType": "string",
          "name": "role",
          "type": "string"
        }
      ],
      "name": "RoleDoesNotExist",
      "type": "error"
    },
    {
      "inputs": [],
      "name": "RoleRequired",
      "type": "error"
    },
    {
      "inputs": [
        {
          "internalType": "address",
          "name": "sender",
          "type": "address"
        }
      ],
      "name": "SameAdrressError",
      "type": "error"
    },
    {
      "inputs": [
        {
          "internalType": "uint256",
          "name": "companyId",
          "type": "uint256"
        }
      ],
      "name": "SocialNameRequired",
      "type": "error"
    },
    {
      "inputs": [
        {
          "internalType": "uint256",
          "name": "companyId",
          "type": "uint256"
        }
      ],
      "name": "SocialUrlRequired",
      "type": "error"
    },
    {
      "inputs": [
        {
          "internalType": "uint256",
          "name": "companyId",
          "type": "uint256"
        }
      ],
      "name": "TokenAlreadyFinalized",
      "type": "error"
    },
    {
      "inputs": [
        {
          "internalType": "uint256",
          "name": "companyId",
          "type": "uint256"
        }
      ],
      "name": "TokenNotFizalized",
      "type": "error"
    },
    {
      "inputs": [],
      "name": "TransferOwnershipDirectDisabled",
      "type": "error"
    },
    {
      "inputs": [],
      "name": "UnauthorizedCaller",
      "type": "error"
    },
    {
      "inputs": [],
      "name": "UpgradeToAndCallDisabled",
      "type": "error"
    },
    {
      "inputs": [
        {
          "internalType": "address",
          "name": "user",
          "type": "address"
        }
      ],
      "name": "UserNotAllowedToJoinCompany",
      "type": "error"
    },
    {
      "inputs": [
        {
          "internalType": "address",
          "name": "user",
          "type": "address"
        },
        {
          "internalType": "uint256",
          "name": "companyId",
          "type": "uint256"
        }
      ],
      "name": "UserNotRegistered",
      "type": "error"
    },
    {
      "inputs": [
        {
          "internalType": "address",
          "name": "wallet",
          "type": "address"
        }
      ],
      "name": "WalletAlreadyAssociated",
      "type": "error"
    },
    {
      "inputs": [
        {
          "internalType": "uint256",
          "name": "companyId",
          "type": "uint256"
        }
      ],
      "name": "WebpageRequired",
      "type": "error"
    },
    {
      "inputs": [
        {
          "internalType": "address",
          "name": "sender",
          "type": "address"
        }
      ],
      "name": "ZeroAddress",
      "type": "error"
    },
    {
      "anonymous": false,
      "inputs": [
        {
          "indexed": false,
          "internalType": "address",
          "name": "previousAdmin",
          "type": "address"
        },
        {
          "indexed": false,
          "internalType": "address",
          "name": "newAdmin",
          "type": "address"
        }
      ],
      "name": "AdminChanged",
      "type": "event"
    },
    {
      "anonymous": false,
      "inputs": [
        {
          "indexed": true,
          "internalType": "address",
          "name": "beacon",
          "type": "address"
        }
      ],
      "name": "BeaconUpgraded",
      "type": "event"
    },
    {
      "anonymous": false,
      "inputs": [
        {
          "indexed": true,
          "internalType": "address",
          "name": "owner",
          "type": "address"
        },
        {
          "indexed": false,
          "internalType": "uint256",
          "name": "companyId",
          "type": "uint256"
        },
        {
          "indexed": false,
          "internalType": "string",
          "name": "name",
          "type": "string"
        },
        {
          "indexed": false,
          "internalType": "address",
          "name": "daoAddress",
          "type": "address"
        },
        {
          "indexed": false,
          "internalType": "uint256",
          "name": "transitionTimestamp",
          "type": "uint256"
        }
      ],
      "name": "CompanyActivated",
      "type": "event"
    },
    {
      "anonymous": false,
      "inputs": [
        {
          "indexed": true,
          "internalType": "address",
          "name": "oldOwner",
          "type": "address"
        },
        {
          "indexed": true,
          "internalType": "address",
          "name": "newOwner",
          "type": "address"
        },
        {
          "indexed": false,
          "internalType": "uint256",
          "name": "companyId",
          "type": "uint256"
        }
      ],
      "name": "CompanyOwnerChanged",
      "type": "event"
    },
    {
      "anonymous": false,
      "inputs": [
        {
          "indexed": true,
          "internalType": "address",
          "name": "owner",
          "type": "address"
        },
        {
          "indexed": false,
          "internalType": "uint256",
          "name": "companyId",
          "type": "uint256"
        },
        {
          "indexed": false,
          "internalType": "string",
          "name": "name",
          "type": "string"
        },
        {
          "indexed": false,
          "internalType": "string",
          "name": "din",
          "type": "string"
        },
        {
          "indexed": false,
          "internalType": "string",
          "name": "companyAddress",
          "type": "string"
        },
        {
          "indexed": false,
          "internalType": "string",
          "name": "country",
          "type": "string"
        }
      ],
      "name": "CompanyRegistered",
      "type": "event"
    },
    {
      "anonymous": false,
      "inputs": [
        {
          "indexed": true,
          "internalType": "uint256",
          "name": "companyId",
          "type": "uint256"
        },
        {
          "indexed": false,
          "internalType": "address",
          "name": "oldDaoAddress",
          "type": "address"
        },
        {
          "indexed": false,
          "internalType": "address",
          "name": "newDaoAddress",
          "type": "address"
        }
      ],
      "name": "DaoChanged",
      "type": "event"
    },
    {
      "anonymous": false,
      "inputs": [
        {
          "indexed": true,
          "internalType": "uint256",
          "name": "companyId",
          "type": "uint256"
        },
        {
          "indexed": false,
          "internalType": "address",
          "name": "daoAddress",
          "type": "address"
        }
      ],
      "name": "DaoInitialized",
      "type": "event"
    },
    {
      "anonymous": false,
      "inputs": [
        {
          "indexed": true,
          "internalType": "uint256",
          "name": "companyId",
          "type": "uint256"
        },
        {
          "indexed": false,
          "internalType": "address",
          "name": "governanceTokenProxy",
          "type": "address"
        }
      ],
      "name": "GovernanceTokenProxySet",
      "type": "event"
    },
    {
      "anonymous": false,
      "inputs": [
        {
          "indexed": false,
          "internalType": "uint8",
          "name": "version",
          "type": "uint8"
        }
      ],
      "name": "Initialized",
      "type": "event"
    },
    {
      "anonymous": false,
      "inputs": [
        {
          "indexed": true,
          "internalType": "address",
          "name": "previousOwner",
          "type": "address"
        },
        {
          "indexed": true,
          "internalType": "address",
          "name": "newOwner",
          "type": "address"
        }
      ],
      "name": "OwnershipTransferred",
      "type": "event"
    },
    {
      "anonymous": false,
      "inputs": [
        {
          "indexed": false,
          "internalType": "address",
          "name": "account",
          "type": "address"
        }
      ],
      "name": "Paused",
      "type": "event"
    },
    {
      "anonymous": false,
      "inputs": [
        {
          "indexed": false,
          "internalType": "address",
          "name": "account",
          "type": "address"
        }
      ],
      "name": "Unpaused",
      "type": "event"
    },
    {
      "anonymous": false,
      "inputs": [
        {
          "indexed": true,
          "internalType": "address",
          "name": "implementation",
          "type": "address"
        }
      ],
      "name": "Upgraded",
      "type": "event"
    },
    {
      "anonymous": false,
      "inputs": [
        {
          "indexed": true,
          "internalType": "address",
          "name": "wallet",
          "type": "address"
        },
        {
          "indexed": false,
          "internalType": "uint256",
          "name": "companyId",
          "type": "uint256"
        },
        {
          "indexed": false,
          "internalType": "string",
          "name": "role",
          "type": "string"
        }
      ],
      "name": "UserRegistered",
      "type": "event"
    },
    {
      "anonymous": false,
      "inputs": [
        {
          "indexed": true,
          "internalType": "address",
          "name": "wallet",
          "type": "address"
        },
        {
          "indexed": false,
          "internalType": "uint256",
          "name": "companyId",
          "type": "uint256"
        }
      ],
      "name": "UserRemoved",
      "type": "event"
    },
    {
      "anonymous": false,
      "inputs": [
        {
          "indexed": true,
          "internalType": "uint256",
          "name": "companyId",
          "type": "uint256"
        },
        {
          "indexed": false,
          "internalType": "address",
          "name": "utilityTokenProxy",
          "type": "address"
        }
      ],
      "name": "UtilityTokenProxySet",
      "type": "event"
    },
    {
      "anonymous": false,
      "inputs": [
        {
          "indexed": true,
          "internalType": "address",
          "name": "newWrappedTokenImpl",
          "type": "address"
        }
      ],
      "name": "WrappedTokenImplementationSet",
      "type": "event"
    },
    {
      "inputs": [
        {
          "internalType": "uint256",
          "name": "companyId",
          "type": "uint256"
        }
      ],
      "name": "activateCompany",
      "outputs": [],
      "stateMutability": "nonpayable",
      "type": "function"
    },
    {
      "inputs": [],
      "name": "daoTransitionTimestamp",
      "outputs": [
        {
          "internalType": "uint256",
          "name": "",
          "type": "uint256"
        }
      ],
      "stateMutability": "view",
      "type": "function"
    },
    {
      "inputs": [
        {
          "internalType": "uint256",
          "name": "companyId",
          "type": "uint256"
        },
        {
          "components": [
            {
              "internalType": "string",
              "name": "name",
              "type": "string"
            },
            {
              "internalType": "string",
              "name": "symbol",
              "type": "string"
            },
            {
              "internalType": "uint256",
              "name": "totalSupply",
              "type": "uint256"
            },
            {
              "internalType": "string",
              "name": "description",
              "type": "string"
            },
            {
              "internalType": "string",
              "name": "imagePath",
              "type": "string"
            }
          ],
          "internalType": "struct CompanyTokenStructs.TokenConfig",
          "name": "tokenConfig",
          "type": "tuple"
        },
        {
          "components": [
            {
              "internalType": "address",
              "name": "immediateWallet",
              "type": "address"
            },
            {
              "internalType": "address",
              "name": "lockedWallet",
              "type": "address"
            },
            {
              "internalType": "enum CompanyTokenStructs.VestingType",
              "name": "vestingType",
              "type": "uint8"
            },
            {
              "internalType": "uint256",
              "name": "startBlock",
              "type": "uint256"
            },
            {
              "internalType": "uint256",
              "name": "startTimestamp",
              "type": "uint256"
            },
            {
              "components": [
                {
                  "internalType": "uint256",
                  "name": "releaseBlock",
                  "type": "uint256"
                },
                {
                  "internalType": "uint256",
                  "name": "percentage",
                  "type": "uint256"
                }
              ],
              "internalType": "struct CompanyTokenStructs.VestingSchedule[]",
              "name": "vestingSchedule",
              "type": "tuple[]"
            },
            {
              "internalType": "uint8",
              "name": "vestingScheduleCount",
              "type": "uint8"
            },
            {
              "internalType": "bool",
              "name": "autoMode",
              "type": "bool"
            },
            {
              "internalType": "uint8",
              "name": "immediateUnlockPercentage",
              "type": "uint8"
            },
            {
              "internalType": "uint8",
              "name": "progressiveYears",
              "type": "uint8"
            }
          ],
          "internalType": "struct CompanyTokenStructs.MultiVestingConfig",
          "name": "vestingConfig",
          "type": "tuple"
        },
        {
          "components": [
            {
              "internalType": "string",
              "name": "name",
              "type": "string"
            },
            {
              "internalType": "uint256",
              "name": "percentage",
              "type": "uint256"
            }
          ],
          "internalType": "struct CompanyTokenStructs.FundUsage[]",
          "name": "fundUsages",
          "type": "tuple[]"
        },
        {
          "components": [
            {
              "internalType": "string",
              "name": "name",
              "type": "string"
            },
            {
              "internalType": "string",
              "name": "url",
              "type": "string"
            }
          ],
          "internalType": "struct CompanyTokenStructs.Document[]",
          "name": "documents",
          "type": "tuple[]"
        }
      ],
      "name": "finalizeCompanyToken",
      "outputs": [
        {
          "internalType": "uint256",
          "name": "tokenId",
          "type": "uint256"
        }
      ],
      "stateMutability": "nonpayable",
      "type": "function"
    },
    {
      "inputs": [],
      "name": "getAdminRole",
      "outputs": [
        {
          "internalType": "bytes32",
          "name": "",
          "type": "bytes32"
        }
      ],
      "stateMutability": "view",
      "type": "function"
    },
    {
      "inputs": [
        {
          "internalType": "uint256",
          "name": "companyId",
          "type": "uint256"
        }
      ],
      "name": "getCompanyAddress",
      "outputs": [
        {
          "internalType": "address",
          "name": "",
          "type": "address"
        }
      ],
      "stateMutability": "view",
      "type": "function"
    },
    {
      "inputs": [
        {
          "internalType": "uint256",
          "name": "companyId",
          "type": "uint256"
        }
      ],
      "name": "getCompanyDao",
      "outputs": [
        {
          "internalType": "address",
          "name": "",
          "type": "address"
        }
      ],
      "stateMutability": "view",
      "type": "function"
    },
    {
      "inputs": [
        {
          "internalType": "uint256",
          "name": "companyId",
          "type": "uint256"
        }
      ],
      "name": "getCompanyDaoTransitionTimestamp",
      "outputs": [
        {
          "internalType": "uint256",
          "name": "",
          "type": "uint256"
        }
      ],
      "stateMutability": "view",
      "type": "function"
    },
    {
      "inputs": [
        {
          "internalType": "uint256",
          "name": "companyId",
          "type": "uint256"
        }
      ],
      "name": "getCompanyData",
      "outputs": [
        {
          "components": [
            {
              "internalType": "uint256",
              "name": "id",
              "type": "uint256"
            },
            {
              "internalType": "address",
              "name": "owner",
              "type": "address"
            },
            {
              "internalType": "string",
              "name": "name",
              "type": "string"
            },
            {
              "internalType": "string",
              "name": "din",
              "type": "string"
            },
            {
              "internalType": "string",
              "name": "companyAddress",
              "type": "string"
            },
            {
              "internalType": "string",
              "name": "country",
              "type": "string"
            },
            {
              "internalType": "bool",
              "name": "isActive",
              "type": "bool"
            },
            {
              "internalType": "address",
              "name": "daoAddress",
              "type": "address"
            },
            {
              "internalType": "uint256",
              "name": "companyDaoTransitionTimestamp",
              "type": "uint256"
            },
            {
              "internalType": "address",
              "name": "governanceTokenProxy",
              "type": "address"
            },
            {
              "internalType": "address",
              "name": "utilityTokenProxy",
              "type": "address"
            },
            {
              "internalType": "string",
              "name": "webpage",
              "type": "string"
            }
          ],
          "internalType": "struct CompanyStruct.CompanyData",
          "name": "",
          "type": "tuple"
        }
      ],
      "stateMutability": "view",
      "type": "function"
    },
    {
      "inputs": [
        {
          "internalType": "uint256",
          "name": "companyId",
          "type": "uint256"
        }
      ],
      "name": "getCompanyLiquidity",
      "outputs": [
        {
          "internalType": "uint256",
          "name": "",
          "type": "uint256"
        }
      ],
      "stateMutability": "view",
      "type": "function"
    },
    {
      "inputs": [
        {
          "internalType": "uint256",
          "name": "companyId",
          "type": "uint256"
        }
      ],
      "name": "getCompanySocials",
      "outputs": [
        {
          "components": [
            {
              "internalType": "string",
              "name": "name",
              "type": "string"
            },
            {
              "internalType": "string",
              "name": "url",
              "type": "string"
            }
          ],
          "internalType": "struct CompanyStruct.Social[]",
          "name": "",
          "type": "tuple[]"
        }
      ],
      "stateMutability": "view",
      "type": "function"
    },
    {
      "inputs": [],
      "name": "getImplementationType",
      "outputs": [
        {
          "internalType": "bytes32",
          "name": "",
          "type": "bytes32"
        }
      ],
      "stateMutability": "pure",
      "type": "function"
    },
    {
      "inputs": [],
      "name": "getLaunchpadAddress",
      "outputs": [
        {
          "internalType": "address",
          "name": "",
          "type": "address"
        }
      ],
      "stateMutability": "view",
      "type": "function"
    },
    {
      "inputs": [],
      "name": "getLaunchpadDomAddress",
      "outputs": [
        {
          "internalType": "address",
          "name": "",
          "type": "address"
        }
      ],
      "stateMutability": "view",
      "type": "function"
    },
    {
      "inputs": [],
      "name": "getMyAddress",
      "outputs": [
        {
          "internalType": "address",
          "name": "",
          "type": "address"
        }
      ],
      "stateMutability": "view",
      "type": "function"
    },
    {
      "inputs": [],
      "name": "getOwner",
      "outputs": [
        {
          "internalType": "address",
          "name": "",
          "type": "address"
        }
      ],
      "stateMutability": "view",
      "type": "function"
    },
    {
      "inputs": [],
      "name": "getWrappedTokenImplementation",
      "outputs": [
        {
          "internalType": "address",
          "name": "",
          "type": "address"
        }
      ],
      "stateMutability": "view",
      "type": "function"
    },
    {
      "inputs": [
        {
          "internalType": "address",
          "name": "_wrappedTokenImpl",
          "type": "address"
        },
        {
          "internalType": "address",
          "name": "_launchpadAddress",
          "type": "address"
        }
      ],
      "name": "initialize",
      "outputs": [],
      "stateMutability": "nonpayable",
      "type": "function"
    },
    {
      "inputs": [
        {
          "internalType": "uint256",
          "name": "companyId",
          "type": "uint256"
        },
        {
          "internalType": "address",
          "name": "caller",
          "type": "address"
        }
      ],
      "name": "isCompanyAuthorized",
      "outputs": [
        {
          "internalType": "bool",
          "name": "",
          "type": "bool"
        }
      ],
      "stateMutability": "view",
      "type": "function"
    },
    {
      "inputs": [],
      "name": "nextCompanyId",
      "outputs": [
        {
          "internalType": "uint256",
          "name": "",
          "type": "uint256"
        }
      ],
      "stateMutability": "view",
      "type": "function"
    },
    {
      "inputs": [],
      "name": "owner",
      "outputs": [
        {
          "internalType": "address",
          "name": "",
          "type": "address"
        }
      ],
      "stateMutability": "view",
      "type": "function"
    },
    {
      "inputs": [],
      "name": "pause",
      "outputs": [],
      "stateMutability": "nonpayable",
      "type": "function"
    },
    {
      "inputs": [],
      "name": "paused",
      "outputs": [
        {
          "internalType": "bool",
          "name": "",
          "type": "bool"
        }
      ],
      "stateMutability": "view",
      "type": "function"
    },
    {
      "inputs": [],
      "name": "proxiableUUID",
      "outputs": [
        {
          "internalType": "bytes32",
          "name": "",
          "type": "bytes32"
        }
      ],
      "stateMutability": "view",
      "type": "function"
    },
    {
      "inputs": [
        {
          "internalType": "string",
          "name": "companyName",
          "type": "string"
        },
        {
          "internalType": "string",
          "name": "companyDIN",
          "type": "string"
        },
        {
          "internalType": "string",
          "name": "companyAddr",
          "type": "string"
        },
        {
          "internalType": "string",
          "name": "companyCountry",
          "type": "string"
        },
        {
          "internalType": "string",
          "name": "webpage",
          "type": "string"
        },
        {
          "internalType": "string[]",
          "name": "socialNames",
          "type": "string[]"
        },
        {
          "internalType": "string[]",
          "name": "socialUrls",
          "type": "string[]"
        }
      ],
      "name": "registerCompany",
      "outputs": [],
      "stateMutability": "nonpayable",
      "type": "function"
    },
    {
      "inputs": [
        {
          "internalType": "uint256",
          "name": "companyId",
          "type": "uint256"
        },
        {
          "internalType": "address",
          "name": "userWallet",
          "type": "address"
        },
        {
          "internalType": "string",
          "name": "role",
          "type": "string"
        }
      ],
      "name": "registerCompanyUser",
      "outputs": [],
      "stateMutability": "nonpayable",
      "type": "function"
    },
    {
      "inputs": [
        {
          "internalType": "uint256",
          "name": "companyId",
          "type": "uint256"
        },
        {
          "internalType": "address",
          "name": "userWallet",
          "type": "address"
        }
      ],
      "name": "removeCompanyUser",
      "outputs": [],
      "stateMutability": "nonpayable",
      "type": "function"
    },
    {
      "inputs": [],
      "name": "renounceOwnership",
      "outputs": [],
      "stateMutability": "nonpayable",
      "type": "function"
    },
    {
      "inputs": [
        {
          "internalType": "uint256",
          "name": "companyId",
          "type": "uint256"
        },
        {
          "internalType": "address",
          "name": "newDaoAddress",
          "type": "address"
        }
      ],
      "name": "setCompanyDaoAddress",
      "outputs": [],
      "stateMutability": "nonpayable",
      "type": "function"
    },
    {
      "inputs": [
        {
          "internalType": "uint256",
          "name": "companyId",
          "type": "uint256"
        },
        {
          "internalType": "address",
          "name": "newOwner",
          "type": "address"
        }
      ],
      "name": "setCompanyOwner",
      "outputs": [],
      "stateMutability": "nonpayable",
      "type": "function"
    },
    {
      "inputs": [
        {
          "internalType": "uint256",
          "name": "companyId",
          "type": "uint256"
        },
        {
          "internalType": "address",
          "name": "newDaoAddress",
          "type": "address"
        }
      ],
      "name": "setDaoAddress",
      "outputs": [],
      "stateMutability": "nonpayable",
      "type": "function"
    },
    {
      "inputs": [
        {
          "internalType": "uint256",
          "name": "companyId",
          "type": "uint256"
        },
        {
          "internalType": "address",
          "name": "utilityTokenProxy",
          "type": "address"
        }
      ],
      "name": "setUtilityTokenProxy",
      "outputs": [],
      "stateMutability": "nonpayable",
      "type": "function"
    },
    {
      "inputs": [
        {
          "internalType": "uint256",
          "name": "companyId",
          "type": "uint256"
        },
        {
          "internalType": "address",
          "name": "governanceTokenProxy",
          "type": "address"
        }
      ],
      "name": "setWrappedToken",
      "outputs": [],
      "stateMutability": "nonpayable",
      "type": "function"
    },
    {
      "inputs": [
        {
          "internalType": "address",
          "name": "newWrappedTokenImpl",
          "type": "address"
        }
      ],
      "name": "setWrappedTokenImplementation",
      "outputs": [],
      "stateMutability": "nonpayable",
      "type": "function"
    },
    {
      "inputs": [
        {
          "internalType": "bytes4",
          "name": "interfaceId",
          "type": "bytes4"
        }
      ],
      "name": "supportsInterface",
      "outputs": [
        {
          "internalType": "bool",
          "name": "",
          "type": "bool"
        }
      ],
      "stateMutability": "view",
      "type": "function"
    },
    {
      "inputs": [
        {
          "internalType": "address",
          "name": "",
          "type": "address"
        }
      ],
      "name": "transferOwnership",
      "outputs": [],
      "stateMutability": "nonpayable",
      "type": "function"
    },
    {
      "inputs": [],
      "name": "unpause",
      "outputs": [],
      "stateMutability": "nonpayable",
      "type": "function"
    },
    {
      "inputs": [],
      "name": "updateOwnerFromLaunchpad",
      "outputs": [],
      "stateMutability": "nonpayable",
      "type": "function"
    },
    {
      "inputs": [
        {
          "internalType": "address",
          "name": "newImplementation",
          "type": "address"
        }
      ],
      "name": "upgradeTo",
      "outputs": [],
      "stateMutability": "nonpayable",
      "type": "function"
    },
    {
      "inputs": [
        {
          "internalType": "address",
          "name": "",
          "type": "address"
        },
        {
          "internalType": "bytes",
          "name": "",
          "type": "bytes"
        }
      ],
      "name": "upgradeToAndCall",
      "outputs": [],
      "stateMutability": "payable",
      "type": "function"
    },
    {
      "inputs": [],
      "name": "wrappedTokenImplementation",
      "outputs": [
        {
          "internalType": "address",
          "name": "",
          "type": "address"
        }
      ],
      "stateMutability": "view",
      "type": "function"
    }
  ],
  "bytecode": "0x60a080604052346022573060805261661f908161002882396080518161314a0152f35b600080fdfe60a080604052600436101561001357600080fd5b60006080526080513560e01c90816301ffc9a714614c95575080630a0c292b146148f357806311f1011614612f5f5780631f2c55b01461442d57806326d6eb9e146143e25780632a2767e5146143a65780632f984ea014613fd65780633244b99a14613cca5780633659cfe614613bbe57806339ce5435146136d35780633f4ba83a146136295780633fba851c146135c7578063475d5bb314613592578063485cc9551461326e5780634f1ef2861461320d57806352d1902d146131365780635c975abb146131125780635e19b04714612f64578063645ad2d214612f5f5780636bd7cd791461129f578063715018a614612f3257806374ced87014612f125780637dc6120b14612eba5780637ea1b8aa14612df45780638456cb5914612d69578063850bcab914612c28578063893d20e814612bfe5780638da5cb5b14612bfe5780638f2071c514612bc05780639a16629914612ba4578063adeb963414612a72578063b3ecf23614612a36578063c098c15914612883578063d48d3dc614611ec4578063d8d3c82914611ea4578063dab46984146112ca578063e01161451461129f578063ecd64ae31461037a578063f2fde38b146103455763f6dd1550146101dd57600080fd5b3461033f57602036600319011261033f576004356101f96151c3565b506102026151c3565b5080608051526101676020526040608051209060018060a01b036001830154161561032957610325610233836150a9565b604051918291602083528051602084015260018060a01b0360208201511660408401526101606102bf6102a961029361027d604086015161018060608a01526101a0890190614e6a565b6060860151888203601f190160808a0152614e6a565b6080850151878203601f190160a0890152614e6a565b60a0840151868203601f190160c0880152614e6a565b9160c0810151151560e086015260018060a01b0360e08201511661010086015261010081015161012086015260018060a01b036101208201511661014086015260018060a01b0361014082015116828601520151601f1984830301610180850152614e6a565b0390f35b63064b7e3d60e11b608051526004526024608051fd5b60805180fd5b3461033f57602036600319011261033f5761035e614ce1565b50610367615222565b635a42e44960e01b608051526004608051fd5b3461033f5760e036600319011261033f576004356001600160401b03811161033f576103aa903690600401614ebc565b6024356001600160401b03811161033f576103c9903690600401614ebc565b906044356001600160401b03811161033f576103e9903690600401614ebc565b916064356001600160401b03811161033f57610409903690600401614ebc565b6084356001600160401b03811161033f57610428903690600401614ebc565b9160a4356001600160401b03811161033f57610448903690600401614efc565b9060c4356001600160401b03811161033f57610468903690600401614efc565b92610471615222565b61016354958615978815988961122d575b6402540be3ff891461121a5761016054608080518b90526101676020525160409020600101546001600160a01b039182169291166112035780611190575b61117957336000908152610169602052604090205461054c576080515b33600090815261016b60205260409020548110156105635733600090815261016b60205260409020610510908290615278565b905433600090815261016a6020526040902060039290921b1c6080515260205260ff6004604060805120015460a01c1661054c576001016104dd565b638fc8b33960e01b60805152336004526024608051fd5b5089610f56575b3314610f3f57815115610f2857835115610f1157805115610efa57825115610ee357865115610ecc578451158015610ec3575b610eac578451865103610e95576080515b855181101561060f576105c181876157d2565b5151156105f8576105d281886157d2565b5151156105e1576001016105ae565b88632b3731bb60e11b608051526004526024608051fd5b886352f3902d60e11b608051526004526024608051fd5b50879394959660405161062181614db8565b858152602081019033825260408101908582528860608201528460808201528660a082015260805160c082015260805160e0820152610100810160805181526101208201916080518352610140810193608051855261016082019687528a60805152610167602052604060805120958251875560018060a01b03905116600187019060018060a01b03166001600160601b0360a01b8254161790556002860190518051906001600160401b038211610ae2576106e7826106e18554614f8e565b85614fdf565b6020906001601f841114610e2b5791809161071a9360805192610cc6575b50508160011b916000199060031b1c19161790565b90555b60608101518051906001600160401b038211610ae25761074d8261074460038a0154614f8e565b60038a01614fdf565b6020906001601f841114610dbb5791809161077f9360805192610cc65750508160011b916000199060031b1c19161790565b60038601555b60808101518051906001600160401b038211610ae2576107b5826107ac60048a0154614f8e565b60048a01614fdf565b6020906001601f841114610d4b579180916107e79360805192610cc65750508160011b916000199060031b1c19161790565b60048601555b60a08101518051906001600160401b038211610ae25761081d8261081460058a0154614f8e565b60058a01614fdf565b6020906001601f841114610cd157826108a693600a9998979695936108599360805192610cc65750508160011b916000199060031b1c19161790565b60058701555b600686019061088060c08201511515839060ff801983541691151516179055565b60e001518154610100600160a81b03191660089190911b610100600160a81b0316179055565b516007840155516008830180546001600160a01b03199081166001600160a01b0393841617909155915160098401805490931691161790559151805191909201916001600160401b038211610ae257610903826106e18554614f8e565b6020906001601f841114610c5c579180916109359360805192610c515750508160011b916000199060031b1c19161790565b90555b6080515b8651811015610b8a57846080515261017760205260406080512061096082896157d2565b5161096b838b6157d2565b51916040519161097a83614d35565b825260208201928352805490600160401b821015610ae25760018201808255821015610b7257608051526020608051209060011b0190518051906001600160401b038211610ae2576109d0826106e18554614f8e565b6020906001601f841114610b05579180610a05926001959460805192610afa5750508160011b916000199060031b1c19161790565b81555b0190518051906001600160401b038211610ae257610a2a826106e18554614f8e565b6020906001601f841114610a74579180610a6092600196959460805192610a695750508160011b916000199060031b1c19161790565b90555b0161093c565b015190508d80610705565b90601f1983169184608051528160805120926080515b818110610aca575091600196959492918388959310610ab1575b505050811b019055610a63565b015160001960f88460031b161c191690558c8080610aa4565b92936020600181928786015181550195019301610a8a565b634e487b7160e01b6080515260416004526024608051fd5b015190508e80610705565b90601f1983169184608051528160805120926080515b818110610b5a5750916001959492918387959310610b41575b505050811b018155610a08565b015160001960f88460031b161c191690558d8080610b34565b92936020600181928786015181550195019301610b1b565b634e487b7160e01b6080515260326004526024608051fd5b507f34163a539dc5fbdc04309f5c778774a95a31e6f88d105997cd6b2fadac51a49791610c12610c03610be793610bf589610bcd610bc66152c8565b338c616130565b6040519687968b885260a0602089015260a0880190614e6a565b908682036040880152614e6a565b908482036060860152614e6a565b82810360808401523395614e6a565b0390a26000805160206165ca83398151915260405180610c33339482615331565b0390a2610c426101635461519e565b61016355600160fb5560805180f35b015190508b80610705565b90601f1983169184608051528160805120926080515b818110610cae5750908460019594939210610c95575b505050811b019055610938565b015160001960f88460031b161c191690558a8080610c88565b92936020600181928786015181550195019301610c72565b015190503880610705565b90601f1983169160058901608051528160805120926080515b818110610d3357509260019285926108a696600a9c9b9a99989610610d1a575b505050811b01600587015561085f565b015160001960f88460031b161c19169055388080610d0a565b92936020600181928786015181550195019301610cea565b90601f1983169160048901608051528160805120926080515b818110610da35750908460019594939210610d8a575b505050811b0160048601556107ed565b015160001960f88460031b161c191690558f8080610d7a565b92936020600181928786015181550195019301610d64565b90601f1983169160038901608051528160805120926080515b818110610e135750908460019594939210610dfa575b505050811b016003860155610785565b015160001960f88460031b161c191690558f8080610dea565b92936020600181928786015181550195019301610dd4565b90601f1983169184608051528160805120926080515b818110610e7d5750908460019594939210610e64575b505050811b01905561071d565b015160001960f88460031b161c19169055388080610e57565b92936020600181928786015181550195019301610e41565b6346cbf99360e01b60805152306004526024608051fd5b8763354952d960e21b608051526004526024608051fd5b5085511561059d565b87637fa5a5a360e11b608051526004526024608051fd5b8763ee02097960e01b608051526004526024608051fd5b87632fc82b6f60e11b608051526004526024608051fd5b87631fe63b0360e01b608051526004526024608051fd5b87632cbd425b60e01b608051526004526024608051fd5b63333bf60960e11b60805152336004526024608051fd5b6080516080515261016760205260ff60066040608051200154161561116257604051638da5cb5b60e01b8152602081600481855afa9081156110895760805191611128575b506001600160a01b031633141580611103575b6110ec576040516362d4106760e11b8152336004820152602081602481855afa90811561108957608051916110ba575b506004811090816110ad575b506110965760405163734c619f60e01b81526020600482018190528180611013602482016152a6565b0381855afa9081156110895760805191611052575b5061056a57604051634b93852960e11b8152602060048201528061104e602482016152a6565b0390fd5b90506020813d602011611081575b8161106d60209383614dd4565b8101031261107c57518a611028565b600080fd5b3d9150611060565b6040513d608051823e3d90fd5b630d08398760e21b60805152336004526024608051fd5b600019141590508a610fea565b90506020813d6020116110e4575b816110d560209383614dd4565b8101031261107c57518a610fde565b3d91506110c8565b88630c48cc2d60e11b608051526004526024608051fd5b506080805180526101676020525160409020600801546001600160a01b031615610fae565b90506020813d60201161115a575b8161114360209383614dd4565b8101031261033f5761115490614f7a565b8a610f9b565b3d9150611136565b8863064b7e3d60e11b608051526004526024608051fd5b6339e3033960e21b60805152336004526024608051fd5b50604051638da5cb5b60e01b8152602081600481855afa90811561108957608051916111c9575b506001600160a01b03163314156104c0565b90506020813d6020116111fb575b816111e460209383614dd4565b8101031261033f576111f590614f7a565b8b6111b7565b3d91506111d7565b89633f23814f60e11b608051526004526024608051fd5b6324f21a0f60e01b608051526004608051fd5b608051608051526101676020526112486040608051206150a9565b60208101516001600160a01b0316156112865761012001516001600160a01b03166104825763ed15e6cf60e01b608051526080516004526024608051fd5b63064b7e3d60e11b608051526080516004526024608051fd5b3461033f5760805136600319011261033f57610162546040516001600160a01b039091168152602090f35b3461033f57606036600319011261033f576004356112e6614ccb565b6044356001600160401b03811161033f57611305903690600401614ebc565b61130d615222565b611315615346565b610160546001600160a01b03169261132e338286616482565b6001600160a01b03831693338514611e8d57825115611e7a578415611e63576040516362d4106760e11b815260048101869052602081602481855afa9081156110895760805191611e31575b50600481109081611e24575b50611e0d5760805161016554905b818110611daf57505060405163c696804f60e01b8152602081600481855afa9081156110895760805191611d75575b506001600160a01b03168514611d5e5760405163734c619f60e01b815260206004820181905281806113f86024820188614e6a565b0381855afa9081156110895760805191611d2c575b5015611d0a576040519363490e122960e11b855260206004860152602085806114396024820188614e6a565b0381855afa9485156110895760805195611cd6575b50600385108015611ccc575b611cb5576003851480611b59575b6040516362d4106760e11b8152336004820152602081602481875afa9081156110895760805191611b27575b5086811015611b045781611b1b575b50611b045760038511611a7d575b6001600160a01b03811660008181526101696020908152604091829020915163c978d8a560e01b815260048101939093526024830186905282604481875afa9182156110895760805192611a49575b50600182016117f9575b50506001600160a01b038116600090815261016960205260409020611557906040519061153682614d66565b85825288602083015286604083015287606083015260016080830152615fd2565b6001600160a01b038116600090815261016b602052604090208054600160401b811015610ae25761158d91600182018155615278565b815460001960039290921b91821b19169085901b17905560405163734c619f60e01b815260206004820181905290929083806115cc6024820189614e6a565b0381845afa92831561108957608051936117c5575b50803b1561033f57604051632fa28d9b60e21b8152608051818061160d8933888d8b8d600488016153a6565b0381608051865af18015611089576117ac575b5060405163c978d8a560e01b81526001600160a01b03831660048201526024810185905290602090829060449082905afa801561108957869160805191611777575b50036117605760046000805160206165ca833981519152956040519061168782614d9d565b8582526020820194898652604083019081526060830191825260808301953387526116cd60a08501966001885260018060a01b031660005261016a602052604060002090565b608080518a9052602091909152516040908190209451855590516001850180546001600160a01b039283166001600160a01b031990911617905591516002850155915160038401559451929091018054935160ff60a01b90151560a01b16929094166001600160a81b0319909316929092171790915551918291611752919083616119565b0390a2600160fb5560805180f35b85637745245760e01b608051526004526024608051fd5b9150506020813d6020116117a4575b8161179360209383614dd4565b8101031261107c5785905188611662565b3d9150611786565b6080516117b891614dd4565b60805161033f5787611620565b9092506020813d6020116117f1575b816117e160209383614dd4565b8101031261107c575191876115e1565b3d91506117d4565b60805181546000199391606091905b8181106119df575b505060018401611822575b505061150a565b6040519063734c619f60e01b825260206004830152602082806118486024820185614e6a565b03818a5afa91821561108957608051926119ab575b50863b1561033f57879261188d8792604051958694859463be92c6db60e01b8652608051973393600488016153a6565b0381608051895af1801561108957611992575b506001815411600014611964578054600019810190811161194c576118e2926118d76118cf6118dd938561538a565b50918461538a565b90615579565b615606565b6001600160a01b038116600090815261016a60205260409020836080515260205261192a60406080512060046000918281558260018201558260028201558260038201550155565b856000805160206165aa8339815191526020604051868152a28680808061181b565b634e487b7160e01b6080515260116004526024608051fd5b50506001600160a01b03811660009081526101696020526040902061198d906153e5565b6153e5565b6118e2565b60805161199e91614dd4565b60805161033f57886118a0565b9091506020813d6020116119d7575b816119c760209383614dd4565b8101031261107c5751908b61185d565b3d91506119ba565b886119ea828761538a565b50541480611a31575b6119ff57600101611808565b945050506002611a2a611a12858561538a565b50611a236040518094819301615026565b0382614dd4565b8a80611810565b5060ff6004611a40838861538a565b500154166119f3565b9091506020813d602011611a75575b81611a6560209383614dd4565b8101031261107c57519088611500565b3d9150611a58565b60405163c978d8a560e01b815233600482015260248101849052602081604481865afa9081156110895760805191611ad2575b50196114b1575b82630d0f1bc360e11b60805152336004526024526044608051fd5b90506020813d602011611afc575b81611aed60209383614dd4565b8101031261107c575187611ab0565b3d9150611ae0565b6303d1bc5d60e51b60805152336004526024608051fd5b600291501015876114a3565b90506020813d602011611b51575b81611b4260209383614dd4565b8101031261107c575188611494565b3d9150611b35565b60405163c978d8a560e01b815233600482015260248101859052602081604481875afa80156110895760805190611c82575b600391501480611c28575b6040516362d4106760e11b815233600482015290602082602481885afa9182156110895760805192611bf4575b50159081611be9575b5015611468576348f8744760e01b60805152336004526024608051fd5b600191501188611bcc565b9091506020813d602011611c20575b81611c1060209383614dd4565b8101031261107c57519089611bc3565b3d9150611c03565b5033600090815261016a60205260409020846080515260205260026040608051200154604051602081019070434f4e5349474c494f5f5341504f52495360781b825260118152611c79603182614dd4565b51902014611b96565b506020813d602011611cad575b81611c9c60209383614dd4565b8101031261107c5760039051611b8b565b3d9150611c8f565b846351f8356160e11b608051526004526024608051fd5b506005851161145a565b9094506020813d602011611d02575b81611cf260209383614dd4565b8101031261107c5751938661144e565b3d9150611ce5565b604051634b93852960e11b8152602060048201528061104e6024820186614e6a565b90506020813d602011611d56575b81611d4760209383614dd4565b8101031261107c57518661140d565b3d9150611d3a565b8463ec13832f60e01b608051526004526024608051fd5b90506020813d602011611da7575b81611d9060209383614dd4565b8101031261033f57611da190614f7a565b866113c3565b3d9150611d83565b608080518290526101676020525160409020600101546001600160a01b031687148015611de3575b61054c57600101611394565b506080805182905261016760205251604090206006015460081c6001600160a01b03168714611dd7565b84630d08398760e21b608051526004526024608051fd5b6000191415905086611386565b90506020813d602011611e5b575b81611e4c60209383614dd4565b8101031261107c57518661137a565b3d9150611e3f565b84633202e20d60e21b608051526004526024608051fd5b63369e983560e01b608051526004608051fd5b636fc71c8560e01b60805152336004526024608051fd5b3461033f5760805136600319011261033f57602061016354604051908152f35b3461033f5760a036600319011261033f576024356001600160401b03811161033f5760a0600319823603011261033f5760405190611f0182614d66565b80600401356001600160401b03811161033f57611f249060043691840101614ebc565b825260248101356001600160401b03811161033f57611f499060043691840101614ebc565b60208301526044810135604083015260648101356001600160401b03811161033f57611f7b9060043691840101614ebc565b60608301526084810135906001600160401b03821161033f576004611fa39236920101614ebc565b60808201526044356001600160401b03811161033f57610140600319823603011261033f5760405190611fd582614d81565b611fe181600401614cf7565b8252611fef60248201614cf7565b60208301526044810135600181101561033f576040830152606481013560608301526084810135608083015260a48101356001600160401b03811161033f5781013660238201121561033f57600481013561204981614ed7565b916120576040519384614dd4565b818352602060048185019360061b830101019036821161033f57602401915b8183106128525750505060a083015261209160c48201614eee565b60c083015260e4810135801515810361033f576120ca916101249160e08501526120be6101048201614eee565b61010085015201614eee565b6101208201526001600160401b036064351161033f5736602360643501121561033f576120fc60643560040135614ed7565b9061210a6040519283614dd4565b6004606435908101358084526020840191829160051b0160240136811161033f57602460643501915b8183106127e5575050506001600160401b036084351161033f5736602360843501121561033f5761216960843560040135614ed7565b906121776040519283614dd4565b6084356004013582526020820190813660246084356004013560051b60843501011161033f57602460843501905b60246084356004013560051b6084350101821061275a5750506121c6615222565b610160546001600160a01b03169260043561274857604051638da5cb5b60e01b8152602081600481885afa908115611089576080519161270e575b506001600160a01b03163303611179576080805180526101676020525160409020600101546001600160a01b031615611286576080516080515261016760205260ff6006604060805120015416156126f5575b6004356126f0575b604051632ee325db60e21b8152936020858061227a600482016156aa565b0381845afa94851561108957608051956126b4575b506001600160a01b0385161561269e57506080519560409590875b8151811015612691576122bd81836157d2565b515160208151910120600960208a516122d68c82614dd4565b82815201686c697175696469747960b81b815220148015612653575b6122fe576001016122aa565b819293949596979850612313906020926157d2565b5101515b6014811080918115612648575b5061261357506123b88751986379ca55b960e11b8a5260043560048b015260c060248b015260806123a36123816123698d61016486519160a060c48201520190614e6a565b8d60208601519060e460c31982850301910152614e6a565b60408401516101048e015260608401518d820360c319016101248f0152614e6a565b9101518a820360c319016101448c0152614e6a565b8881036003190160448a015282516001600160a01b03908116825260208085015190911690820152604083015160018110156125fb57908996959493929189820152606083015160608201526080830151608082015260a08301519261014060a0830152835180610140840152602061016084019501906080515b8c8282106125d9575050505060ff610120828260c0839501511660c086015260e0810151151560e0860152826101008201511661010086015201511691015260031986830301606487015251808252602082019160208260051b8201019492608051915b8a8484106125905750505050505060031984830301608485015251808252602082019160208260051b8201019392608051915b83831061255f5786896020828b81808c3360a483015203916080519060018060a01b03165af1908115612554576080519161251f575b602092506125106101665461519e565b61016655600160fb5551908152f35b90506020823d60201161254c575b8161253a60209383614dd4565b8101031261107c576020915190612500565b3d915061252d565b513d608051823e3d90fd5b91939550919360208061257e600193601f198682030187528951614e8f565b970193019301909288959492936124ca565b60209193959899508190600193959798601f1986820301875282806125bf8d5194855190808652850190614e6a565b93015191015298019301930190928a979695949293612497565b835180518952602090810151818a01528f9c5097019690920191600101612433565b634e487b7160e01b6080515260216004526024608051fd5b1561263057637644e84b60e11b6080515260146004526024608051fd5b631b3c134360e21b6080515260326004526024608051fd5b60329150118a612324565b5061265e81836157d2565b515160208151910120600960208a516126778c82614dd4565b82815201684c697175696469747960b81b815220146122f2565b5090919293949596612317565b637361709960e01b608051526004526024608051fd5b9094506020813d6020116126e8575b816126d060209383614dd4565b8101031261033f576126e190614f7a565b938861228f565b3d91506126c3565b61225c565b632b13157760e11b608051526080516004526024608051fd5b90506020813d602011612740575b8161272960209383614dd4565b8101031261033f5761273a90614f7a565b88612201565b3d915061271c565b6127553360043586616482565b612254565b81356001600160401b03811161033f57608435016040602319823603011261033f576040519161278983614d35565b60248201356001600160401b03811161033f576127ac9060243691850101614ebc565b83526044820135926001600160401b03841161033f576127d6602094936024869536920101614ebc565b838201528152019101906121a5565b82356001600160401b03811161033f57606435016040602319823603011261033f576040519161281483614d35565b6024820135926001600160401b03841161033f5760446020949361283f869560243691840101614ebc565b8352013583820152815201920191612133565b60408336031261033f576020604091825161286c81614d35565b853581528286013583820152815201920191612076565b3461033f57604036600319011261033f5760043561289f614ccb565b6128a7615222565b61016054604051632ee325db60e21b815260206004820181905260076024830152665374616b696e6760c81b60448301529091829060649082906001600160a01b03165afa90811561108957608051916129fc575b506001600160a01b031633036129e5576001600160a01b0381169081156129ce57608080518490526101676020525160409020600901546001600160a01b03166129b7573b156129a15760207f7bfcd6ae78763ad166464b2b219cf23453f5259f0c7abfb92785d1b8f9ef50d69183608051526101678252600960406080512001816001600160601b0360a01b825416179055604051908152a2600160fb5560805180f35b6319bb402960e01b608051526004526024608051fd5b826353b5776b60e01b608051526004526024608051fd5b50633202e20d60e21b608051526004526024608051fd5b634a0bfec160e01b60805152336004526024608051fd5b90506020813d602011612a2e575b81612a1760209383614dd4565b8101031261033f57612a2890614f7a565b836128fc565b3d9150612a0a565b3461033f5760805136600319011261033f5760206040517fa36640f9c3d74ee87c99b3aee39f32849dda077410057abc393a2cb9e13139a78152f35b3461033f57602036600319011261033f57600435806080515261016760205260018060a01b036001604060805120015416156103295760805152610177602052604060805120805490612ac482614ed7565b91612ad26040519384614dd4565b80835260208301809260805152602060805120608051915b838310612b5957848660405191829160208301906020845251809152604083019060408160051b8501019291608051905b828210612b2a57505050500390f35b91936001919395506020612b498192603f198a82030186528851614e8f565b9601920192018594939192612b1b565b60026020600192604051612b6c81614d35565b604051612b7d81611a23818a615026565b8152604051612b9281611a2381898b01615026565b83820152815201920192019190612aea565b3461033f5760805136600319011261033f576020604051308152f35b3461033f57604036600319011261033f576020612bf4612bde614ccb565b61016054600435906001600160a01b0316615e7f565b6040519015158152f35b3461033f5760805136600319011261033f576033546040516001600160a01b039091168152602090f35b3461033f5760805136600319011261033f57612c42615346565b612c4a615222565b610160546001600160a01b03168015612d565760405163c696804f60e01b8152602081600481855afa9081156110895760805191612d1c575b506001600160a01b03163303612d095760206004916040519283809263c696804f60e01b82525afa80156110895760805190612cce575b612cc390615e36565b600160fb5560805180f35b506020813d602011612d01575b81612ce860209383614dd4565b8101031261033f57612cfc612cc391614f7a565b612cba565b3d9150612cdb565b632508892760e11b608051526004608051fd5b90506020813d602011612d4e575b81612d3760209383614dd4565b8101031261033f57612d4890614f7a565b82612c83565b3d9150612d2a565b6336939d7d60e21b608051526004608051fd5b3461033f5760805136600319011261033f57612d83615346565b610160546001600160a01b03168015612d56573303612de157612da4615346565b600160ff1960c954161760c9557f62e78cea01bee320cd4e420270b5ea74000d11b0c9f74754ebdbfc544b05a2586020604051338152a160805180f35b635c427cd960e01b608051526004608051fd5b3461033f57602036600319011261033f57612e0d614ce1565b612e15615222565b61016054603354612e34916001600160a01b03918216913391166162a1565b6001600160a01b03168015612ea457806001600160601b0360a01b61017554161761017555807fbc5f25c6989a08d35da204812dcc1f34b0b229cc00e591a1e4de3c79679ab022608051608051a26001600160601b0360a01b61016254161761016255600160fb55608051608051f35b633202e20d60e21b608051526004526024608051fd5b3461033f57602036600319011261033f5760043580608051526101676020526040608051209060ff60068301541615612efc5760206007830154604051908152f35b632b13157760e11b608051526004526024608051fd5b3461033f5760805136600319011261033f57602061015f54604051908152f35b3461033f5760805136600319011261033f57612f4c615222565b63ffc0fd9360e01b608051526004608051fd5b614d0b565b3461033f57604036600319011261033f57600435612f80614ccb565b61016054604051632ee325db60e21b81529060209082906001600160a01b03168180612fae600482016156aa565b03915afa90811561108957608051916130d8575b506001600160a01b031633036130bd5760808051839052610167602052516040902060018101546001600160a01b0316156130a65760ff6006820154161561308f5760080180546001600160a01b03166129b757813b1561306b5780546001600160a01b0319166001600160a01b0390921691821790556040519081527f38b0af0e7df8bbf32b78dbbcf57d2973da4b62e518622c36e6ee6871b74357fe90602090a260805180f35b50608080516319bb402960e01b90526001600160a01b039190911660045251602490fd5b82632b13157760e11b608051526004526024608051fd5b8263064b7e3d60e11b608051526004526024608051fd5b50639a8cadab60e01b60805152336004526024526044608051fd5b90506020813d60201161310a575b816130f360209383614dd4565b8101031261033f5761310490614f7a565b83612fc2565b3d91506130e6565b3461033f5760805136600319011261033f57602060ff60c954166040519015158152f35b3461033f5760805136600319011261033f577f00000000000000000000000000000000000000000000000000000000000000006001600160a01b031630036131a25760206040517f360894a13ba1a3210667c828492db98dca3e2076cc3735a920a3ca505d382bbc8152f35b60405162461bcd60e51b815260206004820152603860248201527f555550535570677261646561626c653a206d757374206e6f742062652063616c60448201527f6c6564207468726f7567682064656c656761746563616c6c00000000000000006064820152608490fd5b604036600319011261033f57613221614ce1565b506024356001600160401b03811161033f573660238201121561033f57613252903690602481600401359101614e10565b5061325b615222565b630c5e6cd360e21b608051526004608051fd5b3461033f57604036600319011261033f57613287614ce1565b61328f614ccb565b608051549160ff8360081c161592838094613585575b801561356e575b156135125783600160ff19831617608051556134fe575b506001600160a01b031690811580156134ed575b6129ce57604051638da5cb5b60e01b81526001600160a01b03919091169190602081600481865afa90811561108957608051916134b3575b506001600160a01b0316330361349c5761332b61016454614f8e565b601f8111613476575b50602a742b189021b7b6b830b73c9026bab63a34aa37b5b2b760591b0161016455816001600160601b0360a01b6101745416176101745560805161016655806001600160601b0360a01b610162541617610162556001600160601b0360a01b610175541617610175556001600160601b0360a01b61016054161761016055608051610163556133dd60ff6080515460081c166133cf81615dd6565b6133d881615dd6565b615dd6565b6133e633615e36565b608051549061343160ff8360081c166133fe81615dd6565b61340781615dd6565b60ff1960c9541660c95561341a81615dd6565b61342381615dd6565b600160fb556133d881615dd6565b61343c575b60805180f35b61ff001916608051557f7f26b83ff96e1f2b6a682f133852f6798a09c465da95921460cefb3847402498602060405160018152a180613436565b6134969061016460805152601f602060805120910160051c810190614fc8565b83613334565b635a96514360e11b60805152336004526024608051fd5b90506020813d6020116134e5575b816134ce60209383614dd4565b8101031261033f576134df90614f7a565b8461330f565b3d91506134c1565b506001600160a01b038116156132d7565b6101019061ffff19161760805155836132c3565b60405162461bcd60e51b815260206004820152602e60248201527f496e697469616c697a61626c653a20636f6e747261637420697320616c72656160448201526d191e481a5b9a5d1a585b1a5e995960921b6064820152608490fd5b50303b1580156132ac5750600160ff8216146132ac565b50600160ff8216106132a5565b3461033f57602036600319011261033f57610160546020906135bf906001600160a01b03166004356157e6565b604051908152f35b3461033f57602036600319011261033f57600435806080515261016760205260406080512060ff6006820154161561361257600101546040516001600160a01b039091168152602090f35b50632b13157760e11b608051526004526024608051fd5b3461033f5760805136600319011261033f57610160546001600160a01b03168015612d56573303612de15760c95460ff8116156136975760ff191660c9557f5db9ee0a495bf2e6ff9c91a7834c1ba4fdd244a5e8aa4e537bd38aeae4b073aa6020604051338152a160805180f35b60405162461bcd60e51b815260206004820152601460248201527314185d5cd8589b194e881b9bdd081c185d5cd95960621b6044820152606490fd5b3461033f57604036600319011261033f576004356136ef614ccb565b6136f7615222565b61016054608080518490526101676020525160409020600601546001600160a01b03918216929160089190911c168015612ea4573303613ba3578215613b8c576001600160a01b038116918215613b755760808051859052610167602052516040902060018101546001600160a01b031615613b5e57600601805460ff811615613b4757833b15613b305760081c6001600160a01b0316926137a161379a6156d1565b8288616130565b60405163734c619f60e01b815260206004820181905281806137c560248201615700565b0381875afa9081156110895760805191613afe575b50833b1561033f5760405190632fa28d9b60e21b82528180613806608051938633918d60048601615724565b0381608051885af1801561108957613ae5575b5061386491856000805160206165ca8339815191526040518061383c8b82615760565b0390a28054610100600160a81b03191660089290921b610100600160a81b0316919091179055565b816138a6575b506040907f84f254536dfd0fd0b3360bb4377ba63bf3211cfbf7597c4488e452e69b1dd0bd9282519182526020820152a2600160fb5560805180f35b604051602081019070434f4e5349474c494f5f5341504f52495360781b8252601181526138d4603182614dd4565b519020906138e06156d1565b91813b1561033f5761392e60405193849263be92c6db60e01b84526080515088600485015260248401526003604484015285606484015233608484015260c060a484015260c4830190614e6a565b918180608051940391608051905af1801561108957613acc575b506001600160a01b0381166000908152610169602052604090206080518154600019915b818110613a8c575b5060018201613985575b505061386a565b919390929160011015613a4057835460001981019390841161194c57846118dd6139d9926118d76118cf6040987f84f254536dfd0fd0b3360bb4377ba63bf3211cfbf7597c4488e452e69b1dd0bd9a61538a565b6001600160a01b038216600090815261016a602052604090208560805152602052613a20836080512060046000918281558260018201558260028201558260038201550155565b816000805160206165aa83398151915260208551888152a292819261397e565b7f84f254536dfd0fd0b3360bb4377ba63bf3211cfbf7597c4488e452e69b1dd0bd935060409250613a876119888360018060a01b0316600052610169602052604060002090565b6139d9565b86613a97828661538a565b50541480613ab4575b613aac5760010161396c565b915086613974565b5060ff6004613ac3838761538a565b50015416613aa0565b608051613ad891614dd4565b60805161033f5783613948565b608051613af191614dd4565b60805161033f5786613819565b90506020813d602011613b28575b81613b1960209383614dd4565b8101031261107c5751876137da565b3d9150613b0c565b846319bb402960e01b608051526004526024608051fd5b85632b13157760e11b608051526004526024608051fd5b8463064b7e3d60e11b608051526004526024608051fd5b82633202e20d60e21b608051526004526024608051fd5b82631b4d1f1360e01b608051526004526024608051fd5b82631ed0eedd60e11b60805152336004526024526044608051fd5b3461033f57602036600319011261033f57613bd7614ce1565b613bdf615222565b610160546001600160a01b03168015612d56573303612de157803b15613c6f577f360894a13ba1a3210667c828492db98dca3e2076cc3735a920a3ca505d382bbc80546001600160a01b0319166001600160a01b039290921691821790556080517fbc7cd75a20ee27fd9adebab32041f755214dbc6bffa90cc0225b39da2e5c2d3b9080a2600160fb5560805180f35b60405162461bcd60e51b815260206004820152602d60248201527f455243313936373a206e657720696d706c656d656e746174696f6e206973206e60448201526c1bdd08184818dbdb9d1c9858dd609a1b6064820152608490fd5b3461033f57604036600319011261033f57600435613ce6614ccb565b61016054604051632ee325db60e21b81526001600160a01b039091169060208180613d13600482016156aa565b0381855afa9081156110895760805191613f9c575b506001600160a01b03163303613f815760808051849052610167602052516040902060018101546001600160a01b031615613f6a5760060191825460ff811615613f535760081c6001600160a01b0316613f3c576001600160a01b038116928315613f2557813b15613f0e578054610100600160a81b031916600883901b610100600160a81b031617905583613deb575b837feee677695ea2756cec2e9cc3cdd1388528953e2886e279900e3b0ae55c12eb85602085604051908152a260805180f35b613dfd613df66156d1565b8286616130565b60405163734c619f60e01b81526020600482018190528180613e2160248201615700565b0381865afa9081156110895760805191613edc575b50823b1561033f57613e64926040518080958194632fa28d9b60e21b83526080519633918b60048601615724565b0391608051905af1801561108957613ec3575b506020817feee677695ea2756cec2e9cc3cdd1388528953e2886e279900e3b0ae55c12eb85926000805160206165ca83398151915260405180613eba8882615760565b0390a291613db9565b608051613ecf91614dd4565b60805161033f5782613e77565b90506020813d602011613f06575b81613ef760209383614dd4565b8101031261107c575185613e36565b3d9150613eea565b836319bb402960e01b608051526004526024608051fd5b83633202e20d60e21b608051526004526024608051fd5b83634e9e96d160e01b608051526004526024608051fd5b84632b13157760e11b608051526004526024608051fd5b8363064b7e3d60e11b608051526004526024608051fd5b82639a8cadab60e01b60805152336004526024526044608051fd5b90506020813d602011613fce575b81613fb760209383614dd4565b8101031261033f57613fc890614f7a565b84613d28565b3d9150613faa565b3461033f57604036600319011261033f57600435613ff2614ccb565b613ffa615222565b614002615346565b610160546001600160a01b031661401a338483616482565b6001600160a01b03821692338414611e8d578315613f255760405163c978d8a560e01b81526001600160a01b03841660048201526024810182905292602084604481865afa9384156110895760805194614372575b5060001984146143575760405163c978d8a560e01b815233600482015260248101839052602081604481875afa9081156110895760805191614325575b506000198114611ab75785331415908161431a575b50611b04576001600160a01b03811660009081526101696020526040902092600019946080515060606080518654905b8181106142c8575b505060001987146142ad576040519263734c619f60e01b8452602060048501526020848061412a6024820186614e6a565b0381845afa9384156110895760805194614279575b50803b1561033f5761416f9360405180958194829363be92c6db60e01b8452896080519833928d600488016153a6565b0391608051905af1801561108957614260575b50600183541160001461422257825460001981019190821161194c576141c7846118dd6000805160206165aa833981519152976118d76118cf6141e29760209a61538a565b6001600160a01b0316600090815261016a6020526040902090565b8160805152825261421060406080512060046000918281558260018201558260028201558260038201550155565b604051908152a2600160fb5560805180f35b6000805160206165aa8339815191529350602092508061425b6119886141e29360018060a01b0316600052610169602052604060002090565b6141c7565b60805161426c91614dd4565b60805161033f5785614182565b9093506020813d6020116142a5575b8161429560209383614dd4565b8101031261107c5751928961413f565b3d9150614288565b848863984b4d5f60e01b608051526004526024526044608051fd5b866142d3828a61538a565b50541480614302575b6142e8576001016140f1565b9750505060026142fb611a12888861538a565b88806140f9565b5060ff6004614311838b61538a565b500154166142dc565b9050841115866140c1565b90506020813d60201161434f575b8161434060209383614dd4565b8101031261107c5751866140ac565b3d9150614333565b508363984b4d5f60e01b608051526004526024526044608051fd5b9093506020813d60201161439e575b8161438e60209383614dd4565b8101031261107c5751928561406f565b3d9150614381565b3461033f5760805136600319011261033f5760206040517f2218ef3916717733d36fbf8ca2c15c4eb9f6aa6e0d2757fbab6fccf43189f9938152f35b3461033f57602036600319011261033f5760043580608051526101676020526006604060805120015460ff8116156136125760405160089190911c6001600160a01b03168152602090f35b3461033f57602036600319011261033f57600435614449615222565b610160546080805183905261016760205251604090206001600160a01b03909116918061464d575090600a8201549161448183614f8e565b156146345760805160805152610177602052604060805120541561461b5760018101546001600160a01b031692338490036145ff576144bf90614f8e565b156145e8576006810191825460ff81166145d05760ff19166001179283905560405163074ced8760e41b815290602090829060049082905afa908115611089576080519161457c575b50907f2a8c84aeff3982794874343ba9879a1a898d988264649bf5b041180d6c14288092826145559360078401556040519384936080518552608060208601526002608086019101615026565b60089290921c6001600160a01b0316604084015260608301520390a2600160fb5560805180f35b9190506020823d6020116145c8575b8161459860209383614dd4565b8101031261107c5790517f2a8c84aeff3982794874343ba9879a1a898d988264649bf5b041180d6c142880614508565b3d915061458b565b82546307129c3b60e41b608051526004526024608051fd5b54637fa5a5a360e11b608051526004526024608051fd5b50546303c2deb360e41b60805152336004526024526044608051fd5b63354952d960e21b608051526080516004526024608051fd5b637fa5a5a360e11b608051526080516004526024608051fd5b6146583333856162a1565b6040516362d4106760e11b8152336004820152602081602481875afa801561108957608051906148c0575b6001915011611b04576001820180546001600160a01b0316939084156130a6576006840191825460ff81166148a9576146bf600a870154614f8e565b15614892578460805152610177602052604060805120541561487b5760019060ff19161783556301e1338042019586421161194c5761470e90600787019788556147076152c8565b9086616130565b60405163734c619f60e01b81526020600482018190528180614732602482016152a6565b0381855afa9081156110895760805191614849575b5082546001600160a01b031690823b1561033f57614781926040518080958194632fa28d9b60e21b83526080519633918c600486016152f5565b0391608051905af180156110895761482a575b50907f2a8c84aeff3982794874343ba9879a1a898d988264649bf5b041180d6c1428806148086000805160206165ca83398151915295614822959460018060a01b0390541697889460018060a01b03905460081c169054604051938493888552608060208601526002608086019101615026565b91604084015260608301520390a260405191829182615331565b0390a2612cc3565b6080519193929161483a91614dd4565b60805161033f57909185614794565b90506020813d602011614873575b8161486460209383614dd4565b8101031261107c575187614747565b3d9150614857565b8463354952d960e21b608051526004526024608051fd5b84637fa5a5a360e11b608051526004526024608051fd5b846307129c3b60e41b608051526004526024608051fd5b506020813d6020116148eb575b816148da60209383614dd4565b8101031261107c5760019051614683565b3d91506148cd565b3461033f57604036600319011261033f5760043561490f614ccb565b614917615222565b610160546001600160a01b0316918015614c7e57806080515261016760205260406080512090600182019360018060a01b0385541694338603614c63576001600160a01b038516938415611e635760070154421015614c4c576001600160a01b0385166000908152610169602052604090205461054c576080515b6001600160a01b038616600090815261016b6020526040902054811015614a1f576001600160a01b038616600090815261016b602052604090206149d7908290615278565b90549060031b1c6149fb8760018060a01b031660005261016a602052604060002090565b906080515260205260ff6004604060805120015460a01c1661054c57600101614992565b5084866040519063734c619f60e01b82526020600483015260208280614a47602482016152a6565b0381885afa9182156110895760805192614c18575b506040519063490e122960e11b82526020600483015260208280614a82602482016152a6565b0381895afa9182156110895760805192614be4575b50853b1561033f576040519163be92c6db60e01b83528760048401528360248401526044830152606482015233608482015260c060a48201526080518180614ae160c482016152a6565b0381608051895af1801561108957614bd2575b5082546001600160a01b0319811687179093556001600160a01b0390921691614b25614b1e6152c8565b8387616130565b833b1561033f57614b52936040518080968194632fa28d9b60e21b83526080519633918b600486016152f5565b0391608051905af1918215611089578492614bb4575b5091611752916000805160206165ca833981519152937fa92c3801cef41d233be32c643289fac4c3a1bb92ae97de264c0d111bab69898b6020604051858152a360405191829182615331565b614bc391925060805190614dd4565b60805161033f57829084614b68565b608051614bde91614dd4565b86614af4565b9091506020813d602011614c10575b81614c0060209383614dd4565b8101031261033f57519088614a97565b3d9150614bf3565b9091506020813d602011614c44575b81614c3460209383614dd4565b8101031261033f57519087614a5c565b3d9150614c27565b635354cee360e11b60805152336004526024608051fd5b826303c2deb360e41b60805152336004526024526044608051fd5b6319bb402960e01b60805152336004526024608051fd5b3461033f57602036600319011261033f576004359063ffffffff60e01b821680920361033f576020916301ffc9a760e01b148152f35b602435906001600160a01b038216820361107c57565b600435906001600160a01b038216820361107c57565b35906001600160a01b038216820361107c57565b3461107c57600036600319011261107c57610160546040516001600160a01b039091168152602090f35b604081019081106001600160401b03821117614d5057604052565b634e487b7160e01b600052604160045260246000fd5b60a081019081106001600160401b03821117614d5057604052565b61014081019081106001600160401b03821117614d5057604052565b60c081019081106001600160401b03821117614d5057604052565b61018081019081106001600160401b03821117614d5057604052565b90601f801991011681019081106001600160401b03821117614d5057604052565b6001600160401b038111614d5057601f01601f191660200190565b929192614e1c82614df5565b91614e2a6040519384614dd4565b82948184528183011161107c578281602093846000960137010152565b60005b838110614e5a5750506000910152565b8181015183820152602001614e4a565b90602091614e8381518092818552858086019101614e47565b601f01601f1916010190565b614eb9916020614ea88351604084526040840190614e6a565b920151906020818403910152614e6a565b90565b9080601f8301121561107c57816020614eb993359101614e10565b6001600160401b038111614d505760051b60200190565b359060ff8216820361107c57565b9080601f8301121561107c578135614f1381614ed7565b92614f216040519485614dd4565b81845260208085019260051b8201019183831161107c5760208201905b838210614f4d57505050505090565b81356001600160401b03811161107c57602091614f6f87848094880101614ebc565b815201910190614f3e565b51906001600160a01b038216820361107c57565b90600182811c92168015614fbe575b6020831014614fa857565b634e487b7160e01b600052602260045260246000fd5b91607f1691614f9d565b818110614fd3575050565b60008155600101614fc8565b9190601f8111614fee57505050565b61501a926000526020600020906020601f840160051c8301931061501c575b601f0160051c0190614fc8565b565b909150819061500d565b6000929181549161503683614f8e565b808352926001811690811561508c575060011461505257505050565b60009081526020812093945091925b838310615072575060209250010190565b600181602092949394548385870101520191019190615061565b915050602093945060ff929192191683830152151560051b010190565b90600a6101606040516150bb81614db8565b61519a81958054835260018060a01b0360018201541660208401526040516150ea81611a238160028601615026565b604084015260405161510381611a238160038601615026565b606084015260405161511c81611a238160048601615026565b608084015260405161513581611a238160058601615026565b60a0840152600681015460ff8116151560c08501526001600160a01b03600891821c811660e0860152600783015461010086015290820154811661012085015260098201541661014084015260405194859161519391839101615026565b0384614dd4565b0152565b60001981146151ad5760010190565b634e487b7160e01b600052601160045260246000fd5b604051906151d082614db8565b606061016083600081526000602082015282604082015282808201528260808201528260a0820152600060c0820152600060e08201526000610100820152600061012082015260006101408201520152565b600260fb541461523357600260fb55565b60405162461bcd60e51b815260206004820152601f60248201527f5265656e7472616e637947756172643a207265656e7472616e742063616c6c006044820152606490fd5b80548210156152905760005260206000200190600090565b634e487b7160e01b600052603260045260246000fd5b600f81526e444f4d494e55535f5341504f52495360881b602082015260400190565b604051906152d7604083614dd4565b600f82526e444f4d494e55535f5341504f52495360881b6020830152565b9081526020810191909152600360408201526001600160a01b0391821660608201529116608082015260c060a08201819052614eb991016152a6565b604090614eb9928152816020820152016152a6565b60ff60c9541661535257565b60405162461bcd60e51b815260206004820152601060248201526f14185d5cd8589b194e881c185d5cd95960821b6044820152606490fd5b8054821015615290576000526005602060002091020190600090565b908152602081019190915260408101919091526001600160a01b0391821660608201529116608082015260c060a08201819052614eb992910190614e6a565b80549060008155816153f5575050565b816005029160058304036151ad576000526020600020908101905b81811061541b575050565b6005906000815560006001820155600281016154378154614f8e565b9081615454575b5050600060038201556000600482015501615410565b81601f6000931160011461546c5750555b388061543e565b8183526020832061548791601f01861c810190600101614fc8565b8082528160208120915555615465565b919091828114615574576154ab8354614f8e565b6001600160401b038111614d50576154cd816154c78454614f8e565b84614fdf565b600093601f821160011461550e576154ff92939482916000926155035750508160011b916000199060031b1c19161790565b9055565b015490503880610705565b845260208085208386529085209094601f198316815b81811061555c57509583600195969710615543575b505050811b019055565b015460001960f88460031b161c19169055388080615539565b9192600180602092868b015481550194019201615524565b509050565b906155f057818103615589575050565b8154815560018083015490820180546001600160a01b0319166001600160a01b039290921691909117905561501a9160049060ff9082906155d06002808301908701615497565b6003810154600386015501541691019060ff801983541691151516179055565b634e487b7160e01b600052600060045260246000fd5b8054801561569457600019019061561d828261538a565b6155f05760046000918281558260018201556002810161563d8154614f8e565b9081615651575b5050826003820155015555565b81601f8693116001146156685750555b3880615644565b8183526020832061568491601f0160051c810190600101614fc8565b8082528160208120915555615661565b634e487b7160e01b600052603160045260246000fd5b60609060208152600c60208201526b546f6b656e466163746f727960a01b60408201520190565b604051906156e0604083614dd4565b6011825270434f4e5349474c494f5f5341504f52495360781b6020830152565b6011815270434f4e5349474c494f5f5341504f52495360781b602082015260400190565b9081526020810191909152600360408201526001600160a01b0391821660608201529116608082015260c060a08201819052614eb99101615700565b604090614eb992815281602082015201615700565b81601f8201121561107c57805161578b81614df5565b926157996040519485614dd4565b8184526020828401011161107c57614eb99160208085019101614e47565b5190811515820361107c57565b519060ff8216820361107c57565b80518210156152905760209160051b010190565b8060005261016760205260ff6006604060002001541615615dc25760005261017660205260406000205460206040518093632ee325db60e21b8252818061582f600482016156aa565b03916001600160a01b03165afa918215615d7857600092615d84575b50604051631d05f3d560e11b8152600481019190915290600090829060249082906001600160a01b03165afa908115615d7857600091615921575b5060005b815181101561591a5761589d81836157d2565b5151602081519101207fbb7d9f8cddc6f064ba72d0e3c1e53eb67867dd8506fa4f5d61c86189caca8ee581149081156158f0575b506158de5760010161588a565b6158ea906020926157d2565b51015190565b7ff635637ba62fd05a8c192160221386e8a7a4f08458b93e1a9885a356979e42ec915014386158d1565b5050600090565b903d8082843e6159318184614dd4565b820190608083830312615cba5782516001600160401b038111615d2b57830161012081840312615d2b576040519061012082018281106001600160401b03821117615d6457604052805182526020810151602083015260408101516001600160401b038111615d6057846159a6918301615775565b604083015260608101516001600160401b038111615d6057846159ca918301615775565b60608301526080810151608083015260a08101516001600160401b038111615d6057846159f8918301615775565b60a083015260c08101516001600160401b038111615d605761010082615a2487615a4094849601615775565b60c0860152615a3560e08201614f7a565b60e0860152016157b7565b91015260208301516001600160401b038111615d2b57830161014081840312615d2b5760405190615a7082614d81565b615a7981614f7a565b8252615a8760208201614f7a565b602083015260408101516001811015615d60576040830152606081015160608301526080810151608083015260a08101516001600160401b038111615d6057810184601f82011215615d60578051615ade81614ed7565b91615aec6040519384614dd4565b81835260208084019260061b82010190878211615cb057602001915b818310615d2f575050506101208092615b5b9260a0860152615b2c60c082016157c4565b60c0860152615b3d60e082016157b7565b60e0860152615b4f61010082016157c4565b610100860152016157c4565b91015260408301516001600160401b038111615d2b5783019282601f85011215615d2b578351615b8a81614ed7565b94615b986040519687614dd4565b81865260208087019260051b82010190858211615cb45760208101925b828410615cbd57505050506060810151906001600160401b038211615cb857019082601f83011215615cba57815192602080615bf086614ed7565b615bfd6040519182614dd4565b868152019460051b84010192818411615cb85760208101945b848610615c295750505050505038615886565b85516001600160401b038111615cb45782016040818503601f190112615cb45760405190615c5682614d35565b60208101516001600160401b038111615cb057856020615c7892840101615775565b82526040810151906001600160401b038211615cb05791615ca186602080969481960101615775565b83820152815201950194615c16565b8680fd5b8480fd5b825b80fd5b83516001600160401b038111615cb05782016040818903601f190112615cb05760405190615cea82614d35565b60208101516001600160401b038111615d275791604082615d148c60208098969781980101615775565b8352015183820152815201930192615bb5565b8880fd5b5080fd5b604083890312615cb05760206040918251615d4981614d35565b855181528286015183820152815201920191615b08565b8380fd5b634e487b7160e01b84526041600452602484fd5b6040513d6000823e3d90fd5b9091506020813d602011615dba575b81615da060209383614dd4565b8101031261107c57615db3600091614f7a565b919061584b565b3d9150615d93565b632b13157760e11b60005260045260246000fd5b15615ddd57565b60405162461bcd60e51b815260206004820152602b60248201527f496e697469616c697a61626c653a20636f6e7472616374206973206e6f74206960448201526a6e697469616c697a696e6760a81b6064820152608490fd5b603380546001600160a01b039283166001600160a01b0319821681179092559091167f8be0079c531659141344cd1fd0a4f28419497f9722a3daafe3b4186f6b6457e0600080a3565b8160005261016760205260ff6006604060002001541615615fca576040516362d4106760e11b81526001600160a01b03848116600483015290929116602083602481845afa928315615d7857600093615f96575b5081615f0157505090506000198114615efb578015908115615ef3575090565b600191501490565b50600090565b60405163c978d8a560e01b81526001600160a01b03949094166004850152602484019190915260209150829060449082905afa908115615d7857600091615f64575b506000198114615efb5760038114908115615f5c575090565b600491501490565b906020823d602011615f8e575b81615f7e60209383614dd4565b81010312615cba57505138615f43565b3d9150615f71565b90926020823d602011615fc2575b81615fb160209383614dd4565b81010312615cba5750519138615ed3565b3d9150615fa4565b505050600090565b8054600160401b811015614d5057615fef9160018201815561538a565b9190916155f0578051825560208101516001830180546001600160a01b0319166001600160a01b03929092169190911790556040810151805160028401916001600160401b038211614d5057616049826106e18554614f8e565b602090601f83116001146160a857926160848360809461501a989794600497600092610cc65750508160011b916000199060031b1c19161790565b90555b606081015160038501550151151591019060ff801983541691151516179055565b90601f1983169184600052816000209260005b81811061610157509361501a9796936004969360019383608098106160e8575b505050811b019055616087565b015160001960f88460031b161c191690553880806160db565b929360206001819287860151815501950193016160bb565b604090614eb9939281528160208201520190614e6a565b6001600160a01b039091169190821561628c57906000805160206165ca833981519152918360005261016960205261619560406000206040519061617382614d66565b8382528660208301528460408301526003606083015260016080830152615fd2565b60405160208101906161c360208286516161b28187858b01614e47565b81010301601f198101835282614dd4565b5190206040516161d281614d9d565b828152602080820187815260408084019485526003606085018181523360808701908152600160a080890182815260008f815261016a8a528781208d82529099529786902098518955955190880180546001600160a01b0319166001600160a01b039283161790559751600288015590519186019190915551600494909401805493516001600160a81b03199094169490951693909317911515901b60ff60a01b161790915551918291616287919083616119565b0390a2565b82633202e20d60e21b60005260045260246000fd5b6040516362d4106760e11b81526001600160a01b0392831660048201819052939190921691602081602481865afa908115615d7857849060009261644d575b5060405163074ced8760e41b8152600192909214936001600160a01b03909316149190602081600481855afa908115615d785760009161641b575b504210156163515750159081616348575b506163345750565b6377efd02b60e11b60005260045260246000fd5b9050153861632c565b90604051632ee325db60e21b815260206004820152600360248201526244414f60e81b6044820152602081606481865afa908115615d78576000916163e1575b506001600160a01b03169182156163cd57501591826163c4575b50816163b957506163345750565b90508114153861632c565b159150386163ab565b637361709960e01b60005260045260246000fd5b90506020813d602011616413575b816163fc60209383614dd4565b8101031261107c5761640d90614f7a565b38616391565b3d91506163ef565b90506020813d602011616445575b8161643660209383614dd4565b8101031261107c57513861631b565b3d9150616429565b9150506020813d60201161647a575b8161646960209383614dd4565b8101031261107c57518360016162e0565b3d915061645c565b918160005261016760205260ff6006604060002001541615616594576040516362d4106760e11b81526001600160a01b03918216600482018190529390929160209184916024918391165afa918215615d7857600092616560575b508061653757600019821461651f57508015159081616513575b506164ff5750565b6303d1bc5d60e51b60005260045260246000fd5b600191501415386164f7565b826331f1d99960e21b60005260045260245260446000fd5b600019821461651f57506003811415908161655457506164ff5750565b600491501415386164f7565b90916020823d60201161658c575b8161657b60209383614dd4565b81010312615cba57505190386164dd565b3d915061656e565b50632b13157760e11b60005260045260246000fdfef62c903ca15668006710c4411b74e3acb9efabe0d10bece1a2912050499f7efdbc6cd93a5a69dae46517fc4b81c3c705973b0fabb816aae5d0ff7a077c4d5d18a26469706673582212205ab5f0e40483eebb1d87f824ee4b0075d0b60c083010ab33fef8dae85826e4c064736f6c634300081c0033",
  "linkReferences": {},
  "deployedLinkReferences": {}
}