{
  "_format": "hh-sol-artifact-1",
  "contractName": "VanellixCompanyMultiToken",
  "sourceName": "contracts/modules/VanellixCompanyMultiToken.sol",
  "abi": [
    {
      "inputs": [
        {
          "internalType": "address",
          "name": "sender",
          "type": "address"
        }
      ],
      "name": "AccountHasGlobalRole",
      "type": "error"
    },
    {
      "inputs": [],
      "name": "CallerNotLaunchpadOwner",
      "type": "error"
    },
    {
      "inputs": [
        {
          "internalType": "address",
          "name": "sender",
          "type": "address"
        }
      ],
      "name": "CallerNotLaunchpadOwnerCompany",
      "type": "error"
    },
    {
      "inputs": [
        {
          "internalType": "uint256",
          "name": "companyId",
          "type": "uint256"
        }
      ],
      "name": "CompanyAddressRequired",
      "type": "error"
    },
    {
      "inputs": [
        {
          "internalType": "uint256",
          "name": "companyId",
          "type": "uint256"
        }
      ],
      "name": "CompanyAlreadyRegistered",
      "type": "error"
    },
    {
      "inputs": [
        {
          "internalType": "uint256",
          "name": "companyId",
          "type": "uint256"
        }
      ],
      "name": "CompanyCountryRequired",
      "type": "error"
    },
    {
      "inputs": [
        {
          "internalType": "uint256",
          "name": "companyId",
          "type": "uint256"
        }
      ],
      "name": "CompanyDINRequired",
      "type": "error"
    },
    {
      "inputs": [
        {
          "internalType": "uint256",
          "name": "companyId",
          "type": "uint256"
        }
      ],
      "name": "CompanyIsActive",
      "type": "error"
    },
    {
      "inputs": [
        {
          "internalType": "uint256",
          "name": "companyId",
          "type": "uint256"
        }
      ],
      "name": "CompanyNameRequired",
      "type": "error"
    },
    {
      "inputs": [
        {
          "internalType": "uint256",
          "name": "companyId",
          "type": "uint256"
        }
      ],
      "name": "CompanyNotActive",
      "type": "error"
    },
    {
      "inputs": [
        {
          "internalType": "uint256",
          "name": "companyId",
          "type": "uint256"
        }
      ],
      "name": "DaoAlreadySet",
      "type": "error"
    },
    {
      "inputs": [
        {
          "internalType": "address",
          "name": "sender",
          "type": "address"
        }
      ],
      "name": "DaoTransitionAlreadyStarted",
      "type": "error"
    },
    {
      "inputs": [
        {
          "internalType": "address",
          "name": "sender",
          "type": "address"
        }
      ],
      "name": "InsufficientPermission",
      "type": "error"
    },
    {
      "inputs": [
        {
          "internalType": "uint256",
          "name": "companyId",
          "type": "uint256"
        }
      ],
      "name": "InvalidCompanyId",
      "type": "error"
    },
    {
      "inputs": [
        {
          "internalType": "uint256",
          "name": "roleLevel",
          "type": "uint256"
        }
      ],
      "name": "InvalidCompanyRoleLevel",
      "type": "error"
    },
    {
      "inputs": [
        {
          "internalType": "address",
          "name": "sender",
          "type": "address"
        }
      ],
      "name": "InvalidContractAddress",
      "type": "error"
    },
    {
      "inputs": [
        {
          "internalType": "uint256",
          "name": "tokenId",
          "type": "uint256"
        }
      ],
      "name": "InvalidTokenId",
      "type": "error"
    },
    {
      "inputs": [],
      "name": "LaunchpadNotConfigured",
      "type": "error"
    },
    {
      "inputs": [
        {
          "internalType": "address",
          "name": "sender",
          "type": "address"
        }
      ],
      "name": "LaunchpadNotConfigured",
      "type": "error"
    },
    {
      "inputs": [
        {
          "internalType": "uint256",
          "name": "requiredPercentage",
          "type": "uint256"
        }
      ],
      "name": "MaximumLiquidityPercentageRequired",
      "type": "error"
    },
    {
      "inputs": [
        {
          "internalType": "uint256",
          "name": "requiredPercentage",
          "type": "uint256"
        }
      ],
      "name": "MinimumLiquidityPercentageRequired",
      "type": "error"
    },
    {
      "inputs": [
        {
          "internalType": "address",
          "name": "sender",
          "type": "address"
        }
      ],
      "name": "NotAuthorized",
      "type": "error"
    },
    {
      "inputs": [
        {
          "internalType": "address",
          "name": "sender",
          "type": "address"
        },
        {
          "internalType": "uint256",
          "name": "companyId",
          "type": "uint256"
        }
      ],
      "name": "NotAuthorizedCaller",
      "type": "error"
    },
    {
      "inputs": [
        {
          "internalType": "address",
          "name": "sender",
          "type": "address"
        },
        {
          "internalType": "uint256",
          "name": "companyId",
          "type": "uint256"
        }
      ],
      "name": "NotAuthorizedCompany",
      "type": "error"
    },
    {
      "inputs": [
        {
          "internalType": "address",
          "name": "sender",
          "type": "address"
        }
      ],
      "name": "NotAuthorizedForCompanyRegistration",
      "type": "error"
    },
    {
      "inputs": [
        {
          "internalType": "address",
          "name": "sender",
          "type": "address"
        },
        {
          "internalType": "uint256",
          "name": "companyId",
          "type": "uint256"
        }
      ],
      "name": "NotCompanyDao",
      "type": "error"
    },
    {
      "inputs": [
        {
          "internalType": "address",
          "name": "sender",
          "type": "address"
        },
        {
          "internalType": "uint256",
          "name": "companyId",
          "type": "uint256"
        }
      ],
      "name": "NotCompanyMember",
      "type": "error"
    },
    {
      "inputs": [
        {
          "internalType": "address",
          "name": "sender",
          "type": "address"
        },
        {
          "internalType": "uint256",
          "name": "companyId",
          "type": "uint256"
        }
      ],
      "name": "NotCompanyOwner",
      "type": "error"
    },
    {
      "inputs": [
        {
          "internalType": "address",
          "name": "sender",
          "type": "address"
        }
      ],
      "name": "NotLaunchpadOwner",
      "type": "error"
    },
    {
      "inputs": [
        {
          "internalType": "address",
          "name": "sender",
          "type": "address"
        }
      ],
      "name": "NotOwnerNorAdmin",
      "type": "error"
    },
    {
      "inputs": [
        {
          "internalType": "uint256",
          "name": "companyId",
          "type": "uint256"
        }
      ],
      "name": "NotRegisteredCompany",
      "type": "error"
    },
    {
      "inputs": [
        {
          "internalType": "address",
          "name": "sender",
          "type": "address"
        }
      ],
      "name": "OnlyConsiglioOrGlobalAdmin",
      "type": "error"
    },
    {
      "inputs": [],
      "name": "RenounceOwnershipDisabled",
      "type": "error"
    },
    {
      "inputs": [
        {
          "internalType": "address",
          "name": "user",
          "type": "address"
        }
      ],
      "name": "RoleAssignmentFailed",
      "type": "error"
    },
    {
      "inputs": [
        {
          "internalType": "string",
          "name": "role",
          "type": "string"
        }
      ],
      "name": "RoleDoesNotExist",
      "type": "error"
    },
    {
      "inputs": [],
      "name": "RoleRequired",
      "type": "error"
    },
    {
      "inputs": [
        {
          "internalType": "address",
          "name": "sender",
          "type": "address"
        }
      ],
      "name": "SameAdrressError",
      "type": "error"
    },
    {
      "inputs": [
        {
          "internalType": "uint256",
          "name": "companyId",
          "type": "uint256"
        }
      ],
      "name": "TokenAlreadyFinalized",
      "type": "error"
    },
    {
      "inputs": [
        {
          "internalType": "uint256",
          "name": "companyId",
          "type": "uint256"
        }
      ],
      "name": "TokenNotFizalized",
      "type": "error"
    },
    {
      "inputs": [],
      "name": "TransferOwnershipDirectDisabled",
      "type": "error"
    },
    {
      "inputs": [],
      "name": "UnauthorizedCaller",
      "type": "error"
    },
    {
      "inputs": [],
      "name": "UpgradeToAndCallDisabled",
      "type": "error"
    },
    {
      "inputs": [
        {
          "internalType": "address",
          "name": "user",
          "type": "address"
        }
      ],
      "name": "UserNotAllowedToJoinCompany",
      "type": "error"
    },
    {
      "inputs": [
        {
          "internalType": "address",
          "name": "user",
          "type": "address"
        },
        {
          "internalType": "uint256",
          "name": "companyId",
          "type": "uint256"
        }
      ],
      "name": "UserNotRegistered",
      "type": "error"
    },
    {
      "inputs": [
        {
          "internalType": "address",
          "name": "wallet",
          "type": "address"
        }
      ],
      "name": "WalletAlreadyAssociated",
      "type": "error"
    },
    {
      "inputs": [
        {
          "internalType": "address",
          "name": "sender",
          "type": "address"
        }
      ],
      "name": "ZeroAddress",
      "type": "error"
    },
    {
      "anonymous": false,
      "inputs": [
        {
          "indexed": false,
          "internalType": "address",
          "name": "previousAdmin",
          "type": "address"
        },
        {
          "indexed": false,
          "internalType": "address",
          "name": "newAdmin",
          "type": "address"
        }
      ],
      "name": "AdminChanged",
      "type": "event"
    },
    {
      "anonymous": false,
      "inputs": [
        {
          "indexed": true,
          "internalType": "address",
          "name": "beacon",
          "type": "address"
        }
      ],
      "name": "BeaconUpgraded",
      "type": "event"
    },
    {
      "anonymous": false,
      "inputs": [
        {
          "indexed": true,
          "internalType": "address",
          "name": "owner",
          "type": "address"
        },
        {
          "indexed": false,
          "internalType": "uint256",
          "name": "companyId",
          "type": "uint256"
        },
        {
          "indexed": false,
          "internalType": "string",
          "name": "name",
          "type": "string"
        },
        {
          "indexed": false,
          "internalType": "address",
          "name": "daoAddress",
          "type": "address"
        },
        {
          "indexed": false,
          "internalType": "uint256",
          "name": "transitionTimestamp",
          "type": "uint256"
        }
      ],
      "name": "CompanyActivated",
      "type": "event"
    },
    {
      "anonymous": false,
      "inputs": [
        {
          "indexed": true,
          "internalType": "address",
          "name": "oldOwner",
          "type": "address"
        },
        {
          "indexed": true,
          "internalType": "address",
          "name": "newOwner",
          "type": "address"
        },
        {
          "indexed": false,
          "internalType": "uint256",
          "name": "companyId",
          "type": "uint256"
        }
      ],
      "name": "CompanyOwnerChanged",
      "type": "event"
    },
    {
      "anonymous": false,
      "inputs": [
        {
          "indexed": true,
          "internalType": "address",
          "name": "owner",
          "type": "address"
        },
        {
          "indexed": false,
          "internalType": "uint256",
          "name": "companyId",
          "type": "uint256"
        },
        {
          "indexed": false,
          "internalType": "string",
          "name": "name",
          "type": "string"
        },
        {
          "indexed": false,
          "internalType": "string",
          "name": "din",
          "type": "string"
        },
        {
          "indexed": false,
          "internalType": "string",
          "name": "companyAddress",
          "type": "string"
        },
        {
          "indexed": false,
          "internalType": "string",
          "name": "country",
          "type": "string"
        }
      ],
      "name": "CompanyRegistered",
      "type": "event"
    },
    {
      "anonymous": false,
      "inputs": [
        {
          "indexed": true,
          "internalType": "uint256",
          "name": "companyId",
          "type": "uint256"
        },
        {
          "indexed": false,
          "internalType": "address",
          "name": "oldDaoAddress",
          "type": "address"
        },
        {
          "indexed": false,
          "internalType": "address",
          "name": "newDaoAddress",
          "type": "address"
        }
      ],
      "name": "DaoChanged",
      "type": "event"
    },
    {
      "anonymous": false,
      "inputs": [
        {
          "indexed": true,
          "internalType": "uint256",
          "name": "companyId",
          "type": "uint256"
        },
        {
          "indexed": false,
          "internalType": "address",
          "name": "daoAddress",
          "type": "address"
        }
      ],
      "name": "DaoInitialized",
      "type": "event"
    },
    {
      "anonymous": false,
      "inputs": [
        {
          "indexed": true,
          "internalType": "uint256",
          "name": "companyId",
          "type": "uint256"
        },
        {
          "indexed": false,
          "internalType": "address",
          "name": "governanceTokenProxy",
          "type": "address"
        }
      ],
      "name": "GovernanceTokenProxySet",
      "type": "event"
    },
    {
      "anonymous": false,
      "inputs": [
        {
          "indexed": false,
          "internalType": "uint8",
          "name": "version",
          "type": "uint8"
        }
      ],
      "name": "Initialized",
      "type": "event"
    },
    {
      "anonymous": false,
      "inputs": [
        {
          "indexed": true,
          "internalType": "address",
          "name": "previousOwner",
          "type": "address"
        },
        {
          "indexed": true,
          "internalType": "address",
          "name": "newOwner",
          "type": "address"
        }
      ],
      "name": "OwnershipTransferred",
      "type": "event"
    },
    {
      "anonymous": false,
      "inputs": [
        {
          "indexed": false,
          "internalType": "address",
          "name": "account",
          "type": "address"
        }
      ],
      "name": "Paused",
      "type": "event"
    },
    {
      "anonymous": false,
      "inputs": [
        {
          "indexed": false,
          "internalType": "address",
          "name": "account",
          "type": "address"
        }
      ],
      "name": "Unpaused",
      "type": "event"
    },
    {
      "anonymous": false,
      "inputs": [
        {
          "indexed": true,
          "internalType": "address",
          "name": "implementation",
          "type": "address"
        }
      ],
      "name": "Upgraded",
      "type": "event"
    },
    {
      "anonymous": false,
      "inputs": [
        {
          "indexed": true,
          "internalType": "address",
          "name": "wallet",
          "type": "address"
        },
        {
          "indexed": false,
          "internalType": "uint256",
          "name": "companyId",
          "type": "uint256"
        },
        {
          "indexed": false,
          "internalType": "string",
          "name": "role",
          "type": "string"
        }
      ],
      "name": "UserRegistered",
      "type": "event"
    },
    {
      "anonymous": false,
      "inputs": [
        {
          "indexed": true,
          "internalType": "address",
          "name": "wallet",
          "type": "address"
        },
        {
          "indexed": false,
          "internalType": "uint256",
          "name": "companyId",
          "type": "uint256"
        }
      ],
      "name": "UserRemoved",
      "type": "event"
    },
    {
      "anonymous": false,
      "inputs": [
        {
          "indexed": true,
          "internalType": "uint256",
          "name": "companyId",
          "type": "uint256"
        },
        {
          "indexed": false,
          "internalType": "address",
          "name": "utilityTokenProxy",
          "type": "address"
        }
      ],
      "name": "UtilityTokenProxySet",
      "type": "event"
    },
    {
      "anonymous": false,
      "inputs": [
        {
          "indexed": true,
          "internalType": "address",
          "name": "newWrappedTokenImpl",
          "type": "address"
        }
      ],
      "name": "WrappedTokenImplementationSet",
      "type": "event"
    },
    {
      "inputs": [
        {
          "internalType": "uint256",
          "name": "companyId",
          "type": "uint256"
        }
      ],
      "name": "activateCompany",
      "outputs": [],
      "stateMutability": "nonpayable",
      "type": "function"
    },
    {
      "inputs": [],
      "name": "daoTransitionTimestamp",
      "outputs": [
        {
          "internalType": "uint256",
          "name": "",
          "type": "uint256"
        }
      ],
      "stateMutability": "view",
      "type": "function"
    },
    {
      "inputs": [
        {
          "internalType": "uint256",
          "name": "companyId",
          "type": "uint256"
        },
        {
          "components": [
            {
              "internalType": "string",
              "name": "name",
              "type": "string"
            },
            {
              "internalType": "string",
              "name": "symbol",
              "type": "string"
            },
            {
              "internalType": "uint256",
              "name": "totalSupply",
              "type": "uint256"
            },
            {
              "internalType": "string",
              "name": "description",
              "type": "string"
            },
            {
              "internalType": "string",
              "name": "imagePath",
              "type": "string"
            }
          ],
          "internalType": "struct CompanyTokenStructs.TokenConfig",
          "name": "tokenConfig",
          "type": "tuple"
        },
        {
          "components": [
            {
              "internalType": "address",
              "name": "immediateWallet",
              "type": "address"
            },
            {
              "internalType": "address",
              "name": "lockedWallet",
              "type": "address"
            },
            {
              "internalType": "enum CompanyTokenStructs.VestingType",
              "name": "vestingType",
              "type": "uint8"
            },
            {
              "internalType": "uint256",
              "name": "startBlock",
              "type": "uint256"
            },
            {
              "internalType": "uint256",
              "name": "startTimestamp",
              "type": "uint256"
            },
            {
              "components": [
                {
                  "internalType": "uint256",
                  "name": "releaseBlock",
                  "type": "uint256"
                },
                {
                  "internalType": "uint256",
                  "name": "percentage",
                  "type": "uint256"
                }
              ],
              "internalType": "struct CompanyTokenStructs.VestingSchedule[]",
              "name": "vestingSchedule",
              "type": "tuple[]"
            },
            {
              "internalType": "uint8",
              "name": "vestingScheduleCount",
              "type": "uint8"
            },
            {
              "internalType": "bool",
              "name": "autoMode",
              "type": "bool"
            },
            {
              "internalType": "uint8",
              "name": "immediateUnlockPercentage",
              "type": "uint8"
            },
            {
              "internalType": "uint8",
              "name": "progressiveYears",
              "type": "uint8"
            }
          ],
          "internalType": "struct CompanyTokenStructs.MultiVestingConfig",
          "name": "vestingConfig",
          "type": "tuple"
        },
        {
          "components": [
            {
              "internalType": "string",
              "name": "name",
              "type": "string"
            },
            {
              "internalType": "uint256",
              "name": "percentage",
              "type": "uint256"
            }
          ],
          "internalType": "struct CompanyTokenStructs.FundUsage[]",
          "name": "fundUsages",
          "type": "tuple[]"
        },
        {
          "components": [
            {
              "internalType": "string",
              "name": "name",
              "type": "string"
            },
            {
              "internalType": "string",
              "name": "url",
              "type": "string"
            }
          ],
          "internalType": "struct CompanyTokenStructs.Document[]",
          "name": "documents",
          "type": "tuple[]"
        }
      ],
      "name": "finalizeCompanyToken",
      "outputs": [
        {
          "internalType": "uint256",
          "name": "tokenId",
          "type": "uint256"
        }
      ],
      "stateMutability": "nonpayable",
      "type": "function"
    },
    {
      "inputs": [],
      "name": "getAdminRole",
      "outputs": [
        {
          "internalType": "bytes32",
          "name": "",
          "type": "bytes32"
        }
      ],
      "stateMutability": "view",
      "type": "function"
    },
    {
      "inputs": [
        {
          "internalType": "uint256",
          "name": "companyId",
          "type": "uint256"
        }
      ],
      "name": "getCompanyAddress",
      "outputs": [
        {
          "internalType": "address",
          "name": "",
          "type": "address"
        }
      ],
      "stateMutability": "view",
      "type": "function"
    },
    {
      "inputs": [
        {
          "internalType": "uint256",
          "name": "companyId",
          "type": "uint256"
        }
      ],
      "name": "getCompanyDao",
      "outputs": [
        {
          "internalType": "address",
          "name": "",
          "type": "address"
        }
      ],
      "stateMutability": "view",
      "type": "function"
    },
    {
      "inputs": [
        {
          "internalType": "uint256",
          "name": "companyId",
          "type": "uint256"
        }
      ],
      "name": "getCompanyDaoTransitionTimestamp",
      "outputs": [
        {
          "internalType": "uint256",
          "name": "",
          "type": "uint256"
        }
      ],
      "stateMutability": "view",
      "type": "function"
    },
    {
      "inputs": [
        {
          "internalType": "uint256",
          "name": "companyId",
          "type": "uint256"
        }
      ],
      "name": "getCompanyData",
      "outputs": [
        {
          "components": [
            {
              "internalType": "uint256",
              "name": "id",
              "type": "uint256"
            },
            {
              "internalType": "address",
              "name": "owner",
              "type": "address"
            },
            {
              "internalType": "string",
              "name": "name",
              "type": "string"
            },
            {
              "internalType": "string",
              "name": "din",
              "type": "string"
            },
            {
              "internalType": "string",
              "name": "companyAddress",
              "type": "string"
            },
            {
              "internalType": "string",
              "name": "country",
              "type": "string"
            },
            {
              "internalType": "bool",
              "name": "isActive",
              "type": "bool"
            },
            {
              "internalType": "address",
              "name": "daoAddress",
              "type": "address"
            },
            {
              "internalType": "uint256",
              "name": "companyDaoTransitionTimestamp",
              "type": "uint256"
            },
            {
              "internalType": "address",
              "name": "governanceTokenProxy",
              "type": "address"
            },
            {
              "internalType": "address",
              "name": "utilityTokenProxy",
              "type": "address"
            }
          ],
          "internalType": "struct CompanyStruct.CompanyData",
          "name": "",
          "type": "tuple"
        }
      ],
      "stateMutability": "view",
      "type": "function"
    },
    {
      "inputs": [
        {
          "internalType": "uint256",
          "name": "companyId",
          "type": "uint256"
        }
      ],
      "name": "getCompanyLiquidity",
      "outputs": [
        {
          "internalType": "uint256",
          "name": "",
          "type": "uint256"
        }
      ],
      "stateMutability": "view",
      "type": "function"
    },
    {
      "inputs": [],
      "name": "getImplementationType",
      "outputs": [
        {
          "internalType": "bytes32",
          "name": "",
          "type": "bytes32"
        }
      ],
      "stateMutability": "pure",
      "type": "function"
    },
    {
      "inputs": [],
      "name": "getLaunchpadAddress",
      "outputs": [
        {
          "internalType": "address",
          "name": "",
          "type": "address"
        }
      ],
      "stateMutability": "view",
      "type": "function"
    },
    {
      "inputs": [],
      "name": "getLaunchpadDomAddress",
      "outputs": [
        {
          "internalType": "address",
          "name": "",
          "type": "address"
        }
      ],
      "stateMutability": "view",
      "type": "function"
    },
    {
      "inputs": [],
      "name": "getMyAddress",
      "outputs": [
        {
          "internalType": "address",
          "name": "",
          "type": "address"
        }
      ],
      "stateMutability": "view",
      "type": "function"
    },
    {
      "inputs": [],
      "name": "getOwner",
      "outputs": [
        {
          "internalType": "address",
          "name": "",
          "type": "address"
        }
      ],
      "stateMutability": "view",
      "type": "function"
    },
    {
      "inputs": [],
      "name": "getWrappedTokenImplementation",
      "outputs": [
        {
          "internalType": "address",
          "name": "",
          "type": "address"
        }
      ],
      "stateMutability": "view",
      "type": "function"
    },
    {
      "inputs": [
        {
          "internalType": "address",
          "name": "_wrappedTokenImpl",
          "type": "address"
        },
        {
          "internalType": "address",
          "name": "_launchpadAddress",
          "type": "address"
        }
      ],
      "name": "initialize",
      "outputs": [],
      "stateMutability": "nonpayable",
      "type": "function"
    },
    {
      "inputs": [
        {
          "internalType": "uint256",
          "name": "companyId",
          "type": "uint256"
        },
        {
          "internalType": "address",
          "name": "caller",
          "type": "address"
        }
      ],
      "name": "isCompanyAuthorized",
      "outputs": [
        {
          "internalType": "bool",
          "name": "",
          "type": "bool"
        }
      ],
      "stateMutability": "view",
      "type": "function"
    },
    {
      "inputs": [],
      "name": "nextCompanyId",
      "outputs": [
        {
          "internalType": "uint256",
          "name": "",
          "type": "uint256"
        }
      ],
      "stateMutability": "view",
      "type": "function"
    },
    {
      "inputs": [],
      "name": "owner",
      "outputs": [
        {
          "internalType": "address",
          "name": "",
          "type": "address"
        }
      ],
      "stateMutability": "view",
      "type": "function"
    },
    {
      "inputs": [],
      "name": "pause",
      "outputs": [],
      "stateMutability": "nonpayable",
      "type": "function"
    },
    {
      "inputs": [],
      "name": "paused",
      "outputs": [
        {
          "internalType": "bool",
          "name": "",
          "type": "bool"
        }
      ],
      "stateMutability": "view",
      "type": "function"
    },
    {
      "inputs": [],
      "name": "proxiableUUID",
      "outputs": [
        {
          "internalType": "bytes32",
          "name": "",
          "type": "bytes32"
        }
      ],
      "stateMutability": "view",
      "type": "function"
    },
    {
      "inputs": [
        {
          "internalType": "string",
          "name": "companyName",
          "type": "string"
        },
        {
          "internalType": "string",
          "name": "companyDIN",
          "type": "string"
        },
        {
          "internalType": "string",
          "name": "companyAddr",
          "type": "string"
        },
        {
          "internalType": "string",
          "name": "companyCountry",
          "type": "string"
        }
      ],
      "name": "registerCompany",
      "outputs": [],
      "stateMutability": "nonpayable",
      "type": "function"
    },
    {
      "inputs": [
        {
          "internalType": "uint256",
          "name": "companyId",
          "type": "uint256"
        },
        {
          "internalType": "address",
          "name": "userWallet",
          "type": "address"
        },
        {
          "internalType": "string",
          "name": "role",
          "type": "string"
        }
      ],
      "name": "registerCompanyUser",
      "outputs": [],
      "stateMutability": "nonpayable",
      "type": "function"
    },
    {
      "inputs": [
        {
          "internalType": "uint256",
          "name": "companyId",
          "type": "uint256"
        },
        {
          "internalType": "address",
          "name": "userWallet",
          "type": "address"
        }
      ],
      "name": "removeCompanyUser",
      "outputs": [],
      "stateMutability": "nonpayable",
      "type": "function"
    },
    {
      "inputs": [],
      "name": "renounceOwnership",
      "outputs": [],
      "stateMutability": "nonpayable",
      "type": "function"
    },
    {
      "inputs": [
        {
          "internalType": "uint256",
          "name": "companyId",
          "type": "uint256"
        },
        {
          "internalType": "address",
          "name": "newDaoAddress",
          "type": "address"
        }
      ],
      "name": "setCompanyDaoAddress",
      "outputs": [],
      "stateMutability": "nonpayable",
      "type": "function"
    },
    {
      "inputs": [
        {
          "internalType": "uint256",
          "name": "companyId",
          "type": "uint256"
        },
        {
          "internalType": "address",
          "name": "newOwner",
          "type": "address"
        }
      ],
      "name": "setCompanyOwner",
      "outputs": [],
      "stateMutability": "nonpayable",
      "type": "function"
    },
    {
      "inputs": [
        {
          "internalType": "uint256",
          "name": "companyId",
          "type": "uint256"
        },
        {
          "internalType": "address",
          "name": "newDaoAddress",
          "type": "address"
        }
      ],
      "name": "setDaoAddress",
      "outputs": [],
      "stateMutability": "nonpayable",
      "type": "function"
    },
    {
      "inputs": [
        {
          "internalType": "uint256",
          "name": "companyId",
          "type": "uint256"
        },
        {
          "internalType": "address",
          "name": "utilityTokenProxy",
          "type": "address"
        }
      ],
      "name": "setUtilityTokenProxy",
      "outputs": [],
      "stateMutability": "nonpayable",
      "type": "function"
    },
    {
      "inputs": [
        {
          "internalType": "uint256",
          "name": "companyId",
          "type": "uint256"
        },
        {
          "internalType": "address",
          "name": "governanceTokenProxy",
          "type": "address"
        }
      ],
      "name": "setWrappedToken",
      "outputs": [],
      "stateMutability": "nonpayable",
      "type": "function"
    },
    {
      "inputs": [
        {
          "internalType": "address",
          "name": "newWrappedTokenImpl",
          "type": "address"
        }
      ],
      "name": "setWrappedTokenImplementation",
      "outputs": [],
      "stateMutability": "nonpayable",
      "type": "function"
    },
    {
      "inputs": [
        {
          "internalType": "bytes4",
          "name": "interfaceId",
          "type": "bytes4"
        }
      ],
      "name": "supportsInterface",
      "outputs": [
        {
          "internalType": "bool",
          "name": "",
          "type": "bool"
        }
      ],
      "stateMutability": "view",
      "type": "function"
    },
    {
      "inputs": [
        {
          "internalType": "address",
          "name": "",
          "type": "address"
        }
      ],
      "name": "transferOwnership",
      "outputs": [],
      "stateMutability": "nonpayable",
      "type": "function"
    },
    {
      "inputs": [],
      "name": "unpause",
      "outputs": [],
      "stateMutability": "nonpayable",
      "type": "function"
    },
    {
      "inputs": [],
      "name": "updateOwnerFromLaunchpad",
      "outputs": [],
      "stateMutability": "nonpayable",
      "type": "function"
    },
    {
      "inputs": [
        {
          "internalType": "address",
          "name": "newImplementation",
          "type": "address"
        }
      ],
      "name": "upgradeTo",
      "outputs": [],
      "stateMutability": "nonpayable",
      "type": "function"
    },
    {
      "inputs": [
        {
          "internalType": "address",
          "name": "",
          "type": "address"
        },
        {
          "internalType": "bytes",
          "name": "",
          "type": "bytes"
        }
      ],
      "name": "upgradeToAndCall",
      "outputs": [],
      "stateMutability": "payable",
      "type": "function"
    },
    {
      "inputs": [],
      "name": "wrappedTokenImplementation",
      "outputs": [
        {
          "internalType": "address",
          "name": "",
          "type": "address"
        }
      ],
      "stateMutability": "view",
      "type": "function"
    }
  ],
  "bytecode": "0x60a0806040523460225730608052615f079081610028823960805181612b5c0152f35b600080fdfe608080604052600436101561001357600080fd5b600090813560e01c90816301ffc9a714614668575080630a0c292b146142a857806311f101161461298d5780631f2c55b014613e9c57806326d6eb9e14613e535780632a2767e514613e185780632f984ea014613a305780633244b99a1461373e5780633659cfe61461361957806339ce5435146130cf5780633f4ba83a146130295780633fba851c14612fde578063475d5bb314612fa8578063485cc95514612c7c5780634f1ef28614612c1f57806352d1902d14612b495780635c975abb14612b265780635e19b04714612992578063645ad2d21461298d5780636bd7cd7914610de7578063715018a61461296257806374ced870146129435780637dc6120b146128f05780637ea1b8aa146128395780638456cb59146127b6578063850bcab91461266e578063893d20e8146126455780638da5cb5b146126455780638f2071c5146126065780639a166299146125eb578063b3ecf236146125b0578063c098c1591461240f578063d48d3dc614611a0b578063d8d3c829146119ec578063dab4698414610e11578063e011614514610de7578063e8a733a214610349578063f2fde38b146103175763f6dd1550146101ce57600080fd5b3461031457602036600319011261031457600435906101eb614ace565b506101f4614ace565b508181526101676020526040812060018101549092906001600160a01b03161561030157610221836149d6565b6040518091602082528051602083015260018060a01b0360208201511660408301526102a961029361027d61026760408501516101606060880152610180870190614882565b6060850151868203601f19016080880152614882565b6080840151858203601f190160a0870152614882565b60a0830151848203601f190160c0860152614882565b9060c0810151151560e084015260018060a01b0360e08201511661010084015261010081015161012084015260018060a01b036101208201511661014084015261014060018060a01b03910151166101608301520390f35b63064b7e3d60e11b825260045260249150fd5b80fd5b5034610314576020366003190112610314576004906103346146b6565b5061033d614b23565b635a42e44960e01b8152fd5b5034610314576080366003190112610314576004356001600160401b038111610de35761037a90369060040161481c565b906024356001600160401b038111610de35761039a90369060040161481c565b916044356001600160401b038111610ddf576103ba90369060040161481c565b906064356001600160401b038111610ddb576103da90369060040161481c565b906103e3614b23565b610163549283159586159687610d79575b6101605486885261016760205260408820600101546001600160a01b03918216929116610d655780610cf4575b610ce1573360009081526101696020526040902054610cce57865b33600090815261016b60205260409020548110156104ba5733600090815261016b6020526040902061046f908290614b79565b905433600090815261016a6020526040902060039290921b1c895260205260ff600460408a20015460a01c166104a75760010161043c565b638fc8b33960e01b885233600452602488fd5b5087610ac3575b3314610ab057825115610a9c57805115610a8857815115610a7457835115610a60576040516104ef8161478d565b85815260208101903382526040810185815260608201908482528560808401528760a08401528960c08401528960e0840152896101008401528961012084015289610140840152888a5261016760205260408a20938351855560018060a01b03905116600185019060018060a01b03166001600160601b0360a01b825416179055518051906001600160401b0382116108ed5761059c8261059360028801546148bb565b6002880161490c565b602090601f83116001146109f7576105cc92918c9183610901575b50508160011b916000199060031b1c19161790565b60028401555b518051906001600160401b0382116109e3576105fe826105f560038701546148bb565b6003870161490c565b602090601f831160011461097a5761062d92918b918361096f5750508160011b916000199060031b1c19161790565b60038301555b6004820160808201518051906001600160401b0382116108ed576106618261065b85546148bb565b8561490c565b602090601f831160011461090c5761069092918c91836109015750508160011b916000199060031b1c19161790565b90555b6005820160a08201518051906001600160401b0382116108ed576106bb8261065b85546148bb565b6020908b601f8411600114610854576107fe956107e29995610721866107f0977f34163a539dc5fbdc04309f5c778774a95a31e6f88d105997cd6b2fadac51a4979e9c9761080d9c97600997926108495750508160011b916000199060031b1c19161790565b90555b61076e6006840161074760c08401511515829060ff801983541691151516179055565b60e08301518154610100600160a81b03191660089190911b610100600160a81b0316179055565b61010081015160078401556101208101516008840180546001600160a01b039283166001600160a01b031991821617909155610140909201519290930180549290931691161790556107c86107c1614bc9565b338c615a18565b6040519687968b885260a0602089015260a0880190614882565b908682036040880152614882565b908482036060860152614882565b82810360808401523395614882565b0390a2600080516020615eb28339815191526040518061082e339482614c32565b0390a261083d61016354614aa9565b61016355600160fb5580f35b0151905038806105b7565b50838c52818c209190601f1984168d5b8181106108d55750956107e299956001867f34163a539dc5fbdc04309f5c778774a95a31e6f88d105997cd6b2fadac51a4979d9b9661080d9b966009966107f09a6107fe9d106108bc575b505050811b019055610724565b015160001960f88460031b161c191690553880806108af565b92936020600181928786015181550195019301610864565b634e487b7160e01b8b52604160045260248bfd5b015190508c806105b7565b838c52818c209190601f1984168d5b818110610957575090846001959493921061093e575b505050811b019055610693565b015160001960f88460031b161c191690558b8080610931565b9293602060018192878601518155019501930161091b565b015190508b806105b7565b600385018b52818b209190601f1984168c5b8181106109cb57509084600195949392106109b2575b505050811b016003830155610633565b015160001960f88460031b161c191690558a80806109a2565b9293602060018192878601518155019501930161098c565b634e487b7160e01b8a52604160045260248afd5b600286018c52818c209190601f1984168d5b818110610a485750908460019594939210610a2f575b505050811b0160028401556105d2565b015160001960f88460031b161c191690558b8080610a1f565b92936020600181928786015181550195019301610a09565b63ee02097960e01b86526004859052602486fd5b632fc82b6f60e11b86526004859052602486fd5b631fe63b0360e01b86526004859052602486fd5b632cbd425b60e01b86526004859052602486fd5b63333bf60960e11b865233600452602486fd5b86805261016760205260ff60066040892001541615610cba57604051638da5cb5b60e01b8152602081600481855afa908115610bea578891610c7c575b506001600160a01b031633141580610c5b575b610c47576040516362d4106760e11b8152336004820152602081602481855afa908115610bea578891610c15575b50600481109081610c08575b50610bf55760405163734c619f60e01b81526020600482018190528180610b7660248201614ba7565b0381855afa908115610bea578891610bb3575b506104c157604051634b93852960e11b81526020600482015280610baf60248201614ba7565b0390fd5b90506020813d602011610be2575b81610bce602093836147a9565b81010312610bdd575188610b89565b600080fd5b3d9150610bc1565b6040513d8a823e3d90fd5b630d08398760e21b875233600452602487fd5b6000191415905088610b4d565b90506020813d602011610c3f575b81610c30602093836147a9565b81010312610bdd575188610b41565b3d9150610c23565b630c48cc2d60e11b87526004869052602487fd5b5086805261016760205260408720600801546001600160a01b031615610b13565b90506020813d602011610cb2575b81610c97602093836147a9565b81010312610cae57610ca8906148a7565b88610b00565b8780fd5b3d9150610c8a565b63064b7e3d60e11b87526004869052602487fd5b638fc8b33960e01b875233600452602487fd5b6339e3033960e21b875233600452602487fd5b50604051638da5cb5b60e01b8152602081600481855afa908115610bea578891610d2b575b506001600160a01b0316331415610421565b90506020813d602011610d5d575b81610d46602093836147a9565b81010312610cae57610d57906148a7565b38610d19565b3d9150610d39565b633f23814f60e11b88526004879052602488fd5b868052610167602052610d8e604088206149d6565b60208101516001600160a01b031615610dc75761012001516001600160a01b03166103f45763ed15e6cf60e01b87526004879052602487fd5b63064b7e3d60e11b88526004889052602488fd5b8380fd5b8280fd5b5080fd5b5034610314578060031936011261031457610162546040516001600160a01b039091168152602090f35b50346103145760603660031901126103145760043590610e2f6146a0565b916044356001600160401b038111610ddf57610e4f90369060040161481c565b610e57614b23565b610e5f614c47565b610160546001600160a01b031691610e78338285615d6a565b6001600160a01b038516923384146119d9578251156119ca5783156119b6576040516362d4106760e11b815260048101859052602081602481855afa90811561185e578691611984575b50600481109081611977575b506119635761016554855b81811061190f57505060405163c696804f60e01b8152602081600481855afa90811561185e5786916118d1575b506001600160a01b031684146118bd5760405163734c619f60e01b81526020600482018190528180610f3b6024820188614882565b0381855afa90811561185e57869161188b575b5015611869576040519563490e122960e11b87526020600488015260208780610f7a6024820188614882565b0381855afa96871561185e57869761182a575b50600387108015611820575b61180c5760038714806116bc575b6040516362d4106760e11b8152336004820152602081602481875afa908115610bea57889161168a575b5088811015611677578161166b575b5061165857600387116115d7575b6001600160a01b03811660009081526101696020526040902060405163c978d8a560e01b81526001600160a01b03831660048201526024810185905260208180604481010381875afa908115610bea5788916115a5575b506001810161134c575b50506001600160a01b03811660009081526101696020526040902061109c906040519061107b8261470a565b858252876020830152866040830152896060830152600160808301526158ba565b6001600160a01b038116600090815261016b60205260409020805490600160401b82101561133857906110d491600182018155614b79565b81549060031b9085821b91600019901b19161790556040519163734c619f60e01b8352602060048401526020838061110f6024820189614882565b0381845afa9283156112e0578793611304575b50803b1561130057604051632fa28d9b60e21b815287818061114c8933888f8b8d60048801614ca7565b038183865af18015610bea579088916112eb575b505060405163c978d8a560e01b81526001600160a01b03831660048201526024810185905290602090829060449082905afa9081156112e05790889188916112ab575b5003611297576004600080516020615eb2833981519152959697604051906111ca82614772565b85825260208201948986526040830190815260608301918252608083019533875261121060a08501966001885260018060a01b031660005261016a602052604060002090565b888d526020526040808d209451855590516001850180546001600160a01b039283166001600160a01b031990911617905591516002850155915160038401559451929091018054935160ff60a01b90151560a01b16929094166001600160a81b031990931692909217179091555191829161128c919083615a01565b0390a2600160fb5580f35b637745245760e01b86526004859052602486fd5b9150506020813d6020116112d8575b816112c7602093836147a9565b81010312610bdd57879051386111a3565b3d91506112ba565b6040513d89823e3d90fd5b816112f5916147a9565b611300578638611160565b8680fd5b9092506020813d602011611330575b81611320602093836147a9565b81010312610bdd57519138611122565b3d9150611313565b634e487b7160e01b88526041600452602488fd5b600019906060898454905b81811061153b575b505060018301611371575b505061104f565b6040519063734c619f60e01b825260206004830152602082806113976024820185614882565b03818a5afa918215611530578b926114fc575b50863b156114f85760405163be92c6db60e01b8152928b92849283926113d89233918b918e60048801614ca7565b038183895af180156114ed579089916114d8575b505060018254116000146114aa578154600019810190811161149657829161142561141d61142b9361143096614c8b565b509184614c8b565b90614e7a565b614f07565b6001600160a01b038116600090815261016a602052604090208387526020526114746040872060046000918281558260018201558260028201558260038201550155565b84600080516020615e928339815191526020604051868152a23880808061136a565b634e487b7160e01b89526011600452602489fd5b50506001600160a01b0381166000908152610169602052604090206114d390614ce6565b614ce6565b611430565b816114e2916147a9565b610cae5787386113ec565b6040513d8b823e3d90fd5b8a80fd5b9091506020813d602011611528575b81611518602093836147a9565b81010312610bdd575190386113aa565b3d915061150b565b6040513d8d823e3d90fd5b886115468288614c8b565b5054148061158d575b61155b57600101611357565b93505050600261158661156e8486614c8b565b5061157f6040518094819301614953565b03826147a9565b388061135f565b5060ff600461159c8389614c8b565b5001541661154f565b90506020813d6020116115cf575b816115c0602093836147a9565b81010312610bdd575138611045565b3d91506115b3565b60405163c978d8a560e01b815233600482015260248101849052602081604481865afa9081156112e0578791611626575b5019610fee57630d0f1bc360e11b8652336004526024839052604486fd5b90506020813d602011611650575b81611641602093836147a9565b81010312610bdd575138611608565b3d9150611634565b6303d1bc5d60e51b865233600452602486fd5b60029150101538610fe0565b6303d1bc5d60e51b885233600452602488fd5b90506020813d6020116116b4575b816116a5602093836147a9565b81010312610bdd575138610fd1565b3d9150611698565b60405163c978d8a560e01b815233600482015260248101859052602081604481875afa8015610bea5788906117d9575b600391501480611783575b6040516362d4106760e11b815233600482015290602082602481885afa9182156114ed57899261174f575b50159081611744575b5015610fa7576348f8744760e01b875233600452602487fd5b60019150113861172b565b9091506020813d60201161177b575b8161176b602093836147a9565b81010312610bdd57519038611722565b3d915061175e565b5033600090815261016a602052604090208488526020526002604088200154604051602081019070434f4e5349474c494f5f5341504f52495360781b8252601181526117d06031826147a9565b519020146116f7565b506020813d602011611804575b816117f3602093836147a9565b81010312610bdd57600390516116ec565b3d91506117e6565b6351f8356160e11b86526004879052602486fd5b5060058711610f99565b9096506020813d602011611856575b81611846602093836147a9565b81010312610bdd57519538610f8d565b3d9150611839565b6040513d88823e3d90fd5b604051634b93852960e11b81526020600482015280610baf6024820186614882565b90506020813d6020116118b5575b816118a6602093836147a9565b81010312610bdd575138610f4e565b3d9150611899565b63ec13832f60e01b85526004849052602485fd5b90506020813d602011611907575b816118ec602093836147a9565b81010312611903576118fd906148a7565b38610f06565b8580fd5b3d91506118df565b80875261016760205260408720600101546001600160a01b03168614801561193e575b610cce57600101610ed9565b50808752610167602052604087206006015460081c6001600160a01b03168614611932565b630d08398760e21b85526004849052602485fd5b6000191415905038610ece565b90506020813d6020116119ae575b8161199f602093836147a9565b81010312610bdd575138610ec2565b3d9150611992565b633202e20d60e21b85526004849052602485fd5b63369e983560e01b8552600485fd5b636fc71c8560e01b855233600452602485fd5b5034610314578060031936011261031457602061016354604051908152f35b50346103145760a036600319011261031457602435906001600160401b0382116103145760a060031983360301126103145760405191611a4a8361470a565b80600401356001600160401b038111610ddf57611a6d906004369184010161481c565b835260248101356001600160401b038111610ddf57611a92906004369184010161481c565b60208401526044810135604084015260648101356001600160401b038111610ddf57611ac4906004369184010161481c565b606084015260848101356001600160401b038111610ddf57611aeb9136910160040161481c565b6080830152604435906001600160401b0382116103145761014060031983360301126103145760405191611b1e8361473b565b611b2a816004016146cc565b8352611b38602482016146cc565b602084015260448101356001811015610ddf576040840152606481013560608401526084810135608084015260a48101356001600160401b038111610ddf57810136602382011215610ddf576004810135611b928161483a565b91611ba060405193846147a9565b818352602060048185019360061b830101019036821161190357602401915b8183106123de5750505060a0840152611bda60c48201614851565b60c084015260e48101358015158103610ddf57611c13916101249160e0860152611c076101048201614851565b61010086015201614851565b6101208301526001600160401b03606435116103145736602360643501121561031457611c456064356004013561483a565b91611c5360405193846147a9565b6004606435908101358085526020850191829160051b016024013681116123da57602460643501915b818310612369575050506001600160401b0360843511610ddf57366023608435011215610ddf57611cb26084356004013561483a565b90611cc060405192836147a9565b6084356004013582526020820190813660246084356004013560051b60843501011161190357602460843501905b60246084356004013560051b608435010182106122da575050611d0f614b23565b610160546001600160a01b0316926004356122c857604051638da5cb5b60e01b8152602081600481885afa9081156112e057879161228e575b506001600160a01b0316330361227b5785805261016760205260408620600101546001600160a01b0316156122675785805261016760205260ff60066040882001541615612253575b60043561224e575b604051632ee325db60e21b81529360208580611db760048201614fab565b0381845afa9485156112e0578795612212575b506001600160a01b038516156122005750949586956040959091875b81518110156121f257611df981836150d3565b515160208151910120600960208a51611e128c826147a9565b82815201686c697175696469747960b81b8152201480156121b4575b611e3a57600101611de6565b81929394959697989950611e50906020926150d3565b5101515b60148110809181156121a9575b5061217c5750611ef88751996379ca55b960e11b8b5260043560048c015260c060248c01526080611ee3611ebe8d611ea6855160a060c4840152610164830190614882565b9060208601519060e460c31982850301910152614882565b8d61010460408601519101528d60608501519061012460c31982850301910152614882565b9101518b820360c319016101448d0152614882565b8981036003190160448b015282516001600160a01b03908116825260208085015190911690820152604083015160018110156121685791818b9795938a8c9896940152606083015160608201526080830151608082015260a08301519261014060a083015283518061014084015260206101608401950190895b8d828210612133575050505060ff610120828260c0839501511660c086015260e0810151151560e0860152826101008201511661010086015201511691015260031987830301606488015251808252602082019160208260051b820101949287915b8b8484106120ea5750505050505060031985830301608486015251808252602082019160208260051b820101939285915b8984841061209857505050505050602093918380923360a4830152039260018060a01b03165af191821561208d5791612058575b6020925061204961016654614aa9565b61016655600160fb5551908152f35b90506020823d602011612085575b81612073602093836147a9565b81010312610bdd576020915190612039565b3d9150612066565b9051903d90823e3d90fd5b60209295985082919497506120d99060019497601f19878203018852836120c98c5193845190808552840190614882565b9201519084818403910152614882565b970193019301899593899592612005565b60019396989a5060209295995082919497601f19868203018752828061211a8d5194855190808652850190614882565b9301519101529801930193018b9795938b979592611fd4565b90939597999b5082989a5060209194968260019451805183520151838201520197019101908c989694928e9a98969492611f72565b634e487b7160e01b8a52602160045260248afd5b8860249160001461219857637644e84b60e11b81526014600452fd5b631b3c134360e21b81526032600452fd5b603291501138611e61565b506121bf81836150d3565b515160208151910120600960208a516121d88c826147a9565b82815201684c697175696469747960b81b81522014611e2e565b509091929394959697611e54565b637361709960e01b8752600452602486fd5b9094506020813d602011612246575b8161222e602093836147a9565b810103126113005761223f906148a7565b9338611dca565b3d9150612221565b611d99565b632b13157760e11b86526004869052602486fd5b63064b7e3d60e11b86526004869052602486fd5b6339e3033960e21b865233600452602486fd5b90506020813d6020116122c0575b816122a9602093836147a9565b81010312611300576122ba906148a7565b38611d48565b3d915061229c565b6122d53360043586615d6a565b611d91565b81356001600160401b038111610cae576084350160406023198236030112610cae576040519061230982614757565b60248101356001600160401b0381116123655761232c906024369184010161481c565b825260448101356001600160401b038111612365579161235660209492602486953692010161481c565b83820152815201910190611cee565b8980fd5b82356001600160401b038111611300576064350160406023198236030112611300576040519061239882614757565b60248101356001600160401b0381116123d657916044602094926123c386956024369184010161481c565b8352013583820152815201920191611c7c565b8880fd5b8480fd5b60408336031261190357602060409182516123f881614757565b853581528286013583820152815201920191611bbf565b50346103145760403660031901126103145760043561242c6146a0565b612434614b23565b61016054604051632ee325db60e21b815260206004820181905260076024830152665374616b696e6760c81b60448301529091829060649082906001600160a01b03165afa9081156125a557849161256b575b506001600160a01b03163303612558576001600160a01b0381169081156125445782845261016760205260408420600901546001600160a01b0316612530573b1561251e578183526101676020908152604080852060090180546001600160a01b03191684179055519182527f7bfcd6ae78763ad166464b2b219cf23453f5259f0c7abfb92785d1b8f9ef50d691a2600160fb5580f35b6319bb402960e01b8352600452602482fd5b6353b5776b60e01b84526004839052602484fd5b633202e20d60e21b84526004829052602484fd5b634a0bfec160e01b835233600452602483fd5b90506020813d60201161259d575b81612586602093836147a9565b81010312610ddb57612597906148a7565b38612487565b3d9150612579565b6040513d86823e3d90fd5b503461031457806003193601126103145760206040517fa36640f9c3d74ee87c99b3aee39f32849dda077410057abc393a2cb9e13139a78152f35b50346103145780600319360112610314576020604051308152f35b503461031457604036600319011261031457602061263b6126256146a0565b61016054600435906001600160a01b0316615767565b6040519015158152f35b50346103145780600319360112610314576033546040516001600160a01b039091168152602090f35b5034610314578060031936011261031457612687614c47565b61268f614b23565b610160546001600160a01b031680156127a75760405163c696804f60e01b8152602081600481855afa90811561279c578391612762575b506001600160a01b031633036127535760206004916040519283809263c696804f60e01b82525afa801561274857829061270d575b612705915061571e565b600160fb5580f35b506020813d602011612740575b81612727602093836147a9565b81010312610de35761273b612705916148a7565b6126fb565b3d915061271a565b6040513d84823e3d90fd5b632508892760e11b8252600482fd5b90506020813d602011612794575b8161277d602093836147a9565b81010312610ddf5761278e906148a7565b386126c6565b3d9150612770565b6040513d85823e3d90fd5b6336939d7d60e21b8252600482fd5b50346103145780600319360112610314576127cf614c47565b610160546001600160a01b031680156127a757330361282a576127f0614c47565b600160ff1960c954161760c9557f62e78cea01bee320cd4e420270b5ea74000d11b0c9f74754ebdbfc544b05a2586020604051338152a180f35b635c427cd960e01b8152600490fd5b5034610314576020366003190112610314576128536146b6565b61285b614b23565b6101605460335461287a916001600160a01b0391821691339116615b89565b6001600160a01b031680156128de5761017580546001600160a01b03191682179055807fbc5f25c6989a08d35da204812dcc1f34b0b229cc00e591a1e4de3c79679ab0228380a26001600160601b0360a01b61016254161761016255600160fb5580f35b633202e20d60e21b8252600452602490fd5b50346103145760203660031901126103145760043590818152610167602052604081209160ff600684015416156129305760206007840154604051908152f35b632b13157760e11b825260045260249150fd5b5034610314578060031936011261031457602061015f54604051908152f35b503461031457806003193601126103145760049061297e614b23565b6001623f026d60e01b03198152fd5b6146e0565b5034610314576040366003190112610314576004356129af6146a0565b61016054604051632ee325db60e21b81529060209082906001600160a01b031681806129dd60048201614fab565b03915afa9081156125a5578491612aec575b506001600160a01b03163303612ad4578183526101676020526040832060018101546001600160a01b031615612ac05760ff60068201541615612aac5760080180546001600160a01b031661253057813b15612a905780546001600160a01b0319166001600160a01b0390921691821790556040519081527f38b0af0e7df8bbf32b78dbbcf57d2973da4b62e518622c36e6ee6871b74357fe90602090a280f35b6319bb402960e01b84526001600160a01b038216600452602484fd5b632b13157760e11b84526004839052602484fd5b63064b7e3d60e11b84526004839052602484fd5b639a8cadab60e01b8352336004526024829052604483fd5b90506020813d602011612b1e575b81612b07602093836147a9565b81010312610ddb57612b18906148a7565b386129ef565b3d9150612afa565b5034610314578060031936011261031457602060ff60c954166040519015158152f35b50346103145780600319360112610314577f00000000000000000000000000000000000000000000000000000000000000006001600160a01b03163003612bb45760206040517f360894a13ba1a3210667c828492db98dca3e2076cc3735a920a3ca505d382bbc8152f35b60405162461bcd60e51b815260206004820152603860248201527f555550535570677261646561626c653a206d757374206e6f742062652063616c60448201527f6c6564207468726f7567682064656c656761746563616c6c00000000000000006064820152608490fd5b50604036600319011261031457612c346146b6565b506024356001600160401b038111610de35736602382011215610de35790612c67600492369060248186013591016147e5565b50612c70614b23565b630c5e6cd360e21b8152fd5b503461031457604036600319011261031457612c966146b6565b612c9e6146a0565b82549160ff8360081c161592838094612f9b575b8015612f84575b15612f285760ff198116600117855583612f17575b506001600160a01b03169081158015612f06575b61254457604051638da5cb5b60e01b81526001600160a01b03919091169190602081600481865afa908115612efb578591612ec1575b506001600160a01b03163303612eae57612d34610164546148bb565b601f8111612e6f575b50602a742b189021b7b6b830b73c9026bab63a34aa37b5b2b760591b0161016455816001600160601b0360a01b610174541617610174558361016655806001600160601b0360a01b610162541617610162556001600160601b0360a01b610175541617610175556001600160601b0360a01b610160541617610160558161016355612de060ff835460081c16612dd2816156be565b612ddb816156be565b6156be565b612de93361571e565b815490612e3260ff8360081c16612dff816156be565b612e08816156be565b60ff1960c9541660c955612e1b816156be565b612e24816156be565b600160fb55612ddb816156be565b612e3a575080f35b61ff00191681557f7f26b83ff96e1f2b6a682f133852f6798a09c465da95921460cefb3847402498602060405160018152a180f35b6101648552612ea890601f0160051c7f5bc19ff2299cdd9c52c622a9137c53ea8dded8f746ee6e3f831227e4983e3f38908101906148f5565b38612d3d565b635a96514360e11b845233600452602484fd5b90506020813d602011612ef3575b81612edc602093836147a9565b810103126123da57612eed906148a7565b38612d18565b3d9150612ecf565b6040513d87823e3d90fd5b506001600160a01b03811615612ce2565b61ffff191661010117845538612cce565b60405162461bcd60e51b815260206004820152602e60248201527f496e697469616c697a61626c653a20636f6e747261637420697320616c72656160448201526d191e481a5b9a5d1a585b1a5e995960921b6064820152608490fd5b50303b158015612cb95750600160ff821614612cb9565b50600160ff821610612cb2565b50346103145760203660031901126103145761016054602090612fd6906001600160a01b03166004356150e7565b604051908152f35b50346103145760203660031901126103145760043590818152610167602052604081209160ff600684015416156129305760018301546040516001600160a01b039091168152602090f35b5034610314578060031936011261031457610160546001600160a01b031680156127a757330361282a5760c95460ff8116156130935760ff191660c9557f5db9ee0a495bf2e6ff9c91a7834c1ba4fdd244a5e8aa4e537bd38aeae4b073aa6020604051338152a180f35b60405162461bcd60e51b815260206004820152601460248201527314185d5cd8589b194e881b9bdd081c185d5cd95960621b6044820152606490fd5b5034610314576040366003190112610314576004356130ec6146a0565b6130f4614b23565b6101605482845261016760205260408420600601546001600160a01b039182169160089190911c1680156136075733036135ef5782156135db576001600160a01b0382169081156135c7578385526101676020526040852060018101546001600160a01b0316156135b35760060192835460ff81161561359f57813b1561358b5760081c6001600160a01b0316938692919081866132db575b8154610100600160a81b03191660089190911b610100600160a81b03161790555b6131c06131b9614fd2565b8288615a18565b60405163734c619f60e01b815260206004820181905281806131e460248201615001565b0381865afa9081156125a55784916132a6575b50823b15610ddb57604051632fa28d9b60e21b81529284928492839185918391613228913391908e60048601615025565b03925af1801561274857613291575b50507f84f254536dfd0fd0b3360bb4377ba63bf3211cfbf7597c4488e452e69b1dd0bd9181604092600080516020615eb283398151915284518061327b8982615061565b0390a282519182526020820152a2600160fb5580f35b8161329b916147a9565b610ddb578338613237565b9350506020833d6020116132d3575b816132c2602093836147a9565b81010312610bdd57869251386131f7565b3d91506132b5565b5060405163734c619f60e01b8152602060048201819052818061330060248201615001565b0381875afa908115612efb578591613556575b5060405163490e122960e11b8152602060048201819052818061333860248201615001565b0381885afa90811561185e578691613521575b50843b15611903576040519163be92c6db60e01b83528960048401526024830152604482015286606482015233608482015260c060a482015284818061339360c48201615001565b038183885af1908115612efb57859161350c575b50506001600160a01b038616600090815261016960205260409020805460001990865b8181106134cc575b50600182016133e5575b5050508161318d565b600190969192939495961160001461349c57508154600019810190811161348857926134248361142b87969461142561141d8f9b9a976131ae99614c8b565b6001600160a01b038816600090815261016a602052604090208987526020526134686040872060046000918281558260018201558260028201558260038201550155565b87600080516020615e9283398151915260206040518c8152a291386133dc565b634e487b7160e01b8a52601160045260248afd5b9493926131ae92508391506134c76114ce8960018060a01b0316600052610169602052604060002090565b613424565b8a6134d78286614c8b565b505414806134f4575b6134ec576001016133ca565b9150386133d2565b5060ff60046135038387614c8b565b500154166134e0565b81613516916147a9565b610ddb5783386133a7565b9550506020853d60201161354e575b8161353d602093836147a9565b81010312610bdd578894513861334b565b3d9150613530565b9450506020843d602011613583575b81613572602093836147a9565b81010312610bdd5787935138613313565b3d9150613565565b6319bb402960e01b87526004849052602487fd5b632b13157760e11b87526004869052602487fd5b63064b7e3d60e11b86526004859052602486fd5b633202e20d60e21b85526004829052602485fd5b631b4d1f1360e01b84526004839052602484fd5b631ed0eedd60e11b8452336004526024839052604484fd5b633202e20d60e21b8552600452602484fd5b5034610314576020366003190112610314576136336146b6565b61363b614b23565b610160546001600160a01b0316801561372f57330361372057803b156136c5577f360894a13ba1a3210667c828492db98dca3e2076cc3735a920a3ca505d382bbc80546001600160a01b0319166001600160a01b039290921691821790557fbc7cd75a20ee27fd9adebab32041f755214dbc6bffa90cc0225b39da2e5c2d3b8280a2600160fb5580f35b60405162461bcd60e51b815260206004820152602d60248201527f455243313936373a206e657720696d706c656d656e746174696f6e206973206e60448201526c1bdd08184818dbdb9d1c9858dd609a1b6064820152608490fd5b635c427cd960e01b8252600482fd5b6336939d7d60e21b8352600483fd5b50346103145760403660031901126103145760043561375b6146a0565b61016054604051632ee325db60e21b81526001600160a01b03909116906020818061378860048201614fab565b0381855afa908115612efb5785916139f6575b506001600160a01b031633036139de578284526101676020526040842060018101546001600160a01b0316156139ca5760060191825460ff8116156139b65760081c6001600160a01b03166139a2576001600160a01b03811692831561398e57813b1561397a578054610100600160a81b031916600883901b610100600160a81b03161790558491908461385b575b50505060207feee677695ea2756cec2e9cc3cdd1388528953e2886e279900e3b0ae55c12eb8591604051908152a280f35b61386d613866614fd2565b8287615a18565b60405163734c619f60e01b8152602060048201819052818061389160248201615001565b0381865afa9081156125a5578491613945575b50823b15610ddb576138d292849283604051809681958294632fa28d9b60e21b845233918d60048601615025565b03925af1801561274857613930575b50506020817feee677695ea2756cec2e9cc3cdd1388528953e2886e279900e3b0ae55c12eb8592600080516020615eb2833981519152604051806139258882615061565b0390a291849161382a565b8161393a916147a9565b610ddf5782386138e1565b9350506020833d602011613972575b81613961602093836147a9565b81010312610bdd57859251386138a4565b3d9150613954565b6319bb402960e01b86526004849052602486fd5b633202e20d60e21b86526004849052602486fd5b634e9e96d160e01b85526004849052602485fd5b632b13157760e11b86526004859052602486fd5b63064b7e3d60e11b85526004849052602485fd5b639a8cadab60e01b8452336004526024839052604484fd5b90506020813d602011613a28575b81613a11602093836147a9565b810103126123da57613a22906148a7565b3861379b565b3d9150613a04565b503461031457604036600319011261031457600435613a4d6146a0565b90613a56614b23565b613a5e614c47565b610160546001600160a01b031691613a77338385615d6a565b6001600160a01b038116923384146119d95783156119b65760405163c978d8a560e01b81526001600160a01b03831660048201526024810184905290602082604481845afa91821561185e578692613de4575b506000198214613dcd5760405163c978d8a560e01b815233600482015260248101859052602081604481855afa9081156112e0578791613d9b575b506000198114613d8357853314159081613d78575b50611658576001600160a01b0383166000908152610169602052604090209160001991606090888554905b818110613d24575b50506000198414613d0d5760405163734c619f60e01b81526020600482018190528a949392908280613b826024820187614882565b0381845afa918215612efb578592613cd6575b50803b156123da578893858993613bc682966040519889978896879563be92c6db60e01b8752339360048801614ca7565b03925af1801561274857613cc1575b50506001825411600014613c845781546000198101908111613c705792613c1c8361142b613c379461142561141d602099600080516020615e928339815191529b99614c8b565b6001600160a01b0316600090815261016a6020526040902090565b8186528252613c616040862060046000918281558260018201558260028201558260038201550155565b604051908152a2600160fb5580f35b634e487b7160e01b87526011600452602487fd5b5050600080516020615e9283398151915291613c3782613cbc6114ce60209560018060a01b0316600052610169602052604060002090565b613c1c565b81613ccb916147a9565b611903578538613bd5565b945090506020843d602011613d05575b81613cf3602093836147a9565b81010312610bdd578993519038613b95565b3d9150613ce6565b604489888a63984b4d5f60e01b8352600452602452fd5b88613d2f8289614c8b565b50541480613d60575b613d4457600101613b45565b94505090506002613d5861156e8587614c8b565b903880613b4d565b5060ff6004613d6f838a614c8b565b50015416613d38565b905082111538613b1a565b630d0f1bc360e11b8752336004526024859052604487fd5b90506020813d602011613dc5575b81613db6602093836147a9565b81010312610bdd575138613b05565b3d9150613da9565b604486858763984b4d5f60e01b8352600452602452fd5b9091506020813d602011613e10575b81613e00602093836147a9565b81010312610bdd57519038613aca565b3d9150613df3565b503461031457806003193601126103145760206040517f2218ef3916717733d36fbf8ca2c15c4eb9f6aa6e0d2757fbab6fccf43189f9938152f35b5034610314576020366003190112610314576004359081815261016760205260066040822001549160ff83161561293057604051600884901c6001600160a01b03168152602090f35b503461031457602036600319011261031457600435613eb9614b23565b61016054818352610167602052604083206001600160a01b039091169180614024575060018101546001600160a01b031691903383900361400d576006810191825460ff8116613ff95760ff19166001179283905560405163074ced8760e41b815290602090829060049082905afa908115612efb578591613fa5575b50907f2a8c84aeff3982794874343ba9879a1a898d988264649bf5b041180d6c1428809282613f81936007840155604051938493888552608060208601526002608086019101614953565b60089290921c6001600160a01b0316604084015260608301520390a2600160fb5580f35b9190506020823d602011613ff1575b81613fc1602093836147a9565b81010312610bdd5790517f2a8c84aeff3982794874343ba9879a1a898d988264649bf5b041180d6c142880613f36565b3d9150613fb4565b82546307129c3b60e41b8752600452602486fd5b546303c2deb360e41b845233600452602452604483fd5b61402f333385615b89565b6040516362d4106760e11b8152336004820152602081602481875afa8015612efb578590614275575b6001915011614262576001820180546001600160a01b03169390841561424e576006840191825460ff811661423a5760019060ff19161783556301e1338042019586421161422657906140bc8892600788019889556140b5614bc9565b9087615a18565b60405163734c619f60e01b815260206004820181905281806140e060248201614ba7565b0381855afa90811561279c5783916141f1575b5083546001600160a01b031690823b15610ddb57604051632fa28d9b60e21b81529284928492839185918391614130913391908e60048601614bf6565b03925af18015612748576141d6575b5050907f2a8c84aeff3982794874343ba9879a1a898d988264649bf5b041180d6c1428806141b4600080516020615eb2833981519152956141ce959460018060a01b0390541697889460018060a01b03905460081c169054604051938493888552608060208601526002608086019101614953565b91604084015260608301520390a260405191829182614c32565b0390a2612705565b816141e491959493956147a9565b611903579091853861413f565b9250506020823d60201161421e575b8161420d602093836147a9565b81010312610bdd57879151386140f3565b3d9150614200565b634e487b7160e01b88526011600452602488fd5b6307129c3b60e41b88526004859052602488fd5b63064b7e3d60e11b86526004839052602486fd5b6303d1bc5d60e51b845233600452602484fd5b506020813d6020116142a0575b8161428f602093836147a9565b81010312610bdd5760019051614058565b3d9150614282565b503461031457604036600319011261031457600435906142c66146a0565b6142ce614b23565b610160546001600160a01b031692801561465557808352610167602052604083206001810180546001600160a01b0316959192919033870361463d576001600160a01b0385169384156146295760070154421015614616576001600160a01b0385166000908152610169602052604090205461460357855b6001600160a01b038616600090815261016b60205260409020548110156143cf576001600160a01b038616600090815261016b6020526040902061438b908290614b79565b90549060031b1c6143af8760018060a01b031660005261016a602052604060002090565b90885260205260ff600460408920015460a01c16610cce57600101614346565b508594876040519063734c619f60e01b825260206004830152602082806143f860248201614ba7565b0381885afa918215610bea5788926145cf575b506040519063490e122960e11b8252602060048301526020828061443160248201614ba7565b0381895afa9182156114ed57899261459b575b50853b156123d6576040519163be92c6db60e01b83528760048401528360248401526044830152606482015233608482015260c060a482015287818061448c60c48201614ba7565b038183895af18015610bea57614585575b5082546001600160a01b0319811687179093556001600160a01b03909216918691906144d16144ca614bc9565b8388615a18565b843b15610ddf576144fe94839283604051809881958294632fa28d9b60e21b845233918d60048601614bf6565b03925af192831561457857859361455d575b50509161128c91600080516020615eb2833981519152937fa92c3801cef41d233be32c643289fac4c3a1bb92ae97de264c0d111bab69898b6020604051858152a360405191829182614c32565b819293509061456b916147a9565b610ddb5782908486614510565b50604051903d90823e3d90fd5b8761459391989293986147a9565b95908761449d565b9091506020813d6020116145c7575b816145b7602093836147a9565b810103126123d657519089614444565b3d91506145aa565b9091506020813d6020116145fb575b816145eb602093836147a9565b81010312610cae5751908861440b565b3d91506145de565b638fc8b33960e01b865233600452602486fd5b635354cee360e11b865233600452602486fd5b633202e20d60e21b87526004859052602487fd5b6303c2deb360e41b8652336004526024839052604486fd5b6319bb402960e01b835233600452602483fd5b905034610de3576020366003190112610de35760043563ffffffff60e01b8116809103610ddf576301ffc9a760e01b14815260209150f35b602435906001600160a01b0382168203610bdd57565b600435906001600160a01b0382168203610bdd57565b35906001600160a01b0382168203610bdd57565b34610bdd576000366003190112610bdd57610160546040516001600160a01b039091168152602090f35b60a081019081106001600160401b0382111761472557604052565b634e487b7160e01b600052604160045260246000fd5b61014081019081106001600160401b0382111761472557604052565b604081019081106001600160401b0382111761472557604052565b60c081019081106001600160401b0382111761472557604052565b61016081019081106001600160401b0382111761472557604052565b90601f801991011681019081106001600160401b0382111761472557604052565b6001600160401b03811161472557601f01601f191660200190565b9291926147f1826147ca565b916147ff60405193846147a9565b829481845281830111610bdd578281602093846000960137010152565b9080601f83011215610bdd57816020614837933591016147e5565b90565b6001600160401b0381116147255760051b60200190565b359060ff82168203610bdd57565b60005b8381106148725750506000910152565b8181015183820152602001614862565b9060209161489b8151809281855285808601910161485f565b601f01601f1916010190565b51906001600160a01b0382168203610bdd57565b90600182811c921680156148eb575b60208310146148d557565b634e487b7160e01b600052602260045260246000fd5b91607f16916148ca565b818110614900575050565b600081556001016148f5565b9190601f811161491b57505050565b614947926000526020600020906020601f840160051c83019310614949575b601f0160051c01906148f5565b565b909150819061493a565b60009291815491614963836148bb565b80835292600181169081156149b9575060011461497f57505050565b60009081526020812093945091925b83831061499f575060209250010190565b60018160209294939454838587010152019101919061498e565b915050602093945060ff929192191683830152151560051b010190565b906040516149e38161478d565b61014081938054835260018060a01b036001820154166020840152604051614a128161157f8160028601614953565b6040840152604051614a2b8161157f8160038601614953565b6060840152604051614a448161157f8160048601614953565b6080840152604051614a5d8161157f8160058601614953565b60a0840152600681015460ff8116151560c08501526001600160a01b03600891821c811660e0860152600783015461010086015290820154811661012085015260099091015416910152565b6000198114614ab85760010190565b634e487b7160e01b600052601160045260246000fd5b60405190614adb8261478d565b6000610140838281528260208201526060604082015260608082015260606080820152606060a08201528260c08201528260e082015282610100820152826101208201520152565b600260fb5414614b3457600260fb55565b60405162461bcd60e51b815260206004820152601f60248201527f5265656e7472616e637947756172643a207265656e7472616e742063616c6c006044820152606490fd5b8054821015614b915760005260206000200190600090565b634e487b7160e01b600052603260045260246000fd5b600f81526e444f4d494e55535f5341504f52495360881b602082015260400190565b60405190614bd86040836147a9565b600f82526e444f4d494e55535f5341504f52495360881b6020830152565b9081526020810191909152600360408201526001600160a01b0391821660608201529116608082015260c060a082018190526148379101614ba7565b60409061483792815281602082015201614ba7565b60ff60c95416614c5357565b60405162461bcd60e51b815260206004820152601060248201526f14185d5cd8589b194e881c185d5cd95960821b6044820152606490fd5b8054821015614b91576000526005602060002091020190600090565b908152602081019190915260408101919091526001600160a01b0391821660608201529116608082015260c060a0820181905261483792910190614882565b8054906000815581614cf6575050565b81600502916005830403614ab8576000526020600020908101905b818110614d1c575050565b600590600081556000600182015560028101614d3881546148bb565b9081614d55575b5050600060038201556000600482015501614d11565b81601f60009311600114614d6d5750555b3880614d3f565b81835260208320614d8891601f01861c8101906001016148f5565b8082528160208120915555614d66565b919091828114614e7557614dac83546148bb565b6001600160401b03811161472557614dce81614dc884546148bb565b8461490c565b600093601f8211600114614e0f57614e009293948291600092614e045750508160011b916000199060031b1c19161790565b9055565b0154905038806105b7565b845260208085208386529085209094601f198316815b818110614e5d57509583600195969710614e44575b505050811b019055565b015460001960f88460031b161c19169055388080614e3a565b9192600180602092868b015481550194019201614e25565b509050565b90614ef157818103614e8a575050565b8154815560018083015490820180546001600160a01b0319166001600160a01b03929092169190911790556149479160049060ff908290614ed16002808301908701614d98565b6003810154600386015501541691019060ff801983541691151516179055565b634e487b7160e01b600052600060045260246000fd5b80548015614f95576000190190614f1e8282614c8b565b614ef157600460009182815582600182015560028101614f3e81546148bb565b9081614f52575b5050826003820155015555565b81601f869311600114614f695750555b3880614f45565b81835260208320614f8591601f0160051c8101906001016148f5565b8082528160208120915555614f62565b634e487b7160e01b600052603160045260246000fd5b60609060208152600c60208201526b546f6b656e466163746f727960a01b60408201520190565b60405190614fe16040836147a9565b6011825270434f4e5349474c494f5f5341504f52495360781b6020830152565b6011815270434f4e5349474c494f5f5341504f52495360781b602082015260400190565b9081526020810191909152600360408201526001600160a01b0391821660608201529116608082015260c060a082018190526148379101615001565b60409061483792815281602082015201615001565b81601f82011215610bdd57805161508c816147ca565b9261509a60405194856147a9565b81845260208284010111610bdd57614837916020808501910161485f565b51908115158203610bdd57565b519060ff82168203610bdd57565b8051821015614b915760209160051b010190565b8060005261016760205260ff60066040600020015416156156aa5760005261017660205260406000205460206040518093632ee325db60e21b8252818061513060048201614fab565b03916001600160a01b03165afa9182156156605760009261566c575b50604051631d05f3d560e11b8152600481019190915290600090829060249082906001600160a01b03165afa90811561566057600091615222575b5060005b815181101561521b5761519e81836150d3565b5151602081519101207fbb7d9f8cddc6f064ba72d0e3c1e53eb67867dd8506fa4f5d61c86189caca8ee581149081156151f1575b506151df5760010161518b565b6151eb906020926150d3565b51015190565b7ff635637ba62fd05a8c192160221386e8a7a4f08458b93e1a9885a356979e42ec915014386151d2565b5050600090565b903d8082843e61523281846147a9565b8201906080838303126103145782516001600160401b038111610de357830161012081840312610de3576040519061012082018281106001600160401b0382111761564c57604052805182526020810151602083015260408101516001600160401b038111610ddb57846152a7918301615076565b604083015260608101516001600160401b038111610ddb57846152cb918301615076565b60608301526080810151608083015260a08101516001600160401b038111610ddb57846152f9918301615076565b60a083015260c08101516001600160401b038111610ddb57610100826153258761534194849601615076565b60c086015261533660e082016148a7565b60e0860152016150b8565b91015260208301516001600160401b038111610de357830161014081840312610de357604051906153718261473b565b61537a816148a7565b8252615388602082016148a7565b602083015260408101516001811015610ddb576040830152606081015160608301526080810151608083015260a08101516001600160401b038111610ddb57810184601f82011215610ddb5780516153df8161483a565b916153ed60405193846147a9565b81835260208084019260061b8201019087821161130057602001915b81831061561b57505050610120809261545c9260a086015261542d60c082016150c5565b60c086015261543e60e082016150b8565b60e086015261545061010082016150c5565b610100860152016150c5565b91015260408301516001600160401b038111610de35783019282601f85011215610de357835161548b8161483a565b9461549960405196876147a9565b81865260208087019260051b820101908582116123da5760208101925b8284106155b157505050506060810151906001600160401b038211610ddf57019082601f83011215610314578151926020806154f18661483a565b6154fe60405191826147a9565b868152019460051b84010192818411610ddf5760208101945b84861061552a5750505050505038615187565b85516001600160401b0381116123da5782016040818503601f1901126123da576040519061555782614757565b60208101516001600160401b0381116113005785602061557992840101615076565b82526040810151906001600160401b03821161130057916155a286602080969481960101615076565b83820152815201950194615517565b83516001600160401b0381116113005782016040818903601f19011261130057604051906155de82614757565b60208101516001600160401b0381116123d657916040826156088c60208098969781980101615076565b83520151838201528152019301926154b6565b604083890312611300576020604091825161563581614757565b855181528286015183820152815201920191615409565b634e487b7160e01b84526041600452602484fd5b6040513d6000823e3d90fd5b9091506020813d6020116156a2575b81615688602093836147a9565b81010312610bdd5761569b6000916148a7565b919061514c565b3d915061567b565b632b13157760e11b60005260045260246000fd5b156156c557565b60405162461bcd60e51b815260206004820152602b60248201527f496e697469616c697a61626c653a20636f6e7472616374206973206e6f74206960448201526a6e697469616c697a696e6760a81b6064820152608490fd5b603380546001600160a01b039283166001600160a01b0319821681179092559091167f8be0079c531659141344cd1fd0a4f28419497f9722a3daafe3b4186f6b6457e0600080a3565b8160005261016760205260ff60066040600020015416156158b2576040516362d4106760e11b81526001600160a01b03848116600483015290929116602083602481845afa9283156156605760009361587e575b50816157e9575050905060001981146157e35780159081156157db575090565b600191501490565b50600090565b60405163c978d8a560e01b81526001600160a01b03949094166004850152602484019190915260209150829060449082905afa9081156156605760009161584c575b5060001981146157e35760038114908115615844575090565b600491501490565b906020823d602011615876575b81615866602093836147a9565b810103126103145750513861582b565b3d9150615859565b90926020823d6020116158aa575b81615899602093836147a9565b8101031261031457505191386157bb565b3d915061588c565b505050600090565b8054600160401b811015614725576158d791600182018155614c8b565b919091614ef1578051825560208101516001830180546001600160a01b0319166001600160a01b03929092169190911790556040810151805160028401916001600160401b038211614725576159318261065b85546148bb565b602090601f8311600114615990579261596c836080946149479897946004976000926108495750508160011b916000199060031b1c19161790565b90555b606081015160038501550151151591019060ff801983541691151516179055565b90601f1983169184600052816000209260005b8181106159e95750936149479796936004969360019383608098106159d0575b505050811b01905561596f565b015160001960f88460031b161c191690553880806159c3565b929360206001819287860151815501950193016159a3565b604090614837939281528160208201520190614882565b6001600160a01b0390911691908215615b745790600080516020615eb28339815191529183600052610169602052615a7d604060002060405190615a5b8261470a565b83825286602083015284604083015260036060830152600160808301526158ba565b6040516020810190615aab6020828651615a9a8187858b0161485f565b81010301601f1981018352826147a9565b519020604051615aba81614772565b828152602080820187815260408084019485526003606085018181523360808701908152600160a080890182815260008f815261016a8a528781208d82529099529786902098518955955190880180546001600160a01b0319166001600160a01b039283161790559751600288015590519186019190915551600494909401805493516001600160a81b03199094169490951693909317911515901b60ff60a01b161790915551918291615b6f919083615a01565b0390a2565b82633202e20d60e21b60005260045260246000fd5b6040516362d4106760e11b81526001600160a01b0392831660048201819052939190921691602081602481865afa908115615660578490600092615d35575b5060405163074ced8760e41b8152600192909214936001600160a01b03909316149190602081600481855afa90811561566057600091615d03575b50421015615c395750159081615c30575b50615c1c5750565b6377efd02b60e11b60005260045260246000fd5b90501538615c14565b90604051632ee325db60e21b815260206004820152600360248201526244414f60e81b6044820152602081606481865afa90811561566057600091615cc9575b506001600160a01b0316918215615cb55750159182615cac575b5081615ca15750615c1c5750565b905081141538615c14565b15915038615c93565b637361709960e01b60005260045260246000fd5b90506020813d602011615cfb575b81615ce4602093836147a9565b81010312610bdd57615cf5906148a7565b38615c79565b3d9150615cd7565b90506020813d602011615d2d575b81615d1e602093836147a9565b81010312610bdd575138615c03565b3d9150615d11565b9150506020813d602011615d62575b81615d51602093836147a9565b81010312610bdd5751836001615bc8565b3d9150615d44565b918160005261016760205260ff6006604060002001541615615e7c576040516362d4106760e11b81526001600160a01b03918216600482018190529390929160209184916024918391165afa91821561566057600092615e48575b5080615e1f576000198214615e0757508015159081615dfb575b50615de75750565b6303d1bc5d60e51b60005260045260246000fd5b60019150141538615ddf565b826331f1d99960e21b60005260045260245260446000fd5b6000198214615e07575060038114159081615e3c5750615de75750565b60049150141538615ddf565b90916020823d602011615e74575b81615e63602093836147a9565b810103126103145750519038615dc5565b3d9150615e56565b50632b13157760e11b60005260045260246000fdfef62c903ca15668006710c4411b74e3acb9efabe0d10bece1a2912050499f7efdbc6cd93a5a69dae46517fc4b81c3c705973b0fabb816aae5d0ff7a077c4d5d18a2646970667358221220ff2ac2fbf5a069b3ee6679df6d981259b59c475867782cdb62db2b03193ffa1364736f6c634300081c0033",
  "linkReferences": {},
  "deployedLinkReferences": {}
}