{
  "_format": "hh-sol-artifact-1",
  "contractName": "VanellixLaunchpadV2",
  "sourceName": "contracts/VanellixLaunchpadV2.sol",
  "abi": [
    {
      "inputs": [],
      "name": "AccountAlreadyAssignedGlobalRole",
      "type": "error"
    },
    {
      "inputs": [],
      "name": "AccountAlreadyOwnsCompany",
      "type": "error"
    },
    {
      "inputs": [],
      "name": "AccountBelongsToCompany",
      "type": "error"
    },
    {
      "inputs": [],
      "name": "BurnWalletAlreadyConfigured",
      "type": "error"
    },
    {
      "inputs": [],
      "name": "BurnWalletNotConfigured",
      "type": "error"
    },
    {
      "inputs": [],
      "name": "CompanyIdAlreadyAssigned",
      "type": "error"
    },
    {
      "inputs": [],
      "name": "CompanyOwnerCannotHaveOtherRoles",
      "type": "error"
    },
    {
      "inputs": [],
      "name": "ConsiglioSaporisAlreadyAssigned",
      "type": "error"
    },
    {
      "inputs": [],
      "name": "DelayNotPassed",
      "type": "error"
    },
    {
      "inputs": [],
      "name": "DirectPauseDisabled",
      "type": "error"
    },
    {
      "inputs": [],
      "name": "DirectUnpauseDisabled",
      "type": "error"
    },
    {
      "inputs": [],
      "name": "DominusCannotAssignLevel3",
      "type": "error"
    },
    {
      "inputs": [],
      "name": "DominusSaporisAlreadyAssigned",
      "type": "error"
    },
    {
      "inputs": [],
      "name": "ExceedsMaxRoleLevel",
      "type": "error"
    },
    {
      "inputs": [],
      "name": "InsufficientPermission",
      "type": "error"
    },
    {
      "inputs": [],
      "name": "InvalidAddress",
      "type": "error"
    },
    {
      "inputs": [],
      "name": "InvalidAmount",
      "type": "error"
    },
    {
      "inputs": [],
      "name": "InvalidBurnVault",
      "type": "error"
    },
    {
      "inputs": [],
      "name": "InvalidCompanyRoleLevel",
      "type": "error"
    },
    {
      "inputs": [],
      "name": "InvalidFeeToken",
      "type": "error"
    },
    {
      "inputs": [],
      "name": "InvalidRoleForCompanyAssignment",
      "type": "error"
    },
    {
      "inputs": [],
      "name": "InvalidRoleForGlobalAssignment",
      "type": "error"
    },
    {
      "inputs": [],
      "name": "InvalidTransitionPeriod",
      "type": "error"
    },
    {
      "inputs": [],
      "name": "LaunchpadNotConfigured",
      "type": "error"
    },
    {
      "inputs": [],
      "name": "NameRequired",
      "type": "error"
    },
    {
      "inputs": [],
      "name": "NewMaxTooLow",
      "type": "error"
    },
    {
      "inputs": [],
      "name": "NoPendingRequest",
      "type": "error"
    },
    {
      "inputs": [],
      "name": "NoPendingTransfer",
      "type": "error"
    },
    {
      "inputs": [],
      "name": "NotAcceptedContract",
      "type": "error"
    },
    {
      "inputs": [],
      "name": "NotAuthorized",
      "type": "error"
    },
    {
      "inputs": [],
      "name": "NotCompanyMember",
      "type": "error"
    },
    {
      "inputs": [],
      "name": "NotCompanySegment",
      "type": "error"
    },
    {
      "inputs": [],
      "name": "NotOwnerNorAdmin",
      "type": "error"
    },
    {
      "inputs": [],
      "name": "OnlyConsiglioOrGlobalAdmin",
      "type": "error"
    },
    {
      "inputs": [],
      "name": "PendingRequestAlreadyExists",
      "type": "error"
    },
    {
      "inputs": [],
      "name": "RenounceOwnershipDisabled",
      "type": "error"
    },
    {
      "inputs": [],
      "name": "RoleDoesNotExist",
      "type": "error"
    },
    {
      "inputs": [],
      "name": "TokenAlreadyFinalized",
      "type": "error"
    },
    {
      "inputs": [],
      "name": "TokenLimitReached",
      "type": "error"
    },
    {
      "inputs": [],
      "name": "TransferDelayNotPassed",
      "type": "error"
    },
    {
      "inputs": [],
      "name": "TransferOwnershipDirectDisabled",
      "type": "error"
    },
    {
      "inputs": [],
      "name": "UnauthorizedCaller",
      "type": "error"
    },
    {
      "inputs": [],
      "name": "UpgradeToAndCallDisabled",
      "type": "error"
    },
    {
      "inputs": [],
      "name": "UpgradeToDisabled",
      "type": "error"
    },
    {
      "inputs": [],
      "name": "ZeroAddress",
      "type": "error"
    },
    {
      "anonymous": false,
      "inputs": [
        {
          "indexed": false,
          "internalType": "address",
          "name": "previousAdmin",
          "type": "address"
        },
        {
          "indexed": false,
          "internalType": "address",
          "name": "newAdmin",
          "type": "address"
        }
      ],
      "name": "AdminChanged",
      "type": "event"
    },
    {
      "anonymous": false,
      "inputs": [
        {
          "indexed": true,
          "internalType": "address",
          "name": "beacon",
          "type": "address"
        }
      ],
      "name": "BeaconUpgraded",
      "type": "event"
    },
    {
      "anonymous": false,
      "inputs": [
        {
          "indexed": true,
          "internalType": "string",
          "name": "segment",
          "type": "string"
        },
        {
          "indexed": true,
          "internalType": "address",
          "name": "contractAddress",
          "type": "address"
        },
        {
          "indexed": true,
          "internalType": "address",
          "name": "setBy",
          "type": "address"
        }
      ],
      "name": "ContractSet",
      "type": "event"
    },
    {
      "anonymous": false,
      "inputs": [
        {
          "indexed": false,
          "internalType": "uint256",
          "name": "percentage",
          "type": "uint256"
        }
      ],
      "name": "FeePercentageSet",
      "type": "event"
    },
    {
      "anonymous": false,
      "inputs": [
        {
          "indexed": true,
          "internalType": "address",
          "name": "token",
          "type": "address"
        }
      ],
      "name": "FeeTokenSet",
      "type": "event"
    },
    {
      "anonymous": false,
      "inputs": [
        {
          "indexed": false,
          "internalType": "uint8",
          "name": "version",
          "type": "uint8"
        }
      ],
      "name": "Initialized",
      "type": "event"
    },
    {
      "anonymous": false,
      "inputs": [
        {
          "indexed": false,
          "internalType": "address",
          "name": "newImplementation",
          "type": "address"
        }
      ],
      "name": "LaunchpadUpgradeAccepted",
      "type": "event"
    },
    {
      "anonymous": false,
      "inputs": [],
      "name": "LaunchpadUpgradeCancelled",
      "type": "event"
    },
    {
      "anonymous": false,
      "inputs": [
        {
          "indexed": false,
          "internalType": "address",
          "name": "newImplementation",
          "type": "address"
        },
        {
          "indexed": false,
          "internalType": "uint256",
          "name": "timestamp",
          "type": "uint256"
        },
        {
          "indexed": true,
          "internalType": "address",
          "name": "assignedBy",
          "type": "address"
        }
      ],
      "name": "LaunchpadUpgradeProposed",
      "type": "event"
    },
    {
      "anonymous": false,
      "inputs": [
        {
          "indexed": true,
          "internalType": "address",
          "name": "currentOwner",
          "type": "address"
        }
      ],
      "name": "OwnershipTransferCancelled",
      "type": "event"
    },
    {
      "anonymous": false,
      "inputs": [
        {
          "indexed": true,
          "internalType": "address",
          "name": "previousOwner",
          "type": "address"
        },
        {
          "indexed": true,
          "internalType": "address",
          "name": "newOwner",
          "type": "address"
        }
      ],
      "name": "OwnershipTransferCompleted",
      "type": "event"
    },
    {
      "anonymous": false,
      "inputs": [
        {
          "indexed": true,
          "internalType": "address",
          "name": "currentOwner",
          "type": "address"
        },
        {
          "indexed": true,
          "internalType": "address",
          "name": "pendingOwner",
          "type": "address"
        },
        {
          "indexed": false,
          "internalType": "uint256",
          "name": "requestTime",
          "type": "uint256"
        }
      ],
      "name": "OwnershipTransferRequested",
      "type": "event"
    },
    {
      "anonymous": false,
      "inputs": [
        {
          "indexed": true,
          "internalType": "address",
          "name": "previousOwner",
          "type": "address"
        },
        {
          "indexed": true,
          "internalType": "address",
          "name": "newOwner",
          "type": "address"
        }
      ],
      "name": "OwnershipTransferred",
      "type": "event"
    },
    {
      "anonymous": false,
      "inputs": [
        {
          "indexed": false,
          "internalType": "address",
          "name": "account",
          "type": "address"
        }
      ],
      "name": "Paused",
      "type": "event"
    },
    {
      "anonymous": false,
      "inputs": [
        {
          "indexed": true,
          "internalType": "address",
          "name": "vault",
          "type": "address"
        }
      ],
      "name": "PyreVaultIgnited",
      "type": "event"
    },
    {
      "anonymous": false,
      "inputs": [
        {
          "indexed": false,
          "internalType": "string",
          "name": "roleName",
          "type": "string"
        },
        {
          "indexed": true,
          "internalType": "address",
          "name": "account",
          "type": "address"
        },
        {
          "indexed": true,
          "internalType": "address",
          "name": "assignedBy",
          "type": "address"
        }
      ],
      "name": "RoleAssignedHierarchical",
      "type": "event"
    },
    {
      "anonymous": false,
      "inputs": [
        {
          "indexed": false,
          "internalType": "string",
          "name": "roleName",
          "type": "string"
        },
        {
          "indexed": true,
          "internalType": "address",
          "name": "account",
          "type": "address"
        },
        {
          "indexed": true,
          "internalType": "address",
          "name": "assignedBy",
          "type": "address"
        },
        {
          "indexed": false,
          "internalType": "uint256",
          "name": "companyId",
          "type": "uint256"
        }
      ],
      "name": "RoleAssignedHierarchicalCompany",
      "type": "event"
    },
    {
      "anonymous": false,
      "inputs": [
        {
          "indexed": false,
          "internalType": "string",
          "name": "roleName",
          "type": "string"
        },
        {
          "indexed": false,
          "internalType": "bytes32",
          "name": "role",
          "type": "bytes32"
        }
      ],
      "name": "RoleCreated",
      "type": "event"
    },
    {
      "anonymous": false,
      "inputs": [
        {
          "indexed": true,
          "internalType": "bytes32",
          "name": "role",
          "type": "bytes32"
        },
        {
          "indexed": true,
          "internalType": "address",
          "name": "account",
          "type": "address"
        },
        {
          "indexed": true,
          "internalType": "address",
          "name": "revokedBy",
          "type": "address"
        }
      ],
      "name": "RoleRevoked",
      "type": "event"
    },
    {
      "anonymous": false,
      "inputs": [
        {
          "indexed": true,
          "internalType": "string",
          "name": "name",
          "type": "string"
        },
        {
          "indexed": true,
          "internalType": "address",
          "name": "router",
          "type": "address"
        },
        {
          "indexed": true,
          "internalType": "address",
          "name": "factory",
          "type": "address"
        }
      ],
      "name": "SwapRouterSet",
      "type": "event"
    },
    {
      "anonymous": false,
      "inputs": [
        {
          "indexed": false,
          "internalType": "uint256",
          "name": "amount",
          "type": "uint256"
        },
        {
          "indexed": true,
          "internalType": "address",
          "name": "token",
          "type": "address"
        },
        {
          "indexed": true,
          "internalType": "uint256",
          "name": "companyId",
          "type": "uint256"
        }
      ],
      "name": "TokensBurned",
      "type": "event"
    },
    {
      "anonymous": false,
      "inputs": [
        {
          "indexed": false,
          "internalType": "address",
          "name": "account",
          "type": "address"
        }
      ],
      "name": "Unpaused",
      "type": "event"
    },
    {
      "anonymous": false,
      "inputs": [
        {
          "indexed": true,
          "internalType": "address",
          "name": "proxy",
          "type": "address"
        },
        {
          "indexed": false,
          "internalType": "address",
          "name": "newImplementation",
          "type": "address"
        }
      ],
      "name": "UpgradeAccepted",
      "type": "event"
    },
    {
      "anonymous": false,
      "inputs": [
        {
          "indexed": true,
          "internalType": "address",
          "name": "proxy",
          "type": "address"
        }
      ],
      "name": "UpgradeCancelled",
      "type": "event"
    },
    {
      "anonymous": false,
      "inputs": [
        {
          "indexed": true,
          "internalType": "address",
          "name": "proxy",
          "type": "address"
        },
        {
          "indexed": false,
          "internalType": "address",
          "name": "newImplementation",
          "type": "address"
        },
        {
          "indexed": false,
          "internalType": "uint256",
          "name": "timestamp",
          "type": "uint256"
        },
        {
          "indexed": true,
          "internalType": "address",
          "name": "assignedBy",
          "type": "address"
        }
      ],
      "name": "UpgradeProposed",
      "type": "event"
    },
    {
      "anonymous": false,
      "inputs": [
        {
          "indexed": true,
          "internalType": "address",
          "name": "implementation",
          "type": "address"
        }
      ],
      "name": "Upgraded",
      "type": "event"
    },
    {
      "anonymous": false,
      "inputs": [
        {
          "indexed": true,
          "internalType": "address",
          "name": "vault",
          "type": "address"
        }
      ],
      "name": "VaultIgnitionCancelled",
      "type": "event"
    },
    {
      "anonymous": false,
      "inputs": [
        {
          "indexed": true,
          "internalType": "address",
          "name": "vault",
          "type": "address"
        },
        {
          "indexed": false,
          "internalType": "uint256",
          "name": "timestamp",
          "type": "uint256"
        }
      ],
      "name": "VaultIgnitionRequested",
      "type": "event"
    },
    {
      "inputs": [
        {
          "internalType": "address",
          "name": "proxy",
          "type": "address"
        }
      ],
      "name": "acceptEmergencyChildUpgrade",
      "outputs": [],
      "stateMutability": "nonpayable",
      "type": "function"
    },
    {
      "inputs": [
        {
          "internalType": "address",
          "name": "newImplementation",
          "type": "address"
        }
      ],
      "name": "acceptEmergencyLaunchpadUpgrade",
      "outputs": [],
      "stateMutability": "nonpayable",
      "type": "function"
    },
    {
      "inputs": [],
      "name": "acceptLaunchpadUpgrade",
      "outputs": [],
      "stateMutability": "nonpayable",
      "type": "function"
    },
    {
      "inputs": [
        {
          "internalType": "address",
          "name": "proxy",
          "type": "address"
        }
      ],
      "name": "acceptUpgrade",
      "outputs": [],
      "stateMutability": "nonpayable",
      "type": "function"
    },
    {
      "inputs": [
        {
          "internalType": "address",
          "name": "vault",
          "type": "address"
        }
      ],
      "name": "activateBurnVault",
      "outputs": [],
      "stateMutability": "nonpayable",
      "type": "function"
    },
    {
      "inputs": [
        {
          "internalType": "uint256",
          "name": "companyId",
          "type": "uint256"
        },
        {
          "internalType": "bytes32",
          "name": "role",
          "type": "bytes32"
        },
        {
          "internalType": "uint256",
          "name": "roleLevel",
          "type": "uint256"
        },
        {
          "internalType": "address",
          "name": "account",
          "type": "address"
        },
        {
          "internalType": "address",
          "name": "assignedBy",
          "type": "address"
        },
        {
          "internalType": "string",
          "name": "roleName",
          "type": "string"
        }
      ],
      "name": "assignCompanyRole",
      "outputs": [],
      "stateMutability": "nonpayable",
      "type": "function"
    },
    {
      "inputs": [
        {
          "internalType": "string",
          "name": "roleName",
          "type": "string"
        },
        {
          "internalType": "address",
          "name": "account",
          "type": "address"
        },
        {
          "internalType": "uint256",
          "name": "roleLevel",
          "type": "uint256"
        }
      ],
      "name": "assignVanellixRole",
      "outputs": [],
      "stateMutability": "nonpayable",
      "type": "function"
    },
    {
      "inputs": [
        {
          "internalType": "address",
          "name": "tokenSale",
          "type": "address"
        },
        {
          "internalType": "address",
          "name": "feeTokenParam",
          "type": "address"
        },
        {
          "internalType": "uint256",
          "name": "totalTransactionAmount",
          "type": "uint256"
        },
        {
          "internalType": "address",
          "name": "sender",
          "type": "address"
        },
        {
          "internalType": "uint256",
          "name": "companyId",
          "type": "uint256"
        }
      ],
      "name": "burnFees",
      "outputs": [
        {
          "internalType": "uint256",
          "name": "",
          "type": "uint256"
        }
      ],
      "stateMutability": "nonpayable",
      "type": "function"
    },
    {
      "inputs": [
        {
          "internalType": "address",
          "name": "proxy",
          "type": "address"
        }
      ],
      "name": "cancelEmergencyChildUpgrade",
      "outputs": [],
      "stateMutability": "nonpayable",
      "type": "function"
    },
    {
      "inputs": [
        {
          "internalType": "address",
          "name": "newImplementation",
          "type": "address"
        }
      ],
      "name": "cancelEmergencyLaunchpadUpgrade",
      "outputs": [],
      "stateMutability": "nonpayable",
      "type": "function"
    },
    {
      "inputs": [],
      "name": "cancelLaunchpadUpgrade",
      "outputs": [],
      "stateMutability": "nonpayable",
      "type": "function"
    },
    {
      "inputs": [],
      "name": "cancelOwnershipTransfer",
      "outputs": [],
      "stateMutability": "nonpayable",
      "type": "function"
    },
    {
      "inputs": [
        {
          "internalType": "address",
          "name": "proxy",
          "type": "address"
        }
      ],
      "name": "cancelUpgrade",
      "outputs": [],
      "stateMutability": "nonpayable",
      "type": "function"
    },
    {
      "inputs": [
        {
          "internalType": "address",
          "name": "vault",
          "type": "address"
        }
      ],
      "name": "cancelVaultUpdate",
      "outputs": [],
      "stateMutability": "nonpayable",
      "type": "function"
    },
    {
      "inputs": [
        {
          "internalType": "address",
          "name": "account",
          "type": "address"
        }
      ],
      "name": "companyIdOwned",
      "outputs": [
        {
          "internalType": "uint256",
          "name": "",
          "type": "uint256"
        }
      ],
      "stateMutability": "view",
      "type": "function"
    },
    {
      "inputs": [
        {
          "internalType": "address",
          "name": "account",
          "type": "address"
        }
      ],
      "name": "companyIdsByUser",
      "outputs": [
        {
          "internalType": "uint256[]",
          "name": "",
          "type": "uint256[]"
        }
      ],
      "stateMutability": "view",
      "type": "function"
    },
    {
      "inputs": [
        {
          "internalType": "uint256",
          "name": "companyId",
          "type": "uint256"
        }
      ],
      "name": "companyOwners",
      "outputs": [
        {
          "internalType": "address",
          "name": "",
          "type": "address"
        }
      ],
      "stateMutability": "view",
      "type": "function"
    },
    {
      "inputs": [
        {
          "internalType": "address",
          "name": "account",
          "type": "address"
        },
        {
          "internalType": "uint256",
          "name": "companyId",
          "type": "uint256"
        }
      ],
      "name": "companyUserRoles",
      "outputs": [
        {
          "components": [
            {
              "internalType": "uint256",
              "name": "companyId",
              "type": "uint256"
            },
            {
              "internalType": "address",
              "name": "wallet",
              "type": "address"
            },
            {
              "internalType": "bytes32",
              "name": "role",
              "type": "bytes32"
            },
            {
              "internalType": "uint256",
              "name": "roleLevel",
              "type": "uint256"
            },
            {
              "internalType": "address",
              "name": "assignedBy",
              "type": "address"
            },
            {
              "internalType": "bool",
              "name": "isActive",
              "type": "bool"
            }
          ],
          "internalType": "struct GlobalStructs.CompanyUserRole",
          "name": "",
          "type": "tuple"
        }
      ],
      "stateMutability": "view",
      "type": "function"
    },
    {
      "inputs": [],
      "name": "completeOwnershipTransfer",
      "outputs": [],
      "stateMutability": "nonpayable",
      "type": "function"
    },
    {
      "inputs": [
        {
          "internalType": "address",
          "name": "vault",
          "type": "address"
        }
      ],
      "name": "confirmVaultUpdate",
      "outputs": [],
      "stateMutability": "nonpayable",
      "type": "function"
    },
    {
      "inputs": [
        {
          "internalType": "string",
          "name": "roleName",
          "type": "string"
        },
        {
          "internalType": "uint256",
          "name": "level",
          "type": "uint256"
        }
      ],
      "name": "createGlobalRole",
      "outputs": [
        {
          "internalType": "bytes32",
          "name": "",
          "type": "bytes32"
        }
      ],
      "stateMutability": "nonpayable",
      "type": "function"
    },
    {
      "inputs": [],
      "name": "daoTransitionTimestamp",
      "outputs": [
        {
          "internalType": "uint256",
          "name": "",
          "type": "uint256"
        }
      ],
      "stateMutability": "view",
      "type": "function"
    },
    {
      "inputs": [
        {
          "internalType": "address",
          "name": "proxy",
          "type": "address"
        },
        {
          "internalType": "address",
          "name": "newImplementation",
          "type": "address"
        }
      ],
      "name": "emergencyProposeChildUpgrade",
      "outputs": [],
      "stateMutability": "nonpayable",
      "type": "function"
    },
    {
      "inputs": [
        {
          "internalType": "address",
          "name": "newImplementation",
          "type": "address"
        }
      ],
      "name": "emergencyProposeLaunchpadUpgrade",
      "outputs": [],
      "stateMutability": "nonpayable",
      "type": "function"
    },
    {
      "inputs": [],
      "name": "feePercentage",
      "outputs": [
        {
          "internalType": "uint256",
          "name": "",
          "type": "uint256"
        }
      ],
      "stateMutability": "view",
      "type": "function"
    },
    {
      "inputs": [],
      "name": "feeToken",
      "outputs": [
        {
          "internalType": "address",
          "name": "",
          "type": "address"
        }
      ],
      "stateMutability": "view",
      "type": "function"
    },
    {
      "inputs": [],
      "name": "getAdminRole",
      "outputs": [
        {
          "internalType": "bytes32",
          "name": "",
          "type": "bytes32"
        }
      ],
      "stateMutability": "view",
      "type": "function"
    },
    {
      "inputs": [],
      "name": "getBurnVaultDetails",
      "outputs": [
        {
          "components": [
            {
              "internalType": "address",
              "name": "wallet",
              "type": "address"
            },
            {
              "internalType": "address",
              "name": "commissionToken",
              "type": "address"
            },
            {
              "internalType": "uint256",
              "name": "commissionPercentage",
              "type": "uint256"
            },
            {
              "internalType": "string",
              "name": "status",
              "type": "string"
            },
            {
              "internalType": "address",
              "name": "comparisonToken",
              "type": "address"
            },
            {
              "internalType": "uint256",
              "name": "burnTokenMinPrice",
              "type": "uint256"
            }
          ],
          "internalType": "struct GlobalStructs.BurnWalletDetail",
          "name": "",
          "type": "tuple"
        }
      ],
      "stateMutability": "view",
      "type": "function"
    },
    {
      "inputs": [
        {
          "internalType": "address",
          "name": "account",
          "type": "address"
        },
        {
          "internalType": "uint256",
          "name": "companyId",
          "type": "uint256"
        }
      ],
      "name": "getCompanyLevel",
      "outputs": [
        {
          "internalType": "uint256",
          "name": "",
          "type": "uint256"
        }
      ],
      "stateMutability": "view",
      "type": "function"
    },
    {
      "inputs": [],
      "name": "getDaoTransitionPeriod",
      "outputs": [
        {
          "internalType": "uint256",
          "name": "",
          "type": "uint256"
        }
      ],
      "stateMutability": "view",
      "type": "function"
    },
    {
      "inputs": [
        {
          "internalType": "string",
          "name": "roleName",
          "type": "string"
        }
      ],
      "name": "getDynamicRole",
      "outputs": [
        {
          "internalType": "bytes32",
          "name": "",
          "type": "bytes32"
        }
      ],
      "stateMutability": "view",
      "type": "function"
    },
    {
      "inputs": [
        {
          "internalType": "string",
          "name": "roleName",
          "type": "string"
        }
      ],
      "name": "getDynamicRoleLevel",
      "outputs": [
        {
          "internalType": "uint256",
          "name": "",
          "type": "uint256"
        }
      ],
      "stateMutability": "view",
      "type": "function"
    },
    {
      "inputs": [],
      "name": "getFeePercentage",
      "outputs": [
        {
          "internalType": "uint256",
          "name": "",
          "type": "uint256"
        }
      ],
      "stateMutability": "view",
      "type": "function"
    },
    {
      "inputs": [],
      "name": "getFeeToken",
      "outputs": [
        {
          "internalType": "address",
          "name": "",
          "type": "address"
        }
      ],
      "stateMutability": "view",
      "type": "function"
    },
    {
      "inputs": [
        {
          "internalType": "address",
          "name": "account",
          "type": "address"
        }
      ],
      "name": "getHighestRoleLevel",
      "outputs": [
        {
          "internalType": "uint256",
          "name": "",
          "type": "uint256"
        }
      ],
      "stateMutability": "view",
      "type": "function"
    },
    {
      "inputs": [],
      "name": "getImplementation",
      "outputs": [
        {
          "internalType": "address",
          "name": "",
          "type": "address"
        }
      ],
      "stateMutability": "view",
      "type": "function"
    },
    {
      "inputs": [],
      "name": "getImplementationType",
      "outputs": [
        {
          "internalType": "bytes32",
          "name": "",
          "type": "bytes32"
        }
      ],
      "stateMutability": "pure",
      "type": "function"
    },
    {
      "inputs": [],
      "name": "getLaunchpadAddress",
      "outputs": [
        {
          "internalType": "address",
          "name": "",
          "type": "address"
        }
      ],
      "stateMutability": "view",
      "type": "function"
    },
    {
      "inputs": [],
      "name": "getOwner",
      "outputs": [
        {
          "internalType": "address",
          "name": "",
          "type": "address"
        }
      ],
      "stateMutability": "view",
      "type": "function"
    },
    {
      "inputs": [],
      "name": "getOwnerLaunchpad",
      "outputs": [
        {
          "internalType": "address",
          "name": "",
          "type": "address"
        }
      ],
      "stateMutability": "view",
      "type": "function"
    },
    {
      "inputs": [],
      "name": "getPendingChanges",
      "outputs": [
        {
          "components": [
            {
              "internalType": "address",
              "name": "pendingOwner",
              "type": "address"
            },
            {
              "internalType": "uint256",
              "name": "ownershipTransferTimestamp",
              "type": "uint256"
            },
            {
              "components": [
                {
                  "internalType": "address",
                  "name": "wallet",
                  "type": "address"
                },
                {
                  "internalType": "uint256",
                  "name": "timestamp",
                  "type": "uint256"
                }
              ],
              "internalType": "struct GlobalStructs.PendingWalletChange[]",
              "name": "adminAdds",
              "type": "tuple[]"
            },
            {
              "components": [
                {
                  "internalType": "address",
                  "name": "wallet",
                  "type": "address"
                },
                {
                  "internalType": "uint256",
                  "name": "timestamp",
                  "type": "uint256"
                }
              ],
              "internalType": "struct GlobalStructs.PendingWalletChange[]",
              "name": "adminRems",
              "type": "tuple[]"
            },
            {
              "components": [
                {
                  "internalType": "address",
                  "name": "wallet",
                  "type": "address"
                },
                {
                  "internalType": "uint256",
                  "name": "timestamp",
                  "type": "uint256"
                }
              ],
              "internalType": "struct GlobalStructs.PendingWalletChange[]",
              "name": "burnAdds",
              "type": "tuple[]"
            },
            {
              "components": [
                {
                  "internalType": "address",
                  "name": "wallet",
                  "type": "address"
                },
                {
                  "internalType": "uint256",
                  "name": "timestamp",
                  "type": "uint256"
                }
              ],
              "internalType": "struct GlobalStructs.PendingWalletChange[]",
              "name": "burnRems",
              "type": "tuple[]"
            }
          ],
          "internalType": "struct GlobalStructs.PendingChanges",
          "name": "",
          "type": "tuple"
        }
      ],
      "stateMutability": "view",
      "type": "function"
    },
    {
      "inputs": [],
      "name": "getPendingUpgrade",
      "outputs": [
        {
          "internalType": "address",
          "name": "",
          "type": "address"
        }
      ],
      "stateMutability": "view",
      "type": "function"
    },
    {
      "inputs": [
        {
          "internalType": "address",
          "name": "vault",
          "type": "address"
        }
      ],
      "name": "getPendingVaultUpdateTime",
      "outputs": [
        {
          "internalType": "uint256",
          "name": "",
          "type": "uint256"
        }
      ],
      "stateMutability": "view",
      "type": "function"
    },
    {
      "inputs": [],
      "name": "getSwapRouter",
      "outputs": [
        {
          "internalType": "address",
          "name": "",
          "type": "address"
        }
      ],
      "stateMutability": "view",
      "type": "function"
    },
    {
      "inputs": [],
      "name": "getSwapRouterNFactory",
      "outputs": [
        {
          "components": [
            {
              "internalType": "string",
              "name": "name",
              "type": "string"
            },
            {
              "internalType": "address",
              "name": "router",
              "type": "address"
            },
            {
              "internalType": "address",
              "name": "factory",
              "type": "address"
            }
          ],
          "internalType": "struct GlobalStructs.SwapRouterNFactory",
          "name": "",
          "type": "tuple"
        }
      ],
      "stateMutability": "view",
      "type": "function"
    },
    {
      "inputs": [],
      "name": "getTimeRemainingForOwnershipTransfer",
      "outputs": [
        {
          "internalType": "uint256",
          "name": "",
          "type": "uint256"
        }
      ],
      "stateMutability": "view",
      "type": "function"
    },
    {
      "inputs": [],
      "name": "getVersion",
      "outputs": [
        {
          "internalType": "string",
          "name": "",
          "type": "string"
        }
      ],
      "stateMutability": "view",
      "type": "function"
    },
    {
      "inputs": [],
      "name": "initialize",
      "outputs": [],
      "stateMutability": "nonpayable",
      "type": "function"
    },
    {
      "inputs": [
        {
          "internalType": "address",
          "name": "_launchpadAddress",
          "type": "address"
        }
      ],
      "name": "initializeV2",
      "outputs": [],
      "stateMutability": "nonpayable",
      "type": "function"
    },
    {
      "inputs": [
        {
          "internalType": "address",
          "name": "vault",
          "type": "address"
        }
      ],
      "name": "isBurnVault",
      "outputs": [
        {
          "internalType": "bool",
          "name": "",
          "type": "bool"
        }
      ],
      "stateMutability": "view",
      "type": "function"
    },
    {
      "inputs": [],
      "name": "owner",
      "outputs": [
        {
          "internalType": "address",
          "name": "",
          "type": "address"
        }
      ],
      "stateMutability": "view",
      "type": "function"
    },
    {
      "inputs": [],
      "name": "pause",
      "outputs": [],
      "stateMutability": "nonpayable",
      "type": "function"
    },
    {
      "inputs": [
        {
          "internalType": "address",
          "name": "contractAddress",
          "type": "address"
        }
      ],
      "name": "pauseContract",
      "outputs": [],
      "stateMutability": "nonpayable",
      "type": "function"
    },
    {
      "inputs": [],
      "name": "paused",
      "outputs": [
        {
          "internalType": "bool",
          "name": "",
          "type": "bool"
        }
      ],
      "stateMutability": "view",
      "type": "function"
    },
    {
      "inputs": [
        {
          "internalType": "address",
          "name": "proxy",
          "type": "address"
        },
        {
          "internalType": "address",
          "name": "newImplementation",
          "type": "address"
        }
      ],
      "name": "proposeChildUpgrade",
      "outputs": [],
      "stateMutability": "nonpayable",
      "type": "function"
    },
    {
      "inputs": [
        {
          "internalType": "address",
          "name": "newImplementation",
          "type": "address"
        }
      ],
      "name": "proposeLaunchpadUpgrade",
      "outputs": [],
      "stateMutability": "nonpayable",
      "type": "function"
    },
    {
      "inputs": [],
      "name": "proxiableUUID",
      "outputs": [
        {
          "internalType": "bytes32",
          "name": "",
          "type": "bytes32"
        }
      ],
      "stateMutability": "view",
      "type": "function"
    },
    {
      "inputs": [],
      "name": "renounceOwnership",
      "outputs": [],
      "stateMutability": "nonpayable",
      "type": "function"
    },
    {
      "inputs": [
        {
          "internalType": "address",
          "name": "newOwner",
          "type": "address"
        }
      ],
      "name": "requestOwnershipTransfer",
      "outputs": [],
      "stateMutability": "nonpayable",
      "type": "function"
    },
    {
      "inputs": [
        {
          "internalType": "address",
          "name": "vault",
          "type": "address"
        }
      ],
      "name": "requestVaultUpdate",
      "outputs": [],
      "stateMutability": "nonpayable",
      "type": "function"
    },
    {
      "inputs": [
        {
          "internalType": "uint256",
          "name": "companyId",
          "type": "uint256"
        },
        {
          "internalType": "bytes32",
          "name": "role",
          "type": "bytes32"
        },
        {
          "internalType": "uint256",
          "name": "roleLevel",
          "type": "uint256"
        },
        {
          "internalType": "address",
          "name": "account",
          "type": "address"
        },
        {
          "internalType": "address",
          "name": "assignedBy",
          "type": "address"
        },
        {
          "internalType": "string",
          "name": "roleName",
          "type": "string"
        }
      ],
      "name": "revokeCompanyRole",
      "outputs": [],
      "stateMutability": "nonpayable",
      "type": "function"
    },
    {
      "inputs": [
        {
          "internalType": "bytes32",
          "name": "role",
          "type": "bytes32"
        },
        {
          "internalType": "uint256",
          "name": "roleLevel",
          "type": "uint256"
        },
        {
          "internalType": "address",
          "name": "account",
          "type": "address"
        },
        {
          "internalType": "string",
          "name": "roleName",
          "type": "string"
        }
      ],
      "name": "revokeVanellixRole",
      "outputs": [],
      "stateMutability": "nonpayable",
      "type": "function"
    },
    {
      "inputs": [
        {
          "internalType": "address",
          "name": "contractAddress",
          "type": "address"
        },
        {
          "internalType": "string",
          "name": "segment",
          "type": "string"
        }
      ],
      "name": "setContract",
      "outputs": [],
      "stateMutability": "nonpayable",
      "type": "function"
    },
    {
      "inputs": [
        {
          "internalType": "uint256",
          "name": "newPeriod",
          "type": "uint256"
        }
      ],
      "name": "setDaoTransitionPeriod",
      "outputs": [],
      "stateMutability": "nonpayable",
      "type": "function"
    },
    {
      "inputs": [
        {
          "internalType": "uint256",
          "name": "percentage",
          "type": "uint256"
        }
      ],
      "name": "setFeePercentage",
      "outputs": [],
      "stateMutability": "nonpayable",
      "type": "function"
    },
    {
      "inputs": [
        {
          "internalType": "address",
          "name": "token",
          "type": "address"
        }
      ],
      "name": "setFeeToken",
      "outputs": [],
      "stateMutability": "nonpayable",
      "type": "function"
    },
    {
      "inputs": [
        {
          "internalType": "uint256",
          "name": "newMax",
          "type": "uint256"
        }
      ],
      "name": "setMaxRoleLevel",
      "outputs": [],
      "stateMutability": "nonpayable",
      "type": "function"
    },
    {
      "inputs": [
        {
          "internalType": "string",
          "name": "name",
          "type": "string"
        },
        {
          "internalType": "address",
          "name": "router",
          "type": "address"
        },
        {
          "internalType": "address",
          "name": "forge",
          "type": "address"
        }
      ],
      "name": "setSwapRouter",
      "outputs": [],
      "stateMutability": "nonpayable",
      "type": "function"
    },
    {
      "inputs": [
        {
          "internalType": "bytes4",
          "name": "interfaceId",
          "type": "bytes4"
        }
      ],
      "name": "supportsInterface",
      "outputs": [
        {
          "internalType": "bool",
          "name": "",
          "type": "bool"
        }
      ],
      "stateMutability": "view",
      "type": "function"
    },
    {
      "inputs": [],
      "name": "swapRouterNFactory",
      "outputs": [
        {
          "internalType": "string",
          "name": "name",
          "type": "string"
        },
        {
          "internalType": "address",
          "name": "router",
          "type": "address"
        },
        {
          "internalType": "address",
          "name": "factory",
          "type": "address"
        }
      ],
      "stateMutability": "view",
      "type": "function"
    },
    {
      "inputs": [
        {
          "internalType": "address",
          "name": "",
          "type": "address"
        }
      ],
      "name": "transferOwnership",
      "outputs": [],
      "stateMutability": "nonpayable",
      "type": "function"
    },
    {
      "inputs": [],
      "name": "unpause",
      "outputs": [],
      "stateMutability": "nonpayable",
      "type": "function"
    },
    {
      "inputs": [
        {
          "internalType": "address",
          "name": "contractAddress",
          "type": "address"
        }
      ],
      "name": "unpauseContract",
      "outputs": [],
      "stateMutability": "nonpayable",
      "type": "function"
    },
    {
      "inputs": [
        {
          "internalType": "address",
          "name": "proxy",
          "type": "address"
        }
      ],
      "name": "upgradeProposals",
      "outputs": [
        {
          "internalType": "address",
          "name": "newImplementation",
          "type": "address"
        },
        {
          "internalType": "uint256",
          "name": "timestamp",
          "type": "uint256"
        },
        {
          "internalType": "address",
          "name": "assignedBy",
          "type": "address"
        }
      ],
      "stateMutability": "view",
      "type": "function"
    },
    {
      "inputs": [
        {
          "internalType": "address",
          "name": "",
          "type": "address"
        }
      ],
      "name": "upgradeTo",
      "outputs": [],
      "stateMutability": "nonpayable",
      "type": "function"
    },
    {
      "inputs": [
        {
          "internalType": "address",
          "name": "",
          "type": "address"
        },
        {
          "internalType": "bytes",
          "name": "",
          "type": "bytes"
        }
      ],
      "name": "upgradeToAndCall",
      "outputs": [],
      "stateMutability": "payable",
      "type": "function"
    },
    {
      "inputs": [
        {
          "internalType": "string",
          "name": "segment",
          "type": "string"
        }
      ],
      "name": "validateContract",
      "outputs": [
        {
          "internalType": "address",
          "name": "",
          "type": "address"
        }
      ],
      "stateMutability": "view",
      "type": "function"
    },
    {
      "inputs": [
        {
          "internalType": "address",
          "name": "account",
          "type": "address"
        }
      ],
      "name": "vanellixUsers",
      "outputs": [
        {
          "components": [
            {
              "internalType": "address",
              "name": "wallet",
              "type": "address"
            },
            {
              "internalType": "bytes32",
              "name": "role",
              "type": "bytes32"
            },
            {
              "internalType": "uint256",
              "name": "roleLevel",
              "type": "uint256"
            },
            {
              "internalType": "address",
              "name": "assignedBy",
              "type": "address"
            },
            {
              "internalType": "bool",
              "name": "isActive",
              "type": "bool"
            }
          ],
          "internalType": "struct GlobalStructs.VanellixUser",
          "name": "",
          "type": "tuple"
        }
      ],
      "stateMutability": "view",
      "type": "function"
    },
    {
      "inputs": [],
      "name": "version",
      "outputs": [
        {
          "internalType": "string",
          "name": "",
          "type": "string"
        }
      ],
      "stateMutability": "view",
      "type": "function"
    }
  ],
  "bytecode": "0x60a08060405234602257306080526160fd908161002882396080518161352a0152f35b600080fdfe608080604052600436101561001357600080fd5b600090813560e01c90816301ffc9a714614d60575080630254720814614caa57806304820a1914614bd85780630952c50414614af85780630954ae96146149fa5780630d8e6e2c1461495157806311efbf61146124a257806311f101161461493657806315cce224146147bc5780631b1c2c7f146144df5780631b81b31d1461434757806323452b9c14614275578063257f36331461423b57806329b6eca914613fdb5780632a2767e514613f7a57806332b1364f14613ee85780633659cfe614613eb657806336d35c8614613e9b5780633705d2f014613df85780633b7774dd14613c0a5780633f4ba83a14613be25780633f7d9b8214613ae157806344d710a61461397157806345f806ab146138f4578063494480d91461364a5780634f1ef286146135ed57806352d1902d1461351757806354fd4d501461342e57806359473acf146132a65780635c975abb14613283578063622bfc701461324c578063647846a51461106c5780636bccebdb14613169578063715018a61461313e578063725c9c4914613114578063734c619f146130b657806374ced870146130975780637919462714612f885780637bffffe914612eb35780638129fc1c14612a185780638456cb59146129f0578063892c9175146126b3578063893d20e8146112005780638da5cb5b1461268a578063921c24521461264f57806393e3907614612625578063949bbc56146125c35780639fba32b9146124c1578063a001ecdd146124a2578063a3b8af39146123d5578063a93253c1146123a1578063aaf10f4214612359578063adb99c8a1461223e578063ae06c1b714612166578063aed0814c1461210f578063b3ecf236146120d4578063b5dd917c14611f9c578063b79a005514611d45578063bb8c976c14611cdb578063be8a366c14611648578063be92c6db14611466578063c27bce5f14611335578063c44fb8ec14611229578063c5a820ce14611205578063c696804f14611200578063c87d29df146111e1578063c978d8a5146111b1578063c9b4f4ca14611096578063ca709a251461106c578063cfc1b41914610eb4578063d294382b14610c1e578063d396cf9614610b7f578063d42f79ef14610a7a578063d97b9bd514610939578063e02e351d146108ff578063e24e2a6314610737578063e60ad0dc146105eb578063e71a7811146103ba5763f2fde38b1461038657600080fd5b346103b75760203660031901126103b7576004906103a2614db5565b506103ab615341565b635a42e44960e01b8152fd5b80fd5b50346103b757806003193601126103b75761015f5442101561059f576033546001600160a01b03163303610590575b6103f1615341565b603354610171546001600160a01b039081169116811561058157610172546202a300810180911161056d57421061055e579080610556926001600160601b0360a01b610171541661017155846101725561050660405161045081614e8d565b838152602081017fa5ccb6867d103f21ecf1c41cfc2f9edaeab012c60e542a449046031f4b3422f581526003604083019289845260608101938685526080820193600185526104b28960018060a01b0316600052610164602052604060002090565b925183546001600160a01b0319166001600160a01b03918216178455905160018401559051600283015593519101805492516001600160a81b0319909316919093161790151560a01b60ff60a01b16179055565b6001600160a01b038116600090815261016460205260409020600301805460ff60a01b191690557fe9a5158ac7353c7c7322ececc080bc8e89334efa5795b6e21e40eb266b0003d68580a3615e4b565b600160fb5580f35b631442118160e11b8352600483fd5b634e487b7160e01b84526011600452602484fd5b63357a03ed60e21b8352600483fd5b63ea8e4eb560e01b8152600490fd5b6040516244414f60e81b8152610163600382015260239020546001600160a01b031680156105dc5733146103e957635c427cd960e01b8152600490fd5b6336939d7d60e21b8252600482fd5b50346103b75760203660031901126103b757610605614db5565b61015f544210156106eb576033546001600160a01b031633036106dc575b61062b615341565b6001600160a01b038116600090815261017d60205260409020548015610581576201518081018091116106c85742106106b9576001600160a01b038116600090815261017d6020526040902061055691908390556040516001600160a01b03821681527f59b22fe8b92d7f99b54034c49432db394b5fad64472967b2cba6f5a999fed00790602090a1615b6a565b631442118160e11b8252600482fd5b634e487b7160e01b83526011600452602483fd5b63ea8e4eb560e01b8252600482fd5b6040516244414f60e81b8152610163600382015260239020546001600160a01b0316801561072857331461062357635c427cd960e01b8252600482fd5b6336939d7d60e21b8352600483fd5b50346103b75760803660031901126103b757602435600435610757614de6565b916064356001600160401b0381116108fb57610777903690600401614f7a565b61078033615420565b600133818060a01b03603354161491149061015f54421060001461089157159081610888575b50610879576107be83915b6107b9615341565b615206565b540361086a57600181108015610860575b610851576107dc33615420565b1015610842576001600160a01b0391909116600081815261016460205260409020838155600181018490556002810184905560030183905533917ff6391f5c32d9c69d2a47ea670b442974b53935d1edc7fd64eb21e047a839171b8480a4600160fb5580f35b630deda90360e41b8352600483fd5b63ba8db6af60e01b8452600484fd5b50600281116107cf565b63b810dc5d60e01b8452600484fd5b630ba9cf7d60e01b8552600485fd5b905015386107a6565b6040516244414f60e81b8152610163600382015260239020546001600160a01b03169081156108ec571591826108e3575b50816108d8575b50610879576107be83916107b1565b9050331415386108c9565b159150386108c2565b6336939d7d60e21b8852600488fd5b8480fd5b50346103b75760203660031901126103b7576020906040906001600160a01b03610927614db5565b16815261016a83522054604051908152f35b50346103b75760203660031901126103b757610953614db5565b61095c33615420565b600133818060a01b03603354161491149061015f544210600014610a1357159081610a0a575b506109fb5781905b610992615341565b61099c8180615f79565b6001600160a01b0316803b156109f857818091600460405180948193631fa5d41d60e11b83525af180156109ed576109d8575b50600160fb5580f35b816109e291614f07565b6103b75780386109cf565b6040513d84823e3d90fd5b50fd5b630ba9cf7d60e01b8252600482fd5b90501538610982565b6040516244414f60e81b8152610163600382015260239020546001600160a01b0316908115610a6b57159182610a62575b5081610a57575b506109fb57819061098a565b905033141538610a4b565b15915038610a44565b6336939d7d60e21b8552600485fd5b50346103b75760203660031901126103b757610a94614db5565b61015f54421015610b42576033546001600160a01b031633036106dc575b610aba615341565b6001600160a01b038116600090815261016f602052604090205415610b33576001600160a01b038116600090815261016f60205260409020829055610afe81615e94565b6001600160a01b03167f749159e34d3b1d5a3731c64f970f74cb6f8b53447dd949e4f518d2f7e408f61f8280a2600160fb5580f35b63198580dd60e31b8252600482fd5b6040516244414f60e81b8152610163600382015260239020546001600160a01b03168015610728573314610ab257635c427cd960e01b8252600482fd5b50346103b75760203660031901126103b75760043561015f544210600014610be1576033546001600160a01b031633036106dc575b610bbc615341565b620151808110610bd25761018855600160fb5580f35b6352b9311160e11b8252600482fd5b6040516244414f60e81b8152610163600382015260239020546001600160a01b03168015610728573314610bb457635c427cd960e01b8252600482fd5b50346103b75760603660031901126103b7576004356001600160401b038111610eb057610c4f903690600401614f7a565b610c57614dd0565b610c5f614de6565b9061015f544210600014610e73576033546001600160a01b03163303610e64575b610c88615341565b6040516020810190610cb66020828751610ca58187858c01614e45565b81010301601f198101835282614f07565b519020604051858152610cca602082614f07565b60208151910120148015610e53575b8015610e42575b610e335782516001600160401b038111610e1f57610d0c81610d0461019354614f98565b6101936151c1565b6020601f8211600114610db7579080610d8093928791610dac575b508160011b916000199060031b1c191617610193555b60018060a01b031691826001600160601b0360a01b6101945416176101945560018060a01b031692836001600160601b0360a01b61019554161761019555615321565b7fc81c01672b6ff4d4218e8c127ffde1c12f675a7205233e95431fa7df38ce46808480a4600160fb5580f35b905085015138610d27565b610193865280862090601f198316875b818110610e075750918391610d80959460019410610dee575b5050811b0161019355610d3d565b87015160001960f88460031b161c191690553880610de0565b9192602060018192868b015181550194019201610dc7565b634e487b7160e01b85526041600452602485fd5b63d92e233d60e01b8452600484fd5b506001600160a01b03821615610ce0565b506001600160a01b03811615610cd9565b63ea8e4eb560e01b8452600484fd5b6040516244414f60e81b8152610163600382015260239020546001600160a01b03168015610a6b573314610c8057635c427cd960e01b8452600484fd5b5080fd5b50346103b75760203660031901126103b757610ece614db5565b61015f5442101561102f576033546001600160a01b031633036106dc575b610ef4615341565b6001600160a01b038116600090815261017b602052604090209060405191610f1b83614ed9565b80546001600160a01b03908116845260018201546020850181815260029093015490911660408501521561102057516202a300810180911161056d57421061055e576001600160a01b038116600090815261017b602052604081206002905b82815560018101839055015581516001600160a01b039182169291849116833b15610eb05760405190631b2ce7f360e11b82526004820152818160248183885af180156109ed57611007575b5050516040516001600160a01b0390911681527f7dab0d5bdb5c06f7a30c06716066047b3d4fe92aa277d95aec0f06a079096ec890602090a2600160fb5580f35b8161101191614f07565b61101c578238610fc6565b8280fd5b63357a03ed60e21b8452600484fd5b6040516244414f60e81b8152610163600382015260239020546001600160a01b03168015610728573314610eec57635c427cd960e01b8252600482fd5b50346103b757806003193601126103b757610191546040516001600160a01b039091168152602090f35b50346103b75760203660031901126103b7576110b0614db5565b61015f54421015611174576033546001600160a01b031633036106dc575b6110d6615341565b6110e08180615f79565b6001600160a01b038116600090815261017d6020526040902054611165576001600160a01b038116600090815261017d60205260409020429055604080516001600160a01b03909216825242602083015233917fb18c6270b71e88d80a33e6ff96678cd5372d68c69a43a813e0d47088e8af81d691819081015b0390a2600160fb5580f35b635631a27d60e11b8252600482fd5b6040516244414f60e81b8152610163600382015260239020546001600160a01b031680156107285733146110ce57635c427cd960e01b8252600482fd5b50346103b75760403660031901126103b75760206111d96111d0614db5565b60243590615df9565b604051908152f35b50346103b757806003193601126103b757602061018854604051908152f35b61508d565b50346103b75760203660031901126103b75760206111d9611224614db5565b615420565b50346103b75760203660031901126103b757611243614db5565b61015f544210156112f8576033546001600160a01b031633036106dc575b611269615341565b6001600160a01b038116600090815261017b6020526040902060010154156112e9576001600160a01b038116600090815261017b602052604081206002905b8281556001810183905501556001600160a01b03167f3198dc80249fcfedbd0d06e1ff49a7695a51b006592328ce0b127cdeab77e9368280a2600160fb5580f35b63357a03ed60e21b8252600482fd5b6040516244414f60e81b8152610163600382015260239020546001600160a01b0316801561072857331461126157635c427cd960e01b8252600482fd5b50346103b75760203660031901126103b75761134f614db5565b61015f54421015611429576033546001600160a01b031633036106dc575b611375615341565b6001600160a01b038116600090815261017d60205260409020548015610581576201518081018091116106c85742106106b9576001600160a01b038116600090815261017b6020526040902090604051916113cf83614ed9565b80546001600160a01b039081168085526001830154602086015260029092015416604084015215610581576001600160a01b038116600090815261017d6020908152604080832086905561017b9091528120600290610f7a565b6040516244414f60e81b8152610163600382015260239020546001600160a01b0316801561072857331461136d57635c427cd960e01b8252600482fd5b50346103b757611475366150b6565b9394926040516926bab63a34aa37b5b2b760b11b8152610163600a820152602a60018060a01b03912054163303611639576114ae615341565b6001600160a01b0383811695908316861461162a576114cd8791615206565b540361161b576001600160a01b038216600090815261016760205260409020848852602052604087209160a060405161150581614ebe565b84548152600180831b03600186015416602082015260028501549081604082015260ff6004600388015497606084019889520154600180861b0381166080840152841c1615908115938491015291611612575b5061160357611568600191615420565b1191826115e3575b50506115d4576001600160a01b031660009081526101676020526040902090845260205260408320600401805460ff60a01b1916905533917ff6391f5c32d9c69d2a47ea670b442974b53935d1edc7fd64eb21e047a839171b8480a4600160fb5580f35b630deda90360e41b8552600485fd5b51908110801592506115f8575b503880611570565b6003915010386115f0565b6321bf417f60e21b8852600488fd5b90501538611558565b63b810dc5d60e01b8752600487fd5b630deda90360e41b8852600488fd5b631792196f60e31b8752600487fd5b50346103b757611657366150b6565b92939491906040516926bab63a34aa37b5b2b760b11b8152610163600a820152602a60018060a01b0391205416330361163957611692615341565b6001600160a01b038181169690831695868814611ccc57816116b387615206565b5403611cbd57600381108015611cb3575b611ca4578460038203611ba257505060405191610ca5602084018751946116f6602082818c0198610ca581878c614e45565b51902060405160208101906e444f4d494e55535f5341504f52495360881b8252600f8152611725602f82614f07565b5190201493611744602060405180938282019586918d51928391614e45565b519020604051602081019070434f4e5349474c494f5f5341504f52495360781b825260118152611775603182614f07565b519020149060036117868783615df9565b1480918b82611b17575b5061179c600191615420565b118a6040516b546f6b656e466163746f727960a01b8152610163600c820152602c60018060a01b039120541693159384928395611b0f575b5082611b04575b5050611af55790849182611aed575b5081611ae5575b50611ad6576001600160a01b0384166000908152610164602052604090206003015460a01c60ff16611ac7576001600160a01b038416600090815261016a6020526040902054611ab8578280611a99575b80611a79575b611a6a576001600160a01b038416600090815261016760205260409020858a526020526040892060ff600482015460a01c1661197e575b5050928281926004611930966118b77fc56cfa703b6eea7a1c31488509e991f49944dd94f1a0b29c32d87a6ff5f42024999786615fe5565b898c5261016760209081526040808e20878f529091528c208581556001810180546001600160a01b0319168c179055600281019190915560038082015501805460ff60a01b198b166001600160a81b031990911617600160a01b179055611941575b50505b604051928392604084526040840190614e68565b9060208301520390a3600160fb5580f35b6001600160a01b0316600090815261016a602052604090205580875261017c6020526040872080546001600160a01b031916861790558038611919565b8380611a13575b611a0457816119aa575b5061199b57388061187f565b635c6eedaf60e11b8852600488fd5b60029150015460405160208101918252602081526119c9604082614f07565b519020604051602081019070434f4e5349474c494f5f5341504f52495360781b8252601181526119fa603182614f07565b519020143861198f565b631867be1160e11b8a5260048afd5b5060028101546040516020810191825260208152611a32604082614f07565b51902060405160208101906e444f4d494e55535f5341504f52495360881b8252600f8152611a61602f82614f07565b51902014611985565b63747536fb60e01b8952600489fd5b5084895261017c60205260408920546001600160a01b0316871415611848565b5084895261017c60205260408920546001600160a01b03161515611842565b634979f0c760e11b8952600489fd5b6368527e6960e11b8952600489fd5b637898098b60e11b8952600489fd5b9050386117f1565b9150386117ea565b637e1ef5d560e01b8b5260048bfd5b141590508a386117db565b9250386117d4565b8193506002604061179c92611b4160019560018060a01b0316600052610167602052604060002090565b8c82526020522001546040516020810191825260208152611b63604082614f07565b519020604051602081019070434f4e5349474c494f5f5341504f52495360781b825260118152611b94603182614f07565b51902014939150508b611790565b611baf9193949294615df9565b6000198114611c955782811090811591611c8a575b5061162a5783885261017c60205260408820546001600160a01b03168614611c7b577fc56cfa703b6eea7a1c31488509e991f49944dd94f1a0b29c32d87a6ff5f4202494928492611c1a60049361193097615fe5565b878a5261016760209081526040808c20868d529091528a208481556001810180546001600160a01b0319168a1790556002810192909255600382015501805460ff60a01b1988166001600160a81b031990911617600160a01b17905561191c565b6326b1c0ad60e01b8852600488fd5b600391501038611bc4565b6321bf417f60e21b8952600489fd5b63285544a760e21b8952600489fd5b50600581116116c4565b63b810dc5d60e01b8952600489fd5b630deda90360e41b8952600489fd5b50346103b75760203660031901126103b757600435906001600160401b0382116103b7576020611d0e3660048501614f7a565b81611d226040519283815193849201614e45565b61016390820190815281900382019020546040516001600160a01b039091168152f35b50346103b75760603660031901126103b7576004356001600160401b038111610eb057611d76903690600401614f7a565b611d7e614dd0565b604435611d8a33615420565b600133818060a01b03603354161491149061015f544210600014611f2c57159081611f23575b50611f14575b611dbe615341565b611dc783615206565b54908115611f0557600181108015611efb575b611eec5780611de833615420565b10156115d4576001600160a01b038316600090815261016460205260409020916001830193845415801590611edb575b611ecc576001600160a01b03168087526101686020526040872054909490611ebd5783546001600160a01b03191685178455556002820155600301805460ff60a01b19339081166001600160a81b031990921691909117600160a01b17909155604051602080825291937f2271cff5ceb87d1cb9678385844551fbd00ce3a7914ad55dcab51896c63103d0928291611eb291830190614e68565b0390a3600160fb5580f35b636d1a4ed360e11b8752600487fd5b6368527e6960e11b8752600487fd5b5060ff600385015460a01c16611e18565b63ba8db6af60e01b8552600485fd5b5060028111611dda565b63b810dc5d60e01b8552600485fd5b630ba9cf7d60e01b8452600484fd5b90501538611db0565b6040516244414f60e81b8152610163600382015260239020546001600160a01b0316908115611f8d57159182611f84575b5081611f79575b5015611db657630ba9cf7d60e01b8452600484fd5b905033141538611f64565b15915038611f5d565b6336939d7d60e21b8752600487fd5b50346103b757806003193601126103b757611fb561522d565b50611fbe61522d565b5061016c546001600160a01b03169081156120aa5750604051611fe2604082614f07565b600681526561637469766560d01b6020820152905b61016d549160018060a01b0361016e54169261209060018060a01b0361018c54169261018954926040519561202b87614ebe565b86526020860196875260408601908152606086019182526080860194855260a086019384526040519687966020885260018060a01b03905116602088015260018060a01b0390511660408701525160608601525160c0608086015260e0850190614e68565b91516001600160a01b031660a08401525160c08301520390f35b506040516120b9604082614f07565b6008815267696e61637469766560c01b602082015290611ff7565b50346103b757806003193601126103b75760206040517fa36640f9c3d74ee87c99b3aee39f32849dda077410057abc393a2cb9e13139a78152f35b50346103b757806003193601126103b75761215761212b614fd2565b60018060a01b03610194541660018060a01b036101955416604051938493606085526060850190614e68565b91602084015260408301520390f35b50346103b75760203660031901126103b75760043561015f544210600014612201576033546001600160a01b031633036106dc575b6121a3615341565b61271081116121f2576020817ffdb174bbb157048e9f3962e375891bace08d9741796e3288bf79ab8ccd1dfa209261016d558282604051838152a18061019255604051908152a1600160fb5580f35b63162908e360e11b8252600482fd5b6040516244414f60e81b8152610163600382015260239020546001600160a01b0316801561072857331461219b57635c427cd960e01b8252600482fd5b50346103b75760203660031901126103b757612258614db5565b61226133615420565b600133818060a01b03603354161491149061015f544210600014612301571590816122f8575b506109fb5781905b612297615341565b6122a18180615f79565b6001600160a01b0316803b156109f857818091600460405180958193638456cb5960e01b83525af180156122eb576122db57600160fb5580f35b6122e491614f07565b3881610556565b50604051903d90823e3d90fd5b90501538612287565b6040516244414f60e81b8152610163600382015260239020546001600160a01b0316908115610a6b57159182612350575b5081612345575b506109fb57819061228f565b905033141538612339565b15915038612332565b50346103b757806003193601126103b7577f360894a13ba1a3210667c828492db98dca3e2076cc3735a920a3ca505d382bbc546040516001600160a01b039091168152602090f35b50346103b75760203660031901126103b757602090600435815261017c8252604060018060a01b0391205416604051908152f35b50346103b75760203660031901126103b7576123ef614db5565b61015f54421015612465576033546001600160a01b031633036106dc575b612415615341565b6001600160a01b038116600090815261017d6020526040902054156112e9576001600160a01b038116600090815261017d6020908152604080832085905561017b909152902082906002906112a8565b6040516244414f60e81b8152610163600382015260239020546001600160a01b0316801561072857331461240d57635c427cd960e01b8252600482fd5b50346103b757806003193601126103b757602061019254604051908152f35b50346103b75760403660031901126103b757604060c0916124e0614db5565b8160a084516124ee81614ebe565b8281528260208201528286820152826060820152826080820152015260018060a01b031681526101676020528181206024358252602052206040519061253382614ebe565b80549182815260018060a01b03600183015416916020820192835260028101546040830190815260046003830154926060850193845201549360ff60a06080860195600180831b0388168752019560a01c161515855260405195865260018060a01b03905116602086015251604085015251606084015260018060a01b03905116608083015251151560a0820152f35b50346103b75760a03660031901126103b7576125dd614db5565b906125e6614dd0565b91606435916001600160a01b03831683036103b757602061261885858561260b615341565b6084359260443591615c8d565b600160fb55604051908152f35b50346103b757806003193601126103b757610177546040516001600160a01b039091168152602090f35b50346103b75760203660031901126103b757600435906001600160401b0382116103b75760206111d96126853660048601614f7a565b615c31565b50346103b757806003193601126103b7576033546040516001600160a01b039091168152602090f35b50346103b75760403660031901126103b7576126cd614db5565b6126d5614dd0565b9061015f5442106000146129a4576033546001600160a01b03163303612995575b6126fe615341565b6127088282615f79565b6001600160a01b038116600090815261017b602052604090206001015461298657604051632a2767e560e01b81526001600160a01b03821691602082600481865afa91821561297b578592612947575b50833b1561291d57848060405160208101906301ffc9a760e01b82526317e3c03b60e21b602482015260248152612790604482614f07565b5190875afa61279d615fb5565b901590811561292c575b5061291d57604091858084516127bd8682614f07565b601a81527f676574496d706c656d656e746174696f6e54797065496d70282900000000000060209091015284516375a8670960e01b906127fc90614ef4565b85516020810191825260048152612814602482614f07565b5190885afa90612822615fb5565b91159182156128f9575b50506128ea57907f9d46c424dbb24cb5db0226a1022c4be6afb7410d2c4b320c52a939c9fbeeed4691600282519161286383614ed9565b60018060a01b0387168352602083014281526128988585019233845260018060a01b031660005261017b602052604060002090565b935184546001600160a01b03199081166001600160a01b039283161786559151600186015591519290930180549093169181169190911790915590519316835242602084015233928060408101611eb2565b633aa04df960e01b8552600485fd5b80519192506020808201928201919091031261291957511415388061282c565b8680fd5b6338951bb760e11b8552600485fd5b612940915060208082518301019101615c75565b15386127a7565b9091506020813d602011612973575b8161296360209383614f07565b810103126108fb57519038612758565b3d9150612956565b6040513d87823e3d90fd5b635631a27d60e11b8352600483fd5b63ea8e4eb560e01b8352600483fd5b6040516244414f60e81b8152610163600382015260239020546001600160a01b031680156129e15733146126f657635c427cd960e01b8352600483fd5b6336939d7d60e21b8452600484fd5b50346103b757806003193601126103b757600490612a0c615341565b639809edb560e01b8152fd5b50346103b757806003193601126103b757805460ff8160081c161590818092612ea6575b8015612e8f575b612a4c90615147565b60ff198116600117835581612e7e575b506301e1338042018042116106c85761015f556301e1338061018855612a9a60ff835460081c16612a8c8161553d565b612a958161553d565b61553d565b612aa333615e4b565b612aea60ff835460081c16612ab78161553d565b612ac08161553d565b60ff1960c9541660c955612ad38161553d565b612adc8161553d565b600160fb55612a958161553d565b600561016155612b61604051612aff81614e8d565b338152602081017fa5ccb6867d103f21ecf1c41cfc2f9edaeab012c60e542a449046031f4b3422f581526003604083019286845260608101933385526080820193600185526104b23360018060a01b0316600052610164602052604060002090565b604090612b978251612b738482614f07565b60128152710929aa08aa482a89ea4beac829c8a989892b60731b60208201526155f3565b50612bcb8251612ba78482614f07565b6012815271434f4e5349474c494f5f5354454c4c41544f60701b60208201526155f3565b50612bfc8251612bdb8482614f07565b600f81526e4c4547415455535f5354454c4c414560881b6020820152615713565b50612c2c8251612c0c8482614f07565b600e81526d50524145544f525f4c554d494e4160901b602082015261581a565b50612c5d8251612c3c8482614f07565b600f81526e444f4d494e55535f5341504f52495360881b60208201526158ee565b50612c908251612c6d8482614f07565b6011815270434f4e5349474c494f5f5341504f52495360781b60208201526158ee565b50612cc38251612ca08482614f07565b601181527043454e545552494f5f4d454e534152554d60781b60208201526159c2565b50612cf48251612cd38482614f07565b600f81526e4d494c495445535f43554c494e414560881b6020820152615a96565b50612d0161016054614f98565b601f8111612e3f575b50602a74158c4815985b995b1b1a5e0813185d5b98da1c1859605a1b01610160556298968061018a55612710610189558261016d558261019255612d5061019354614f98565b601f8111612e00575b506012680517569636b537761760bc1b016101935573a5e0829caced8ffdd4de3c43696c57f7d7a678ff6001600160601b0360a01b6101945416176101945573a5e0829caced8ffdd4de3c43696c57f7d7a678ff6001600160601b0360a01b61019554161761019555612dca575080f35b60207f7f26b83ff96e1f2b6a682f133852f6798a09c465da95921460cefb38474024989161ff001984541684555160018152a180f35b6101938452612e3990601f0160051c7ffc8af01f449989052b52093a58fc9f42d0b11f0c6dd5dca0463dab62346ccc68908101906151aa565b38612d59565b6101608452612e7890601f0160051c7fec7e130cdeeae65215fabbcddb1de429e603c4887cc659532eda903e49339663908101906151aa565b38612d0a565b61ffff191661010117825538612a5c565b50303b158015612a43575060ff8116600114612a43565b50600160ff821610612a3c565b50346103b757806003193601126103b75761015f54421015612f4b576033546001600160a01b03163303610590575b612eea615341565b6101785415612f3c57612f10600061017755600061017855600061017955600061017a55565b7f761942e410ba280153b2ed459ded9f9ddb88850faccd07da7acf1da6cdc7d6898180a1600160fb5580f35b63357a03ed60e21b8152600490fd5b6040516244414f60e81b8152610163600382015260239020546001600160a01b031680156105dc573314612ee257635c427cd960e01b8152600490fd5b50346103b757806003193601126103b75761015f5442101561305a576033546001600160a01b03163303610590575b612fbf615341565b6101785480156112e9576202a30081018091116130465742106130375761301a60018060a01b0361017754167f59b22fe8b92d7f99b54034c49432db394b5fad64472967b2cba6f5a999fed0076020604051838152a1615b6a565b610556600061017755600061017855600061017955600061017a55565b631442118160e11b8152600490fd5b634e487b7160e01b82526011600452602482fd5b6040516244414f60e81b8152610163600382015260239020546001600160a01b031680156105dc573314612fb757635c427cd960e01b8152600490fd5b50346103b757806003193601126103b757602061015f54604051908152f35b50346103b75760203660031901126103b757600435906001600160401b0382116103b7576020613100816130ed3660048701614f7a565b8160405193828580945193849201614e45565b810161016581520301902054604051908152f35b50346103b757806003193601126103b757610194546040516001600160a01b039091168152602090f35b50346103b757806003193601126103b75760049061315a615341565b6001623f026d60e01b03198152fd5b50346103b75760203660031901126103b757613183614db5565b61015f5442101561320f576033546001600160a01b031633036106dc575b6131a9615341565b6001600160a01b038116600090815261017d6020526040902054156112e9576001600160a01b0316600090815261017d602052604090208190557f761942e410ba280153b2ed459ded9f9ddb88850faccd07da7acf1da6cdc7d6898180a1600160fb5580f35b6040516244414f60e81b8152610163600382015260239020546001600160a01b031680156107285733146131a157635c427cd960e01b8252600482fd5b50346103b75760203660031901126103b7576020613268614db5565b61016c546040516001600160a01b0392831691909216148152f35b50346103b757806003193601126103b757602060ff60c954166040519015158152f35b50346103b75760403660031901126103b7576132c0614db5565b6132c8614dd0565b61015f544210156133f1576033546001600160a01b03163303612995575b6132ee615341565b6132f88183615f79565b6001600160a01b038216600090815261017d6020526040902054612986576001600160a01b038216600090815261017d6020526040902042905560405161333e81614ed9565b60018060a01b038216815260026020820142815260408301903382526133778660018060a01b031660005261017b602052604060002090565b935184546001600160a01b03199081166001600160a01b03928316178655915160018601559151929093018054909316918116919091179091556040805192821683524260208401523393909116917f9d46c424dbb24cb5db0226a1022c4be6afb7410d2c4b320c52a939c9fbeeed469181908101611eb2565b6040516244414f60e81b8152610163600382015260239020546001600160a01b031680156129e15733146132e657635c427cd960e01b8352600483fd5b50346103b757806003193601126103b7576040519080610196549061345282614f98565b80855291600181169081156134f05750600114613492575b61348e8461347a81860382614f07565b604051918291602083526020830190614e68565b0390f35b61019681527f828feda00a4b64eb35101b6df8f6c29717b1ea6bae5dd03d3ddada8de0a9e7cb939250905b8082106134d65750909150810160200161347a8261346a565b9192600181602092548385880101520191019092916134bd565b60ff191660208087019190915292151560051b8501909201925061347a915083905061346a565b50346103b757806003193601126103b7577f00000000000000000000000000000000000000000000000000000000000000006001600160a01b031630036135825760206040517f360894a13ba1a3210667c828492db98dca3e2076cc3735a920a3ca505d382bbc8152f35b60405162461bcd60e51b815260206004820152603860248201527f555550535570677261646561626c653a206d757374206e6f742062652063616c60448201527f6c6564207468726f7567682064656c656761746563616c6c00000000000000006064820152608490fd5b5060403660031901126103b757613602614db5565b506024356001600160401b038111610eb05736602382011215610eb0579061363560049236906024818601359101614f43565b5061363e615341565b630c5e6cd360e21b8152fd5b50346103b75760203660031901126103b757613664614db5565b61015f544210156138b7576033546001600160a01b031633036106dc575b61368a615341565b6136948180615f79565b6101785461116557803b1561388d57818060405160208101906301ffc9a760e01b8252632a2767e560e01b6024820152602481526136d3604482614f07565b5190845afa6136e0615fb5565b901590811561389c575b5061388d576040828082516136ff8482614f07565b601781527f676574496d706c656d656e746174696f6e5479706528290000000000000000006020909101528251632a2767e560e01b9061373e90614ef4565b83516020810191825260048152613756602482614f07565b5190855afa613763615fb5565b901590811561384a575b5061383b578051608081018181106001600160401b03821117610e1f5782526001600160a01b03929092168083524260208085018290527fce9b24d2dc7f9161cd3535ebadb01aa541e3f9f2b1e7ffb37b9f0fa96d292db884860181905233606090960186905261017780546001600160a01b031990811686179091556101788490556101799190915561017a8054909116861790559251918252918101919091527fb18c6270b71e88d80a33e6ff96678cd5372d68c69a43a813e0d47088e8af81d690806040810161115a565b633aa04df960e01b8352600483fd5b805160208083019350908201919091031261388957517fce9b24d2dc7f9161cd3535ebadb01aa541e3f9f2b1e7ffb37b9f0fa96d292db814153861376d565b8380fd5b6338951bb760e11b8252600482fd5b6138b0915060208082518301019101615c75565b15386136ea565b6040516244414f60e81b8152610163600382015260239020546001600160a01b0316801561072857331461368257635c427cd960e01b8252600482fd5b50346103b75760203660031901126103b7576060906040906001600160a01b0361391c614db5565b16815261017b60205220604080519161393483614ed9565b80546001600160a01b0390811680855260018301546020808701829052600290940154909216939094018390526040805194855291840152820152f35b50346103b75760203660031901126103b75761398b614db5565b61015f54421015613aa4576033546001600160a01b031633036106dc575b6139b1615341565b6001600160a01b038116600090815261016f602052604090205415610b33576001600160a01b038116600090815261016f60205260409020546202a30081018091116106c8574210613a95576001600160a01b0381169061deac198201613a80575b61016c80546001600160a01b0319166001600160a01b038316179055613a54906001600160a01b038116600090815261016f60205260409020849055615e94565b7fbe8b243cc9b5244fd502d39323d3e688e3ca52d8eee47ea6780c3ec5b4113e058280a2600160fb5580f35b803b613a1357630749aedb60e01b8352600483fd5b6364037fb760e11b8252600482fd5b6040516244414f60e81b8152610163600382015260239020546001600160a01b031680156107285733146139a957635c427cd960e01b8252600482fd5b50346103b75760203660031901126103b757613afb614db5565b61015f54421015613ba5576033546001600160a01b031633036106dc575b613b21615341565b6001600160a01b038116908115613b965761016c546001600160a01b0316613b875761dead8203613b72575b61016c80546001600160a01b0319166001600160a01b03909216919091179055613a54565b803b613b4d57630749aedb60e01b8352600483fd5b63c6f6a6e960e01b8352600483fd5b63d92e233d60e01b8352600483fd5b6040516244414f60e81b8152610163600382015260239020546001600160a01b03168015610728573314613b1957635c427cd960e01b8252600482fd5b50346103b757806003193601126103b757600490613bfe615341565b636aa63d6160e01b8152fd5b50346103b75760403660031901126103b7576004356001600160401b038111610eb057613c3b903690600401614f7a565b6024359061015f544210600014613dbb576033546001600160a01b03163303612995575b613c67615341565b805115613dac576101615480156129e1578211613d9d576014610166541015613d8e5790602091604051613cc5848201835192613cae878281880196610ca581878a614e45565b519020948592604051809381928751928391614e45565b81016101658152030190205561016654600160401b811015610e1f57806001613cf59201610166556101666153f2565b613d7a5781836040602097613d1c6000805160206160a883398151915296613d459661525e565b87815261018789522055610162548411613d70575b604051918291604083526040830190614e68565b85878301520390a1610162548111613d66575b50600160fb55604051908152f35b6101625538613d58565b8361016255613d31565b634e487b7160e01b85526004859052602485fd5b6353bb24f960e01b8352600483fd5b630af469a960e31b8352600483fd5b636cc61e7360e11b8352600483fd5b6040516244414f60e81b8152610163600382015260239020546001600160a01b031680156129e1573314613c5f57635c427cd960e01b8352600483fd5b50346103b757806003193601126103b75760408051613e1681614ed9565b606081528260208201520152613e7d604051613e3181614ed9565b613e39614fd2565b815260018060a01b0361019454166020820190815260018060a01b036101955416604083019081526040519384936020855251606060208601526080850190614e68565b91516001600160a01b03908116604085015290511660608301520390f35b50346103b757806003193601126103b75760206111d961559d565b50346103b75760203660031901126103b757600490613ed3614db5565b50613edc615341565b6308ac7db760e21b8152fd5b50346103b75760203660031901126103b75760043561015f544210600014613f3d576033546001600160a01b031633036106dc575b610162548110613f2e576101615580f35b6309aaecbf60e41b8252600482fd5b6040516244414f60e81b8152610163600382015260239020546001600160a01b03168015610728573314613f1d57635c427cd960e01b8252600482fd5b50346103b757806003193601126103b7576020604051818101907f56414e454c4c49585f4c41554e43485041445f494d504c454d454e544154494f8252602760f91b604082015260218152613fd0604182614f07565b519020604051908152f35b50346103b75760203660031901126103b757613ff5614db5565b610102825460ff8160081c16158061422e575b61401190615147565b61ffff1916178083556001600160a01b039091169081156141e95760405163c696804f60e01b8152602081600481865afa9081156141de57849161419c575b506001600160a01b0316330361414d5760ff6140739160081c16612a8c8161553d565b61407c33615e4b565b61409060ff835460081c16612ab78161553d565b61409c61019654614f98565b601f811161410e575b506022702b191024b6b83632b6b2b73a30ba34b7b760791b01610196556001600160601b0360a01b6101975416176101975561ff001981541681557f7f26b83ff96e1f2b6a682f133852f6798a09c465da95921460cefb3847402498602060405160028152a180f35b610196835261414790601f0160051c7f828feda00a4b64eb35101b6df8f6c29717b1ea6bae5dd03d3ddada8de0a9e7cb908101906151aa565b386140a5565b60405162461bcd60e51b815260206004820152602160248201527f43616c6c6572206973206e6f7420746865204c61756e6368706164206f776e656044820152603960f91b6064820152608490fd5b90506020813d6020116141d6575b816141b760209383614f07565b8101031261388957516001600160a01b03811681036138895738614050565b3d91506141aa565b6040513d86823e3d90fd5b60405162461bcd60e51b815260206004820152601a60248201527f4c61756e636870616420616464726573732072657175697265640000000000006044820152606490fd5b50600260ff821610614008565b50346103b75760203660031901126103b7576020906040906001600160a01b03614263614db5565b16815261016f83522054604051908152f35b50346103b757806003193601126103b75761015f5442101561430a576033546001600160a01b03163303610590575b6142ac615341565b603354610171546001600160a01b039182169116156112e9577f48a87225523c5fd46bf3b7da3223e5525f77b8136a962695d701a24699bef8f38280a26001600160601b0360a01b6101715416610171558061017255600160fb5580f35b6040516244414f60e81b8152610163600382015260239020546001600160a01b031680156105dc5733146142a457635c427cd960e01b8152600490fd5b50346103b75760203660031901126103b757614361614db5565b61015f544210156144a2576033546001600160a01b031633036106dc575b614387615341565b6001600160a01b038116908115613b96576001600160a01b038116600090815261016f6020526040902054614493576001600160a01b0316600090815261016f6020526040902042905561017054600160401b81101561447f5760018101610170556101705481101561446b5761017083527f88e1afb22f13be7fec203799fd189c3b9471c5b75e2b22a6d5efec11c7f39255018054600384901b83811b6001600160a01b0390911b199091161790556040514281527f58bb431e0f7936fab42d31349f05b36e6e2bc6030189fafbb5d8b195a3da0cc590602090a2600160fb5580f35b634e487b7160e01b83526032600452602483fd5b634e487b7160e01b83526041600452602483fd5b638c34a7cd60e01b8352600483fd5b6040516244414f60e81b8152610163600382015260239020546001600160a01b0316801561072857331461437f57635c427cd960e01b8252600482fd5b50346103b75760403660031901126103b7576144f9614db5565b6024356001600160401b03811161101c57614518903690600401614f7a565b9061452233615420565b600133818060a01b03603354161491149061015f54421060001461474c57159081614743575b50614734575b614556615341565b6001600160a01b038116908115610e3357602061466e916040519082820186519261458b8582818b0196610ca581878a614e45565b519020604051848101906244414f60e81b8252600381526145ad602382614f07565b51902081036146ec57506145ff60039160236040516244414f60e81b8152610163858201522060018060a01b03905416806146c1575b506001600160a01b031660009081526101646020526040902090565b80546001600160a01b031916861781557ff807ff8eec250923b9076d0fbc12c4f8fc15f4a65bc3bb510202d51d46cd1ef660018201556002810188905501805460ff60a01b1933166001600160a81b031990911617600160a01b1790555b604051809381928751928391614e45565b8101610163815203019020816001600160601b0360a01b8254161790556146953392615321565b7fcd274a007eb61cbcf6df3e9eb2d5bcc233450f045cc22d9ebb0beb460710aca78480a4600160fb5580f35b6001600160a01b03166000908152610164602052604090208301805460ff60a01b19169055386145e3565b9050604051838101906926bab63a34aa37b5b2b760b11b8252600a8152614714602a82614f07565b5190200361465d5761016980546001600160a01b0319168517905561465d565b630ba9cf7d60e01b8352600483fd5b90501538614548565b6040516244414f60e81b8152610163600382015260239020546001600160a01b03169081156147ad571591826147a4575b5081614799575b501561454e57630ba9cf7d60e01b8352600483fd5b905033141538614784565b1591503861477d565b6336939d7d60e21b8652600486fd5b50346103b75760203660031901126103b7576147d6614db5565b61015f544210156148f9576033546001600160a01b031633036106dc575b6147fc615341565b6001600160a01b038116908115613b965761019180546001600160a01b031916831790553b156148ea576040516318160ddd60e01b8152602081600481855afa90816148bb575b5061485757636cb9962360e01b8252600482fd5b61016e80546001600160a01b03191682179055807f722ff84c1234b2482061def5c82c6b5080c117b3cbb69d686844a051e4b8e7f38380a27f722ff84c1234b2482061def5c82c6b5080c117b3cbb69d686844a051e4b8e7f38280a2600160fb5580f35b6020813d6020116148e2575b816148d460209383614f07565b810103126138895751614843565b3d91506148c7565b636cb9962360e01b8252600482fd5b6040516244414f60e81b8152610163600382015260239020546001600160a01b031680156107285733146147f457635c427cd960e01b8252600482fd5b50346103b757806003193601126103b7576020604051308152f35b50346103b757806003193601126103b7576040519080610160549061497582614f98565b80855291600181169081156134f0575060011461499c5761348e8461347a81860382614f07565b61016081527fec7e130cdeeae65215fabbcddb1de429e603c4887cc659532eda903e49339663939250905b8082106149e05750909150810160200161347a8261346a565b9192600181602092548385880101520191019092916149c7565b50346103b757806003193601126103b757614a13615115565b50614a1c615115565b50614a25615397565b614a2d615397565b61348e614a38615397565b614ae5614a43615397565b91614ad260018060a01b03610171541695614abf610172549860405198614a698a614ebe565b895260208901998a5260408901908152606089019283526080890194855260a08901968752604051998a9960208b5260018060a01b0390511660208b01525160408a01525160c060608a015260e0890190614dfc565b9051878203601f19016080890152614dfc565b9051858203601f190160a0870152614dfc565b9051838203601f190160c0850152614dfc565b50346103b75760203660031901126103b757614b12614db5565b61015f54421015614b9b576033546001600160a01b031633036106dc575b614b38615341565b6033546001600160a01b0391821691168115613b9657816001600160601b0360a01b6101715416176101715542610172557f37cfa1493a4caaf6506c84b43005afeae37478bd57ee3d33b8d93e746295e1756020604051428152a3600160fb5580f35b6040516244414f60e81b8152610163600382015260239020546001600160a01b03168015610728573314614b3057635c427cd960e01b8252600482fd5b50346103b75760203660031901126103b757604060a091614bf7614db5565b8160808451614c0581614e8d565b82815282602082015282868201528260608201520152600180851b031681526101646020522060405190614c3882614e8d565b600180841b03815416918281526001820154916020820192835260036002820154916040840192835201549260ff608060608501946001808a1b03871686520194871c1615158452604051948552516020850152516040840152600180851b0390511660608301525115156080820152f35b50346103b75760203660031901126103b7576001600160a01b03614ccc614db5565b16815261016860205260408120604051908160208254918281520190819285526020852090855b818110614d4a5750505082614d09910383614f07565b604051928392602084019060208552518091526040840192915b818110614d31575050500390f35b8251845285945060209384019390920191600101614d23565b8254845260209093019260019283019201614cf3565b905034610eb0576020366003190112610eb05760043563ffffffff60e01b811680910361101c5760209250632a2767e560e01b8114908115614da4575b5015158152f35b6301ffc9a760e01b14905038614d9d565b600435906001600160a01b0382168203614dcb57565b600080fd5b602435906001600160a01b0382168203614dcb57565b604435906001600160a01b0382168203614dcb57565b906020808351928381520192019060005b818110614e1a5750505090565b825180516001600160a01b031685526020908101518186015260409094019390920191600101614e0d565b60005b838110614e585750506000910152565b8181015183820152602001614e48565b90602091614e8181518092818552858086019101614e45565b601f01601f1916010190565b60a081019081106001600160401b03821117614ea857604052565b634e487b7160e01b600052604160045260246000fd5b60c081019081106001600160401b03821117614ea857604052565b606081019081106001600160401b03821117614ea857604052565b6001600160401b038111614ea857604052565b90601f801991011681019081106001600160401b03821117614ea857604052565b6001600160401b038111614ea857601f01601f191660200190565b929192614f4f82614f28565b91614f5d6040519384614f07565b829481845281830111614dcb578281602093846000960137010152565b9080601f83011215614dcb57816020614f9593359101614f43565b90565b90600182811c92168015614fc8575b6020831014614fb257565b634e487b7160e01b600052602260045260246000fd5b91607f1691614fa7565b604051906000826101935491614fe783614f98565b808352926001811690811561506e575060011461500d575b61500b92500383614f07565b565b50610193600090815290917ffc8af01f449989052b52093a58fc9f42d0b11f0c6dd5dca0463dab62346ccc685b81831061505257505090602061500b92820101614fff565b602091935080600191548385890101520191019091849261503a565b6020925061500b94915060ff191682840152151560051b820101614fff565b34614dcb576000366003190112614dcb576033546040516001600160a01b039091168152602090f35b9060c0600319830112614dcb576004359160243591604435916064356001600160a01b0381168103614dcb57916084356001600160a01b0381168103614dcb579160a435906001600160401b038211614dcb57614f9591600401614f7a565b6040519061512282614ebe565b606060a083600081526000602082015282604082015282808201528260808201520152565b1561514e57565b60405162461bcd60e51b815260206004820152602e60248201527f496e697469616c697a61626c653a20636f6e747261637420697320616c72656160448201526d191e481a5b9a5d1a585b1a5e995960921b6064820152608490fd5b8181106151b5575050565b600081556001016151aa565b9190601f81116151d057505050565b61500b926000526020600020906020601f840160051c830193106151fc575b601f0160051c01906151aa565b90915081906151ef565b602061521f918160405193828580945193849201614e45565b810161016581520301902090565b6040519061523a82614ebe565b600060a0838281528260208201528260408201526060808201528260808201520152565b91909182516001600160401b038111614ea8576152858161527f8454614f98565b846151c1565b6020601f82116001146152bf57819293946000926152b4575b50508160011b916000199060031b1c1916179055565b01519050388061529e565b601f1982169083600052806000209160005b818110615309575095836001959697106152f0575b505050811b019055565b015160001960f88460031b161c191690553880806152e6565b9192602060018192868b0151815501940192016152d1565b61533990602060405192828480945193849201614e45565b810103902090565b600260fb541461535257600260fb55565b60405162461bcd60e51b815260206004820152601f60248201527f5265656e7472616e637947756172643a207265656e7472616e742063616c6c006044820152606490fd5b604051906153a6602083614f07565b60008083528290805b8181106153bb57505050565b6040519060408201918083106001600160401b03841117614ea85760209260405260008152600083820152828286010152016153af565b805482101561540a5760005260206000200190600090565b634e487b7160e01b600052603260045260246000fd5b6001600160a01b03166000818152610164602052604090206003810154600019919060a01c60ff1680615530575b80615522575b615516575b5060005b6040600084815261016860205220548110156155105761548a8160406000868152610168602052206153f2565b90549060031b1c604060008581526101676020522090600052602052604060002060ff600482015460a01c1680615503575b6154ca575b5060010161545d565b600301546003811015806154f6575b806154ed575b156154c157915060016154c1565b508281106154df565b50610161548111156154d9565b50600281015415156154bc565b50905090565b60029150015438615459565b506002808201541115615454565b506001810154151561544e565b1561554457565b60405162461bcd60e51b815260206004820152602b60248201527f496e697469616c697a61626c653a20636f6e7472616374206973206e6f74206960448201526a6e697469616c697a696e6760a81b6064820152608490fd5b610171546001600160a01b0316156155ee57610172546202a30081018082116155d8574210156155d2574290036202a3000190565b50600090565b634e487b7160e01b600052601160045260246000fd5b600090565b60008151156157045761016154156156f5575060146101665410156156e45760209060405161564c838201835192615635868281880196610ca581878a614e45565b519020938492604051809381928751928391614e45565b81016101658152030190205561016654600160401b811015614ea85780600161567c9201610166556101666153f2565b6156ce578161569d6000805160206160a8833981519152936156c29361525e565b8360005261018760205260006040812055604051918291604083526040830190614e68565b8460208301520390a190565b634e487b7160e01b600052600060045260246000fd5b6353bb24f960e01b60005260046000fd5b6336939d7d60e21b8152600490fd5b636cc61e7360e11b8152600490fd5b805115615809576101615480156157f8576001116157e75760146101665410156156e45760209060405161575a838201835192615635868281880196610ca581878a614e45565b81016101658152030190205561016654600160401b811015614ea85780600161578a9201610166556101666153f2565b6156ce57816157ab6000805160206160a8833981519152936156c29361525e565b836000526101876020526001604060002055610162546001116157dc57604051918291604083526040830190614e68565b600161016255613d31565b630af469a960e31b60005260046000fd5b6336939d7d60e21b60005260046000fd5b636cc61e7360e11b60005260046000fd5b805115615809576101615480156157f8576002116157e75760146101665410156156e457602090604051615861838201835192615635868281880196610ca581878a614e45565b81016101658152030190205561016654600160401b811015614ea8578060016158919201610166556101666153f2565b6156ce57816158b26000805160206160a8833981519152936156c29361525e565b836000526101876020526002604060002055610162546002116158e357604051918291604083526040830190614e68565b600261016255613d31565b805115615809576101615480156157f8576003116157e75760146101665410156156e457602090604051615935838201835192615635868281880196610ca581878a614e45565b81016101658152030190205561016654600160401b811015614ea8578060016159659201610166556101666153f2565b6156ce57816159866000805160206160a8833981519152936156c29361525e565b836000526101876020526003604060002055610162546003116159b757604051918291604083526040830190614e68565b600361016255613d31565b805115615809576101615480156157f8576004116157e75760146101665410156156e457602090604051615a09838201835192615635868281880196610ca581878a614e45565b81016101658152030190205561016654600160401b811015614ea857806001615a399201610166556101666153f2565b6156ce5781615a5a6000805160206160a8833981519152936156c29361525e565b83600052610187602052600460406000205561016254600411615a8b57604051918291604083526040830190614e68565b600461016255613d31565b805115615809576101615480156157f8576005116157e75760146101665410156156e457602090604051615add838201835192615635868281880196610ca581878a614e45565b81016101658152030190205561016654600160401b811015614ea857806001615b0d9201610166556101666153f2565b6156ce5781615b2e6000805160206160a8833981519152936156c29361525e565b83600052610187602052600560406000205561016254600511615b5f57604051918291604083526040830190614e68565b600561016255613d31565b803b15615bd6577f360894a13ba1a3210667c828492db98dca3e2076cc3735a920a3ca505d382bbc80546001600160a01b0319166001600160a01b039290921691821790557fbc7cd75a20ee27fd9adebab32041f755214dbc6bffa90cc0225b39da2e5c2d3b600080a2565b60405162461bcd60e51b815260206004820152602d60248201527f455243313936373a206e657720696d706c656d656e746174696f6e206973206e60448201526c1bdd08184818dbdb9d1c9858dd609a1b6064820152608490fd5b6020615c4a918160405193828580945193849201614e45565b8101610165815203019020548015615c6e5760005261018760205260406000205490565b5060001990565b90816020910312614dcb57518015158103614dcb5790565b9392909161016d54908181029181830414901517156155d8576127109004938415615def576001600160a01b0383169283158015615de7575b615dd657615cd69061016061607d565b15615dc55761016c546001600160a01b0316908115615db4576001600160a01b031615615da3576040516323b872dd60e01b81526001600160a01b0390921660048301526024820152604481018490526020816064816000865af18015615d9757615d6a575b507fd9cdec5afc25f7ba2ee747f81cc783a02ebf349091c32d2709b2f81619f754096020604051858152a390565b615d8b9060203d602011615d90575b615d838183614f07565b810190615c75565b615d3c565b503d615d79565b6040513d6000823e3d90fd5b63e6c4247b60e01b60005260046000fd5b63af8c927d60e01b60005260046000fd5b636cb9962360e01b60005260046000fd5b63162908e360e11b60005260046000fd5b506000615cc6565b5050505050600090565b60018060a01b0316600052610167602052604060002090600052602052604060002060ff600482015460a01c1680615e3e575b615e37575060001990565b6003015490565b5060028101541515615e2c565b603380546001600160a01b039283166001600160a01b0319821681179092559091167f8be0079c531659141344cd1fd0a4f28419497f9722a3daafe3b4186f6b6457e0600080a3565b60005b6101705480821015615f7457615eaf826101706153f2565b905460039190911b1c6001600160a01b0390811690841614615ed45750600101615e97565b615f2b9250615eec615f0791600019016101706153f2565b905460039190911b1c6001600160a01b0316916101706153f2565b81546001600160a01b0393841660039290921b91821b9390911b1916919091179055565b610170548015615f5e5760001901615f45816101706153f2565b81549060018060a01b039060031b1b1916905561017055565b634e487b7160e01b600052603160045260246000fd5b505050565b6001600160a01b031615908115615fa3575b50615f9257565b63d92e233d60e01b60005260046000fd5b6001600160a01b031615905038615f8b565b3d15615fe0573d90615fc682614f28565b91615fd46040519384614f07565b82523d6000602084013e565b606090565b9060018060a01b03168060005261018f60205260406000208260005260205260ff6040600020541615616016575050565b60406000828152610168602052208054600160401b811015614ea857616041916001820181556153f2565b81549060031b9084821b91600019901b191617905560005261018f6020526040600020906000526020526040600020600160ff19825416179055565b6001600160a01b039091169081156160a057600e01546001600160a01b03161490565b505060009056fee7f2ce811231737c7fa824ab7e10edafbd2c60dfa014137d276462c057da07baa26469706673582212202ef6247a4cb47596538da1c167df1326c6c734c54d525aa9f47533fc1539e7f164736f6c634300081c0033",
  "linkReferences": {},
  "deployedLinkReferences": {}
}