{
  "_format": "hh-sol-artifact-1",
  "contractName": "VanellixDAOController",
  "sourceName": "contracts/VanellixDAOController.sol",
  "abi": [
    {
      "inputs": [],
      "name": "AlreadyApplied",
      "type": "error"
    },
    {
      "inputs": [],
      "name": "AlreadySet",
      "type": "error"
    },
    {
      "inputs": [],
      "name": "AlreadyVoted",
      "type": "error"
    },
    {
      "inputs": [],
      "name": "CallerNotLaunchpadOwner",
      "type": "error"
    },
    {
      "inputs": [],
      "name": "CompanyNotActive",
      "type": "error"
    },
    {
      "inputs": [],
      "name": "ConsensusNotReached",
      "type": "error"
    },
    {
      "inputs": [],
      "name": "DAOBannedFromSegment",
      "type": "error"
    },
    {
      "inputs": [],
      "name": "DailyLimitReached",
      "type": "error"
    },
    {
      "inputs": [],
      "name": "DescriptionRequired",
      "type": "error"
    },
    {
      "inputs": [],
      "name": "ExecutionFailed",
      "type": "error"
    },
    {
      "inputs": [],
      "name": "InsufficientMeritTokens",
      "type": "error"
    },
    {
      "inputs": [],
      "name": "InsufficientPermission",
      "type": "error"
    },
    {
      "inputs": [],
      "name": "InsufficientPoolBalance",
      "type": "error"
    },
    {
      "inputs": [],
      "name": "InsufficientTokens",
      "type": "error"
    },
    {
      "inputs": [],
      "name": "InsufficientUtilityTokens",
      "type": "error"
    },
    {
      "inputs": [],
      "name": "InterfaceNotSet",
      "type": "error"
    },
    {
      "inputs": [],
      "name": "InvalidAddress",
      "type": "error"
    },
    {
      "inputs": [],
      "name": "InvalidAmount",
      "type": "error"
    },
    {
      "inputs": [],
      "name": "InvalidContractAddress",
      "type": "error"
    },
    {
      "inputs": [],
      "name": "InvalidJobOffer",
      "type": "error"
    },
    {
      "inputs": [],
      "name": "InvalidProposal",
      "type": "error"
    },
    {
      "inputs": [],
      "name": "InvalidProposal",
      "type": "error"
    },
    {
      "inputs": [],
      "name": "InvalidQuorumPercentage",
      "type": "error"
    },
    {
      "inputs": [],
      "name": "InvalidTokenAddress",
      "type": "error"
    },
    {
      "inputs": [],
      "name": "InvalidTokenId",
      "type": "error"
    },
    {
      "inputs": [],
      "name": "LaunchpadNotConfigured",
      "type": "error"
    },
    {
      "inputs": [],
      "name": "NoGovernanceTokens",
      "type": "error"
    },
    {
      "inputs": [],
      "name": "NoMeritTokensForSegment",
      "type": "error"
    },
    {
      "inputs": [],
      "name": "NotApprovedRoleContract",
      "type": "error"
    },
    {
      "inputs": [],
      "name": "NotAuthorized",
      "type": "error"
    },
    {
      "inputs": [],
      "name": "NotAuthorizedToPostJobOffers",
      "type": "error"
    },
    {
      "inputs": [],
      "name": "NotEnoughMeritTokens",
      "type": "error"
    },
    {
      "inputs": [],
      "name": "NotFastBanner",
      "type": "error"
    },
    {
      "inputs": [],
      "name": "NotRegisteredCompany",
      "type": "error"
    },
    {
      "inputs": [],
      "name": "NotRegisteredDAO",
      "type": "error"
    },
    {
      "inputs": [],
      "name": "ProposalAlreadyExecuted",
      "type": "error"
    },
    {
      "inputs": [],
      "name": "ProposalBanned",
      "type": "error"
    },
    {
      "inputs": [],
      "name": "QuorumBelowMinimum",
      "type": "error"
    },
    {
      "inputs": [],
      "name": "QuorumNotReached",
      "type": "error"
    },
    {
      "inputs": [],
      "name": "RenounceOwnershipDisabled",
      "type": "error"
    },
    {
      "inputs": [],
      "name": "SegmentRequired",
      "type": "error"
    },
    {
      "inputs": [],
      "name": "TransferOwnershipDirectDisabled",
      "type": "error"
    },
    {
      "inputs": [],
      "name": "UnauthorizedCaller",
      "type": "error"
    },
    {
      "inputs": [],
      "name": "UpgradeToAndCallDisabled",
      "type": "error"
    },
    {
      "inputs": [],
      "name": "UserBanned",
      "type": "error"
    },
    {
      "inputs": [],
      "name": "VotingPeriodEnded",
      "type": "error"
    },
    {
      "inputs": [],
      "name": "VotingPeriodTooShort",
      "type": "error"
    },
    {
      "inputs": [],
      "name": "WeeklyLimitReached",
      "type": "error"
    },
    {
      "inputs": [],
      "name": "ZeroAddress",
      "type": "error"
    },
    {
      "anonymous": false,
      "inputs": [
        {
          "indexed": false,
          "internalType": "address",
          "name": "previousAdmin",
          "type": "address"
        },
        {
          "indexed": false,
          "internalType": "address",
          "name": "newAdmin",
          "type": "address"
        }
      ],
      "name": "AdminChanged",
      "type": "event"
    },
    {
      "anonymous": false,
      "inputs": [
        {
          "indexed": true,
          "internalType": "address",
          "name": "beacon",
          "type": "address"
        }
      ],
      "name": "BeaconUpgraded",
      "type": "event"
    },
    {
      "anonymous": false,
      "inputs": [
        {
          "indexed": true,
          "internalType": "uint256",
          "name": "id",
          "type": "uint256"
        },
        {
          "indexed": true,
          "internalType": "address",
          "name": "proposer",
          "type": "address"
        },
        {
          "indexed": false,
          "internalType": "string",
          "name": "ideaDescription",
          "type": "string"
        },
        {
          "indexed": false,
          "internalType": "uint256",
          "name": "timestamp",
          "type": "uint256"
        },
        {
          "indexed": false,
          "internalType": "address",
          "name": "tokenToRaise",
          "type": "address"
        },
        {
          "indexed": false,
          "internalType": "uint256",
          "name": "totalAmountToRaise",
          "type": "uint256"
        },
        {
          "indexed": false,
          "internalType": "address",
          "name": "targetWallet",
          "type": "address"
        }
      ],
      "name": "BrainstormProposed",
      "type": "event"
    },
    {
      "anonymous": false,
      "inputs": [
        {
          "indexed": true,
          "internalType": "uint256",
          "name": "id",
          "type": "uint256"
        },
        {
          "indexed": false,
          "internalType": "address",
          "name": "supporter",
          "type": "address"
        },
        {
          "indexed": false,
          "internalType": "uint256",
          "name": "voteWeight",
          "type": "uint256"
        }
      ],
      "name": "BrainstormSupported",
      "type": "event"
    },
    {
      "anonymous": false,
      "inputs": [
        {
          "indexed": false,
          "internalType": "uint256",
          "name": "actionId",
          "type": "uint256"
        },
        {
          "indexed": false,
          "internalType": "enum DaoStructs.Category",
          "name": "category",
          "type": "uint8"
        },
        {
          "indexed": false,
          "internalType": "uint256",
          "name": "newCost",
          "type": "uint256"
        }
      ],
      "name": "CostChanged",
      "type": "event"
    },
    {
      "anonymous": false,
      "inputs": [
        {
          "indexed": false,
          "internalType": "uint256",
          "name": "tokenId",
          "type": "uint256"
        },
        {
          "indexed": true,
          "internalType": "address",
          "name": "daoAddress",
          "type": "address"
        },
        {
          "indexed": false,
          "internalType": "bool",
          "name": "banStatus",
          "type": "bool"
        }
      ],
      "name": "DAOBanStatusChanged",
      "type": "event"
    },
    {
      "anonymous": false,
      "inputs": [
        {
          "indexed": true,
          "internalType": "address",
          "name": "token",
          "type": "address"
        },
        {
          "indexed": false,
          "internalType": "uint256",
          "name": "newBalance",
          "type": "uint256"
        }
      ],
      "name": "DaoPoolBalanceUpdated",
      "type": "event"
    },
    {
      "anonymous": false,
      "inputs": [
        {
          "indexed": true,
          "internalType": "address",
          "name": "token",
          "type": "address"
        },
        {
          "indexed": true,
          "internalType": "address",
          "name": "recipient",
          "type": "address"
        },
        {
          "indexed": false,
          "internalType": "uint256",
          "name": "amount",
          "type": "uint256"
        }
      ],
      "name": "DaoPoolTokensUsed",
      "type": "event"
    },
    {
      "anonymous": false,
      "inputs": [
        {
          "indexed": true,
          "internalType": "enum DaoStructs.Category",
          "name": "category",
          "type": "uint8"
        },
        {
          "indexed": true,
          "internalType": "address",
          "name": "user",
          "type": "address"
        },
        {
          "indexed": false,
          "internalType": "bool",
          "name": "status",
          "type": "bool"
        }
      ],
      "name": "FastBannerBySegmentUpdated",
      "type": "event"
    },
    {
      "anonymous": false,
      "inputs": [
        {
          "indexed": true,
          "internalType": "address",
          "name": "user",
          "type": "address"
        },
        {
          "indexed": false,
          "internalType": "bool",
          "name": "status",
          "type": "bool"
        }
      ],
      "name": "FastBannerUpdated",
      "type": "event"
    },
    {
      "anonymous": false,
      "inputs": [
        {
          "indexed": false,
          "internalType": "uint8",
          "name": "version",
          "type": "uint8"
        }
      ],
      "name": "Initialized",
      "type": "event"
    },
    {
      "anonymous": false,
      "inputs": [
        {
          "indexed": true,
          "internalType": "uint256",
          "name": "jobId",
          "type": "uint256"
        },
        {
          "indexed": false,
          "internalType": "address",
          "name": "applicant",
          "type": "address"
        }
      ],
      "name": "JobApplicationSubmitted",
      "type": "event"
    },
    {
      "anonymous": false,
      "inputs": [
        {
          "indexed": true,
          "internalType": "uint256",
          "name": "jobId",
          "type": "uint256"
        }
      ],
      "name": "JobOfferClosed",
      "type": "event"
    },
    {
      "anonymous": false,
      "inputs": [
        {
          "indexed": true,
          "internalType": "uint256",
          "name": "id",
          "type": "uint256"
        },
        {
          "indexed": false,
          "internalType": "address",
          "name": "poster",
          "type": "address"
        },
        {
          "indexed": false,
          "internalType": "string",
          "name": "title",
          "type": "string"
        },
        {
          "indexed": false,
          "internalType": "uint256",
          "name": "requiredTokenId",
          "type": "uint256"
        },
        {
          "indexed": false,
          "internalType": "uint256",
          "name": "minimumMeritTokens",
          "type": "uint256"
        }
      ],
      "name": "JobOfferPosted",
      "type": "event"
    },
    {
      "anonymous": false,
      "inputs": [
        {
          "indexed": true,
          "internalType": "address",
          "name": "user",
          "type": "address"
        },
        {
          "indexed": false,
          "internalType": "uint256",
          "name": "tokenId",
          "type": "uint256"
        },
        {
          "indexed": false,
          "internalType": "uint256",
          "name": "amount",
          "type": "uint256"
        }
      ],
      "name": "MeritTokensAwarded",
      "type": "event"
    },
    {
      "anonymous": false,
      "inputs": [
        {
          "indexed": false,
          "internalType": "uint256",
          "name": "newDailyLimit",
          "type": "uint256"
        },
        {
          "indexed": false,
          "internalType": "uint256",
          "name": "newWeeklyLimit",
          "type": "uint256"
        }
      ],
      "name": "NonSegmentedProposalLimitsUpdated",
      "type": "event"
    },
    {
      "anonymous": false,
      "inputs": [
        {
          "indexed": true,
          "internalType": "address",
          "name": "previousOwner",
          "type": "address"
        },
        {
          "indexed": true,
          "internalType": "address",
          "name": "newOwner",
          "type": "address"
        }
      ],
      "name": "OwnershipTransferred",
      "type": "event"
    },
    {
      "anonymous": false,
      "inputs": [
        {
          "indexed": false,
          "internalType": "address",
          "name": "account",
          "type": "address"
        }
      ],
      "name": "Paused",
      "type": "event"
    },
    {
      "anonymous": false,
      "inputs": [
        {
          "indexed": true,
          "internalType": "uint256",
          "name": "proposalId",
          "type": "uint256"
        },
        {
          "indexed": false,
          "internalType": "bool",
          "name": "banStatus",
          "type": "bool"
        }
      ],
      "name": "ProposalBanStatusChanged",
      "type": "event"
    },
    {
      "anonymous": false,
      "inputs": [
        {
          "indexed": true,
          "internalType": "uint256",
          "name": "id",
          "type": "uint256"
        },
        {
          "indexed": false,
          "internalType": "address",
          "name": "target",
          "type": "address"
        },
        {
          "indexed": false,
          "internalType": "bytes",
          "name": "callData",
          "type": "bytes"
        },
        {
          "indexed": false,
          "internalType": "bool",
          "name": "isQuorumChange",
          "type": "bool"
        },
        {
          "indexed": false,
          "internalType": "bool",
          "name": "isAmendment",
          "type": "bool"
        },
        {
          "indexed": false,
          "internalType": "uint256",
          "name": "parentId",
          "type": "uint256"
        },
        {
          "indexed": false,
          "internalType": "bool",
          "name": "requiresYesNo",
          "type": "bool"
        }
      ],
      "name": "ProposalCreated",
      "type": "event"
    },
    {
      "anonymous": false,
      "inputs": [
        {
          "indexed": true,
          "internalType": "uint256",
          "name": "id",
          "type": "uint256"
        },
        {
          "indexed": true,
          "internalType": "address",
          "name": "target",
          "type": "address"
        },
        {
          "indexed": false,
          "internalType": "bytes",
          "name": "callData",
          "type": "bytes"
        }
      ],
      "name": "ProposalExecuted",
      "type": "event"
    },
    {
      "anonymous": false,
      "inputs": [
        {
          "indexed": false,
          "internalType": "uint256",
          "name": "newPercentage",
          "type": "uint256"
        }
      ],
      "name": "QuorumPercentageUpdated",
      "type": "event"
    },
    {
      "anonymous": false,
      "inputs": [
        {
          "indexed": false,
          "internalType": "address",
          "name": "stakingMultiToken",
          "type": "address"
        }
      ],
      "name": "StakingMultiTokenSet",
      "type": "event"
    },
    {
      "anonymous": false,
      "inputs": [
        {
          "indexed": false,
          "internalType": "address",
          "name": "account",
          "type": "address"
        }
      ],
      "name": "Unpaused",
      "type": "event"
    },
    {
      "anonymous": false,
      "inputs": [
        {
          "indexed": true,
          "internalType": "address",
          "name": "implementation",
          "type": "address"
        }
      ],
      "name": "Upgraded",
      "type": "event"
    },
    {
      "anonymous": false,
      "inputs": [
        {
          "indexed": true,
          "internalType": "address",
          "name": "target",
          "type": "address"
        },
        {
          "indexed": false,
          "internalType": "bool",
          "name": "isGeneral",
          "type": "bool"
        },
        {
          "indexed": false,
          "internalType": "enum DaoStructs.Category",
          "name": "category",
          "type": "uint8"
        },
        {
          "indexed": false,
          "internalType": "bool",
          "name": "banStatus",
          "type": "bool"
        }
      ],
      "name": "UserBanStatusChanged",
      "type": "event"
    },
    {
      "anonymous": false,
      "inputs": [
        {
          "indexed": false,
          "internalType": "address",
          "name": "utilityToken",
          "type": "address"
        }
      ],
      "name": "UtilityTokenSet",
      "type": "event"
    },
    {
      "anonymous": false,
      "inputs": [
        {
          "indexed": true,
          "internalType": "uint256",
          "name": "id",
          "type": "uint256"
        },
        {
          "indexed": false,
          "internalType": "address",
          "name": "voter",
          "type": "address"
        },
        {
          "indexed": false,
          "internalType": "bool",
          "name": "support",
          "type": "bool"
        }
      ],
      "name": "VoteCast",
      "type": "event"
    },
    {
      "inputs": [
        {
          "internalType": "address",
          "name": "user",
          "type": "address"
        },
        {
          "internalType": "bool",
          "name": "status",
          "type": "bool"
        }
      ],
      "name": "addFastBanner",
      "outputs": [],
      "stateMutability": "nonpayable",
      "type": "function"
    },
    {
      "inputs": [
        {
          "internalType": "enum DaoStructs.Category",
          "name": "category",
          "type": "uint8"
        },
        {
          "internalType": "address",
          "name": "user",
          "type": "address"
        },
        {
          "internalType": "bool",
          "name": "status",
          "type": "bool"
        }
      ],
      "name": "addFastBannerBySegment",
      "outputs": [],
      "stateMutability": "nonpayable",
      "type": "function"
    },
    {
      "inputs": [
        {
          "internalType": "uint256",
          "name": "jobId",
          "type": "uint256"
        }
      ],
      "name": "applyToJob",
      "outputs": [],
      "stateMutability": "nonpayable",
      "type": "function"
    },
    {
      "inputs": [
        {
          "internalType": "uint256",
          "name": "tokenId",
          "type": "uint256"
        },
        {
          "internalType": "address",
          "name": "daoAddress",
          "type": "address"
        },
        {
          "internalType": "bool",
          "name": "banStatus",
          "type": "bool"
        }
      ],
      "name": "banDAOFromSegment",
      "outputs": [],
      "stateMutability": "nonpayable",
      "type": "function"
    },
    {
      "inputs": [
        {
          "internalType": "uint256",
          "name": "proposalId",
          "type": "uint256"
        },
        {
          "internalType": "bool",
          "name": "banStatus",
          "type": "bool"
        }
      ],
      "name": "banProposal",
      "outputs": [],
      "stateMutability": "nonpayable",
      "type": "function"
    },
    {
      "inputs": [
        {
          "internalType": "address",
          "name": "target",
          "type": "address"
        },
        {
          "internalType": "bool",
          "name": "isGeneral",
          "type": "bool"
        },
        {
          "internalType": "enum DaoStructs.Category",
          "name": "category",
          "type": "uint8"
        },
        {
          "internalType": "bool",
          "name": "banStatus",
          "type": "bool"
        }
      ],
      "name": "banUser",
      "outputs": [],
      "stateMutability": "nonpayable",
      "type": "function"
    },
    {
      "inputs": [
        {
          "internalType": "uint256",
          "name": "actionId",
          "type": "uint256"
        },
        {
          "internalType": "enum DaoStructs.Category",
          "name": "category",
          "type": "uint8"
        },
        {
          "internalType": "uint256",
          "name": "newCost",
          "type": "uint256"
        }
      ],
      "name": "changeCost",
      "outputs": [],
      "stateMutability": "nonpayable",
      "type": "function"
    },
    {
      "inputs": [
        {
          "internalType": "uint256",
          "name": "jobId",
          "type": "uint256"
        }
      ],
      "name": "closeJobOffer",
      "outputs": [],
      "stateMutability": "nonpayable",
      "type": "function"
    },
    {
      "inputs": [],
      "name": "daoTransitionTimestamp",
      "outputs": [
        {
          "internalType": "uint256",
          "name": "",
          "type": "uint256"
        }
      ],
      "stateMutability": "view",
      "type": "function"
    },
    {
      "inputs": [
        {
          "internalType": "uint256",
          "name": "id",
          "type": "uint256"
        }
      ],
      "name": "execute",
      "outputs": [],
      "stateMutability": "nonpayable",
      "type": "function"
    },
    {
      "inputs": [
        {
          "internalType": "address",
          "name": "target",
          "type": "address"
        },
        {
          "internalType": "bool",
          "name": "isGeneral",
          "type": "bool"
        },
        {
          "internalType": "enum DaoStructs.Category",
          "name": "category",
          "type": "uint8"
        },
        {
          "internalType": "bool",
          "name": "banStatus",
          "type": "bool"
        }
      ],
      "name": "fastBanUser",
      "outputs": [],
      "stateMutability": "nonpayable",
      "type": "function"
    },
    {
      "inputs": [],
      "name": "getAdminRole",
      "outputs": [
        {
          "internalType": "bytes32",
          "name": "",
          "type": "bytes32"
        }
      ],
      "stateMutability": "view",
      "type": "function"
    },
    {
      "inputs": [
        {
          "internalType": "uint256",
          "name": "jobId",
          "type": "uint256"
        }
      ],
      "name": "getApplicants",
      "outputs": [
        {
          "internalType": "address[]",
          "name": "",
          "type": "address[]"
        }
      ],
      "stateMutability": "view",
      "type": "function"
    },
    {
      "inputs": [
        {
          "internalType": "uint256",
          "name": "id",
          "type": "uint256"
        }
      ],
      "name": "getBrainstormProposal",
      "outputs": [
        {
          "internalType": "address",
          "name": "",
          "type": "address"
        },
        {
          "internalType": "string",
          "name": "",
          "type": "string"
        },
        {
          "internalType": "uint256",
          "name": "",
          "type": "uint256"
        },
        {
          "internalType": "uint256",
          "name": "",
          "type": "uint256"
        },
        {
          "internalType": "address",
          "name": "",
          "type": "address"
        },
        {
          "internalType": "uint256",
          "name": "",
          "type": "uint256"
        },
        {
          "internalType": "address",
          "name": "",
          "type": "address"
        }
      ],
      "stateMutability": "view",
      "type": "function"
    },
    {
      "inputs": [],
      "name": "getLaunchpadAddress",
      "outputs": [
        {
          "internalType": "address",
          "name": "",
          "type": "address"
        }
      ],
      "stateMutability": "view",
      "type": "function"
    },
    {
      "inputs": [],
      "name": "getMyAddress",
      "outputs": [
        {
          "internalType": "address",
          "name": "",
          "type": "address"
        }
      ],
      "stateMutability": "view",
      "type": "function"
    },
    {
      "inputs": [],
      "name": "getOwner",
      "outputs": [
        {
          "internalType": "address",
          "name": "",
          "type": "address"
        }
      ],
      "stateMutability": "view",
      "type": "function"
    },
    {
      "inputs": [
        {
          "internalType": "address",
          "name": "_launchpad",
          "type": "address"
        },
        {
          "internalType": "uint256",
          "name": "_companyId",
          "type": "uint256"
        },
        {
          "internalType": "address",
          "name": "_governanceTokenProxy",
          "type": "address"
        }
      ],
      "name": "initialize",
      "outputs": [],
      "stateMutability": "nonpayable",
      "type": "function"
    },
    {
      "inputs": [],
      "name": "launchpad",
      "outputs": [
        {
          "internalType": "contract IVanellixLaunchpadExtended",
          "name": "",
          "type": "address"
        }
      ],
      "stateMutability": "view",
      "type": "function"
    },
    {
      "inputs": [
        {
          "internalType": "address",
          "name": "to",
          "type": "address"
        },
        {
          "internalType": "uint256",
          "name": "tokenId",
          "type": "uint256"
        },
        {
          "internalType": "uint256",
          "name": "amount",
          "type": "uint256"
        }
      ],
      "name": "mintMeritTokens",
      "outputs": [],
      "stateMutability": "nonpayable",
      "type": "function"
    },
    {
      "inputs": [],
      "name": "owner",
      "outputs": [
        {
          "internalType": "address",
          "name": "",
          "type": "address"
        }
      ],
      "stateMutability": "view",
      "type": "function"
    },
    {
      "inputs": [],
      "name": "pause",
      "outputs": [],
      "stateMutability": "nonpayable",
      "type": "function"
    },
    {
      "inputs": [],
      "name": "paused",
      "outputs": [
        {
          "internalType": "bool",
          "name": "",
          "type": "bool"
        }
      ],
      "stateMutability": "view",
      "type": "function"
    },
    {
      "inputs": [
        {
          "internalType": "string",
          "name": "title",
          "type": "string"
        },
        {
          "internalType": "string",
          "name": "description",
          "type": "string"
        },
        {
          "internalType": "uint256",
          "name": "requiredTokenId",
          "type": "uint256"
        },
        {
          "internalType": "uint256",
          "name": "minimumMeritTokens",
          "type": "uint256"
        },
        {
          "internalType": "enum DaoStructs.Category",
          "name": "category",
          "type": "uint8"
        }
      ],
      "name": "postJobOffer",
      "outputs": [],
      "stateMutability": "nonpayable",
      "type": "function"
    },
    {
      "inputs": [
        {
          "components": [
            {
              "internalType": "address",
              "name": "target",
              "type": "address"
            },
            {
              "internalType": "bytes",
              "name": "callData",
              "type": "bytes"
            },
            {
              "internalType": "bool",
              "name": "isQuorumChange",
              "type": "bool"
            },
            {
              "internalType": "bool",
              "name": "isAmendment",
              "type": "bool"
            },
            {
              "internalType": "uint256",
              "name": "parentId",
              "type": "uint256"
            },
            {
              "internalType": "enum DaoStructs.Category",
              "name": "category",
              "type": "uint8"
            },
            {
              "internalType": "uint256",
              "name": "requiredTokenId",
              "type": "uint256"
            },
            {
              "internalType": "bool",
              "name": "requiresYesNo",
              "type": "bool"
            },
            {
              "internalType": "uint256",
              "name": "votingDurationDays",
              "type": "uint256"
            }
          ],
          "internalType": "struct DaoStructs.ProposalParams",
          "name": "params",
          "type": "tuple"
        }
      ],
      "name": "propose",
      "outputs": [],
      "stateMutability": "nonpayable",
      "type": "function"
    },
    {
      "inputs": [
        {
          "components": [
            {
              "internalType": "string",
              "name": "ideaDescription",
              "type": "string"
            },
            {
              "internalType": "enum DaoStructs.Category",
              "name": "category",
              "type": "uint8"
            },
            {
              "internalType": "address",
              "name": "tokenToRaise",
              "type": "address"
            },
            {
              "internalType": "uint256",
              "name": "totalAmountToRaise",
              "type": "uint256"
            },
            {
              "internalType": "uint256",
              "name": "votingDurationDays",
              "type": "uint256"
            },
            {
              "internalType": "address",
              "name": "targetWallet",
              "type": "address"
            }
          ],
          "internalType": "struct DaoStructs.BrainstormParams",
          "name": "params",
          "type": "tuple"
        }
      ],
      "name": "proposeBrainstorm",
      "outputs": [],
      "stateMutability": "nonpayable",
      "type": "function"
    },
    {
      "inputs": [],
      "name": "proxiableUUID",
      "outputs": [
        {
          "internalType": "bytes32",
          "name": "",
          "type": "bytes32"
        }
      ],
      "stateMutability": "view",
      "type": "function"
    },
    {
      "inputs": [],
      "name": "renounceOwnership",
      "outputs": [],
      "stateMutability": "nonpayable",
      "type": "function"
    },
    {
      "inputs": [
        {
          "internalType": "uint256",
          "name": "newPercentage",
          "type": "uint256"
        }
      ],
      "name": "setMinimumQuorumPercentage",
      "outputs": [],
      "stateMutability": "nonpayable",
      "type": "function"
    },
    {
      "inputs": [
        {
          "internalType": "uint256",
          "name": "newDailyLimit",
          "type": "uint256"
        },
        {
          "internalType": "uint256",
          "name": "newWeeklyLimit",
          "type": "uint256"
        }
      ],
      "name": "setNonSegmentedProposalLimits",
      "outputs": [],
      "stateMutability": "nonpayable",
      "type": "function"
    },
    {
      "inputs": [
        {
          "internalType": "address",
          "name": "_stakingMultiToken",
          "type": "address"
        }
      ],
      "name": "setStakingMultiToken",
      "outputs": [],
      "stateMutability": "nonpayable",
      "type": "function"
    },
    {
      "inputs": [],
      "name": "setUtilityToken",
      "outputs": [],
      "stateMutability": "nonpayable",
      "type": "function"
    },
    {
      "inputs": [],
      "name": "stakingMultiToken",
      "outputs": [
        {
          "internalType": "contract IVanellixStakingMultiToken",
          "name": "",
          "type": "address"
        }
      ],
      "stateMutability": "view",
      "type": "function"
    },
    {
      "inputs": [
        {
          "internalType": "uint256",
          "name": "id",
          "type": "uint256"
        },
        {
          "internalType": "uint256",
          "name": "supportAmount",
          "type": "uint256"
        }
      ],
      "name": "supportBrainstorm",
      "outputs": [],
      "stateMutability": "nonpayable",
      "type": "function"
    },
    {
      "inputs": [
        {
          "internalType": "bytes4",
          "name": "interfaceId",
          "type": "bytes4"
        }
      ],
      "name": "supportsInterface",
      "outputs": [
        {
          "internalType": "bool",
          "name": "",
          "type": "bool"
        }
      ],
      "stateMutability": "view",
      "type": "function"
    },
    {
      "inputs": [
        {
          "internalType": "address",
          "name": "",
          "type": "address"
        }
      ],
      "name": "transferOwnership",
      "outputs": [],
      "stateMutability": "nonpayable",
      "type": "function"
    },
    {
      "inputs": [],
      "name": "unpause",
      "outputs": [],
      "stateMutability": "nonpayable",
      "type": "function"
    },
    {
      "inputs": [],
      "name": "updateOwnerFromLaunchpad",
      "outputs": [],
      "stateMutability": "nonpayable",
      "type": "function"
    },
    {
      "inputs": [
        {
          "internalType": "address",
          "name": "newImplementation",
          "type": "address"
        }
      ],
      "name": "upgradeTo",
      "outputs": [],
      "stateMutability": "nonpayable",
      "type": "function"
    },
    {
      "inputs": [
        {
          "internalType": "address",
          "name": "",
          "type": "address"
        },
        {
          "internalType": "bytes",
          "name": "",
          "type": "bytes"
        }
      ],
      "name": "upgradeToAndCall",
      "outputs": [],
      "stateMutability": "payable",
      "type": "function"
    },
    {
      "inputs": [
        {
          "internalType": "address",
          "name": "token",
          "type": "address"
        },
        {
          "internalType": "address",
          "name": "recipient",
          "type": "address"
        },
        {
          "internalType": "uint256",
          "name": "amount",
          "type": "uint256"
        }
      ],
      "name": "useDaoPoolTokens",
      "outputs": [],
      "stateMutability": "nonpayable",
      "type": "function"
    },
    {
      "inputs": [
        {
          "internalType": "uint256",
          "name": "id",
          "type": "uint256"
        },
        {
          "internalType": "bool",
          "name": "support",
          "type": "bool"
        }
      ],
      "name": "vote",
      "outputs": [],
      "stateMutability": "nonpayable",
      "type": "function"
    }
  ],
  "bytecode": "0x60a08060405234602257306080526152d090816100288239608051816139090152f35b600080fdfe608080604052600436101561001357600080fd5b600090813560e01c90816301ffc9a7146146f85750806302669b52146146ce5780630298d4f3146146255780630396ab76146140505780630c7d3f4f14613fbd57806311f1011614613f9357806315e1eb5314613eca5780631f88e82914613e6b5780632159aecd14613ca85780632f3fb04c14613be35780633659cfe614613abe5780633f4ba83a14613a185780634f1ef286146139cc57806352d1902d146138f657806355a91be9146138cb57806357889a36146137a55780635c975abb1461378257806361047c81146137005780636cf5d86e14613646578063715018a61461361b57806374ced870146135fc5780637b17189f14612ecd5780638456cb5914612e4a578063850bcab914612d1557806385d64da6146127bc578063893d20e8146127935780638da5cb5b146127935780638e1a32d0146125455780639a1662991461252a578063aa88527f14611b3c578063add55dfa146119bc578063b3dc97871461191a578063b3ecf236146118df578063c350a1b514610ece578063c6c7e27b14610e23578063c80fe02614610d93578063c9d27afe1461089a578063d468ec78146107ea578063e22a81a414610709578063f2fde38b146106d7578063f7146641146106ad5763fe0d94c1146101ef57600080fd5b346106aa5760203660031901126106aa5760043561020b614b77565b610213614bcd565b6033548183526101646020526040832080549092916001600160a01b0316901561069b57600583019081549060ff821661068c5783865261017960205260ff60408720541661067d57610187544210156104e25733036104d3576001905b60ff19161790556001820160018060a01b0381541692600281019385604051918192875461029e81614916565b90600181169081156104be575060011461048a575b50828181950392624c4b40f13d15610485573d6102cf81614805565b906102dd60405192836147ce565b81528660203d92013e5b156104765760ff60098201541661034a575b505460405160208082526001600160a01b03909216937fc98fbf8f20b11b050a9541d12aee1c11fcd31e8e42975cc885fb3d33a6accc8292829161033f91830190614950565b0390a3600160fb5580f35b9060ff6101855460101c16156104675760018060a01b0361018b541685600b840191600a60018060a01b038454169501948554823b156104635760848492836040519586948593637ba5ff4760e11b85526004850152602484015268056bc75e2d6310000060448401523060648401525af180156104585761043b575b5050907fc98fbf8f20b11b050a9541d12aee1c11fcd31e8e42975cc885fb3d33a6accc82927f441c1aeb0e8e4eae8ca59e0a657295257d25db7bb870e63a9402c329a0f337e4604061033f9460018060a01b039054169254815190815268056bc75e2d631000006020820152a291506102f9565b81610448919493946147ce565b610454579085386103c7565b8580fd5b6040513d84823e3d90fd5b8380fd5b634659d43160e11b8552600485fd5b632b3f6d1160e21b8552600485fd5b6102e7565b888452602084209450835b8181106104a7575081019350826102b3565b8554838201526001909501948a9450602001610495565b60ff19168352508015150281019350826102b3565b63ea8e4eb560e01b8552600485fd5b50610189546040516370a0823160e01b815233600482015290602090829060249082906001600160a01b03165afa801561067257869061063f575b600191501115610630576003840154600485015490818111156106215760ff600987015416610551575b5050600190610271565b9061055b91614c59565b60018060a01b0361018b54166020600a870154602460405180948193633681622360e21b835260048301525afa9081156106165787916105df575b5061017b54908181029181830414901517156105cb5760649004116105bc573880610547565b63aa26a69360e01b8552600485fd5b634e487b7160e01b87526011600452602487fd5b90506020813d60201161060e575b816105fa602093836147ce565b81010312610609575138610596565b600080fd5b3d91506105ed565b6040513d89823e3d90fd5b637a78bcf360e01b8752600487fd5b630deda90360e41b8552600485fd5b506020813d60201161066a575b81610659602093836147ce565b81010312610609576001905161051d565b3d915061064c565b6040513d88823e3d90fd5b63b86cda2960e01b8652600486fd5b6351618d5360e01b8652600486fd5b631dc0650160e31b8452600484fd5b80fd5b50346106aa57806003193601126106aa57610163546040516001600160a01b039091168152602090f35b50346106aa5760203660031901126106aa576004906106f4614746565b506106fd614b77565b635a42e44960e01b8152fd5b50346106aa5760203660031901126106aa57600435610726614b77565b6033546001600160a01b0316606482116107db57603282106107cc576101875442101561079b57330361078c5760207ff45a9754991a0d077576b4ef07eab4b29e13f5e557e5a742f5351fef792421ab915b8061017b55604051908152a1600160fb5580f35b63ea8e4eb560e01b8252600482fd5b5030330361078c5760207ff45a9754991a0d077576b4ef07eab4b29e13f5e557e5a742f5351fef792421ab91610778565b635dba815960e11b8352600483fd5b63c093b13b60e01b8352600483fd5b50346106aa5760603660031901126106aa5760043560068110156108965761081061475c565b907f3e3e9c44abc00151ef42501665fb0d4cc6f4db17d8674df588e5d43dfc3444b2602061083c614884565b93610845614b77565b61084d614bcd565b61085684614c11565b6001600160a01b038216600090815290835260409020805460ff191660ff8715151617905560405194151585526001600160a01b031693a3600160fb5580f35b5080fd5b50346106aa5760403660031901126106aa576004356108b7614875565b6108bf614b77565b6108c7614bcd565b818352610164602052604083209081541561069b5760068201544211610d8457336000908152610173602052604090205460ff16610d7557600660405161091c816109158160028801614950565b03826147ce565b60208151910120066006811015610d6157600983015460ff168080610d3b575b610d2c5784865261016660209081526040808820336000908152925290205460ff16610d1d5715610c985760ff6101855460101c161561046757610189546040516370a0823160e01b815233600482015290602090829060249082906001600160a01b03165afa908115610672578691610c66575b5015610c575761018b54600a840154604051627eeac760e11b815233600482015260248101919091529190602090839060449082906001600160a01b03165afa918215610672578692610c23575b508115610c14575b60ff6101855416610aa5575b5083855261016660209081526040808720336000908152925290819020805460ff191660011790557fe71fcdac32df1877c1700e7bda2a03157e20993363a28fc35ac495cefc76e4d493909291908215610a8f576003610a769101918254614c59565b90555b81519033825215156020820152a2600160fb5580f35b6004610a9e9101918254614c59565b9055610a79565b60028652610172602052610abc8160408820614c41565b5415610c0a57610ad9906002875261017260205260408720614c41565b545b61018a546040516370a0823160e01b81523360048201526001600160a01b039091169190602081602481865afa8015610bff5782918991610bca575b5010610bbb576040516323b872dd60e01b815233600482015260006024820152604481019190915290602090829060649082908a905af180156106725715610a135791906020833d602011610bb3575b81610b74602093836147ce565b81010312610454577fe71fcdac32df1877c1700e7bda2a03157e20993363a28fc35ac495cefc76e4d493610ba9604094614a29565b5093509091610a13565b3d9150610b67565b6367f3585b60e01b8752600487fd5b9150506020813d602011610bf7575b81610be6602093836147ce565b810103126106095781905138610b17565b3d9150610bd9565b6040513d8a823e3d90fd5b5061017f54610adb565b632146d11560e11b8652600486fd5b9091506020813d602011610c4f575b81610c3f602093836147ce565b81010312610609575190386109ff565b3d9150610c32565b6373b823a560e11b8552600485fd5b90506020813d602011610c90575b81610c81602093836147ce565b810103126106095751386109b1565b3d9150610c74565b610189546040516370a0823160e01b81523360048201529190602090839060249082906001600160a01b03165afa918215610672578692610ce9575b5081610a07576373b823a560e11b8652600486fd5b9091506020813d602011610d15575b81610d05602093836147ce565b8101031261060957519038610cd4565b3d9150610cf8565b637c9a1cf960e01b8652600486fd5b63c602500f60e01b8652600486fd5b503360009081526101746020526040902060ff90610d5a908490614c41565b541661093c565b634e487b7160e01b85526021600452602485fd5b63c602500f60e01b8452600484fd5b63370ec37160e21b8452600484fd5b50346106aa57610da2366148a0565b91610dae949394614b77565b610db6614bcd565b336000908152610175602052604090205460ff161580610df6575b610de757610ddf9394614c96565b600160fb5580f35b633509bea360e11b8452600484fd5b5080158015610dd15750610e0982614c11565b336000908152602091909152604090205460ff1615610dd1565b50346106aa5760603660031901126106aa576004357fc4e0ff0e3fca09540fb41a69eee7453c9abde338217a0ef8dace4748a9fa7af06040610e6361475c565b610e6b614884565b610e73614b77565b610e7b614bcd565b84865261017760205282862060018060a01b038316600052602052610eaf81846000209060ff801983541691151516179055565b8251948552151560208501526001600160a01b031692a2600160fb5580f35b50346106aa5760603660031901126106aa57610ee8614746565b60443590602435906001600160a01b0383168084036118db5784549160ff8360081c1615928380946118ce575b80156118b7575b1561185b5760ff19811660011787558361184a575b5061104f604095600080610f93610fa18a51610f4d8c826147ce565b601681527534b734ba34b0b634bd32902220a79031b0b63632b21d60511b60208201528b5192839163104c13eb60e21b60208401526020602484015260448301906147a9565b03601f1981018352826147ce565b6020815191016a636f6e736f6c652e6c6f675afa50610fe5838851610fc68a826147ce565b600d81526c10102fb630bab731b43830b21d60991b6020820152614e5d565b611014868851610ff58a826147ce565b600d81526c10102fb1b7b6b830b73ca4b21d60991b6020820152614ec3565b865161102088826147ce565b601881527f20205f676f7665726e616e6365546f6b656e50726f78793a00000000000000006020820152614e5d565b61107f855161105e87826147ce565b600d81526c101036b9b39739b2b73232b91d60991b60208201523390614e5d565b6001600160a01b031690811561183b57801561183b5761016280546001600160a01b0319168317905584516308f8808b60e11b8152602081600481865afa9081156117f7578791611801575b5060018060a01b0316806001600160601b0360a01b6101605416176101605561111f8187516110fa89826147ce565b601381527210103630bab731b43830b220b2323932b9b99d60691b6020820152614e5d565b6001600160601b0360a01b610188541617610188558361018655603261017b558451632ee325db60e21b81526020818061117b6004820160609060208152600a60208201526926bab63a34aa37b5b2b760b11b60408201520190565b0381865afa9081156117f75787916117b9575b50855190632ee325db60e21b825260206004830152600c60248301526b546f6b656e466163746f727960a01b6044830152602082606481875afa918215611613578892611779575b5061120d8188516111e78a826147ce565b6014815273101031b7b6b830b73ca6bab63a34aa37b5b2b71d60611b6020820152614e5d565b61123e82885161121d8a826147ce565b600f81526e10103a37b5b2b72330b1ba37b93c9d60891b6020820152614e5d565b6001600160a01b03169081158015611768575b611759576001600160a01b0316330361174a5784159187831561161d575b602492885193848092630f6dd15560e41b82528a60048301525afa9182156116135788926115ef575b5060208201805188516112df916001600160a01b0316906112b98b826147ce565b6014815273101031b7b6b830b73ca230ba309737bbb732b91d60611b6020820152614e5d565b60c083016000808251151561135d8c8051926112fb82856147ce565b601784527f2020636f6d70616e79446174612e69734163746976653a0000000000000000006020850152611349825194859363c3b5563560e01b6020860152602485015260648401906147a9565b90604483015203601f1981018352826147ce565b6020815191016a636f6e736f6c652e6c6f675afa506101208401916113cc60018060a01b038451168b516113926060826147ce565b602381527f2020636f6d70616e79446174612e676f7665726e616e6365546f6b656e50726f6020820152623c3c9d60e91b8d820152614e5d565b516001600160a01b0316156115e05751156115d157516001600160a01b03168190036115c25790610100916001600160601b0360a01b6101895416176101895501518061018755816115b9575b5061154d575b50600161017c55600761017d55678ac7230489e8000061017e55674563918244f4000061018155671bc16d674ec8000061017f55670de0b6b3a7640000610182556729a2241af62c00006101835561148f60ff855460081c1661148181614ef3565b61148a81614ef3565b614ef3565b61149833614da0565b61150d8454926114cd60ff8560081c166114b181614ef3565b6114ba81614ef3565b60ff1960c9541660c95561148a81614ef3565b600160fb5584516114de86826147ce565b601e81527f44414f20696e697469616c697a656420666f7220636f6d70616e7949643a00006020820152614ec3565b611515578280f35b61ff001916825551600181527f7f26b83ff96e1f2b6a682f133852f6798a09c465da95921460cefb384740249890602090a138808280f35b602060049185519283809263074ced8760e41b82525afa9081156115af57859161157d575b50610187553861141f565b90506020813d6020116115a7575b81611598602093836147ce565b81010312610609575138611572565b3d915061158b565b84513d87823e3d90fd5b90501538611419565b6307ed98ed60e31b8852600488fd5b630245e10f60e51b8952600489fd5b6309e7af3560e31b8a5260048afd5b61160c9192503d808a833e61160481836147ce565b810190614a36565b9038611298565b87513d8a823e3d90fd5b50908651630f6dd15560e41b81528860048201528881602481855afa908115611740578991611726575b50610120602082019161169860018060a01b038451168b516116698d826147ce565b601881527f2020636f6d70616e795a65726f446174612e6f776e65723a00000000000000006020820152614e5d565b01906116f260018060a01b038351168a516116b46060826147ce565b602781527f2020636f6d70616e795a65726f446174612e676f7665726e616e6365546f6b6560208201526637283937bc3c9d60c91b8c820152614e5d565b516001600160a01b03161561171757516001600160a01b0316156115c257908761126f565b6309e7af3560e31b8952600489fd5b61173a91503d808b833e61160481836147ce565b38611647565b88513d8b823e3d90fd5b635c427cd960e01b8752600487fd5b631981931560e21b8852600488fd5b506001600160a01b03811615611251565b9091506020813d6020116117b1575b81611795602093836147ce565b810103126117ad576117a6906149d3565b90386111d6565b8780fd5b3d9150611788565b90506020813d6020116117ef575b816117d4602093836147ce565b810103126117eb576117e5906149d3565b3861118e565b8680fd5b3d91506117c7565b86513d89823e3d90fd5b90506020813d602011611833575b8161181c602093836147ce565b810103126117eb5761182d906149d3565b386110cb565b3d915061180f565b63d92e233d60e01b8652600486fd5b61ffff191661010117865538610f31565b60405162461bcd60e51b815260206004820152602e60248201527f496e697469616c697a61626c653a20636f6e747261637420697320616c72656160448201526d191e481a5b9a5d1a585b1a5e995960921b6064820152608490fd5b50303b158015610f1c5750600160ff821614610f1c565b50600160ff821610610f15565b8480fd5b50346106aa57806003193601126106aa5760206040517fa36640f9c3d74ee87c99b3aee39f32849dda077410057abc393a2cb9e13139a78152f35b50346106aa5760403660031901126106aa57611934614746565b7ff1e21d25e33d46ab9f25208439e082609c2e668a7731d8643323e1bf62b34c33602061195f614875565b92611968614b77565b611970614bcd565b6001600160a01b0381166000908152610175602052604090206119a19085905b9060ff801983541691151516179055565b60405193151584526001600160a01b031692a2600160fb5580f35b50346106aa5760603660031901126106aa576119d6614746565b90602435916119e3614b77565b60ff6101855460101c1615611b2d5761018b5460405163e8e4720760e01b81523360048201526001600160a01b039091169190602081602481865afa908115611b22578491611ae8575b5015611ad95783835261017760209081526040808520336000908152925290205460ff16611aca578293823b15611ac557604051637ba5ff4760e11b81526001600160a01b039092166004830152602482015260448035908201523060648201529082908290608490829084905af1801561045857611ab0575b50600160fb5580f35b81611aba916147ce565b6106aa578038611aa7565b505050fd5b63e696fb4960e01b8352600483fd5b6344b311c360e01b8352600483fd5b90506020813d602011611b1a575b81611b03602093836147ce565b8101031261046357611b1490614a29565b38611a2d565b3d9150611af6565b6040513d86823e3d90fd5b634659d43160e11b8252600482fd5b50346106aa5760203660031901126106aa57600435906001600160401b0382116106aa5761012060031983360301126106aa57611b77614b77565b611b7f614bcd565b611b8b82600401614e0a565b600660a484013510156108965760c4830135906001600160a01b03811615908115612520575b5061251157336000908152610173602052604090205460ff1661250257801592831580806124d8575b610d7557610189546040516370a0823160e01b815233600482015290602090829060249082906001600160a01b03165afa9081156122275785916124a6575b5015612497576123dd575b62093a8042046201518042048560001461237f5733600090815261016c60205260409020818652602052604085205461017c5411156123705733600090815261016d60205260409020828652602052604085205461017d5411156123615733600090815261016c6020526040902090855260205260408420611ca68154614d3f565b905533600090815261016d6020526040902090845260205260408320611ccc8154614d3f565b90555b61010481013562015180810281810462015180148215171561234d57611cf59042614c59565b9462093a80420180421161233957861061232a57611d1583600401614e0a565b6001600160a01b0316301461227f575b5060ff610185541661212c575b6040519061012082018281106001600160401b0382111761211857604052611d5c83600401614772565b8252602483019182356001600160401b0381116117eb57611d839060043691870101614857565b94602082019586526044850195611d9987614893565b60408401908152611dac60648801614893565b906060850191825260808501926084890135845260a489013560a087015260c08601948552611ddd60e48a01614893565b9660e08701978852610100870152611df761017a54614d3f565b61017a819055808c5261016460205260408c2090815595516001870180546001600160a01b0319166001600160a01b0392909216919091179055518051909b906001600160401b03811161210457611e5f81611e5660028a0154614916565b60028a01614d4e565b6020601f821160011461208d579080611e96928e9f600b9b9c9d9e9f92612082575b50508160011b916000199060031b1c19161790565b60028701555b8b60038701558b60048701556005860160ff198154169055600686015551151590611ed76007860192839060ff801983541691151516179055565b51151561ff0082549160081b169061ff00191617905551600883015551611f0f811515600984019060ff801983541691151516179055565b600a820155018054915160ff60a01b1933166001600160a81b03199093169290921791151560a01b60ff60a01b1691909117905561017a546101855490939060101c60ff16612009575b9082611fa3926084611f9b611f917f39fb5954d216ca59744f43bdbb0bdf97fc63945c509a6fc0a34bf89148c1937a97600401614e0a565b9484600401614e1e565b959092614e50565b92611fb060648201614e50565b611fe1611fbf60e48401614e50565b9460405198899860018060a01b0316895260c060208a015260c0890191614de9565b94151560408701521515606086015201356080840152151560a08301520390a2600160fb5580f35b61018b5485906001600160a01b0316803b1561089657604051633d94d33b60e11b815230600482015233602482015260a48601356044820152600160648201529082908290608490829084905af1801561045857612069575b5050611f59565b81612076919493946147ce565b6118db57908438612062565b015190503880611e81565b600288018d52808d209d8d5b601f19841681106120e757509d8291600b9a9b9c9d9e9f600194601f198116106120ce575b505050811b016002870155611e9c565b015160001960f88460031b161c191690553880806120be565b909e8f60016020928584930151815501930191019e90919e612099565b634e487b7160e01b8c52604160045260248cfd5b634e487b7160e01b86526041600452602486fd5b83805261017260205261214660a483013560408620614c41565b54156122765783805261017260205261216660a483013560408620614c41565b545b61018a546040516370a0823160e01b81523360048201526001600160a01b039091169190602081602481865afa908115610616579082918891612241575b5010612232576040516323b872dd60e01b8152336004820152600060248201526044810191909152906020908290606490829089905af18015612227576121ee575b50611d32565b6020813d60201161221f575b81612207602093836147ce565b810103126118db5761221890614a29565b50386121e8565b3d91506121fa565b6040513d87823e3d90fd5b6367f3585b60e01b8652600486fd5b9150506020813d60201161226e575b8161225d602093836147ce565b8101031261060957819051386121a6565b3d9150612250565b61017e54612168565b61228f6024840184600401614e1e565b806004116117eb5781356001600160e01b031916630dd3d05d60e31b146122b8575b5050611d25565b60609082018290036003190112610454576006600482013510156104545760248101356001600160a01b03811691908290036117eb5760446122fa9101614893565b501561231b5761230c573880806122b1565b631b13732760e01b8452600484fd5b63e6c4247b60e01b8552600485fd5b6331806aeb60e21b8552600485fd5b634e487b7160e01b86526011600452602486fd5b634e487b7160e01b85526011600452602485fd5b63626a0e6560e11b8552600485fd5b63f402e5b160e01b8552600485fd5b5033600090815261016a602052604090208185526020526001604085205410156123ce5733600090815261016a60205260409020908452602052604083206123c78154614d3f565b9055611ccf565b63626a0e6560e11b8452600484fd5b60ff6101855460101c16156124885761018b54604051627eeac760e11b81523360048201526024810184905290602090829060449082906001600160a01b03165afa8015611b2257849061244d575b6802b5e3af16b188000091501015611c245763705314b160e01b8352600483fd5b506020813d602011612480575b81612467602093836147ce565b81010312610609576802b5e3af16b1880000905161242c565b3d915061245a565b634659d43160e11b8352600483fd5b630deda90360e41b8452600484fd5b90506020813d6020116124d0575b816124c1602093836147ce565b81010312610609575138611c19565b3d91506124b4565b503360009081526101746020526040902060ff906124fb9060a485013590614c41565b5416611bda565b63c602500f60e01b8252600482fd5b63a710429d60e01b8252600482fd5b90503b1538611bb1565b50346106aa57806003193601126106aa576020604051308152f35b50346106aa5760203660031901126106aa57600435612562614b77565b61256a614bcd565b808252610167602052604082208054158015612784575b61277557336000908152610173602052604090205460ff16612766573360009081526101746020526040902060ff906125c49082600785015460081c1690614c41565b54166127665781835261016860209081526040808520336000908152925290205460ff166127585760ff6101855460101c16156124885761018b54600482810154604051627eeac760e11b8152339281019290925260248201529190602090839060449082906001600160a01b03165afa918215611b22578492612723575b5060050154116127145780825261016860209081526040808420336000908152908352819020805460ff1916600117905582845261016990915282208054906801000000000000000082101561270057600182018082558210156126ec5783526020832001336001600160601b0360a01b8254161790557f7af8dab8f5b5481df3e0d9f1ac4bf4af4a4e76f28dba128d6e12201b992bebbe6020604051338152a2600160fb5580f35b634e487b7160e01b84526032600452602484fd5b634e487b7160e01b84526041600452602484fd5b6378df347d60e11b8252600482fd5b9091506020813d602011612750575b8161273f602093836147ce565b810103126106095751906005612643565b3d9150612732565b62540c0360e11b8352600483fd5b63c602500f60e01b8352600483fd5b638775fbc560e01b8352600483fd5b5060ff60078201541615612581565b50346106aa57806003193601126106aa576033546040516001600160a01b039091168152602090f35b50346106aa5760a03660031901126106aa576004356001600160401b038111610896576127ed9036906004016148e9565b6024356001600160401b0381116104635761280c9036906004016148e9565b92909160443592606435946084359160068310156117ad5761282c614b77565b612834614bcd565b336000908152610173602052604090205460ff16612d06573360009081526101746020526040902060ff9061286a908590614c41565b5416612d065761287933614f53565b15612cf75783158015612cef575b612ce05760ff6101855416612b86575b6128a361018454614d3f565b610184819055808952610167602052604089209081556001810180546001600160a01b0319163317905591600283016001600160401b038611612b03576128f4866128ee8354614916565b83614d4e565b8986601f8111600114612b225780612921928d91612b17575b508160011b916000199060031b1c19161790565b90555b60038301916001600160401b038211612b03579082916129518261294b8d98979654614916565b85614d4e565b8590601f8311600114612a935791806129849260079695948992612a885750508160011b916000199060031b1c19161790565b90555b866004820155876005820155426006820155016001815461ff008460081b169061ffff19161717905560ff6101855460101c16612a1b575b50507f84f88a51a725fa8c7af66b2be71807c1b177f30b8f7b47e692d2f543301130ba926101845494612a05604051948594338652608060208701526080860191614de9565b91604084015260608301520390a2600160fb5580f35b61018b546001600160a01b0316803b15612a8457604051633d94d33b60e11b815230600482015233602482015260448101929092526001606483015282908290608490829084905af1801561045857156129bf5781612a79916147ce565b6118db5784386129bf565b8280fd5b013590503880611e81565b83875260208720969594939291601f198316875b818110612ae8575091600796979891846001959410612ace575b505050811b019055612987565b0135600019600384901b60f8161c19169055388080612ac1565b828401358a556001909901988e985060209283019201612aa7565b634e487b7160e01b8a52604160045260248afd5b90508901353861290d565b50818b5260208b209087601f1981168d5b8b828210612b6c57505010612b52575b5050600186811b019055612924565b880135600019600389901b60f8161c191690553880612b43565b84013585556001909401936020938401938b935001612b33565b60048852610172602052612b9d8360408a20614c41565b5415612cd75760048852610172602052612bba8360408a20614c41565b545b61018a546040516370a0823160e01b81523360048201526001600160a01b039091169190602081602481865afa8015612ccc5782918c91612c97575b5010612c88576040516323b872dd60e01b815233600482015260006024820152604481019190915290602090829060649082908d905af18015612c7d57612c40575b50612897565b6020813d602011612c75575b81612c59602093836147ce565b81010312612c7157612c6a90614a29565b5038612c3a565b8880fd5b3d9150612c4c565b6040513d8b823e3d90fd5b6367f3585b60e01b8a5260048afd5b9150506020813d602011612cc4575b81612cb3602093836147ce565b810103126106095781905138612bf8565b3d9150612ca6565b6040513d8d823e3d90fd5b61018354612bbc565b633e61080d60e01b8852600488fd5b508115612887565b6378f342d160e11b8852600488fd5b63c602500f60e01b8852600488fd5b50346106aa57806003193601126106aa57612d2e614bcd565b612d36614b77565b610160546001600160a01b03168015612e3b5760405163c696804f60e01b8152602081600481855afa908115612e30578391612df6575b506001600160a01b03163303612de75760206004916040519283809263c696804f60e01b82525afa8015610458578290612dac575b610ddf9150614da0565b506020813d602011612ddf575b81612dc6602093836147ce565b8101031261089657612dda610ddf916149d3565b612da2565b3d9150612db9565b632508892760e11b8252600482fd5b90506020813d602011612e28575b81612e11602093836147ce565b81010312612a8457612e22906149d3565b38612d6d565b3d9150612e04565b6040513d85823e3d90fd5b6336939d7d60e21b8252600482fd5b50346106aa57806003193601126106aa57612e63614bcd565b610160546001600160a01b03168015612e3b573303612ebe57612e84614bcd565b600160ff1960c954161760c9557f62e78cea01bee320cd4e420270b5ea74000d11b0c9f74754ebdbfc544b05a2586020604051338152a180f35b635c427cd960e01b8152600490fd5b50346106aa5760203660031901126106aa57600435906001600160401b0382116106aa5760c060031983360301126106aa5760405160c081018181106001600160401b038211176135e85760405282600401356001600160401b038111612a8457830136602382011215612a8457612f4f903690602460048201359101614820565b81526024830135906006821015612a845760208101918252612f7360448501614772565b9060408101918252606081019160648601358352612f9e60a460808401976084810135895201614772565b9360a08301948552612fae614b77565b612fb6614bcd565b336000908152610173602052604090205460ff16610d2c573360009081526101746020526040902081519060068210156133725760ff91612ff691614c41565b5416610d2c57610189546040516370a0823160e01b8152336004820152969795969590602090879060249082906001600160a01b03165afa958615610bff5788966135b4575b5085156135a55783515115612ce05782516001600160a01b031615613596578451156135875786516001600160a01b0316156135785733600090815261016b6020526040902062093a80420490818a52602052600360408a205410156135695733600090815261016b60205260409020908952602052604088206130c08154614d3f565b90555162015180810290808204620151801490151715613555576130e49042614c59565b62093a804201804211613541578110613532578151600681101561351e5760ff61018554166133ee575b5061311b61018054614d3f565b610180819055808952610165602052604089209081556001810180546001600160a01b031916331790558451805191929160028401916001600160401b0382116121045761316d8261294b8554614916565b6020908c601f8411600114613386576008969594936131a2939092836120825750508160011b916000199060031b1c19161790565b90555b4260038301556004820188905584516005830180546001600160a01b0319166001600160a01b039290921691909117905586516006830155600782015501805487516001600160a81b031990911660089190911b610100600160a81b03161790556101855460101c60ff166132c3575b5061018054915190519251945160405160a0808252939660008051602061525b833981519152966132b89690956001600160a01b03918216958a957fa13019971b779fd760090445d14b4822f2e122d272e8dc98a03a2d03d6f73b3a95949316929161328491908501906147a9565b954260208501526040840152606083015260808201528033940390a360408051338152602081019290925290918291820190565b0390a2600160fb5580f35b60018060a01b0361018b54169051600681101561337257908791813b15612a8457604051633d94d33b60e11b815230600482015233602482015260448101919091526001606482015291908290608490829084905af18015610616571561321557917fa13019971b779fd760090445d14b4822f2e122d272e8dc98a03a2d03d6f73b3a876133666132b896949960008051602061525b83398151915298966147ce565b97929450509193613215565b634e487b7160e01b88526021600452602488fd5b9190601f198416858452828420935b8181106133d6575091600193918560089998979694106133bd575b505050811b0190556131a5565b015160001960f88460031b161c191690553880806133b0565b92936020600181928786015181550195019301613395565b600189526101726020526134058160408b20614c41565b5415613514576134229060018a5261017260205260408a20614c41565b545b61018a546040516370a0823160e01b81523360048201526001600160a01b039091169190602081602481865afa8015612ccc5782918c916134db575b5010612c88576040516323b872dd60e01b815233600482015260006024820152604481019190915290602090829060649082908d905af18015612c7d571561310e576020813d6020116134d3575b816134bb602093836147ce565b81010312612c71576134cc90614a29565b503861310e565b3d91506134ae565b9150506020813d60201161350c575b816134f7602093836147ce565b810103126135085781905138613460565b8a80fd5b3d91506134ea565b5061018154613424565b634e487b7160e01b89526021600452602489fd5b6331806aeb60e21b8852600488fd5b634e487b7160e01b89526011600452602489fd5b634e487b7160e01b88526011600452602488fd5b63626a0e6560e11b8952600489fd5b63e6c4247b60e01b8852600488fd5b63162908e360e11b8852600488fd5b630f58058360e11b8852600488fd5b630deda90360e41b8852600488fd5b9095506020813d6020116135e0575b816135d0602093836147ce565b810103126117ad5751943861303c565b3d91506135c3565b634e487b7160e01b83526041600452602483fd5b50346106aa57806003193601126106aa57602061015f54604051908152f35b50346106aa57806003193601126106aa57600490613637614b77565b6001623f026d60e01b03198152fd5b50346106aa5760203660031901126106aa57600435815261016960205260408120604051908160208254918281520190819285526020852090855b8181106136e157505050826136979103836147ce565b604051928392602084019060208552518091526040840192915b8181106136bf575050500390f35b82516001600160a01b03168452859450602093840193909201916001016136b1565b82546001600160a01b0316845260209093019260019283019201613681565b50346106aa5760403660031901126106aa576004357f76f9caaa6131a8d908643a44d03636e5e381cce4c4217a6cd72f107c1fa977e16020613740614875565b613748614b77565b613750614bcd565b838552610179825261377181604087209060ff801983541691151516179055565b6040519015158152a2600160fb5580f35b50346106aa57806003193601126106aa57602060ff60c954166040519015158152f35b50346106aa57806003193601126106aa576137be614b77565b6101855460ff81166138bc5760ff8160081c1615611b2d5760018060a01b036101635416602061018654602460405180948193630a78a7c960e01b835260048301525afa908115612e30578391613882575b506001600160a01b03169081156138735761018a80546001600160a01b0319168317905560ff1916600117610185556040519081527f61b3b3859569cecb601513cda243516790683fdd32e445a73da99153c0741b4190602090a1600160fb5580f35b6307ed98ed60e31b8352600483fd5b90506020813d6020116138b4575b8161389d602093836147ce565b81010312612a84576138ae906149d3565b38613810565b3d9150613890565b63a741a04560e01b8252600482fd5b50346106aa57610ddf6138dd366148a0565b926138e9929192614b77565b6138f1614bcd565b614c96565b50346106aa57806003193601126106aa577f00000000000000000000000000000000000000000000000000000000000000006001600160a01b031630036139615760206040517f360894a13ba1a3210667c828492db98dca3e2076cc3735a920a3ca505d382bbc8152f35b60405162461bcd60e51b815260206004820152603860248201527f555550535570677261646561626c653a206d757374206e6f742062652063616c60448201527f6c6564207468726f7567682064656c656761746563616c6c00000000000000006064820152608490fd5b5060403660031901126106aa576139e1614746565b506024356001600160401b0381116108965790613a0360049236908401614857565b50613a0c614b77565b630c5e6cd360e21b8152fd5b50346106aa57806003193601126106aa57610160546001600160a01b03168015612e3b573303612ebe5760c95460ff811615613a825760ff191660c9557f5db9ee0a495bf2e6ff9c91a7834c1ba4fdd244a5e8aa4e537bd38aeae4b073aa6020604051338152a180f35b60405162461bcd60e51b815260206004820152601460248201527314185d5cd8589b194e881b9bdd081c185d5cd95960621b6044820152606490fd5b50346106aa5760203660031901126106aa57613ad8614746565b613ae0614b77565b610160546001600160a01b03168015613bd4573303613bc557803b15613b6a577f360894a13ba1a3210667c828492db98dca3e2076cc3735a920a3ca505d382bbc80546001600160a01b0319166001600160a01b039290921691821790557fbc7cd75a20ee27fd9adebab32041f755214dbc6bffa90cc0225b39da2e5c2d3b8280a2600160fb5580f35b60405162461bcd60e51b815260206004820152602d60248201527f455243313936373a206e657720696d706c656d656e746174696f6e206973206e60448201526c1bdd08184818dbdb9d1c9858dd609a1b6064820152608490fd5b635c427cd960e01b8252600482fd5b6336939d7d60e21b8352600483fd5b50346106aa5760203660031901126106aa5760043581526101656020526040812090815415613c995760018201546003830154600484015460058501546006860154600880880154604051966001600160a01b0390811696959190921c82169390911690613c5f87613c588160028d01614950565b03886147ce565b613c7b604051978897885260e0602089015260e08801906147a9565b9460408701526060860152608085015260a084015260c08301520390f35b631dc0650160e31b8152600490fd5b50346106aa5760603660031901126106aa57613cc2614746565b613cca61475c565b9060443590613cd7614b77565b613cdf614bcd565b6001600160a01b03811660009081526101786020526040902082905410613e5c576001600160a01b038116600090815261017860205260409020613d24838254614c7c565b905560405163a9059cbb60e01b81526001600160a01b0384811660048301526024820184905282169360208260448189895af1918215610672578592613ddf575b5060405193845260008051602061527b83398151915293602093613dcf9390926001600160a01b0316917f8d22e8a474149708578a5e2ab9222684c62978d383c74329ed94b2d6ce9b152e908690a36001600160a01b031660009081526101786020526040902090565b54604051908152a2600160fb5580f35b929091506020833d602011613e54575b81613dfc602093836147ce565b810103126104545760008051602061527b83398151915293857f8d22e8a474149708578a5e2ab9222684c62978d383c74329ed94b2d6ce9b152e6020613dcf95613e468298614a29565b509496505050925093613d65565b3d9150613def565b63bc6072f160e01b8452600484fd5b50346106aa577f45f9f22eae8e79bb3c738b28a41aa1f0d75f918dd5e4ce73470989cc76a0279d6040613e9d36614730565b613ea5614b77565b613ead614bcd565b8161017c558061017d5582519182526020820152a1600160fb5580f35b50346106aa5760203660031901126106aa57613ee4614746565b613eec614b77565b6101855460ff8160081c16613f84576001600160a01b038216918215613f75573b15613f665761016380546001600160a01b0319168317905561ff00191661010017610185556040519081527f221a5c2d5ec78d3b16cbdd3a9d8522649f55363435bdbd40e3ba26ce9dde938390602090a1600160fb5580f35b63a710429d60e01b8352600483fd5b63d92e233d60e01b8452600484fd5b63a741a04560e01b8352600483fd5b50346106aa57806003193601126106aa57610160546040516001600160a01b039091168152602090f35b50346106aa5760603660031901126106aa576004356024356006811015612a84577f12505dcacf5bd9b0d127ebd6947f3f9bdd49017d289c86e67a397a9b2511a6c29160609161404260443591614012614b77565b61401a614bcd565b838752610172602052826140318260408a20614c41565b556040519384526020840190614c89565b6040820152a1600160fb5580f35b50346106aa5761405f36614730565b614067614b77565b61406f614bcd565b8183526101656020526040832080541561069b57336000908152610173602052604090205460ff16610d755760066040516140b1816109158160028701614950565b60208151910120066006811015610d61573360009081526101746020526040902060ff906140e0908390614c41565b5416614616578385526101666020908152604080872033885290915285205460ff1661460757600782015442116145f857610189546040516370a0823160e01b8152336004820152929190602090849060249082906001600160a01b03165afa9283156106725786936145c4575b5082156145b55760ff6101855416614489575b50600581019060018060a01b03825416936040516370a0823160e01b8152336004820152602081602481895afa8015610bff5782918991614454575b5010614445576040516323b872dd60e01b8152336004820152306024820152604481018290526020816064818b8a5af18015610bff5761440e575b5082546001600160a01b03166000908152610178602052604090206141ff90918254614c59565b905581546001600160a01b031660008181526101786020908152604090912060008051602061527b833981519152919054604051908152a2848652610166602090815260408088203389529091528620805460ff1916600117905560048101805461426b908590614c59565b905581546001600160a01b0316600081815261017860205260409020546006830154929190831115806143ff575b6142c9575b60408051338152602081018790528991899160008051602061525b83398151915291819081016132b8565b9160086020926142ef61433b9560018060a01b0316600052610178602052604060002090565b6142fa848254614c7c565b905501805460405163a9059cbb60e01b815260089190911c6001600160a01b03166004820152602481019290925295909283919082908a9082906044820190565b03925af18015610672576143ae575b50825460ff191660011790925590546001600160a01b031660008181526101786020908152604090912060008051602061525b833981519152936132b8939092909160008051602061527b833981519152919054604051908152a29038808061429e565b91906020833d6020116143f7575b816143c9602093836147ce565b810103126104545760008051602061525b833981519152936143ed6132b894614a29565b509350909161434a565b3d91506143bc565b5060ff60088301541615614299565b6020813d60201161443d575b81614427602093836147ce565b810103126117ad5761443890614a29565b6141d8565b3d915061441a565b6378dbf0af60e11b8752600487fd5b9150506020813d602011614481575b81614470602093836147ce565b810103126117ad578190513861419d565b3d9150614463565b600386526101726020526144a08160408820614c41565b54156145ab576144bd906003875261017260205260408720614c41565b545b61018a546040516370a0823160e01b81523360048201526001600160a01b039091169190602081602481865afa8015610bff5782918991614576575b5010610bbb576040516323b872dd60e01b815233600482015260006024820152604481019190915290602090829060649082908a905af180156106725715614161576020813d60201161456e575b81614556602093836147ce565b810103126104545761456790614a29565b5038614161565b3d9150614549565b9150506020813d6020116145a3575b81614592602093836147ce565b810103126117ad57819051386144fb565b3d9150614585565b50610182546144bf565b630deda90360e41b8652600486fd5b9092506020813d6020116145f0575b816145e0602093836147ce565b810103126104545751913861414e565b3d91506145d3565b63370ec37160e21b8552600485fd5b637c9a1cf960e01b8552600485fd5b63c602500f60e01b8552600485fd5b50346106aa5760203660031901126106aa57600435614642614b77565b61464a614bcd565b8082526101676020526040822080541580156146bf575b6127755760018101546001600160a01b031633036146b057600701805460ff191690557ff0596ab0146da410ea951b1a215398db865d9918115bc133a116d9a509d7e6628280a2600160fb5580f35b63ea8e4eb560e01b8352600483fd5b5060ff60078201541615614661565b50346106aa57806003193601126106aa57610162546040516001600160a01b039091168152602090f35b9050346108965760203660031901126108965760043563ffffffff60e01b8116809103612a84576301ffc9a760e01b14815260209150f35b6040906003190112610609576004359060243590565b600435906001600160a01b038216820361060957565b602435906001600160a01b038216820361060957565b35906001600160a01b038216820361060957565b60005b8381106147995750506000910152565b8181015183820152602001614789565b906020916147c281518092818552858086019101614786565b601f01601f1916010190565b90601f801991011681019081106001600160401b038211176147ef57604052565b634e487b7160e01b600052604160045260246000fd5b6001600160401b0381116147ef57601f01601f191660200190565b92919261482c82614805565b9161483a60405193846147ce565b829481845281830111610609578281602093846000960137010152565b9080601f830112156106095781602061487293359101614820565b90565b60243590811515820361060957565b60443590811515820361060957565b3590811515820361060957565b6080906003190112610609576004356001600160a01b03811681036106095790602435801515810361060957906044356006811015610609579060643580151581036106095790565b9181601f84011215610609578235916001600160401b038311610609576020838186019501011161060957565b90600182811c92168015614946575b602083101461493057565b634e487b7160e01b600052602260045260246000fd5b91607f1691614925565b6000929181549161496083614916565b80835292600181169081156149b6575060011461497c57505050565b60009081526020812093945091925b83831061499c575060209250010190565b60018160209294939454838587010152019101919061498b565b915050602093945060ff929192191683830152151560051b010190565b51906001600160a01b038216820361060957565b81601f820112156106095780516149fd81614805565b92614a0b60405194856147ce565b81845260208284010111610609576148729160208085019101614786565b5190811515820361060957565b602081830312610609578051906001600160401b038211610609570161016081830312610609576040519161016083018381106001600160401b038211176147ef5760405281518352614a8b602083016149d3565b602084015260408201516001600160401b0381116106095781614aaf9184016149e7565b604084015260608201516001600160401b0381116106095781614ad39184016149e7565b606084015260808201516001600160401b0381116106095781614af79184016149e7565b608084015260a0820151916001600160401b03831161060957614b2261014092614b6e9483016149e7565b60a0850152614b3360c08201614a29565b60c0850152614b4460e082016149d3565b60e0850152610100810151610100850152614b6261012082016149d3565b610120850152016149d3565b61014082015290565b600260fb5414614b8857600260fb55565b60405162461bcd60e51b815260206004820152601f60248201527f5265656e7472616e637947756172643a207265656e7472616e742063616c6c006044820152606490fd5b60ff60c95416614bd957565b60405162461bcd60e51b815260206004820152601060248201526f14185d5cd8589b194e881c185d5cd95960821b6044820152606490fd5b6006811015614c2b57600052610176602052604060002090565b634e487b7160e01b600052602160045260246000fd5b906006811015614c2b57600052602052604060002090565b91908201809211614c6657565b634e487b7160e01b600052601160045260246000fd5b91908203918211614c6657565b906006821015614c2b5752565b60609193614d027f26f2fc16625fcebc085f77f3d6b604a0379bfa69c30e2887877d969cb5fe572f9486600014614d16576001600160a01b038416600090815261017360205260409020805460ff191660ff851515161790555b60405196151587526020870190614c89565b151560408501526001600160a01b031692a2565b60018060a01b038416600052610174602052614d3a83611990836040600020614c41565b614cf0565b6000198114614c665760010190565b601f8211614d5b57505050565b6000526020600020906020601f840160051c83019310614d96575b601f0160051c01905b818110614d8a575050565b60008155600101614d7f565b9091508190614d76565b603380546001600160a01b039283166001600160a01b0319821681179092559091167f8be0079c531659141344cd1fd0a4f28419497f9722a3daafe3b4186f6b6457e0600080a3565b908060209392818452848401376000828201840152601f01601f1916010190565b356001600160a01b03811681036106095790565b903590601e198136030182121561060957018035906001600160401b0382116106095760200191813603831361060957565b3580151581036106095790565b614e8d614eac60009392849360405193849263319af33360e01b60208501526040602485015260648401906147a9565b6001600160a01b0391909116604483015203601f1981018352826147ce565b6020815191016a636f6e736f6c652e6c6f675afa50565b611349614eac600093928493604051938492632d839cb360e21b60208501526040602485015260648401906147a9565b15614efa57565b60405162461bcd60e51b815260206004820152602b60248201527f496e697469616c697a61626c653a20636f6e7472616374206973206e6f74206960448201526a6e697469616c697a696e6760a81b6064820152608490fd5b61018654806150935750610189546040516370a0823160e01b81526001600160a01b03928316600482018190529092909160209184916024918391165afa9182156150485760009261505f575b506101855460101c60ff16156150545761018b54604051627eeac760e11b8152600481019290925260006024830152602090829060449082906001600160a01b03165afa801561504857600090615015575b60019150915b1090811591615005575090565b678ac7230489e800009150101590565b506020813d602011615040575b8161502f602093836147ce565b810103126106095760019051614ff2565b3d9150615022565b6040513d6000823e3d90fd5b506001600091614ff8565b9091506020813d60201161508b575b8161507b602093836147ce565b8101031261060957519038614fa0565b3d915061506e565b61018854604051632ee325db60e21b8152602060048201819052600a60248301526926bab63a34aa37b5b2b760b11b6044830152909391849060649082906001600160a01b03165afa9283156150485760009361521e575b506101855460101c60ff16156152115761018b54604051627eeac760e11b81526001600160a01b0380841660048301526000602483015290929160209184916044918391165afa918215615048576000926151dc575b506044602092935b604051638f2071c560e01b815260048101919091526001600160a01b0392831660248201529485928391165afa918215615048576000926151a0575b508161518f575090565b6802b5e3af16b18800009150101590565b9091506020813d6020116151d4575b816151bc602093836147ce565b81010312610609576151cd90614a29565b9038615185565b3d91506151af565b91506020823d602011615209575b816151f7602093836147ce565b81010312610609579051906044615141565b3d91506151ea565b6020906044600093615149565b9092506020813d602011615252575b8161523a602093836147ce565b810103126106095761524b906149d3565b91386150eb565b3d915061522d56fe5f741d08188ce1b820c0a0539f84488705d838c57c8f6064cce21c8c73a1cc630f91e6929112514fe1b38c4a62bb0f5bc717e61574ee854d3b5ea5b44cbfa1f9a26469706673582212200f8bcf2b5de9686e8ca99d16907ad56150d3a89c15f4eb432b37e2b15671cfd864736f6c634300081c0033",
  "linkReferences": {},
  "deployedLinkReferences": {}
}