{
  "_format": "hh-sol-artifact-1",
  "contractName": "VanellixTokenSale",
  "sourceName": "contracts/modules/VanellixTokenSale.sol",
  "abi": [
    {
      "inputs": [],
      "name": "CallerNotLaunchpadOwner",
      "type": "error"
    },
    {
      "inputs": [],
      "name": "CallerNotLaunchpadOwner",
      "type": "error"
    },
    {
      "inputs": [],
      "name": "CompanyNotActive",
      "type": "error"
    },
    {
      "inputs": [],
      "name": "EmptyPeriodArray",
      "type": "error"
    },
    {
      "inputs": [],
      "name": "InsufficientAllowance",
      "type": "error"
    },
    {
      "inputs": [],
      "name": "InsufficientBalance",
      "type": "error"
    },
    {
      "inputs": [],
      "name": "InvalidAmount",
      "type": "error"
    },
    {
      "inputs": [],
      "name": "InvalidBeneficiary",
      "type": "error"
    },
    {
      "inputs": [],
      "name": "InvalidDuration",
      "type": "error"
    },
    {
      "inputs": [],
      "name": "InvalidPaymentToken",
      "type": "error"
    },
    {
      "inputs": [],
      "name": "InvalidPrice",
      "type": "error"
    },
    {
      "inputs": [],
      "name": "InvalidProposal",
      "type": "error"
    },
    {
      "inputs": [],
      "name": "InvalidToken",
      "type": "error"
    },
    {
      "inputs": [
        {
          "internalType": "uint8",
          "name": "decimals",
          "type": "uint8"
        }
      ],
      "name": "InvalidTokenDecimals",
      "type": "error"
    },
    {
      "inputs": [],
      "name": "LPTransferFailed",
      "type": "error"
    },
    {
      "inputs": [],
      "name": "LaunchpadNotConfigured",
      "type": "error"
    },
    {
      "inputs": [],
      "name": "LaunchpadNotConfigured",
      "type": "error"
    },
    {
      "inputs": [],
      "name": "NotAuthorized",
      "type": "error"
    },
    {
      "inputs": [],
      "name": "PaymentTransferFailed",
      "type": "error"
    },
    {
      "inputs": [],
      "name": "PriceTooLow",
      "type": "error"
    },
    {
      "inputs": [],
      "name": "RenounceOwnershipDisabled",
      "type": "error"
    },
    {
      "inputs": [],
      "name": "SaleAlreadyStarted",
      "type": "error"
    },
    {
      "inputs": [],
      "name": "SaleEnded",
      "type": "error"
    },
    {
      "inputs": [],
      "name": "SaleNotActive",
      "type": "error"
    },
    {
      "inputs": [],
      "name": "SellerPaymentsFailed",
      "type": "error"
    },
    {
      "inputs": [],
      "name": "SellerTransferFailed",
      "type": "error"
    },
    {
      "inputs": [],
      "name": "SwapFailed",
      "type": "error"
    },
    {
      "inputs": [],
      "name": "TokenNotConfigured",
      "type": "error"
    },
    {
      "inputs": [],
      "name": "TransferOwnershipDirectDisabled",
      "type": "error"
    },
    {
      "inputs": [],
      "name": "UnauthorizedCaller",
      "type": "error"
    },
    {
      "inputs": [],
      "name": "UnauthorizedCaller",
      "type": "error"
    },
    {
      "inputs": [],
      "name": "UpgradeToAndCallDisabled",
      "type": "error"
    },
    {
      "inputs": [],
      "name": "UtilityTokenNotSet",
      "type": "error"
    },
    {
      "inputs": [],
      "name": "ZeroAddress",
      "type": "error"
    },
    {
      "inputs": [],
      "name": "ZeroInPeriodArray",
      "type": "error"
    },
    {
      "anonymous": false,
      "inputs": [
        {
          "indexed": false,
          "internalType": "address",
          "name": "previousAdmin",
          "type": "address"
        },
        {
          "indexed": false,
          "internalType": "address",
          "name": "newAdmin",
          "type": "address"
        }
      ],
      "name": "AdminChanged",
      "type": "event"
    },
    {
      "anonymous": false,
      "inputs": [
        {
          "indexed": true,
          "internalType": "address",
          "name": "contractAddress",
          "type": "address"
        },
        {
          "indexed": true,
          "internalType": "address",
          "name": "router",
          "type": "address"
        },
        {
          "indexed": false,
          "internalType": "uint256",
          "name": "amount",
          "type": "uint256"
        }
      ],
      "name": "ApprovalToRouter",
      "type": "event"
    },
    {
      "anonymous": false,
      "inputs": [
        {
          "indexed": true,
          "internalType": "address",
          "name": "beacon",
          "type": "address"
        }
      ],
      "name": "BeaconUpgraded",
      "type": "event"
    },
    {
      "anonymous": false,
      "inputs": [
        {
          "indexed": false,
          "internalType": "uint8",
          "name": "version",
          "type": "uint8"
        }
      ],
      "name": "Initialized",
      "type": "event"
    },
    {
      "anonymous": false,
      "inputs": [
        {
          "indexed": true,
          "internalType": "uint256",
          "name": "preSaleId",
          "type": "uint256"
        },
        {
          "indexed": true,
          "internalType": "address",
          "name": "lpToken",
          "type": "address"
        },
        {
          "indexed": true,
          "internalType": "address",
          "name": "beneficiary",
          "type": "address"
        },
        {
          "indexed": false,
          "internalType": "uint256",
          "name": "totalAmount",
          "type": "uint256"
        },
        {
          "indexed": false,
          "internalType": "uint256",
          "name": "yearsCount",
          "type": "uint256"
        },
        {
          "indexed": false,
          "internalType": "address[]",
          "name": "timelocks",
          "type": "address[]"
        }
      ],
      "name": "LPTimelocksCreated",
      "type": "event"
    },
    {
      "anonymous": false,
      "inputs": [
        {
          "indexed": true,
          "internalType": "uint256",
          "name": "preSaleId",
          "type": "uint256"
        },
        {
          "indexed": true,
          "internalType": "uint256",
          "name": "companyId",
          "type": "uint256"
        },
        {
          "indexed": true,
          "internalType": "address",
          "name": "burnAddress",
          "type": "address"
        },
        {
          "indexed": false,
          "internalType": "uint256",
          "name": "amount",
          "type": "uint256"
        }
      ],
      "name": "LPTransferFailed",
      "type": "event"
    },
    {
      "anonymous": false,
      "inputs": [
        {
          "indexed": true,
          "internalType": "uint256",
          "name": "preSaleId",
          "type": "uint256"
        },
        {
          "indexed": true,
          "internalType": "uint256",
          "name": "companyId",
          "type": "uint256"
        },
        {
          "indexed": false,
          "internalType": "address",
          "name": "tokenA",
          "type": "address"
        },
        {
          "indexed": false,
          "internalType": "address",
          "name": "tokenB",
          "type": "address"
        },
        {
          "indexed": false,
          "internalType": "uint256",
          "name": "amountA",
          "type": "uint256"
        },
        {
          "indexed": false,
          "internalType": "uint256",
          "name": "amountB",
          "type": "uint256"
        },
        {
          "indexed": false,
          "internalType": "uint256",
          "name": "lpTokens",
          "type": "uint256"
        }
      ],
      "name": "LiquidityAdded",
      "type": "event"
    },
    {
      "anonymous": false,
      "inputs": [
        {
          "indexed": true,
          "internalType": "uint256",
          "name": "preSaleId",
          "type": "uint256"
        },
        {
          "indexed": true,
          "internalType": "uint256",
          "name": "companyId",
          "type": "uint256"
        },
        {
          "indexed": true,
          "internalType": "address",
          "name": "burnAddress",
          "type": "address"
        },
        {
          "indexed": false,
          "internalType": "uint256",
          "name": "amount",
          "type": "uint256"
        }
      ],
      "name": "LiquidityBurned",
      "type": "event"
    },
    {
      "anonymous": false,
      "inputs": [
        {
          "indexed": true,
          "internalType": "uint256",
          "name": "preSaleId",
          "type": "uint256"
        },
        {
          "indexed": true,
          "internalType": "uint256",
          "name": "companyId",
          "type": "uint256"
        },
        {
          "indexed": true,
          "internalType": "address",
          "name": "liquidityPool",
          "type": "address"
        }
      ],
      "name": "LiquidityPoolSet",
      "type": "event"
    },
    {
      "anonymous": false,
      "inputs": [
        {
          "indexed": true,
          "internalType": "uint256",
          "name": "preSaleId",
          "type": "uint256"
        },
        {
          "indexed": true,
          "internalType": "uint256",
          "name": "companyId",
          "type": "uint256"
        },
        {
          "indexed": true,
          "internalType": "address",
          "name": "buyer",
          "type": "address"
        },
        {
          "indexed": false,
          "internalType": "uint256",
          "name": "amount",
          "type": "uint256"
        },
        {
          "indexed": false,
          "internalType": "address",
          "name": "swapRouter",
          "type": "address"
        }
      ],
      "name": "LiquiditySent",
      "type": "event"
    },
    {
      "anonymous": false,
      "inputs": [
        {
          "indexed": true,
          "internalType": "uint256",
          "name": "preSaleId",
          "type": "uint256"
        },
        {
          "indexed": false,
          "internalType": "uint256",
          "name": "amount",
          "type": "uint256"
        }
      ],
      "name": "LiquidityTokenAmountCalculated",
      "type": "event"
    },
    {
      "anonymous": false,
      "inputs": [
        {
          "indexed": true,
          "internalType": "address",
          "name": "previousOwner",
          "type": "address"
        },
        {
          "indexed": true,
          "internalType": "address",
          "name": "newOwner",
          "type": "address"
        }
      ],
      "name": "OwnershipTransferred",
      "type": "event"
    },
    {
      "anonymous": false,
      "inputs": [
        {
          "indexed": false,
          "internalType": "address",
          "name": "account",
          "type": "address"
        }
      ],
      "name": "Paused",
      "type": "event"
    },
    {
      "anonymous": false,
      "inputs": [
        {
          "indexed": true,
          "internalType": "address",
          "name": "token",
          "type": "address"
        }
      ],
      "name": "PaymentTokenAdded",
      "type": "event"
    },
    {
      "anonymous": false,
      "inputs": [
        {
          "indexed": true,
          "internalType": "address",
          "name": "token",
          "type": "address"
        }
      ],
      "name": "PaymentTokenRemoved",
      "type": "event"
    },
    {
      "anonymous": false,
      "inputs": [
        {
          "indexed": true,
          "internalType": "address",
          "name": "sender",
          "type": "address"
        },
        {
          "indexed": false,
          "internalType": "uint256",
          "name": "amount",
          "type": "uint256"
        }
      ],
      "name": "PaymentTransferFailed",
      "type": "event"
    },
    {
      "anonymous": false,
      "inputs": [
        {
          "indexed": true,
          "internalType": "uint256",
          "name": "preSaleId",
          "type": "uint256"
        },
        {
          "indexed": true,
          "internalType": "uint256",
          "name": "companyId",
          "type": "uint256"
        }
      ],
      "name": "PreSaleActivated",
      "type": "event"
    },
    {
      "anonymous": false,
      "inputs": [
        {
          "indexed": true,
          "internalType": "uint256",
          "name": "preSaleId",
          "type": "uint256"
        },
        {
          "indexed": true,
          "internalType": "uint256",
          "name": "companyId",
          "type": "uint256"
        },
        {
          "indexed": true,
          "internalType": "address",
          "name": "token",
          "type": "address"
        },
        {
          "indexed": false,
          "internalType": "string",
          "name": "name",
          "type": "string"
        },
        {
          "indexed": false,
          "internalType": "uint256",
          "name": "startTime",
          "type": "uint256"
        },
        {
          "indexed": false,
          "internalType": "uint256",
          "name": "endTime",
          "type": "uint256"
        },
        {
          "indexed": false,
          "internalType": "uint256",
          "name": "availableTokens",
          "type": "uint256"
        },
        {
          "indexed": false,
          "internalType": "uint256",
          "name": "pricePerToken",
          "type": "uint256"
        },
        {
          "indexed": false,
          "internalType": "address",
          "name": "paymentToken",
          "type": "address"
        }
      ],
      "name": "PreSaleCreated",
      "type": "event"
    },
    {
      "anonymous": false,
      "inputs": [
        {
          "indexed": true,
          "internalType": "uint256",
          "name": "preSaleId",
          "type": "uint256"
        },
        {
          "indexed": true,
          "internalType": "uint256",
          "name": "companyId",
          "type": "uint256"
        }
      ],
      "name": "PreSaleDeleted",
      "type": "event"
    },
    {
      "anonymous": false,
      "inputs": [
        {
          "indexed": true,
          "internalType": "uint256",
          "name": "preSaleId",
          "type": "uint256"
        },
        {
          "indexed": true,
          "internalType": "uint256",
          "name": "companyId",
          "type": "uint256"
        }
      ],
      "name": "PreSalePaused",
      "type": "event"
    },
    {
      "anonymous": false,
      "inputs": [
        {
          "indexed": true,
          "internalType": "uint256",
          "name": "preSaleId",
          "type": "uint256"
        },
        {
          "indexed": true,
          "internalType": "uint256",
          "name": "companyId",
          "type": "uint256"
        },
        {
          "indexed": true,
          "internalType": "address",
          "name": "buyer",
          "type": "address"
        },
        {
          "indexed": false,
          "internalType": "uint256",
          "name": "tokenAmount",
          "type": "uint256"
        },
        {
          "indexed": false,
          "internalType": "uint256",
          "name": "cost",
          "type": "uint256"
        },
        {
          "indexed": false,
          "internalType": "uint256",
          "name": "commission",
          "type": "uint256"
        },
        {
          "indexed": false,
          "internalType": "address",
          "name": "feeToken",
          "type": "address"
        },
        {
          "indexed": false,
          "internalType": "uint256",
          "name": "availableTokens",
          "type": "uint256"
        },
        {
          "indexed": false,
          "internalType": "uint256",
          "name": "tokensSold",
          "type": "uint256"
        },
        {
          "indexed": false,
          "internalType": "uint256",
          "name": "remainingGOV",
          "type": "uint256"
        },
        {
          "indexed": false,
          "internalType": "uint256",
          "name": "remainingPaymentToken",
          "type": "uint256"
        }
      ],
      "name": "PreSaleTokensPurchased",
      "type": "event"
    },
    {
      "anonymous": false,
      "inputs": [
        {
          "indexed": true,
          "internalType": "uint256",
          "name": "preSaleId",
          "type": "uint256"
        },
        {
          "indexed": true,
          "internalType": "address",
          "name": "seller",
          "type": "address"
        },
        {
          "indexed": false,
          "internalType": "uint256",
          "name": "amount",
          "type": "uint256"
        }
      ],
      "name": "RemainingGOVTransferred",
      "type": "event"
    },
    {
      "anonymous": false,
      "inputs": [
        {
          "indexed": true,
          "internalType": "uint256",
          "name": "preSaleId",
          "type": "uint256"
        },
        {
          "indexed": true,
          "internalType": "address",
          "name": "seller",
          "type": "address"
        },
        {
          "indexed": false,
          "internalType": "uint256",
          "name": "amount",
          "type": "uint256"
        }
      ],
      "name": "RemainingPaymentTokenTransferred",
      "type": "event"
    },
    {
      "anonymous": false,
      "inputs": [
        {
          "indexed": true,
          "internalType": "address",
          "name": "seller",
          "type": "address"
        },
        {
          "indexed": false,
          "internalType": "uint256",
          "name": "amount",
          "type": "uint256"
        }
      ],
      "name": "SellerPaymentsFailed",
      "type": "event"
    },
    {
      "anonymous": false,
      "inputs": [
        {
          "indexed": true,
          "internalType": "uint256",
          "name": "preSaleId",
          "type": "uint256"
        },
        {
          "indexed": true,
          "internalType": "address",
          "name": "seller",
          "type": "address"
        },
        {
          "indexed": false,
          "internalType": "uint256",
          "name": "amount",
          "type": "uint256"
        }
      ],
      "name": "SellerTransferFailed",
      "type": "event"
    },
    {
      "anonymous": false,
      "inputs": [
        {
          "indexed": false,
          "internalType": "uint256",
          "name": "amount",
          "type": "uint256"
        },
        {
          "indexed": true,
          "internalType": "address",
          "name": "token",
          "type": "address"
        }
      ],
      "name": "TokensBurned",
      "type": "event"
    },
    {
      "anonymous": false,
      "inputs": [
        {
          "indexed": false,
          "internalType": "address",
          "name": "account",
          "type": "address"
        }
      ],
      "name": "Unpaused",
      "type": "event"
    },
    {
      "anonymous": false,
      "inputs": [
        {
          "indexed": true,
          "internalType": "address",
          "name": "implementation",
          "type": "address"
        }
      ],
      "name": "Upgraded",
      "type": "event"
    },
    {
      "anonymous": false,
      "inputs": [
        {
          "indexed": true,
          "internalType": "uint256",
          "name": "preSaleId",
          "type": "uint256"
        },
        {
          "indexed": true,
          "internalType": "uint256",
          "name": "companyId",
          "type": "uint256"
        },
        {
          "indexed": false,
          "internalType": "uint256",
          "name": "tokenAmount",
          "type": "uint256"
        },
        {
          "indexed": false,
          "internalType": "uint256",
          "name": "baseCost",
          "type": "uint256"
        },
        {
          "indexed": false,
          "internalType": "uint256",
          "name": "liquidityAmount",
          "type": "uint256"
        }
      ],
      "name": "ValidatePreSale",
      "type": "event"
    },
    {
      "inputs": [
        {
          "internalType": "address",
          "name": "token",
          "type": "address"
        }
      ],
      "name": "addPaymentToken",
      "outputs": [],
      "stateMutability": "nonpayable",
      "type": "function"
    },
    {
      "inputs": [
        {
          "internalType": "address",
          "name": "token",
          "type": "address"
        }
      ],
      "name": "allowedPaymentTokens",
      "outputs": [
        {
          "internalType": "bool",
          "name": "",
          "type": "bool"
        }
      ],
      "stateMutability": "view",
      "type": "function"
    },
    {
      "inputs": [
        {
          "internalType": "uint256",
          "name": "preSaleId",
          "type": "uint256"
        },
        {
          "internalType": "uint256",
          "name": "tokenAmount",
          "type": "uint256"
        }
      ],
      "name": "buyPreSaleTokens",
      "outputs": [],
      "stateMutability": "nonpayable",
      "type": "function"
    },
    {
      "inputs": [
        {
          "internalType": "uint256",
          "name": "companyId",
          "type": "uint256"
        },
        {
          "internalType": "string",
          "name": "name",
          "type": "string"
        },
        {
          "internalType": "uint256[]",
          "name": "startTimes",
          "type": "uint256[]"
        },
        {
          "internalType": "uint256[]",
          "name": "endTimes",
          "type": "uint256[]"
        },
        {
          "internalType": "uint256[]",
          "name": "pricesPerToken",
          "type": "uint256[]"
        },
        {
          "internalType": "address",
          "name": "paymentToken",
          "type": "address"
        },
        {
          "internalType": "uint256",
          "name": "liquidityLockDuration",
          "type": "uint256"
        },
        {
          "internalType": "bool",
          "name": "isImmutable",
          "type": "bool"
        },
        {
          "internalType": "uint256",
          "name": "presalePercent",
          "type": "uint256"
        },
        {
          "internalType": "address",
          "name": "beneficiaryWallet",
          "type": "address"
        }
      ],
      "name": "createPreSale",
      "outputs": [],
      "stateMutability": "nonpayable",
      "type": "function"
    },
    {
      "inputs": [],
      "name": "daoTransitionTimestamp",
      "outputs": [
        {
          "internalType": "uint256",
          "name": "",
          "type": "uint256"
        }
      ],
      "stateMutability": "view",
      "type": "function"
    },
    {
      "inputs": [
        {
          "internalType": "uint256",
          "name": "preSaleId",
          "type": "uint256"
        }
      ],
      "name": "deletePreSale",
      "outputs": [],
      "stateMutability": "nonpayable",
      "type": "function"
    },
    {
      "inputs": [],
      "name": "getAdminRole",
      "outputs": [
        {
          "internalType": "bytes32",
          "name": "",
          "type": "bytes32"
        }
      ],
      "stateMutability": "view",
      "type": "function"
    },
    {
      "inputs": [],
      "name": "getImplementationType",
      "outputs": [
        {
          "internalType": "bytes32",
          "name": "",
          "type": "bytes32"
        }
      ],
      "stateMutability": "pure",
      "type": "function"
    },
    {
      "inputs": [],
      "name": "getLaunchpadAddress",
      "outputs": [
        {
          "internalType": "address",
          "name": "",
          "type": "address"
        }
      ],
      "stateMutability": "view",
      "type": "function"
    },
    {
      "inputs": [],
      "name": "getMyAddress",
      "outputs": [
        {
          "internalType": "address",
          "name": "",
          "type": "address"
        }
      ],
      "stateMutability": "view",
      "type": "function"
    },
    {
      "inputs": [],
      "name": "getOwner",
      "outputs": [
        {
          "internalType": "address",
          "name": "",
          "type": "address"
        }
      ],
      "stateMutability": "view",
      "type": "function"
    },
    {
      "inputs": [
        {
          "internalType": "uint256",
          "name": "preSaleId",
          "type": "uint256"
        },
        {
          "internalType": "address",
          "name": "buyer",
          "type": "address"
        }
      ],
      "name": "getPreSaleContribution",
      "outputs": [
        {
          "internalType": "uint256",
          "name": "",
          "type": "uint256"
        }
      ],
      "stateMutability": "view",
      "type": "function"
    },
    {
      "inputs": [
        {
          "internalType": "uint256",
          "name": "preSaleId",
          "type": "uint256"
        }
      ],
      "name": "getPreSaleDetails",
      "outputs": [
        {
          "components": [
            {
              "internalType": "uint256",
              "name": "preSaleId",
              "type": "uint256"
            },
            {
              "internalType": "uint256",
              "name": "companyId",
              "type": "uint256"
            },
            {
              "internalType": "address",
              "name": "token",
              "type": "address"
            },
            {
              "internalType": "string",
              "name": "name",
              "type": "string"
            },
            {
              "internalType": "uint256[]",
              "name": "startTimes",
              "type": "uint256[]"
            },
            {
              "internalType": "uint256[]",
              "name": "endTimes",
              "type": "uint256[]"
            },
            {
              "internalType": "uint256[]",
              "name": "pricesPerToken",
              "type": "uint256[]"
            },
            {
              "internalType": "uint256",
              "name": "availableTokens",
              "type": "uint256"
            },
            {
              "internalType": "uint256",
              "name": "tokensSold",
              "type": "uint256"
            },
            {
              "internalType": "address",
              "name": "paymentToken",
              "type": "address"
            },
            {
              "internalType": "address",
              "name": "seller",
              "type": "address"
            },
            {
              "internalType": "address",
              "name": "liquidityPool",
              "type": "address"
            },
            {
              "internalType": "bool",
              "name": "active",
              "type": "bool"
            },
            {
              "internalType": "bool",
              "name": "paused",
              "type": "bool"
            },
            {
              "internalType": "uint256",
              "name": "liquidityLockDuration",
              "type": "uint256"
            },
            {
              "internalType": "bool",
              "name": "isImmutable",
              "type": "bool"
            },
            {
              "internalType": "address",
              "name": "beneficiaryWallet",
              "type": "address"
            },
            {
              "internalType": "uint256",
              "name": "liquidityPercent",
              "type": "uint256"
            },
            {
              "internalType": "uint8",
              "name": "paymentTokenDecimals",
              "type": "uint8"
            },
            {
              "internalType": "uint8",
              "name": "saleTokenDecimals",
              "type": "uint8"
            }
          ],
          "internalType": "struct PreSaleStructs.PreSale",
          "name": "",
          "type": "tuple"
        }
      ],
      "stateMutability": "view",
      "type": "function"
    },
    {
      "inputs": [
        {
          "internalType": "uint256",
          "name": "companyId",
          "type": "uint256"
        }
      ],
      "name": "getPreSaleIdByCompanyId",
      "outputs": [
        {
          "internalType": "uint256",
          "name": "",
          "type": "uint256"
        }
      ],
      "stateMutability": "view",
      "type": "function"
    },
    {
      "inputs": [
        {
          "internalType": "uint256",
          "name": "preSaleId",
          "type": "uint256"
        }
      ],
      "name": "getPresaleTimelockDetails",
      "outputs": [
        {
          "internalType": "address[]",
          "name": "addresses",
          "type": "address[]"
        },
        {
          "internalType": "uint256[]",
          "name": "releaseTimes",
          "type": "uint256[]"
        },
        {
          "internalType": "uint256[]",
          "name": "amounts",
          "type": "uint256[]"
        }
      ],
      "stateMutability": "view",
      "type": "function"
    },
    {
      "inputs": [
        {
          "internalType": "uint256",
          "name": "companyId",
          "type": "uint256"
        }
      ],
      "name": "hasCompanyConductedPresale",
      "outputs": [
        {
          "internalType": "bool",
          "name": "",
          "type": "bool"
        }
      ],
      "stateMutability": "view",
      "type": "function"
    },
    {
      "inputs": [
        {
          "internalType": "address",
          "name": "_launchpad",
          "type": "address"
        }
      ],
      "name": "initialize",
      "outputs": [],
      "stateMutability": "nonpayable",
      "type": "function"
    },
    {
      "inputs": [],
      "name": "launchpad",
      "outputs": [
        {
          "internalType": "contract IVanellixLaunchpadExtended",
          "name": "",
          "type": "address"
        }
      ],
      "stateMutability": "view",
      "type": "function"
    },
    {
      "inputs": [],
      "name": "multiToken",
      "outputs": [
        {
          "internalType": "contract IVanellixCompanyMultiToken",
          "name": "",
          "type": "address"
        }
      ],
      "stateMutability": "view",
      "type": "function"
    },
    {
      "inputs": [],
      "name": "owner",
      "outputs": [
        {
          "internalType": "address",
          "name": "",
          "type": "address"
        }
      ],
      "stateMutability": "view",
      "type": "function"
    },
    {
      "inputs": [],
      "name": "pause",
      "outputs": [],
      "stateMutability": "nonpayable",
      "type": "function"
    },
    {
      "inputs": [],
      "name": "paused",
      "outputs": [
        {
          "internalType": "bool",
          "name": "",
          "type": "bool"
        }
      ],
      "stateMutability": "view",
      "type": "function"
    },
    {
      "inputs": [],
      "name": "proxiableUUID",
      "outputs": [
        {
          "internalType": "bytes32",
          "name": "",
          "type": "bytes32"
        }
      ],
      "stateMutability": "view",
      "type": "function"
    },
    {
      "inputs": [
        {
          "internalType": "address",
          "name": "token",
          "type": "address"
        }
      ],
      "name": "removePaymentToken",
      "outputs": [],
      "stateMutability": "nonpayable",
      "type": "function"
    },
    {
      "inputs": [],
      "name": "renounceOwnership",
      "outputs": [],
      "stateMutability": "nonpayable",
      "type": "function"
    },
    {
      "inputs": [
        {
          "internalType": "uint256",
          "name": "percent",
          "type": "uint256"
        }
      ],
      "name": "setImmediateUnlockPercent",
      "outputs": [],
      "stateMutability": "nonpayable",
      "type": "function"
    },
    {
      "inputs": [],
      "name": "staking",
      "outputs": [
        {
          "internalType": "contract IVanellixStakingMultiToken",
          "name": "",
          "type": "address"
        }
      ],
      "stateMutability": "view",
      "type": "function"
    },
    {
      "inputs": [
        {
          "internalType": "bytes4",
          "name": "interfaceId",
          "type": "bytes4"
        }
      ],
      "name": "supportsInterface",
      "outputs": [
        {
          "internalType": "bool",
          "name": "",
          "type": "bool"
        }
      ],
      "stateMutability": "view",
      "type": "function"
    },
    {
      "inputs": [
        {
          "internalType": "uint256",
          "name": "preSaleId",
          "type": "uint256"
        }
      ],
      "name": "togglePreSaleStatus",
      "outputs": [],
      "stateMutability": "nonpayable",
      "type": "function"
    },
    {
      "inputs": [
        {
          "internalType": "address",
          "name": "",
          "type": "address"
        }
      ],
      "name": "transferOwnership",
      "outputs": [],
      "stateMutability": "nonpayable",
      "type": "function"
    },
    {
      "inputs": [],
      "name": "unpause",
      "outputs": [],
      "stateMutability": "nonpayable",
      "type": "function"
    },
    {
      "inputs": [],
      "name": "updateOwnerFromLaunchpad",
      "outputs": [],
      "stateMutability": "nonpayable",
      "type": "function"
    },
    {
      "inputs": [
        {
          "internalType": "string",
          "name": "segment",
          "type": "string"
        }
      ],
      "name": "updateVanellixContracts",
      "outputs": [],
      "stateMutability": "nonpayable",
      "type": "function"
    },
    {
      "inputs": [
        {
          "internalType": "address",
          "name": "newImplementation",
          "type": "address"
        }
      ],
      "name": "upgradeTo",
      "outputs": [],
      "stateMutability": "nonpayable",
      "type": "function"
    },
    {
      "inputs": [
        {
          "internalType": "address",
          "name": "",
          "type": "address"
        },
        {
          "internalType": "bytes",
          "name": "",
          "type": "bytes"
        }
      ],
      "name": "upgradeToAndCall",
      "outputs": [],
      "stateMutability": "payable",
      "type": "function"
    }
  ],
  "bytecode": "0x60a0806040523460225730608052616eda90816100288239608051816123c20152f35b600080fdfe608080604052600436101561001357600080fd5b60003560e01c90816301ffc9a7146146065750806302669b52146145dc57806311f10116146145b25780631904e5c9146145885780632a2767e51461454d5780632e4799b71461420357806331ccd43a1461289a5780633659cfe6146127945780633f4ba83a146126ef57806346c1aaff1461269357806347243a221461254e5780634a7dc8e01461250e5780634cf088d9146124e45780634f1ef2861461248557806352d1902d146123af5780635c975abb1461238c578063697d312a1461234c578063715018a61461232257806374ced870146123035780637865039b146121265780638456cb59146120a2578063850bcab914611f8e578063893d20e814611f655780638da5cb5b14611f655780639a16629914611f4a578063a512542114611ea5578063a788946514611e73578063b3ecf23614611e38578063c4d66de814611a9b578063c8f7d80714611a75578063d32c56ac1461197f578063df50561914611882578063f133eda91461022c578063f2fde38b146101f95763f448e173146101a057600080fd5b346101f45760403660031901126101f4576024356001600160a01b03811681036101f45760043560005261016760205260406000209060018060a01b03166000526020526020604060002054604051908152f35b600080fd5b346101f45760203660031901126101f4576102126146b8565b5061021b614b5e565b635a42e44960e01b60005260046000fd5b346101f4576101403660031901126101f4576024356001600160401b0381116101f45761025d9036906004016147ec565b6044356001600160401b0381116101f45761027c903690600401614821565b906064356001600160401b0381116101f45761029c903690600401614821565b916084356001600160401b0381116101f4576102bc903690600401614821565b60a435906001600160a01b03821682036101f45760e43580151581036101f45761012435916001600160a01b03831683036101f4576101635461016254610313916001600160a01b03918216911633600435614ef9565b61031b614b5e565b610323614bb4565b604051966101a08801958887106001600160401b03881117610f585760049760209760405260006101608b015260006101808b015288358a52878a015260408901526060880152608087015260018060a01b03831660a08701523360c087015260c43560e0870152151561010086015260018060a01b0316610120850152610104356101408501526040519283809263313ce56760e01b825260018060a01b03165afa801561108757600090611848575b60ff166101608301525061016354604051630f6dd15560e41b815260048035908201526001600160a01b0390911690600081602481855afa9081156110875760049160209160009161182d575b50610120015160405163313ce56760e01b815292839182906001600160a01b03165afa8015611087576000906117f3575b60ff166101808401525061016454610162546001600160a01b0390811693911660005b608083015180518210156104ca5790670de0b6b3a76400006104b461049c83600195614cb3565b516104ae60ff6101608901511661553a565b90615527565b046104c3826080870151614cb3565b5201610475565b505092815160405190630f6dd15560e41b82526004820152600081602481875afa908115611087576000916117d8575b5061014001516001600160a01b0316156117c757815160005261016960205260ff604060002054166117b6576040820151516060830151518114908115916117a6575b506117565760408201515115611756576101008201511580611783575b6107c3576101208201516001600160a01b0316156117725761014082015160508110908115611767575b506117565760ff6101608301511680158015611746575b6116db575060ff61016083015116602481118015611734575b6116db575060a08201516001600160a01b031680158015611729575b6116a85760405163313ce56760e01b8152602081600481855afa8015611087576000906116ef575b60ff91501680156116db57506000809160405160208101916334be989560e11b835260248201526024815261062e604482614779565b5190305afa61063b615eff565b90159081156116b9575b506116a857604082015190606083015193608084015193835115801561169f575b8015611696575b6116855760005b84518110156106d8576106878186614cb3565b511580156106c6575b80156106b4575b6106a357600101610674565b63cc6657e760e01b60005260046000fd5b506106bf8187614cb3565b5115610697565b506106d18188614cb3565b5115610690565b5084938691886106e783614c96565b51908451806000198101116107d457610704906000190186614cb3565b51926000966000975b865189101561081857426107218a89614cb3565b511080156107fa575b6107c3576301e13380850185116107d4576301e13380850186116107c357610752898c614cb3565b51156107ea5788610774575b50600161076b898c614cb3565b5198019761070d565b61077e8988614cb3565b516000198a018a81116107d457610795908a614cb3565b5110156107c3576107a6898c614cb3565b51106107b2578a61075e565b636dddf41160e11b60005260046000fd5b637616640160e01b60005260046000fd5b634e487b7160e01b600052601160045260246000fd5b62bfc92160e01b60005260046000fd5b506108058989614cb3565b516108108a89614cb3565b51101561072a565b5088825190610140840151916064602060018060a01b03610120880151169360405192838092632ee325db60e21b8252846004830152600c60248301526b546f6b656e466163746f727960a01b60448301525afa9081156110875760009161164b575b50604051634b6377cf60e01b8152600481018390526001600160a01b03919091169190602081602481865afa801561108757600090611618575b60009150602460405180958193631d05f3d560e11b835260048301525afa918215611087576000926111be575b5060405190630f6dd15560e41b82526004820152600081602481885afa9081156110875760009161119b575b5061012001516001600160a01b031690811561118a576040516318160ddd60e01b8152602081600481865afa8015611087578591600091611154575b506064918261096761096d9360ff61010060209801511690615527565b04615527565b04926024604051809481936370a0823160e01b835260048301525afa801561108757829160009161111f575b50106110d95780156110d9576064916109b191615527565b835160c08501519290910492916001600160a01b03908116916109d790849088906166ba565b166040516370a0823160e01b8152826004820152602081602481855afa80156110875785916000916110ea575b50106110d957604051636eb1769f60e11b81526001600160a01b03929092166004830152306024830152602090829060449082905afa80156110875783916000916110a4575b501061109357610a6d81610a6061016b546154ab565b958661016b5585516166ba565b906020845160246040518094819363475d5bb360e01b835260048301525afa8015611087578491600091611052575b508151938660208401516040850151926060860151906080870151600160a01b6001900360a08901511692600160a01b600190036101208a0151169660e08a0151956101008b01511515976101608c015160ff169b610180015160ff169c6040519e8f92610b098461470b565b83526020830152600160a01b6001900316906040015260608d015260808c015260a08b015260c08a015260e0890152610100880160009052610120880152826101408801526101608701600090526101808701600190526101a08701600090526101c08701526101e08601526102008501526102208401526102408301526102608201528260005261016560205260406000208151815560208201516001820155600160a01b600190036040830151166002820190600160a01b60019003166001600160601b0360a01b82541617905560608201518051906001600160401b038211610f58578190610bfe600385015461487e565b601f8111611012575b50602090601f8311600114610fa157600092610f96575b50508160011b916000199060031b1c19161760038201555b60808201518051906001600160401b038211610f5857600160401b8211610f585760048301805483825560209291610c6f918591615f46565b0160048301600052602060002060005b838110610f8257505050506005810160a0830151908151916001600160401b038311610f5857600160401b8311610f5857602090610cc284845481865585615f46565b0190600052602060002060005b838110610f6e57505050506006810160c0830151908151916001600160401b038311610f5857600160401b8311610f5857602090610d1284845481865585615f46565b0190600052602060002060005b838110610f44575050505060e0820151600782015561010082015160088201556101208201516009820180546001600160a01b03199081166001600160a01b0393841617909155610140840151600a84018054909216908316179055610160830151600b830180546101808601516101a08701516001600160b01b0319909216939094169290921792151560a01b60ff60a01b169290921790151560a81b60ff60a81b1617905561026090600f906101c0840151600c8201556101e0840151600d820180546102008701516001600160a81b031990911660ff931515841617600891821b610100600160a81b031617909155610220860151600e840155610240860151939092018054949095015161ffff1990941692169190911791901b61ff001617905551600090815261016960209081526040808320805460ff191660019081179091558484526101659092529091209081015460028201546001600160a01b0316929091610e9260048201614c69565b90549060031b1c600582019182549160001983019283116107d457610edb610f20937f664f77e5e951013619a07b72c94d636df4b494843d70408c96e037972130401795614c7e565b90549060031b1c6007830154610ef360068501614c69565b90549060031b1c9060018060a01b036009860154169260405196879660c08852600360c0890191016148b8565b94602087015260408601526060850152608084015260a08301520390a4600160fb55005b600190602084519401938184015501610d1f565b634e487b7160e01b600052604160045260246000fd5b600190602084519401938184015501610ccf565b600190602084519401938184015501610c7f565b015190508680610c1e565b92506003840160005280600020906000935b601f1984168510610ff7576001945083601f19811610610fde575b505050811b016003820155610c36565b015160001960f88460031b161c19169055868080610fce565b81810151835560209485019460019093019290910190610fb3565b61104290600386016000526020600020601f850160051c81019160208610611048575b601f0160051c0190615f2f565b87610c07565b9091508190611035565b9150506020813d60201161107f575b8161106e60209383614779565b810103126101f45783905186610a9c565b3d9150611061565b6040513d6000823e3d90fd5b6313be252b60e01b60005260046000fd5b9150506020813d6020116110d1575b816110c060209383614779565b810103126101f45782905186610a4a565b3d91506110b3565b631e9acf1760e31b60005260046000fd5b9150506020813d602011611117575b8161110660209383614779565b810103126101f45784905188610a04565b3d91506110f9565b9150506020813d60201161114c575b8161113b60209383614779565b810103126101f45781905187610999565b3d915061112e565b9150506020813d602011611182575b8161117060209383614779565b810103126101f457518490606461094a565b3d9150611163565b631d8730d160e31b60005260046000fd5b6111b891503d806000833e6111b08183614779565b8101906149f9565b8761090e565b90913d8082843e6111cf8184614779565b82019060808383031261155a5782516001600160401b03811161161457830161012081840312611614576040519061120682614727565b805182526020810151602083015260408101516001600160401b0381116115fc57846112339183016149aa565b604083015260608101516001600160401b0381116115fc57846112579183016149aa565b60608301526080810151608083015260a08101516001600160401b0381116115fc57846112859183016149aa565b60a083015260c08101516001600160401b0381116115fc57610100826112b1876112cd948496016149aa565b60c08601526112c260e08201614988565b60e0860152016149ec565b91015260208301516001600160401b0381116116145783019261014084840312611614576040519361014085018581106001600160401b038211176116005760405261131881614988565b855261132660208201614988565b6020860152604081015160018110156115fc576040860152606081015160608601526080810151608086015260a08101516001600160401b0381116115fc57810184601f820112156115fc57805161137d8161480a565b9161138b6040519384614779565b81835260208084019260061b8201019087821161155057602001915b8183106115cb575050506113f9916101209160a08801526113ca60c0820161499c565b60c08801526113db60e082016149ec565b60e08801526113ed610100820161499c565b6101008801520161499c565b61012085015260408101516001600160401b03811161155857810183601f820112156115585780519060208061142e8461480a565b61143b6040519182614779565b848152019260051b820101908582116115545760208101925b82841061155d57505050506060810151906001600160401b03821161155857019082601f8301121561155a5781519260208061148f8661480a565b61149c6040519182614779565b868152019460051b840101928184116115585760208101945b8486106114c95750505050505090876108e2565b85516001600160401b0381116115545782016040818503601f19011261155457604051906114f68261475e565b60208101516001600160401b03811161155057856020611518928401016149aa565b82526040810151906001600160401b0382116115505791611541866020809694819601016149aa565b838201528152019501946114b5565b8680fd5b8480fd5b825b80fd5b83516001600160401b0381116115505782016040818903601f190112611550576040519061158a8261475e565b60208101516001600160401b0381116115c757916040826115b48c602080989697819801016149aa565b8352015183820152815201930192611454565b8880fd5b60408389031261155057602060409182516115e58161475e565b8551815282860151838201528152019201916113a7565b8380fd5b634e487b7160e01b84526041600452602484fd5b5080fd5b506020813d602011611643575b8161163260209383614779565b810103126101f457600090516108b5565b3d9150611625565b90506020813d60201161167d575b8161166660209383614779565b810103126101f45761167790614988565b8761087b565b3d9150611659565b63e63f44c360e01b60005260046000fd5b5084511561066d565b50855115610666565b6356e7ec5f60e01b60005260046000fd5b90506020818051810103126101f45760206116d491016149ec565b1585610645565b635d00a5bb60e11b60005260045260246000fd5b506020813d602011611721575b8161170960209383614779565b810103126101f45761171c60ff9161499c565b6105f8565b3d91506116fc565b5061101081146105d0565b50602460ff61018085015116116105b4565b5060ff610180840151161561059b565b63162908e360e11b60005260046000fd5b606491501185610584565b631559b7d760e21b60005260046000fd5b5060e08201516001811090811561179b575b5061055a565b606491501185611795565b905060808301515114158561053d565b631dc0650160e31b60005260046000fd5b6301efcacf60e61b60005260046000fd5b6117ed91503d806000833e6111b08183614779565b856104fa565b506020813d602011611825575b8161180d60209383614779565b810103126101f45761182060ff9161499c565b610452565b3d9150611800565b61184291503d806000833e6111b08183614779565b85610421565b506020813d60201161187a575b8161186260209383614779565b810103126101f45761187560ff9161499c565b6103d4565b3d9150611855565b346101f45760203660031901126101f4576004356000818152610165602052604090206001015461016354610162546118cc926001600160a01b0391821692909116903390614ef9565b6118d4614b5e565b6118dc614bb4565b8060005261016560205260406000208054156117b657600b81019081549160ff8360a01c161561196e5761191260048301614c69565b90549060031b1c42101561195d5760ff60a01b1990921690915560010154907f9ba17ea3454eb60f2ba572d2624a8a9261a89e2ca683658aea435f5a0dfe2ec4600080a3600160fb55005b63291659fd60e11b60005260046000fd5b63b7b2409760e01b60005260046000fd5b346101f45760203660031901126101f4576004356001600160401b0381116101f45760206119b4611a019236906004016147ec565b610162546119cb906001600160a01b0316336151e2565b6119d3614b5e565b60018060a01b0361016254166040518080958194632ee325db60e21b8352866004840152602483019061465f565b03915afa90811561108757600091611a3b575b506001600160a01b031615611a2a57600160fb55005b6336939d7d60e21b60005260046000fd5b90506020813d602011611a6d575b81611a5660209383614779565b810103126101f457611a6790614988565b81611a14565b3d9150611a49565b346101f45760203660031901126101f4576020611a936004356154ba565b604051908152f35b346101f45760203660031901126101f457611ab46146b8565b6000549060ff8260081c161591828093611e2b575b8015611e14575b15611db85760ff19811660011760005582611da6575b5061016280546001600160a01b0319166001600160a01b03929092169182179055604051632ee325db60e21b8152602060048201819052600a60248301526926bab63a34aa37b5b2b760b11b604483015281606481855afa90811561108757600091611d6c575b5060018060a01b03166001600160601b0360a01b61016354161761016355604051632ee325db60e21b81526020600482015260076024820152665374616b696e6760c81b6044820152602081606481855afa90811561108757600091611d32575b5060018060a01b03166001600160601b0360a01b61016454161761016455806001600160601b0360a01b610160541617610160558015611d215760206004916040519283809263c696804f60e01b82525afa90811561108757600091611ce7575b506001600160a01b03163303611cd657605061016d55611c4860ff60005460081c16611c3a8161544b565b611c438161544b565b61544b565b611c5133615402565b60005490611c9b60ff8360081c16611c688161544b565b611c718161544b565b60ff1960c9541660c955611c848161544b565b611c8d8161544b565b600160fb55611c438161544b565b611ca157005b61ff0019166000557f7f26b83ff96e1f2b6a682f133852f6798a09c465da95921460cefb3847402498602060405160018152a1005b632508892760e11b60005260046000fd5b90506020813d602011611d19575b81611d0260209383614779565b810103126101f457611d1390614988565b82611c0f565b3d9150611cf5565b63d92e233d60e01b60005260046000fd5b90506020813d602011611d64575b81611d4d60209383614779565b810103126101f457611d5e90614988565b83611bae565b3d9150611d40565b90506020813d602011611d9e575b81611d8760209383614779565b810103126101f457611d9890614988565b83611b4d565b3d9150611d7a565b61ffff19166101011760005582611ae6565b60405162461bcd60e51b815260206004820152602e60248201527f496e697469616c697a61626c653a20636f6e747261637420697320616c72656160448201526d191e481a5b9a5d1a585b1a5e995960921b6064820152608490fd5b50303b158015611ad05750600160ff821614611ad0565b50600160ff821610611ac9565b346101f45760003660031901126101f45760206040517fa36640f9c3d74ee87c99b3aee39f32849dda077410057abc393a2cb9e13139a78152f35b346101f45760203660031901126101f457600435600052610169602052602060ff604060002054166040519015158152f35b346101f45760203660031901126101f457611ebe6146b8565b61016254611ed5906001600160a01b0316336151e2565b611edd614b5e565b6001600160a01b038116600090815261016e602052604090205460ff16156116a8576001600160a01b0316600081815261016e60205260408120805460ff191690557f85a3e72f8dd6db3794f93109c3c5f5b79d6112f6979431c45f98b26134b42af29080a2600160fb55005b346101f45760003660031901126101f4576020604051308152f35b346101f45760003660031901126101f4576033546040516001600160a01b039091168152602090f35b346101f45760003660031901126101f457611fa7614bb4565b611faf614b5e565b610160546001600160a01b03168015611a2a5760405163c696804f60e01b8152602081600481855afa90811561108757600091612068575b506001600160a01b03163303611cd65760206004916040519283809263c696804f60e01b82525afa80156110875760009061202d575b61202690615402565b600160fb55005b506020813d602011612060575b8161204760209383614779565b810103126101f45761205b61202691614988565b61201d565b3d915061203a565b90506020813d60201161209a575b8161208360209383614779565b810103126101f45761209490614988565b82611fe7565b3d9150612076565b346101f45760003660031901126101f4576120bb614bb4565b610160546001600160a01b03168015611a2a573303612115576120dc614bb4565b600160ff1960c954161760c9557f62e78cea01bee320cd4e420270b5ea74000d11b0c9f74754ebdbfc544b05a2586020604051338152a1005b635c427cd960e01b60005260046000fd5b346101f45760203660031901126101f4576101625460043590612152906001600160a01b0316336151e2565b61215a614b5e565b6101625460405163074ced8760e41b81526001600160a01b0390911690602081600481855afa908115611087576000916122d1575b5042101561223e57602060049160405192838092638da5cb5b60e01b82525afa90811561108757600091612204575b506001600160a01b031633036121f3575b6032811080156121e9575b6117565761016d55600160fb55005b50606481116121da565b63ea8e4eb560e01b60005260046000fd5b90506020813d602011612236575b8161221f60209383614779565b810103126101f45761223090614988565b826121be565b3d9150612212565b60206040518092632ee325db60e21b8252818061225d60048201614edb565b03915afa90811561108757600091612297575b506001600160a01b03168015611a2a5733146121cf57635c427cd960e01b60005260046000fd5b90506020813d6020116122c9575b816122b260209383614779565b810103126101f4576122c390614988565b82612270565b3d91506122a5565b90506020813d6020116122fb575b816122ec60209383614779565b810103126101f457518361218f565b3d91506122df565b346101f45760003660031901126101f457602061015f54604051908152f35b346101f45760003660031901126101f45761233b614b5e565b63ffc0fd9360e01b60005260046000fd5b346101f45760203660031901126101f4576001600160a01b0361236d6146b8565b1660005261016e602052602060ff604060002054166040519015158152f35b346101f45760003660031901126101f457602060ff60c954166040519015158152f35b346101f45760003660031901126101f4577f00000000000000000000000000000000000000000000000000000000000000006001600160a01b0316300361241a5760206040517f360894a13ba1a3210667c828492db98dca3e2076cc3735a920a3ca505d382bbc8152f35b60405162461bcd60e51b815260206004820152603860248201527f555550535570677261646561626c653a206d757374206e6f742062652063616c60448201527f6c6564207468726f7567682064656c656761746563616c6c00000000000000006064820152608490fd5b60403660031901126101f4576124996146b8565b506024356001600160401b0381116101f457366023820112156101f4576124ca9036906024816004013591016147b5565b506124d3614b5e565b630c5e6cd360e21b60005260046000fd5b346101f45760003660031901126101f457610164546040516001600160a01b039091168152602090f35b346101f45760203660031901126101f45761202661252a6146b8565b61016254612541906001600160a01b0316336151e2565b612549614b5e565b615350565b346101f45760203660031901126101f457600435600081815261016560205260409020600101546101635461016254612598926001600160a01b0391821692909116903390614ef9565b6125a0614b5e565b6125a8614bb4565b8060005261016560205260406000208054156117b657600b810190815460ff8160a01c161561196e5760058201805460001981019081116107d4576125ec91614c7e565b90549060031b1c421161268257825460ff60a81b191660a891821c60ff9081161590921b60ff60a81b161783556001925460a81c1615612655570154907fb117e72dcc01478ce851dd13431dafb7dc63ddbe784fafa7b64ac7ac29948da6600080a3600160fb55005b0154907f38b2b6547d13702fff00a4c7fbadd338457f9ee1632cff974d41fae70db0ed8b600080a3612026565b630bd8a3eb60e01b60005260046000fd5b346101f45760203660031901126101f4576126cf6126dd6126eb6126b8600435614cc7565b9193906040519586956060875260608701906146ce565b908582036020870152614684565b908382036040850152614684565b0390f35b346101f45760003660031901126101f457610160546001600160a01b03168015611a2a5733036121155760c95460ff8116156127585760ff191660c9557f5db9ee0a495bf2e6ff9c91a7834c1ba4fdd244a5e8aa4e537bd38aeae4b073aa6020604051338152a1005b60405162461bcd60e51b815260206004820152601460248201527314185d5cd8589b194e881b9bdd081c185d5cd95960621b6044820152606490fd5b346101f45760203660031901126101f4576127ad6146b8565b6127b5614b5e565b610160546001600160a01b03168015611a2a57330361211557803b1561283f577f360894a13ba1a3210667c828492db98dca3e2076cc3735a920a3ca505d382bbc80546001600160a01b0319166001600160a01b039290921691821790557fbc7cd75a20ee27fd9adebab32041f755214dbc6bffa90cc0225b39da2e5c2d3b600080a2600160fb55005b60405162461bcd60e51b815260206004820152602d60248201527f455243313936373a206e657720696d706c656d656e746174696f6e206973206e60448201526c1bdd08184818dbdb9d1c9858dd609a1b6064820152608490fd5b346101f45760403660031901126101f4576024356004356128b9614b5e565b6128c1614bb4565b600090815261016560205260409020610162546009820154600d8301546001600160a01b0392831694929182169160089190911c16331461354e5782549081156117b657600b84015460ff8160a01c16159081156141f5575b5061196e57600080600486018054915b8281106141a4575b5050501561196e5761294c612946856155b0565b84615527565b600f85015460ff61296c818360081c16936129668561553a565b9061554b565b911690828083111561417e576129886104ae9161298d9461558f565b61553a565b600e860154936129aa8860646129a38886615527565b0489615619565b916008880154600789015490818111611756576129c691614c2a565b917fd3975715442be44cd1240c1a9569eabd5bf50f4ea1b01f28c1b5e81ea1d0e4f7606060018b015493604051908b82526020820152866040820152a3851591821561416a575b50506117565760098501546001600160a01b0316918290036116a857612a88906000610100604051612a3e81614727565b8281528260208201528260408201528260608201528260808201528260a08201528260c08201528260e08201520152612966612a82612a7c886155b0565b87615527565b9161553a565b9060405163ca709a2560e01b81526020816004818a5afa90811561108757600091614130575b5060405163725c9c4960e01b81526020816004818b5afa908115611087576000916140f1575b5060405163c45a015560e01b815290602090829060049082906001600160a01b03165afa908115611087576000916140af575b5060405163e6a4390560e01b81526001600160a01b038085166004830152909216602483015260209082908180604481015b03916001600160a01b03165afa90811561108757600091614075575b506001600160a01b03168015159081614010575b506040516311efbf6160e01b8152906020826004818b5afa91821561108757600092613fdc575b5060009015613fd45750612ba76127109184615527565b04905b612bb482846155a3565b906040519363ca709a2560e01b85526020856004818c5afa801561108757600090613f99575b612c3a955060018060a01b0360028a0154169160405198612bfa8a614727565b8952602089018690526040890152606088018490526001600160a01b0316608088015260a087015260c08601523360e08601526101008501879052614c2a565b601482108015613f8f575b6117565760c083015160a0840151600a860154606086015186516040516370a0823160e01b81523360048201526001600160a01b0393841695919484169390911690602081602481855afa8015611087578391600091613f5a575b5010613f1c57604051636eb1769f60e11b815233600482015230602482015290602090829060449082905afa8015611087578291600091613ee7575b5010613eaa57506040516370a0823160e01b815260048101849052602081602481855afa8015611087578391600091613e75575b5010613e3857604051636eb1769f60e11b81526001600160a01b038416600482015230602482015290602090829060449082905afa8015611087578291600091613e03575b5010613dc7575060c084015160608501516040516323b872dd60e01b8152336004820152306024820152604481018290526001600160a01b03909216916020816064816000875af190811561108757600091613d8d575b5015613d50575060405163a9059cbb60e01b81526001600160a01b03831660048201526064858502048403602482015290602090829060449082906000905af190811561108757600091613d16575b5015613cd2575060405163725c9c4960e01b8152602081600481895afa801561108757600090613c97575b612e3891506064848402049086615abe565b9184547f6916cc358f32cd4fd7d4b6a4c21708de860821e76865cce1d1790b37d7642f356020604051868152a260a0840151600a8601546040516323b872dd60e01b81526001600160a01b039182166004820152306024820152604481018690529160209183916064918391600091165af190811561108757600091613c5d575b5015613c0c5760c084015160a085015160405163725c9c4960e01b81526001600160a01b039182169392909116916020826004818c5afa91821561108757600092613bd0575b5060405163c45a015560e01b8152926001600160a01b03831690602085600481855afa94851561108757600095613b94575b5060028a015460098b015489986001600160a01b039182169891909216956064868402049590926000918a91828a11613b7b575b505050918991869315600014613b6d5793612f7f94615fb3565b6063860290868204606314871517156107d4576063830290838204606314841517156107d457610e1042018042116107d45760405162e8e33760e81b81526001600160a01b03808816600483015289166024820152604481018a905260648181018790529485900460848201529390920460a48401523060c484015260e483019190915260609082906101049082906000905af1958615611087578991600097613b31575b5091817fd1998b0674189d59f14fb05382832ca483278ca95c0b1c6aa339b2d47ed3ba2c60a06020979560016130ba9a9896549401549460405191600180851b0388168352600180851b038a168b840152604083015260608201528a6080820152a360405163e6a4390560e01b81526001600160a01b039182166004820152921660248301529092839190829081906044820190565b03916001600160a01b03165afa90811561108757600091613af7575b50600b850180546001600160a01b0319166001600160a01b039290921691821790558454600186015482917f9a061daf08e10498b15a2a3648781947c8a02cf56c58797daabfac450440012f600080a4600d85015460ff8116156137e2575050604051632d77645f60e21b8152600081600481895afa908115611087576000916137bf575b5051600b85015460405163a9059cbb60e01b81526001600160a01b0392831660048201819052602482018590529392909160209183916044918391600091165af190811561108757600091613785575b501561374157916131f4916131fe9386547fbb5423c71bd79b63941c740b22943a89a09f0b04ce2529af276b3e4b0b2710a6602060018a015493604051908152a45b83516155a3565b60088401546155a3565b600883015580518254600052610167602052604060002060018060a01b03331660005260205261323460406000209182546155a3565b905560a0810151600a83015482516040516323b872dd60e01b81526001600160a01b03928316600482015233602482015260448101919091529160209183916064918391600091165af190811561108757600091613707575b501561354e57602081015183816136d1575b505060a08101516040516370a0823160e01b815230600482015290602090829060249082906001600160a01b03165afa9081156110875760009161369f575b50806135cd575b60c08201516040516370a0823160e01b81523060048201529190602090839060249082906001600160a01b03165afa91821561108757600092613599575b50816134bb575b8354926001850154946133466060830151602084015190614c2a565b60405163725c9c4960e01b81526020816004818c5afa90811561108757600091613481575b5060405191825260018060a01b0316602082015286867fe4cd8f397af1f8188e743ba9f7fa9d757f74bc7cd79fb150ed6924df85f7050860403394a460048251976020806060860151950151916040519384809263ca709a2560e01b82525afa91821561108757600092613445575b506008600784015493015493604051998a5260208a0152604089015260018060a01b03166060880152608087015260a086015260c085015260e08401527fb2e2a4b3a451efe7e2713fa30d986a1efc7aba0624b276af2fee79b32ed7268f6101003394a4600160fb55005b9091506020813d602011613479575b8161346160209383614779565b810103126101f45761347290614988565b90896133da565b3d9150613454565b90506020813d6020116134b3575b8161349c60209383614779565b810103126101f4576134ad90614988565b8961336b565b3d915061348f565b60c0830151600a85015460405163a9059cbb60e01b81526001600160a01b039182166004820152602481018590529160209183916044918391600091165af19081156110875760009161355f575b501561354e57835460018060a01b03600a86015416907f53f485cc5470bb1cc521df7cffe9f28d949dbbcc26bcadd0c7d5bc28ad6f5ff76020604051868152a361332a565b635887b04b60e01b60005260046000fd5b90506020813d602011613591575b8161357a60209383614779565b810103126101f45761358b906149ec565b86613509565b3d915061356d565b90916020823d6020116135c5575b816135b460209383614779565b8101031261155a5750519085613323565b3d91506135a7565b60a0820151600a84015460405163a9059cbb60e01b81526001600160a01b039182166004820152602481018490529160209183916044918391600091165af190811561108757600091613665575b501561354e57602490835460018060a01b03600a86015416907f6ef54921d8652fe617dde55f2066c0a389c3918f72c64abe812da399d5e0dcdf6020604051858152a390506132e5565b90506020813d602011613697575b8161368060209383614779565b810103126101f457613691906149ec565b8561361b565b3d9150613673565b906020823d6020116136c9575b816136b960209383614779565b8101031261155a575051846132de565b3d91506136ac565b60c08301516136e992906001600160a01b031661631c565b50156136f657838361329f565b63081ceff360e41b60005260046000fd5b90506020813d602011613739575b8161372260209383614779565b810103126101f457613733906149ec565b8461328d565b3d9150613715565b847f7a6e4d99b1e6cfdb65646c1c89fb0f8bc735250f949d22b84b7f8824c0cee02f60206001835493015493604051908152a463ec86bfe360e01b60005260046000fd5b90506020813d6020116137b7575b816137a060209383614779565b810103126101f4576137b1906149ec565b876131ab565b3d9150613793565b6137dc91503d806000833e6137d48183614779565b810190615e64565b8661315b565b60081c6001600160a01b0316918115613ae657821561177257600c86019081546301e133808102908082046301e1338014901517156107d45761382590426155a3565b90600182018092116107d457604051610683808201908282106001600160401b03831117610f5857606091839161680283398781528860208201528560408201520301906000f080156110875760405163a9059cbb60e01b81526001600160a01b039190911660048201819052602482018390529060208160448160008a5af190811561108757600091613aac575b5015613a66576040928351916138ca8584614779565b60018352601f1985013660208501376138e283614c96565b5289548060005261016a602052846000209160018c01549086519261390684614743565b835260208301918252868301908682526060840190815260808401918b835260a08501958787528054600160401b811015610f585761394a91600182018155614c37565b949094613a50579451845593516001840155925160028301559151600382015590516004820180546001600160a01b0319166001600160a01b03929092169190911790559051805191600501906001600160401b038311610f5857600160401b8311610f58576020906139c284845481865585615f46565b0190600052602060002060005b838110613a3357505050506131fe9694926131f4969492613a2b7f8a732c9f0caa8b4c4c2a2d7d96275a17934cd5265e49c39da36251b041ebb7f59360608d5496549480519586958652602086015284015260608301906146ce565b0390a46131ed565b82516001600160a01b0316818301556020909201916001016139cf565b634e487b7160e01b600052600060045260246000fd5b85828a7f7a6e4d99b1e6cfdb65646c1c89fb0f8bc735250f949d22b84b7f8824c0cee02f60206001835493015493604051908152a463ec86bfe360e01b60005260046000fd5b90506020813d602011613ade575b81613ac760209383614779565b810103126101f457613ad8906149ec565b8b6138b4565b3d9150613aba565b63c1ab6dc160e01b60005260046000fd5b90506020813d602011613b29575b81613b1260209383614779565b810103126101f457613b2390614988565b866130d6565b3d9150613b05565b9150956060823d606011613b65575b81613b4d60609383614779565b8101031261155a5750604001519488906130ba613024565b3d9150613b40565b613b7694615fb3565b612f7f565b60649102049a509698508a95506001905081868b612f65565b9094506020813d602011613bc8575b81613bb060209383614779565b810103126101f457613bc190614988565b938b612f31565b3d9150613ba3565b90916020823d602011613c04575b81613beb60209383614779565b8101031261155a5750613bfd90614988565b9089612eff565b3d9150613bde565b8454600a8601546040518581526001600160a01b0390911691907f7553db0abfc218671ddbb27cfd41e8f4912f81ce7e4298559b4dce4e3ca447e090602090a3635887b04b60e01b60005260046000fd5b90506020813d602011613c8f575b81613c7860209383614779565b810103126101f457613c89906149ec565b87612eb9565b3d9150613c6b565b506020813d602011613cca575b81613cb160209383614779565b810103126101f457613cc5612e3891614988565b612e26565b3d9150613ca4565b7f73b22b8cc944a7bd4935284b25c2e8f3c82011cb9f5d5027bcb47841f0dbf2c46020848460646040519282020490038152a2633f809a2d60e01b60005260046000fd5b90506020813d602011613d48575b81613d3160209383614779565b810103126101f457613d42906149ec565b87612dfb565b3d9150613d24565b6040519081527f10629f1b60dda6d201635d04ccf1e407dacc8bfcdea1c7268898143c4db6b5a060203392a2632ee66eed60e01b60005260046000fd5b90506020813d602011613dbf575b81613da860209383614779565b810103126101f457613db9906149ec565b89612dac565b3d9150613d9b565b60207f73b22b8cc944a7bd4935284b25c2e8f3c82011cb9f5d5027bcb47841f0dbf2c491604051908152a26313be252b60e01b60005260046000fd5b9150506020813d602011613e30575b81613e1f60209383614779565b810103126101f45781905189612d55565b3d9150613e12565b5060207f73b22b8cc944a7bd4935284b25c2e8f3c82011cb9f5d5027bcb47841f0dbf2c491604051908152a2631e9acf1760e31b60005260046000fd5b9150506020813d602011613ea2575b81613e9160209383614779565b810103126101f4578290518a612d10565b3d9150613e84565b6040519081527f10629f1b60dda6d201635d04ccf1e407dacc8bfcdea1c7268898143c4db6b5a060203392a26313be252b60e01b60005260046000fd5b9150506020813d602011613f14575b81613f0360209383614779565b810103126101f4578190518b612cdc565b3d9150613ef6565b506040519081527f10629f1b60dda6d201635d04ccf1e407dacc8bfcdea1c7268898143c4db6b5a060203392a2631e9acf1760e31b60005260046000fd5b9150506020813d602011613f87575b81613f7660209383614779565b810103126101f4578290518c612ca0565b3d9150613f69565b5060328211612c45565b506020853d602011613fcc575b81613fb360209383614779565b810103126101f457613fc7612c3a95614988565b612bda565b3d9150613fa6565b905090612baa565b9091506020813d602011614008575b81613ff860209383614779565b810103126101f457519088612b90565b3d9150613feb565b6040516318160ddd60e01b81529150602090829060049082905afa90811561108757600091614043575b50151587612b69565b90506020813d60201161406d575b8161405e60209383614779565b810103126101f457518761403a565b3d9150614051565b90506020813d6020116140a7575b8161409060209383614779565b810103126101f4576140a190614988565b87612b55565b3d9150614083565b90506020813d6020116140e9575b816140ca60209383614779565b810103126101f457612b39916140e1602092614988565b915091612b07565b3d91506140bd565b90506020813d602011614128575b8161410c60209383614779565b810103126101f4576020614121600492614988565b9150612ad4565b3d91506140ff565b90506020813d602011614162575b8161414b60209383614779565b810103126101f45761415c90614988565b87612aae565b3d915061413e565b614176919250866155a3565b118780612a0d565b8291921061418d575b5061298d565b9061296661298861419e938561558f565b87614187565b6141ae8183614c7e565b90549060031b1c421015806141d8575b6141ca5760010161292a565b505050506001868080612932565b506141e68160058a01614c7e565b90549060031b1c4211156141be565b60ff915060a81c168661291a565b346101f45760203660031901126101f45760006102606040516142258161470b565b82815282602082015282604082015260608082015260606080820152606060a0820152606060c08201528260e08201528261010082015282610120820152826101408201528261016082015282610180820152826101a0820152826101c0820152826101e08201528261020082015282610220820152826102408201520152600435600052610165602052604060002060ff600f604051926142c68461470b565b805484526001810154602085015260028101546001600160a01b031660408086019190915251614304816142fd81600386016148b8565b0382614779565b60608501526143156004820161493b565b60808501526143266005820161493b565b60a08501526143376006820161493b565b60c0850152600781015460e0850152600881015461010085015260018060a01b0360098201541661012085015260018060a01b03600a8201541661014085015282600b82015460018060a01b038116610160870152818160a01c16151561018087015260a81c1615156101a0850152600c8101546101c0850152600d81015483811615156101e086015260018060a01b039060081c16610200850152600e810154610220850152015481811661024084015260081c16610260820152604051809160208252805160208301526020810151604083015260018060a01b03604082015116606083015260ff61026061448a61447461445e614448606087015161028060808a01526102a089019061465f565b6080870151888203601f190160a08a0152614684565b60a0860151878203601f190160c0890152614684565b60c0850151868203601f190160e0880152614684565b9260e081015161010086015261010081015161012086015260018060a01b036101208201511661014086015260018060a01b036101408201511661016086015260018060a01b036101608201511661018086015261018081015115156101a08601526101a081015115156101c08601526101c08101516101e08601526101e0810151151561020086015260018060a01b03610200820151166102208601526102208101516102408601528261024082015116828601520151166102808301520390f35b346101f45760003660031901126101f45760206040517f2e87c0623fcd0b55e4810963e20aca9accfc156e02c7197dbb2676283efed7b78152f35b346101f45760003660031901126101f457610163546040516001600160a01b039091168152602090f35b346101f45760003660031901126101f457610160546040516001600160a01b039091168152602090f35b346101f45760003660031901126101f457610162546040516001600160a01b039091168152602090f35b346101f45760203660031901126101f4576004359063ffffffff60e01b82168092036101f4576020916301ffc9a760e01b148152f35b60005b83811061464f5750506000910152565b818101518382015260200161463f565b906020916146788151809281855285808601910161463c565b601f01601f1916010190565b906020808351928381520192019060005b8181106146a25750505090565b8251845260209384019390920191600101614695565b600435906001600160a01b03821682036101f457565b906020808351928381520192019060005b8181106146ec5750505090565b82516001600160a01b03168452602093840193909201916001016146df565b61028081019081106001600160401b03821117610f5857604052565b61012081019081106001600160401b03821117610f5857604052565b60c081019081106001600160401b03821117610f5857604052565b604081019081106001600160401b03821117610f5857604052565b90601f801991011681019081106001600160401b03821117610f5857604052565b6001600160401b038111610f5857601f01601f191660200190565b9291926147c18261479a565b916147cf6040519384614779565b8294818452818301116101f4578281602093846000960137010152565b9080601f830112156101f457816020614807933591016147b5565b90565b6001600160401b038111610f585760051b60200190565b9080601f830112156101f45781356148388161480a565b926148466040519485614779565b81845260208085019260051b8201019283116101f457602001905b82821061486e5750505090565b8135815260209182019101614861565b90600182811c921680156148ae575b602083101461489857565b634e487b7160e01b600052602260045260246000fd5b91607f169161488d565b600092918154916148c88361487e565b808352926001811690811561491e57506001146148e457505050565b60009081526020812093945091925b838310614904575060209250010190565b6001816020929493945483858701015201910191906148f3565b915050602093945060ff929192191683830152151560051b010190565b906040519182815491828252602082019060005260206000209260005b81811061496f57505061496d92500383614779565b565b8454835260019485019487945060209093019201614958565b51906001600160a01b03821682036101f457565b519060ff821682036101f457565b81601f820112156101f45780516149c08161479a565b926149ce6040519485614779565b818452602082840101116101f457614807916020808501910161463c565b519081151582036101f457565b6020818303126101f4578051906001600160401b0382116101f45701610180818303126101f4576040519161018083018381106001600160401b03821117610f585760405281518352614a4e60208301614988565b602084015260408201516001600160401b0381116101f45781614a729184016149aa565b604084015260608201516001600160401b0381116101f45781614a969184016149aa565b606084015260808201516001600160401b0381116101f45781614aba9184016149aa565b608084015260a08201516001600160401b0381116101f45781614ade9184016149aa565b60a0840152614aef60c083016149ec565b60c0840152614b0060e08301614988565b60e0840152610100820151610100840152614b1e6101208301614988565b610120840152614b316101408301614988565b6101408401526101608201516001600160401b0381116101f457614b5592016149aa565b61016082015290565b600260fb5414614b6f57600260fb55565b60405162461bcd60e51b815260206004820152601f60248201527f5265656e7472616e637947756172643a207265656e7472616e742063616c6c006044820152606490fd5b60ff60c95416614bc057565b60405162461bcd60e51b815260206004820152601060248201526f14185d5cd8589b194e881c185d5cd95960821b6044820152606490fd5b90614c028261480a565b614c0f6040519182614779565b8281528092614c20601f199161480a565b0190602036910137565b919082039182116107d457565b8054821015614c53576000526006602060002091020190600090565b634e487b7160e01b600052603260045260246000fd5b805415614c5357600052602060002090600090565b8054821015614c535760005260206000200190600090565b805115614c535760200190565b805160011015614c535760400190565b8051821015614c535760209160051b010190565b8060005261016f602052604060002054908115614e8c5760005261016f602052604060002060001982019182116107d457600591614d0491614c37565b500190815490614d1382614bf8565b614d1c83614bf8565b93614d2684614bf8565b9360005b818110614d3957505050929190565b614d438184614c7e565b905460039190911b1c6001600160a01b0316614d5f8286614cb3565b5260046020614d6e8386614c7e565b905460405163b91d400160e01b81529384929091839160031b1c6001600160a01b03165afa90811561108757600091614e5b575b50614dad8289614cb3565b52614db88184614c7e565b905460039190911b1c6001600160a01b03166020614dd68386614c7e565b90546040516370a0823160e01b815260039290921b1c6001600160a01b0316600482015291829060249082905afa90811561108757600091614e29575b5090600191614e228289614cb3565b5201614d2a565b906020823d8211614e53575b81614e4260209383614779565b8101031261155a5750516001614e13565b3d9150614e35565b906020823d8211614e84575b81614e7460209383614779565b8101031261155a57505138614da2565b3d9150614e67565b5050602060405191614e9e8284614779565b60008352600036813760405192614eb58385614779565b60008452600036813760405192614ecc8185614779565b60008452506000368137929190565b60609060208152600360208201526244414f60e81b60408201520190565b9192821561505357604051630f6dd15560e41b8152600481018490529293600090849060249082906001600160a01b03165afa92831561108757600093615036575b5060c0830151156150255760405163c978d8a560e01b81526001600160a01b03838116600483015260248201959095529360209185916044918391165afa92831561108757600093614ff1575b5060e08201516001600160a01b039182169116149081614fe6575b6101000151421015614fcf575060038114159081614fc3575b506121f357565b60049150141538614fbc565b905061496d5763ea8e4eb560e01b60005260046000fd5b600383149150614fa3565b90926020823d60201161501d575b8161500c60209383614779565b8101031261155a5750519138614f88565b3d9150614fff565b630245e10f60e51b60005260046000fd5b61504c9193503d806000833e6111b08183614779565b9138614f3b565b604051638da5cb5b60e01b81529193509091506001600160a01b0316602082600481845afa918215611087576000926151a6575b506040516362d4106760e11b81526001600160a01b039093166004840181905291602084602481855afa93841561108757600094615172575b5060206040518093632ee325db60e21b825281806150e060048201614edb565b03915afa91821561108757600092615136575b506001600160a01b0316821415928361512a575b5082615116575b50506121f357565b6001600160a01b031614159050388061510e565b60011415925038615107565b9091506020813d60201161516a575b8161515260209383614779565b810103126101f45761516390614988565b90386150f3565b3d9150615145565b9093506020813d60201161519e575b8161518e60209383614779565b810103126101f4575192386150c0565b3d9150615181565b9091506020813d6020116151da575b816151c260209383614779565b810103126101f4576151d390614988565b9038615087565b3d91506151b5565b60405163074ced8760e41b815290916001600160a01b031690602081600481855afa9081156110875760009161531e575b5042101561529157602060049160405192838092638da5cb5b60e01b82525afa90811561108757600091615257575b506001600160a01b039081169116036121f357565b90506020813d602011615289575b8161527260209383614779565b810103126101f45761528390614988565b38615242565b3d9150615265565b60206040518092632ee325db60e21b825281806152b060048201614edb565b03915afa908115611087576000916152e4575b506001600160a01b0316908115611a2a576001600160a01b03160361211557565b90506020813d602011615316575b816152ff60209383614779565b810103126101f45761531090614988565b386152c3565b3d91506152f2565b90506020813d602011615348575b8161533960209383614779565b810103126101f4575138615213565b3d915061532c565b6001600160a01b03168015615392576040516318160ddd60e01b8152602081600481855afa90816153d3575b50615392576356e7ec5f60e01b60005260046000fd5b8060005261016e6020526040600020600160ff198254161790557fa317c10673baf4f03b3c1041bd5ddbb537d0333a86fec3607c75f9dbb630f48f600080a2565b6020813d6020116153fa575b816153ec60209383614779565b810103126101f4575161537c565b3d91506153df565b603380546001600160a01b039283166001600160a01b0319821681179092559091167f8be0079c531659141344cd1fd0a4f28419497f9722a3daafe3b4186f6b6457e0600080a3565b1561545257565b60405162461bcd60e51b815260206004820152602b60248201527f496e697469616c697a61626c653a20636f6e7472616374206973206e6f74206960448201526a6e697469616c697a696e6760a81b6064820152608490fd5b60001981146107d45760010190565b60015b6103e88111156154ce575050600090565b8060005261016560205281600160406000200154148061550f575b6154fb576154f6906154ab565b6154bd565b905060005261016560205260406000205490565b508060005261016560205260406000205415156154e9565b818102929181159184041417156107d457565b60ff16604d81116107d457600a0a90565b8115615555570490565b634e487b7160e01b600052601260045260246000fd5b60ff166012039060ff82116107d457565b60ff6011199116019060ff82116107d457565b9060ff8091169116039060ff82116107d457565b919082018092116107d457565b60005b60048201805482101561196e57816155ca91614c7e565b90549060031b1c421015806155fc575b6155e6576001016155b3565b60066155f29201614c7e565b90549060031b1c90565b5061560a8160058401614c7e565b90549060031b1c4211156155da565b60405163725c9c4960e01b81529192909190602090829060049082906001600160a01b03165afa90811561108757600091615a7f575b5060405163c45a015560e01b815290602090829060049082906001600160a01b03165afa90811561108757600091615a45575b50600282015460098301546001600160a01b03908116926156ec926020921684811091908215615a3e5780925b15615a38575084915b60405163e6a4390560e01b81526001600160a01b039182166004820152921660248301529092839190829081906044820190565b03916001600160a01b03165afa908115611087576000916159fe575b506001600160a01b0316908115801561599f575b6158de57604051630240bc6b60e21b815290606082600481865afa908115611087576000926000926158a2575b5060206004939460405194858092630dfe168160e01b82525afa801561108757600090615868575b6001600160a01b03161492600f925083156158615780935b156158595750925b01546157d460ff6157ba818416946001600160701b036157b36129888861556b565b9116615527565b9260081c16936001600160701b036157b36129888761556b565b93670de0b6b3a7640000820291808304670de0b6b3a764000014901517156107d4576104ae6158096148079661580f9461554b565b9461553a565b908260128203615821575b505061554b565b919250906012821115615845576104ae61298861583d9361557c565b90388061581a565b6129666129886158549361556b565b61583d565b905092615791565b8193615789565b506020833d60201161589a575b8161588260209383614779565b810103126101f457615895600f93614988565b615771565b3d9150615875565b6004935060209492506158cc9060603d6060116158d7575b6158c48183614779565b810190615f7d565b509294909350615749565b503d6158ba565b5050614807916158ed826155b0565b91600f829101549260ff84169060128214159384615967575b508093615928575b50506104ae60ff615923939460081c1661553a565b61554b565b61592393506104ae9160ff9160128211156159535761296661298861594c9361557c565b935061590e565b6104ae6129886159629361556b565b61594c565b909250601282111561598a57615983906129666129888461557c565b9138615906565b61599a906104ae6129888461556b565b615983565b506040516318160ddd60e01b8152602081600481865afa908115611087576000916159cc575b501561571c565b90506020813d6020116159f6575b816159e760209383614779565b810103126101f45751386159c5565b3d91506159da565b90506020813d602011615a30575b81615a1960209383614779565b810103126101f457615a2a90614988565b38615708565b3d9150615a0c565b916156b8565b85926156af565b90506020813d602011615a77575b81615a6060209383614779565b810103126101f457615a7190614988565b38615682565b3d9150615a53565b90506020813d602011615ab6575b81615a9a60209383614779565b810103126101f4576020615aaf600492614988565b915061564f565b3d9150615a8d565b60405163c45a015560e01b81529091602090829060049082906001600160a01b03165afa90811561108757600091615e2a575b50600282015460098301546001600160a01b0390811692615b4e9260209285929116828111615e225760405163e6a4390560e01b81526001600160a01b039182166004820152921660248301529092839190829081906044820190565b03916001600160a01b03165afa90811561108757600091615de8575b506001600160a01b03169283158015615d89575b615d3d57604051630240bc6b60e21b815292606084600481885afa90811561108757600094600092615d0f575b506020600494959660405195868092630dfe168160e01b82525afa93841561108757600094615cc7575b50615c3491600f615c1f9201549560ff8088169760081c169560018060a01b0316149687600014615cc05780975b15615cb85750955b6001600160701b036157b36129888861556b565b946001600160701b036157b36129888661556b565b91670de0b6b3a7640000850294808604670de0b6b3a764000014901517156107d457615c66615923936148079661554b565b938260128203615c7c575b50506104ae9061553a565b6104ae92935060128211600014615ca457612966612988615c9c9361557c565b919038615c71565b6104ae612988615cb39361556b565b615c9c565b905095615c0b565b8197615c03565b9093506020813d602011615d07575b81615ce360209383614779565b810103126101f457615c3491600f615cfd615c1f93614988565b9592505091615bd5565b3d9150615cd6565b60049495506020969250615d319060603d6060116158d7576158c48183614779565b50929690959450615bab565b91809350615d4b91506155b0565b9081156107ea5761480792600f829101549260ff84169060128214159384615967575080936159285750506104ae60ff615923939460081c1661553a565b506040516318160ddd60e01b8152602081600481885afa90811561108757600091615db6575b5015615b7e565b90506020813d602011615de0575b81615dd160209383614779565b810103126101f4575138615daf565b3d9150615dc4565b90506020813d602011615e1a575b81615e0360209383614779565b810103126101f457615e1490614988565b38615b6a565b3d9150615df6565b9150846156b8565b90506020813d602011615e5c575b81615e4560209383614779565b810103126101f457615e5690614988565b38615af1565b3d9150615e38565b6020818303126101f4578051906001600160401b0382116101f457019060c0828203126101f45760405191615e9883614743565b615ea181614988565b8352615eaf60208201614988565b60208401526040810151604084015260608101516001600160401b0381116101f45760a092615edf9183016149aa565b6060840152615ef060808201614988565b6080840152015160a082015290565b3d15615f2a573d90615f108261479a565b91615f1e6040519384614779565b82523d6000602084013e565b606090565b818110615f3a575050565b60008155600101615f2f565b91818110615f5357505050565b61496d9260005260206000209182019101615f2f565b51906001600160701b03821682036101f457565b908160609103126101f457615f9181615f69565b916040615fa060208401615f69565b92015163ffffffff811681036101f45790565b604051636eb1769f60e11b81523060048201526001600160a01b038481166024830152949594919091169190602081604481865afa908115611087576000916162ea575b50616258575b604051636eb1769f60e11b81523060048201526001600160a01b038481166024830152919091169290602081604481875afa90811561108757600091616226575b50616194575b60405163095ea7b360e01b81526001600160a01b03821660048201526024810186905291602090839060449082906000905af191821561108757849261614d575b50906160ea9260209260018060a01b0381168097604051908152600080516020616e85833981519152863092a360405163095ea7b360e01b81526001600160a01b03909116600482015260248101929092529092839190829060009082906044820190565b03925af1801561108757616116575b50604051908152600080516020616e8583398151915260203092a3565b6020813d602011616145575b8161612f60209383614779565b810103126101f457616140906149ec565b6160f9565b3d9150616122565b9091506020813d60201161618c575b8161616960209383614779565b810103126101f4576160ea9260209261618286936149ec565b5091925092616085565b3d915061615c565b60405163095ea7b360e01b815260018060a01b03821690816004820152600060248201526020816044816000895af18015611087576161ef575b5060405160008152600080516020616e8583398151915260203092a3616044565b6020813d60201161621e575b8161620860209383614779565b810103126101f457616219906149ec565b6161ce565b3d91506161fb565b90506020813d602011616250575b8161624160209383614779565b810103126101f457513861603e565b3d9150616234565b60405163095ea7b360e01b815260018060a01b03841690816004820152600060248201526020816044816000885af18015611087576162b3575b5060405160008152600080516020616e8583398151915260203092a3615ffd565b6020813d6020116162e2575b816162cc60209383614779565b810103126101f4576162dd906149ec565b616292565b3d91506162bf565b90506020813d602011616314575b8161630560209383614779565b810103126101f4575138615ff7565b3d91506162f8565b60405163ca709a2560e01b815293926001600160a01b039182169116602085600481845afa9485156110875760009561667e575b5060405163725c9c4960e01b815290602082600481845afa91821561108757600092616642575b506040516370a0823160e01b8152306004820152602081602481875afa801561108757859160009161660d575b50106165c55760405163095ea7b360e01b81526001600160a01b0383166004820152602481018590526020816044816000885af1908115611087576000916165d3575b50156165c557600060049160405194616401606087614779565b60028652604036602088013761641686614c96565b5261642085614ca3565b6001600160a01b0390981697889052604051632d77645f60e21b815292839182905afa908115611087576000916165aa575b50516001600160a01b0316924261012c8101939084106107d4576164ac6164c560009692879693879460405194859360208501986338ed173960e01b8a52602486015287604486015260a0606486015260c48501906146ce565b91608484015260a483015203601f198101835282614779565b51926001600160a01b03165af16164da615eff565b90156165a15780518101906020818184019303126101f4576020810151906001600160401b0382116101f457019080603f830112156101f45760208201516165218161480a565b9261652f6040519485614779565b8184526020808086019360051b830101019283116101f457604001905b8282106165915750505061655f90614ca3565b51917f63706707d038997d2210eb026bb1339397deab463921538a81bb98e69ee54ca86020604051858152a260019190565b815181526020918201910161654c565b50600091508190565b6165bf91503d806000833e6137d48183614779565b38616452565b505050509050600090600090565b90506020813d602011616605575b816165ee60209383614779565b810103126101f4576165ff906149ec565b386163e7565b3d91506165e1565b9150506020813d60201161663a575b8161662960209383614779565b810103126101f457849051386163a4565b3d915061661c565b9091506020813d602011616676575b8161665e60209383614779565b810103126101f45761666f90614988565b9038616377565b3d9150616651565b9094506020813d6020116166b2575b8161669a60209383614779565b810103126101f4576166ab90614988565b9338616350565b3d915061668d565b604051630f6dd15560e41b8152600481018290529192600090839060249082906001600160a01b03165afa918215611087576000926167e4575b5060c08201511561502557604051637e82cfd360e01b8152600481019190915291606090839060249082906001600160a01b03165afa9081156110875760009260009261678b575b50610120019160018060a01b03835116159182616767575b505061118a57516001600160a01b031690565b6001600160a01b03161591508115616782575b503880616754565b9050153861677a565b925090506060823d6060116167dc575b816167a860609383614779565b810103126101f4576101206167d560406167c1856149ec565b946167ce602082016149ec565b5001614988565b919061673c565b3d915061679b565b6167fa9192503d806000833e6111b08183614779565b90386166f456fe60e03461011957601f61068338819003918201601f19168301916001600160401b0383118484101761011e57808492606094604052833981010312610119578051906001600160a01b0382168203610119576020810151906001600160a01b0382168203610119576040015191428311156100b95760805260a05260c05260405161054e908161013582396080518181816061015261011d015260a05181818161017801526103f7015260c05181818160ad015260e30152f35b60405162461bcd60e51b815260206004820152603260248201527f546f6b656e54696d656c6f636b3a2072656c656173652074696d65206973206260448201527165666f72652063757272656e742074696d6560701b6064820152608490fd5b600080fd5b634e487b7160e01b600052604160045260246000fdfe608080604052600436101561001357600080fd5b60003560e01c90816338af3eed146103e45750806386d1a69f146100d0578063b91d4001146100955763fc0c546a1461004b57600080fd5b34610090576000366003190112610090576040517f00000000000000000000000000000000000000000000000000000000000000006001600160a01b03168152602090f35b600080fd5b346100905760003660031901126100905760206040517f00000000000000000000000000000000000000000000000000000000000000008152f35b34610090576000366003190112610090577f00000000000000000000000000000000000000000000000000000000000000004210610384576040516370a0823160e01b81523060048201527f00000000000000000000000000000000000000000000000000000000000000006001600160a01b0316602082602481845afa91821561037857600092610344575b5081156102f35760405163a9059cbb60e01b602082019081527f00000000000000000000000000000000000000000000000000000000000000006001600160a01b031660248301526044808301949094529281526101bc606482610426565b6000806040948551936101cf8786610426565b602085527f5361666545524332303a206c6f772d6c6576656c2063616c6c206661696c65646020860152519082865af13d156102e6573d9067ffffffffffffffff82116102d0578451610241949092610232601f8201601f191660200185610426565b83523d6000602085013e610448565b80519081159182156102ad575b50501561025757005b5162461bcd60e51b815260206004820152602a60248201527f5361666545524332303a204552433230206f7065726174696f6e20646964206e6044820152691bdd081cdd58d8d9595960b21b6064820152608490fd5b81925090602091810103126100905760200151801515810361009057828061024e565b634e487b7160e01b600052604160045260246000fd5b9161024192606091610448565b60405162461bcd60e51b815260206004820152602360248201527f546f6b656e54696d656c6f636b3a206e6f20746f6b656e7320746f2072656c6560448201526261736560e81b6064820152608490fd5b9091506020813d602011610370575b8161036060209383610426565b810103126100905751908261015d565b3d9150610353565b6040513d6000823e3d90fd5b60405162461bcd60e51b815260206004820152603260248201527f546f6b656e54696d656c6f636b3a2063757272656e742074696d65206973206260448201527165666f72652072656c656173652074696d6560701b6064820152608490fd5b34610090576000366003190112610090577f00000000000000000000000000000000000000000000000000000000000000006001600160a01b03168152602090f35b90601f8019910116810190811067ffffffffffffffff8211176102d057604052565b919290156104aa575081511561045c575090565b3b156104655790565b60405162461bcd60e51b815260206004820152601d60248201527f416464726573733a2063616c6c20746f206e6f6e2d636f6e74726163740000006044820152606490fd5b8251909150156104bd5750805190602001fd5b6040519062461bcd60e51b8252602060048301528181519182602483015260005b8381106105005750508160006044809484010152601f80199101168101030190fd5b602082820181015160448784010152859350016104de56fea264697066735822122094f11ed52becc236587cac8f43f48c3d2564e53605ef0c32a8b60769314d57f064736f6c634300081c003301f3a879bb866a84980d9f0f4cac359829ac2931414fe8dfd17a7b12eecdeaf5a2646970667358221220f861e886d85f49708bb3e218a777495025b854f7d1300d674fa1b99ae8f1f1e064736f6c634300081c0033",
  "linkReferences": {},
  "deployedLinkReferences": {}
}