{
  "_format": "hh-sol-artifact-1",
  "contractName": "VanellixLaunchpad",
  "sourceName": "contracts/VanellixLaunchpad.sol",
  "abi": [
    {
      "inputs": [],
      "name": "AccountAlreadyAssignedGlobalRole",
      "type": "error"
    },
    {
      "inputs": [],
      "name": "AccountAlreadyOwnsCompany",
      "type": "error"
    },
    {
      "inputs": [],
      "name": "AccountBelongsToCompany",
      "type": "error"
    },
    {
      "inputs": [],
      "name": "BurnWalletAlreadyConfigured",
      "type": "error"
    },
    {
      "inputs": [],
      "name": "BurnWalletNotConfigured",
      "type": "error"
    },
    {
      "inputs": [],
      "name": "CompanyIdAlreadyAssigned",
      "type": "error"
    },
    {
      "inputs": [],
      "name": "CompanyOwnerCannotHaveOtherRoles",
      "type": "error"
    },
    {
      "inputs": [],
      "name": "ConsiglioSaporisAlreadyAssigned",
      "type": "error"
    },
    {
      "inputs": [],
      "name": "DelayNotPassed",
      "type": "error"
    },
    {
      "inputs": [],
      "name": "DirectPauseDisabled",
      "type": "error"
    },
    {
      "inputs": [],
      "name": "DirectUnpauseDisabled",
      "type": "error"
    },
    {
      "inputs": [],
      "name": "DominusCannotAssignLevel3",
      "type": "error"
    },
    {
      "inputs": [],
      "name": "DominusSaporisAlreadyAssigned",
      "type": "error"
    },
    {
      "inputs": [],
      "name": "ExceedsMaxRoleLevel",
      "type": "error"
    },
    {
      "inputs": [],
      "name": "InsufficientPermission",
      "type": "error"
    },
    {
      "inputs": [],
      "name": "InvalidAddress",
      "type": "error"
    },
    {
      "inputs": [],
      "name": "InvalidAmount",
      "type": "error"
    },
    {
      "inputs": [],
      "name": "InvalidBurnVault",
      "type": "error"
    },
    {
      "inputs": [],
      "name": "InvalidCompanyRoleLevel",
      "type": "error"
    },
    {
      "inputs": [],
      "name": "InvalidFeeToken",
      "type": "error"
    },
    {
      "inputs": [],
      "name": "InvalidRoleForCompanyAssignment",
      "type": "error"
    },
    {
      "inputs": [],
      "name": "InvalidRoleForGlobalAssignment",
      "type": "error"
    },
    {
      "inputs": [],
      "name": "InvalidTransitionPeriod",
      "type": "error"
    },
    {
      "inputs": [],
      "name": "LaunchpadNotConfigured",
      "type": "error"
    },
    {
      "inputs": [],
      "name": "NameRequired",
      "type": "error"
    },
    {
      "inputs": [],
      "name": "NewMaxTooLow",
      "type": "error"
    },
    {
      "inputs": [],
      "name": "NoPendingRequest",
      "type": "error"
    },
    {
      "inputs": [],
      "name": "NoPendingTransfer",
      "type": "error"
    },
    {
      "inputs": [],
      "name": "NotAcceptedContract",
      "type": "error"
    },
    {
      "inputs": [],
      "name": "NotAuthorized",
      "type": "error"
    },
    {
      "inputs": [],
      "name": "NotCompanyMember",
      "type": "error"
    },
    {
      "inputs": [],
      "name": "NotCompanySegment",
      "type": "error"
    },
    {
      "inputs": [],
      "name": "NotOwnerNorAdmin",
      "type": "error"
    },
    {
      "inputs": [],
      "name": "OnlyConsiglioOrGlobalAdmin",
      "type": "error"
    },
    {
      "inputs": [],
      "name": "PendingRequestAlreadyExists",
      "type": "error"
    },
    {
      "inputs": [],
      "name": "RenounceOwnershipDisabled",
      "type": "error"
    },
    {
      "inputs": [],
      "name": "RoleDoesNotExist",
      "type": "error"
    },
    {
      "inputs": [],
      "name": "TokenAlreadyFinalized",
      "type": "error"
    },
    {
      "inputs": [],
      "name": "TokenLimitReached",
      "type": "error"
    },
    {
      "inputs": [],
      "name": "TransferDelayNotPassed",
      "type": "error"
    },
    {
      "inputs": [],
      "name": "TransferOwnershipDirectDisabled",
      "type": "error"
    },
    {
      "inputs": [],
      "name": "UnauthorizedCaller",
      "type": "error"
    },
    {
      "inputs": [],
      "name": "UpgradeToAndCallDisabled",
      "type": "error"
    },
    {
      "inputs": [],
      "name": "UpgradeToDisabled",
      "type": "error"
    },
    {
      "inputs": [],
      "name": "ZeroAddress",
      "type": "error"
    },
    {
      "anonymous": false,
      "inputs": [
        {
          "indexed": false,
          "internalType": "address",
          "name": "previousAdmin",
          "type": "address"
        },
        {
          "indexed": false,
          "internalType": "address",
          "name": "newAdmin",
          "type": "address"
        }
      ],
      "name": "AdminChanged",
      "type": "event"
    },
    {
      "anonymous": false,
      "inputs": [
        {
          "indexed": true,
          "internalType": "address",
          "name": "beacon",
          "type": "address"
        }
      ],
      "name": "BeaconUpgraded",
      "type": "event"
    },
    {
      "anonymous": false,
      "inputs": [
        {
          "indexed": true,
          "internalType": "string",
          "name": "segment",
          "type": "string"
        },
        {
          "indexed": true,
          "internalType": "address",
          "name": "contractAddress",
          "type": "address"
        },
        {
          "indexed": true,
          "internalType": "address",
          "name": "setBy",
          "type": "address"
        }
      ],
      "name": "ContractSet",
      "type": "event"
    },
    {
      "anonymous": false,
      "inputs": [
        {
          "indexed": false,
          "internalType": "uint256",
          "name": "percentage",
          "type": "uint256"
        }
      ],
      "name": "FeePercentageSet",
      "type": "event"
    },
    {
      "anonymous": false,
      "inputs": [
        {
          "indexed": true,
          "internalType": "address",
          "name": "token",
          "type": "address"
        }
      ],
      "name": "FeeTokenSet",
      "type": "event"
    },
    {
      "anonymous": false,
      "inputs": [
        {
          "indexed": false,
          "internalType": "uint8",
          "name": "version",
          "type": "uint8"
        }
      ],
      "name": "Initialized",
      "type": "event"
    },
    {
      "anonymous": false,
      "inputs": [
        {
          "indexed": false,
          "internalType": "address",
          "name": "newImplementation",
          "type": "address"
        }
      ],
      "name": "LaunchpadUpgradeAccepted",
      "type": "event"
    },
    {
      "anonymous": false,
      "inputs": [],
      "name": "LaunchpadUpgradeCancelled",
      "type": "event"
    },
    {
      "anonymous": false,
      "inputs": [
        {
          "indexed": false,
          "internalType": "address",
          "name": "newImplementation",
          "type": "address"
        },
        {
          "indexed": false,
          "internalType": "uint256",
          "name": "timestamp",
          "type": "uint256"
        },
        {
          "indexed": true,
          "internalType": "address",
          "name": "assignedBy",
          "type": "address"
        }
      ],
      "name": "LaunchpadUpgradeProposed",
      "type": "event"
    },
    {
      "anonymous": false,
      "inputs": [
        {
          "indexed": true,
          "internalType": "address",
          "name": "currentOwner",
          "type": "address"
        }
      ],
      "name": "OwnershipTransferCancelled",
      "type": "event"
    },
    {
      "anonymous": false,
      "inputs": [
        {
          "indexed": true,
          "internalType": "address",
          "name": "previousOwner",
          "type": "address"
        },
        {
          "indexed": true,
          "internalType": "address",
          "name": "newOwner",
          "type": "address"
        }
      ],
      "name": "OwnershipTransferCompleted",
      "type": "event"
    },
    {
      "anonymous": false,
      "inputs": [
        {
          "indexed": true,
          "internalType": "address",
          "name": "currentOwner",
          "type": "address"
        },
        {
          "indexed": true,
          "internalType": "address",
          "name": "pendingOwner",
          "type": "address"
        },
        {
          "indexed": false,
          "internalType": "uint256",
          "name": "requestTime",
          "type": "uint256"
        }
      ],
      "name": "OwnershipTransferRequested",
      "type": "event"
    },
    {
      "anonymous": false,
      "inputs": [
        {
          "indexed": true,
          "internalType": "address",
          "name": "previousOwner",
          "type": "address"
        },
        {
          "indexed": true,
          "internalType": "address",
          "name": "newOwner",
          "type": "address"
        }
      ],
      "name": "OwnershipTransferred",
      "type": "event"
    },
    {
      "anonymous": false,
      "inputs": [
        {
          "indexed": false,
          "internalType": "address",
          "name": "account",
          "type": "address"
        }
      ],
      "name": "Paused",
      "type": "event"
    },
    {
      "anonymous": false,
      "inputs": [
        {
          "indexed": true,
          "internalType": "address",
          "name": "vault",
          "type": "address"
        }
      ],
      "name": "PyreVaultIgnited",
      "type": "event"
    },
    {
      "anonymous": false,
      "inputs": [
        {
          "indexed": false,
          "internalType": "string",
          "name": "roleName",
          "type": "string"
        },
        {
          "indexed": true,
          "internalType": "address",
          "name": "account",
          "type": "address"
        },
        {
          "indexed": true,
          "internalType": "address",
          "name": "assignedBy",
          "type": "address"
        }
      ],
      "name": "RoleAssignedHierarchical",
      "type": "event"
    },
    {
      "anonymous": false,
      "inputs": [
        {
          "indexed": false,
          "internalType": "string",
          "name": "roleName",
          "type": "string"
        },
        {
          "indexed": true,
          "internalType": "address",
          "name": "account",
          "type": "address"
        },
        {
          "indexed": true,
          "internalType": "address",
          "name": "assignedBy",
          "type": "address"
        },
        {
          "indexed": false,
          "internalType": "uint256",
          "name": "companyId",
          "type": "uint256"
        }
      ],
      "name": "RoleAssignedHierarchicalCompany",
      "type": "event"
    },
    {
      "anonymous": false,
      "inputs": [
        {
          "indexed": false,
          "internalType": "string",
          "name": "roleName",
          "type": "string"
        },
        {
          "indexed": false,
          "internalType": "bytes32",
          "name": "role",
          "type": "bytes32"
        }
      ],
      "name": "RoleCreated",
      "type": "event"
    },
    {
      "anonymous": false,
      "inputs": [
        {
          "indexed": true,
          "internalType": "bytes32",
          "name": "role",
          "type": "bytes32"
        },
        {
          "indexed": true,
          "internalType": "address",
          "name": "account",
          "type": "address"
        },
        {
          "indexed": true,
          "internalType": "address",
          "name": "revokedBy",
          "type": "address"
        }
      ],
      "name": "RoleRevoked",
      "type": "event"
    },
    {
      "anonymous": false,
      "inputs": [
        {
          "indexed": true,
          "internalType": "string",
          "name": "name",
          "type": "string"
        },
        {
          "indexed": true,
          "internalType": "address",
          "name": "router",
          "type": "address"
        },
        {
          "indexed": true,
          "internalType": "address",
          "name": "factory",
          "type": "address"
        }
      ],
      "name": "SwapRouterSet",
      "type": "event"
    },
    {
      "anonymous": false,
      "inputs": [
        {
          "indexed": false,
          "internalType": "uint256",
          "name": "amount",
          "type": "uint256"
        },
        {
          "indexed": true,
          "internalType": "address",
          "name": "token",
          "type": "address"
        },
        {
          "indexed": true,
          "internalType": "uint256",
          "name": "companyId",
          "type": "uint256"
        }
      ],
      "name": "TokensBurned",
      "type": "event"
    },
    {
      "anonymous": false,
      "inputs": [
        {
          "indexed": false,
          "internalType": "address",
          "name": "account",
          "type": "address"
        }
      ],
      "name": "Unpaused",
      "type": "event"
    },
    {
      "anonymous": false,
      "inputs": [
        {
          "indexed": true,
          "internalType": "address",
          "name": "proxy",
          "type": "address"
        },
        {
          "indexed": false,
          "internalType": "address",
          "name": "newImplementation",
          "type": "address"
        }
      ],
      "name": "UpgradeAccepted",
      "type": "event"
    },
    {
      "anonymous": false,
      "inputs": [
        {
          "indexed": true,
          "internalType": "address",
          "name": "proxy",
          "type": "address"
        }
      ],
      "name": "UpgradeCancelled",
      "type": "event"
    },
    {
      "anonymous": false,
      "inputs": [
        {
          "indexed": true,
          "internalType": "address",
          "name": "proxy",
          "type": "address"
        },
        {
          "indexed": false,
          "internalType": "address",
          "name": "newImplementation",
          "type": "address"
        },
        {
          "indexed": false,
          "internalType": "uint256",
          "name": "timestamp",
          "type": "uint256"
        },
        {
          "indexed": true,
          "internalType": "address",
          "name": "assignedBy",
          "type": "address"
        }
      ],
      "name": "UpgradeProposed",
      "type": "event"
    },
    {
      "anonymous": false,
      "inputs": [
        {
          "indexed": true,
          "internalType": "address",
          "name": "implementation",
          "type": "address"
        }
      ],
      "name": "Upgraded",
      "type": "event"
    },
    {
      "anonymous": false,
      "inputs": [
        {
          "indexed": true,
          "internalType": "address",
          "name": "vault",
          "type": "address"
        }
      ],
      "name": "VaultIgnitionCancelled",
      "type": "event"
    },
    {
      "anonymous": false,
      "inputs": [
        {
          "indexed": true,
          "internalType": "address",
          "name": "vault",
          "type": "address"
        },
        {
          "indexed": false,
          "internalType": "uint256",
          "name": "timestamp",
          "type": "uint256"
        }
      ],
      "name": "VaultIgnitionRequested",
      "type": "event"
    },
    {
      "inputs": [
        {
          "internalType": "address",
          "name": "proxy",
          "type": "address"
        }
      ],
      "name": "acceptEmergencyChildUpgrade",
      "outputs": [],
      "stateMutability": "nonpayable",
      "type": "function"
    },
    {
      "inputs": [
        {
          "internalType": "address",
          "name": "newImplementation",
          "type": "address"
        }
      ],
      "name": "acceptEmergencyLaunchpadUpgrade",
      "outputs": [],
      "stateMutability": "nonpayable",
      "type": "function"
    },
    {
      "inputs": [],
      "name": "acceptLaunchpadUpgrade",
      "outputs": [],
      "stateMutability": "nonpayable",
      "type": "function"
    },
    {
      "inputs": [
        {
          "internalType": "address",
          "name": "proxy",
          "type": "address"
        }
      ],
      "name": "acceptUpgrade",
      "outputs": [],
      "stateMutability": "nonpayable",
      "type": "function"
    },
    {
      "inputs": [
        {
          "internalType": "address",
          "name": "vault",
          "type": "address"
        }
      ],
      "name": "activateBurnVault",
      "outputs": [],
      "stateMutability": "nonpayable",
      "type": "function"
    },
    {
      "inputs": [
        {
          "internalType": "uint256",
          "name": "companyId",
          "type": "uint256"
        },
        {
          "internalType": "bytes32",
          "name": "role",
          "type": "bytes32"
        },
        {
          "internalType": "uint256",
          "name": "roleLevel",
          "type": "uint256"
        },
        {
          "internalType": "address",
          "name": "account",
          "type": "address"
        },
        {
          "internalType": "address",
          "name": "assignedBy",
          "type": "address"
        },
        {
          "internalType": "string",
          "name": "roleName",
          "type": "string"
        }
      ],
      "name": "assignCompanyRole",
      "outputs": [],
      "stateMutability": "nonpayable",
      "type": "function"
    },
    {
      "inputs": [
        {
          "internalType": "string",
          "name": "roleName",
          "type": "string"
        },
        {
          "internalType": "address",
          "name": "account",
          "type": "address"
        },
        {
          "internalType": "uint256",
          "name": "roleLevel",
          "type": "uint256"
        }
      ],
      "name": "assignVanellixRole",
      "outputs": [],
      "stateMutability": "nonpayable",
      "type": "function"
    },
    {
      "inputs": [
        {
          "internalType": "address",
          "name": "tokenSale",
          "type": "address"
        },
        {
          "internalType": "address",
          "name": "feeTokenParam",
          "type": "address"
        },
        {
          "internalType": "uint256",
          "name": "totalTransactionAmount",
          "type": "uint256"
        },
        {
          "internalType": "address",
          "name": "sender",
          "type": "address"
        },
        {
          "internalType": "uint256",
          "name": "companyId",
          "type": "uint256"
        }
      ],
      "name": "burnFees",
      "outputs": [
        {
          "internalType": "uint256",
          "name": "",
          "type": "uint256"
        }
      ],
      "stateMutability": "nonpayable",
      "type": "function"
    },
    {
      "inputs": [
        {
          "internalType": "address",
          "name": "proxy",
          "type": "address"
        }
      ],
      "name": "cancelEmergencyChildUpgrade",
      "outputs": [],
      "stateMutability": "nonpayable",
      "type": "function"
    },
    {
      "inputs": [
        {
          "internalType": "address",
          "name": "newImplementation",
          "type": "address"
        }
      ],
      "name": "cancelEmergencyLaunchpadUpgrade",
      "outputs": [],
      "stateMutability": "nonpayable",
      "type": "function"
    },
    {
      "inputs": [],
      "name": "cancelLaunchpadUpgrade",
      "outputs": [],
      "stateMutability": "nonpayable",
      "type": "function"
    },
    {
      "inputs": [],
      "name": "cancelOwnershipTransfer",
      "outputs": [],
      "stateMutability": "nonpayable",
      "type": "function"
    },
    {
      "inputs": [
        {
          "internalType": "address",
          "name": "proxy",
          "type": "address"
        }
      ],
      "name": "cancelUpgrade",
      "outputs": [],
      "stateMutability": "nonpayable",
      "type": "function"
    },
    {
      "inputs": [
        {
          "internalType": "address",
          "name": "vault",
          "type": "address"
        }
      ],
      "name": "cancelVaultUpdate",
      "outputs": [],
      "stateMutability": "nonpayable",
      "type": "function"
    },
    {
      "inputs": [
        {
          "internalType": "address",
          "name": "account",
          "type": "address"
        }
      ],
      "name": "companyIdOwned",
      "outputs": [
        {
          "internalType": "uint256",
          "name": "",
          "type": "uint256"
        }
      ],
      "stateMutability": "view",
      "type": "function"
    },
    {
      "inputs": [
        {
          "internalType": "address",
          "name": "account",
          "type": "address"
        }
      ],
      "name": "companyIdsByUser",
      "outputs": [
        {
          "internalType": "uint256[]",
          "name": "",
          "type": "uint256[]"
        }
      ],
      "stateMutability": "view",
      "type": "function"
    },
    {
      "inputs": [
        {
          "internalType": "uint256",
          "name": "companyId",
          "type": "uint256"
        }
      ],
      "name": "companyOwners",
      "outputs": [
        {
          "internalType": "address",
          "name": "",
          "type": "address"
        }
      ],
      "stateMutability": "view",
      "type": "function"
    },
    {
      "inputs": [
        {
          "internalType": "address",
          "name": "account",
          "type": "address"
        },
        {
          "internalType": "uint256",
          "name": "companyId",
          "type": "uint256"
        }
      ],
      "name": "companyUserRoles",
      "outputs": [
        {
          "components": [
            {
              "internalType": "uint256",
              "name": "companyId",
              "type": "uint256"
            },
            {
              "internalType": "address",
              "name": "wallet",
              "type": "address"
            },
            {
              "internalType": "bytes32",
              "name": "role",
              "type": "bytes32"
            },
            {
              "internalType": "uint256",
              "name": "roleLevel",
              "type": "uint256"
            },
            {
              "internalType": "address",
              "name": "assignedBy",
              "type": "address"
            },
            {
              "internalType": "bool",
              "name": "isActive",
              "type": "bool"
            }
          ],
          "internalType": "struct GlobalStructs.CompanyUserRole",
          "name": "",
          "type": "tuple"
        }
      ],
      "stateMutability": "view",
      "type": "function"
    },
    {
      "inputs": [],
      "name": "completeOwnershipTransfer",
      "outputs": [],
      "stateMutability": "nonpayable",
      "type": "function"
    },
    {
      "inputs": [
        {
          "internalType": "address",
          "name": "vault",
          "type": "address"
        }
      ],
      "name": "confirmVaultUpdate",
      "outputs": [],
      "stateMutability": "nonpayable",
      "type": "function"
    },
    {
      "inputs": [
        {
          "internalType": "string",
          "name": "roleName",
          "type": "string"
        },
        {
          "internalType": "uint256",
          "name": "level",
          "type": "uint256"
        }
      ],
      "name": "createGlobalRole",
      "outputs": [
        {
          "internalType": "bytes32",
          "name": "",
          "type": "bytes32"
        }
      ],
      "stateMutability": "nonpayable",
      "type": "function"
    },
    {
      "inputs": [],
      "name": "daoTransitionTimestamp",
      "outputs": [
        {
          "internalType": "uint256",
          "name": "",
          "type": "uint256"
        }
      ],
      "stateMutability": "view",
      "type": "function"
    },
    {
      "inputs": [
        {
          "internalType": "address",
          "name": "proxy",
          "type": "address"
        },
        {
          "internalType": "address",
          "name": "newImplementation",
          "type": "address"
        }
      ],
      "name": "emergencyProposeChildUpgrade",
      "outputs": [],
      "stateMutability": "nonpayable",
      "type": "function"
    },
    {
      "inputs": [
        {
          "internalType": "address",
          "name": "newImplementation",
          "type": "address"
        }
      ],
      "name": "emergencyProposeLaunchpadUpgrade",
      "outputs": [],
      "stateMutability": "nonpayable",
      "type": "function"
    },
    {
      "inputs": [],
      "name": "feePercentage",
      "outputs": [
        {
          "internalType": "uint256",
          "name": "",
          "type": "uint256"
        }
      ],
      "stateMutability": "view",
      "type": "function"
    },
    {
      "inputs": [],
      "name": "feeToken",
      "outputs": [
        {
          "internalType": "address",
          "name": "",
          "type": "address"
        }
      ],
      "stateMutability": "view",
      "type": "function"
    },
    {
      "inputs": [],
      "name": "getAdminRole",
      "outputs": [
        {
          "internalType": "bytes32",
          "name": "",
          "type": "bytes32"
        }
      ],
      "stateMutability": "view",
      "type": "function"
    },
    {
      "inputs": [],
      "name": "getBurnVaultDetails",
      "outputs": [
        {
          "components": [
            {
              "internalType": "address",
              "name": "wallet",
              "type": "address"
            },
            {
              "internalType": "address",
              "name": "commissionToken",
              "type": "address"
            },
            {
              "internalType": "uint256",
              "name": "commissionPercentage",
              "type": "uint256"
            },
            {
              "internalType": "string",
              "name": "status",
              "type": "string"
            },
            {
              "internalType": "address",
              "name": "comparisonToken",
              "type": "address"
            },
            {
              "internalType": "uint256",
              "name": "burnTokenMinPrice",
              "type": "uint256"
            }
          ],
          "internalType": "struct GlobalStructs.BurnWalletDetail",
          "name": "",
          "type": "tuple"
        }
      ],
      "stateMutability": "view",
      "type": "function"
    },
    {
      "inputs": [
        {
          "internalType": "address",
          "name": "account",
          "type": "address"
        },
        {
          "internalType": "uint256",
          "name": "companyId",
          "type": "uint256"
        }
      ],
      "name": "getCompanyLevel",
      "outputs": [
        {
          "internalType": "uint256",
          "name": "",
          "type": "uint256"
        }
      ],
      "stateMutability": "view",
      "type": "function"
    },
    {
      "inputs": [],
      "name": "getDaoTransitionPeriod",
      "outputs": [
        {
          "internalType": "uint256",
          "name": "",
          "type": "uint256"
        }
      ],
      "stateMutability": "view",
      "type": "function"
    },
    {
      "inputs": [
        {
          "internalType": "string",
          "name": "roleName",
          "type": "string"
        }
      ],
      "name": "getDynamicRole",
      "outputs": [
        {
          "internalType": "bytes32",
          "name": "",
          "type": "bytes32"
        }
      ],
      "stateMutability": "view",
      "type": "function"
    },
    {
      "inputs": [
        {
          "internalType": "string",
          "name": "roleName",
          "type": "string"
        }
      ],
      "name": "getDynamicRoleLevel",
      "outputs": [
        {
          "internalType": "uint256",
          "name": "",
          "type": "uint256"
        }
      ],
      "stateMutability": "view",
      "type": "function"
    },
    {
      "inputs": [],
      "name": "getFeePercentage",
      "outputs": [
        {
          "internalType": "uint256",
          "name": "",
          "type": "uint256"
        }
      ],
      "stateMutability": "view",
      "type": "function"
    },
    {
      "inputs": [],
      "name": "getFeeToken",
      "outputs": [
        {
          "internalType": "address",
          "name": "",
          "type": "address"
        }
      ],
      "stateMutability": "view",
      "type": "function"
    },
    {
      "inputs": [
        {
          "internalType": "address",
          "name": "account",
          "type": "address"
        }
      ],
      "name": "getHighestRoleLevel",
      "outputs": [
        {
          "internalType": "uint256",
          "name": "",
          "type": "uint256"
        }
      ],
      "stateMutability": "view",
      "type": "function"
    },
    {
      "inputs": [],
      "name": "getImplementation",
      "outputs": [
        {
          "internalType": "address",
          "name": "",
          "type": "address"
        }
      ],
      "stateMutability": "view",
      "type": "function"
    },
    {
      "inputs": [],
      "name": "getLaunchpadAddress",
      "outputs": [
        {
          "internalType": "address",
          "name": "",
          "type": "address"
        }
      ],
      "stateMutability": "view",
      "type": "function"
    },
    {
      "inputs": [],
      "name": "getOwner",
      "outputs": [
        {
          "internalType": "address",
          "name": "",
          "type": "address"
        }
      ],
      "stateMutability": "view",
      "type": "function"
    },
    {
      "inputs": [],
      "name": "getOwnerLaunchpad",
      "outputs": [
        {
          "internalType": "address",
          "name": "",
          "type": "address"
        }
      ],
      "stateMutability": "view",
      "type": "function"
    },
    {
      "inputs": [],
      "name": "getPendingChanges",
      "outputs": [
        {
          "components": [
            {
              "internalType": "address",
              "name": "pendingOwner",
              "type": "address"
            },
            {
              "internalType": "uint256",
              "name": "ownershipTransferTimestamp",
              "type": "uint256"
            },
            {
              "components": [
                {
                  "internalType": "address",
                  "name": "wallet",
                  "type": "address"
                },
                {
                  "internalType": "uint256",
                  "name": "timestamp",
                  "type": "uint256"
                }
              ],
              "internalType": "struct GlobalStructs.PendingWalletChange[]",
              "name": "adminAdds",
              "type": "tuple[]"
            },
            {
              "components": [
                {
                  "internalType": "address",
                  "name": "wallet",
                  "type": "address"
                },
                {
                  "internalType": "uint256",
                  "name": "timestamp",
                  "type": "uint256"
                }
              ],
              "internalType": "struct GlobalStructs.PendingWalletChange[]",
              "name": "adminRems",
              "type": "tuple[]"
            },
            {
              "components": [
                {
                  "internalType": "address",
                  "name": "wallet",
                  "type": "address"
                },
                {
                  "internalType": "uint256",
                  "name": "timestamp",
                  "type": "uint256"
                }
              ],
              "internalType": "struct GlobalStructs.PendingWalletChange[]",
              "name": "burnAdds",
              "type": "tuple[]"
            },
            {
              "components": [
                {
                  "internalType": "address",
                  "name": "wallet",
                  "type": "address"
                },
                {
                  "internalType": "uint256",
                  "name": "timestamp",
                  "type": "uint256"
                }
              ],
              "internalType": "struct GlobalStructs.PendingWalletChange[]",
              "name": "burnRems",
              "type": "tuple[]"
            }
          ],
          "internalType": "struct GlobalStructs.PendingChanges",
          "name": "",
          "type": "tuple"
        }
      ],
      "stateMutability": "view",
      "type": "function"
    },
    {
      "inputs": [],
      "name": "getPendingUpgrade",
      "outputs": [
        {
          "internalType": "address",
          "name": "",
          "type": "address"
        }
      ],
      "stateMutability": "view",
      "type": "function"
    },
    {
      "inputs": [
        {
          "internalType": "address",
          "name": "vault",
          "type": "address"
        }
      ],
      "name": "getPendingVaultUpdateTime",
      "outputs": [
        {
          "internalType": "uint256",
          "name": "",
          "type": "uint256"
        }
      ],
      "stateMutability": "view",
      "type": "function"
    },
    {
      "inputs": [],
      "name": "getSwapRouter",
      "outputs": [
        {
          "internalType": "address",
          "name": "",
          "type": "address"
        }
      ],
      "stateMutability": "view",
      "type": "function"
    },
    {
      "inputs": [],
      "name": "getSwapRouterNFactory",
      "outputs": [
        {
          "components": [
            {
              "internalType": "string",
              "name": "name",
              "type": "string"
            },
            {
              "internalType": "address",
              "name": "router",
              "type": "address"
            },
            {
              "internalType": "address",
              "name": "factory",
              "type": "address"
            }
          ],
          "internalType": "struct GlobalStructs.SwapRouterNFactory",
          "name": "",
          "type": "tuple"
        }
      ],
      "stateMutability": "view",
      "type": "function"
    },
    {
      "inputs": [],
      "name": "getTimeRemainingForOwnershipTransfer",
      "outputs": [
        {
          "internalType": "uint256",
          "name": "",
          "type": "uint256"
        }
      ],
      "stateMutability": "view",
      "type": "function"
    },
    {
      "inputs": [],
      "name": "getVersion",
      "outputs": [
        {
          "internalType": "string",
          "name": "",
          "type": "string"
        }
      ],
      "stateMutability": "view",
      "type": "function"
    },
    {
      "inputs": [],
      "name": "initialize",
      "outputs": [],
      "stateMutability": "nonpayable",
      "type": "function"
    },
    {
      "inputs": [
        {
          "internalType": "address",
          "name": "vault",
          "type": "address"
        }
      ],
      "name": "isBurnVault",
      "outputs": [
        {
          "internalType": "bool",
          "name": "",
          "type": "bool"
        }
      ],
      "stateMutability": "view",
      "type": "function"
    },
    {
      "inputs": [],
      "name": "owner",
      "outputs": [
        {
          "internalType": "address",
          "name": "",
          "type": "address"
        }
      ],
      "stateMutability": "view",
      "type": "function"
    },
    {
      "inputs": [],
      "name": "pause",
      "outputs": [],
      "stateMutability": "nonpayable",
      "type": "function"
    },
    {
      "inputs": [
        {
          "internalType": "address",
          "name": "contractAddress",
          "type": "address"
        }
      ],
      "name": "pauseContract",
      "outputs": [],
      "stateMutability": "nonpayable",
      "type": "function"
    },
    {
      "inputs": [],
      "name": "paused",
      "outputs": [
        {
          "internalType": "bool",
          "name": "",
          "type": "bool"
        }
      ],
      "stateMutability": "view",
      "type": "function"
    },
    {
      "inputs": [
        {
          "internalType": "address",
          "name": "proxy",
          "type": "address"
        },
        {
          "internalType": "address",
          "name": "newImplementation",
          "type": "address"
        }
      ],
      "name": "proposeChildUpgrade",
      "outputs": [],
      "stateMutability": "nonpayable",
      "type": "function"
    },
    {
      "inputs": [
        {
          "internalType": "address",
          "name": "newImplementation",
          "type": "address"
        }
      ],
      "name": "proposeLaunchpadUpgrade",
      "outputs": [],
      "stateMutability": "nonpayable",
      "type": "function"
    },
    {
      "inputs": [],
      "name": "proxiableUUID",
      "outputs": [
        {
          "internalType": "bytes32",
          "name": "",
          "type": "bytes32"
        }
      ],
      "stateMutability": "view",
      "type": "function"
    },
    {
      "inputs": [],
      "name": "renounceOwnership",
      "outputs": [],
      "stateMutability": "nonpayable",
      "type": "function"
    },
    {
      "inputs": [
        {
          "internalType": "address",
          "name": "newOwner",
          "type": "address"
        }
      ],
      "name": "requestOwnershipTransfer",
      "outputs": [],
      "stateMutability": "nonpayable",
      "type": "function"
    },
    {
      "inputs": [
        {
          "internalType": "address",
          "name": "vault",
          "type": "address"
        }
      ],
      "name": "requestVaultUpdate",
      "outputs": [],
      "stateMutability": "nonpayable",
      "type": "function"
    },
    {
      "inputs": [
        {
          "internalType": "uint256",
          "name": "companyId",
          "type": "uint256"
        },
        {
          "internalType": "bytes32",
          "name": "role",
          "type": "bytes32"
        },
        {
          "internalType": "uint256",
          "name": "roleLevel",
          "type": "uint256"
        },
        {
          "internalType": "address",
          "name": "account",
          "type": "address"
        },
        {
          "internalType": "address",
          "name": "assignedBy",
          "type": "address"
        },
        {
          "internalType": "string",
          "name": "roleName",
          "type": "string"
        }
      ],
      "name": "revokeCompanyRole",
      "outputs": [],
      "stateMutability": "nonpayable",
      "type": "function"
    },
    {
      "inputs": [
        {
          "internalType": "bytes32",
          "name": "role",
          "type": "bytes32"
        },
        {
          "internalType": "uint256",
          "name": "roleLevel",
          "type": "uint256"
        },
        {
          "internalType": "address",
          "name": "account",
          "type": "address"
        },
        {
          "internalType": "string",
          "name": "roleName",
          "type": "string"
        }
      ],
      "name": "revokeVanellixRole",
      "outputs": [],
      "stateMutability": "nonpayable",
      "type": "function"
    },
    {
      "inputs": [
        {
          "internalType": "address",
          "name": "contractAddress",
          "type": "address"
        },
        {
          "internalType": "string",
          "name": "segment",
          "type": "string"
        }
      ],
      "name": "setContract",
      "outputs": [],
      "stateMutability": "nonpayable",
      "type": "function"
    },
    {
      "inputs": [
        {
          "internalType": "uint256",
          "name": "newPeriod",
          "type": "uint256"
        }
      ],
      "name": "setDaoTransitionPeriod",
      "outputs": [],
      "stateMutability": "nonpayable",
      "type": "function"
    },
    {
      "inputs": [
        {
          "internalType": "uint256",
          "name": "percentage",
          "type": "uint256"
        }
      ],
      "name": "setFeePercentage",
      "outputs": [],
      "stateMutability": "nonpayable",
      "type": "function"
    },
    {
      "inputs": [
        {
          "internalType": "address",
          "name": "token",
          "type": "address"
        }
      ],
      "name": "setFeeToken",
      "outputs": [],
      "stateMutability": "nonpayable",
      "type": "function"
    },
    {
      "inputs": [
        {
          "internalType": "uint256",
          "name": "newMax",
          "type": "uint256"
        }
      ],
      "name": "setMaxRoleLevel",
      "outputs": [],
      "stateMutability": "nonpayable",
      "type": "function"
    },
    {
      "inputs": [
        {
          "internalType": "string",
          "name": "name",
          "type": "string"
        },
        {
          "internalType": "address",
          "name": "router",
          "type": "address"
        },
        {
          "internalType": "address",
          "name": "forge",
          "type": "address"
        }
      ],
      "name": "setSwapRouter",
      "outputs": [],
      "stateMutability": "nonpayable",
      "type": "function"
    },
    {
      "inputs": [
        {
          "internalType": "bytes4",
          "name": "interfaceId",
          "type": "bytes4"
        }
      ],
      "name": "supportsInterface",
      "outputs": [
        {
          "internalType": "bool",
          "name": "",
          "type": "bool"
        }
      ],
      "stateMutability": "view",
      "type": "function"
    },
    {
      "inputs": [],
      "name": "swapRouterNFactory",
      "outputs": [
        {
          "internalType": "string",
          "name": "name",
          "type": "string"
        },
        {
          "internalType": "address",
          "name": "router",
          "type": "address"
        },
        {
          "internalType": "address",
          "name": "factory",
          "type": "address"
        }
      ],
      "stateMutability": "view",
      "type": "function"
    },
    {
      "inputs": [
        {
          "internalType": "address",
          "name": "",
          "type": "address"
        }
      ],
      "name": "transferOwnership",
      "outputs": [],
      "stateMutability": "nonpayable",
      "type": "function"
    },
    {
      "inputs": [],
      "name": "unpause",
      "outputs": [],
      "stateMutability": "nonpayable",
      "type": "function"
    },
    {
      "inputs": [
        {
          "internalType": "address",
          "name": "contractAddress",
          "type": "address"
        }
      ],
      "name": "unpauseContract",
      "outputs": [],
      "stateMutability": "nonpayable",
      "type": "function"
    },
    {
      "inputs": [
        {
          "internalType": "address",
          "name": "proxy",
          "type": "address"
        }
      ],
      "name": "upgradeProposals",
      "outputs": [
        {
          "internalType": "address",
          "name": "newImplementation",
          "type": "address"
        },
        {
          "internalType": "uint256",
          "name": "timestamp",
          "type": "uint256"
        },
        {
          "internalType": "address",
          "name": "assignedBy",
          "type": "address"
        }
      ],
      "stateMutability": "view",
      "type": "function"
    },
    {
      "inputs": [
        {
          "internalType": "address",
          "name": "",
          "type": "address"
        }
      ],
      "name": "upgradeTo",
      "outputs": [],
      "stateMutability": "nonpayable",
      "type": "function"
    },
    {
      "inputs": [
        {
          "internalType": "address",
          "name": "",
          "type": "address"
        },
        {
          "internalType": "bytes",
          "name": "",
          "type": "bytes"
        }
      ],
      "name": "upgradeToAndCall",
      "outputs": [],
      "stateMutability": "payable",
      "type": "function"
    },
    {
      "inputs": [
        {
          "internalType": "string",
          "name": "segment",
          "type": "string"
        }
      ],
      "name": "validateContract",
      "outputs": [
        {
          "internalType": "address",
          "name": "",
          "type": "address"
        }
      ],
      "stateMutability": "view",
      "type": "function"
    },
    {
      "inputs": [
        {
          "internalType": "address",
          "name": "account",
          "type": "address"
        }
      ],
      "name": "vanellixUsers",
      "outputs": [
        {
          "components": [
            {
              "internalType": "address",
              "name": "wallet",
              "type": "address"
            },
            {
              "internalType": "bytes32",
              "name": "role",
              "type": "bytes32"
            },
            {
              "internalType": "uint256",
              "name": "roleLevel",
              "type": "uint256"
            },
            {
              "internalType": "address",
              "name": "assignedBy",
              "type": "address"
            },
            {
              "internalType": "bool",
              "name": "isActive",
              "type": "bool"
            }
          ],
          "internalType": "struct GlobalStructs.VanellixUser",
          "name": "",
          "type": "tuple"
        }
      ],
      "stateMutability": "view",
      "type": "function"
    }
  ],
  "bytecode": "0x60a0806040523460225730608052615e4b90816100288239608051816135790152f35b600080fdfe608080604052600436101561001357600080fd5b600090813560e01c90816301ffc9a714614b2e575080630254720814614a7857806304820a19146149a65780630952c504146148c65780630954ae96146147c85780630d8e6e2c146146df57806311efbf611461258257806311f10116146146c457806315cce2241461454a5780631b1c2c7f1461426d5780631b81b31d146140d557806323452b9c14614003578063257f363314613fc957806332b1364f14613f375780633659cfe614613f0557806336d35c8614613eea5780633705d2f014613e475780633b7774dd14613c595780633f4ba83a14613c315780633f7d9b8214613b3057806344d710a6146139c057806345f806ab14613943578063494480d9146136995780634f1ef2861461363c57806352d1902d1461356657806359473acf146133de5780635c975abb146133bb578063622bfc7014613384578063647846a51461104b5780636bccebdb146132a1578063715018a614613276578063725c9c491461324c578063734c619f146131ee57806374ced870146131cf57806379194627146130c05780637bffffe914612feb5780638129fc1c14612af85780638456cb5914612ad0578063892c917514612793578063893d20e8146111df5780638da5cb5b1461276a578063921c24521461272f57806393e3907614612705578063949bbc56146126a35780639fba32b9146125a1578063a001ecdd14612582578063a3b8af39146124b5578063a93253c114612481578063aaf10f4214612439578063adb99c8a1461231e578063ae06c1b714612246578063aed0814c146121ef578063b3ecf236146121b4578063b5dd917c1461207c578063b79a005514611d24578063bb8c976c14611cba578063be8a366c14611627578063be92c6db14611445578063c27bce5f14611314578063c44fb8ec14611208578063c5a820ce146111e4578063c696804f146111df578063c87d29df146111c0578063c978d8a514611190578063c9b4f4ca14611075578063ca709a251461104b578063cfc1b41914610e93578063d294382b14610bfd578063d396cf9614610b5e578063d42f79ef14610a59578063d97b9bd514610918578063e02e351d146108de578063e24e2a6314610716578063e60ad0dc146105ca578063e71a7811146103995763f2fde38b1461036557600080fd5b3461039657602036600319011261039657600490610381614b66565b5061038a61508f565b635a42e44960e01b8152fd5b80fd5b503461039657806003193601126103965761015f5442101561057e576033546001600160a01b0316330361056f575b6103d061508f565b603354610171546001600160a01b039081169116811561056057610172546202a300810180911161054c57421061053d579080610535926001600160601b0360a01b61017154166101715584610172556104e560405161042f81614c3e565b838152602081017fa5ccb6867d103f21ecf1c41cfc2f9edaeab012c60e542a449046031f4b3422f581526003604083019289845260608101938685526080820193600185526104918960018060a01b0316600052610164602052604060002090565b925183546001600160a01b0319166001600160a01b03918216178455905160018401559051600283015593519101805492516001600160a81b0319909316919093161790151560a01b60ff60a01b16179055565b6001600160a01b038116600090815261016460205260409020600301805460ff60a01b191690557fe9a5158ac7353c7c7322ececc080bc8e89334efa5795b6e21e40eb266b0003d68580a3615b99565b600160fb5580f35b631442118160e11b8352600483fd5b634e487b7160e01b84526011600452602484fd5b63357a03ed60e21b8352600483fd5b63ea8e4eb560e01b8152600490fd5b6040516244414f60e81b8152610163600382015260239020546001600160a01b031680156105bb5733146103c857635c427cd960e01b8152600490fd5b6336939d7d60e21b8252600482fd5b5034610396576020366003190112610396576105e4614b66565b61015f544210156106ca576033546001600160a01b031633036106bb575b61060a61508f565b6001600160a01b038116600090815261017d60205260409020548015610560576201518081018091116106a7574210610698576001600160a01b038116600090815261017d6020526040902061053591908390556040516001600160a01b03821681527f59b22fe8b92d7f99b54034c49432db394b5fad64472967b2cba6f5a999fed00790602090a1615858565b631442118160e11b8252600482fd5b634e487b7160e01b83526011600452602483fd5b63ea8e4eb560e01b8252600482fd5b6040516244414f60e81b8152610163600382015260239020546001600160a01b0316801561070757331461060257635c427cd960e01b8252600482fd5b6336939d7d60e21b8352600483fd5b503461039657608036600319011261039657602435600435610736614b97565b916064356001600160401b0381116108da57610756903690600401614d2b565b61075f3361516e565b600133818060a01b03603354161491149061015f54421060001461087057159081610867575b506108585761079d83915b61079861508f565b614ef8565b54036108495760018110801561083f575b610830576107bb3361516e565b1015610821576001600160a01b0391909116600081815261016460205260409020838155600181018490556002810184905560030183905533917ff6391f5c32d9c69d2a47ea670b442974b53935d1edc7fd64eb21e047a839171b8480a4600160fb5580f35b630deda90360e41b8352600483fd5b63ba8db6af60e01b8452600484fd5b50600281116107ae565b63b810dc5d60e01b8452600484fd5b630ba9cf7d60e01b8552600485fd5b90501538610785565b6040516244414f60e81b8152610163600382015260239020546001600160a01b03169081156108cb571591826108c2575b50816108b7575b506108585761079d8391610790565b9050331415386108a8565b159150386108a1565b6336939d7d60e21b8852600488fd5b8480fd5b5034610396576020366003190112610396576020906040906001600160a01b03610906614b66565b16815261016a83522054604051908152f35b503461039657602036600319011261039657610932614b66565b61093b3361516e565b600133818060a01b03603354161491149061015f5442106000146109f2571590816109e9575b506109da5781905b61097161508f565b61097b8180615cc7565b6001600160a01b0316803b156109d757818091600460405180948193631fa5d41d60e11b83525af180156109cc576109b7575b50600160fb5580f35b816109c191614cb8565b6103965780386109ae565b6040513d84823e3d90fd5b50fd5b630ba9cf7d60e01b8252600482fd5b90501538610961565b6040516244414f60e81b8152610163600382015260239020546001600160a01b0316908115610a4a57159182610a41575b5081610a36575b506109da578190610969565b905033141538610a2a565b15915038610a23565b6336939d7d60e21b8552600485fd5b503461039657602036600319011261039657610a73614b66565b61015f54421015610b21576033546001600160a01b031633036106bb575b610a9961508f565b6001600160a01b038116600090815261016f602052604090205415610b12576001600160a01b038116600090815261016f60205260409020829055610add81615be2565b6001600160a01b03167f749159e34d3b1d5a3731c64f970f74cb6f8b53447dd949e4f518d2f7e408f61f8280a2600160fb5580f35b63198580dd60e31b8252600482fd5b6040516244414f60e81b8152610163600382015260239020546001600160a01b03168015610707573314610a9157635c427cd960e01b8252600482fd5b50346103965760203660031901126103965760043561015f544210600014610bc0576033546001600160a01b031633036106bb575b610b9b61508f565b620151808110610bb15761018855600160fb5580f35b6352b9311160e11b8252600482fd5b6040516244414f60e81b8152610163600382015260239020546001600160a01b03168015610707573314610b9357635c427cd960e01b8252600482fd5b5034610396576060366003190112610396576004356001600160401b038111610e8f57610c2e903690600401614d2b565b610c36614b81565b610c3e614b97565b9061015f544210600014610e52576033546001600160a01b03163303610e43575b610c6761508f565b6040516020810190610c956020828751610c848187858c01614bf6565b81010301601f198101835282614cb8565b519020604051858152610ca9602082614cb8565b60208151910120148015610e32575b8015610e21575b610e125782516001600160401b038111610dfe57610ceb81610ce361019354614d72565b610193614f36565b6020601f8211600114610d96579080610d5f93928791610d8b575b508160011b916000199060031b1c191617610193555b60018060a01b031691826001600160601b0360a01b6101945416176101945560018060a01b031692836001600160601b0360a01b6101955416176101955561506f565b7fc81c01672b6ff4d4218e8c127ffde1c12f675a7205233e95431fa7df38ce46808480a4600160fb5580f35b905085015138610d06565b610193865280862090601f198316875b818110610de65750918391610d5f959460019410610dcd575b5050811b0161019355610d1c565b87015160001960f88460031b161c191690553880610dbf565b9192602060018192868b015181550194019201610da6565b634e487b7160e01b85526041600452602485fd5b63d92e233d60e01b8452600484fd5b506001600160a01b03821615610cbf565b506001600160a01b03811615610cb8565b63ea8e4eb560e01b8452600484fd5b6040516244414f60e81b8152610163600382015260239020546001600160a01b03168015610a4a573314610c5f57635c427cd960e01b8452600484fd5b5080fd5b503461039657602036600319011261039657610ead614b66565b61015f5442101561100e576033546001600160a01b031633036106bb575b610ed361508f565b6001600160a01b038116600090815261017b602052604090209060405191610efa83614c8a565b80546001600160a01b039081168452600182015460208501818152600290930154909116604085015215610fff57516202a300810180911161054c57421061053d576001600160a01b038116600090815261017b602052604081206002905b82815560018101839055015581516001600160a01b039182169291849116833b15610e8f5760405190631b2ce7f360e11b82526004820152818160248183885af180156109cc57610fe6575b5050516040516001600160a01b0390911681527f7dab0d5bdb5c06f7a30c06716066047b3d4fe92aa277d95aec0f06a079096ec890602090a2600160fb5580f35b81610ff091614cb8565b610ffb578238610fa5565b8280fd5b63357a03ed60e21b8452600484fd5b6040516244414f60e81b8152610163600382015260239020546001600160a01b03168015610707573314610ecb57635c427cd960e01b8252600482fd5b5034610396578060031936011261039657610191546040516001600160a01b039091168152602090f35b50346103965760203660031901126103965761108f614b66565b61015f54421015611153576033546001600160a01b031633036106bb575b6110b561508f565b6110bf8180615cc7565b6001600160a01b038116600090815261017d6020526040902054611144576001600160a01b038116600090815261017d60205260409020429055604080516001600160a01b03909216825242602083015233917fb18c6270b71e88d80a33e6ff96678cd5372d68c69a43a813e0d47088e8af81d691819081015b0390a2600160fb5580f35b635631a27d60e11b8252600482fd5b6040516244414f60e81b8152610163600382015260239020546001600160a01b031680156107075733146110ad57635c427cd960e01b8252600482fd5b50346103965760403660031901126103965760206111b86111af614b66565b60243590615b47565b604051908152f35b5034610396578060031936011261039657602061018854604051908152f35b614d49565b50346103965760203660031901126103965760206111b8611203614b66565b61516e565b503461039657602036600319011261039657611222614b66565b61015f544210156112d7576033546001600160a01b031633036106bb575b61124861508f565b6001600160a01b038116600090815261017b6020526040902060010154156112c8576001600160a01b038116600090815261017b602052604081206002905b8281556001810183905501556001600160a01b03167f3198dc80249fcfedbd0d06e1ff49a7695a51b006592328ce0b127cdeab77e9368280a2600160fb5580f35b63357a03ed60e21b8252600482fd5b6040516244414f60e81b8152610163600382015260239020546001600160a01b0316801561070757331461124057635c427cd960e01b8252600482fd5b50346103965760203660031901126103965761132e614b66565b61015f54421015611408576033546001600160a01b031633036106bb575b61135461508f565b6001600160a01b038116600090815261017d60205260409020548015610560576201518081018091116106a7574210610698576001600160a01b038116600090815261017b6020526040902090604051916113ae83614c8a565b80546001600160a01b039081168085526001830154602086015260029092015416604084015215610560576001600160a01b038116600090815261017d6020908152604080832086905561017b9091528120600290610f59565b6040516244414f60e81b8152610163600382015260239020546001600160a01b0316801561070757331461134c57635c427cd960e01b8252600482fd5b50346103965761145436614e67565b9394926040516926bab63a34aa37b5b2b760b11b8152610163600a820152602a60018060a01b039120541633036116185761148d61508f565b6001600160a01b03838116959083168614611609576114ac8791614ef8565b54036115fa576001600160a01b038216600090815261016760205260409020848852602052604087209160a06040516114e481614c6f565b84548152600180831b03600186015416602082015260028501549081604082015260ff6004600388015497606084019889520154600180861b0381166080840152841c16159081159384910152916115f1575b506115e25761154760019161516e565b1191826115c2575b50506115b3576001600160a01b031660009081526101676020526040902090845260205260408320600401805460ff60a01b1916905533917ff6391f5c32d9c69d2a47ea670b442974b53935d1edc7fd64eb21e047a839171b8480a4600160fb5580f35b630deda90360e41b8552600485fd5b51908110801592506115d7575b50388061154f565b6003915010386115cf565b6321bf417f60e21b8852600488fd5b90501538611537565b63b810dc5d60e01b8752600487fd5b630deda90360e41b8852600488fd5b631792196f60e31b8752600487fd5b50346103965761163636614e67565b92939491906040516926bab63a34aa37b5b2b760b11b8152610163600a820152602a60018060a01b039120541633036116185761167161508f565b6001600160a01b038181169690831695868814611cab578161169287614ef8565b5403611c9c57600381108015611c92575b611c83578460038203611b8157505060405191610c84602084018751946116d5602082818c0198610c8481878c614bf6565b51902060405160208101906e444f4d494e55535f5341504f52495360881b8252600f8152611704602f82614cb8565b5190201493611723602060405180938282019586918d51928391614bf6565b519020604051602081019070434f4e5349474c494f5f5341504f52495360781b825260118152611754603182614cb8565b519020149060036117658783615b47565b1480918b82611af6575b5061177b60019161516e565b118a6040516b546f6b656e466163746f727960a01b8152610163600c820152602c60018060a01b039120541693159384928395611aee575b5082611ae3575b5050611ad45790849182611acc575b5081611ac4575b50611ab5576001600160a01b0384166000908152610164602052604090206003015460a01c60ff16611aa6576001600160a01b038416600090815261016a6020526040902054611a97578280611a78575b80611a58575b611a49576001600160a01b038416600090815261016760205260409020858a526020526040892060ff600482015460a01c1661195d575b505092828192600461190f966118967fc56cfa703b6eea7a1c31488509e991f49944dd94f1a0b29c32d87a6ff5f42024999786615d33565b898c5261016760209081526040808e20878f529091528c208581556001810180546001600160a01b0319168c179055600281019190915560038082015501805460ff60a01b198b166001600160a81b031990911617600160a01b179055611920575b50505b604051928392604084526040840190614c19565b9060208301520390a3600160fb5580f35b6001600160a01b0316600090815261016a602052604090205580875261017c6020526040872080546001600160a01b0319168617905580386118f8565b83806119f2575b6119e35781611989575b5061197a57388061185e565b635c6eedaf60e11b8852600488fd5b60029150015460405160208101918252602081526119a8604082614cb8565b519020604051602081019070434f4e5349474c494f5f5341504f52495360781b8252601181526119d9603182614cb8565b519020143861196e565b631867be1160e11b8a5260048afd5b5060028101546040516020810191825260208152611a11604082614cb8565b51902060405160208101906e444f4d494e55535f5341504f52495360881b8252600f8152611a40602f82614cb8565b51902014611964565b63747536fb60e01b8952600489fd5b5084895261017c60205260408920546001600160a01b0316871415611827565b5084895261017c60205260408920546001600160a01b03161515611821565b634979f0c760e11b8952600489fd5b6368527e6960e11b8952600489fd5b637898098b60e11b8952600489fd5b9050386117d0565b9150386117c9565b637e1ef5d560e01b8b5260048bfd5b141590508a386117ba565b9250386117b3565b8193506002604061177b92611b2060019560018060a01b0316600052610167602052604060002090565b8c82526020522001546040516020810191825260208152611b42604082614cb8565b519020604051602081019070434f4e5349474c494f5f5341504f52495360781b825260118152611b73603182614cb8565b51902014939150508b61176f565b611b8e9193949294615b47565b6000198114611c745782811090811591611c69575b506116095783885261017c60205260408820546001600160a01b03168614611c5a577fc56cfa703b6eea7a1c31488509e991f49944dd94f1a0b29c32d87a6ff5f4202494928492611bf960049361190f97615d33565b878a5261016760209081526040808c20868d529091528a208481556001810180546001600160a01b0319168a1790556002810192909255600382015501805460ff60a01b1988166001600160a81b031990911617600160a01b1790556118fb565b6326b1c0ad60e01b8852600488fd5b600391501038611ba3565b6321bf417f60e21b8952600489fd5b63285544a760e21b8952600489fd5b50600581116116a3565b63b810dc5d60e01b8952600489fd5b630deda90360e41b8952600489fd5b503461039657602036600319011261039657600435906001600160401b038211610396576020611ced3660048501614d2b565b81611d016040519283815193849201614bf6565b61016390820190815281900382019020546040516001600160a01b039091168152f35b5034610396576060366003190112610396576004356001600160401b038111610e8f57611d55903690600401614d2b565b611d5d614b81565b60443591600019913385526101646020526040852060ff600382015460a01c168061206f575b80612061575b612055575b50845b3386526101686020526040862054811015611e3f57338652610168602052611dbc8160408820615140565b90549060031b1c338752610167602052604087209087526020526040862060ff600482015460a01c1680611e32575b611df9575b50600101611d91565b60030154600381101580611e25575b80611e1c575b15611df05793506001611df0565b50848110611e0e565b5061016154811115611e08565b5060028101541515611deb565b50838593600133818060a01b03603354161491149061015f544210600014611fe557159081611fdc575b50611fcd575b611e7761508f565b611e8083614ef8565b54908115611fbe57600181108015611fb4575b611fa55780611ea13361516e565b10156115b3576001600160a01b038316600090815261016460205260409020916001830193845415801590611f94575b611f85576001600160a01b03168087526101686020526040872054909490611f765783546001600160a01b03191685178455556002820155600301805460ff60a01b19339081166001600160a81b031990921691909117600160a01b17909155604051602080825291937f2271cff5ceb87d1cb9678385844551fbd00ce3a7914ad55dcab51896c63103d0928291611f6b91830190614c19565b0390a3600160fb5580f35b636d1a4ed360e11b8752600487fd5b6368527e6960e11b8752600487fd5b5060ff600385015460a01c16611ed1565b63ba8db6af60e01b8552600485fd5b5060028111611e93565b63b810dc5d60e01b8552600485fd5b630ba9cf7d60e01b8452600484fd5b90501585611e69565b6040516244414f60e81b8152610163600382015260239020546001600160a01b03169081156120465715918261203d575b5081612032575b5015611e6f57630ba9cf7d60e01b8452600484fd5b90503314158561201d565b15915086612016565b6336939d7d60e21b8752600487fd5b60020154925038611d8e565b506002808201541115611d89565b5060018101541515611d83565b5034610396578060031936011261039657612095614f7b565b5061209e614f7b565b5061016c546001600160a01b031690811561218a57506040516120c2604082614cb8565b600681526561637469766560d01b6020820152905b61016d549160018060a01b0361016e54169261217060018060a01b0361018c54169261018954926040519561210b87614c6f565b86526020860196875260408601908152606086019182526080860194855260a086019384526040519687966020885260018060a01b03905116602088015260018060a01b0390511660408701525160608601525160c0608086015260e0850190614c19565b91516001600160a01b031660a08401525160c08301520390f35b50604051612199604082614cb8565b6008815267696e61637469766560c01b6020820152906120d7565b503461039657806003193601126103965760206040517fa36640f9c3d74ee87c99b3aee39f32849dda077410057abc393a2cb9e13139a78152f35b503461039657806003193601126103965761223761220b614dac565b60018060a01b03610194541660018060a01b036101955416604051938493606085526060850190614c19565b91602084015260408301520390f35b50346103965760203660031901126103965760043561015f5442106000146122e1576033546001600160a01b031633036106bb575b61228361508f565b61271081116122d2576020817ffdb174bbb157048e9f3962e375891bace08d9741796e3288bf79ab8ccd1dfa209261016d558282604051838152a18061019255604051908152a1600160fb5580f35b63162908e360e11b8252600482fd5b6040516244414f60e81b8152610163600382015260239020546001600160a01b0316801561070757331461227b57635c427cd960e01b8252600482fd5b503461039657602036600319011261039657612338614b66565b6123413361516e565b600133818060a01b03603354161491149061015f5442106000146123e1571590816123d8575b506109da5781905b61237761508f565b6123818180615cc7565b6001600160a01b0316803b156109d757818091600460405180958193638456cb5960e01b83525af180156123cb576123bb57600160fb5580f35b6123c491614cb8565b3881610535565b50604051903d90823e3d90fd5b90501538612367565b6040516244414f60e81b8152610163600382015260239020546001600160a01b0316908115610a4a57159182612430575b5081612425575b506109da57819061236f565b905033141538612419565b15915038612412565b50346103965780600319360112610396577f360894a13ba1a3210667c828492db98dca3e2076cc3735a920a3ca505d382bbc546040516001600160a01b039091168152602090f35b503461039657602036600319011261039657602090600435815261017c8252604060018060a01b0391205416604051908152f35b5034610396576020366003190112610396576124cf614b66565b61015f54421015612545576033546001600160a01b031633036106bb575b6124f561508f565b6001600160a01b038116600090815261017d6020526040902054156112c8576001600160a01b038116600090815261017d6020908152604080832085905561017b90915290208290600290611287565b6040516244414f60e81b8152610163600382015260239020546001600160a01b031680156107075733146124ed57635c427cd960e01b8252600482fd5b5034610396578060031936011261039657602061019254604051908152f35b503461039657604036600319011261039657604060c0916125c0614b66565b8160a084516125ce81614c6f565b8281528260208201528286820152826060820152826080820152015260018060a01b031681526101676020528181206024358252602052206040519061261382614c6f565b80549182815260018060a01b03600183015416916020820192835260028101546040830190815260046003830154926060850193845201549360ff60a06080860195600180831b0388168752019560a01c161515855260405195865260018060a01b03905116602086015251604085015251606084015260018060a01b03905116608083015251151560a0820152f35b50346103965760a0366003190112610396576126bd614b66565b906126c6614b81565b91606435916001600160a01b03831683036103965760206126f88585856126eb61508f565b60843592604435916159db565b600160fb55604051908152f35b5034610396578060031936011261039657610177546040516001600160a01b039091168152602090f35b503461039657602036600319011261039657600435906001600160401b0382116103965760206111b86127653660048601614d2b565b61597f565b50346103965780600319360112610396576033546040516001600160a01b039091168152602090f35b5034610396576040366003190112610396576127ad614b66565b6127b5614b81565b9061015f544210600014612a84576033546001600160a01b03163303612a75575b6127de61508f565b6127e88282615cc7565b6001600160a01b038116600090815261017b6020526040902060010154612a6657604051632a2767e560e01b81526001600160a01b03821691602082600481865afa918215612a5b578592612a27575b50833b156129fd57848060405160208101906301ffc9a760e01b82526317e3c03b60e21b602482015260248152612870604482614cb8565b5190875afa61287d615d03565b9015908115612a0c575b506129fd576040918580845161289d8682614cb8565b601a81527f676574496d706c656d656e746174696f6e54797065496d70282900000000000060209091015284516375a8670960e01b906128dc90614ca5565b855160208101918252600481526128f4602482614cb8565b5190885afa90612902615d03565b91159182156129d9575b50506129ca57907f9d46c424dbb24cb5db0226a1022c4be6afb7410d2c4b320c52a939c9fbeeed4691600282519161294383614c8a565b60018060a01b0387168352602083014281526129788585019233845260018060a01b031660005261017b602052604060002090565b935184546001600160a01b03199081166001600160a01b039283161786559151600186015591519290930180549093169181169190911790915590519316835242602084015233928060408101611f6b565b633aa04df960e01b8552600485fd5b8051919250602080820192820191909103126129f957511415388061290c565b8680fd5b6338951bb760e11b8552600485fd5b612a209150602080825183010191016159c3565b1538612887565b9091506020813d602011612a53575b81612a4360209383614cb8565b810103126108da57519038612838565b3d9150612a36565b6040513d87823e3d90fd5b635631a27d60e11b8352600483fd5b63ea8e4eb560e01b8352600483fd5b6040516244414f60e81b8152610163600382015260239020546001600160a01b03168015612ac15733146127d657635c427cd960e01b8352600483fd5b6336939d7d60e21b8452600484fd5b5034610396578060031936011261039657600490612aec61508f565b639809edb560e01b8152fd5b5034610396578060031936011261039657805460ff8160081c161590818092612fde575b8015612fc7575b15612f6b5760ff198116600117835581612f5a575b506301e1338042018042116106a75761015f556301e1338061018855612b7660ff835460081c16612b688161591f565b612b718161591f565b61591f565b612b7f33615b99565b612bc660ff835460081c16612b938161591f565b612b9c8161591f565b60ff1960c9541660c955612baf8161591f565b612bb88161591f565b600160fb55612b718161591f565b600561016155612c3d604051612bdb81614c3e565b338152602081017fa5ccb6867d103f21ecf1c41cfc2f9edaeab012c60e542a449046031f4b3422f581526003604083019286845260608101933385526080820193600185526104913360018060a01b0316600052610164602052604060002090565b604090612c738251612c4f8482614cb8565b60128152710929aa08aa482a89ea4beac829c8a989892b60731b60208201526152e1565b50612ca78251612c838482614cb8565b6012815271434f4e5349474c494f5f5354454c4c41544f60701b60208201526152e1565b50612cd88251612cb78482614cb8565b600f81526e4c4547415455535f5354454c4c414560881b6020820152615401565b50612d088251612ce88482614cb8565b600e81526d50524145544f525f4c554d494e4160901b6020820152615508565b50612d398251612d188482614cb8565b600f81526e444f4d494e55535f5341504f52495360881b60208201526155dc565b50612d6c8251612d498482614cb8565b6011815270434f4e5349474c494f5f5341504f52495360781b60208201526155dc565b50612d9f8251612d7c8482614cb8565b601181527043454e545552494f5f4d454e534152554d60781b60208201526156b0565b50612dd08251612daf8482614cb8565b600f81526e4d494c495445535f43554c494e414560881b6020820152615784565b50612ddd61016054614d72565b601f8111612f1b575b50602a74158c4815985b995b1b1a5e0813185d5b98da1c1859605a1b01610160556298968061018a55612710610189558261016d558261019255612e2c61019354614d72565b601f8111612edc575b506012680517569636b537761760bc1b016101935573a5e0829caced8ffdd4de3c43696c57f7d7a678ff6001600160601b0360a01b6101945416176101945573a5e0829caced8ffdd4de3c43696c57f7d7a678ff6001600160601b0360a01b61019554161761019555612ea6575080f35b60207f7f26b83ff96e1f2b6a682f133852f6798a09c465da95921460cefb38474024989161ff001984541684555160018152a180f35b6101938452612f1590601f0160051c7ffc8af01f449989052b52093a58fc9f42d0b11f0c6dd5dca0463dab62346ccc6890810190614f1f565b38612e35565b6101608452612f5490601f0160051c7fec7e130cdeeae65215fabbcddb1de429e603c4887cc659532eda903e4933966390810190614f1f565b38612de6565b61ffff191661010117825538612b38565b60405162461bcd60e51b815260206004820152602e60248201527f496e697469616c697a61626c653a20636f6e747261637420697320616c72656160448201526d191e481a5b9a5d1a585b1a5e995960921b6064820152608490fd5b50303b158015612b235750600160ff821614612b23565b50600160ff821610612b1c565b503461039657806003193601126103965761015f54421015613083576033546001600160a01b0316330361056f575b61302261508f565b610178541561307457613048600061017755600061017855600061017955600061017a55565b7f761942e410ba280153b2ed459ded9f9ddb88850faccd07da7acf1da6cdc7d6898180a1600160fb5580f35b63357a03ed60e21b8152600490fd5b6040516244414f60e81b8152610163600382015260239020546001600160a01b031680156105bb57331461301a57635c427cd960e01b8152600490fd5b503461039657806003193601126103965761015f54421015613192576033546001600160a01b0316330361056f575b6130f761508f565b6101785480156112c8576202a300810180911161317e57421061316f5761315260018060a01b0361017754167f59b22fe8b92d7f99b54034c49432db394b5fad64472967b2cba6f5a999fed0076020604051838152a1615858565b610535600061017755600061017855600061017955600061017a55565b631442118160e11b8152600490fd5b634e487b7160e01b82526011600452602482fd5b6040516244414f60e81b8152610163600382015260239020546001600160a01b031680156105bb5733146130ef57635c427cd960e01b8152600490fd5b5034610396578060031936011261039657602061015f54604051908152f35b503461039657602036600319011261039657600435906001600160401b038211610396576020613238816132253660048701614d2b565b8160405193828580945193849201614bf6565b810161016581520301902054604051908152f35b5034610396578060031936011261039657610194546040516001600160a01b039091168152602090f35b503461039657806003193601126103965760049061329261508f565b6001623f026d60e01b03198152fd5b5034610396576020366003190112610396576132bb614b66565b61015f54421015613347576033546001600160a01b031633036106bb575b6132e161508f565b6001600160a01b038116600090815261017d6020526040902054156112c8576001600160a01b0316600090815261017d602052604090208190557f761942e410ba280153b2ed459ded9f9ddb88850faccd07da7acf1da6cdc7d6898180a1600160fb5580f35b6040516244414f60e81b8152610163600382015260239020546001600160a01b031680156107075733146132d957635c427cd960e01b8252600482fd5b50346103965760203660031901126103965760206133a0614b66565b61016c546040516001600160a01b0392831691909216148152f35b5034610396578060031936011261039657602060ff60c954166040519015158152f35b5034610396576040366003190112610396576133f8614b66565b613400614b81565b61015f54421015613529576033546001600160a01b03163303612a75575b61342661508f565b6134308183615cc7565b6001600160a01b038216600090815261017d6020526040902054612a66576001600160a01b038216600090815261017d6020526040902042905560405161347681614c8a565b60018060a01b038216815260026020820142815260408301903382526134af8660018060a01b031660005261017b602052604060002090565b935184546001600160a01b03199081166001600160a01b03928316178655915160018601559151929093018054909316918116919091179091556040805192821683524260208401523393909116917f9d46c424dbb24cb5db0226a1022c4be6afb7410d2c4b320c52a939c9fbeeed469181908101611f6b565b6040516244414f60e81b8152610163600382015260239020546001600160a01b03168015612ac157331461341e57635c427cd960e01b8352600483fd5b50346103965780600319360112610396577f00000000000000000000000000000000000000000000000000000000000000006001600160a01b031630036135d15760206040517f360894a13ba1a3210667c828492db98dca3e2076cc3735a920a3ca505d382bbc8152f35b60405162461bcd60e51b815260206004820152603860248201527f555550535570677261646561626c653a206d757374206e6f742062652063616c60448201527f6c6564207468726f7567682064656c656761746563616c6c00000000000000006064820152608490fd5b50604036600319011261039657613651614b66565b506024356001600160401b038111610e8f5736602382011215610e8f579061368460049236906024818601359101614cf4565b5061368d61508f565b630c5e6cd360e21b8152fd5b5034610396576020366003190112610396576136b3614b66565b61015f54421015613906576033546001600160a01b031633036106bb575b6136d961508f565b6136e38180615cc7565b6101785461114457803b156138dc57818060405160208101906301ffc9a760e01b8252632a2767e560e01b602482015260248152613722604482614cb8565b5190845afa61372f615d03565b90159081156138eb575b506138dc5760408280825161374e8482614cb8565b601781527f676574496d706c656d656e746174696f6e5479706528290000000000000000006020909101528251632a2767e560e01b9061378d90614ca5565b835160208101918252600481526137a5602482614cb8565b5190855afa6137b2615d03565b9015908115613899575b5061388a578051608081018181106001600160401b03821117610dfe5782526001600160a01b03929092168083524260208085018290527fce9b24d2dc7f9161cd3535ebadb01aa541e3f9f2b1e7ffb37b9f0fa96d292db884860181905233606090960186905261017780546001600160a01b031990811686179091556101788490556101799190915561017a8054909116861790559251918252918101919091527fb18c6270b71e88d80a33e6ff96678cd5372d68c69a43a813e0d47088e8af81d6908060408101611139565b633aa04df960e01b8352600483fd5b80516020808301935090820191909103126138d857517fce9b24d2dc7f9161cd3535ebadb01aa541e3f9f2b1e7ffb37b9f0fa96d292db81415386137bc565b8380fd5b6338951bb760e11b8252600482fd5b6138ff9150602080825183010191016159c3565b1538613739565b6040516244414f60e81b8152610163600382015260239020546001600160a01b031680156107075733146136d157635c427cd960e01b8252600482fd5b5034610396576020366003190112610396576060906040906001600160a01b0361396b614b66565b16815261017b60205220604080519161398383614c8a565b80546001600160a01b0390811680855260018301546020808701829052600290940154909216939094018390526040805194855291840152820152f35b5034610396576020366003190112610396576139da614b66565b61015f54421015613af3576033546001600160a01b031633036106bb575b613a0061508f565b6001600160a01b038116600090815261016f602052604090205415610b12576001600160a01b038116600090815261016f60205260409020546202a30081018091116106a7574210613ae4576001600160a01b0381169061deac198201613acf575b61016c80546001600160a01b0319166001600160a01b038316179055613aa3906001600160a01b038116600090815261016f60205260409020849055615be2565b7fbe8b243cc9b5244fd502d39323d3e688e3ca52d8eee47ea6780c3ec5b4113e058280a2600160fb5580f35b803b613a6257630749aedb60e01b8352600483fd5b6364037fb760e11b8252600482fd5b6040516244414f60e81b8152610163600382015260239020546001600160a01b031680156107075733146139f857635c427cd960e01b8252600482fd5b503461039657602036600319011261039657613b4a614b66565b61015f54421015613bf4576033546001600160a01b031633036106bb575b613b7061508f565b6001600160a01b038116908115613be55761016c546001600160a01b0316613bd65761dead8203613bc1575b61016c80546001600160a01b0319166001600160a01b03909216919091179055613aa3565b803b613b9c57630749aedb60e01b8352600483fd5b63c6f6a6e960e01b8352600483fd5b63d92e233d60e01b8352600483fd5b6040516244414f60e81b8152610163600382015260239020546001600160a01b03168015610707573314613b6857635c427cd960e01b8252600482fd5b5034610396578060031936011261039657600490613c4d61508f565b636aa63d6160e01b8152fd5b5034610396576040366003190112610396576004356001600160401b038111610e8f57613c8a903690600401614d2b565b6024359061015f544210600014613e0a576033546001600160a01b03163303612a75575b613cb661508f565b805115613dfb57610161548015612ac1578211613dec576014610166541015613ddd5790602091604051613d14848201835192613cfd878281880196610c8481878a614bf6565b519020948592604051809381928751928391614bf6565b81016101658152030190205561016654600160401b811015610dfe57806001613d44920161016655610166615140565b613dc95781836040602097613d6b600080516020615df683398151915296613d9496614fac565b87815261018789522055610162548411613dbf575b604051918291604083526040830190614c19565b85878301520390a1610162548111613db5575b50600160fb55604051908152f35b6101625538613da7565b8361016255613d80565b634e487b7160e01b85526004859052602485fd5b6353bb24f960e01b8352600483fd5b630af469a960e31b8352600483fd5b636cc61e7360e11b8352600483fd5b6040516244414f60e81b8152610163600382015260239020546001600160a01b03168015612ac1573314613cae57635c427cd960e01b8352600483fd5b503461039657806003193601126103965760408051613e6581614c8a565b606081528260208201520152613ecc604051613e8081614c8a565b613e88614dac565b815260018060a01b0361019454166020820190815260018060a01b036101955416604083019081526040519384936020855251606060208601526080850190614c19565b91516001600160a01b03908116604085015290511660608301520390f35b503461039657806003193601126103965760206111b861528b565b503461039657602036600319011261039657600490613f22614b66565b50613f2b61508f565b6308ac7db760e21b8152fd5b50346103965760203660031901126103965760043561015f544210600014613f8c576033546001600160a01b031633036106bb575b610162548110613f7d576101615580f35b6309aaecbf60e41b8252600482fd5b6040516244414f60e81b8152610163600382015260239020546001600160a01b03168015610707573314613f6c57635c427cd960e01b8252600482fd5b5034610396576020366003190112610396576020906040906001600160a01b03613ff1614b66565b16815261016f83522054604051908152f35b503461039657806003193601126103965761015f54421015614098576033546001600160a01b0316330361056f575b61403a61508f565b603354610171546001600160a01b039182169116156112c8577f48a87225523c5fd46bf3b7da3223e5525f77b8136a962695d701a24699bef8f38280a26001600160601b0360a01b6101715416610171558061017255600160fb5580f35b6040516244414f60e81b8152610163600382015260239020546001600160a01b031680156105bb57331461403257635c427cd960e01b8152600490fd5b5034610396576020366003190112610396576140ef614b66565b61015f54421015614230576033546001600160a01b031633036106bb575b61411561508f565b6001600160a01b038116908115613be5576001600160a01b038116600090815261016f6020526040902054614221576001600160a01b0316600090815261016f6020526040902042905561017054600160401b81101561420d576001810161017055610170548110156141f95761017083527f88e1afb22f13be7fec203799fd189c3b9471c5b75e2b22a6d5efec11c7f39255018054600384901b83811b6001600160a01b0390911b199091161790556040514281527f58bb431e0f7936fab42d31349f05b36e6e2bc6030189fafbb5d8b195a3da0cc590602090a2600160fb5580f35b634e487b7160e01b83526032600452602483fd5b634e487b7160e01b83526041600452602483fd5b638c34a7cd60e01b8352600483fd5b6040516244414f60e81b8152610163600382015260239020546001600160a01b0316801561070757331461410d57635c427cd960e01b8252600482fd5b503461039657604036600319011261039657614287614b66565b6024356001600160401b038111610ffb576142a6903690600401614d2b565b906142b03361516e565b600133818060a01b03603354161491149061015f5442106000146144da571590816144d1575b506144c2575b6142e461508f565b6001600160a01b038116908115610e125760206143fc91604051908282018651926143198582818b0196610c8481878a614bf6565b519020604051848101906244414f60e81b82526003815261433b602382614cb8565b519020810361447a575061438d60039160236040516244414f60e81b8152610163858201522060018060a01b039054168061444f575b506001600160a01b031660009081526101646020526040902090565b80546001600160a01b031916861781557ff807ff8eec250923b9076d0fbc12c4f8fc15f4a65bc3bb510202d51d46cd1ef660018201556002810188905501805460ff60a01b1933166001600160a81b031990911617600160a01b1790555b604051809381928751928391614bf6565b8101610163815203019020816001600160601b0360a01b825416179055614423339261506f565b7fcd274a007eb61cbcf6df3e9eb2d5bcc233450f045cc22d9ebb0beb460710aca78480a4600160fb5580f35b6001600160a01b03166000908152610164602052604090208301805460ff60a01b1916905538614371565b9050604051838101906926bab63a34aa37b5b2b760b11b8252600a81526144a2602a82614cb8565b519020036143eb5761016980546001600160a01b031916851790556143eb565b630ba9cf7d60e01b8352600483fd5b905015386142d6565b6040516244414f60e81b8152610163600382015260239020546001600160a01b031690811561453b57159182614532575b5081614527575b50156142dc57630ba9cf7d60e01b8352600483fd5b905033141538614512565b1591503861450b565b6336939d7d60e21b8652600486fd5b503461039657602036600319011261039657614564614b66565b61015f54421015614687576033546001600160a01b031633036106bb575b61458a61508f565b6001600160a01b038116908115613be55761019180546001600160a01b031916831790553b15614678576040516318160ddd60e01b8152602081600481855afa9081614649575b506145e557636cb9962360e01b8252600482fd5b61016e80546001600160a01b03191682179055807f722ff84c1234b2482061def5c82c6b5080c117b3cbb69d686844a051e4b8e7f38380a27f722ff84c1234b2482061def5c82c6b5080c117b3cbb69d686844a051e4b8e7f38280a2600160fb5580f35b6020813d602011614670575b8161466260209383614cb8565b810103126138d857516145d1565b3d9150614655565b636cb9962360e01b8252600482fd5b6040516244414f60e81b8152610163600382015260239020546001600160a01b0316801561070757331461458257635c427cd960e01b8252600482fd5b50346103965780600319360112610396576020604051308152f35b50346103965780600319360112610396576040519080610160549061470382614d72565b80855291600181169081156147a15750600114614743575b61473f8461472b81860382614cb8565b604051918291602083526020830190614c19565b0390f35b61016081527fec7e130cdeeae65215fabbcddb1de429e603c4887cc659532eda903e49339663939250905b8082106147875750909150810160200161472b8261471b565b91926001816020925483858801015201910190929161476e565b60ff191660208087019190915292151560051b8501909201925061472b915083905061471b565b50346103965780600319360112610396576147e1614ec6565b506147ea614ec6565b506147f36150e5565b6147fb6150e5565b61473f6148066150e5565b6148b36148116150e5565b916148a060018060a01b0361017154169561488d6101725498604051986148378a614c6f565b895260208901998a5260408901908152606089019283526080890194855260a08901968752604051998a9960208b5260018060a01b0390511660208b01525160408a01525160c060608a015260e0890190614bad565b9051878203601f19016080890152614bad565b9051858203601f190160a0870152614bad565b9051838203601f190160c0850152614bad565b5034610396576020366003190112610396576148e0614b66565b61015f54421015614969576033546001600160a01b031633036106bb575b61490661508f565b6033546001600160a01b0391821691168115613be557816001600160601b0360a01b6101715416176101715542610172557f37cfa1493a4caaf6506c84b43005afeae37478bd57ee3d33b8d93e746295e1756020604051428152a3600160fb5580f35b6040516244414f60e81b8152610163600382015260239020546001600160a01b031680156107075733146148fe57635c427cd960e01b8252600482fd5b503461039657602036600319011261039657604060a0916149c5614b66565b81608084516149d381614c3e565b82815282602082015282868201528260608201520152600180851b031681526101646020522060405190614a0682614c3e565b600180841b03815416918281526001820154916020820192835260036002820154916040840192835201549260ff608060608501946001808a1b03871686520194871c1615158452604051948552516020850152516040840152600180851b0390511660608301525115156080820152f35b5034610396576020366003190112610396576001600160a01b03614a9a614b66565b16815261016860205260408120604051908160208254918281520190819285526020852090855b818110614b185750505082614ad7910383614cb8565b604051928392602084019060208552518091526040840192915b818110614aff575050500390f35b8251845285945060209384019390920191600101614af1565b8254845260209093019260019283019201614ac1565b905034610e8f576020366003190112610e8f5760043563ffffffff60e01b8116809103610ffb576301ffc9a760e01b14815260209150f35b600435906001600160a01b0382168203614b7c57565b600080fd5b602435906001600160a01b0382168203614b7c57565b604435906001600160a01b0382168203614b7c57565b906020808351928381520192019060005b818110614bcb5750505090565b825180516001600160a01b031685526020908101518186015260409094019390920191600101614bbe565b60005b838110614c095750506000910152565b8181015183820152602001614bf9565b90602091614c3281518092818552858086019101614bf6565b601f01601f1916010190565b60a081019081106001600160401b03821117614c5957604052565b634e487b7160e01b600052604160045260246000fd5b60c081019081106001600160401b03821117614c5957604052565b606081019081106001600160401b03821117614c5957604052565b6001600160401b038111614c5957604052565b90601f801991011681019081106001600160401b03821117614c5957604052565b6001600160401b038111614c5957601f01601f191660200190565b929192614d0082614cd9565b91614d0e6040519384614cb8565b829481845281830111614b7c578281602093846000960137010152565b9080601f83011215614b7c57816020614d4693359101614cf4565b90565b34614b7c576000366003190112614b7c576033546040516001600160a01b039091168152602090f35b90600182811c92168015614da2575b6020831014614d8c57565b634e487b7160e01b600052602260045260246000fd5b91607f1691614d81565b604051906000826101935491614dc183614d72565b8083529260018116908115614e485750600114614de7575b614de592500383614cb8565b565b50610193600090815290917ffc8af01f449989052b52093a58fc9f42d0b11f0c6dd5dca0463dab62346ccc685b818310614e2c575050906020614de592820101614dd9565b6020919350806001915483858901015201910190918492614e14565b60209250614de594915060ff191682840152151560051b820101614dd9565b9060c0600319830112614b7c576004359160243591604435916064356001600160a01b0381168103614b7c57916084356001600160a01b0381168103614b7c579160a435906001600160401b038211614b7c57614d4691600401614d2b565b60405190614ed382614c6f565b606060a083600081526000602082015282604082015282808201528260808201520152565b6020614f11918160405193828580945193849201614bf6565b810161016581520301902090565b818110614f2a575050565b60008155600101614f1f565b9190601f8111614f4557505050565b614de5926000526020600020906020601f840160051c83019310614f71575b601f0160051c0190614f1f565b9091508190614f64565b60405190614f8882614c6f565b600060a0838281528260208201528260408201526060808201528260808201520152565b91909182516001600160401b038111614c5957614fd381614fcd8454614d72565b84614f36565b6020601f821160011461500d5781929394600092615002575b50508160011b916000199060031b1c1916179055565b015190503880614fec565b601f1982169083600052806000209160005b8181106150575750958360019596971061503e575b505050811b019055565b015160001960f88460031b161c19169055388080615034565b9192602060018192868b01518155019401920161501f565b61508790602060405192828480945193849201614bf6565b810103902090565b600260fb54146150a057600260fb55565b60405162461bcd60e51b815260206004820152601f60248201527f5265656e7472616e637947756172643a207265656e7472616e742063616c6c006044820152606490fd5b604051906150f4602083614cb8565b60008083528290805b81811061510957505050565b6040519060408201918083106001600160401b03841117614c595760209260405260008152600083820152828286010152016150fd565b80548210156151585760005260206000200190600090565b634e487b7160e01b600052603260045260246000fd5b6001600160a01b03166000818152610164602052604090206003810154600019919060a01c60ff168061527e575b80615270575b615264575b5060005b60406000848152610168602052205481101561525e576151d8816040600086815261016860205220615140565b90549060031b1c604060008581526101676020522090600052602052604060002060ff600482015460a01c1680615251575b615218575b506001016151ab565b60030154600381101580615244575b8061523b575b1561520f579150600161520f565b5082811061522d565b5061016154811115615227565b506002810154151561520a565b50905090565b600291500154386151a7565b5060028082015411156151a2565b506001810154151561519c565b610171546001600160a01b0316156152dc57610172546202a30081018082116152c6574210156152c0574290036202a3000190565b50600090565b634e487b7160e01b600052601160045260246000fd5b600090565b60008151156153f25761016154156153e3575060146101665410156153d25760209060405161533a838201835192615323868281880196610c8481878a614bf6565b519020938492604051809381928751928391614bf6565b81016101658152030190205561016654600160401b811015614c595780600161536a920161016655610166615140565b6153bc578161538b600080516020615df6833981519152936153b093614fac565b8360005261018760205260006040812055604051918291604083526040830190614c19565b8460208301520390a190565b634e487b7160e01b600052600060045260246000fd5b6353bb24f960e01b60005260046000fd5b6336939d7d60e21b8152600490fd5b636cc61e7360e11b8152600490fd5b8051156154f7576101615480156154e6576001116154d55760146101665410156153d257602090604051615448838201835192615323868281880196610c8481878a614bf6565b81016101658152030190205561016654600160401b811015614c5957806001615478920161016655610166615140565b6153bc5781615499600080516020615df6833981519152936153b093614fac565b836000526101876020526001604060002055610162546001116154ca57604051918291604083526040830190614c19565b600161016255613d80565b630af469a960e31b60005260046000fd5b6336939d7d60e21b60005260046000fd5b636cc61e7360e11b60005260046000fd5b8051156154f7576101615480156154e6576002116154d55760146101665410156153d25760209060405161554f838201835192615323868281880196610c8481878a614bf6565b81016101658152030190205561016654600160401b811015614c595780600161557f920161016655610166615140565b6153bc57816155a0600080516020615df6833981519152936153b093614fac565b836000526101876020526002604060002055610162546002116155d157604051918291604083526040830190614c19565b600261016255613d80565b8051156154f7576101615480156154e6576003116154d55760146101665410156153d257602090604051615623838201835192615323868281880196610c8481878a614bf6565b81016101658152030190205561016654600160401b811015614c5957806001615653920161016655610166615140565b6153bc5781615674600080516020615df6833981519152936153b093614fac565b836000526101876020526003604060002055610162546003116156a557604051918291604083526040830190614c19565b600361016255613d80565b8051156154f7576101615480156154e6576004116154d55760146101665410156153d2576020906040516156f7838201835192615323868281880196610c8481878a614bf6565b81016101658152030190205561016654600160401b811015614c5957806001615727920161016655610166615140565b6153bc5781615748600080516020615df6833981519152936153b093614fac565b8360005261018760205260046040600020556101625460041161577957604051918291604083526040830190614c19565b600461016255613d80565b8051156154f7576101615480156154e6576005116154d55760146101665410156153d2576020906040516157cb838201835192615323868281880196610c8481878a614bf6565b81016101658152030190205561016654600160401b811015614c59578060016157fb920161016655610166615140565b6153bc578161581c600080516020615df6833981519152936153b093614fac565b8360005261018760205260056040600020556101625460051161584d57604051918291604083526040830190614c19565b600561016255613d80565b803b156158c4577f360894a13ba1a3210667c828492db98dca3e2076cc3735a920a3ca505d382bbc80546001600160a01b0319166001600160a01b039290921691821790557fbc7cd75a20ee27fd9adebab32041f755214dbc6bffa90cc0225b39da2e5c2d3b600080a2565b60405162461bcd60e51b815260206004820152602d60248201527f455243313936373a206e657720696d706c656d656e746174696f6e206973206e60448201526c1bdd08184818dbdb9d1c9858dd609a1b6064820152608490fd5b1561592657565b60405162461bcd60e51b815260206004820152602b60248201527f496e697469616c697a61626c653a20636f6e7472616374206973206e6f74206960448201526a6e697469616c697a696e6760a81b6064820152608490fd5b6020615998918160405193828580945193849201614bf6565b81016101658152030190205480156159bc5760005261018760205260406000205490565b5060001990565b90816020910312614b7c57518015158103614b7c5790565b9392909161016d54908181029181830414901517156152c6576127109004938415615b3d576001600160a01b0383169283158015615b35575b615b2457615a2490610160615dcb565b15615b135761016c546001600160a01b0316908115615b02576001600160a01b031615615af1576040516323b872dd60e01b81526001600160a01b0390921660048301526024820152604481018490526020816064816000865af18015615ae557615ab8575b507fd9cdec5afc25f7ba2ee747f81cc783a02ebf349091c32d2709b2f81619f754096020604051858152a390565b615ad99060203d602011615ade575b615ad18183614cb8565b8101906159c3565b615a8a565b503d615ac7565b6040513d6000823e3d90fd5b63e6c4247b60e01b60005260046000fd5b63af8c927d60e01b60005260046000fd5b636cb9962360e01b60005260046000fd5b63162908e360e11b60005260046000fd5b506000615a14565b5050505050600090565b60018060a01b0316600052610167602052604060002090600052602052604060002060ff600482015460a01c1680615b8c575b615b85575060001990565b6003015490565b5060028101541515615b7a565b603380546001600160a01b039283166001600160a01b0319821681179092559091167f8be0079c531659141344cd1fd0a4f28419497f9722a3daafe3b4186f6b6457e0600080a3565b60005b6101705480821015615cc257615bfd82610170615140565b905460039190911b1c6001600160a01b0390811690841614615c225750600101615be5565b615c799250615c3a615c559160001901610170615140565b905460039190911b1c6001600160a01b031691610170615140565b81546001600160a01b0393841660039290921b91821b9390911b1916919091179055565b610170548015615cac5760001901615c9381610170615140565b81549060018060a01b039060031b1b1916905561017055565b634e487b7160e01b600052603160045260246000fd5b505050565b6001600160a01b031615908115615cf1575b50615ce057565b63d92e233d60e01b60005260046000fd5b6001600160a01b031615905038615cd9565b3d15615d2e573d90615d1482614cd9565b91615d226040519384614cb8565b82523d6000602084013e565b606090565b9060018060a01b03168060005261018f60205260406000208260005260205260ff6040600020541615615d64575050565b60406000828152610168602052208054600160401b811015614c5957615d8f91600182018155615140565b81549060031b9084821b91600019901b191617905560005261018f6020526040600020906000526020526040600020600160ff19825416179055565b6001600160a01b03909116908115615dee57600e01546001600160a01b03161490565b505060009056fee7f2ce811231737c7fa824ab7e10edafbd2c60dfa014137d276462c057da07baa2646970667358221220da689d4cb1fdf8aec928ca94afcc83587ac3c311e99dc2bcda8e4b7d437afcc464736f6c634300081c0033",
  "linkReferences": {},
  "deployedLinkReferences": {}
}