{
  "_format": "hh-sol-artifact-1",
  "contractName": "VanellixDAOController",
  "sourceName": "contracts/VanellixDAOController.sol",
  "abi": [
    {
      "inputs": [],
      "name": "AlreadyApplied",
      "type": "error"
    },
    {
      "inputs": [],
      "name": "AlreadySet",
      "type": "error"
    },
    {
      "inputs": [],
      "name": "AlreadyVoted",
      "type": "error"
    },
    {
      "inputs": [],
      "name": "CallerNotLaunchpadOwner",
      "type": "error"
    },
    {
      "inputs": [],
      "name": "CompanyNotActive",
      "type": "error"
    },
    {
      "inputs": [],
      "name": "ConsensusNotReached",
      "type": "error"
    },
    {
      "inputs": [],
      "name": "DAOBannedFromSegment",
      "type": "error"
    },
    {
      "inputs": [],
      "name": "DailyLimitReached",
      "type": "error"
    },
    {
      "inputs": [],
      "name": "DescriptionRequired",
      "type": "error"
    },
    {
      "inputs": [],
      "name": "ExecutionFailed",
      "type": "error"
    },
    {
      "inputs": [],
      "name": "InsufficientMeritTokens",
      "type": "error"
    },
    {
      "inputs": [],
      "name": "InsufficientPermission",
      "type": "error"
    },
    {
      "inputs": [],
      "name": "InsufficientPoolBalance",
      "type": "error"
    },
    {
      "inputs": [],
      "name": "InsufficientTokens",
      "type": "error"
    },
    {
      "inputs": [],
      "name": "InsufficientUtilityTokens",
      "type": "error"
    },
    {
      "inputs": [],
      "name": "InterfaceNotSet",
      "type": "error"
    },
    {
      "inputs": [],
      "name": "InvalidAddress",
      "type": "error"
    },
    {
      "inputs": [],
      "name": "InvalidAmount",
      "type": "error"
    },
    {
      "inputs": [],
      "name": "InvalidContractAddress",
      "type": "error"
    },
    {
      "inputs": [],
      "name": "InvalidJobOffer",
      "type": "error"
    },
    {
      "inputs": [],
      "name": "InvalidProposal",
      "type": "error"
    },
    {
      "inputs": [],
      "name": "InvalidProposal",
      "type": "error"
    },
    {
      "inputs": [],
      "name": "InvalidQuorumPercentage",
      "type": "error"
    },
    {
      "inputs": [],
      "name": "InvalidTokenAddress",
      "type": "error"
    },
    {
      "inputs": [],
      "name": "InvalidTokenId",
      "type": "error"
    },
    {
      "inputs": [],
      "name": "LaunchpadNotConfigured",
      "type": "error"
    },
    {
      "inputs": [],
      "name": "NoGovernanceTokens",
      "type": "error"
    },
    {
      "inputs": [],
      "name": "NoMeritTokensForSegment",
      "type": "error"
    },
    {
      "inputs": [],
      "name": "NotApprovedRoleContract",
      "type": "error"
    },
    {
      "inputs": [],
      "name": "NotAuthorized",
      "type": "error"
    },
    {
      "inputs": [],
      "name": "NotAuthorizedToPostJobOffers",
      "type": "error"
    },
    {
      "inputs": [],
      "name": "NotEnoughMeritTokens",
      "type": "error"
    },
    {
      "inputs": [],
      "name": "NotFastBanner",
      "type": "error"
    },
    {
      "inputs": [],
      "name": "NotRegisteredCompany",
      "type": "error"
    },
    {
      "inputs": [],
      "name": "NotRegisteredDAO",
      "type": "error"
    },
    {
      "inputs": [],
      "name": "ProposalAlreadyExecuted",
      "type": "error"
    },
    {
      "inputs": [],
      "name": "ProposalBanned",
      "type": "error"
    },
    {
      "inputs": [],
      "name": "QuorumBelowMinimum",
      "type": "error"
    },
    {
      "inputs": [],
      "name": "QuorumNotReached",
      "type": "error"
    },
    {
      "inputs": [],
      "name": "RenounceOwnershipDisabled",
      "type": "error"
    },
    {
      "inputs": [],
      "name": "SegmentRequired",
      "type": "error"
    },
    {
      "inputs": [],
      "name": "TransferOwnershipDirectDisabled",
      "type": "error"
    },
    {
      "inputs": [],
      "name": "UnauthorizedCaller",
      "type": "error"
    },
    {
      "inputs": [],
      "name": "UpgradeToAndCallDisabled",
      "type": "error"
    },
    {
      "inputs": [],
      "name": "UserBanned",
      "type": "error"
    },
    {
      "inputs": [],
      "name": "VotingPeriodEnded",
      "type": "error"
    },
    {
      "inputs": [],
      "name": "VotingPeriodTooShort",
      "type": "error"
    },
    {
      "inputs": [],
      "name": "WeeklyLimitReached",
      "type": "error"
    },
    {
      "inputs": [],
      "name": "ZeroAddress",
      "type": "error"
    },
    {
      "anonymous": false,
      "inputs": [
        {
          "indexed": false,
          "internalType": "address",
          "name": "previousAdmin",
          "type": "address"
        },
        {
          "indexed": false,
          "internalType": "address",
          "name": "newAdmin",
          "type": "address"
        }
      ],
      "name": "AdminChanged",
      "type": "event"
    },
    {
      "anonymous": false,
      "inputs": [
        {
          "indexed": true,
          "internalType": "address",
          "name": "beacon",
          "type": "address"
        }
      ],
      "name": "BeaconUpgraded",
      "type": "event"
    },
    {
      "anonymous": false,
      "inputs": [
        {
          "indexed": true,
          "internalType": "uint256",
          "name": "id",
          "type": "uint256"
        },
        {
          "indexed": true,
          "internalType": "address",
          "name": "proposer",
          "type": "address"
        },
        {
          "indexed": false,
          "internalType": "string",
          "name": "ideaDescription",
          "type": "string"
        },
        {
          "indexed": false,
          "internalType": "uint256",
          "name": "timestamp",
          "type": "uint256"
        },
        {
          "indexed": false,
          "internalType": "address",
          "name": "tokenToRaise",
          "type": "address"
        },
        {
          "indexed": false,
          "internalType": "uint256",
          "name": "totalAmountToRaise",
          "type": "uint256"
        },
        {
          "indexed": false,
          "internalType": "address",
          "name": "targetWallet",
          "type": "address"
        }
      ],
      "name": "BrainstormProposed",
      "type": "event"
    },
    {
      "anonymous": false,
      "inputs": [
        {
          "indexed": true,
          "internalType": "uint256",
          "name": "id",
          "type": "uint256"
        },
        {
          "indexed": false,
          "internalType": "address",
          "name": "supporter",
          "type": "address"
        },
        {
          "indexed": false,
          "internalType": "uint256",
          "name": "voteWeight",
          "type": "uint256"
        }
      ],
      "name": "BrainstormSupported",
      "type": "event"
    },
    {
      "anonymous": false,
      "inputs": [
        {
          "indexed": false,
          "internalType": "uint256",
          "name": "actionId",
          "type": "uint256"
        },
        {
          "indexed": false,
          "internalType": "enum DaoStructs.Category",
          "name": "category",
          "type": "uint8"
        },
        {
          "indexed": false,
          "internalType": "uint256",
          "name": "newCost",
          "type": "uint256"
        }
      ],
      "name": "CostChanged",
      "type": "event"
    },
    {
      "anonymous": false,
      "inputs": [
        {
          "indexed": false,
          "internalType": "uint256",
          "name": "tokenId",
          "type": "uint256"
        },
        {
          "indexed": true,
          "internalType": "address",
          "name": "daoAddress",
          "type": "address"
        },
        {
          "indexed": false,
          "internalType": "bool",
          "name": "banStatus",
          "type": "bool"
        }
      ],
      "name": "DAOBanStatusChanged",
      "type": "event"
    },
    {
      "anonymous": false,
      "inputs": [
        {
          "indexed": true,
          "internalType": "address",
          "name": "token",
          "type": "address"
        },
        {
          "indexed": false,
          "internalType": "uint256",
          "name": "newBalance",
          "type": "uint256"
        }
      ],
      "name": "DaoPoolBalanceUpdated",
      "type": "event"
    },
    {
      "anonymous": false,
      "inputs": [
        {
          "indexed": true,
          "internalType": "address",
          "name": "token",
          "type": "address"
        },
        {
          "indexed": true,
          "internalType": "address",
          "name": "recipient",
          "type": "address"
        },
        {
          "indexed": false,
          "internalType": "uint256",
          "name": "amount",
          "type": "uint256"
        }
      ],
      "name": "DaoPoolTokensUsed",
      "type": "event"
    },
    {
      "anonymous": false,
      "inputs": [
        {
          "indexed": true,
          "internalType": "enum DaoStructs.Category",
          "name": "category",
          "type": "uint8"
        },
        {
          "indexed": true,
          "internalType": "address",
          "name": "user",
          "type": "address"
        },
        {
          "indexed": false,
          "internalType": "bool",
          "name": "status",
          "type": "bool"
        }
      ],
      "name": "FastBannerBySegmentUpdated",
      "type": "event"
    },
    {
      "anonymous": false,
      "inputs": [
        {
          "indexed": true,
          "internalType": "address",
          "name": "user",
          "type": "address"
        },
        {
          "indexed": false,
          "internalType": "bool",
          "name": "status",
          "type": "bool"
        }
      ],
      "name": "FastBannerUpdated",
      "type": "event"
    },
    {
      "anonymous": false,
      "inputs": [
        {
          "indexed": true,
          "internalType": "address",
          "name": "minter",
          "type": "address"
        },
        {
          "indexed": false,
          "internalType": "bool",
          "name": "enabled",
          "type": "bool"
        }
      ],
      "name": "FastMinterSet",
      "type": "event"
    },
    {
      "anonymous": false,
      "inputs": [
        {
          "indexed": false,
          "internalType": "address",
          "name": "globalMeritocracy",
          "type": "address"
        }
      ],
      "name": "GlobalMeritocracySet",
      "type": "event"
    },
    {
      "anonymous": false,
      "inputs": [
        {
          "indexed": false,
          "internalType": "uint8",
          "name": "version",
          "type": "uint8"
        }
      ],
      "name": "Initialized",
      "type": "event"
    },
    {
      "anonymous": false,
      "inputs": [
        {
          "indexed": true,
          "internalType": "uint256",
          "name": "jobId",
          "type": "uint256"
        },
        {
          "indexed": false,
          "internalType": "address",
          "name": "applicant",
          "type": "address"
        }
      ],
      "name": "JobApplicationSubmitted",
      "type": "event"
    },
    {
      "anonymous": false,
      "inputs": [
        {
          "indexed": true,
          "internalType": "uint256",
          "name": "jobId",
          "type": "uint256"
        }
      ],
      "name": "JobOfferClosed",
      "type": "event"
    },
    {
      "anonymous": false,
      "inputs": [
        {
          "indexed": true,
          "internalType": "uint256",
          "name": "id",
          "type": "uint256"
        },
        {
          "indexed": false,
          "internalType": "address",
          "name": "poster",
          "type": "address"
        },
        {
          "indexed": false,
          "internalType": "string",
          "name": "title",
          "type": "string"
        },
        {
          "indexed": false,
          "internalType": "uint256",
          "name": "requiredTokenId",
          "type": "uint256"
        },
        {
          "indexed": false,
          "internalType": "uint256",
          "name": "minimumMeritTokens",
          "type": "uint256"
        }
      ],
      "name": "JobOfferPosted",
      "type": "event"
    },
    {
      "anonymous": false,
      "inputs": [
        {
          "indexed": true,
          "internalType": "address",
          "name": "user",
          "type": "address"
        },
        {
          "indexed": false,
          "internalType": "uint256",
          "name": "tokenId",
          "type": "uint256"
        },
        {
          "indexed": false,
          "internalType": "uint256",
          "name": "amount",
          "type": "uint256"
        }
      ],
      "name": "MeritTokensAwarded",
      "type": "event"
    },
    {
      "anonymous": false,
      "inputs": [
        {
          "indexed": false,
          "internalType": "uint256",
          "name": "newDailyLimit",
          "type": "uint256"
        },
        {
          "indexed": false,
          "internalType": "uint256",
          "name": "newWeeklyLimit",
          "type": "uint256"
        }
      ],
      "name": "NonSegmentedProposalLimitsUpdated",
      "type": "event"
    },
    {
      "anonymous": false,
      "inputs": [
        {
          "indexed": true,
          "internalType": "address",
          "name": "previousOwner",
          "type": "address"
        },
        {
          "indexed": true,
          "internalType": "address",
          "name": "newOwner",
          "type": "address"
        }
      ],
      "name": "OwnershipTransferred",
      "type": "event"
    },
    {
      "anonymous": false,
      "inputs": [
        {
          "indexed": false,
          "internalType": "address",
          "name": "account",
          "type": "address"
        }
      ],
      "name": "Paused",
      "type": "event"
    },
    {
      "anonymous": false,
      "inputs": [
        {
          "indexed": true,
          "internalType": "uint256",
          "name": "proposalId",
          "type": "uint256"
        },
        {
          "indexed": false,
          "internalType": "bool",
          "name": "banStatus",
          "type": "bool"
        }
      ],
      "name": "ProposalBanStatusChanged",
      "type": "event"
    },
    {
      "anonymous": false,
      "inputs": [
        {
          "indexed": true,
          "internalType": "uint256",
          "name": "id",
          "type": "uint256"
        },
        {
          "indexed": false,
          "internalType": "address",
          "name": "target",
          "type": "address"
        },
        {
          "indexed": false,
          "internalType": "bytes",
          "name": "callData",
          "type": "bytes"
        },
        {
          "indexed": false,
          "internalType": "bool",
          "name": "isQuorumChange",
          "type": "bool"
        },
        {
          "indexed": false,
          "internalType": "bool",
          "name": "isAmendment",
          "type": "bool"
        },
        {
          "indexed": false,
          "internalType": "uint256",
          "name": "parentId",
          "type": "uint256"
        },
        {
          "indexed": false,
          "internalType": "bool",
          "name": "requiresYesNo",
          "type": "bool"
        }
      ],
      "name": "ProposalCreated",
      "type": "event"
    },
    {
      "anonymous": false,
      "inputs": [
        {
          "indexed": true,
          "internalType": "uint256",
          "name": "id",
          "type": "uint256"
        },
        {
          "indexed": true,
          "internalType": "address",
          "name": "target",
          "type": "address"
        },
        {
          "indexed": false,
          "internalType": "bytes",
          "name": "callData",
          "type": "bytes"
        }
      ],
      "name": "ProposalExecuted",
      "type": "event"
    },
    {
      "anonymous": false,
      "inputs": [
        {
          "indexed": false,
          "internalType": "uint256",
          "name": "newPercentage",
          "type": "uint256"
        }
      ],
      "name": "QuorumPercentageUpdated",
      "type": "event"
    },
    {
      "anonymous": false,
      "inputs": [
        {
          "indexed": false,
          "internalType": "address",
          "name": "stakingMultiToken",
          "type": "address"
        }
      ],
      "name": "StakingMultiTokenSet",
      "type": "event"
    },
    {
      "anonymous": false,
      "inputs": [
        {
          "indexed": false,
          "internalType": "address",
          "name": "account",
          "type": "address"
        }
      ],
      "name": "Unpaused",
      "type": "event"
    },
    {
      "anonymous": false,
      "inputs": [
        {
          "indexed": true,
          "internalType": "address",
          "name": "implementation",
          "type": "address"
        }
      ],
      "name": "Upgraded",
      "type": "event"
    },
    {
      "anonymous": false,
      "inputs": [
        {
          "indexed": true,
          "internalType": "address",
          "name": "target",
          "type": "address"
        },
        {
          "indexed": false,
          "internalType": "bool",
          "name": "isGeneral",
          "type": "bool"
        },
        {
          "indexed": false,
          "internalType": "enum DaoStructs.Category",
          "name": "category",
          "type": "uint8"
        },
        {
          "indexed": false,
          "internalType": "bool",
          "name": "banStatus",
          "type": "bool"
        }
      ],
      "name": "UserBanStatusChanged",
      "type": "event"
    },
    {
      "anonymous": false,
      "inputs": [
        {
          "indexed": false,
          "internalType": "address",
          "name": "utilityToken",
          "type": "address"
        }
      ],
      "name": "UtilityTokenSet",
      "type": "event"
    },
    {
      "anonymous": false,
      "inputs": [
        {
          "indexed": true,
          "internalType": "uint256",
          "name": "id",
          "type": "uint256"
        },
        {
          "indexed": false,
          "internalType": "address",
          "name": "voter",
          "type": "address"
        },
        {
          "indexed": false,
          "internalType": "bool",
          "name": "support",
          "type": "bool"
        }
      ],
      "name": "VoteCast",
      "type": "event"
    },
    {
      "inputs": [
        {
          "internalType": "address",
          "name": "user",
          "type": "address"
        },
        {
          "internalType": "bool",
          "name": "status",
          "type": "bool"
        }
      ],
      "name": "addFastBanner",
      "outputs": [],
      "stateMutability": "nonpayable",
      "type": "function"
    },
    {
      "inputs": [
        {
          "internalType": "enum DaoStructs.Category",
          "name": "category",
          "type": "uint8"
        },
        {
          "internalType": "address",
          "name": "user",
          "type": "address"
        },
        {
          "internalType": "bool",
          "name": "status",
          "type": "bool"
        }
      ],
      "name": "addFastBannerBySegment",
      "outputs": [],
      "stateMutability": "nonpayable",
      "type": "function"
    },
    {
      "inputs": [
        {
          "internalType": "uint256",
          "name": "jobId",
          "type": "uint256"
        }
      ],
      "name": "applyToJob",
      "outputs": [],
      "stateMutability": "nonpayable",
      "type": "function"
    },
    {
      "inputs": [
        {
          "internalType": "uint256",
          "name": "tokenId",
          "type": "uint256"
        },
        {
          "internalType": "address",
          "name": "daoAddress",
          "type": "address"
        },
        {
          "internalType": "bool",
          "name": "banStatus",
          "type": "bool"
        }
      ],
      "name": "banDAOFromSegment",
      "outputs": [],
      "stateMutability": "nonpayable",
      "type": "function"
    },
    {
      "inputs": [
        {
          "internalType": "uint256",
          "name": "proposalId",
          "type": "uint256"
        },
        {
          "internalType": "bool",
          "name": "banStatus",
          "type": "bool"
        }
      ],
      "name": "banProposal",
      "outputs": [],
      "stateMutability": "nonpayable",
      "type": "function"
    },
    {
      "inputs": [
        {
          "internalType": "address",
          "name": "target",
          "type": "address"
        },
        {
          "internalType": "bool",
          "name": "isGeneral",
          "type": "bool"
        },
        {
          "internalType": "enum DaoStructs.Category",
          "name": "category",
          "type": "uint8"
        },
        {
          "internalType": "bool",
          "name": "banStatus",
          "type": "bool"
        }
      ],
      "name": "banUser",
      "outputs": [],
      "stateMutability": "nonpayable",
      "type": "function"
    },
    {
      "inputs": [
        {
          "internalType": "uint256",
          "name": "actionId",
          "type": "uint256"
        },
        {
          "internalType": "enum DaoStructs.Category",
          "name": "category",
          "type": "uint8"
        },
        {
          "internalType": "uint256",
          "name": "newCost",
          "type": "uint256"
        }
      ],
      "name": "changeCost",
      "outputs": [],
      "stateMutability": "nonpayable",
      "type": "function"
    },
    {
      "inputs": [
        {
          "internalType": "uint256",
          "name": "jobId",
          "type": "uint256"
        }
      ],
      "name": "closeJobOffer",
      "outputs": [],
      "stateMutability": "nonpayable",
      "type": "function"
    },
    {
      "inputs": [
        {
          "internalType": "uint256",
          "name": "tokenId",
          "type": "uint256"
        },
        {
          "internalType": "bool",
          "name": "allow",
          "type": "bool"
        }
      ],
      "name": "daoAllowSelfInSegment",
      "outputs": [],
      "stateMutability": "nonpayable",
      "type": "function"
    },
    {
      "inputs": [
        {
          "internalType": "string",
          "name": "name",
          "type": "string"
        },
        {
          "internalType": "string",
          "name": "symbol",
          "type": "string"
        }
      ],
      "name": "daoCreateSegment",
      "outputs": [
        {
          "internalType": "uint256",
          "name": "tokenId",
          "type": "uint256"
        }
      ],
      "stateMutability": "nonpayable",
      "type": "function"
    },
    {
      "inputs": [
        {
          "internalType": "address",
          "name": "to",
          "type": "address"
        },
        {
          "internalType": "uint256",
          "name": "tokenId",
          "type": "uint256"
        },
        {
          "internalType": "uint256",
          "name": "amount",
          "type": "uint256"
        }
      ],
      "name": "daoMintSingle",
      "outputs": [],
      "stateMutability": "nonpayable",
      "type": "function"
    },
    {
      "inputs": [
        {
          "internalType": "bytes",
          "name": "data",
          "type": "bytes"
        }
      ],
      "name": "daoProcessMintBatch",
      "outputs": [],
      "stateMutability": "nonpayable",
      "type": "function"
    },
    {
      "inputs": [
        {
          "internalType": "address",
          "name": "gm",
          "type": "address"
        }
      ],
      "name": "daoSetGlobalMeritocracy",
      "outputs": [],
      "stateMutability": "nonpayable",
      "type": "function"
    },
    {
      "inputs": [
        {
          "internalType": "uint256",
          "name": "tokenId",
          "type": "uint256"
        },
        {
          "internalType": "uint256",
          "name": "newMaxMintAmount",
          "type": "uint256"
        }
      ],
      "name": "daoSetSegmentMintAmount",
      "outputs": [],
      "stateMutability": "nonpayable",
      "type": "function"
    },
    {
      "inputs": [
        {
          "internalType": "uint256",
          "name": "tokenId",
          "type": "uint256"
        },
        {
          "internalType": "address",
          "name": "user",
          "type": "address"
        },
        {
          "internalType": "bool",
          "name": "enable",
          "type": "bool"
        }
      ],
      "name": "daoSetUserInSegment",
      "outputs": [],
      "stateMutability": "nonpayable",
      "type": "function"
    },
    {
      "inputs": [],
      "name": "daoTransitionTimestamp",
      "outputs": [
        {
          "internalType": "uint256",
          "name": "",
          "type": "uint256"
        }
      ],
      "stateMutability": "view",
      "type": "function"
    },
    {
      "inputs": [
        {
          "internalType": "uint256",
          "name": "id",
          "type": "uint256"
        }
      ],
      "name": "execute",
      "outputs": [],
      "stateMutability": "nonpayable",
      "type": "function"
    },
    {
      "inputs": [
        {
          "internalType": "address",
          "name": "target",
          "type": "address"
        },
        {
          "internalType": "bool",
          "name": "isGeneral",
          "type": "bool"
        },
        {
          "internalType": "enum DaoStructs.Category",
          "name": "category",
          "type": "uint8"
        },
        {
          "internalType": "bool",
          "name": "banStatus",
          "type": "bool"
        }
      ],
      "name": "fastBanUser",
      "outputs": [],
      "stateMutability": "nonpayable",
      "type": "function"
    },
    {
      "inputs": [],
      "name": "getAdminRole",
      "outputs": [
        {
          "internalType": "bytes32",
          "name": "",
          "type": "bytes32"
        }
      ],
      "stateMutability": "view",
      "type": "function"
    },
    {
      "inputs": [
        {
          "internalType": "uint256",
          "name": "jobId",
          "type": "uint256"
        }
      ],
      "name": "getApplicants",
      "outputs": [
        {
          "internalType": "address[]",
          "name": "",
          "type": "address[]"
        }
      ],
      "stateMutability": "view",
      "type": "function"
    },
    {
      "inputs": [
        {
          "internalType": "uint256",
          "name": "id",
          "type": "uint256"
        }
      ],
      "name": "getBrainstormProposal",
      "outputs": [
        {
          "internalType": "address",
          "name": "",
          "type": "address"
        },
        {
          "internalType": "string",
          "name": "",
          "type": "string"
        },
        {
          "internalType": "uint256",
          "name": "",
          "type": "uint256"
        },
        {
          "internalType": "uint256",
          "name": "",
          "type": "uint256"
        },
        {
          "internalType": "address",
          "name": "",
          "type": "address"
        },
        {
          "internalType": "uint256",
          "name": "",
          "type": "uint256"
        },
        {
          "internalType": "address",
          "name": "",
          "type": "address"
        }
      ],
      "stateMutability": "view",
      "type": "function"
    },
    {
      "inputs": [],
      "name": "getLaunchpadAddress",
      "outputs": [
        {
          "internalType": "address",
          "name": "",
          "type": "address"
        }
      ],
      "stateMutability": "view",
      "type": "function"
    },
    {
      "inputs": [],
      "name": "getMyAddress",
      "outputs": [
        {
          "internalType": "address",
          "name": "",
          "type": "address"
        }
      ],
      "stateMutability": "view",
      "type": "function"
    },
    {
      "inputs": [],
      "name": "getOwner",
      "outputs": [
        {
          "internalType": "address",
          "name": "",
          "type": "address"
        }
      ],
      "stateMutability": "view",
      "type": "function"
    },
    {
      "inputs": [
        {
          "internalType": "address",
          "name": "_launchpad",
          "type": "address"
        },
        {
          "internalType": "uint256",
          "name": "_companyId",
          "type": "uint256"
        },
        {
          "internalType": "address",
          "name": "_governanceTokenProxy",
          "type": "address"
        }
      ],
      "name": "initialize",
      "outputs": [],
      "stateMutability": "nonpayable",
      "type": "function"
    },
    {
      "inputs": [],
      "name": "launchpad",
      "outputs": [
        {
          "internalType": "contract IVanellixLaunchpadExtended",
          "name": "",
          "type": "address"
        }
      ],
      "stateMutability": "view",
      "type": "function"
    },
    {
      "inputs": [
        {
          "internalType": "address",
          "name": "to",
          "type": "address"
        },
        {
          "internalType": "uint256",
          "name": "tokenId",
          "type": "uint256"
        },
        {
          "internalType": "uint256",
          "name": "amount",
          "type": "uint256"
        }
      ],
      "name": "mintMeritTokens",
      "outputs": [],
      "stateMutability": "nonpayable",
      "type": "function"
    },
    {
      "inputs": [],
      "name": "owner",
      "outputs": [
        {
          "internalType": "address",
          "name": "",
          "type": "address"
        }
      ],
      "stateMutability": "view",
      "type": "function"
    },
    {
      "inputs": [],
      "name": "pause",
      "outputs": [],
      "stateMutability": "nonpayable",
      "type": "function"
    },
    {
      "inputs": [],
      "name": "paused",
      "outputs": [
        {
          "internalType": "bool",
          "name": "",
          "type": "bool"
        }
      ],
      "stateMutability": "view",
      "type": "function"
    },
    {
      "inputs": [
        {
          "internalType": "string",
          "name": "title",
          "type": "string"
        },
        {
          "internalType": "string",
          "name": "description",
          "type": "string"
        },
        {
          "internalType": "uint256",
          "name": "requiredTokenId",
          "type": "uint256"
        },
        {
          "internalType": "uint256",
          "name": "minimumMeritTokens",
          "type": "uint256"
        },
        {
          "internalType": "enum DaoStructs.Category",
          "name": "category",
          "type": "uint8"
        }
      ],
      "name": "postJobOffer",
      "outputs": [],
      "stateMutability": "nonpayable",
      "type": "function"
    },
    {
      "inputs": [
        {
          "components": [
            {
              "internalType": "address",
              "name": "target",
              "type": "address"
            },
            {
              "internalType": "bytes",
              "name": "callData",
              "type": "bytes"
            },
            {
              "internalType": "bool",
              "name": "isQuorumChange",
              "type": "bool"
            },
            {
              "internalType": "bool",
              "name": "isAmendment",
              "type": "bool"
            },
            {
              "internalType": "uint256",
              "name": "parentId",
              "type": "uint256"
            },
            {
              "internalType": "enum DaoStructs.Category",
              "name": "category",
              "type": "uint8"
            },
            {
              "internalType": "uint256",
              "name": "requiredTokenId",
              "type": "uint256"
            },
            {
              "internalType": "bool",
              "name": "requiresYesNo",
              "type": "bool"
            },
            {
              "internalType": "uint256",
              "name": "votingDurationDays",
              "type": "uint256"
            }
          ],
          "internalType": "struct DaoStructs.ProposalParams",
          "name": "params",
          "type": "tuple"
        }
      ],
      "name": "propose",
      "outputs": [],
      "stateMutability": "nonpayable",
      "type": "function"
    },
    {
      "inputs": [
        {
          "components": [
            {
              "internalType": "string",
              "name": "ideaDescription",
              "type": "string"
            },
            {
              "internalType": "enum DaoStructs.Category",
              "name": "category",
              "type": "uint8"
            },
            {
              "internalType": "address",
              "name": "tokenToRaise",
              "type": "address"
            },
            {
              "internalType": "uint256",
              "name": "totalAmountToRaise",
              "type": "uint256"
            },
            {
              "internalType": "uint256",
              "name": "votingDurationDays",
              "type": "uint256"
            },
            {
              "internalType": "address",
              "name": "targetWallet",
              "type": "address"
            }
          ],
          "internalType": "struct DaoStructs.BrainstormParams",
          "name": "params",
          "type": "tuple"
        }
      ],
      "name": "proposeBrainstorm",
      "outputs": [],
      "stateMutability": "nonpayable",
      "type": "function"
    },
    {
      "inputs": [],
      "name": "proxiableUUID",
      "outputs": [
        {
          "internalType": "bytes32",
          "name": "",
          "type": "bytes32"
        }
      ],
      "stateMutability": "view",
      "type": "function"
    },
    {
      "inputs": [],
      "name": "renounceOwnership",
      "outputs": [],
      "stateMutability": "nonpayable",
      "type": "function"
    },
    {
      "inputs": [
        {
          "internalType": "address",
          "name": "minter",
          "type": "address"
        },
        {
          "internalType": "bool",
          "name": "enabled",
          "type": "bool"
        }
      ],
      "name": "setFastMinter",
      "outputs": [],
      "stateMutability": "nonpayable",
      "type": "function"
    },
    {
      "inputs": [
        {
          "internalType": "uint256",
          "name": "newPercentage",
          "type": "uint256"
        }
      ],
      "name": "setMinimumQuorumPercentage",
      "outputs": [],
      "stateMutability": "nonpayable",
      "type": "function"
    },
    {
      "inputs": [
        {
          "internalType": "uint256",
          "name": "newDailyLimit",
          "type": "uint256"
        },
        {
          "internalType": "uint256",
          "name": "newWeeklyLimit",
          "type": "uint256"
        }
      ],
      "name": "setNonSegmentedProposalLimits",
      "outputs": [],
      "stateMutability": "nonpayable",
      "type": "function"
    },
    {
      "inputs": [
        {
          "internalType": "address",
          "name": "_stakingMultiToken",
          "type": "address"
        }
      ],
      "name": "setStakingMultiToken",
      "outputs": [],
      "stateMutability": "nonpayable",
      "type": "function"
    },
    {
      "inputs": [],
      "name": "setUtilityToken",
      "outputs": [],
      "stateMutability": "nonpayable",
      "type": "function"
    },
    {
      "inputs": [],
      "name": "stakingMultiToken",
      "outputs": [
        {
          "internalType": "contract IVanellixStakingMultiToken",
          "name": "",
          "type": "address"
        }
      ],
      "stateMutability": "view",
      "type": "function"
    },
    {
      "inputs": [
        {
          "internalType": "uint256",
          "name": "id",
          "type": "uint256"
        },
        {
          "internalType": "uint256",
          "name": "supportAmount",
          "type": "uint256"
        }
      ],
      "name": "supportBrainstorm",
      "outputs": [],
      "stateMutability": "nonpayable",
      "type": "function"
    },
    {
      "inputs": [
        {
          "internalType": "bytes4",
          "name": "interfaceId",
          "type": "bytes4"
        }
      ],
      "name": "supportsInterface",
      "outputs": [
        {
          "internalType": "bool",
          "name": "",
          "type": "bool"
        }
      ],
      "stateMutability": "view",
      "type": "function"
    },
    {
      "inputs": [
        {
          "internalType": "address",
          "name": "",
          "type": "address"
        }
      ],
      "name": "transferOwnership",
      "outputs": [],
      "stateMutability": "nonpayable",
      "type": "function"
    },
    {
      "inputs": [],
      "name": "unpause",
      "outputs": [],
      "stateMutability": "nonpayable",
      "type": "function"
    },
    {
      "inputs": [],
      "name": "updateOwnerFromLaunchpad",
      "outputs": [],
      "stateMutability": "nonpayable",
      "type": "function"
    },
    {
      "inputs": [
        {
          "internalType": "address",
          "name": "newImplementation",
          "type": "address"
        }
      ],
      "name": "upgradeTo",
      "outputs": [],
      "stateMutability": "nonpayable",
      "type": "function"
    },
    {
      "inputs": [
        {
          "internalType": "address",
          "name": "",
          "type": "address"
        },
        {
          "internalType": "bytes",
          "name": "",
          "type": "bytes"
        }
      ],
      "name": "upgradeToAndCall",
      "outputs": [],
      "stateMutability": "payable",
      "type": "function"
    },
    {
      "inputs": [
        {
          "internalType": "address",
          "name": "token",
          "type": "address"
        },
        {
          "internalType": "address",
          "name": "recipient",
          "type": "address"
        },
        {
          "internalType": "uint256",
          "name": "amount",
          "type": "uint256"
        }
      ],
      "name": "useDaoPoolTokens",
      "outputs": [],
      "stateMutability": "nonpayable",
      "type": "function"
    },
    {
      "inputs": [
        {
          "internalType": "uint256",
          "name": "id",
          "type": "uint256"
        },
        {
          "internalType": "bool",
          "name": "support",
          "type": "bool"
        }
      ],
      "name": "vote",
      "outputs": [],
      "stateMutability": "nonpayable",
      "type": "function"
    }
  ],
  "bytecode": "0x60a08060405234602257306080526159249081610028823960805181613c1d0152f35b600080fdfe608080604052600436101561001357600080fd5b600090813560e01c90816301ffc9a714614d735750806302669b5214614d495780630298d4f314614ca05780630396ab76146146da5780630c2f4219146145ed5780630c7d3f4f1461455a57806311f1011614614530578063131706451461448957806315e1eb53146143cf5780631f88e829146143705780632159aecd146141ad5780632f3fb04c146140e85780633659cfe614613fd25780633f4ba83a14613f2c5780634708752914613ddd5780634a26afd514613d2c5780634f1ef28614613ce057806352d1902d14613c0a5780635407a8e914613b5057806355a91be914613b2557806357889a36146139ff5780635c975abb146139dc57806361047c811461395a5780636cf5d86e146138a0578063715018a61461387557806374ced870146138565780637b17189f146131605780637f2a7a49146130ba5780638456cb5914613037578063850bcab914612f0d57806385d64da614612a25578063893d20e8146129fc5780638da5cb5b146129fc5780638e1a32d0146127ae57806391acde21146126d45780639a166299146126b9578063aa88527f14611c84578063add55dfa14611b2c578063b3dc978714611a8a578063b3ecf23614611a4f578063c350a1b514611293578063c6c7e27b146111fb578063c80fe0261461116b578063c9d27afe14610c63578063d468ec7814610bab578063e22a81a4146109e5578063e51036ba14610845578063f2fde38b14610813578063f7146641146107e95763fe0d94c11461024757600080fd5b346107e65760203660031901126107e657600435610263615289565b61026b6152df565b80825261016460205260408220908154156107d75760058201805460ff81166107c85782855261017960205260ff6040862054166107b9576101885442101561062a5761018954604051632ee325db60e21b81529060209082906001600160a01b031681806102dc600482016150b0565b03915afa9081156105d65786916105f0575b506001600160a01b031680156105e1578561018754602460405180948193630f6dd15560e41b835260048301525afa9081156105d65786916105b4575b50602001516001600160a01b031633036105a5576001905b60ff19161790556001820160018060a01b0381541692600281019385604051918192875461037081614fdf565b9060018116908115610590575060011461055c575b50828181950392624c4b40f13d15610557573d6103a181614f26565b906103af6040519283614eef565b81528660203d92013e5b156105485760ff60098201541661041c575b505460405160208082526001600160a01b03909216937fc98fbf8f20b11b050a9541d12aee1c11fcd31e8e42975cc885fb3d33a6accc8292829161041191830190615019565b0390a3600160fb5580f35b9060ff6101865460101c16156105395760018060a01b0361018c541685600b840191600a60018060a01b038454169501948554823b156105355760848492836040519586948593637ba5ff4760e11b85526004850152602484015268056bc75e2d6310000060448401523060648401525af1801561052a5761050d575b5050907fc98fbf8f20b11b050a9541d12aee1c11fcd31e8e42975cc885fb3d33a6accc82927f441c1aeb0e8e4eae8ca59e0a657295257d25db7bb870e63a9402c329a0f337e460406104119460018060a01b039054169254815190815268056bc75e2d631000006020820152a291506103cb565b8161051a91949394614eef565b61052657908538610499565b8580fd5b6040513d84823e3d90fd5b8380fd5b634659d43160e11b8552600485fd5b632b3f6d1160e21b8552600485fd5b6103b9565b888452602084209450835b81811061057957508101935082610385565b8554838201526001909501948a9450602001610567565b60ff1916835250801515028101935082610385565b63ea8e4eb560e01b8552600485fd5b6105d091503d8088833e6105c88183614eef565b810190615124565b3861032b565b6040513d88823e3d90fd5b634659d43160e11b8652600486fd5b90506020813d602011610622575b8161060b60209383614eef565b810103126105265761061c9061509c565b386102ee565b3d91506105fe565b61018a546040516370a0823160e01b815233600482015290602090829060249082906001600160a01b03165afa80156105d6578690610786575b600191501115610777576003840154600485015490818111156107685760ff600987015416610698575b5050600190610343565b906106a29161536b565b60018060a01b0361018c54166020600a870154602460405180948193633681622360e21b835260048301525afa90811561075d578791610726575b5061017c549081810291818304149015171561071257606490041161070357388061068e565b63aa26a69360e01b8552600485fd5b634e487b7160e01b87526011600452602487fd5b90506020813d602011610755575b8161074160209383614eef565b810103126107505751386106dd565b600080fd5b3d9150610734565b6040513d89823e3d90fd5b637a78bcf360e01b8752600487fd5b630deda90360e41b8552600485fd5b506020813d6020116107b1575b816107a060209383614eef565b810103126107505760019051610664565b3d9150610793565b63b86cda2960e01b8552600485fd5b6351618d5360e01b8552600485fd5b631dc0650160e31b8352600483fd5b80fd5b50346107e657806003193601126107e657610163546040516001600160a01b039091168152602090f35b50346107e65760203660031901126107e657600490610830614dc1565b50610839615289565b635a42e44960e01b8152fd5b50346107e65760403660031901126107e6576004356001600160401b03811161099057610876903690600401614ec2565b906024356001600160401b03811161053557610896903690600401614ec2565b92906108a0615289565b6108a86152df565b610162546108be906001600160a01b031661565e565b156109d65760ff6101865460101c161561053957849261090f949261092160209360018060a01b0361018c54169560405198899586956305e93af760e11b8752604060048801526044870191615437565b84810360031901602486015291615437565b038185855af192831561052a57829361099f575b50803b15610990578190604460405180948193634c23df8360e11b83523060048401528160248401525af180156109945761097b575b602082600160fb55604051908152f35b610986838092614eef565b610990578161096b565b5080fd5b6040513d85823e3d90fd5b915091506020813d6020116109ce575b816109bc60209383614eef565b81010312610750578290519138610935565b3d91506109af565b635c427cd960e01b8552600485fd5b50346107e65760203660031901126107e657600435610a02615289565b60648111610b9c5760328110610b8d5761018854421015610b5d5761018954604051632ee325db60e21b81529060209082906001600160a01b03168180610a4b600482016150b0565b03915afa908115610994578391610b1f575b506001600160a01b03168015610b10578261018754602460405180948193630f6dd15560e41b835260048301525afa908115610994578391610af6575b50602001516001600160a01b03163303610ae75760207ff45a9754991a0d077576b4ef07eab4b29e13f5e557e5a742f5351fef792421ab915b8061017c55604051908152a1600160fb5580f35b63ea8e4eb560e01b8252600482fd5b610b0a91503d8085833e6105c88183614eef565b38610a9a565b634659d43160e11b8352600483fd5b90506020813d602011610b55575b81610b3a60209383614eef565b81010312610b5157610b4b9061509c565b38610a5d565b8280fd5b3d9150610b2d565b303303610ae75760207ff45a9754991a0d077576b4ef07eab4b29e13f5e557e5a742f5351fef792421ab91610ad3565b635dba815960e11b8252600482fd5b63c093b13b60e01b8252600482fd5b50346107e65760603660031901126107e657600435600681101561099057610bd1614dd7565b906044359182151592838103610c5f577f3e3e9c44abc00151ef42501665fb0d4cc6f4db17d8674df588e5d43dfc3444b291610c46602092610c11615289565b610c196152df565b610c2286615323565b60018060a01b038416600052845260406000209060ff801983541691151516179055565b6040519485526001600160a01b031693a3600160fb5580f35b8480fd5b50346107e65760403660031901126107e657600435610c80614e2b565b610c88615289565b610c906152df565b818352610164602052604083209081541561115c576006820154421161114d57336000908152610173602052604090205460ff1661113e576006604051610ce581610cde8160028801615019565b0382614eef565b6020815191012006600681101561112a57600983015460ff168080611104575b6110f55784865261016660209081526040808820336000908152925290205460ff166110e657156110615760ff6101865460101c16156105395761018a546040516370a0823160e01b815233600482015290602090829060249082906001600160a01b03165afa9081156105d657869161102f575b50156110205761018c54600a840154604051627eeac760e11b815233600482015260248101919091529190602090839060449082906001600160a01b03165afa9182156105d6578692610fec575b508115610fdd575b60ff6101865416610e6e575b5083855261016660209081526040808720336000908152925290819020805460ff191660011790557fe71fcdac32df1877c1700e7bda2a03157e20993363a28fc35ac495cefc76e4d493909291908215610e58576003610e3f910191825461536b565b90555b81519033825215156020820152a2600160fb5580f35b6004610e67910191825461536b565b9055610e42565b60028652610172602052610e858160408820615353565b5415610fd357610ea2906002875261017260205260408720615353565b545b61018b546040516370a0823160e01b81523360048201526001600160a01b039091169190602081602481865afa8015610fc85782918991610f93575b5010610f84576040516323b872dd60e01b815233600482015260006024820152604481019190915290602090829060649082908a905af180156105d65715610ddc5791906020833d602011610f7c575b81610f3d60209383614eef565b81010312610526577fe71fcdac32df1877c1700e7bda2a03157e20993363a28fc35ac495cefc76e4d493610f72604094615117565b5093509091610ddc565b3d9150610f30565b6367f3585b60e01b8752600487fd5b9150506020813d602011610fc0575b81610faf60209383614eef565b810103126107505781905138610ee0565b3d9150610fa2565b6040513d8a823e3d90fd5b5061018054610ea4565b632146d11560e11b8652600486fd5b9091506020813d602011611018575b8161100860209383614eef565b8101031261075057519038610dc8565b3d9150610ffb565b6373b823a560e11b8552600485fd5b90506020813d602011611059575b8161104a60209383614eef565b81010312610750575138610d7a565b3d915061103d565b61018a546040516370a0823160e01b81523360048201529190602090839060249082906001600160a01b03165afa9182156105d65786926110b2575b5081610dd0576373b823a560e11b8652600486fd5b9091506020813d6020116110de575b816110ce60209383614eef565b810103126107505751903861109d565b3d91506110c1565b637c9a1cf960e01b8652600486fd5b63c602500f60e01b8652600486fd5b503360009081526101746020526040902060ff90611123908490615353565b5416610d05565b634e487b7160e01b85526021600452602485fd5b63c602500f60e01b8452600484fd5b63370ec37160e21b8452600484fd5b631dc0650160e31b8452600484fd5b50346107e65761117a36614f96565b91611186949394615289565b61118e6152df565b336000908152610175602052604090205460ff1615806111ce575b6111bf576111b79394615458565b600160fb5580f35b633509bea360e11b8452600484fd5b50801580156111a957506111e182615323565b336000908152602091909152604090205460ff16156111a9565b50346107e65760407fc4e0ff0e3fca09540fb41a69eee7453c9abde338217a0ef8dace4748a9fa7af061122d36614e47565b611238949294615289565b6112406152df565b84865261017760205282862060018060a01b03831660005260205261127481846000209060ff801983541691151516179055565b8251948552151560208501526001600160a01b031692a2600160fb5580f35b50346107e65760603660031901126107e6576112ad614dc1565b6044356001600160a01b03811690602435908290036105355783549260ff8460081c161593848095611a42575b8015611a2b575b156119cf5760ff1981166001178655846119be575b506001600160a01b03169182156119af5780156119af5761016280546001600160a01b031916841790556040516308f8808b60e11b8152602081600481875afa9081156105d6578691611975575b5060018060a01b0316806001600160601b0360a01b610160541617610160556001600160601b0360a01b610189541617610189558161018755603261017c5560405190632ee325db60e21b8252602082806113a1600482016150b0565b0381875afa9182156105d6578692611939575b5060405191632ee325db60e21b835260206004840152600c60248401526b546f6b656e466163746f727960a01b6044840152602083606481885afa92831561075d5787936118f9575b506001600160a01b031691821580156118e8575b6118d95760405190632ee325db60e21b825260206004830152600360248301526244414f60e81b6044830152602082606481895afa918215610fc8578892611899575b5060405163136b75cf60e11b81526004810186905290602082602481885afa91821561188e57899261184e575b506001600160a01b0316331491821561183b575b508115611828575b501561181957858315938415611788575b602460405180958193630f6dd15560e41b835260048301525afa9182156105d657869261176c575b5060208201516001600160a01b03161561175d5760c08201511561174e576101208201516001600160a01b031681900361173f5790610100916001600160601b0360a01b61018a54161761018a550151806101885581611736575b506116ca575b6020606491600561017d55600761017e55678ac7230489e8000061017f55674563918244f4000061018255671bc16d674ec8000061018055670de0b6b3a7640000610183556729a2241af62c00006101845560405192838092632ee325db60e21b82528460048301526011602483015270476c6f62616c4d657269746f637261637960781b60448301525afa908115610994578391611690575b506001600160a01b038116611681575b5061160460ff835460081c166115f6816155fe565b6115ff816155fe565b6155fe565b61160d33615562565b81549061163f60ff8360081c16611623816155fe565b61162c816155fe565b60ff1960c9541660c9556115ff816155fe565b600160fb5561164c575080f35b61ff00191681557f7f26b83ff96e1f2b6a682f133852f6798a09c465da95921460cefb3847402498602060405160018152a180f35b61168a906153a8565b386115e1565b90506020813d6020116116c2575b816116ab60209383614eef565b81010312610b51576116bc9061509c565b386115d1565b3d915061169e565b60405163074ced8760e41b8152602081600481855afa90811561172b5784916116f8575b5061018855611537565b90506020813d602011611723575b8161171360209383614eef565b81010312610750575160646116ee565b3d9150611706565b6040513d86823e3d90fd5b90501538611531565b6307ed98ed60e31b8652600486fd5b630245e10f60e51b8652600486fd5b6309e7af3560e31b8652600486fd5b6117819192503d8088833e6105c88183614eef565b90386114d6565b9050604051630f6dd15560e41b81528760048201528781602481875afa908115610fc85788916117ff575b5060208101516001600160a01b0316156117f05761012001516001600160a01b0316156117e15786906114ae565b6307ed98ed60e31b8752600487fd5b6309e7af3560e31b8852600488fd5b61181391503d808a833e6105c88183614eef565b386117b3565b635c427cd960e01b8652600486fd5b6001600160a01b0316331490503861149d565b6001600160a01b03163314915038611495565b9091506020813d602011611886575b8161186a60209383614eef565b810103126118825761187b9061509c565b9038611481565b8880fd5b3d915061185d565b6040513d8b823e3d90fd5b9091506020813d6020116118d1575b816118b560209383614eef565b810103126118cd576118c69061509c565b9038611454565b8780fd5b3d91506118a8565b631981931560e21b8752600487fd5b506001600160a01b03811615611411565b9092506020813d602011611931575b8161191560209383614eef565b8101031261192d576119269061509c565b91386113fd565b8680fd5b3d9150611908565b9091506020813d60201161196d575b8161195560209383614eef565b81010312610526576119669061509c565b90386113b4565b3d9150611948565b90506020813d6020116119a7575b8161199060209383614eef565b81010312610526576119a19061509c565b38611344565b3d9150611983565b63d92e233d60e01b8552600485fd5b61ffff1916610101178555386112f6565b60405162461bcd60e51b815260206004820152602e60248201527f496e697469616c697a61626c653a20636f6e747261637420697320616c72656160448201526d191e481a5b9a5d1a585b1a5e995960921b6064820152608490fd5b50303b1580156112e15750600160ff8216146112e1565b50600160ff8216106112da565b50346107e657806003193601126107e65760206040517fa36640f9c3d74ee87c99b3aee39f32849dda077410057abc393a2cb9e13139a78152f35b50346107e65760403660031901126107e657611aa4614dc1565b7ff1e21d25e33d46ab9f25208439e082609c2e668a7731d8643323e1bf62b34c336020611acf614e2b565b92611ad8615289565b611ae06152df565b6001600160a01b038116600090815261017560205260409020611b119085905b9060ff801983541691151516179055565b60405193151584526001600160a01b031692a2600160fb5580f35b50346107e657611b3b36614e01565b909291611b46615289565b60ff6101865460101c1615610b105761018c5460405163e8e4720760e01b81523360048201526001600160a01b039091169490602081602481895afa908115611c79578591611c3f575b5015611c305780845261017760209081526040808620336000908152925290205460ff16611c21578484953b15610c5f578492836084926040519687958694637ba5ff4760e11b865260018060a01b03166004860152602485015260448401523060648401525af1801561052a57611c0c575b50600160fb5580f35b81611c1691614eef565b6107e6578038611c03565b63e696fb4960e01b8452600484fd5b6344b311c360e01b8452600484fd5b90506020813d602011611c71575b81611c5a60209383614eef565b81010312610c5f57611c6b90615117565b38611b90565b3d9150611c4d565b6040513d87823e3d90fd5b50346107e65760203660031901126107e657600435906001600160401b0382116107e65761012060031983360301126107e657611cbf615289565b611cc76152df565b6040600080611d15611d238451611cde8682614eef565b600781526650726f706f736560c81b6020820152855192839163104c13eb60e21b6020840152602060248401526044830190614e9d565b03601f198101835282614eef565b6020815191016a636f6e736f6c652e6c6f675afa50611d44836004016155ab565b9260a481013560068110156105355760c4820135946001600160a01b038116159081156126af575b506126a057336000908152610173602052604090205460ff1661113e578415908115808061267a575b6110f55761018a5485516370a0823160e01b815233600482015290602090829060249082906001600160a01b03165afa9081156123dc578791612648575b501561263957612585575b62093a804204620151804204836000146125295733600090815261016c602052604090208188526020528587205461017d54111561251a5733600090815261016d602052604090208288526020528587205461017e54111561250b5733600090815261016c60205260409020908752602052848620611e5d8154615501565b905533600090815261016d60205260409020908652602052838520611e828154615501565b90555b6101048301359062015180820282810462015180148315171561071257611eac904261536b565b9262093a8042018042116124f75784106124e857611ecc856004016155ab565b6001600160a01b0316301461243d575b5060ff61018654166122ed575b84519061012082018281106001600160401b038211176122d9578652611f1185600401614ded565b825260248501356001600160401b0381116118cd57611f369060043691880101614f78565b9360208301948552611f4a60448701614e3a565b878401908152611f5c60648801614e3a565b916060850192835260808501936084890135855260a086015260c085019a8b5260e4880196611f8a88614e3a565b9660e08701978852610100870152611fa461017b54615501565b61017b819055808c526101646020528a8c2090815595516001870180546001600160a01b0319166001600160a01b0392909216919091179055518051906001600160401b0382116122c5576120098261200060028a0154614fdf565b60028a01615510565b602090601f831160011461222e5782600b989795938e9f9795937f39fb5954d216ca59744f43bdbb0bdf97fc63945c509a6fc0a34bf89148c1937a9e9f936120669492612223575b50508160011b916000199060031b1c19161790565b60028701555b8c60038701558c60048701556005860160ff1981541690556006860155511515906120a76007860192839060ff801983541691151516179055565b51151561ff0082549160081b169061ff001916179055516008830155516120df811515600984019060ff801983541691151516179055565b600a820155018054915160ff60a01b90151560a01b166001600160a81b03199092163360ff60a01b19161791909117905561017b548451909490600090819061216b9061217f906121308682614eef565b600c81526b0383937b837b9b0b624b21d160a51b60208201528551928391632d839cb360e21b60208401528760248401526064830190614e9d565b8a604483015203601f198101835282614eef565b6020815191016a636f6e736f6c652e6c6f675afa506121a0836004016155ab565b9160846121b360248601866004016155bf565b9590926121c2604483016155f1565b946121fc6121db6121d5606486016155f1565b936155f1565b958251998a9960018060a01b03168a5260c060208b015260c08a0191615437565b951515908701521515606086015201356080840152151560a08301520390a2600160fb5580f35b015190503880612051565b90600288018d52808d20918d5b601f19851681106122ad5750927f39fb5954d216ca59744f43bdbb0bdf97fc63945c509a6fc0a34bf89148c1937a9c9d9e969492600192600b9a99979583601f19811610612294575b505050811b01600287015561206c565b015160001960f88460031b161c19169055388080612284565b9192602060018192868501518155019401920161223b565b634e487b7160e01b8c52604160045260248cfd5b634e487b7160e01b88526041600452602488fd5b85805261017260205261230281868820615353565b54156124345785805261017260205261231d81868820615353565b545b61018b5486516370a0823160e01b81523360048201526001600160a01b039091169190602081602481865afa90811561242a579082918a916123f5575b50106123e65786516323b872dd60e01b815233600482015260006024820152604481019190915290602090829060649082908b905af180156123dc576123a3575b50611ee9565b6020813d6020116123d4575b816123bc60209383614eef565b8101031261192d576123cd90615117565b503861239d565b3d91506123af565b86513d89823e3d90fd5b6367f3585b60e01b8852600488fd5b9150506020813d602011612422575b8161241160209383614eef565b81010312610750578190513861235c565b3d9150612404565b88513d8b823e3d90fd5b61017f5461231f565b61244d60248601866004016155bf565b806004116118825781356001600160e01b031916630dd3d05d60e31b14612476575b5050611edc565b606090820182900360031901126118cd576006600482013510156118cd5760248101356001600160a01b03811691908290036118825760446124b89101614e3a565b50156124d9576124ca5738808061246f565b631b13732760e01b8652600486fd5b63e6c4247b60e01b8752600487fd5b6331806aeb60e21b8752600487fd5b634e487b7160e01b88526011600452602488fd5b63626a0e6560e11b8752600487fd5b63f402e5b160e01b8752600487fd5b5033600090815261016a6020526040902081875260205260018587205410156125765733600090815261016a6020526040902090865260205283852061256f8154615501565b9055611e85565b63626a0e6560e11b8652600486fd5b60ff6101865460101c16156105395761018c548451627eeac760e11b81523360048201526024810188905290602090829060449082906001600160a01b03165afa801561262f5786906125f4575b6802b5e3af16b188000091501015611dde5763705314b160e01b8552600485fd5b506020813d602011612627575b8161260e60209383614eef565b81010312610750576802b5e3af16b188000090516125d3565b3d9150612601565b85513d88823e3d90fd5b630deda90360e41b8652600486fd5b90506020813d602011612672575b8161266360209383614eef565b81010312610750575138611dd3565b3d9150612656565b503360009081526101746020526040902060ff90612699908490615353565b5416611d95565b63a710429d60e01b8452600484fd5b90503b1538611d6c565b50346107e657806003193601126107e6576020604051308152f35b50346107e65760403660031901126107e6576126ee614e2b565b6126f6615289565b6126fe6152df565b61016254612714906001600160a01b031661565e565b1561279f5760ff6101865460101c16156127905761018c548291906001600160a01b0316803b1561278c5760405163383ccc9560e11b8152600480359082015230602482015291151560448301526000606483015282908290818381608481015b03925af1801561052a57611c0c5750600160fb5580f35b5050fd5b634659d43160e11b8252600482fd5b635c427cd960e01b8252600482fd5b50346107e65760203660031901126107e6576004356127cb615289565b6127d36152df565b8082526101676020526040822080541580156129ed575b6129de57336000908152610173602052604090205460ff166129cf573360009081526101746020526040902060ff9061282d9082600785015460081c1690615353565b54166129cf5781835261016860209081526040808520336000908152925290205460ff166129c15760ff6101865460101c1615610b105761018c54600482810154604051627eeac760e11b8152339281019290925260248201529190602090839060449082906001600160a01b03165afa91821561172b57849261298c575b50600501541161297d5780825261016860209081526040808420336000908152908352819020805460ff1916600117905582845261016990915282208054906801000000000000000082101561296957600182018082558210156129555783526020832001336001600160601b0360a01b8254161790557f7af8dab8f5b5481df3e0d9f1ac4bf4af4a4e76f28dba128d6e12201b992bebbe6020604051338152a2600160fb5580f35b634e487b7160e01b84526032600452602484fd5b634e487b7160e01b84526041600452602484fd5b6378df347d60e11b8252600482fd5b9091506020813d6020116129b9575b816129a860209383614eef565b8101031261075057519060056128ac565b3d915061299b565b62540c0360e11b8352600483fd5b63c602500f60e01b8352600483fd5b638775fbc560e01b8352600483fd5b5060ff600782015416156127ea565b50346107e657806003193601126107e6576033546040516001600160a01b039091168152602090f35b50346107e65760a03660031901126107e6576004356001600160401b03811161099057612a56903690600401614ec2565b6024929192356001600160401b038111610b5157612a78903690600401614ec2565b9390916044356064359360843590600682101561192d57612a97615289565b612a9f6152df565b336000908152610173602052604090205460ff16612efe573360009081526101746020526040902060ff90612ad5908490615353565b5416612efe57612ae433615799565b15612eef5783158015612ee7575b612ed85760ff6101865416612d8b575b612b0e61018554615501565b610185819055808852610167602052604088209081556001810180546001600160a01b0319163317905597600289016001600160401b038611612d0857612b5f86612b598354614fdf565b83615510565b8886601f8111600114612d275780612b8c928c91612d1c575b508160011b916000199060031b1c19161790565b90555b60038901916001600160401b038211612d0857612bb682612bb08554614fdf565b85615510565b8890601f8311600114612c7c5792612c0e836007948c9d946001977f84f88a51a725fa8c7af66b2be71807c1b177f30b8f7b47e692d2f543301130ba9d9e92612c715750508160011b916000199060031b1c19161790565b90555b846004820155886005820155426006820155019161ff0083549160081b169061ffff1916171790556101855494612c5b604051948594338652608060208701526080860191615437565b91604084015260608301520390a2600160fb5580f35b013590503880612051565b838a5260208a2091601f1984168b5b818110612cf05750937f84f88a51a725fa8c7af66b2be71807c1b177f30b8f7b47e692d2f543301130ba9a9b9c936001969387938360079810612cd6575b505050811b019055612c11565b0135600019600384901b60f8161c19169055388080612cc9565b91936020600181928787013581550195019201612c8b565b634e487b7160e01b89526041600452602489fd5b905089013538612b78565b50818a5260208a209087601f1981168c5b8b828210612d7157505010612d57575b5050600186811b019055612b8f565b880135600019600389901b60f8161c191690553880612d48565b84013585556001909401936020938401938b935001612d38565b60048752610172602052612da28260408920615353565b5415612ecf5760048752610172602052612dbf8260408920615353565b545b61018b546040516370a0823160e01b81523360048201526001600160a01b039091169190602081602481865afa908115612ec4579082918b91612e8f575b5010612e80576040516323b872dd60e01b815233600482015260006024820152604481019190915290602090829060649082908c905af18015610fc857612e47575b50612b02565b6020813d602011612e78575b81612e6060209383614eef565b810103126118cd57612e7190615117565b5038612e41565b3d9150612e53565b6367f3585b60e01b8952600489fd5b9150506020813d602011612ebc575b81612eab60209383614eef565b810103126107505781905138612dff565b3d9150612e9e565b6040513d8c823e3d90fd5b61018454612dc1565b633e61080d60e01b8752600487fd5b508715612af2565b6378f342d160e11b8752600487fd5b63c602500f60e01b8752600487fd5b50346107e657806003193601126107e657612f266152df565b612f2e615289565b610160546001600160a01b031680156130285760405163c696804f60e01b8152602081600481855afa908115610994578391612fee575b506001600160a01b03163303612fdf5760206004916040519283809263c696804f60e01b82525afa801561052a578290612fa4575b6111b79150615562565b506020813d602011612fd7575b81612fbe60209383614eef565b8101031261099057612fd26111b79161509c565b612f9a565b3d9150612fb1565b632508892760e11b8252600482fd5b90506020813d602011613020575b8161300960209383614eef565b81010312610b515761301a9061509c565b38612f65565b3d9150612ffc565b6336939d7d60e21b8252600482fd5b50346107e657806003193601126107e6576130506152df565b610160546001600160a01b031680156130285733036130ab576130716152df565b600160ff1960c954161760c9557f62e78cea01bee320cd4e420270b5ea74000d11b0c9f74754ebdbfc544b05a2586020604051338152a180f35b635c427cd960e01b8152600490fd5b50346107e6576130c936614dab565b6130d4929192615289565b6130dc6152df565b610162546130f2906001600160a01b031661565e565b1561279f5760ff6101865460101c16156127905761018c54919283926001600160a01b031691823b1561315b5760648492836040519586948593633ebcea4b60e11b8552600485015260248401528160448401525af1801561052a57611c0c5750600160fb5580f35b505050fd5b50346107e65760203660031901126107e6576004356001600160401b0381116109905760c060031982360301126109905760405160c081018181106001600160401b038211176129695760405281600401356001600160401b03811161053557820136602382011215610535576131e1903690602460048201359101614f41565b815260248201356006811015610535576020820190815261320460448401614ded565b6040830190815260608301916064850135835261322e60a460808601966084810135885201614ded565b9460a0850195865261323e615289565b6132466152df565b336000908152610173602052604090205460ff16612efe573360009081526101746020526040902082519060068210156137915760ff9161328691615353565b5416612efe5761018a546040516370a0823160e01b81523360048201529493929190602090869060249082906001600160a01b03165afa948515610fc8578895613822575b50841561381357855151156138045782516001600160a01b0316156137f5578351156137e65786516001600160a01b0316156137d75733600090815261016b6020526040902062093a80420490818a52602052600360408a205410156137c85733600090815261016b602052604090209089526020526040882061334f8154615501565b905551620151808102908082046201518014901517156124f757613373904261536b565b62093a8042018042116137b45781106137a557815160068110156137915760ff610186541661364b575b506133aa61018154615501565b610181819055808952610165602052604089209081556001810180546001600160a01b031916331790558651805191929160028401916001600160401b0382116122c5576133fc82612bb08554614fdf565b6020908c601f84116001146135e357600896959493613431939092836122235750508160011b916000199060031b1c19161790565b90555b4260038301556004820187905584516005830180546001600160a01b0319166001600160a01b039290921691909117905585516006830155600782015501805487516001600160a81b031990911660089190911b610100600160a81b03161790556101865460101c60ff16613550575b5061018154935190519151945160405160a080825295966000805160206158af8339815191529661354596956001600160a01b03908116958a957fa13019971b779fd760090445d14b4822f2e122d272e8dc98a03a2d03d6f73b3a95949216926135119190850190614e9d565b954260208501526040840152606083015260808201528033940390a360408051338152602081019290925290918291820190565b0390a2600160fb5580f35b60018060a01b0361018c5416905160068110156135cf57908791813b15610b51578291608483926040519485938492633d94d33b60e11b84523060048501523360248501526044840152600160648401525af1801561052a576135b4575b506134a4565b816135c29195949395614eef565b61052657909185386135ae565b634e487b7160e01b88526021600452602488fd5b9190601f198416858452828420935b8181106136335750916001939185600899989796941061361a575b505050811b019055613434565b015160001960f88460031b161c1916905538808061360d565b929360206001819287860151815501950193016135f2565b600189526101726020526136628160408b20615353565b54156137875761367f9060018a5261017260205260408a20615353565b545b61018b546040516370a0823160e01b81523360048201526001600160a01b039091169190602081602481865afa801561377c5782918c91613747575b5010613738576040516323b872dd60e01b815233600482015260006024820152604481019190915290602090829060649082908d905af1801561188e571561339d576020813d602011613730575b8161371860209383614eef565b810103126118825761372990615117565b503861339d565b3d915061370b565b6367f3585b60e01b8a5260048afd5b9150506020813d602011613774575b8161376360209383614eef565b8101031261075057819051386136bd565b3d9150613756565b6040513d8d823e3d90fd5b5061018254613681565b634e487b7160e01b89526021600452602489fd5b6331806aeb60e21b8852600488fd5b634e487b7160e01b89526011600452602489fd5b63626a0e6560e11b8952600489fd5b63e6c4247b60e01b8852600488fd5b63162908e360e11b8852600488fd5b630f58058360e11b8852600488fd5b633e61080d60e01b8852600488fd5b630deda90360e41b8852600488fd5b9094506020813d60201161384e575b8161383e60209383614eef565b81010312610750575193386132cb565b3d9150613831565b50346107e657806003193601126107e657602061015f54604051908152f35b50346107e657806003193601126107e657600490613891615289565b6001623f026d60e01b03198152fd5b50346107e65760203660031901126107e657600435815261016960205260408120604051908160208254918281520190819285526020852090855b81811061393b57505050826138f1910383614eef565b604051928392602084019060208552518091526040840192915b818110613919575050500390f35b82516001600160a01b031684528594506020938401939092019160010161390b565b82546001600160a01b03168452602090930192600192830192016138db565b50346107e65760403660031901126107e6576004357f76f9caaa6131a8d908643a44d03636e5e381cce4c4217a6cd72f107c1fa977e1602061399a614e2b565b6139a2615289565b6139aa6152df565b83855261017982526139cb81604087209060ff801983541691151516179055565b6040519015158152a2600160fb5580f35b50346107e657806003193601126107e657602060ff60c954166040519015158152f35b50346107e657806003193601126107e657613a18615289565b6101865460ff8116613b165760ff8160081c16156127905760018060a01b036101635416602061018754602460405180948193630a78a7c960e01b835260048301525afa908115610994578391613adc575b506001600160a01b0316908115613acd5761018b80546001600160a01b0319168317905560ff1916600117610186556040519081527f61b3b3859569cecb601513cda243516790683fdd32e445a73da99153c0741b4190602090a1600160fb5580f35b6307ed98ed60e31b8352600483fd5b90506020813d602011613b0e575b81613af760209383614eef565b81010312610b5157613b089061509c565b38613a6a565b3d9150613aea565b63a741a04560e01b8252600482fd5b50346107e6576111b7613b3736614f96565b92613b43929192615289565b613b4b6152df565b615458565b50346107e65760403660031901126107e657613b6a614dc1565b613b72614e2b565b613b7a615289565b613b826152df565b610162546001600160a01b0392831692168215613bfb57613ba29061565e565b15613bec5760207f6e3f4ac7df20b22b8aec55b9cf3ba230fcd7c7d8224b30be2fb36a955b0afc1c9183855261017a82526139cb81604087209060ff801983541691151516179055565b635c427cd960e01b8352600483fd5b63d92e233d60e01b8452600484fd5b50346107e657806003193601126107e6577f00000000000000000000000000000000000000000000000000000000000000006001600160a01b03163003613c755760206040517f360894a13ba1a3210667c828492db98dca3e2076cc3735a920a3ca505d382bbc8152f35b60405162461bcd60e51b815260206004820152603860248201527f555550535570677261646561626c653a206d757374206e6f742062652063616c60448201527f6c6564207468726f7567682064656c656761746563616c6c00000000000000006064820152608490fd5b5060403660031901126107e657613cf5614dc1565b506024356001600160401b0381116109905790613d1760049236908401614f78565b50613d20615289565b630c5e6cd360e21b8152fd5b50346107e65760203660031901126107e6576004356001600160401b03811161099057613d5d903690600401614ec2565b9190613d67615289565b613d6f6152df565b61016254613d85906001600160a01b031661565e565b1561279f5760ff6101865460101c16156127905761018c54919283926001600160a01b031691823b1561315b5761277592849283604051809681958294630200ba4d60e31b8452602060048501526024840191615437565b50346107e65760203660031901126107e657613df7614dc1565b613dff615289565b613e076152df565b6101875480613e905750610162546040516362d4106760e11b815233600482015290602090829060249082906001600160a01b03165afa8015610994578390613e5d575b600291501161279f576111b7906153a8565b506020813d602011613e88575b81613e7760209383614eef565b810103126107505760029051613e4b565b3d9150613e6a565b6101625460405163c978d8a560e01b81523360048201526024810192909252602090829060449082906001600160a01b03165afa908115610994578391613efa575b5060038110159081613eee575b501561279f576111b7906153a8565b60059150111538613edf565b90506020813d602011613f24575b81613f1560209383614eef565b81010312610750575138613ed2565b3d9150613f08565b50346107e657806003193601126107e657610160546001600160a01b031680156130285733036130ab5760c95460ff811615613f965760ff191660c9557f5db9ee0a495bf2e6ff9c91a7834c1ba4fdd244a5e8aa4e537bd38aeae4b073aa6020604051338152a180f35b60405162461bcd60e51b815260206004820152601460248201527314185d5cd8589b194e881b9bdd081c185d5cd95960621b6044820152606490fd5b50346107e65760203660031901126107e657613fec614dc1565b613ff4615289565b610160546001600160a01b031680156140d957330361279f57803b1561407e577f360894a13ba1a3210667c828492db98dca3e2076cc3735a920a3ca505d382bbc80546001600160a01b0319166001600160a01b039290921691821790557fbc7cd75a20ee27fd9adebab32041f755214dbc6bffa90cc0225b39da2e5c2d3b8280a2600160fb5580f35b60405162461bcd60e51b815260206004820152602d60248201527f455243313936373a206e657720696d706c656d656e746174696f6e206973206e60448201526c1bdd08184818dbdb9d1c9858dd609a1b6064820152608490fd5b6336939d7d60e21b8352600483fd5b50346107e65760203660031901126107e6576004358152610165602052604081209081541561419e5760018201546003830154600484015460058501546006860154600880880154604051966001600160a01b0390811696959190921c821693909116906141648761415d8160028d01615019565b0388614eef565b614180604051978897885260e0602089015260e0880190614e9d565b9460408701526060860152608085015260a084015260c08301520390f35b631dc0650160e31b8152600490fd5b50346107e65760603660031901126107e6576141c7614dc1565b6141cf614dd7565b90604435906141dc615289565b6141e46152df565b6001600160a01b03811660009081526101786020526040902082905410614361576001600160a01b03811660009081526101786020526040902061422983825461538e565b905560405163a9059cbb60e01b81526001600160a01b0384811660048301526024820184905282169360208260448189895af19182156105d65785926142e4575b506040519384526000805160206158cf833981519152936020936142d49390926001600160a01b0316917f8d22e8a474149708578a5e2ab9222684c62978d383c74329ed94b2d6ce9b152e908690a36001600160a01b031660009081526101786020526040902090565b54604051908152a2600160fb5580f35b929091506020833d602011614359575b8161430160209383614eef565b81010312610526576000805160206158cf83398151915293857f8d22e8a474149708578a5e2ab9222684c62978d383c74329ed94b2d6ce9b152e60206142d49561434b8298615117565b50949650505092509361426a565b3d91506142f4565b63bc6072f160e01b8452600484fd5b50346107e6577f45f9f22eae8e79bb3c738b28a41aa1f0d75f918dd5e4ce73470989cc76a0279d60406143a236614dab565b6143aa615289565b6143b26152df565b8161017d558061017e5582519182526020820152a1600160fb5580f35b50346107e65760203660031901126107e6576143e9614dc1565b6143f1615289565b6101865460ff8160081c1661447a576001600160a01b038216918215613bfb573b1561446b5761016380546001600160a01b0319168317905561ff00191661010017610186556040519081527f221a5c2d5ec78d3b16cbdd3a9d8522649f55363435bdbd40e3ba26ce9dde938390602090a1600160fb5580f35b63a710429d60e01b8352600483fd5b63a741a04560e01b8352600483fd5b50346107e65761449836614e47565b92916144a2615289565b6144aa6152df565b610162546144c0906001600160a01b031661565e565b15613bec5760ff6101865460101c1615610b105761018c54929384936001600160a01b0316803b15610c5f576040516326f662b560e21b815260048101939093526001600160a01b0390931660248301521515604482015260006064820152908290829081838160848101612775565b50346107e657806003193601126107e657610160546040516001600160a01b039091168152602090f35b50346107e65760603660031901126107e6576004356024356006811015610b51577f12505dcacf5bd9b0d127ebd6947f3f9bdd49017d289c86e67a397a9b2511a6c2916060916145df604435916145af615289565b6145b76152df565b838752610172602052826145ce8260408a20615353565b55604051938452602084019061539b565b6040820152a1600160fb5580f35b50346107e6576145fc36614e01565b9190614606615289565b61460e6152df565b61016254614624906001600160a01b031661565e565b156146cb5760ff6101865460101c16156146bc5761018c54849291906001600160a01b0316803b156105355783928360a49260405197889586946319d4e09d60e11b865260018060a01b03166004860152602485015260448401528160648401528160848401525af180156146af5761469f57600160fb5580f35b6146a891614eef565b38816111b7565b50604051903d90823e3d90fd5b634659d43160e11b8452600484fd5b635c427cd960e01b8452600484fd5b50346107e6576146e936614dab565b6146f1615289565b6146f96152df565b8183526101656020526040832080541561115c57336000908152610173602052604090205460ff1661113e57600660405161473b81610cde8160028701615019565b6020815191012006600681101561112a573360009081526101746020526040902060ff9061476a908390615353565b5416614c91578385526101666020908152604080872033885290915285205460ff16614c825760078201544211614c735761018a546040516370a0823160e01b8152336004820152929190602090849060249082906001600160a01b03165afa9283156105d6578693614c3f575b5082156126395760ff6101865416614b13575b50600581019060018060a01b03825416936040516370a0823160e01b8152336004820152602081602481895afa8015610fc85782918991614ade575b5010614acf576040516323b872dd60e01b8152336004820152306024820152604481018290526020816064818b8a5af18015610fc857614a98575b5082546001600160a01b03166000908152610178602052604090206148899091825461536b565b905581546001600160a01b03166000818152610178602090815260409091206000805160206158cf833981519152919054604051908152a2848652610166602090815260408088203389529091528620805460ff191660011790556004810180546148f590859061536b565b905581546001600160a01b031660008181526101786020526040902054600683015492919083111580614a89575b614953575b6040805133815260208101879052899189916000805160206158af8339815191529181908101613545565b9160086020926149796149c59560018060a01b0316600052610178602052604060002090565b61498484825461538e565b905501805460405163a9059cbb60e01b815260089190911c6001600160a01b03166004820152602481019290925295909283919082908a9082906044820190565b03925af180156105d657614a38575b50825460ff191660011790925590546001600160a01b03166000818152610178602090815260409091206000805160206158af8339815191529361354593909290916000805160206158cf833981519152919054604051908152a290388080614928565b91906020833d602011614a81575b81614a5360209383614eef565b81010312610526576000805160206158af83398151915293614a7761354594615117565b50935090916149d4565b3d9150614a46565b5060ff60088301541615614923565b6020813d602011614ac7575b81614ab160209383614eef565b810103126118cd57614ac290615117565b614862565b3d9150614aa4565b6378dbf0af60e11b8752600487fd5b9150506020813d602011614b0b575b81614afa60209383614eef565b810103126118cd5781905138614827565b3d9150614aed565b60038652610172602052614b2a8160408820615353565b5415614c3557614b47906003875261017260205260408720615353565b545b61018b546040516370a0823160e01b81523360048201526001600160a01b039091169190602081602481865afa8015610fc85782918991614c00575b5010610f84576040516323b872dd60e01b815233600482015260006024820152604481019190915290602090829060649082908a905af180156105d657156147eb576020813d602011614bf8575b81614be060209383614eef565b8101031261052657614bf190615117565b50386147eb565b3d9150614bd3565b9150506020813d602011614c2d575b81614c1c60209383614eef565b810103126118cd5781905138614b85565b3d9150614c0f565b5061018354614b49565b9092506020813d602011614c6b575b81614c5b60209383614eef565b81010312610526575191386147d8565b3d9150614c4e565b63370ec37160e21b8552600485fd5b637c9a1cf960e01b8552600485fd5b63c602500f60e01b8552600485fd5b50346107e65760203660031901126107e657600435614cbd615289565b614cc56152df565b808252610167602052604082208054158015614d3a575b6129de5760018101546001600160a01b03163303614d2b57600701805460ff191690557ff0596ab0146da410ea951b1a215398db865d9918115bc133a116d9a509d7e6628280a2600160fb5580f35b63ea8e4eb560e01b8352600483fd5b5060ff60078201541615614cdc565b50346107e657806003193601126107e657610162546040516001600160a01b039091168152602090f35b9050346109905760203660031901126109905760043563ffffffff60e01b8116809103610b51576301ffc9a760e01b14815260209150f35b6040906003190112610750576004359060243590565b600435906001600160a01b038216820361075057565b602435906001600160a01b038216820361075057565b35906001600160a01b038216820361075057565b6060906003190112610750576004356001600160a01b038116810361075057906024359060443590565b60243590811515820361075057565b3590811515820361075057565b606090600319011261075057600435906024356001600160a01b0381168103610750579060443580151581036107505790565b60005b838110614e8d5750506000910152565b8181015183820152602001614e7d565b90602091614eb681518092818552858086019101614e7a565b601f01601f1916010190565b9181601f84011215610750578235916001600160401b038311610750576020838186019501011161075057565b90601f801991011681019081106001600160401b03821117614f1057604052565b634e487b7160e01b600052604160045260246000fd5b6001600160401b038111614f1057601f01601f191660200190565b929192614f4d82614f26565b91614f5b6040519384614eef565b829481845281830111610750578281602093846000960137010152565b9080601f8301121561075057816020614f9393359101614f41565b90565b6080906003190112610750576004356001600160a01b03811681036107505790602435801515810361075057906044356006811015610750579060643580151581036107505790565b90600182811c9216801561500f575b6020831014614ff957565b634e487b7160e01b600052602260045260246000fd5b91607f1691614fee565b6000929181549161502983614fdf565b808352926001811690811561507f575060011461504557505050565b60009081526020812093945091925b838310615065575060209250010190565b600181602092949394548385870101520191019190615054565b915050602093945060ff929192191683830152151560051b010190565b51906001600160a01b038216820361075057565b60609060208152600a60208201526926bab63a34aa37b5b2b760b11b60408201520190565b81601f820112156107505780516150eb81614f26565b926150f96040519485614eef565b8184526020828401011161075057614f939160208085019101614e7a565b5190811515820361075057565b602081830312610750578051906001600160401b038211610750570161018081830312610750576040519161018083018381106001600160401b03821117614f1057604052815183526151796020830161509c565b602084015260408201516001600160401b038111610750578161519d9184016150d5565b604084015260608201516001600160401b03811161075057816151c19184016150d5565b606084015260808201516001600160401b03811161075057816151e59184016150d5565b608084015260a08201516001600160401b03811161075057816152099184016150d5565b60a084015261521a60c08301615117565b60c084015261522b60e0830161509c565b60e0840152610100820151610100840152615249610120830161509c565b61012084015261525c610140830161509c565b6101408401526101608201516001600160401b0381116107505761528092016150d5565b61016082015290565b600260fb541461529a57600260fb55565b60405162461bcd60e51b815260206004820152601f60248201527f5265656e7472616e637947756172643a207265656e7472616e742063616c6c006044820152606490fd5b60ff60c954166152eb57565b60405162461bcd60e51b815260206004820152601060248201526f14185d5cd8589b194e881c185d5cd95960821b6044820152606490fd5b600681101561533d57600052610176602052604060002090565b634e487b7160e01b600052602160045260246000fd5b90600681101561533d57600052602052604060002090565b9190820180921161537857565b634e487b7160e01b600052601160045260246000fd5b9190820391821161537857565b90600682101561533d5752565b6001600160a01b038116908115615426573b15615415576020817f2b541d92229b722a964b1efc4edae73a826b0f215000ab38db51b3b77a55eed9926001600160601b0360a01b61018c54161761018c556201000062ff00001961018654161761018655604051908152a1565b63a710429d60e01b60005260046000fd5b63d92e233d60e01b60005260046000fd5b908060209392818452848401376000828201840152601f01601f1916010190565b606091936154c47f26f2fc16625fcebc085f77f3d6b604a0379bfa69c30e2887877d969cb5fe572f94866000146154d8576001600160a01b038416600090815261017360205260409020805460ff191660ff851515161790555b6040519615158752602087019061539b565b151560408501526001600160a01b031692a2565b60018060a01b0384166000526101746020526154fc83611b00836040600020615353565b6154b2565b60001981146153785760010190565b601f821161551d57505050565b6000526020600020906020601f840160051c83019310615558575b601f0160051c01905b81811061554c575050565b60008155600101615541565b9091508190615538565b603380546001600160a01b039283166001600160a01b0319821681179092559091167f8be0079c531659141344cd1fd0a4f28419497f9722a3daafe3b4186f6b6457e0600080a3565b356001600160a01b03811681036107505790565b903590601e198136030182121561075057018035906001600160401b0382116107505760200191813603831361075057565b3580151581036107505790565b1561560557565b60405162461bcd60e51b815260206004820152602b60248201527f496e697469616c697a61626c653a20636f6e7472616374206973206e6f74206960448201526a6e697469616c697a696e6760a81b6064820152608490fd5b3360005261017a60205260ff604060002054166157935733156157935760405163e02e351d60e01b8152336004820152906001600160a01b0316602082602481845afa91821561574c5760009261575f575b50610187548092146157585760405163c978d8a560e01b81523360048201526024810192909252602090829060449082905afa90811561574c5760009161571a575b506003811015908161570e575b5061570957600090565b600190565b600491501115386156ff565b906020823d602011615744575b8161573460209383614eef565b810103126107e6575051386156f2565b3d9150615727565b6040513d6000823e3d90fd5b5050600190565b9091506020813d60201161578b575b8161577b60209383614eef565b81010312610750575190386156b0565b3d915061576e565b50600190565b610187548061581c5750610189546040516362d4106760e11b81526001600160a01b0392831660048201529160209183916024918391165afa801561574c576000906157e9575b60029150111590565b506020813d602011615814575b8161580360209383614eef565b8101031261075057600290516157e0565b3d91506157f6565b6101895460405163c978d8a560e01b81526001600160a01b0393841660048201526024810192909252909160209183916044918391165afa90811561574c5760009161587c575b5060038110159081615873575090565b60059150111590565b906020823d6020116158a6575b8161589660209383614eef565b810103126107e657505138615863565b3d915061588956fe5f741d08188ce1b820c0a0539f84488705d838c57c8f6064cce21c8c73a1cc630f91e6929112514fe1b38c4a62bb0f5bc717e61574ee854d3b5ea5b44cbfa1f9a2646970667358221220d9898184e65b9856ab61fc287cc12d1e72b2aca465252c3480d0efcb9ee837b764736f6c634300081c0033",
  "linkReferences": {},
  "deployedLinkReferences": {}
}