{
  "_format": "hh-sol-artifact-1",
  "contractName": "VanellixCompanyMultiTokenV2",
  "sourceName": "contracts/modules/Proxy/VanellixCompanyMultiTokenV2.sol",
  "abi": [
    {
      "inputs": [
        {
          "internalType": "address",
          "name": "sender",
          "type": "address"
        }
      ],
      "name": "AccountHasGlobalRole",
      "type": "error"
    },
    {
      "inputs": [
        {
          "internalType": "uint256",
          "name": "companyId",
          "type": "uint256"
        }
      ],
      "name": "AtLeastOneSocialRequired",
      "type": "error"
    },
    {
      "inputs": [],
      "name": "CallerNotLaunchpadOwner",
      "type": "error"
    },
    {
      "inputs": [
        {
          "internalType": "address",
          "name": "sender",
          "type": "address"
        }
      ],
      "name": "CallerNotLaunchpadOwnerCompany",
      "type": "error"
    },
    {
      "inputs": [
        {
          "internalType": "uint256",
          "name": "companyId",
          "type": "uint256"
        }
      ],
      "name": "CompanyAddressRequired",
      "type": "error"
    },
    {
      "inputs": [
        {
          "internalType": "uint256",
          "name": "companyId",
          "type": "uint256"
        }
      ],
      "name": "CompanyAlreadyRegistered",
      "type": "error"
    },
    {
      "inputs": [
        {
          "internalType": "uint256",
          "name": "companyId",
          "type": "uint256"
        }
      ],
      "name": "CompanyCountryRequired",
      "type": "error"
    },
    {
      "inputs": [
        {
          "internalType": "uint256",
          "name": "companyId",
          "type": "uint256"
        }
      ],
      "name": "CompanyDINRequired",
      "type": "error"
    },
    {
      "inputs": [
        {
          "internalType": "uint256",
          "name": "companyId",
          "type": "uint256"
        }
      ],
      "name": "CompanyIsActive",
      "type": "error"
    },
    {
      "inputs": [
        {
          "internalType": "uint256",
          "name": "companyId",
          "type": "uint256"
        }
      ],
      "name": "CompanyNameRequired",
      "type": "error"
    },
    {
      "inputs": [
        {
          "internalType": "uint256",
          "name": "companyId",
          "type": "uint256"
        }
      ],
      "name": "CompanyNotActive",
      "type": "error"
    },
    {
      "inputs": [
        {
          "internalType": "uint256",
          "name": "companyId",
          "type": "uint256"
        }
      ],
      "name": "DaoAlreadySet",
      "type": "error"
    },
    {
      "inputs": [
        {
          "internalType": "address",
          "name": "sender",
          "type": "address"
        }
      ],
      "name": "DaoTransitionAlreadyStarted",
      "type": "error"
    },
    {
      "inputs": [
        {
          "internalType": "address",
          "name": "sender",
          "type": "address"
        }
      ],
      "name": "InsufficientPermission",
      "type": "error"
    },
    {
      "inputs": [
        {
          "internalType": "uint256",
          "name": "companyId",
          "type": "uint256"
        }
      ],
      "name": "InvalidCompanyId",
      "type": "error"
    },
    {
      "inputs": [
        {
          "internalType": "uint256",
          "name": "roleLevel",
          "type": "uint256"
        }
      ],
      "name": "InvalidCompanyRoleLevel",
      "type": "error"
    },
    {
      "inputs": [
        {
          "internalType": "address",
          "name": "sender",
          "type": "address"
        }
      ],
      "name": "InvalidContractAddress",
      "type": "error"
    },
    {
      "inputs": [
        {
          "internalType": "address",
          "name": "sender",
          "type": "address"
        }
      ],
      "name": "InvalidTokenData",
      "type": "error"
    },
    {
      "inputs": [
        {
          "internalType": "uint256",
          "name": "tokenId",
          "type": "uint256"
        }
      ],
      "name": "InvalidTokenId",
      "type": "error"
    },
    {
      "inputs": [],
      "name": "LaunchpadNotConfigured",
      "type": "error"
    },
    {
      "inputs": [
        {
          "internalType": "address",
          "name": "sender",
          "type": "address"
        }
      ],
      "name": "LaunchpadNotConfigured",
      "type": "error"
    },
    {
      "inputs": [],
      "name": "MaxCompaniesReached",
      "type": "error"
    },
    {
      "inputs": [
        {
          "internalType": "uint256",
          "name": "requiredPercentage",
          "type": "uint256"
        }
      ],
      "name": "MaximumLiquidityPercentageRequired",
      "type": "error"
    },
    {
      "inputs": [
        {
          "internalType": "uint256",
          "name": "requiredPercentage",
          "type": "uint256"
        }
      ],
      "name": "MinimumLiquidityPercentageRequired",
      "type": "error"
    },
    {
      "inputs": [
        {
          "internalType": "address",
          "name": "sender",
          "type": "address"
        }
      ],
      "name": "NotAuthorized",
      "type": "error"
    },
    {
      "inputs": [
        {
          "internalType": "address",
          "name": "sender",
          "type": "address"
        },
        {
          "internalType": "uint256",
          "name": "companyId",
          "type": "uint256"
        }
      ],
      "name": "NotAuthorizedCaller",
      "type": "error"
    },
    {
      "inputs": [
        {
          "internalType": "address",
          "name": "sender",
          "type": "address"
        },
        {
          "internalType": "uint256",
          "name": "companyId",
          "type": "uint256"
        }
      ],
      "name": "NotAuthorizedCompany",
      "type": "error"
    },
    {
      "inputs": [
        {
          "internalType": "address",
          "name": "sender",
          "type": "address"
        }
      ],
      "name": "NotAuthorizedForCompanyRegistration",
      "type": "error"
    },
    {
      "inputs": [
        {
          "internalType": "address",
          "name": "sender",
          "type": "address"
        },
        {
          "internalType": "uint256",
          "name": "companyId",
          "type": "uint256"
        }
      ],
      "name": "NotCompanyDao",
      "type": "error"
    },
    {
      "inputs": [
        {
          "internalType": "address",
          "name": "sender",
          "type": "address"
        },
        {
          "internalType": "uint256",
          "name": "companyId",
          "type": "uint256"
        }
      ],
      "name": "NotCompanyMember",
      "type": "error"
    },
    {
      "inputs": [
        {
          "internalType": "address",
          "name": "sender",
          "type": "address"
        },
        {
          "internalType": "uint256",
          "name": "companyId",
          "type": "uint256"
        }
      ],
      "name": "NotCompanyOwner",
      "type": "error"
    },
    {
      "inputs": [
        {
          "internalType": "address",
          "name": "sender",
          "type": "address"
        }
      ],
      "name": "NotLaunchpadOwner",
      "type": "error"
    },
    {
      "inputs": [
        {
          "internalType": "address",
          "name": "sender",
          "type": "address"
        }
      ],
      "name": "NotOwnerNorAdmin",
      "type": "error"
    },
    {
      "inputs": [
        {
          "internalType": "uint256",
          "name": "companyId",
          "type": "uint256"
        }
      ],
      "name": "NotRegisteredCompany",
      "type": "error"
    },
    {
      "inputs": [
        {
          "internalType": "address",
          "name": "sender",
          "type": "address"
        }
      ],
      "name": "OnlyConsiglioOrGlobalAdmin",
      "type": "error"
    },
    {
      "inputs": [],
      "name": "RenounceOwnershipDisabled",
      "type": "error"
    },
    {
      "inputs": [
        {
          "internalType": "address",
          "name": "user",
          "type": "address"
        }
      ],
      "name": "RoleAssignmentFailed",
      "type": "error"
    },
    {
      "inputs": [
        {
          "internalType": "string",
          "name": "role",
          "type": "string"
        }
      ],
      "name": "RoleDoesNotExist",
      "type": "error"
    },
    {
      "inputs": [],
      "name": "RoleRequired",
      "type": "error"
    },
    {
      "inputs": [
        {
          "internalType": "address",
          "name": "sender",
          "type": "address"
        }
      ],
      "name": "SameAdrressError",
      "type": "error"
    },
    {
      "inputs": [
        {
          "internalType": "uint256",
          "name": "companyId",
          "type": "uint256"
        }
      ],
      "name": "SocialNameRequired",
      "type": "error"
    },
    {
      "inputs": [
        {
          "internalType": "uint256",
          "name": "companyId",
          "type": "uint256"
        }
      ],
      "name": "SocialUrlRequired",
      "type": "error"
    },
    {
      "inputs": [
        {
          "internalType": "uint256",
          "name": "companyId",
          "type": "uint256"
        }
      ],
      "name": "TokenAlreadyFinalized",
      "type": "error"
    },
    {
      "inputs": [
        {
          "internalType": "uint256",
          "name": "companyId",
          "type": "uint256"
        }
      ],
      "name": "TokenNotFizalized",
      "type": "error"
    },
    {
      "inputs": [],
      "name": "TransferOwnershipDirectDisabled",
      "type": "error"
    },
    {
      "inputs": [],
      "name": "UnauthorizedCaller",
      "type": "error"
    },
    {
      "inputs": [],
      "name": "UpgradeToAndCallDisabled",
      "type": "error"
    },
    {
      "inputs": [
        {
          "internalType": "address",
          "name": "user",
          "type": "address"
        }
      ],
      "name": "UserNotAllowedToJoinCompany",
      "type": "error"
    },
    {
      "inputs": [
        {
          "internalType": "address",
          "name": "user",
          "type": "address"
        },
        {
          "internalType": "uint256",
          "name": "companyId",
          "type": "uint256"
        }
      ],
      "name": "UserNotRegistered",
      "type": "error"
    },
    {
      "inputs": [
        {
          "internalType": "address",
          "name": "wallet",
          "type": "address"
        }
      ],
      "name": "WalletAlreadyAssociated",
      "type": "error"
    },
    {
      "inputs": [
        {
          "internalType": "uint256",
          "name": "companyId",
          "type": "uint256"
        }
      ],
      "name": "WebpageRequired",
      "type": "error"
    },
    {
      "inputs": [
        {
          "internalType": "address",
          "name": "sender",
          "type": "address"
        }
      ],
      "name": "ZeroAddress",
      "type": "error"
    },
    {
      "anonymous": false,
      "inputs": [
        {
          "indexed": false,
          "internalType": "address",
          "name": "previousAdmin",
          "type": "address"
        },
        {
          "indexed": false,
          "internalType": "address",
          "name": "newAdmin",
          "type": "address"
        }
      ],
      "name": "AdminChanged",
      "type": "event"
    },
    {
      "anonymous": false,
      "inputs": [
        {
          "indexed": true,
          "internalType": "address",
          "name": "beacon",
          "type": "address"
        }
      ],
      "name": "BeaconUpgraded",
      "type": "event"
    },
    {
      "anonymous": false,
      "inputs": [
        {
          "indexed": true,
          "internalType": "address",
          "name": "owner",
          "type": "address"
        },
        {
          "indexed": false,
          "internalType": "uint256",
          "name": "companyId",
          "type": "uint256"
        },
        {
          "indexed": false,
          "internalType": "string",
          "name": "name",
          "type": "string"
        },
        {
          "indexed": false,
          "internalType": "address",
          "name": "daoAddress",
          "type": "address"
        },
        {
          "indexed": false,
          "internalType": "uint256",
          "name": "transitionTimestamp",
          "type": "uint256"
        }
      ],
      "name": "CompanyActivated",
      "type": "event"
    },
    {
      "anonymous": false,
      "inputs": [
        {
          "indexed": true,
          "internalType": "address",
          "name": "oldOwner",
          "type": "address"
        },
        {
          "indexed": true,
          "internalType": "address",
          "name": "newOwner",
          "type": "address"
        },
        {
          "indexed": false,
          "internalType": "uint256",
          "name": "companyId",
          "type": "uint256"
        }
      ],
      "name": "CompanyOwnerChanged",
      "type": "event"
    },
    {
      "anonymous": false,
      "inputs": [
        {
          "indexed": true,
          "internalType": "address",
          "name": "owner",
          "type": "address"
        },
        {
          "indexed": false,
          "internalType": "uint256",
          "name": "companyId",
          "type": "uint256"
        },
        {
          "indexed": false,
          "internalType": "string",
          "name": "name",
          "type": "string"
        },
        {
          "indexed": false,
          "internalType": "string",
          "name": "din",
          "type": "string"
        },
        {
          "indexed": false,
          "internalType": "string",
          "name": "companyAddress",
          "type": "string"
        },
        {
          "indexed": false,
          "internalType": "string",
          "name": "country",
          "type": "string"
        }
      ],
      "name": "CompanyRegistered",
      "type": "event"
    },
    {
      "anonymous": false,
      "inputs": [
        {
          "indexed": true,
          "internalType": "uint256",
          "name": "companyId",
          "type": "uint256"
        },
        {
          "indexed": false,
          "internalType": "address",
          "name": "oldDaoAddress",
          "type": "address"
        },
        {
          "indexed": false,
          "internalType": "address",
          "name": "newDaoAddress",
          "type": "address"
        }
      ],
      "name": "DaoChanged",
      "type": "event"
    },
    {
      "anonymous": false,
      "inputs": [
        {
          "indexed": true,
          "internalType": "uint256",
          "name": "companyId",
          "type": "uint256"
        },
        {
          "indexed": false,
          "internalType": "address",
          "name": "daoAddress",
          "type": "address"
        }
      ],
      "name": "DaoInitialized",
      "type": "event"
    },
    {
      "anonymous": false,
      "inputs": [
        {
          "indexed": true,
          "internalType": "uint256",
          "name": "companyId",
          "type": "uint256"
        },
        {
          "indexed": false,
          "internalType": "address",
          "name": "governanceTokenProxy",
          "type": "address"
        }
      ],
      "name": "GovernanceTokenProxySet",
      "type": "event"
    },
    {
      "anonymous": false,
      "inputs": [
        {
          "indexed": false,
          "internalType": "uint8",
          "name": "version",
          "type": "uint8"
        }
      ],
      "name": "Initialized",
      "type": "event"
    },
    {
      "anonymous": false,
      "inputs": [
        {
          "indexed": true,
          "internalType": "address",
          "name": "previousOwner",
          "type": "address"
        },
        {
          "indexed": true,
          "internalType": "address",
          "name": "newOwner",
          "type": "address"
        }
      ],
      "name": "OwnershipTransferred",
      "type": "event"
    },
    {
      "anonymous": false,
      "inputs": [
        {
          "indexed": false,
          "internalType": "address",
          "name": "account",
          "type": "address"
        }
      ],
      "name": "Paused",
      "type": "event"
    },
    {
      "anonymous": false,
      "inputs": [
        {
          "indexed": false,
          "internalType": "address",
          "name": "account",
          "type": "address"
        }
      ],
      "name": "Unpaused",
      "type": "event"
    },
    {
      "anonymous": false,
      "inputs": [
        {
          "indexed": true,
          "internalType": "address",
          "name": "implementation",
          "type": "address"
        }
      ],
      "name": "Upgraded",
      "type": "event"
    },
    {
      "anonymous": false,
      "inputs": [
        {
          "indexed": true,
          "internalType": "address",
          "name": "wallet",
          "type": "address"
        },
        {
          "indexed": false,
          "internalType": "uint256",
          "name": "companyId",
          "type": "uint256"
        },
        {
          "indexed": false,
          "internalType": "string",
          "name": "role",
          "type": "string"
        }
      ],
      "name": "UserRegistered",
      "type": "event"
    },
    {
      "anonymous": false,
      "inputs": [
        {
          "indexed": true,
          "internalType": "address",
          "name": "wallet",
          "type": "address"
        },
        {
          "indexed": false,
          "internalType": "uint256",
          "name": "companyId",
          "type": "uint256"
        }
      ],
      "name": "UserRemoved",
      "type": "event"
    },
    {
      "anonymous": false,
      "inputs": [
        {
          "indexed": true,
          "internalType": "uint256",
          "name": "companyId",
          "type": "uint256"
        },
        {
          "indexed": false,
          "internalType": "address",
          "name": "utilityTokenProxy",
          "type": "address"
        }
      ],
      "name": "UtilityTokenProxySet",
      "type": "event"
    },
    {
      "anonymous": false,
      "inputs": [
        {
          "indexed": true,
          "internalType": "address",
          "name": "newWrappedTokenImpl",
          "type": "address"
        }
      ],
      "name": "WrappedTokenImplementationSet",
      "type": "event"
    },
    {
      "inputs": [
        {
          "internalType": "uint256",
          "name": "companyId",
          "type": "uint256"
        }
      ],
      "name": "activateCompany",
      "outputs": [],
      "stateMutability": "nonpayable",
      "type": "function"
    },
    {
      "inputs": [],
      "name": "daoTransitionTimestamp",
      "outputs": [
        {
          "internalType": "uint256",
          "name": "",
          "type": "uint256"
        }
      ],
      "stateMutability": "view",
      "type": "function"
    },
    {
      "inputs": [
        {
          "internalType": "uint256",
          "name": "companyId",
          "type": "uint256"
        },
        {
          "components": [
            {
              "internalType": "string",
              "name": "name",
              "type": "string"
            },
            {
              "internalType": "string",
              "name": "symbol",
              "type": "string"
            },
            {
              "internalType": "uint256",
              "name": "totalSupply",
              "type": "uint256"
            },
            {
              "internalType": "string",
              "name": "description",
              "type": "string"
            },
            {
              "internalType": "string",
              "name": "imagePath",
              "type": "string"
            }
          ],
          "internalType": "struct CompanyTokenStructs.TokenConfig",
          "name": "tokenConfig",
          "type": "tuple"
        },
        {
          "components": [
            {
              "internalType": "address",
              "name": "immediateWallet",
              "type": "address"
            },
            {
              "internalType": "address",
              "name": "lockedWallet",
              "type": "address"
            },
            {
              "internalType": "enum CompanyTokenStructs.VestingType",
              "name": "vestingType",
              "type": "uint8"
            },
            {
              "internalType": "uint256",
              "name": "startBlock",
              "type": "uint256"
            },
            {
              "internalType": "uint256",
              "name": "startTimestamp",
              "type": "uint256"
            },
            {
              "components": [
                {
                  "internalType": "uint256",
                  "name": "releaseBlock",
                  "type": "uint256"
                },
                {
                  "internalType": "uint256",
                  "name": "percentage",
                  "type": "uint256"
                }
              ],
              "internalType": "struct CompanyTokenStructs.VestingSchedule[]",
              "name": "vestingSchedule",
              "type": "tuple[]"
            },
            {
              "internalType": "uint8",
              "name": "vestingScheduleCount",
              "type": "uint8"
            },
            {
              "internalType": "bool",
              "name": "autoMode",
              "type": "bool"
            },
            {
              "internalType": "uint8",
              "name": "immediateUnlockPercentage",
              "type": "uint8"
            },
            {
              "internalType": "uint8",
              "name": "progressiveYears",
              "type": "uint8"
            }
          ],
          "internalType": "struct CompanyTokenStructs.MultiVestingConfig",
          "name": "vestingConfig",
          "type": "tuple"
        },
        {
          "components": [
            {
              "internalType": "string",
              "name": "name",
              "type": "string"
            },
            {
              "internalType": "uint256",
              "name": "percentage",
              "type": "uint256"
            }
          ],
          "internalType": "struct CompanyTokenStructs.FundUsage[]",
          "name": "fundUsages",
          "type": "tuple[]"
        },
        {
          "components": [
            {
              "internalType": "string",
              "name": "name",
              "type": "string"
            },
            {
              "internalType": "string",
              "name": "url",
              "type": "string"
            }
          ],
          "internalType": "struct CompanyTokenStructs.Document[]",
          "name": "documents",
          "type": "tuple[]"
        }
      ],
      "name": "finalizeCompanyToken",
      "outputs": [
        {
          "internalType": "uint256",
          "name": "tokenId",
          "type": "uint256"
        }
      ],
      "stateMutability": "nonpayable",
      "type": "function"
    },
    {
      "inputs": [],
      "name": "getAdminRole",
      "outputs": [
        {
          "internalType": "bytes32",
          "name": "",
          "type": "bytes32"
        }
      ],
      "stateMutability": "view",
      "type": "function"
    },
    {
      "inputs": [
        {
          "internalType": "uint256",
          "name": "companyId",
          "type": "uint256"
        }
      ],
      "name": "getCompanyAddress",
      "outputs": [
        {
          "internalType": "address",
          "name": "",
          "type": "address"
        }
      ],
      "stateMutability": "view",
      "type": "function"
    },
    {
      "inputs": [
        {
          "internalType": "uint256",
          "name": "companyId",
          "type": "uint256"
        }
      ],
      "name": "getCompanyDao",
      "outputs": [
        {
          "internalType": "address",
          "name": "",
          "type": "address"
        }
      ],
      "stateMutability": "view",
      "type": "function"
    },
    {
      "inputs": [
        {
          "internalType": "uint256",
          "name": "companyId",
          "type": "uint256"
        }
      ],
      "name": "getCompanyDaoTransitionTimestamp",
      "outputs": [
        {
          "internalType": "uint256",
          "name": "",
          "type": "uint256"
        }
      ],
      "stateMutability": "view",
      "type": "function"
    },
    {
      "inputs": [
        {
          "internalType": "uint256",
          "name": "companyId",
          "type": "uint256"
        }
      ],
      "name": "getCompanyData",
      "outputs": [
        {
          "components": [
            {
              "internalType": "uint256",
              "name": "id",
              "type": "uint256"
            },
            {
              "internalType": "address",
              "name": "owner",
              "type": "address"
            },
            {
              "internalType": "string",
              "name": "name",
              "type": "string"
            },
            {
              "internalType": "string",
              "name": "din",
              "type": "string"
            },
            {
              "internalType": "string",
              "name": "companyAddress",
              "type": "string"
            },
            {
              "internalType": "string",
              "name": "country",
              "type": "string"
            },
            {
              "internalType": "bool",
              "name": "isActive",
              "type": "bool"
            },
            {
              "internalType": "address",
              "name": "daoAddress",
              "type": "address"
            },
            {
              "internalType": "uint256",
              "name": "companyDaoTransitionTimestamp",
              "type": "uint256"
            },
            {
              "internalType": "address",
              "name": "governanceTokenProxy",
              "type": "address"
            },
            {
              "internalType": "address",
              "name": "utilityTokenProxy",
              "type": "address"
            },
            {
              "internalType": "string",
              "name": "webpage",
              "type": "string"
            }
          ],
          "internalType": "struct CompanyStruct.CompanyData",
          "name": "",
          "type": "tuple"
        }
      ],
      "stateMutability": "view",
      "type": "function"
    },
    {
      "inputs": [
        {
          "internalType": "uint256",
          "name": "companyId",
          "type": "uint256"
        }
      ],
      "name": "getCompanyLiquidity",
      "outputs": [
        {
          "internalType": "uint256",
          "name": "",
          "type": "uint256"
        }
      ],
      "stateMutability": "view",
      "type": "function"
    },
    {
      "inputs": [
        {
          "internalType": "uint256",
          "name": "companyId",
          "type": "uint256"
        }
      ],
      "name": "getCompanySocials",
      "outputs": [
        {
          "components": [
            {
              "internalType": "string",
              "name": "name",
              "type": "string"
            },
            {
              "internalType": "string",
              "name": "url",
              "type": "string"
            }
          ],
          "internalType": "struct CompanyStruct.Social[]",
          "name": "",
          "type": "tuple[]"
        }
      ],
      "stateMutability": "view",
      "type": "function"
    },
    {
      "inputs": [],
      "name": "getImplementationType",
      "outputs": [
        {
          "internalType": "bytes32",
          "name": "",
          "type": "bytes32"
        }
      ],
      "stateMutability": "pure",
      "type": "function"
    },
    {
      "inputs": [],
      "name": "getImplementationTypeImp",
      "outputs": [
        {
          "internalType": "bytes32",
          "name": "",
          "type": "bytes32"
        }
      ],
      "stateMutability": "pure",
      "type": "function"
    },
    {
      "inputs": [],
      "name": "getLaunchpadAddress",
      "outputs": [
        {
          "internalType": "address",
          "name": "",
          "type": "address"
        }
      ],
      "stateMutability": "view",
      "type": "function"
    },
    {
      "inputs": [],
      "name": "getLaunchpadDomAddress",
      "outputs": [
        {
          "internalType": "address",
          "name": "",
          "type": "address"
        }
      ],
      "stateMutability": "view",
      "type": "function"
    },
    {
      "inputs": [],
      "name": "getMyAddress",
      "outputs": [
        {
          "internalType": "address",
          "name": "",
          "type": "address"
        }
      ],
      "stateMutability": "view",
      "type": "function"
    },
    {
      "inputs": [],
      "name": "getOwner",
      "outputs": [
        {
          "internalType": "address",
          "name": "",
          "type": "address"
        }
      ],
      "stateMutability": "view",
      "type": "function"
    },
    {
      "inputs": [],
      "name": "getWrappedTokenImplementation",
      "outputs": [
        {
          "internalType": "address",
          "name": "",
          "type": "address"
        }
      ],
      "stateMutability": "view",
      "type": "function"
    },
    {
      "inputs": [
        {
          "internalType": "address",
          "name": "_wrappedTokenImpl",
          "type": "address"
        },
        {
          "internalType": "address",
          "name": "_launchpadAddress",
          "type": "address"
        }
      ],
      "name": "initialize",
      "outputs": [],
      "stateMutability": "nonpayable",
      "type": "function"
    },
    {
      "inputs": [
        {
          "internalType": "address",
          "name": "_launchpadAddress",
          "type": "address"
        }
      ],
      "name": "initializeV2",
      "outputs": [],
      "stateMutability": "nonpayable",
      "type": "function"
    },
    {
      "inputs": [
        {
          "internalType": "uint256",
          "name": "companyId",
          "type": "uint256"
        },
        {
          "internalType": "address",
          "name": "caller",
          "type": "address"
        }
      ],
      "name": "isCompanyAuthorized",
      "outputs": [
        {
          "internalType": "bool",
          "name": "",
          "type": "bool"
        }
      ],
      "stateMutability": "view",
      "type": "function"
    },
    {
      "inputs": [],
      "name": "nextCompanyId",
      "outputs": [
        {
          "internalType": "uint256",
          "name": "",
          "type": "uint256"
        }
      ],
      "stateMutability": "view",
      "type": "function"
    },
    {
      "inputs": [],
      "name": "owner",
      "outputs": [
        {
          "internalType": "address",
          "name": "",
          "type": "address"
        }
      ],
      "stateMutability": "view",
      "type": "function"
    },
    {
      "inputs": [],
      "name": "pause",
      "outputs": [],
      "stateMutability": "nonpayable",
      "type": "function"
    },
    {
      "inputs": [],
      "name": "paused",
      "outputs": [
        {
          "internalType": "bool",
          "name": "",
          "type": "bool"
        }
      ],
      "stateMutability": "view",
      "type": "function"
    },
    {
      "inputs": [],
      "name": "proxiableUUID",
      "outputs": [
        {
          "internalType": "bytes32",
          "name": "",
          "type": "bytes32"
        }
      ],
      "stateMutability": "view",
      "type": "function"
    },
    {
      "inputs": [
        {
          "internalType": "string",
          "name": "companyName",
          "type": "string"
        },
        {
          "internalType": "string",
          "name": "companyDIN",
          "type": "string"
        },
        {
          "internalType": "string",
          "name": "companyAddr",
          "type": "string"
        },
        {
          "internalType": "string",
          "name": "companyCountry",
          "type": "string"
        },
        {
          "internalType": "string",
          "name": "webpage",
          "type": "string"
        },
        {
          "internalType": "string[]",
          "name": "socialNames",
          "type": "string[]"
        },
        {
          "internalType": "string[]",
          "name": "socialUrls",
          "type": "string[]"
        }
      ],
      "name": "registerCompany",
      "outputs": [],
      "stateMutability": "nonpayable",
      "type": "function"
    },
    {
      "inputs": [
        {
          "internalType": "uint256",
          "name": "companyId",
          "type": "uint256"
        },
        {
          "internalType": "address",
          "name": "userWallet",
          "type": "address"
        },
        {
          "internalType": "string",
          "name": "role",
          "type": "string"
        }
      ],
      "name": "registerCompanyUser",
      "outputs": [],
      "stateMutability": "nonpayable",
      "type": "function"
    },
    {
      "inputs": [
        {
          "internalType": "uint256",
          "name": "companyId",
          "type": "uint256"
        },
        {
          "internalType": "address",
          "name": "userWallet",
          "type": "address"
        }
      ],
      "name": "removeCompanyUser",
      "outputs": [],
      "stateMutability": "nonpayable",
      "type": "function"
    },
    {
      "inputs": [],
      "name": "renounceOwnership",
      "outputs": [],
      "stateMutability": "nonpayable",
      "type": "function"
    },
    {
      "inputs": [
        {
          "internalType": "uint256",
          "name": "companyId",
          "type": "uint256"
        },
        {
          "internalType": "address",
          "name": "newDaoAddress",
          "type": "address"
        }
      ],
      "name": "setCompanyDaoAddress",
      "outputs": [],
      "stateMutability": "nonpayable",
      "type": "function"
    },
    {
      "inputs": [
        {
          "internalType": "uint256",
          "name": "companyId",
          "type": "uint256"
        },
        {
          "internalType": "address",
          "name": "newOwner",
          "type": "address"
        }
      ],
      "name": "setCompanyOwner",
      "outputs": [],
      "stateMutability": "nonpayable",
      "type": "function"
    },
    {
      "inputs": [
        {
          "internalType": "uint256",
          "name": "companyId",
          "type": "uint256"
        },
        {
          "internalType": "address",
          "name": "newDaoAddress",
          "type": "address"
        }
      ],
      "name": "setDaoAddress",
      "outputs": [],
      "stateMutability": "nonpayable",
      "type": "function"
    },
    {
      "inputs": [
        {
          "internalType": "uint256",
          "name": "companyId",
          "type": "uint256"
        },
        {
          "internalType": "address",
          "name": "utilityTokenProxy",
          "type": "address"
        }
      ],
      "name": "setUtilityTokenProxy",
      "outputs": [],
      "stateMutability": "nonpayable",
      "type": "function"
    },
    {
      "inputs": [
        {
          "internalType": "uint256",
          "name": "companyId",
          "type": "uint256"
        },
        {
          "internalType": "address",
          "name": "governanceTokenProxy",
          "type": "address"
        }
      ],
      "name": "setWrappedToken",
      "outputs": [],
      "stateMutability": "nonpayable",
      "type": "function"
    },
    {
      "inputs": [
        {
          "internalType": "address",
          "name": "newWrappedTokenImpl",
          "type": "address"
        }
      ],
      "name": "setWrappedTokenImplementation",
      "outputs": [],
      "stateMutability": "nonpayable",
      "type": "function"
    },
    {
      "inputs": [
        {
          "internalType": "bytes4",
          "name": "interfaceId",
          "type": "bytes4"
        }
      ],
      "name": "supportsInterface",
      "outputs": [
        {
          "internalType": "bool",
          "name": "",
          "type": "bool"
        }
      ],
      "stateMutability": "view",
      "type": "function"
    },
    {
      "inputs": [
        {
          "internalType": "address",
          "name": "",
          "type": "address"
        }
      ],
      "name": "transferOwnership",
      "outputs": [],
      "stateMutability": "nonpayable",
      "type": "function"
    },
    {
      "inputs": [],
      "name": "unpause",
      "outputs": [],
      "stateMutability": "nonpayable",
      "type": "function"
    },
    {
      "inputs": [],
      "name": "updateOwnerFromLaunchpad",
      "outputs": [],
      "stateMutability": "nonpayable",
      "type": "function"
    },
    {
      "inputs": [
        {
          "internalType": "address",
          "name": "newImplementation",
          "type": "address"
        }
      ],
      "name": "upgradeTo",
      "outputs": [],
      "stateMutability": "nonpayable",
      "type": "function"
    },
    {
      "inputs": [
        {
          "internalType": "address",
          "name": "",
          "type": "address"
        },
        {
          "internalType": "bytes",
          "name": "",
          "type": "bytes"
        }
      ],
      "name": "upgradeToAndCall",
      "outputs": [],
      "stateMutability": "payable",
      "type": "function"
    },
    {
      "inputs": [],
      "name": "wrappedTokenImplementation",
      "outputs": [
        {
          "internalType": "address",
          "name": "",
          "type": "address"
        }
      ],
      "stateMutability": "view",
      "type": "function"
    }
  ],
  "bytecode": "0x60a08060405234602257306080526168e890816100288239608051816131ab0152f35b600080fdfe60a080604052600436101561001357600080fd5b60006080526080513560e01c90816301ffc9a714614ede575080630a0c292b14614b3c57806311f1011614612fc05780631f2c55b01461467657806326d6eb9e1461462b57806329b6eca9146143eb5780632a2767e5146143af5780632f984ea014613fdf5780633244b99a14613cd35780633659cfe614613bc757806339ce5435146136dc5780633f4ba83a146136325780633fba851c146135d0578063475d5bb31461359b578063485cc955146132cf5780634f1ef2861461326e57806352d1902d146131975780635c975abb146131735780635e19b04714612fc5578063645ad2d214612fc05780636bd7cd79146112b5578063715018a614612f9357806374ced87014612f7357806375a8670914612f285780637dc6120b14612ed05780637ea1b8aa14612e0a5780638456cb5914612d7f578063850bcab914612c3e578063893d20e814612c145780638da5cb5b14612c145780638f2071c514612bd65780639a16629914612bba578063adeb963414612a88578063b3ecf23614612a4c578063c098c15914612899578063d48d3dc614611eda578063d8d3c82914611eba578063dab46984146112e0578063e0116145146112b5578063ecd64ae314610390578063f2fde38b1461035b5763f6dd1550146101f357600080fd5b346103555760203660031901126103555760043561020f61548c565b5061021861548c565b5080608051526101676020526040608051209060018060a01b036001830154161561033f5761033b61024983615372565b604051918291602083528051602084015260018060a01b0360208201511660408401526101606102d56102bf6102a9610293604086015161018060608a01526101a08901906150d0565b6060860151888203601f190160808a01526150d0565b6080850151878203601f190160a08901526150d0565b60a0840151868203601f190160c08801526150d0565b9160c0810151151560e086015260018060a01b0360e08201511661010086015261010081015161012086015260018060a01b036101208201511661014086015260018060a01b0361014082015116828601520151601f19848303016101808501526150d0565b0390f35b63064b7e3d60e11b608051526004526024608051fd5b60805180fd5b3461035557602036600319011261035557610374614f47565b5061037d6154eb565b635a42e44960e01b608051526004608051fd5b346103555760e0366003190112610355576004356001600160401b038111610355576103c0903690600401615122565b6024356001600160401b038111610355576103df903690600401615122565b906044356001600160401b038111610355576103ff903690600401615122565b916064356001600160401b0381116103555761041f903690600401615122565b6084356001600160401b0381116103555761043e903690600401615122565b9160a4356001600160401b0381116103555761045e903690600401615162565b9060c4356001600160401b0381116103555761047e903690600401615162565b926104876154eb565b610163549586159788159889611243575b6402540be3ff89146112305761016054608080518b90526101676020525160409020600101546001600160a01b0391821692911661121957806111a6575b61118f573360009081526101696020526040902054610562576080515b33600090815261016b60205260409020548110156105795733600090815261016b60205260409020610526908290615541565b905433600090815261016a6020526040902060039290921b1c6080515260205260ff6004604060805120015460a01c16610562576001016104f3565b638fc8b33960e01b60805152336004526024608051fd5b5089610f6c575b3314610f5557815115610f3e57835115610f2757805115610f1057825115610ef957865115610ee2578451158015610ed9575b610ec2578451865103610eab576080515b8551811015610625576105d78187615afb565b51511561060e576105e88188615afb565b5151156105f7576001016105c4565b88632b3731bb60e11b608051526004526024608051fd5b886352f3902d60e11b608051526004526024608051fd5b5087939495966040516106378161501e565b858152602081019033825260408101908582528860608201528460808201528660a082015260805160c082015260805160e0820152610100810160805181526101208201916080518352610140810193608051855261016082019687528a60805152610167602052604060805120958251875560018060a01b03905116600187019060018060a01b03166001600160601b0360a01b8254161790556002860190518051906001600160401b038211610af8576106fd826106f78554615257565b856152a8565b6020906001601f841114610e41579180916107309360805192610cdc575b50508160011b916000199060031b1c19161790565b90555b60608101518051906001600160401b038211610af8576107638261075a60038a0154615257565b60038a016152a8565b6020906001601f841114610dd1579180916107959360805192610cdc5750508160011b916000199060031b1c19161790565b60038601555b60808101518051906001600160401b038211610af8576107cb826107c260048a0154615257565b60048a016152a8565b6020906001601f841114610d61579180916107fd9360805192610cdc5750508160011b916000199060031b1c19161790565b60048601555b60a08101518051906001600160401b038211610af8576108338261082a60058a0154615257565b60058a016152a8565b6020906001601f841114610ce757826108bc93600a99989796959361086f9360805192610cdc5750508160011b916000199060031b1c19161790565b60058701555b600686019061089660c08201511515839060ff801983541691151516179055565b60e001518154610100600160a81b03191660089190911b610100600160a81b0316179055565b516007840155516008830180546001600160a01b03199081166001600160a01b0393841617909155915160098401805490931691161790559151805191909201916001600160401b038211610af857610919826106f78554615257565b6020906001601f841114610c725791809161094b9360805192610c675750508160011b916000199060031b1c19161790565b90555b6080515b8651811015610ba05784608051526101776020526040608051206109768289615afb565b51610981838b615afb565b51916040519161099083614f9b565b825260208201928352805490600160401b821015610af85760018201808255821015610b8857608051526020608051209060011b0190518051906001600160401b038211610af8576109e6826106f78554615257565b6020906001601f841114610b1b579180610a1b926001959460805192610b105750508160011b916000199060031b1c19161790565b81555b0190518051906001600160401b038211610af857610a40826106f78554615257565b6020906001601f841114610a8a579180610a7692600196959460805192610a7f5750508160011b916000199060031b1c19161790565b90555b01610952565b015190508d8061071b565b90601f1983169184608051528160805120926080515b818110610ae0575091600196959492918388959310610ac7575b505050811b019055610a79565b015160001960f88460031b161c191690558c8080610aba565b92936020600181928786015181550195019301610aa0565b634e487b7160e01b6080515260416004526024608051fd5b015190508e8061071b565b90601f1983169184608051528160805120926080515b818110610b705750916001959492918387959310610b57575b505050811b018155610a1e565b015160001960f88460031b161c191690558d8080610b4a565b92936020600181928786015181550195019301610b31565b634e487b7160e01b6080515260326004526024608051fd5b507f34163a539dc5fbdc04309f5c778774a95a31e6f88d105997cd6b2fadac51a49791610c28610c19610bfd93610c0b89610be3610bdc615591565b338c6163f9565b6040519687968b885260a0602089015260a08801906150d0565b9086820360408801526150d0565b9084820360608601526150d0565b828103608084015233956150d0565b0390a260008051602061689383398151915260405180610c493394826155fa565b0390a2610c5861016354615467565b61016355600160fb5560805180f35b015190508b8061071b565b90601f1983169184608051528160805120926080515b818110610cc45750908460019594939210610cab575b505050811b01905561094e565b015160001960f88460031b161c191690558a8080610c9e565b92936020600181928786015181550195019301610c88565b01519050388061071b565b90601f1983169160058901608051528160805120926080515b818110610d4957509260019285926108bc96600a9c9b9a99989610610d30575b505050811b016005870155610875565b015160001960f88460031b161c19169055388080610d20565b92936020600181928786015181550195019301610d00565b90601f1983169160048901608051528160805120926080515b818110610db95750908460019594939210610da0575b505050811b016004860155610803565b015160001960f88460031b161c191690558f8080610d90565b92936020600181928786015181550195019301610d7a565b90601f1983169160038901608051528160805120926080515b818110610e295750908460019594939210610e10575b505050811b01600386015561079b565b015160001960f88460031b161c191690558f8080610e00565b92936020600181928786015181550195019301610dea565b90601f1983169184608051528160805120926080515b818110610e935750908460019594939210610e7a575b505050811b019055610733565b015160001960f88460031b161c19169055388080610e6d565b92936020600181928786015181550195019301610e57565b6346cbf99360e01b60805152306004526024608051fd5b8763354952d960e21b608051526004526024608051fd5b508551156105b3565b87637fa5a5a360e11b608051526004526024608051fd5b8763ee02097960e01b608051526004526024608051fd5b87632fc82b6f60e11b608051526004526024608051fd5b87631fe63b0360e01b608051526004526024608051fd5b87632cbd425b60e01b608051526004526024608051fd5b63333bf60960e11b60805152336004526024608051fd5b6080516080515261016760205260ff60066040608051200154161561117857604051638da5cb5b60e01b8152602081600481855afa90811561109f576080519161113e575b506001600160a01b031633141580611119575b611102576040516362d4106760e11b8152336004820152602081602481855afa90811561109f57608051916110d0575b506004811090816110c3575b506110ac5760405163734c619f60e01b815260206004820181905281806110296024820161556f565b0381855afa90811561109f5760805191611068575b5061058057604051634b93852960e11b815260206004820152806110646024820161556f565b0390fd5b90506020813d602011611097575b816110836020938361503a565b8101031261109257518a61103e565b600080fd5b3d9150611076565b6040513d608051823e3d90fd5b630d08398760e21b60805152336004526024608051fd5b600019141590508a611000565b90506020813d6020116110fa575b816110eb6020938361503a565b8101031261109257518a610ff4565b3d91506110de565b88630c48cc2d60e11b608051526004526024608051fd5b506080805180526101676020525160409020600801546001600160a01b031615610fc4565b90506020813d602011611170575b816111596020938361503a565b810103126103555761116a90615243565b8a610fb1565b3d915061114c565b8863064b7e3d60e11b608051526004526024608051fd5b6339e3033960e21b60805152336004526024608051fd5b50604051638da5cb5b60e01b8152602081600481855afa90811561109f57608051916111df575b506001600160a01b03163314156104d6565b90506020813d602011611211575b816111fa6020938361503a565b810103126103555761120b90615243565b8b6111cd565b3d91506111ed565b89633f23814f60e11b608051526004526024608051fd5b6324f21a0f60e01b608051526004608051fd5b6080516080515261016760205261125e604060805120615372565b60208101516001600160a01b03161561129c5761012001516001600160a01b03166104985763ed15e6cf60e01b608051526080516004526024608051fd5b63064b7e3d60e11b608051526080516004526024608051fd5b346103555760805136600319011261035557610162546040516001600160a01b039091168152602090f35b34610355576060366003190112610355576004356112fc614f31565b6044356001600160401b0381116103555761131b903690600401615122565b6113236154eb565b61132b61566f565b610160546001600160a01b03169261134433828661674b565b6001600160a01b03831693338514611ea357825115611e90578415611e79576040516362d4106760e11b815260048101869052602081602481855afa90811561109f5760805191611e47575b50600481109081611e3a575b50611e235760805161016554905b818110611dc557505060405163c696804f60e01b8152602081600481855afa90811561109f5760805191611d8b575b506001600160a01b03168514611d745760405163734c619f60e01b8152602060048201819052818061140e60248201886150d0565b0381855afa90811561109f5760805191611d42575b5015611d20576040519363490e122960e11b8552602060048601526020858061144f60248201886150d0565b0381855afa94851561109f5760805195611cec575b50600385108015611ce2575b611ccb576003851480611b6f575b6040516362d4106760e11b8152336004820152602081602481875afa90811561109f5760805191611b3d575b5086811015611b1a5781611b31575b50611b1a5760038511611a93575b6001600160a01b03811660008181526101696020908152604091829020915163c978d8a560e01b815260048101939093526024830186905282604481875afa91821561109f5760805192611a5f575b506001820161180f575b50506001600160a01b03811660009081526101696020526040902061156d906040519061154c82614fcc565b8582528860208301528660408301528760608301526001608083015261629b565b6001600160a01b038116600090815261016b602052604090208054600160401b811015610af8576115a391600182018155615541565b815460001960039290921b91821b19169085901b17905560405163734c619f60e01b815260206004820181905290929083806115e260248201896150d0565b0381845afa92831561109f57608051936117db575b50803b1561035557604051632fa28d9b60e21b815260805181806116238933888d8b8d600488016156cf565b0381608051865af1801561109f576117c2575b5060405163c978d8a560e01b81526001600160a01b03831660048201526024810185905290602090829060449082905afa801561109f5786916080519161178d575b5003611776576004600080516020616893833981519152956040519061169d82615003565b8582526020820194898652604083019081526060830191825260808301953387526116e360a08501966001885260018060a01b031660005261016a602052604060002090565b608080518a9052602091909152516040908190209451855590516001850180546001600160a01b039283166001600160a01b031990911617905591516002850155915160038401559451929091018054935160ff60a01b90151560a01b16929094166001600160a81b03199093169290921717909155519182916117689190836163e2565b0390a2600160fb5560805180f35b85637745245760e01b608051526004526024608051fd5b9150506020813d6020116117ba575b816117a96020938361503a565b810103126110925785905188611678565b3d915061179c565b6080516117ce9161503a565b6080516103555787611636565b9092506020813d602011611807575b816117f76020938361503a565b81010312611092575191876115f7565b3d91506117ea565b60805181546000199391606091905b8181106119f5575b505060018401611838575b5050611520565b6040519063734c619f60e01b8252602060048301526020828061185e60248201856150d0565b03818a5afa91821561109f57608051926119c1575b50863b156103555787926118a38792604051958694859463be92c6db60e01b8652608051973393600488016156cf565b0381608051895af1801561109f576119a8575b50600181541160001461197a5780546000198101908111611962576118f8926118ed6118e56118f393856156b3565b5091846156b3565b906158a2565b61592f565b6001600160a01b038116600090815261016a60205260409020836080515260205261194060406080512060046000918281558260018201558260028201558260038201550155565b856000805160206168738339815191526020604051868152a286808080611831565b634e487b7160e01b6080515260116004526024608051fd5b50506001600160a01b0381166000908152610169602052604090206119a39061570e565b61570e565b6118f8565b6080516119b49161503a565b60805161035557886118b6565b9091506020813d6020116119ed575b816119dd6020938361503a565b810103126110925751908b611873565b3d91506119d0565b88611a0082876156b3565b50541480611a47575b611a155760010161181e565b945050506002611a40611a2885856156b3565b50611a3960405180948193016152ef565b038261503a565b8a80611826565b5060ff6004611a5683886156b3565b50015416611a09565b9091506020813d602011611a8b575b81611a7b6020938361503a565b8101031261109257519088611516565b3d9150611a6e565b60405163c978d8a560e01b815233600482015260248101849052602081604481865afa90811561109f5760805191611ae8575b50196114c7575b82630d0f1bc360e11b60805152336004526024526044608051fd5b90506020813d602011611b12575b81611b036020938361503a565b81010312611092575187611ac6565b3d9150611af6565b6303d1bc5d60e51b60805152336004526024608051fd5b600291501015876114b9565b90506020813d602011611b67575b81611b586020938361503a565b810103126110925751886114aa565b3d9150611b4b565b60405163c978d8a560e01b815233600482015260248101859052602081604481875afa801561109f5760805190611c98575b600391501480611c3e575b6040516362d4106760e11b815233600482015290602082602481885afa91821561109f5760805192611c0a575b50159081611bff575b501561147e576348f8744760e01b60805152336004526024608051fd5b600191501188611be2565b9091506020813d602011611c36575b81611c266020938361503a565b8101031261109257519089611bd9565b3d9150611c19565b5033600090815261016a60205260409020846080515260205260026040608051200154604051602081019070434f4e5349474c494f5f5341504f52495360781b825260118152611c8f60318261503a565b51902014611bac565b506020813d602011611cc3575b81611cb26020938361503a565b810103126110925760039051611ba1565b3d9150611ca5565b846351f8356160e11b608051526004526024608051fd5b5060058511611470565b9094506020813d602011611d18575b81611d086020938361503a565b8101031261109257519386611464565b3d9150611cfb565b604051634b93852960e11b8152602060048201528061106460248201866150d0565b90506020813d602011611d6c575b81611d5d6020938361503a565b81010312611092575186611423565b3d9150611d50565b8463ec13832f60e01b608051526004526024608051fd5b90506020813d602011611dbd575b81611da66020938361503a565b8101031261035557611db790615243565b866113d9565b3d9150611d99565b608080518290526101676020525160409020600101546001600160a01b031687148015611df9575b610562576001016113aa565b506080805182905261016760205251604090206006015460081c6001600160a01b03168714611ded565b84630d08398760e21b608051526004526024608051fd5b600019141590508661139c565b90506020813d602011611e71575b81611e626020938361503a565b81010312611092575186611390565b3d9150611e55565b84633202e20d60e21b608051526004526024608051fd5b63369e983560e01b608051526004608051fd5b636fc71c8560e01b60805152336004526024608051fd5b346103555760805136600319011261035557602061016354604051908152f35b346103555760a0366003190112610355576024356001600160401b0381116103555760a060031982360301126103555760405190611f1782614fcc565b80600401356001600160401b03811161035557611f3a9060043691840101615122565b825260248101356001600160401b03811161035557611f5f9060043691840101615122565b60208301526044810135604083015260648101356001600160401b03811161035557611f919060043691840101615122565b60608301526084810135906001600160401b038211610355576004611fb99236920101615122565b60808201526044356001600160401b0381116103555761014060031982360301126103555760405190611feb82614fe7565b611ff781600401614f5d565b825261200560248201614f5d565b602083015260448101356001811015610355576040830152606481013560608301526084810135608083015260a48101356001600160401b0381116103555781013660238201121561035557600481013561205f8161513d565b9161206d604051938461503a565b818352602060048185019360061b830101019036821161035557602401915b8183106128685750505060a08301526120a760c48201615154565b60c083015260e48101358015158103610355576120e0916101249160e08501526120d46101048201615154565b61010085015201615154565b6101208201526001600160401b036064351161035557366023606435011215610355576121126064356004013561513d565b90612120604051928361503a565b6004606435908101358084526020840191829160051b0160240136811161035557602460643501915b8183106127fb575050506001600160401b0360843511610355573660236084350112156103555761217f6084356004013561513d565b9061218d604051928361503a565b6084356004013582526020820190813660246084356004013560051b60843501011161035557602460843501905b60246084356004013560051b608435010182106127705750506121dc6154eb565b610160546001600160a01b03169260043561275e57604051638da5cb5b60e01b8152602081600481885afa90811561109f5760805191612724575b506001600160a01b0316330361118f576080805180526101676020525160409020600101546001600160a01b03161561129c576080516080515261016760205260ff60066040608051200154161561270b575b600435612706575b604051632ee325db60e21b81529360208580612290600482016159d3565b0381845afa94851561109f57608051956126ca575b506001600160a01b038516156126b457506080519560409590875b81518110156126a7576122d38183615afb565b515160208151910120600960208a516122ec8c8261503a565b82815201686c697175696469747960b81b815220148015612669575b612314576001016122c0565b81929394959697985061232990602092615afb565b5101515b601481108091811561265e575b5061262957506123ce8751986379ca55b960e11b8a5260043560048b015260c060248b015260806123b961239761237f8d61016486519160a060c482015201906150d0565b8d60208601519060e460c319828503019101526150d0565b60408401516101048e015260608401518d820360c319016101248f01526150d0565b9101518a820360c319016101448c01526150d0565b8881036003190160448a015282516001600160a01b039081168252602080850151909116908201526040830151600181101561261157908996959493929189820152606083015160608201526080830151608082015260a08301519261014060a0830152835180610140840152602061016084019501906080515b8c8282106125ef575050505060ff610120828260c0839501511660c086015260e0810151151560e0860152826101008201511661010086015201511691015260031986830301606487015251808252602082019160208260051b8201019492608051915b8a8484106125a65750505050505060031984830301608485015251808252602082019160208260051b8201019392608051915b8383106125755786896020828b81808c3360a483015203916080519060018060a01b03165af190811561256a5760805191612535575b6020925061252661016654615467565b61016655600160fb5551908152f35b90506020823d602011612562575b816125506020938361503a565b81010312611092576020915190612516565b3d9150612543565b513d608051823e3d90fd5b919395509193602080612594600193601f1986820301875289516150f5565b970193019301909288959492936124e0565b60209193959899508190600193959798601f1986820301875282806125d58d51948551908086528501906150d0565b93015191015298019301930190928a9796959492936124ad565b835180518952602090810151818a01528f9c5097019690920191600101612449565b634e487b7160e01b6080515260216004526024608051fd5b1561264657637644e84b60e11b6080515260146004526024608051fd5b631b3c134360e21b6080515260326004526024608051fd5b60329150118a61233a565b506126748183615afb565b515160208151910120600960208a5161268d8c8261503a565b82815201684c697175696469747960b81b81522014612308565b509091929394959661232d565b637361709960e01b608051526004526024608051fd5b9094506020813d6020116126fe575b816126e66020938361503a565b81010312610355576126f790615243565b93886122a5565b3d91506126d9565b612272565b632b13157760e11b608051526080516004526024608051fd5b90506020813d602011612756575b8161273f6020938361503a565b810103126103555761275090615243565b88612217565b3d9150612732565b61276b336004358661674b565b61226a565b81356001600160401b038111610355576084350160406023198236030112610355576040519161279f83614f9b565b60248201356001600160401b038111610355576127c29060243691850101615122565b83526044820135926001600160401b038411610355576127ec602094936024869536920101615122565b838201528152019101906121bb565b82356001600160401b038111610355576064350160406023198236030112610355576040519161282a83614f9b565b6024820135926001600160401b03841161035557604460209493612855869560243691840101615122565b8352013583820152815201920191612149565b604083360312610355576020604091825161288281614f9b565b85358152828601358382015281520192019161208c565b34610355576040366003190112610355576004356128b5614f31565b6128bd6154eb565b61016054604051632ee325db60e21b815260206004820181905260076024830152665374616b696e6760c81b60448301529091829060649082906001600160a01b03165afa90811561109f5760805191612a12575b506001600160a01b031633036129fb576001600160a01b0381169081156129e457608080518490526101676020525160409020600901546001600160a01b03166129cd573b156129b75760207f7bfcd6ae78763ad166464b2b219cf23453f5259f0c7abfb92785d1b8f9ef50d69183608051526101678252600960406080512001816001600160601b0360a01b825416179055604051908152a2600160fb5560805180f35b6319bb402960e01b608051526004526024608051fd5b826353b5776b60e01b608051526004526024608051fd5b50633202e20d60e21b608051526004526024608051fd5b634a0bfec160e01b60805152336004526024608051fd5b90506020813d602011612a44575b81612a2d6020938361503a565b8101031261035557612a3e90615243565b83612912565b3d9150612a20565b34610355576080513660031901126103555760206040517fa36640f9c3d74ee87c99b3aee39f32849dda077410057abc393a2cb9e13139a78152f35b3461035557602036600319011261035557600435806080515261016760205260018060a01b0360016040608051200154161561033f5760805152610177602052604060805120805490612ada8261513d565b91612ae8604051938461503a565b80835260208301809260805152602060805120608051915b838310612b6f57848660405191829160208301906020845251809152604083019060408160051b8501019291608051905b828210612b4057505050500390f35b91936001919395506020612b5f8192603f198a820301865288516150f5565b9601920192018594939192612b31565b60026020600192604051612b8281614f9b565b604051612b9381611a39818a6152ef565b8152604051612ba881611a3981898b016152ef565b83820152815201920192019190612b00565b3461035557608051366003190112610355576020604051308152f35b34610355576040366003190112610355576020612c0a612bf4614f31565b61016054600435906001600160a01b0316616148565b6040519015158152f35b3461035557608051366003190112610355576033546040516001600160a01b039091168152602090f35b346103555760805136600319011261035557612c5861566f565b612c606154eb565b610160546001600160a01b03168015612d6c5760405163c696804f60e01b8152602081600481855afa90811561109f5760805191612d32575b506001600160a01b03163303612d1f5760206004916040519283809263c696804f60e01b82525afa801561109f5760805190612ce4575b612cd9906160ff565b600160fb5560805180f35b506020813d602011612d17575b81612cfe6020938361503a565b8101031261035557612d12612cd991615243565b612cd0565b3d9150612cf1565b632508892760e11b608051526004608051fd5b90506020813d602011612d64575b81612d4d6020938361503a565b8101031261035557612d5e90615243565b82612c99565b3d9150612d40565b6336939d7d60e21b608051526004608051fd5b346103555760805136600319011261035557612d9961566f565b610160546001600160a01b03168015612d6c573303612df757612dba61566f565b600160ff1960c954161760c9557f62e78cea01bee320cd4e420270b5ea74000d11b0c9f74754ebdbfc544b05a2586020604051338152a160805180f35b635c427cd960e01b608051526004608051fd5b3461035557602036600319011261035557612e23614f47565b612e2b6154eb565b61016054603354612e4a916001600160a01b039182169133911661656a565b6001600160a01b03168015612eba57806001600160601b0360a01b61017554161761017555807fbc5f25c6989a08d35da204812dcc1f34b0b229cc00e591a1e4de3c79679ab022608051608051a26001600160601b0360a01b61016254161761016255600160fb55608051608051f35b633202e20d60e21b608051526004526024608051fd5b346103555760203660031901126103555760043580608051526101676020526040608051209060ff60068301541615612f125760206007830154604051908152f35b632b13157760e11b608051526004526024608051fd5b3461035557608051366003190112610355576020604051818101906f56414e454c4c49585f434f4d50414e5960801b825260108152612f6860308261503a565b519020604051908152f35b346103555760805136600319011261035557602061015f54604051908152f35b346103555760805136600319011261035557612fad6154eb565b63ffc0fd9360e01b608051526004608051fd5b614f71565b3461035557604036600319011261035557600435612fe1614f31565b61016054604051632ee325db60e21b81529060209082906001600160a01b0316818061300f600482016159d3565b03915afa90811561109f5760805191613139575b506001600160a01b0316330361311e5760808051839052610167602052516040902060018101546001600160a01b0316156131075760ff600682015416156130f05760080180546001600160a01b03166129cd57813b156130cc5780546001600160a01b0319166001600160a01b0390921691821790556040519081527f38b0af0e7df8bbf32b78dbbcf57d2973da4b62e518622c36e6ee6871b74357fe90602090a260805180f35b50608080516319bb402960e01b90526001600160a01b039190911660045251602490fd5b82632b13157760e11b608051526004526024608051fd5b8263064b7e3d60e11b608051526004526024608051fd5b50639a8cadab60e01b60805152336004526024526044608051fd5b90506020813d60201161316b575b816131546020938361503a565b810103126103555761316590615243565b83613023565b3d9150613147565b346103555760805136600319011261035557602060ff60c954166040519015158152f35b3461035557608051366003190112610355577f00000000000000000000000000000000000000000000000000000000000000006001600160a01b031630036132035760206040517f360894a13ba1a3210667c828492db98dca3e2076cc3735a920a3ca505d382bbc8152f35b60405162461bcd60e51b815260206004820152603860248201527f555550535570677261646561626c653a206d757374206e6f742062652063616c60448201527f6c6564207468726f7567682064656c656761746563616c6c00000000000000006064820152608490fd5b604036600319011261035557613282614f47565b506024356001600160401b0381116103555736602382011215610355576132b3903690602481600401359101615076565b506132bc6154eb565b630c5e6cd360e21b608051526004608051fd5b34610355576040366003190112610355576132e8614f47565b6132f0614f31565b608051549160ff8360081c16159283809461358e575b8015613577575b613316906151e0565b83600160ff1983161760805155613563575b506001600160a01b03169081158015613552575b6129e457604051638da5cb5b60e01b81526001600160a01b03919091169190602081600481865afa90811561109f5760805191613518575b506001600160a01b031633036135015761339061016454615257565b601f81116134db575b50602a742b189021b7b6b830b73c9026bab63a34aa37b5b2b760591b0161016455816001600160601b0360a01b6101745416176101745560805161016655806001600160601b0360a01b610162541617610162556001600160601b0360a01b610175541617610175556001600160601b0360a01b610160541617610160556080516101635561344260ff6080515460081c166134348161560f565b61343d8161560f565b61560f565b61344b336160ff565b608051549061349660ff8360081c166134638161560f565b61346c8161560f565b60ff1960c9541660c95561347f8161560f565b6134888161560f565b600160fb5561343d8161560f565b6134a1575b60805180f35b61ff001916608051557f7f26b83ff96e1f2b6a682f133852f6798a09c465da95921460cefb3847402498602060405160018152a18061349b565b6134fb9061016460805152601f602060805120910160051c810190615291565b83613399565b635a96514360e11b60805152336004526024608051fd5b90506020813d60201161354a575b816135336020938361503a565b810103126103555761354490615243565b84613374565b3d9150613526565b506001600160a01b0381161561333c565b6101019061ffff1916176080515583613328565b50303b15801561330d575060ff811660011461330d565b50600160ff821610613306565b3461035557602036600319011261035557610160546020906135c8906001600160a01b0316600435615b0f565b604051908152f35b3461035557602036600319011261035557600435806080515261016760205260406080512060ff6006820154161561361b57600101546040516001600160a01b039091168152602090f35b50632b13157760e11b608051526004526024608051fd5b346103555760805136600319011261035557610160546001600160a01b03168015612d6c573303612df75760c95460ff8116156136a05760ff191660c9557f5db9ee0a495bf2e6ff9c91a7834c1ba4fdd244a5e8aa4e537bd38aeae4b073aa6020604051338152a160805180f35b60405162461bcd60e51b815260206004820152601460248201527314185d5cd8589b194e881b9bdd081c185d5cd95960621b6044820152606490fd5b34610355576040366003190112610355576004356136f8614f31565b6137006154eb565b61016054608080518490526101676020525160409020600601546001600160a01b03918216929160089190911c168015612eba573303613bac578215613b95576001600160a01b038116918215613b7e5760808051859052610167602052516040902060018101546001600160a01b031615613b6757600601805460ff811615613b5057833b15613b395760081c6001600160a01b0316926137aa6137a36159fa565b82886163f9565b60405163734c619f60e01b815260206004820181905281806137ce60248201615a29565b0381875afa90811561109f5760805191613b07575b50833b156103555760405190632fa28d9b60e21b8252818061380f608051938633918d60048601615a4d565b0381608051885af1801561109f57613aee575b5061386d9185600080516020616893833981519152604051806138458b82615a89565b0390a28054610100600160a81b03191660089290921b610100600160a81b0316919091179055565b816138af575b506040907f84f254536dfd0fd0b3360bb4377ba63bf3211cfbf7597c4488e452e69b1dd0bd9282519182526020820152a2600160fb5560805180f35b604051602081019070434f4e5349474c494f5f5341504f52495360781b8252601181526138dd60318261503a565b519020906138e96159fa565b91813b156103555761393760405193849263be92c6db60e01b84526080515088600485015260248401526003604484015285606484015233608484015260c060a484015260c48301906150d0565b918180608051940391608051905af1801561109f57613ad5575b506001600160a01b0381166000908152610169602052604090206080518154600019915b818110613a95575b506001820161398e575b5050613873565b919390929160011015613a4957835460001981019390841161196257846118f36139e2926118ed6118e56040987f84f254536dfd0fd0b3360bb4377ba63bf3211cfbf7597c4488e452e69b1dd0bd9a6156b3565b6001600160a01b038216600090815261016a602052604090208560805152602052613a29836080512060046000918281558260018201558260028201558260038201550155565b8160008051602061687383398151915260208551888152a2928192613987565b7f84f254536dfd0fd0b3360bb4377ba63bf3211cfbf7597c4488e452e69b1dd0bd935060409250613a9061199e8360018060a01b0316600052610169602052604060002090565b6139e2565b86613aa082866156b3565b50541480613abd575b613ab557600101613975565b91508661397d565b5060ff6004613acc83876156b3565b50015416613aa9565b608051613ae19161503a565b6080516103555783613951565b608051613afa9161503a565b6080516103555786613822565b90506020813d602011613b31575b81613b226020938361503a565b810103126110925751876137e3565b3d9150613b15565b846319bb402960e01b608051526004526024608051fd5b85632b13157760e11b608051526004526024608051fd5b8463064b7e3d60e11b608051526004526024608051fd5b82633202e20d60e21b608051526004526024608051fd5b82631b4d1f1360e01b608051526004526024608051fd5b82631ed0eedd60e11b60805152336004526024526044608051fd5b3461035557602036600319011261035557613be0614f47565b613be86154eb565b610160546001600160a01b03168015612d6c573303612df757803b15613c78577f360894a13ba1a3210667c828492db98dca3e2076cc3735a920a3ca505d382bbc80546001600160a01b0319166001600160a01b039290921691821790556080517fbc7cd75a20ee27fd9adebab32041f755214dbc6bffa90cc0225b39da2e5c2d3b9080a2600160fb5560805180f35b60405162461bcd60e51b815260206004820152602d60248201527f455243313936373a206e657720696d706c656d656e746174696f6e206973206e60448201526c1bdd08184818dbdb9d1c9858dd609a1b6064820152608490fd5b3461035557604036600319011261035557600435613cef614f31565b61016054604051632ee325db60e21b81526001600160a01b039091169060208180613d1c600482016159d3565b0381855afa90811561109f5760805191613fa5575b506001600160a01b03163303613f8a5760808051849052610167602052516040902060018101546001600160a01b031615613f735760060191825460ff811615613f5c5760081c6001600160a01b0316613f45576001600160a01b038116928315613f2e57813b15613f17578054610100600160a81b031916600883901b610100600160a81b031617905583613df4575b837feee677695ea2756cec2e9cc3cdd1388528953e2886e279900e3b0ae55c12eb85602085604051908152a260805180f35b613e06613dff6159fa565b82866163f9565b60405163734c619f60e01b81526020600482018190528180613e2a60248201615a29565b0381865afa90811561109f5760805191613ee5575b50823b1561035557613e6d926040518080958194632fa28d9b60e21b83526080519633918b60048601615a4d565b0391608051905af1801561109f57613ecc575b506020817feee677695ea2756cec2e9cc3cdd1388528953e2886e279900e3b0ae55c12eb859260008051602061689383398151915260405180613ec38882615a89565b0390a291613dc2565b608051613ed89161503a565b6080516103555782613e80565b90506020813d602011613f0f575b81613f006020938361503a565b81010312611092575185613e3f565b3d9150613ef3565b836319bb402960e01b608051526004526024608051fd5b83633202e20d60e21b608051526004526024608051fd5b83634e9e96d160e01b608051526004526024608051fd5b84632b13157760e11b608051526004526024608051fd5b8363064b7e3d60e11b608051526004526024608051fd5b82639a8cadab60e01b60805152336004526024526044608051fd5b90506020813d602011613fd7575b81613fc06020938361503a565b8101031261035557613fd190615243565b84613d31565b3d9150613fb3565b3461035557604036600319011261035557600435613ffb614f31565b6140036154eb565b61400b61566f565b610160546001600160a01b031661402333848361674b565b6001600160a01b03821692338414611ea3578315613f2e5760405163c978d8a560e01b81526001600160a01b03841660048201526024810182905292602084604481865afa93841561109f576080519461437b575b5060001984146143605760405163c978d8a560e01b815233600482015260248101839052602081604481875afa90811561109f576080519161432e575b506000198114611acd57853314159081614323575b50611b1a576001600160a01b03811660009081526101696020526040902092600019946080515060606080518654905b8181106142d1575b505060001987146142b6576040519263734c619f60e01b8452602060048501526020848061413360248201866150d0565b0381845afa93841561109f5760805194614282575b50803b15610355576141789360405180958194829363be92c6db60e01b8452896080519833928d600488016156cf565b0391608051905af1801561109f57614269575b50600183541160001461422b578254600019810191908211611962576141d0846118f3600080516020616873833981519152976118ed6118e56141eb9760209a6156b3565b6001600160a01b0316600090815261016a6020526040902090565b8160805152825261421960406080512060046000918281558260018201558260028201558260038201550155565b604051908152a2600160fb5560805180f35b6000805160206168738339815191529350602092508061426461199e6141eb9360018060a01b0316600052610169602052604060002090565b6141d0565b6080516142759161503a565b608051610355578561418b565b9093506020813d6020116142ae575b8161429e6020938361503a565b8101031261109257519289614148565b3d9150614291565b848863984b4d5f60e01b608051526004526024526044608051fd5b866142dc828a6156b3565b5054148061430b575b6142f1576001016140fa565b975050506002614304611a2888886156b3565b8880614102565b5060ff600461431a838b6156b3565b500154166142e5565b9050841115866140ca565b90506020813d602011614358575b816143496020938361503a565b810103126110925751866140b5565b3d915061433c565b508363984b4d5f60e01b608051526004526024526044608051fd5b9093506020813d6020116143a7575b816143976020938361503a565b8101031261109257519285614078565b3d915061438a565b34610355576080513660031901126103555760206040517f2218ef3916717733d36fbf8ca2c15c4eb9f6aa6e0d2757fbab6fccf43189f9938152f35b3461035557602036600319011261035557614404614f47565b6101026080515460ff8160081c16158061461e575b614422906151e0565b61ffff19161790816080515560018060a01b03169081156145d95760405163c696804f60e01b8152602081600481865afa90811561109f576080519161459f575b506001600160a01b031633036145505760ff6144869160081c166134348161560f565b61448f336160ff565b6144a560ff6080515460081c166134638161560f565b6144b161016154615257565b601f811161452a575b506022702b191024b6b83632b6b2b73a30ba34b7b760791b01610161556001600160601b0360a01b6101605416176101605561ff00196080515416608051557f7f26b83ff96e1f2b6a682f133852f6798a09c465da95921460cefb3847402498602060405160028152a160805180f35b61454a9061016160805152601f602060805120910160051c810190615291565b816144ba565b60405162461bcd60e51b815260206004820152602160248201527f43616c6c6572206973206e6f7420746865204c61756e6368706164206f776e656044820152603960f91b6064820152608490fd5b90506020813d6020116145d1575b816145ba6020938361503a565b81010312610355576145cb90615243565b83614463565b3d91506145ad565b60405162461bcd60e51b815260206004820152601a60248201527f4c61756e636870616420616464726573732072657175697265640000000000006044820152606490fd5b50600260ff821610614419565b346103555760203660031901126103555760043580608051526101676020526006604060805120015460ff81161561361b5760405160089190911c6001600160a01b03168152602090f35b34610355576020366003190112610355576004356146926154eb565b610160546080805183905261016760205251604090206001600160a01b039091169180614896575090600a820154916146ca83615257565b1561487d576080516080515261017760205260406080512054156148645760018101546001600160a01b031692338490036148485761470890615257565b15614831576006810191825460ff81166148195760ff19166001179283905560405163074ced8760e41b815290602090829060049082905afa90811561109f57608051916147c5575b50907f2a8c84aeff3982794874343ba9879a1a898d988264649bf5b041180d6c142880928261479e93600784015560405193849360805185526080602086015260026080860191016152ef565b60089290921c6001600160a01b0316604084015260608301520390a2600160fb5560805180f35b9190506020823d602011614811575b816147e16020938361503a565b810103126110925790517f2a8c84aeff3982794874343ba9879a1a898d988264649bf5b041180d6c142880614751565b3d91506147d4565b82546307129c3b60e41b608051526004526024608051fd5b54637fa5a5a360e11b608051526004526024608051fd5b50546303c2deb360e41b60805152336004526024526044608051fd5b63354952d960e21b608051526080516004526024608051fd5b637fa5a5a360e11b608051526080516004526024608051fd5b6148a133338561656a565b6040516362d4106760e11b8152336004820152602081602481875afa801561109f5760805190614b09575b6001915011611b1a576001820180546001600160a01b031693908415613107576006840191825460ff8116614af257614908600a870154615257565b15614adb5784608051526101776020526040608051205415614ac45760019060ff19161783556301e13380420195864211611962576149579060078701978855614950615591565b90866163f9565b60405163734c619f60e01b8152602060048201819052818061497b6024820161556f565b0381855afa90811561109f5760805191614a92575b5082546001600160a01b031690823b15610355576149ca926040518080958194632fa28d9b60e21b83526080519633918c600486016155be565b0391608051905af1801561109f57614a73575b50907f2a8c84aeff3982794874343ba9879a1a898d988264649bf5b041180d6c142880614a5160008051602061689383398151915295614a6b959460018060a01b0390541697889460018060a01b03905460081c1690546040519384938885526080602086015260026080860191016152ef565b91604084015260608301520390a2604051918291826155fa565b0390a2612cd9565b60805191939291614a839161503a565b608051610355579091856149dd565b90506020813d602011614abc575b81614aad6020938361503a565b81010312611092575187614990565b3d9150614aa0565b8463354952d960e21b608051526004526024608051fd5b84637fa5a5a360e11b608051526004526024608051fd5b846307129c3b60e41b608051526004526024608051fd5b506020813d602011614b34575b81614b236020938361503a565b8101031261109257600190516148cc565b3d9150614b16565b3461035557604036600319011261035557600435614b58614f31565b614b606154eb565b610160546001600160a01b0316918015614ec757806080515261016760205260406080512090600182019360018060a01b0385541694338603614eac576001600160a01b038516938415611e795760070154421015614e95576001600160a01b03851660009081526101696020526040902054610562576080515b6001600160a01b038616600090815261016b6020526040902054811015614c68576001600160a01b038616600090815261016b60205260409020614c20908290615541565b90549060031b1c614c448760018060a01b031660005261016a602052604060002090565b906080515260205260ff6004604060805120015460a01c1661056257600101614bdb565b5084866040519063734c619f60e01b82526020600483015260208280614c906024820161556f565b0381885afa91821561109f5760805192614e61575b506040519063490e122960e11b82526020600483015260208280614ccb6024820161556f565b0381895afa91821561109f5760805192614e2d575b50853b15610355576040519163be92c6db60e01b83528760048401528360248401526044830152606482015233608482015260c060a48201526080518180614d2a60c4820161556f565b0381608051895af1801561109f57614e1b575b5082546001600160a01b0319811687179093556001600160a01b0390921691614d6e614d67615591565b83876163f9565b833b1561035557614d9b936040518080968194632fa28d9b60e21b83526080519633918b600486016155be565b0391608051905af191821561109f578492614dfd575b509161176891600080516020616893833981519152937fa92c3801cef41d233be32c643289fac4c3a1bb92ae97de264c0d111bab69898b6020604051858152a3604051918291826155fa565b614e0c9192506080519061503a565b60805161035557829084614db1565b608051614e279161503a565b86614d3d565b9091506020813d602011614e59575b81614e496020938361503a565b8101031261035557519088614ce0565b3d9150614e3c565b9091506020813d602011614e8d575b81614e7d6020938361503a565b8101031261035557519087614ca5565b3d9150614e70565b635354cee360e11b60805152336004526024608051fd5b826303c2deb360e41b60805152336004526024526044608051fd5b6319bb402960e01b60805152336004526024608051fd5b34610355576020366003190112610355576004359063ffffffff60e01b8216809203610355576020916317e3c03b60e21b8114908115614f20575b5015158152f35b6301ffc9a760e01b14905083614f19565b602435906001600160a01b038216820361109257565b600435906001600160a01b038216820361109257565b35906001600160a01b038216820361109257565b3461109257600036600319011261109257610160546040516001600160a01b039091168152602090f35b604081019081106001600160401b03821117614fb657604052565b634e487b7160e01b600052604160045260246000fd5b60a081019081106001600160401b03821117614fb657604052565b61014081019081106001600160401b03821117614fb657604052565b60c081019081106001600160401b03821117614fb657604052565b61018081019081106001600160401b03821117614fb657604052565b90601f801991011681019081106001600160401b03821117614fb657604052565b6001600160401b038111614fb657601f01601f191660200190565b9291926150828261505b565b91615090604051938461503a565b829481845281830111611092578281602093846000960137010152565b60005b8381106150c05750506000910152565b81810151838201526020016150b0565b906020916150e9815180928185528580860191016150ad565b601f01601f1916010190565b61511f91602061510e83516040845260408401906150d0565b9201519060208184039101526150d0565b90565b9080601f830112156110925781602061511f93359101615076565b6001600160401b038111614fb65760051b60200190565b359060ff8216820361109257565b9080601f830112156110925781356151798161513d565b92615187604051948561503a565b81845260208085019260051b820101918383116110925760208201905b8382106151b357505050505090565b81356001600160401b038111611092576020916151d587848094880101615122565b8152019101906151a4565b156151e757565b60405162461bcd60e51b815260206004820152602e60248201527f496e697469616c697a61626c653a20636f6e747261637420697320616c72656160448201526d191e481a5b9a5d1a585b1a5e995960921b6064820152608490fd5b51906001600160a01b038216820361109257565b90600182811c92168015615287575b602083101461527157565b634e487b7160e01b600052602260045260246000fd5b91607f1691615266565b81811061529c575050565b60008155600101615291565b9190601f81116152b757505050565b6152e3926000526020600020906020601f840160051c830193106152e5575b601f0160051c0190615291565b565b90915081906152d6565b600092918154916152ff83615257565b8083529260018116908115615355575060011461531b57505050565b60009081526020812093945091925b83831061533b575060209250010190565b60018160209294939454838587010152019101919061532a565b915050602093945060ff929192191683830152151560051b010190565b90600a6101606040516153848161501e565b61546381958054835260018060a01b0360018201541660208401526040516153b381611a3981600286016152ef565b60408401526040516153cc81611a3981600386016152ef565b60608401526040516153e581611a3981600486016152ef565b60808401526040516153fe81611a3981600586016152ef565b60a0840152600681015460ff8116151560c08501526001600160a01b03600891821c811660e0860152600783015461010086015290820154811661012085015260098201541661014084015260405194859161545c918391016152ef565b038461503a565b0152565b60001981146154765760010190565b634e487b7160e01b600052601160045260246000fd5b604051906154998261501e565b606061016083600081526000602082015282604082015282808201528260808201528260a0820152600060c0820152600060e08201526000610100820152600061012082015260006101408201520152565b600260fb54146154fc57600260fb55565b60405162461bcd60e51b815260206004820152601f60248201527f5265656e7472616e637947756172643a207265656e7472616e742063616c6c006044820152606490fd5b80548210156155595760005260206000200190600090565b634e487b7160e01b600052603260045260246000fd5b600f81526e444f4d494e55535f5341504f52495360881b602082015260400190565b604051906155a060408361503a565b600f82526e444f4d494e55535f5341504f52495360881b6020830152565b9081526020810191909152600360408201526001600160a01b0391821660608201529116608082015260c060a0820181905261511f910161556f565b60409061511f9281528160208201520161556f565b1561561657565b60405162461bcd60e51b815260206004820152602b60248201527f496e697469616c697a61626c653a20636f6e7472616374206973206e6f74206960448201526a6e697469616c697a696e6760a81b6064820152608490fd5b60ff60c9541661567b57565b60405162461bcd60e51b815260206004820152601060248201526f14185d5cd8589b194e881c185d5cd95960821b6044820152606490fd5b8054821015615559576000526005602060002091020190600090565b908152602081019190915260408101919091526001600160a01b0391821660608201529116608082015260c060a0820181905261511f929101906150d0565b805490600081558161571e575050565b81600502916005830403615476576000526020600020908101905b818110615744575050565b6005906000815560006001820155600281016157608154615257565b908161577d575b5050600060038201556000600482015501615739565b81601f600093116001146157955750555b3880615767565b818352602083206157b091601f01861c810190600101615291565b808252816020812091555561578e565b91909182811461589d576157d48354615257565b6001600160401b038111614fb6576157f6816157f08454615257565b846152a8565b600093601f821160011461583757615828929394829160009261582c5750508160011b916000199060031b1c19161790565b9055565b01549050388061071b565b845260208085208386529085209094601f198316815b8181106158855750958360019596971061586c575b505050811b019055565b015460001960f88460031b161c19169055388080615862565b9192600180602092868b01548155019401920161584d565b509050565b90615919578181036158b2575050565b8154815560018083015490820180546001600160a01b0319166001600160a01b03929092169190911790556152e39160049060ff9082906158f960028083019087016157c0565b6003810154600386015501541691019060ff801983541691151516179055565b634e487b7160e01b600052600060045260246000fd5b805480156159bd57600019019061594682826156b3565b615919576004600091828155826001820155600281016159668154615257565b908161597a575b5050826003820155015555565b81601f8693116001146159915750555b388061596d565b818352602083206159ad91601f0160051c810190600101615291565b808252816020812091555561598a565b634e487b7160e01b600052603160045260246000fd5b60609060208152600c60208201526b546f6b656e466163746f727960a01b60408201520190565b60405190615a0960408361503a565b6011825270434f4e5349474c494f5f5341504f52495360781b6020830152565b6011815270434f4e5349474c494f5f5341504f52495360781b602082015260400190565b9081526020810191909152600360408201526001600160a01b0391821660608201529116608082015260c060a0820181905261511f9101615a29565b60409061511f92815281602082015201615a29565b81601f82011215611092578051615ab48161505b565b92615ac2604051948561503a565b818452602082840101116110925761511f91602080850191016150ad565b5190811515820361109257565b519060ff8216820361109257565b80518210156155595760209160051b010190565b8060005261016760205260ff60066040600020015416156160eb5760005261017660205260406000205460206040518093632ee325db60e21b82528180615b58600482016159d3565b03916001600160a01b03165afa9182156160a1576000926160ad575b50604051631d05f3d560e11b8152600481019190915290600090829060249082906001600160a01b03165afa9081156160a157600091615c4a575b5060005b8151811015615c4357615bc68183615afb565b5151602081519101207fbb7d9f8cddc6f064ba72d0e3c1e53eb67867dd8506fa4f5d61c86189caca8ee58114908115615c19575b50615c0757600101615bb3565b615c1390602092615afb565b51015190565b7ff635637ba62fd05a8c192160221386e8a7a4f08458b93e1a9885a356979e42ec91501438615bfa565b5050600090565b903d8082843e615c5a818461503a565b820190608083830312615fe35782516001600160401b03811161605457830161012081840312616054576040519061012082018281106001600160401b0382111761608d57604052805182526020810151602083015260408101516001600160401b0381116160895784615ccf918301615a9e565b604083015260608101516001600160401b0381116160895784615cf3918301615a9e565b60608301526080810151608083015260a08101516001600160401b0381116160895784615d21918301615a9e565b60a083015260c08101516001600160401b0381116160895761010082615d4d87615d6994849601615a9e565b60c0860152615d5e60e08201615243565b60e086015201615ae0565b91015260208301516001600160401b038111616054578301610140818403126160545760405190615d9982614fe7565b615da281615243565b8252615db060208201615243565b602083015260408101516001811015616089576040830152606081015160608301526080810151608083015260a08101516001600160401b03811161608957810184601f82011215616089578051615e078161513d565b91615e15604051938461503a565b81835260208084019260061b82010190878211615fd957602001915b818310616058575050506101208092615e849260a0860152615e5560c08201615aed565b60c0860152615e6660e08201615ae0565b60e0860152615e786101008201615aed565b61010086015201615aed565b91015260408301516001600160401b0381116160545783019282601f85011215616054578351615eb38161513d565b94615ec1604051968761503a565b81865260208087019260051b82010190858211615fdd5760208101925b828410615fe657505050506060810151906001600160401b038211615fe157019082601f83011215615fe357815192602080615f198661513d565b615f26604051918261503a565b868152019460051b84010192818411615fe15760208101945b848610615f525750505050505038615baf565b85516001600160401b038111615fdd5782016040818503601f190112615fdd5760405190615f7f82614f9b565b60208101516001600160401b038111615fd957856020615fa192840101615a9e565b82526040810151906001600160401b038211615fd95791615fca86602080969481960101615a9e565b83820152815201950194615f3f565b8680fd5b8480fd5b825b80fd5b83516001600160401b038111615fd95782016040818903601f190112615fd9576040519061601382614f9b565b60208101516001600160401b038111616050579160408261603d8c60208098969781980101615a9e565b8352015183820152815201930192615ede565b8880fd5b5080fd5b604083890312615fd9576020604091825161607281614f9b565b855181528286015183820152815201920191615e31565b8380fd5b634e487b7160e01b84526041600452602484fd5b6040513d6000823e3d90fd5b9091506020813d6020116160e3575b816160c96020938361503a565b81010312611092576160dc600091615243565b9190615b74565b3d91506160bc565b632b13157760e11b60005260045260246000fd5b603380546001600160a01b039283166001600160a01b0319821681179092559091167f8be0079c531659141344cd1fd0a4f28419497f9722a3daafe3b4186f6b6457e0600080a3565b8160005261016760205260ff6006604060002001541615616293576040516362d4106760e11b81526001600160a01b03848116600483015290929116602083602481845afa9283156160a15760009361625f575b50816161ca575050905060001981146161c45780159081156161bc575090565b600191501490565b50600090565b60405163c978d8a560e01b81526001600160a01b03949094166004850152602484019190915260209150829060449082905afa9081156160a15760009161622d575b5060001981146161c45760038114908115616225575090565b600491501490565b906020823d602011616257575b816162476020938361503a565b81010312615fe35750513861620c565b3d915061623a565b90926020823d60201161628b575b8161627a6020938361503a565b81010312615fe3575051913861619c565b3d915061626d565b505050600090565b8054600160401b811015614fb6576162b8916001820181556156b3565b919091615919578051825560208101516001830180546001600160a01b0319166001600160a01b03929092169190911790556040810151805160028401916001600160401b038211614fb657616312826106f78554615257565b602090601f8311600114616371579261634d836080946152e3989794600497600092610cdc5750508160011b916000199060031b1c19161790565b90555b606081015160038501550151151591019060ff801983541691151516179055565b90601f1983169184600052816000209260005b8181106163ca5750936152e39796936004969360019383608098106163b1575b505050811b019055616350565b015160001960f88460031b161c191690553880806163a4565b92936020600181928786015181550195019301616384565b60409061511f9392815281602082015201906150d0565b6001600160a01b03909116919082156165555790600080516020616893833981519152918360005261016960205261645e60406000206040519061643c82614fcc565b838252866020830152846040830152600360608301526001608083015261629b565b604051602081019061648c602082865161647b8187858b016150ad565b81010301601f19810183528261503a565b51902060405161649b81615003565b828152602080820187815260408084019485526003606085018181523360808701908152600160a080890182815260008f815261016a8a528781208d82529099529786902098518955955190880180546001600160a01b0319166001600160a01b039283161790559751600288015590519186019190915551600494909401805493516001600160a81b03199094169490951693909317911515901b60ff60a01b1617909155519182916165509190836163e2565b0390a2565b82633202e20d60e21b60005260045260246000fd5b6040516362d4106760e11b81526001600160a01b0392831660048201819052939190921691602081602481865afa9081156160a1578490600092616716575b5060405163074ced8760e41b8152600192909214936001600160a01b03909316149190602081600481855afa9081156160a1576000916166e4575b5042101561661a5750159081616611575b506165fd5750565b6377efd02b60e11b60005260045260246000fd5b905015386165f5565b90604051632ee325db60e21b815260206004820152600360248201526244414f60e81b6044820152602081606481865afa9081156160a1576000916166aa575b506001600160a01b0316918215616696575015918261668d575b508161668257506165fd5750565b9050811415386165f5565b15915038616674565b637361709960e01b60005260045260246000fd5b90506020813d6020116166dc575b816166c56020938361503a565b81010312611092576166d690615243565b3861665a565b3d91506166b8565b90506020813d60201161670e575b816166ff6020938361503a565b810103126110925751386165e4565b3d91506166f2565b9150506020813d602011616743575b816167326020938361503a565b8101031261109257518360016165a9565b3d9150616725565b918160005261016760205260ff600660406000200154161561685d576040516362d4106760e11b81526001600160a01b03918216600482018190529390929160209184916024918391165afa9182156160a157600092616829575b50806168005760001982146167e8575080151590816167dc575b506167c85750565b6303d1bc5d60e51b60005260045260246000fd5b600191501415386167c0565b826331f1d99960e21b60005260045260245260446000fd5b60001982146167e857506003811415908161681d57506167c85750565b600491501415386167c0565b90916020823d602011616855575b816168446020938361503a565b81010312615fe357505190386167a6565b3d9150616837565b50632b13157760e11b60005260045260246000fdfef62c903ca15668006710c4411b74e3acb9efabe0d10bece1a2912050499f7efdbc6cd93a5a69dae46517fc4b81c3c705973b0fabb816aae5d0ff7a077c4d5d18a2646970667358221220b7284f6cde6d296a97f4819fb620725573a957b27ef0c685a12ffe52faf5b1a564736f6c634300081c0033",
  "linkReferences": {},
  "deployedLinkReferences": {}
}