{
  "_format": "hh-sol-artifact-1",
  "contractName": "SimpleWalletMinting",
  "sourceName": "contracts/modules/SimpleWalletMinting.sol",
  "abi": [
    {
      "inputs": [],
      "stateMutability": "nonpayable",
      "type": "constructor"
    },
    {
      "inputs": [],
      "name": "CallerNotLaunchpadOwner",
      "type": "error"
    },
    {
      "inputs": [],
      "name": "InvalidAuthorizedWallet",
      "type": "error"
    },
    {
      "inputs": [],
      "name": "InvalidRewardAmount",
      "type": "error"
    },
    {
      "inputs": [],
      "name": "LaunchpadNotConfigured",
      "type": "error"
    },
    {
      "inputs": [],
      "name": "MintAmountZero",
      "type": "error"
    },
    {
      "inputs": [],
      "name": "NoRewardsConfigured",
      "type": "error"
    },
    {
      "inputs": [],
      "name": "NotAuthorized",
      "type": "error"
    },
    {
      "inputs": [],
      "name": "RenounceOwnershipDisabled",
      "type": "error"
    },
    {
      "inputs": [],
      "name": "TransferOwnershipDirectDisabled",
      "type": "error"
    },
    {
      "inputs": [],
      "name": "UnauthorizedCaller",
      "type": "error"
    },
    {
      "inputs": [],
      "name": "UpgradeToAndCallDisabled",
      "type": "error"
    },
    {
      "inputs": [],
      "name": "YearInPast",
      "type": "error"
    },
    {
      "inputs": [],
      "name": "ZeroAddress",
      "type": "error"
    },
    {
      "anonymous": false,
      "inputs": [
        {
          "indexed": false,
          "internalType": "address",
          "name": "previousAdmin",
          "type": "address"
        },
        {
          "indexed": false,
          "internalType": "address",
          "name": "newAdmin",
          "type": "address"
        }
      ],
      "name": "AdminChanged",
      "type": "event"
    },
    {
      "anonymous": false,
      "inputs": [
        {
          "indexed": true,
          "internalType": "address",
          "name": "beacon",
          "type": "address"
        }
      ],
      "name": "BeaconUpgraded",
      "type": "event"
    },
    {
      "anonymous": false,
      "inputs": [
        {
          "indexed": false,
          "internalType": "uint8",
          "name": "version",
          "type": "uint8"
        }
      ],
      "name": "Initialized",
      "type": "event"
    },
    {
      "anonymous": false,
      "inputs": [
        {
          "indexed": true,
          "internalType": "address",
          "name": "previousOwner",
          "type": "address"
        },
        {
          "indexed": true,
          "internalType": "address",
          "name": "newOwner",
          "type": "address"
        }
      ],
      "name": "OwnershipTransferred",
      "type": "event"
    },
    {
      "anonymous": false,
      "inputs": [
        {
          "indexed": false,
          "internalType": "address",
          "name": "account",
          "type": "address"
        }
      ],
      "name": "Paused",
      "type": "event"
    },
    {
      "anonymous": false,
      "inputs": [
        {
          "indexed": true,
          "internalType": "uint256",
          "name": "companyId",
          "type": "uint256"
        },
        {
          "indexed": true,
          "internalType": "uint256",
          "name": "poolIndex",
          "type": "uint256"
        },
        {
          "indexed": true,
          "internalType": "address",
          "name": "user",
          "type": "address"
        },
        {
          "indexed": false,
          "internalType": "uint256",
          "name": "amount",
          "type": "uint256"
        }
      ],
      "name": "RewardsClaimed",
      "type": "event"
    },
    {
      "anonymous": false,
      "inputs": [
        {
          "indexed": false,
          "internalType": "address",
          "name": "account",
          "type": "address"
        }
      ],
      "name": "Unpaused",
      "type": "event"
    },
    {
      "anonymous": false,
      "inputs": [
        {
          "indexed": true,
          "internalType": "address",
          "name": "implementation",
          "type": "address"
        }
      ],
      "name": "Upgraded",
      "type": "event"
    },
    {
      "anonymous": false,
      "inputs": [
        {
          "indexed": true,
          "internalType": "uint256",
          "name": "year",
          "type": "uint256"
        },
        {
          "indexed": false,
          "internalType": "uint256",
          "name": "rewardAmount",
          "type": "uint256"
        }
      ],
      "name": "YearlyRewardSet",
      "type": "event"
    },
    {
      "inputs": [],
      "name": "SECONDS_IN_YEAR",
      "outputs": [
        {
          "internalType": "uint256",
          "name": "",
          "type": "uint256"
        }
      ],
      "stateMutability": "view",
      "type": "function"
    },
    {
      "inputs": [],
      "name": "authorizedWallet",
      "outputs": [
        {
          "internalType": "address",
          "name": "",
          "type": "address"
        }
      ],
      "stateMutability": "view",
      "type": "function"
    },
    {
      "inputs": [],
      "name": "daoTransitionTimestamp",
      "outputs": [
        {
          "internalType": "uint256",
          "name": "",
          "type": "uint256"
        }
      ],
      "stateMutability": "view",
      "type": "function"
    },
    {
      "inputs": [],
      "name": "getAdminRole",
      "outputs": [
        {
          "internalType": "bytes32",
          "name": "",
          "type": "bytes32"
        }
      ],
      "stateMutability": "view",
      "type": "function"
    },
    {
      "inputs": [],
      "name": "getCurrentYear",
      "outputs": [
        {
          "internalType": "uint256",
          "name": "",
          "type": "uint256"
        }
      ],
      "stateMutability": "view",
      "type": "function"
    },
    {
      "inputs": [],
      "name": "getLaunchpadAddress",
      "outputs": [
        {
          "internalType": "address",
          "name": "",
          "type": "address"
        }
      ],
      "stateMutability": "view",
      "type": "function"
    },
    {
      "inputs": [],
      "name": "getMyAddress",
      "outputs": [
        {
          "internalType": "address",
          "name": "",
          "type": "address"
        }
      ],
      "stateMutability": "view",
      "type": "function"
    },
    {
      "inputs": [],
      "name": "getOwner",
      "outputs": [
        {
          "internalType": "address",
          "name": "",
          "type": "address"
        }
      ],
      "stateMutability": "view",
      "type": "function"
    },
    {
      "inputs": [
        {
          "internalType": "uint256",
          "name": "year",
          "type": "uint256"
        }
      ],
      "name": "getPendingRewards",
      "outputs": [
        {
          "internalType": "uint256",
          "name": "",
          "type": "uint256"
        }
      ],
      "stateMutability": "view",
      "type": "function"
    },
    {
      "inputs": [
        {
          "internalType": "uint256",
          "name": "year",
          "type": "uint256"
        }
      ],
      "name": "getTotalMintedByYear",
      "outputs": [
        {
          "internalType": "uint256",
          "name": "",
          "type": "uint256"
        }
      ],
      "stateMutability": "view",
      "type": "function"
    },
    {
      "inputs": [
        {
          "internalType": "uint256",
          "name": "year",
          "type": "uint256"
        }
      ],
      "name": "getYearStartTimestamp",
      "outputs": [
        {
          "internalType": "uint256",
          "name": "",
          "type": "uint256"
        }
      ],
      "stateMutability": "pure",
      "type": "function"
    },
    {
      "inputs": [
        {
          "internalType": "address",
          "name": "_rewardsToken",
          "type": "address"
        },
        {
          "internalType": "address",
          "name": "_authorizedWallet",
          "type": "address"
        },
        {
          "internalType": "uint256",
          "name": "_firstYearReward",
          "type": "uint256"
        },
        {
          "internalType": "uint256",
          "name": "_secondYearReward",
          "type": "uint256"
        },
        {
          "internalType": "address",
          "name": "_launchpadAddress",
          "type": "address"
        }
      ],
      "name": "initialize",
      "outputs": [],
      "stateMutability": "nonpayable",
      "type": "function"
    },
    {
      "inputs": [],
      "name": "lastConfiguredYear",
      "outputs": [
        {
          "internalType": "uint256",
          "name": "",
          "type": "uint256"
        }
      ],
      "stateMutability": "view",
      "type": "function"
    },
    {
      "inputs": [
        {
          "internalType": "uint256",
          "name": "",
          "type": "uint256"
        }
      ],
      "name": "lastMintTimestamp",
      "outputs": [
        {
          "internalType": "uint256",
          "name": "",
          "type": "uint256"
        }
      ],
      "stateMutability": "view",
      "type": "function"
    },
    {
      "inputs": [],
      "name": "mintRewards",
      "outputs": [
        {
          "internalType": "uint256",
          "name": "",
          "type": "uint256"
        }
      ],
      "stateMutability": "nonpayable",
      "type": "function"
    },
    {
      "inputs": [],
      "name": "owner",
      "outputs": [
        {
          "internalType": "address",
          "name": "",
          "type": "address"
        }
      ],
      "stateMutability": "view",
      "type": "function"
    },
    {
      "inputs": [],
      "name": "pause",
      "outputs": [],
      "stateMutability": "nonpayable",
      "type": "function"
    },
    {
      "inputs": [],
      "name": "paused",
      "outputs": [
        {
          "internalType": "bool",
          "name": "",
          "type": "bool"
        }
      ],
      "stateMutability": "view",
      "type": "function"
    },
    {
      "inputs": [],
      "name": "proxiableUUID",
      "outputs": [
        {
          "internalType": "bytes32",
          "name": "",
          "type": "bytes32"
        }
      ],
      "stateMutability": "view",
      "type": "function"
    },
    {
      "inputs": [],
      "name": "renounceOwnership",
      "outputs": [],
      "stateMutability": "nonpayable",
      "type": "function"
    },
    {
      "inputs": [],
      "name": "rewardsToken",
      "outputs": [
        {
          "internalType": "contract IVanellixUtilityToken",
          "name": "",
          "type": "address"
        }
      ],
      "stateMutability": "view",
      "type": "function"
    },
    {
      "inputs": [
        {
          "internalType": "uint256",
          "name": "year",
          "type": "uint256"
        },
        {
          "internalType": "uint256",
          "name": "rewardAmount",
          "type": "uint256"
        }
      ],
      "name": "setYearlyReward",
      "outputs": [],
      "stateMutability": "nonpayable",
      "type": "function"
    },
    {
      "inputs": [
        {
          "internalType": "bytes4",
          "name": "interfaceId",
          "type": "bytes4"
        }
      ],
      "name": "supportsInterface",
      "outputs": [
        {
          "internalType": "bool",
          "name": "",
          "type": "bool"
        }
      ],
      "stateMutability": "view",
      "type": "function"
    },
    {
      "inputs": [
        {
          "internalType": "address",
          "name": "",
          "type": "address"
        }
      ],
      "name": "transferOwnership",
      "outputs": [],
      "stateMutability": "nonpayable",
      "type": "function"
    },
    {
      "inputs": [],
      "name": "unpause",
      "outputs": [],
      "stateMutability": "nonpayable",
      "type": "function"
    },
    {
      "inputs": [],
      "name": "updateOwnerFromLaunchpad",
      "outputs": [],
      "stateMutability": "nonpayable",
      "type": "function"
    },
    {
      "inputs": [
        {
          "internalType": "address",
          "name": "newImplementation",
          "type": "address"
        }
      ],
      "name": "upgradeTo",
      "outputs": [],
      "stateMutability": "nonpayable",
      "type": "function"
    },
    {
      "inputs": [
        {
          "internalType": "address",
          "name": "",
          "type": "address"
        },
        {
          "internalType": "bytes",
          "name": "",
          "type": "bytes"
        }
      ],
      "name": "upgradeToAndCall",
      "outputs": [],
      "stateMutability": "payable",
      "type": "function"
    },
    {
      "inputs": [
        {
          "internalType": "uint256",
          "name": "",
          "type": "uint256"
        }
      ],
      "name": "yearlyMintedRewards",
      "outputs": [
        {
          "internalType": "uint256",
          "name": "",
          "type": "uint256"
        }
      ],
      "stateMutability": "view",
      "type": "function"
    },
    {
      "inputs": [
        {
          "internalType": "uint256",
          "name": "",
          "type": "uint256"
        }
      ],
      "name": "yearlyRewards",
      "outputs": [
        {
          "internalType": "uint256",
          "name": "",
          "type": "uint256"
        }
      ],
      "stateMutability": "view",
      "type": "function"
    }
  ],
  "bytecode": "0x60a080604052346040573060805261016280546001600160a01b03199081169091556101638054909116905561139b90816100468239608051816108cf0152f35b600080fdfe608080604052600436101561001357600080fd5b600090813560e01c90816301ffc9a71461108d5750806311f1011614611063578063234cb05114610d175780633659cfe614610bf2578063366f8d6514610b0e5780633f4ba83a14610a6857806344b72c6c14610a3d5780634f1ef2861461099257806352d1902d146108bc57806357fb25cc146106325780635c975abb1461060f5780635dcc9391146105f05780636198dfae146105d1578063715018a6146105a657806374ced870146105875780638456cb5914610504578063850bcab9146103e3578063893d20e8146103ba5780638da5cb5b146103ba5780639a1662991461039f578063b2bc486614610374578063b2f0c3a21461034a578063b3ecf2361461030f578063b6a9764c146102f0578063c0b27abf1461024e578063ce41607a146102d5578063d1af0c7d146102ab578063f2fde38b14610279578063f843433c1461024e5763f9f87c181461016b57600080fd5b3461024b57602036600319011261024b576004359081815261016460205260408120549182158061020d575b926020936101f7575b6101dc9082845261016685526101c96101bd60408620544261116d565b6301e13380830461117a565b928452610165855260408420549061116d565b9150818111156101f057505b604051908152f35b90506101e8565b50610167548252610164835260408220546101a0565b508082526101666020526301e13380604083205404926107b2840180941161023757928111610197565b634e487b7160e01b83526011600452602483fd5b80fd5b503461024b57602036600319011261024b576040602091600435815261016583522054604051908152f35b503461024b57602036600319011261024b576004906102966110c9565b5061029f611222565b635a42e44960e01b8152fd5b503461024b578060031936011261024b57610162546040516001600160a01b039091168152602090f35b503461024b578060031936011261024b5760206101e86111b6565b503461024b578060031936011261024b57602061016754604051908152f35b503461024b578060031936011261024b5760206040517fa36640f9c3d74ee87c99b3aee39f32849dda077410057abc393a2cb9e13139a78152f35b503461024b578060031936011261024b57610163546040516001600160a01b039091168152602090f35b503461024b57602036600319011261024b576040602091600435815261016683522054604051908152f35b503461024b578060031936011261024b576020604051308152f35b503461024b578060031936011261024b576033546040516001600160a01b039091168152602090f35b503461024b578060031936011261024b576103fc6112d8565b610404611222565b610160546001600160a01b031680156104f55760405163c696804f60e01b8152602081600481855afa9081156104ea5783916104cb575b506001600160a01b031633036104bc5760206004916040519283809263c696804f60e01b82525afa80156104b15761047a918391610482575b5061131c565b600160fb5580f35b6104a4915060203d6020116104aa575b61049c81836110e4565b81019061111c565b38610474565b503d610492565b6040513d84823e3d90fd5b632508892760e11b8252600482fd5b6104e4915060203d6020116104aa5761049c81836110e4565b3861043b565b6040513d85823e3d90fd5b6336939d7d60e21b8252600482fd5b503461024b578060031936011261024b5761051d6112d8565b610160546001600160a01b031680156104f55733036105785761053e6112d8565b600160ff1960c954161760c9557f62e78cea01bee320cd4e420270b5ea74000d11b0c9f74754ebdbfc544b05a2586020604051338152a180f35b635c427cd960e01b8152600490fd5b503461024b578060031936011261024b57602061015f54604051908152f35b503461024b578060031936011261024b576004906105c2611222565b6001623f026d60e01b03198152fd5b503461024b57602036600319011261024b5760206101e860043561118d565b503461024b578060031936011261024b5760206040516301e133808152f35b503461024b578060031936011261024b57602060ff60c954166040519015158152f35b503461024b5760a036600319011261024b5761064c6110c9565b6024356001600160a01b038116908190036108b85760643590604435906084356001600160a01b038116908190036108b45785549460ff8660081c1615958680976108a7575b8015610890575b156108345760ff198116600117885586610823575b506001600160a01b03169081156107f65782156108145783156108055784156108055780156107f6576106f960ff885460081c166106eb81611278565b6106f481611278565b611278565b6107023361131c565b61073260ff885460081c1661071681611278565b61071f81611278565b60ff1960c9541660c9556106f481611278565b600160fb556001600160601b0360a01b610160541617610160556001600160601b0360a01b610162541617610162556001600160601b0360a01b6101635416176101635561077e6111b6565b9060018201918281116107e257829161079f916107a49594610167556111cc565b6111cc565b6107ab5780f35b61ff001981541681557f7f26b83ff96e1f2b6a682f133852f6798a09c465da95921460cefb3847402498602060405160018152a180f35b634e487b7160e01b86526011600452602486fd5b63d92e233d60e01b8752600487fd5b633853986560e01b8752600487fd5b632f9ec5d360e21b8752600487fd5b61ffff1916610101178755386106ae565b60405162461bcd60e51b815260206004820152602e60248201527f496e697469616c697a61626c653a20636f6e747261637420697320616c72656160448201526d191e481a5b9a5d1a585b1a5e995960921b6064820152608490fd5b50303b1580156106995750600160ff821614610699565b50600160ff821610610692565b8580fd5b8280fd5b503461024b578060031936011261024b577f00000000000000000000000000000000000000000000000000000000000000006001600160a01b031630036109275760206040517f360894a13ba1a3210667c828492db98dca3e2076cc3735a920a3ca505d382bbc8152f35b60405162461bcd60e51b815260206004820152603860248201527f555550535570677261646561626c653a206d757374206e6f742062652063616c60448201527f6c6564207468726f7567682064656c656761746563616c6c00000000000000006064820152608490fd5b50604036600319011261024b576109a76110c9565b506024359067ffffffffffffffff821161024b573660238301121561024b5781600401359167ffffffffffffffff8311610a2957604051906109f3601f8501601f1916602001836110e4565b83825236602485830101116108b85783839260049560246020940184830137010152610a1d611222565b630c5e6cd360e21b8152fd5b634e487b7160e01b82526041600452602482fd5b503461024b57602036600319011261024b576040602091600435815261016483522054604051908152f35b503461024b578060031936011261024b57610160546001600160a01b031680156104f55733036105785760c95460ff811615610ad25760ff191660c9557f5db9ee0a495bf2e6ff9c91a7834c1ba4fdd244a5e8aa4e537bd38aeae4b073aa6020604051338152a180f35b60405162461bcd60e51b815260206004820152601460248201527314185d5cd8589b194e881b9bdd081c185d5cd95960621b6044820152606490fd5b503461024b57604036600319011261024b5761016054604051632ee325db60e21b81526020600480830182905260076024840152665374616b696e6760c81b60448401523592829060649082906001600160a01b03165afa9081156104ea578391610bd3575b50336001600160a01b0390911603610bc457610b8e6111b6565b8110610bb557610ba0602435826111cc565b610167548111610bae575080f35b6101675580f35b6394503c3160e01b8252600482fd5b63ea8e4eb560e01b8252600482fd5b610bec915060203d6020116104aa5761049c81836110e4565b38610b74565b503461024b57602036600319011261024b57610c0c6110c9565b610c14611222565b610160546001600160a01b03168015610d08573303610cf957803b15610c9e577f360894a13ba1a3210667c828492db98dca3e2076cc3735a920a3ca505d382bbc80546001600160a01b0319166001600160a01b039290921691821790557fbc7cd75a20ee27fd9adebab32041f755214dbc6bffa90cc0225b39da2e5c2d3b8280a2600160fb5580f35b60405162461bcd60e51b815260206004820152602d60248201527f455243313936373a206e657720696d706c656d656e746174696f6e206973206e60448201526c1bdd08184818dbdb9d1c9858dd609a1b6064820152608490fd5b635c427cd960e01b8252600482fd5b6336939d7d60e21b8352600483fd5b503461024b578060031936011261024b5761016054604051632ee325db60e21b815260206004820181905260076024830152665374616b696e6760c81b60448301529091829060649082906001600160a01b03165afa9081156104b1578291611044575b50336001600160a01b039091160361103557610d956111b6565b90806101675460018101809111610fbb575b83811115610fcf57508281526101666020526301e133806040822054046107b28101809111610fbb575b8381111580610fae575b15610ed9578082526101646020526040822054801580610e9d575b610e8e57818352610166602052610e38610e23610e1760408620544261116d565b6301e13380840461117a565b9183855261016560205260408520549061116d565b9081811115610e8757505b80610e58575b50610e539061115e565b610dd1565b610e80908294610e5393855261016560205260408520610e7983825461113b565b905561113b565b9290610e49565b9050610e43565b63f857388960e01b8352600483fd5b508483526101666020526301e133806040842054046107b28101809111610ec5578211610df6565b634e487b7160e01b84526011600452602484fd5b50918115610f9f57825261016660205260408220429055610162546101635483916001600160a01b039182169116803b156108b8576044839260405196879384926340c10f1960e01b845260048401528760248401525af1928315610f925781602094610f82575b505060018060a01b03610163541690807f7f8bc18fa4217890c8e6cb02b6e2d9ba0f67484334ebc4426c6f32b8ab01028085604051868152a4604051908152f35b610f8b916110e4565b3881610f41565b50604051903d90823e3d90fd5b631cebf66f60e11b8352600483fd5b5061016754811115610ddb565b634e487b7160e01b82526011600452602482fd5b8061103091835261016460205260016040842055610fec8161118d565b8184526101666020526040842055807f7e6ed8c497612f17da5b1176478c0aeb963a5fefd81534fd7bd048feed1e4a7d602060405160018152a2806101675561115e565b610da7565b63ea8e4eb560e01b8152600490fd5b61105d915060203d6020116104aa5761049c81836110e4565b38610d7b565b503461024b578060031936011261024b57610160546040516001600160a01b039091168152602090f35b9050346110c55760203660031901126110c55760043563ffffffff60e01b81168091036108b8576301ffc9a760e01b14815260209150f35b5080fd5b600435906001600160a01b03821682036110df57565b600080fd5b90601f8019910116810190811067ffffffffffffffff82111761110657604052565b634e487b7160e01b600052604160045260246000fd5b908160209103126110df57516001600160a01b03811681036110df5790565b9190820180921161114857565b634e487b7160e01b600052601160045260246000fd5b60001981146111485760010190565b9190820391821161114857565b8181029291811591840414171561114857565b6107b1198101908111611148576301e133808102908082046301e1338014901517156111485790565b6301e1338042046107b281018091116111485790565b9060207f7e6ed8c497612f17da5b1176478c0aeb963a5fefd81534fd7bd048feed1e4a7d918360005261016482528060406000205561120a8461118d565b846000526101668352604060002055604051908152a2565b600260fb541461123357600260fb55565b60405162461bcd60e51b815260206004820152601f60248201527f5265656e7472616e637947756172643a207265656e7472616e742063616c6c006044820152606490fd5b1561127f57565b60405162461bcd60e51b815260206004820152602b60248201527f496e697469616c697a61626c653a20636f6e7472616374206973206e6f74206960448201526a6e697469616c697a696e6760a81b6064820152608490fd5b60ff60c954166112e457565b60405162461bcd60e51b815260206004820152601060248201526f14185d5cd8589b194e881c185d5cd95960821b6044820152606490fd5b603380546001600160a01b039283166001600160a01b0319821681179092559091167f8be0079c531659141344cd1fd0a4f28419497f9722a3daafe3b4186f6b6457e0600080a356fea2646970667358221220268b3fa537b568ee6a22649e24d2142e5e5cbf405ffc65b2c97f56d688bedef064736f6c634300081c0033",
  "linkReferences": {},
  "deployedLinkReferences": {}
}