{
  "_format": "hh-sol-artifact-1",
  "contractName": "GlobalMeritocracy",
  "sourceName": "contracts/GlobalMeritocracy.sol",
  "abi": [
    {
      "inputs": [],
      "stateMutability": "nonpayable",
      "type": "constructor"
    },
    {
      "inputs": [],
      "name": "AlreadyInitialized",
      "type": "error"
    },
    {
      "inputs": [],
      "name": "AlreadySupported",
      "type": "error"
    },
    {
      "inputs": [],
      "name": "AlreadyVoted",
      "type": "error"
    },
    {
      "inputs": [],
      "name": "AmountExceedsMaxMint",
      "type": "error"
    },
    {
      "inputs": [],
      "name": "BatchTooLarge",
      "type": "error"
    },
    {
      "inputs": [],
      "name": "ConsensusNotReached",
      "type": "error"
    },
    {
      "inputs": [],
      "name": "DAOBannedGlobally",
      "type": "error"
    },
    {
      "inputs": [],
      "name": "DAOBannedInSegment",
      "type": "error"
    },
    {
      "inputs": [],
      "name": "DailyAdditionLimitReached",
      "type": "error"
    },
    {
      "inputs": [],
      "name": "DailyVetoLimitReached",
      "type": "error"
    },
    {
      "inputs": [],
      "name": "DescriptionRequired",
      "type": "error"
    },
    {
      "inputs": [],
      "name": "ExecutionFailed",
      "type": "error"
    },
    {
      "inputs": [],
      "name": "InsufficientPoolBalance",
      "type": "error"
    },
    {
      "inputs": [],
      "name": "InsufficientTokens",
      "type": "error"
    },
    {
      "inputs": [],
      "name": "InvalidBatch",
      "type": "error"
    },
    {
      "inputs": [],
      "name": "InvalidBrainstorm",
      "type": "error"
    },
    {
      "inputs": [],
      "name": "InvalidDAOAddress",
      "type": "error"
    },
    {
      "inputs": [],
      "name": "InvalidProposal",
      "type": "error"
    },
    {
      "inputs": [],
      "name": "InvalidTargetWallet",
      "type": "error"
    },
    {
      "inputs": [],
      "name": "InvalidTokenAddress",
      "type": "error"
    },
    {
      "inputs": [],
      "name": "InvalidUserAddress",
      "type": "error"
    },
    {
      "inputs": [],
      "name": "MaximumHoldersReachedEpic",
      "type": "error"
    },
    {
      "inputs": [],
      "name": "MinimumVotersNotReached",
      "type": "error"
    },
    {
      "inputs": [],
      "name": "NoGeneralTokens",
      "type": "error"
    },
    {
      "inputs": [],
      "name": "NoTokensInSegment",
      "type": "error"
    },
    {
      "inputs": [],
      "name": "NotAuthorized",
      "type": "error"
    },
    {
      "inputs": [],
      "name": "OnlyRegisteredDAOs",
      "type": "error"
    },
    {
      "inputs": [],
      "name": "PercentageOutOfRange",
      "type": "error"
    },
    {
      "inputs": [],
      "name": "ProposalNotExecuted",
      "type": "error"
    },
    {
      "inputs": [],
      "name": "QuorumNotReached",
      "type": "error"
    },
    {
      "inputs": [],
      "name": "SegmentPaused",
      "type": "error"
    },
    {
      "inputs": [],
      "name": "TargetNotGlobalUser",
      "type": "error"
    },
    {
      "inputs": [],
      "name": "TokenDoesNotExist",
      "type": "error"
    },
    {
      "inputs": [],
      "name": "TooManyVotesInBlock",
      "type": "error"
    },
    {
      "inputs": [],
      "name": "TransferFailed",
      "type": "error"
    },
    {
      "inputs": [],
      "name": "UserBannedGlobally",
      "type": "error"
    },
    {
      "inputs": [],
      "name": "UserBannedInSegment",
      "type": "error"
    },
    {
      "inputs": [],
      "name": "UserHasActiveSkillProposal",
      "type": "error"
    },
    {
      "inputs": [],
      "name": "VotingPeriodEnded",
      "type": "error"
    },
    {
      "inputs": [],
      "name": "VotingPeriodTooShort",
      "type": "error"
    },
    {
      "anonymous": false,
      "inputs": [
        {
          "indexed": true,
          "internalType": "uint256",
          "name": "tokenId",
          "type": "uint256"
        },
        {
          "indexed": false,
          "internalType": "address",
          "name": "daoTarget",
          "type": "address"
        },
        {
          "indexed": false,
          "internalType": "bool",
          "name": "allow",
          "type": "bool"
        }
      ],
      "name": "AllowedDAOUpdated",
      "type": "event"
    },
    {
      "anonymous": false,
      "inputs": [
        {
          "indexed": true,
          "internalType": "uint256",
          "name": "id",
          "type": "uint256"
        },
        {
          "indexed": true,
          "internalType": "address",
          "name": "proposer",
          "type": "address"
        },
        {
          "indexed": false,
          "internalType": "bytes",
          "name": "ideaDescription",
          "type": "bytes"
        },
        {
          "indexed": false,
          "internalType": "string",
          "name": "ideaDescriptionLink",
          "type": "string"
        },
        {
          "indexed": false,
          "internalType": "uint256",
          "name": "timestamp",
          "type": "uint256"
        },
        {
          "indexed": false,
          "internalType": "address",
          "name": "tokenToRaise",
          "type": "address"
        },
        {
          "indexed": false,
          "internalType": "uint256",
          "name": "totalAmountToRaise",
          "type": "uint256"
        },
        {
          "indexed": false,
          "internalType": "address",
          "name": "targetWallet",
          "type": "address"
        }
      ],
      "name": "BrainstormProposed",
      "type": "event"
    },
    {
      "anonymous": false,
      "inputs": [
        {
          "indexed": true,
          "internalType": "uint256",
          "name": "id",
          "type": "uint256"
        },
        {
          "indexed": false,
          "internalType": "address",
          "name": "supporter",
          "type": "address"
        },
        {
          "indexed": false,
          "internalType": "uint256",
          "name": "supportAmount",
          "type": "uint256"
        }
      ],
      "name": "BrainstormSupported",
      "type": "event"
    },
    {
      "anonymous": false,
      "inputs": [
        {
          "indexed": true,
          "internalType": "address",
          "name": "dao",
          "type": "address"
        }
      ],
      "name": "DAORegistered",
      "type": "event"
    },
    {
      "anonymous": false,
      "inputs": [
        {
          "indexed": true,
          "internalType": "uint256",
          "name": "tokenId",
          "type": "uint256"
        },
        {
          "indexed": true,
          "internalType": "uint256",
          "name": "id",
          "type": "uint256"
        },
        {
          "indexed": false,
          "internalType": "address",
          "name": "dao",
          "type": "address"
        }
      ],
      "name": "DaoBanProposalExecuted",
      "type": "event"
    },
    {
      "anonymous": false,
      "inputs": [
        {
          "indexed": true,
          "internalType": "uint256",
          "name": "tokenId",
          "type": "uint256"
        },
        {
          "indexed": true,
          "internalType": "address",
          "name": "token",
          "type": "address"
        },
        {
          "indexed": false,
          "internalType": "uint256",
          "name": "newBalance",
          "type": "uint256"
        }
      ],
      "name": "DaoPoolBalanceUpdated",
      "type": "event"
    },
    {
      "anonymous": false,
      "inputs": [
        {
          "indexed": true,
          "internalType": "uint256",
          "name": "tokenId",
          "type": "uint256"
        },
        {
          "indexed": true,
          "internalType": "address",
          "name": "token",
          "type": "address"
        },
        {
          "indexed": true,
          "internalType": "address",
          "name": "recipient",
          "type": "address"
        },
        {
          "indexed": false,
          "internalType": "uint256",
          "name": "amount",
          "type": "uint256"
        }
      ],
      "name": "DaoPoolTokensUsed",
      "type": "event"
    },
    {
      "anonymous": false,
      "inputs": [
        {
          "indexed": true,
          "internalType": "uint256",
          "name": "tokenId",
          "type": "uint256"
        },
        {
          "indexed": true,
          "internalType": "address",
          "name": "user",
          "type": "address"
        },
        {
          "indexed": false,
          "internalType": "bool",
          "name": "enabled",
          "type": "bool"
        }
      ],
      "name": "FastBannerSet",
      "type": "event"
    },
    {
      "anonymous": false,
      "inputs": [
        {
          "indexed": true,
          "internalType": "address",
          "name": "user",
          "type": "address"
        },
        {
          "indexed": false,
          "internalType": "bool",
          "name": "enabled",
          "type": "bool"
        }
      ],
      "name": "GlobalGeneralUserSet",
      "type": "event"
    },
    {
      "anonymous": false,
      "inputs": [
        {
          "indexed": true,
          "internalType": "address",
          "name": "user",
          "type": "address"
        },
        {
          "indexed": false,
          "internalType": "bool",
          "name": "enabled",
          "type": "bool"
        }
      ],
      "name": "GlobalPauseUserSet",
      "type": "event"
    },
    {
      "anonymous": false,
      "inputs": [
        {
          "indexed": true,
          "internalType": "address",
          "name": "user",
          "type": "address"
        },
        {
          "indexed": true,
          "internalType": "uint256",
          "name": "tokenId",
          "type": "uint256"
        }
      ],
      "name": "HolderAdded",
      "type": "event"
    },
    {
      "anonymous": false,
      "inputs": [
        {
          "indexed": true,
          "internalType": "address",
          "name": "user",
          "type": "address"
        },
        {
          "indexed": true,
          "internalType": "uint256",
          "name": "tokenId",
          "type": "uint256"
        }
      ],
      "name": "HolderRemoved",
      "type": "event"
    },
    {
      "anonymous": false,
      "inputs": [
        {
          "indexed": true,
          "internalType": "address",
          "name": "user",
          "type": "address"
        },
        {
          "indexed": true,
          "internalType": "uint256",
          "name": "tokenId",
          "type": "uint256"
        },
        {
          "indexed": false,
          "internalType": "uint256",
          "name": "amount",
          "type": "uint256"
        }
      ],
      "name": "MeritEarned",
      "type": "event"
    },
    {
      "anonymous": false,
      "inputs": [
        {
          "indexed": true,
          "internalType": "address",
          "name": "sender",
          "type": "address"
        },
        {
          "indexed": false,
          "internalType": "uint256",
          "name": "totalMinted",
          "type": "uint256"
        }
      ],
      "name": "MintBatchProcessed",
      "type": "event"
    },
    {
      "anonymous": false,
      "inputs": [
        {
          "indexed": true,
          "internalType": "uint256",
          "name": "id",
          "type": "uint256"
        },
        {
          "indexed": true,
          "internalType": "address",
          "name": "targetWallet",
          "type": "address"
        },
        {
          "indexed": false,
          "internalType": "string",
          "name": "description",
          "type": "string"
        }
      ],
      "name": "PotentialRiskWarning",
      "type": "event"
    },
    {
      "anonymous": false,
      "inputs": [
        {
          "indexed": true,
          "internalType": "uint256",
          "name": "id",
          "type": "uint256"
        },
        {
          "indexed": false,
          "internalType": "address",
          "name": "proposer",
          "type": "address"
        },
        {
          "indexed": false,
          "internalType": "uint256",
          "name": "tokenId",
          "type": "uint256"
        },
        {
          "indexed": false,
          "internalType": "address",
          "name": "target",
          "type": "address"
        },
        {
          "indexed": false,
          "internalType": "bytes",
          "name": "_calldata",
          "type": "bytes"
        },
        {
          "indexed": false,
          "internalType": "bytes",
          "name": "description",
          "type": "bytes"
        },
        {
          "indexed": false,
          "internalType": "string",
          "name": "descriptionLink",
          "type": "string"
        },
        {
          "indexed": false,
          "internalType": "bool",
          "name": "voteByTokens",
          "type": "bool"
        }
      ],
      "name": "ProposalCreated",
      "type": "event"
    },
    {
      "anonymous": false,
      "inputs": [
        {
          "indexed": true,
          "internalType": "uint256",
          "name": "id",
          "type": "uint256"
        },
        {
          "indexed": false,
          "internalType": "address",
          "name": "target",
          "type": "address"
        },
        {
          "indexed": false,
          "internalType": "bytes",
          "name": "_calldata",
          "type": "bytes"
        }
      ],
      "name": "ProposalExecuted",
      "type": "event"
    },
    {
      "anonymous": false,
      "inputs": [
        {
          "indexed": true,
          "internalType": "uint256",
          "name": "id",
          "type": "uint256"
        },
        {
          "indexed": false,
          "internalType": "address",
          "name": "voter",
          "type": "address"
        },
        {
          "indexed": false,
          "internalType": "bool",
          "name": "support",
          "type": "bool"
        },
        {
          "indexed": false,
          "internalType": "uint256",
          "name": "voterBalance",
          "type": "uint256"
        }
      ],
      "name": "ProposalVoted",
      "type": "event"
    },
    {
      "anonymous": false,
      "inputs": [
        {
          "indexed": true,
          "internalType": "uint256",
          "name": "tokenId",
          "type": "uint256"
        },
        {
          "indexed": false,
          "internalType": "uint256",
          "name": "newProposalMeritReward",
          "type": "uint256"
        },
        {
          "indexed": false,
          "internalType": "uint256",
          "name": "newBrainstormMeritReward",
          "type": "uint256"
        }
      ],
      "name": "SegmentMeritRewardsUpdated",
      "type": "event"
    },
    {
      "anonymous": false,
      "inputs": [
        {
          "indexed": true,
          "internalType": "uint256",
          "name": "tokenId",
          "type": "uint256"
        },
        {
          "indexed": false,
          "internalType": "uint256",
          "name": "newMaxMintAmount",
          "type": "uint256"
        }
      ],
      "name": "SegmentMintAmountSet",
      "type": "event"
    },
    {
      "anonymous": false,
      "inputs": [
        {
          "indexed": true,
          "internalType": "uint256",
          "name": "tokenId",
          "type": "uint256"
        },
        {
          "indexed": false,
          "internalType": "bool",
          "name": "paused",
          "type": "bool"
        }
      ],
      "name": "SegmentPaused",
      "type": "event"
    },
    {
      "anonymous": false,
      "inputs": [
        {
          "indexed": true,
          "internalType": "uint256",
          "name": "tokenId",
          "type": "uint256"
        },
        {
          "indexed": false,
          "internalType": "uint256",
          "name": "minVotersPercentage",
          "type": "uint256"
        },
        {
          "indexed": false,
          "internalType": "uint256",
          "name": "minQuorumVoters",
          "type": "uint256"
        }
      ],
      "name": "SegmentQuorumUpdated",
      "type": "event"
    },
    {
      "anonymous": false,
      "inputs": [
        {
          "indexed": true,
          "internalType": "uint256",
          "name": "tokenId",
          "type": "uint256"
        },
        {
          "indexed": false,
          "internalType": "uint256",
          "name": "newPercentage",
          "type": "uint256"
        }
      ],
      "name": "SegmentSkillValidationPercentageUpdated",
      "type": "event"
    },
    {
      "anonymous": false,
      "inputs": [
        {
          "indexed": true,
          "internalType": "uint256",
          "name": "tokenId",
          "type": "uint256"
        },
        {
          "indexed": true,
          "internalType": "address",
          "name": "user",
          "type": "address"
        },
        {
          "indexed": false,
          "internalType": "bool",
          "name": "enabled",
          "type": "bool"
        }
      ],
      "name": "SegmentUserSet",
      "type": "event"
    },
    {
      "anonymous": false,
      "inputs": [
        {
          "indexed": true,
          "internalType": "uint256",
          "name": "id",
          "type": "uint256"
        },
        {
          "indexed": true,
          "internalType": "address",
          "name": "proposer",
          "type": "address"
        },
        {
          "indexed": false,
          "internalType": "uint256",
          "name": "tokenId",
          "type": "uint256"
        },
        {
          "indexed": false,
          "internalType": "bytes",
          "name": "explanation",
          "type": "bytes"
        },
        {
          "indexed": false,
          "internalType": "string",
          "name": "explanationLink",
          "type": "string"
        }
      ],
      "name": "SkillProposed",
      "type": "event"
    },
    {
      "anonymous": false,
      "inputs": [
        {
          "indexed": true,
          "internalType": "uint256",
          "name": "id",
          "type": "uint256"
        },
        {
          "indexed": true,
          "internalType": "address",
          "name": "proposer",
          "type": "address"
        },
        {
          "indexed": false,
          "internalType": "uint256",
          "name": "tokenId",
          "type": "uint256"
        },
        {
          "indexed": false,
          "internalType": "uint256",
          "name": "amount",
          "type": "uint256"
        }
      ],
      "name": "SkillValidated",
      "type": "event"
    },
    {
      "anonymous": false,
      "inputs": [
        {
          "indexed": true,
          "internalType": "uint256",
          "name": "tokenId",
          "type": "uint256"
        },
        {
          "indexed": false,
          "internalType": "string",
          "name": "name",
          "type": "string"
        },
        {
          "indexed": false,
          "internalType": "string",
          "name": "symbol",
          "type": "string"
        }
      ],
      "name": "TokenCreated",
      "type": "event"
    },
    {
      "anonymous": false,
      "inputs": [
        {
          "indexed": true,
          "internalType": "address",
          "name": "to",
          "type": "address"
        },
        {
          "indexed": true,
          "internalType": "uint256",
          "name": "tokenId",
          "type": "uint256"
        },
        {
          "indexed": false,
          "internalType": "uint256",
          "name": "amount",
          "type": "uint256"
        }
      ],
      "name": "TokensMinted",
      "type": "event"
    },
    {
      "anonymous": false,
      "inputs": [
        {
          "indexed": true,
          "internalType": "uint256",
          "name": "tokenId",
          "type": "uint256"
        },
        {
          "indexed": true,
          "internalType": "address",
          "name": "target",
          "type": "address"
        },
        {
          "indexed": false,
          "internalType": "bool",
          "name": "banned",
          "type": "bool"
        }
      ],
      "name": "UserBanUpdated",
      "type": "event"
    },
    {
      "inputs": [
        {
          "internalType": "uint256",
          "name": "tokenId",
          "type": "uint256"
        },
        {
          "internalType": "address",
          "name": "target",
          "type": "address"
        },
        {
          "internalType": "bool",
          "name": "allow",
          "type": "bool"
        },
        {
          "internalType": "uint256",
          "name": "proposalId",
          "type": "uint256"
        }
      ],
      "name": "allowOrBanSegmentDAO",
      "outputs": [],
      "stateMutability": "nonpayable",
      "type": "function"
    },
    {
      "inputs": [
        {
          "internalType": "address",
          "name": "user",
          "type": "address"
        },
        {
          "internalType": "uint256",
          "name": "tokenId",
          "type": "uint256"
        }
      ],
      "name": "balanceOf",
      "outputs": [
        {
          "internalType": "uint256",
          "name": "",
          "type": "uint256"
        }
      ],
      "stateMutability": "view",
      "type": "function"
    },
    {
      "inputs": [
        {
          "internalType": "uint256",
          "name": "brainstormId",
          "type": "uint256"
        },
        {
          "internalType": "address",
          "name": "sender",
          "type": "address"
        }
      ],
      "name": "brainstormSupportFunds",
      "outputs": [
        {
          "internalType": "uint256",
          "name": "",
          "type": "uint256"
        }
      ],
      "stateMutability": "view",
      "type": "function"
    },
    {
      "inputs": [
        {
          "internalType": "string",
          "name": "name",
          "type": "string"
        },
        {
          "internalType": "string",
          "name": "symbol",
          "type": "string"
        }
      ],
      "name": "createCategoryToken",
      "outputs": [
        {
          "internalType": "uint256",
          "name": "",
          "type": "uint256"
        }
      ],
      "stateMutability": "nonpayable",
      "type": "function"
    },
    {
      "inputs": [
        {
          "internalType": "uint256",
          "name": "tokenId",
          "type": "uint256"
        },
        {
          "internalType": "address",
          "name": "token",
          "type": "address"
        }
      ],
      "name": "daoPoolBalances",
      "outputs": [
        {
          "internalType": "uint256",
          "name": "",
          "type": "uint256"
        }
      ],
      "stateMutability": "view",
      "type": "function"
    },
    {
      "inputs": [
        {
          "internalType": "uint256",
          "name": "proposalId",
          "type": "uint256"
        }
      ],
      "name": "execute",
      "outputs": [],
      "stateMutability": "nonpayable",
      "type": "function"
    },
    {
      "inputs": [],
      "name": "getBrainstormCount",
      "outputs": [
        {
          "internalType": "uint256",
          "name": "",
          "type": "uint256"
        }
      ],
      "stateMutability": "view",
      "type": "function"
    },
    {
      "inputs": [
        {
          "internalType": "uint256",
          "name": "brainstormId",
          "type": "uint256"
        }
      ],
      "name": "getBrainstormQuorum",
      "outputs": [
        {
          "internalType": "uint256",
          "name": "",
          "type": "uint256"
        }
      ],
      "stateMutability": "view",
      "type": "function"
    },
    {
      "inputs": [],
      "name": "getProposalCount",
      "outputs": [
        {
          "internalType": "uint256",
          "name": "",
          "type": "uint256"
        }
      ],
      "stateMutability": "view",
      "type": "function"
    },
    {
      "inputs": [
        {
          "internalType": "uint256",
          "name": "proposalId",
          "type": "uint256"
        }
      ],
      "name": "getProposalTotalVotes",
      "outputs": [
        {
          "internalType": "uint256",
          "name": "",
          "type": "uint256"
        }
      ],
      "stateMutability": "view",
      "type": "function"
    },
    {
      "inputs": [
        {
          "internalType": "uint256",
          "name": "tokenId",
          "type": "uint256"
        }
      ],
      "name": "getSegmentMaxMintAmount",
      "outputs": [
        {
          "internalType": "uint256",
          "name": "",
          "type": "uint256"
        }
      ],
      "stateMutability": "view",
      "type": "function"
    },
    {
      "inputs": [
        {
          "internalType": "uint256",
          "name": "tokenId",
          "type": "uint256"
        }
      ],
      "name": "getSegmentMeritRewards",
      "outputs": [
        {
          "internalType": "uint256",
          "name": "proposalReward",
          "type": "uint256"
        },
        {
          "internalType": "uint256",
          "name": "brainstormReward",
          "type": "uint256"
        }
      ],
      "stateMutability": "view",
      "type": "function"
    },
    {
      "inputs": [
        {
          "internalType": "uint256",
          "name": "tokenId",
          "type": "uint256"
        }
      ],
      "name": "getSegmentSkillValidationPercentage",
      "outputs": [
        {
          "internalType": "uint256",
          "name": "",
          "type": "uint256"
        }
      ],
      "stateMutability": "view",
      "type": "function"
    },
    {
      "inputs": [
        {
          "internalType": "uint256",
          "name": "tokenId",
          "type": "uint256"
        }
      ],
      "name": "getTokenMeta",
      "outputs": [
        {
          "internalType": "string",
          "name": "name",
          "type": "string"
        },
        {
          "internalType": "string",
          "name": "symbol",
          "type": "string"
        }
      ],
      "stateMutability": "view",
      "type": "function"
    },
    {
      "inputs": [
        {
          "internalType": "uint256",
          "name": "tokenId",
          "type": "uint256"
        }
      ],
      "name": "getTokenName",
      "outputs": [
        {
          "internalType": "string",
          "name": "",
          "type": "string"
        }
      ],
      "stateMutability": "view",
      "type": "function"
    },
    {
      "inputs": [
        {
          "internalType": "uint256",
          "name": "tokenId",
          "type": "uint256"
        }
      ],
      "name": "getTokenSymbol",
      "outputs": [
        {
          "internalType": "string",
          "name": "",
          "type": "string"
        }
      ],
      "stateMutability": "view",
      "type": "function"
    },
    {
      "inputs": [
        {
          "internalType": "uint256",
          "name": "tokenId",
          "type": "uint256"
        }
      ],
      "name": "getTotalHoldersPerSegment",
      "outputs": [
        {
          "internalType": "uint256",
          "name": "",
          "type": "uint256"
        }
      ],
      "stateMutability": "view",
      "type": "function"
    },
    {
      "inputs": [
        {
          "internalType": "uint256",
          "name": "proposalId",
          "type": "uint256"
        },
        {
          "internalType": "address",
          "name": "user",
          "type": "address"
        }
      ],
      "name": "hasVotedOnProposal",
      "outputs": [
        {
          "internalType": "bool",
          "name": "",
          "type": "bool"
        }
      ],
      "stateMutability": "view",
      "type": "function"
    },
    {
      "inputs": [],
      "name": "initialize",
      "outputs": [],
      "stateMutability": "nonpayable",
      "type": "function"
    },
    {
      "inputs": [
        {
          "internalType": "uint256",
          "name": "tokenId",
          "type": "uint256"
        },
        {
          "internalType": "address",
          "name": "dao",
          "type": "address"
        }
      ],
      "name": "isDAOAllowed",
      "outputs": [
        {
          "internalType": "bool",
          "name": "",
          "type": "bool"
        }
      ],
      "stateMutability": "view",
      "type": "function"
    },
    {
      "inputs": [
        {
          "internalType": "uint256",
          "name": "tokenId",
          "type": "uint256"
        },
        {
          "internalType": "address",
          "name": "user",
          "type": "address"
        }
      ],
      "name": "isFastBanner",
      "outputs": [
        {
          "internalType": "bool",
          "name": "",
          "type": "bool"
        }
      ],
      "stateMutability": "view",
      "type": "function"
    },
    {
      "inputs": [
        {
          "internalType": "address",
          "name": "wallet",
          "type": "address"
        },
        {
          "internalType": "uint256",
          "name": "tokenId",
          "type": "uint256"
        },
        {
          "internalType": "uint256",
          "name": "amount",
          "type": "uint256"
        },
        {
          "internalType": "uint256",
          "name": "proposalId",
          "type": "uint256"
        },
        {
          "internalType": "uint256",
          "name": "brainstormId",
          "type": "uint256"
        }
      ],
      "name": "mintSingle",
      "outputs": [],
      "stateMutability": "nonpayable",
      "type": "function"
    },
    {
      "inputs": [
        {
          "internalType": "bytes",
          "name": "data",
          "type": "bytes"
        }
      ],
      "name": "processMintBatch",
      "outputs": [],
      "stateMutability": "nonpayable",
      "type": "function"
    },
    {
      "inputs": [
        {
          "internalType": "uint256",
          "name": "tokenId",
          "type": "uint256"
        },
        {
          "internalType": "address",
          "name": "target",
          "type": "address"
        },
        {
          "internalType": "bytes",
          "name": "data",
          "type": "bytes"
        },
        {
          "internalType": "bytes",
          "name": "description",
          "type": "bytes"
        },
        {
          "internalType": "string",
          "name": "descriptionLink",
          "type": "string"
        },
        {
          "internalType": "bool",
          "name": "voteByTokens",
          "type": "bool"
        },
        {
          "internalType": "bool",
          "name": "isJackpot",
          "type": "bool"
        }
      ],
      "name": "propose",
      "outputs": [],
      "stateMutability": "nonpayable",
      "type": "function"
    },
    {
      "inputs": [
        {
          "internalType": "bytes",
          "name": "ideaDescription",
          "type": "bytes"
        },
        {
          "internalType": "string",
          "name": "ideaDescriptionLink",
          "type": "string"
        },
        {
          "internalType": "address",
          "name": "tokenToRaise",
          "type": "address"
        },
        {
          "internalType": "uint256",
          "name": "totalAmountToRaise",
          "type": "uint256"
        },
        {
          "internalType": "address",
          "name": "targetWallet",
          "type": "address"
        },
        {
          "internalType": "uint256",
          "name": "votingDurationDays",
          "type": "uint256"
        },
        {
          "internalType": "uint256",
          "name": "tokenId",
          "type": "uint256"
        },
        {
          "internalType": "bool",
          "name": "isSkillProposal",
          "type": "bool"
        }
      ],
      "name": "proposeBrainstorm",
      "outputs": [],
      "stateMutability": "nonpayable",
      "type": "function"
    },
    {
      "inputs": [
        {
          "internalType": "address",
          "name": "dao",
          "type": "address"
        },
        {
          "internalType": "uint256",
          "name": "proposalId",
          "type": "uint256"
        }
      ],
      "name": "registerOrBanGlobalDAO",
      "outputs": [],
      "stateMutability": "nonpayable",
      "type": "function"
    },
    {
      "inputs": [
        {
          "internalType": "bool",
          "name": "pause",
          "type": "bool"
        },
        {
          "internalType": "uint256",
          "name": "tokenId",
          "type": "uint256"
        },
        {
          "internalType": "uint256",
          "name": "proposalId",
          "type": "uint256"
        }
      ],
      "name": "setContractPauseState",
      "outputs": [],
      "stateMutability": "nonpayable",
      "type": "function"
    },
    {
      "inputs": [
        {
          "internalType": "uint256",
          "name": "tokenId",
          "type": "uint256"
        },
        {
          "internalType": "address",
          "name": "targetUser",
          "type": "address"
        },
        {
          "internalType": "uint256",
          "name": "proposalId",
          "type": "uint256"
        }
      ],
      "name": "setFastBanner",
      "outputs": [],
      "stateMutability": "nonpayable",
      "type": "function"
    },
    {
      "inputs": [
        {
          "internalType": "address",
          "name": "user",
          "type": "address"
        },
        {
          "internalType": "bool",
          "name": "isPauseRole",
          "type": "bool"
        },
        {
          "internalType": "uint256",
          "name": "proposalId",
          "type": "uint256"
        }
      ],
      "name": "setGlobalUserRole",
      "outputs": [],
      "stateMutability": "nonpayable",
      "type": "function"
    },
    {
      "inputs": [
        {
          "internalType": "address",
          "name": "jobsContract",
          "type": "address"
        }
      ],
      "name": "setJobsContract",
      "outputs": [],
      "stateMutability": "nonpayable",
      "type": "function"
    },
    {
      "inputs": [
        {
          "internalType": "uint256",
          "name": "tokenId",
          "type": "uint256"
        },
        {
          "internalType": "uint256",
          "name": "newLimit",
          "type": "uint256"
        },
        {
          "internalType": "uint256",
          "name": "proposalId",
          "type": "uint256"
        }
      ],
      "name": "setMaxDailySegmentChanges",
      "outputs": [],
      "stateMutability": "nonpayable",
      "type": "function"
    },
    {
      "inputs": [
        {
          "internalType": "uint256",
          "name": "tokenId",
          "type": "uint256"
        },
        {
          "internalType": "uint256",
          "name": "newProposalMeritReward",
          "type": "uint256"
        },
        {
          "internalType": "uint256",
          "name": "newBrainstormMeritReward",
          "type": "uint256"
        },
        {
          "internalType": "uint256",
          "name": "proposalId",
          "type": "uint256"
        }
      ],
      "name": "setSegmentMeritRewards",
      "outputs": [],
      "stateMutability": "nonpayable",
      "type": "function"
    },
    {
      "inputs": [
        {
          "internalType": "uint256",
          "name": "tokenId",
          "type": "uint256"
        },
        {
          "internalType": "uint256",
          "name": "newMaxMintAmount",
          "type": "uint256"
        },
        {
          "internalType": "uint256",
          "name": "proposalId",
          "type": "uint256"
        }
      ],
      "name": "setSegmentMintAmount",
      "outputs": [],
      "stateMutability": "nonpayable",
      "type": "function"
    },
    {
      "inputs": [
        {
          "internalType": "uint256",
          "name": "tokenId",
          "type": "uint256"
        },
        {
          "internalType": "uint256",
          "name": "newMinVotersPercentage",
          "type": "uint256"
        },
        {
          "internalType": "uint256",
          "name": "newMinQuorumVoters",
          "type": "uint256"
        },
        {
          "internalType": "uint256",
          "name": "proposalId",
          "type": "uint256"
        }
      ],
      "name": "setSegmentQuorum",
      "outputs": [],
      "stateMutability": "nonpayable",
      "type": "function"
    },
    {
      "inputs": [
        {
          "internalType": "uint256",
          "name": "tokenId",
          "type": "uint256"
        },
        {
          "internalType": "uint256",
          "name": "newPercentage",
          "type": "uint256"
        },
        {
          "internalType": "uint256",
          "name": "proposalId",
          "type": "uint256"
        }
      ],
      "name": "setSegmentSkillValidationPercentage",
      "outputs": [],
      "stateMutability": "nonpayable",
      "type": "function"
    },
    {
      "inputs": [
        {
          "internalType": "uint256",
          "name": "tokenId",
          "type": "uint256"
        },
        {
          "internalType": "address",
          "name": "user",
          "type": "address"
        },
        {
          "internalType": "bool",
          "name": "enable",
          "type": "bool"
        },
        {
          "internalType": "uint256",
          "name": "proposalId",
          "type": "uint256"
        }
      ],
      "name": "setSegmentUser",
      "outputs": [],
      "stateMutability": "nonpayable",
      "type": "function"
    },
    {
      "inputs": [
        {
          "internalType": "uint256",
          "name": "id",
          "type": "uint256"
        },
        {
          "internalType": "uint256",
          "name": "supportAmount",
          "type": "uint256"
        }
      ],
      "name": "supportBrainstorm",
      "outputs": [],
      "stateMutability": "nonpayable",
      "type": "function"
    },
    {
      "inputs": [],
      "name": "totalGlobalHolders",
      "outputs": [
        {
          "internalType": "uint256",
          "name": "",
          "type": "uint256"
        }
      ],
      "stateMutability": "view",
      "type": "function"
    },
    {
      "inputs": [
        {
          "internalType": "address",
          "name": "user",
          "type": "address"
        },
        {
          "internalType": "uint256",
          "name": "tokenId",
          "type": "uint256"
        },
        {
          "internalType": "bool",
          "name": "isDead",
          "type": "bool"
        },
        {
          "internalType": "uint256",
          "name": "proposalId",
          "type": "uint256"
        }
      ],
      "name": "updateUserStatus",
      "outputs": [],
      "stateMutability": "nonpayable",
      "type": "function"
    },
    {
      "inputs": [
        {
          "internalType": "address",
          "name": "recipient",
          "type": "address"
        },
        {
          "internalType": "address",
          "name": "token",
          "type": "address"
        },
        {
          "internalType": "uint256",
          "name": "amount",
          "type": "uint256"
        },
        {
          "internalType": "uint256",
          "name": "proposalId",
          "type": "uint256"
        },
        {
          "internalType": "uint256",
          "name": "tokenId",
          "type": "uint256"
        }
      ],
      "name": "useDaoPoolTokens",
      "outputs": [],
      "stateMutability": "nonpayable",
      "type": "function"
    },
    {
      "inputs": [
        {
          "internalType": "address",
          "name": "target",
          "type": "address"
        },
        {
          "internalType": "uint256",
          "name": "tokenId",
          "type": "uint256"
        },
        {
          "internalType": "uint256",
          "name": "proposalId",
          "type": "uint256"
        }
      ],
      "name": "vetoGlobalUser",
      "outputs": [],
      "stateMutability": "nonpayable",
      "type": "function"
    },
    {
      "inputs": [
        {
          "internalType": "uint256",
          "name": "proposalId",
          "type": "uint256"
        },
        {
          "internalType": "bool",
          "name": "support",
          "type": "bool"
        }
      ],
      "name": "vote",
      "outputs": [],
      "stateMutability": "nonpayable",
      "type": "function"
    },
    {
      "inputs": [
        {
          "internalType": "bytes",
          "name": "data",
          "type": "bytes"
        }
      ],
      "name": "voteBatch",
      "outputs": [],
      "stateMutability": "nonpayable",
      "type": "function"
    }
  ],
  "bytecode": "0x6080806040523461010b5760016000818155603c6020527f241a7f58df94aee482cc347de76b95a1aa8ddd6e0284f081d8c87aa012d4b192805460ff1990811684179091557f5cdec7815a20e4a3d6d70b71b6a509cf2dd947f27c90263b96905f0fb687caa680548216841790557f053cf1ec6f49eee44d6ebafeed270c62b2caeef3f810fca32b4e2ec11db7e41c8054821684179055737ceb23fd6bc0add59e62ac25578270cff1b9f6199091527f976d5c2f067a3f3d60e3ff62cc57cf91a63e47dbeeceaad6631a51eab28857a98054909116909117905560185415610101575b601754156100f7575b61688690816101118239f35b603c6017556100eb565b60016018556100e2565b600080fdfe608080604052600436101561001357600080fd5b600090813560e01c908162fdd58e14614e3d575080630396ab7614614a5557806305599b0c1461497e5780630bd275ee1461444c5780631005d26814613ee35780631a9b494514613d1d5780631b2b31ce146139f25780631f9581ee1461398a57806324611af6146139415780633236a6c5146137e35780633373e975146137b957806333a9c13a1461371057806347680e39146135ce5780634bde4c40146133d3578063547dbfdb1461338f578063600303d81461334657806365d3acd7146130995780637079992a14612bef578063771a4c3214612bc55780637aa791fa14612ba75780637b78bd3f14612b725780637d79d496146129ce5780637efaf07c1461255a5780638129fc1c1461244c57806388d76de2146122645780638ebf53da1461221d5780639847bf06146120fa5780639bd98ad414611d6f578063a9c5d3de14611d3e578063b244a08614611c32578063b40e557014611bc3578063b50763ba14611b87578063b528028514611b5d578063b67b03691461183f578063bf71346214611153578063c08cc02d14611135578063c9d27afe1461110b578063cfbf124a146110e1578063dbe16c071461108d578063de61af3a1461106f578063f7db9e331461101e578063fa6df99a146107935763fe0d94c1146101f957600080fd5b34610790576020366003190112610790576004356102156151cc565b8082526023602052604082208054156107815760028101805461023881336161d6565b600b83019060ff82541661077257600a840154918242111561076357811561075a57818752600b6020526040872054925b8688526025602052604088205493838952602b602052606461028f60408b2054836152a3565b0493808a52602c60205260646102a960408c2054846152a3565b049486108093819461072f575b506106ac575b505061069d57600885015491821061068e57600985015482111561067f576001850180546001600160a01b03166000908152603a6020526040902090939088805260205260408820541580610670575b6106615784548061065057506802b5e3af16b18800005b9282549160ff8360081c169182610640575b82610636575b826105f7575b50506105e6575b60019060ff19161790556003840192600460018060a01b0385541695019487604051918192885461037881615073565b90600181169081156105d1575060011461059d575b508281819503925af13d15610598573d6103a681614f12565b906103b46040519283614ef1565b81528860203d92013e5b15610589578254815460405160209493927f321a41b566a977215820e55ed8e0a7cedae8432a21700f674df48255935e25cd9261044492916001600160a01b031661040883614ed6565b8252868201528460408201523060608201528960808201528a60a0820152600160c082015260018060a01b0360395416903091600c54916152b6565b9460018060a01b039054169384925493604051908152a36001600160a01b0381166000908152603a602052604090208680526020526040862054156104da575b505054604080516001600160a01b039092168252602082018190527fc98fbf8f20b11b050a9541d12aee1c11fcd31e8e42975cc885fb3d33a6accc829282916104d091908301906150ad565b0390a26001815580f35b9061053661053c92604051906104ef82614ed6565b815287602082015268056bc75e2d6310000060408201523060608201528660808201528760a0820152600160c082015260018060a01b0360395416903091600c54916152b6565b90615066565b50600c546001810180911161057557600c557fc98fbf8f20b11b050a9541d12aee1c11fcd31e8e42975cc885fb3d33a6accc8238610484565b634e487b7160e01b85526011600452602485fd5b632b3f6d1160e21b8752600487fd5b6103be565b898452602084209450835b8181106105ba5750810193508261038d565b8554838201526001909501948c94506020016105a8565b60ff191683525080151502810193508261038d565b681b1ae4d6e2ef5000009250610348565b90915060648102908082046064149015171561062257604b9161061991615222565b10153880610341565b634e487b7160e01b8a52601160045260248afd5b811515925061033b565b600789015460ff16159250610335565b885260076020526040882054610323565b63a817b64760e01b8852600488fd5b5062989680600c54101561030c565b637a78bcf360e01b8752600487fd5b63aa26a69360e01b8752600487fd5b63bddef0a160e01b8752600487fd5b909193508852602c6020526032604089205560328102908082046032149015171561071b5760649004918454808952602b6020527f49ef6f5b48b95a7bfe58349f63a854dfe6831e9cfb17814d449f3ccb1198c0126040808b2054815190815260326020820152a238806102bc565b634e487b7160e01b88526011600452602488fd5b905062093a808101809111610746574211386102b6565b634e487b7160e01b8b52601160045260248bfd5b600c5492610269565b63370ec37160e21b8752600487fd5b6374e0240960e11b8652600486fd5b631dc0650160e31b8352600483fd5b80fd5b503461079057610100366003190112610790576004356001600160401b03811161101a576107c5903690600401614ea9565b6024929192356001600160401b038111611016576107e7903690600401614ea9565b9093906044356001600160a01b0381169190829003611011576084356001600160a01b03811694908590036110115760c4359660e4359283151580940361101157888852603f60205260ff60408920541661100257604051956101008701908782106001600160401b03831117610fec576108739461086a926040523691614f2d565b86523691614f2d565b9160208401928352604084019081526060840160643581526080850195865260a085019060a43582526108b460c0870199808b5260e08801958652336161d6565b8851600d5481119081610fe2575b50610fd357878052602a60209081526040808a20336000908152925290205460ff1680610f84575b610f755788518852602a60209081526040808a20336000908152925290205460ff16610f6657835115610f395733600052603260205260ff60406000205416610f2a57336000908152603a6020526040902089518952602052604088205415610f1b57336000908152603a6020526040902088805260205260408820541580610f0c575b610661575b85515115610efd5782516001600160a01b03168015159081610ed9575b5080610ecf575b610ec05786516001600160a01b03161580610eb6575b610ea757815162015180810290808204620151801490151715610e93576109d49042615066565b62093a804201908142116106225710610e8457602e8054600190810191829055818a52602f60205260408a20918255810180546001600160a01b03191633179055865180516002830191906001600160401b038111610e0d57610a4181610a3b8554615073565b85615242565b60208c601f8311600114610e215790610a6f9383610d9f575b50508160011b916000199060031b1c19161790565b90555b8551600382019080516001600160401b038111610e0d57610a9781610a3b8554615073565b60208c601f8311600114610daa5790610ac49383610d9f5750508160011b916000199060031b1c19161790565b90555b426004820155336000908152603a602052604090208a518a5260205260408920546005820190815584516006830180546001600160a01b039283166001600160a01b031991821617909155845160078501558a516008850180549190931691161790559251620151808082029180830490911490151715610622577f873bd490711f006496288afd089245c4cbfcc641721813df2b4ad7409dc2a59e999a959389979593610bc27f5f741d08188ce1b820c0a0539f84488705d838c57c8f6064cce21c8c73a1cc6394610b9d610ca89542615066565b60098201558951600b820155600c8851151591019060ff801983541691151516179055565b602e548d52603060209081526040808f2033600090815292529020805460ff19166001179055855115610d8d5787518d52600b6020528c60406064610c17828420548c518552602d60205283852054906152a3565b04915b602e54815260316020522055602e54809c819a82978d5191610c738c519260018060a01b0390511696519160018060a01b0390511692610c656040519560c0875260c0870190615000565b908582036020870152615000565b954260408501526060840152608083015260a08201528033940390a35460408051338152602081019290925290918291820190565b0390a251610d2b575b505091516001600160a01b031692915050813b15610ccd578280f35b7ff740ee715e1b7a6406cafed1122a083fbb6cfd6441e3a718b8aa2dd18022b1fd606060405160208152601c60208201527f4e6f6e2d636f6e74726163742077616c6c6574206465746563746564000000006040820152a338808280f35b7f2150e75b3455789b95efae8a3f19aec585cba6230c42a58d11e0cf7e5b8e1b9991519351905193610d81610d726040519384938452606060208501526060840190615000565b82810360408401523396615000565b0390a338828180610cb1565b68056bc75e2d6310000060408e610c1a565b015190503880610a5a565b9192601f198416858452828420935b818110610df55750908460019594939210610ddc575b505050811b019055610ac7565b015160001960f88460031b161c19169055388080610dcf565b92936020600181928786015181550195019301610db9565b634e487b7160e01b8c52604160045260248cfd5b9192601f198416858452828420935b818110610e6c5750908460019594939210610e53575b505050811b019055610a72565b015160001960f88460031b161c19169055388080610e46565b92936020600181928786015181550195019301610e30565b6331806aeb60e21b8852600488fd5b634e487b7160e01b89526011600452602489fd5b63013a0b5960e21b8852600488fd5b50805115156109ad565b630f58058360e11b8852600488fd5b5080511515610997565b6001600160a01b03166000908152603c6020526040902060ff915054161538610990565b633e61080d60e01b8852600488fd5b5062989680600c54101561096e565b63b0789e0960e01b8852600488fd5b63dd29f3ad60e01b8852600488fd5b336000908152603a60205260409020888052602052604088205461097357630b2bd92d60e11b8852600488fd5b631e461f3960e21b8852600488fd5b63f86cf85360e01b8852600488fd5b5088518015908115610fbc575b50806108ea575088518852600960209081526040808a20336000908152925290205460ff16156108ea565b895250600a602052604088205460ff161538610f91565b63677510db60e11b8852600488fd5b90501515386108c2565b634e487b7160e01b600052604160045260246000fd5b637c32ba1d60e11b8852600488fd5b600080fd5b8280fd5b5080fd5b503461079057602036600319011261079057600435808252600760205260408220541561105c5781604091602093526007835220545b604051908152f35b5050602068056bc75e2d63100000611054565b50346107905780600319360112610790576020602e54604051908152f35b5034610790576020366003190112610790576110c26110c960406110dd936004358152600160205220604051928380926150ad565b0382614ef1565b604051918291602083526020830190615000565b0390f35b50346107905760203660031901126107905760406020916004358152600b83522054604051908152f35b503461079057604036600319011261079057611132611128614f9c565b3390600435615ebd565b80f35b50346107905780600319360112610790576020602254604051908152f35b50346107905760e036600319011261079057600435611170614e93565b906044356001600160401b03811161183b57611190903690600401614ea9565b9190926064356001600160401b038111611837576111b2903690600401614ea9565b91906084356001600160401b038111611833576111d3903690600401614ea9565b9160a435978815158099036110115760c4359788151580990361101157878b52603f60205260ff60408c205416611824579161123a6112499261125895946040519a61121e8c614ed6565b8b526001600160a01b0390981660208b01908152973691614f2d565b96604089019788523691614f2d565b92606087019384523691614f2d565b956080850196875260a0850190815260c085019586528451600d548111908161181a575b50610fd35761128c8551336161d6565b878052602a60209081526040808a20336000908152925290205460ff16806117cb575b610f755784518852602a60209081526040808a20336000908152925290205460ff16610f6657336000908152603a60205260409020888052602052604088205415806117bc575b6106615784511561177d57336000908152603a6020526040902085518952602052604088205495861561176e575b61132f602254615294565b6022819055808a52602360205260408a209081556001810180546001600160a01b031990811633179091558751600283015585516003830180549092166001600160a01b0391909116179055855180519192916004840191906001600160401b038111611694576113a481610a3b8554615073565b60208d601f831160011461170b57906113d19383610d9f5750508160011b916000199060031b1c19161790565b90555b8351600583019080516001600160401b038111611694576113f981610a3b8554615073565b60208d601f83116001146116a857906114269383610d9f5750508160011b916000199060031b1c19161790565b90555b8851600683019080516001600160401b0381116116945761144e81610a3b8554615073565b60208d601f8311600114611631579061147b9383610d9f5750508160011b916000199060031b1c19161790565b90555b61149a83511515600784019060ff801983541691151516179055565b87158015929061162b57885b60088201558a600982015562093a8042018042116116175790600b91600a820155019061ff0082549151151560081b169061ffff19161790556000146115bf5792606094926115a57fd69580b3a793bec67d4591ba7cb49d1cc0b3591e745a15b5bba434b904231e42937f78975aaf742630489badd22949b88ac50eaaea576339ee05440b671a33bfb6a998966022548c52602460205260408c2060018060a01b0333166000526020526040600020600160ff198254161790556022548c52602560205260408c20611579898254615066565b90556022549a8b97519460018060a01b0390511695519251905191511515926040519687963388615e57565b0390a260405190338252600160208301526040820152a280f35b7fd69580b3a793bec67d4591ba7cb49d1cc0b3591e745a15b5bba434b904231e4295506116119293949660225497519460018060a01b0390511695519251905191511515926040519687963388615e57565b0390a280f35b634e487b7160e01b8c52601160045260248cfd5b8a6114a6565b9192601f198416858452828420935b81811061167c5750908460019594939210611663575b505050811b01905561147e565b015160001960f88460031b161c19169055388080611656565b92936020600181928786015181550195019301611640565b634e487b7160e01b8d52604160045260248dfd5b9192601f198416858452828420935b8181106116f357509084600195949392106116da575b505050811b019055611429565b015160001960f88460031b161c191690553880806116cd565b929360206001819287860151815501950193016116b7565b9192601f198416858452828420935b818110611756575090846001959493921061173d575b505050811b0190556113d4565b015160001960f88460031b161c19169055388080611730565b9293602060018192878601518155019501930161171a565b63b0789e0960e01b8952600489fd5b336000908152603a6020526040902088805260205260408820549586156117ad5781516113245760019650611324565b630b2bd92d60e11b8952600489fd5b5062989680600c5410156112f6565b5084518015908115611803575b50806112af575084518852600960209081526040808a20336000908152925290205460ff16156112af565b895250600a602052604088205460ff1615386117d8565b905015153861127c565b637c32ba1d60e11b8b5260048bfd5b8780fd5b8580fd5b8380fd5b50346107905760a036600319011261079057611859614e7d565b611861614e93565b60443560643590608435926118746151cc565b838652603f60205260ff604087205416611b4e576001600160a01b0385169283158015611b3d575b8015611b35575b611b2657600d54851180611b1d575b611b0e576118c085336161d6565b303303611aff576001600160a01b0382166000908152603c602052604090205460ff1615611af057808752602360205260408720805415918215611ae0575b8215611ad1575b8215611a94575b508115611a80575b50611a715783865260066020526040862060018060a01b0382166000526020528160406000205410611a625760405163a9059cbb60e01b81526001600160a01b0395861660048201526024810183905294169360208160448189895af1908115611a57578691611a28575b5015611a1957827fd91724c9176fec4854e69f25299591906db067ed592619b58441ded6ca8035cc6020869383895260068252604089208560005282526040600020818154039055604051908152a4808352600660205260408320826000526020527f167b8fecabdfa7ff8ee77b12a1ddca3d239086251b00add8fc240be116451c4d6020604060002054604051908152a36001815580f35b6312171d8360e31b8552600485fd5b611a4a915060203d602011611a50575b611a428183614ef1565b810190615e3f565b38611980565b503d611a38565b6040513d88823e3d90fd5b63bc6072f160e01b8652600486fd5b631dc0650160e31b8652600486fd5b905060096008820154910154101538611915565b909150875260256020526040872054858852600b6020526064611ac860408a2054888b52602c60205260408b2054906152a3565b0411903861190d565b60028201548714159250611906565b600b82015460ff161592506118ff565b630f58058360e11b8752600487fd5b63ea8e4eb560e01b8752600487fd5b63677510db60e11b8752600487fd5b508415156118b2565b630702b3d960e41b8752600487fd5b5082156118a3565b506001600160a01b0382161561189c565b637c32ba1d60e11b8652600486fd5b50346107905760203660031901126107905760406020916004358152602d83522054604051908152f35b5034610790576020366003190112610790576040908160043591828152603d60205281812054928152603e602052205482519182526020820152f35b503461079057602036600319011261079057611c09611c23611c1c92611c10604060043592838152600160205281812093815260026020522091604051948580926150ad565b0384614ef1565b604051938480926150ad565b0383614ef1565b6110dd60405192839283615041565b5034610790576060366003190112610790576004358015158082036110115760243591600d54831180611d35575b611d2657336000908152600e602052604090205460ff1615611d1757336000908152601060205260409020611ca59054610536601754610536600c5460185490615222565b4210611d17577fcdb1981cc498e47ac21d2d9b9c6e106eeda62db19ee98eb85e103a7a9a3c2d7791611d0d60209242611cf03360018060a01b03166000526010602052604060002090565b55858752603f8452604087209060ff801983541691151516179055565b604051908152a280f35b63ea8e4eb560e01b8452600484fd5b63677510db60e11b8452600484fd5b50821515611c60565b5034610790576040366003190112610790576020611d65611d5d614e93565b600435615130565b6040519015158152f35b503461079057611d7e36614fc9565b50828493929352603f60205260ff6040852054166120eb57600d54821180156120e3575b80156120d2575b6120c3578080612099575b8061208a575b61207b57611dc882336161d6565b8184526015602090815260408086203360009081529252902054611deb836166ff565b11801590612005575b611d175781845260146020526040842060018060a01b038416600052602052611e2d8160406000209060ff801983541691151516179055565b8080611fdb575b611ece575b60405190151581526001600160a01b0383169082907fb706f23decc863a5b3075c088cb3dccfac7ad581a9a9644be54ff81e39efc0e690602090a3808352601560209081526040808520336000908152925290208054611e9890615294565b905582526016602090815260408084203360009081529083528181206001600160a01b0394909416815292909152902042905580f35b611ed783616691565b838052600b60205260408420611eed8154615294565b9055816001600160a01b03841685816000805160206167f18339815191528280a38186526007602052604086205415611fb95781865260076020528181600080516020616831833981519152602060408a20545b83600052603a82526040600020856000528252604060002081815401905584600052600382526040600020818154019055604051908152a3818652600b60205260408620611f8f8154615294565b90556000805160206167f18339815191528680a3600c546001810180911161057557600c55611e39565b8181600080516020616831833981519152602068056bc75e2d63100000611f41565b506001600160a01b0383166000908152603a60205260409020848052602052604084205415611e34565b508184526016602090815260408086203360009081529083528181206001600160a01b0387168252835281902054848752600b90925285205460185461204a91615222565b603c019081603c11612067579061206091615066565b4210611df4565b634e487b7160e01b86526011600452602486fd5b63a817b64760e01b8452600484fd5b5062989680600c541015611dba565b506001600160a01b0383166000908152603a60205260409020848052602052604084205415611db4565b630702b3d960e41b8452600484fd5b506001600160a01b03831615611da9565b508115611da2565b637c32ba1d60e11b8452600484fd5b503461079057604036600319011261079057612114614e7d565b6001600160a01b03811690811561220e576121806121916121bb9261213833616252565b6001600160a01b0316600081815260046020818152604080842080548b805260168452828c2033875284528286208b87528452918520429055949093525260ff161592839190565b9060ff801983541691151516179055565b838052600560205260408420836000526020526040600020901560ff801983541691151516179055565b816000805160206167d18339815191526020604051847fd91cd28f927dc510c68cdc2c4eabb6f04ff0e27abdd673fa1f09cb34140cd8898580a2831561220657602435945b8152a380f35b600094612200565b63aa0370a760e01b8352600483fd5b5034610790576040366003190112610790576040612239614e93565b916004358152603b602052209060018060a01b03166000526020526020604060002054604051908152f35b503461079057606036600319011261079057600435612281614e93565b9061228a6151cc565b808352603f60205260ff60408420541661243d57600d5481118015612435575b8015612424575b612415576122bf81336161d6565b333003612339576122d28160443561671e565b80835260086020526040832060018060a01b0383166000526020526040600020600160ff198254161790557f4d0ee27a594c40de3e7fd6fc3f55fac9886753068f8d23420081727b594699a26020604051936001855260018060a01b031693a36001815580f35b80156122d2578083526015602090815260408085203360009081529252902054612362826166ff565b118015906123bf575b6123b0578083526015602090815260408085203360008181529184528282208054600101905584875260168452828720908252835281812090925290204290556122d2565b63ea8e4eb560e01b8352600483fd5b50808352601660209081526040808520336000908152908352818120835281902054838652600b9092528420546018546123f891615222565b603c019081603c11610575579061240e91615066565b421061236b565b630702b3d960e41b8352600483fd5b506001600160a01b038216156122b1565b5080156122aa565b637c32ba1d60e11b8352600483fd5b5034610790578060031936011261079057600d5461254c57336000908152600e60205260409020805460ff19166001179055336000908152600f60205260409020805460ff19166001908117909155600d55336000908152603a6020526040902081805260205268056bc75e2d631000006040822055808052600360205268056bc75e2d631000006040822055808052600b6020526001604082205560405181336000805160206167f18339815191528280a3600181527ffddc49233b162acc3cbc3dc7b36df1bee7b23722d8229628cc8f33e5d15f5afe60203392a26040516001815260008051602061681183398151915260203392a2600160405580f35b62dc149f60e41b8152600490fd5b503461079057606036600319011261079057612574614e7d565b602435808352603f60205260ff60408420541661243d57600d548111806129c5575b6129b6576125a481336161d6565b806128495750336000908152600e602052604090205460ff16156127a0573360009081526012602052604090206001905410801590612753575b801561270c575b6126fd576001600160a01b0381166000908152600e602052604090205460ff161561269c576001600160a01b0381166000818152600e6020908152604091829020805460ff1916905590518481527ffddc49233b162acc3cbc3dc7b36df1bee7b23722d8229628cc8f33e5d15f5afe9190a25b3360009081526012602052604090206126718154615294565b90553360009081526013602090815260408083206001600160a01b0390941683529290522042905580f35b6001600160a01b0381166000908152600f602052604090205460ff1615612658576001600160a01b0381166000818152600f6020908152604091829020805460ff1916905590518481526000805160206168118339815191529190a2612658565b6358402f5360e01b8252600482fd5b506001600160a01b0381166000908152600e602052604090205460ff161580156125e557506001600160a01b0381166000908152600f602052604090205460ff16156125e5565b5033600090815260136020526040902060018060a01b03821660005260205260406000205462015180810180911161278c5742106125de565b634e487b7160e01b83526011600452602483fd5b336000908152600f602052604090205460ff166127bc575b5080f35b6001600160a01b0381166000908152600e602052604090205460ff1661283a576001600160a01b0381166000908152600f602052604090205460ff16156127b8576001600160a01b03166000818152600f6020908152604091829020805460ff1916905590518381526000805160206168118339815191529190a280f35b63ea8e4eb560e01b8252600482fd5b808352601460209081526040808520336000908152925290205460ff1615801561298b575b8015612929575b80156128fe575b6123b0578083526014602090815260408085206001600160a01b038516600081815291845290829020805460ff191690559051858152909183917fb706f23decc863a5b3075c088cb3dccfac7ad581a9a9644be54ff81e39efc0e69190a3808352601560209081526040808520336000908152925290208054611e9890615294565b5080835260146020526040832060018060a01b03831660005260205260ff604060002054161561287c565b508083526016602090815260408085203360009081529083528181206001600160a01b0386168252835281902054838652600b90925284205460185461296e91615222565b603c019081603c11610575579061298491615066565b4210612875565b5080835260156020908152604080852033600090815292529020546129af826166ff565b111561286e565b63677510db60e11b8352600483fd5b50801515612596565b5034610790576129dd36614f82565b6129e56151cc565b828452603f60205260ff6040852054166120eb57600d54831180612b69575b8015612b61575b611d26578290612a1b82336161d6565b333003612a6b5791612a506020927fb107086df3cecdf7723c4c96e76f4a5ac784f97e0eaafb588956e2bf900084f69461671e565b83855260078252806040862055604051908152a26001815580f35b50612a9a575b60207fb107086df3cecdf7723c4c96e76f4a5ac784f97e0eaafb588956e2bf900084f691612a50565b8183526015602090815260408085203360009081529252902054612abd836166ff565b11801590612b0b575b6123b057818352601560209081526040808520336000818152918452828220805460010190558587526016845282872090825283528181209092529020429055612a71565b50818352601660209081526040808520336000908152908352818120835281902054848652600b909252842054601854612b4491615222565b603c019081603c116105755790612b5a91615066565b4210612ac6565b508115612a0b565b50821515612a04565b5034610790576020366003190112610790576110c26110c960406110dd936004358152600260205220604051928380926150ad565b50346107905780600319360112610790576020604054604051908152f35b50346107905760203660031901126107905760406020916004358152603183522054604051908152f35b503461079057612bfe36614fc9565b90838594939452603f60205260ff60408620541661308a57600d54831180613081575b8015613070575b613061576001600160a01b03841660009081526004602052604090205460ff16612c5284336161d6565b336000908152600e6020526040902054849060ff1615612f7d57503360009081526012602052604090206001905410801590612f30575b612f215733600090815260126020526040902084929190612caa8154615294565b90553360009081526013602090815260408083206001600160a01b038a16845290915290204290555b15612eaa5781612dad57612d1291865260056020526040862060018060a01b0386166000526020526040600020901560ff801983541691151516179055565b8315612da5575b6040516001600160a01b038416815282906000805160206167d183398151915290602090a35b80612d48578280f35b808352601560209081526040808520336000908152925290208054612d6c90615294565b905582526016602090815260408084203360009081529083528181206001600160a01b0394909416815292909152902042905538808280f35b506000612d19565b81865260096020526040862060018060a01b038616600052602052612de28160406000209060ff801983541691151516179055565b159181865260056020526040862060018060a01b038616600052602052612e198360406000209060ff801983541691151516179055565b818652600a60205260408620600160ff19825416179055817ff77a49a37404af75f3d15f3b4e90e04a12a1d0e04b386925eca57b18410ad7776040805160018060a01b03891696878252156020820152a28515612e905760206000805160206167d183398151915291935b604051908152a3612d3f565b506000805160206167d18339815191526020600093612e84565b91505015818452602a6020526040842060018060a01b038416600052602052612ee38160406000209060ff801983541691151516179055565b6040519081526001600160a01b0383169082907f18ff67eb8420a6c9b67aff21cb9ccff9d7b9a330bc93cba48f9d496c55f9277990602090a3612d3f565b6358402f5360e01b8652600486fd5b5033600090815260136020526040902060018060a01b038616600052602052604060002054620151808101809111612f69574210612c89565b634e487b7160e01b87526011600452602487fd5b91908215612cd3579091865260146020526040862060018060a01b03331660005260205260ff60406000205416158015613036575b8015612fd4575b612fc557908391612cd3565b63ea8e4eb560e01b8652600486fd5b508386526016602090815260408088203360009081529083528181206001600160a01b0389168252835281902054868952600b90925287205460185461301991615222565b603c019081603c1161071b579061302f91615066565b4210612fb9565b50838652601560209081526040808820336000908152925290205461305a856166ff565b1115612fb2565b630702b3d960e41b8552600485fd5b506001600160a01b03841615612c28565b50821515612c21565b637c32ba1d60e11b8552600485fd5b5034610790576060366003190112610790576130b3614e7d565b906130bc614f9c565b6001600160a01b038316918215613337578115613315576001600160a01b0384166000908152600e602052604090205460ff16155b806132eb575b806132dc575b6132cd575061310b33616252565b33600090815260116020526040902054601a5411156132bc578015613299576001600160a01b0383166000908152600e602052604090205460ff1615905b15613256576001600160a01b0383166000908152600e60205260409020613171908290612180565b817ffddc49233b162acc3cbc3dc7b36df1bee7b23722d8229628cc8f33e5d15f5afe60206040518415158152a25b8061322a575b6131c7575b3360009081526011602052604090206131c38154615294565b9055005b6131d2600092616691565b818052600b602052604082206131e88154615294565b90556000805160206167f18339815191528280a3600c546001810180911161321457600c5538806131aa565b634e487b7160e01b600052601160045260246000fd5b506001600160a01b0382166000908152603a6020526040902060008052602052604060002054156131a5565b6001600160a01b0383166000908152600f60205260409020613279908290612180565b8160008051602061681183398151915260206040518415158152a261319f565b6001600160a01b0383166000908152600f602052604090205460ff161590613149565b633a72b4a760e11b60005260046000fd5b63a817b64760e01b8152600490fd5b5062989680600c5410156130fd565b506001600160a01b0384166000908152603a602052604090208180526020526040812054156130f7565b6001600160a01b0384166000908152600f602052604090205460ff16156130f1565b630702b3d960e41b8152600490fd5b50346107905760403660031901126107905760ff6040602092613367614e93565b6004358252602485528282206001600160a01b03909116825284522054604051911615158152f35b50346107905760403660031901126107905760406020916133ae614e93565b6004358252600684528282206001600160a01b03909116825283522054604051908152f35b5034610790576133e236614fab565b6133ea6151cc565b838552603f60205260ff60408620541661308a57600d548411806135c5575b80156135bb575b80156135b1575b80156135a7575b801561359d575b61358e57839061343582336161d6565b333003613497579161346b7f49ef6f5b48b95a7bfe58349f63a854dfe6831e9cfb17814d449f3ccb1198c012949260409461671e565b848652602b6020528183872055848652602c602052808387205582519182526020820152a26001815580f35b506134c7575b7f49ef6f5b48b95a7bfe58349f63a854dfe6831e9cfb17814d449f3ccb1198c0129160409161346b565b8284526015602090815260408086203387529091528420546134e8846166ff565b11801590613537575b611d17578284526015602090815260408086203380885290835281872080546001019055858752601683528187208188528352818720908752909152842042905561349d565b5082845260166020908152604080862033808852908352818720908752825280862054858752600b90925285205460185461357191615222565b603c019081603c11612067579061358791615066565b42106134f1565b63dadba93b60e01b8552600485fd5b5060648211613425565b506032821061341e565b5060648311613417565b5060328310613410565b50831515613409565b5034610790576135dd36614f82565b6135e89291926151cc565b818452603f60205260ff6040852054166120eb57600d54821180613707575b611d265761361582336161d6565b81333003613639576136269161671e565b8252601d60205260408220556001815580f35b90501561362657808352601560209081526040808520338652909152832054613661826166ff565b118015906136b0575b6123b05780835260156020908152604080852033808752908352818620805460010190558386526016835281862081875283528186209086529091528320429055613626565b5080835260166020908152604080852033808752908352818620908652825280852054838652600b9092528420546018546136ea91615222565b603c019081603c11610575579061370091615066565b421061366a565b50811515613607565b50346107905760a03660031901126107905761372a614e7d565b6024356137356151cc565b808352603f60205260ff60408420541661243d576137af916137a7916040519161375e83614ed6565b60018060a01b0316825260208201526044356040820152336060820152606435608082015260843560a08201528360c082015260018060a01b03603954166040549030926152b6565b604054615066565b6040556001815580f35b50346107905760203660031901126107905760406020916004358152602583522054604051908152f35b5034610790576137f236614fab565b6137fa6151cc565b838552603f60205260ff60408620541661308a57600d54841180613938575b6139295761382784336161d6565b808552602360205260408520805415918215613919575b821561390a575b82156138cd575b5081156138b9575b506138aa577f6f93b748393ed83abca7f281eb4c6348ba5e02efc6766ea3a3d7102463db454991604091848652603d6020528183872055848652603e602052808387205582519182526020820152a26001815580f35b631dc0650160e31b8452600484fd5b905060096008820154910154101538613854565b909150855260256020526040852054848652600b60205260646139016040882054878952602c6020526040892054906152a3565b0411903861384c565b60028201548614159250613845565b600b82015460ff1615925061383e565b63677510db60e11b8552600485fd5b50831515613819565b50346107905760403660031901126107905760ff6040602092613962614e93565b6004358252600885528282206001600160a01b03909116825284522054604051911615158152f35b5034610790576020366003190112610790576001600160a01b036139ac614e7d565b1680156139e3576039546001600160a01b0381166139d5576001600160a01b0319161760395580f35b62dc149f60e41b8352600483fd5b630702b3d960e41b8252600482fd5b503461079057608036600319011261079057613a0c614e7d565b60243560443591821515830361183b57613a246151cc565b818452603f60205260ff6040852054166120eb57600d54821180613d14575b8015613d03575b6120c3576001600160a01b0381166000908152603a60205260409020828552602052604084205415613ce257613a8082336161d6565b333003613c1557613a938260643561671e565b839215613b7957818452600b6020526040842054613b0f575b50505b80613abd575b506001815580f35b81811315613adb57613ad190604054615066565b6040555b38613ab5565b600160ff1b8114613afb57604054908101908111613afb57604055613ad5565b634e487b7160e01b82526011600452602482fd5b818452600b602052604084208054600019019055811580613b6e575b613b64575b6001600160a01b03167f2ab8ee9b8d558a657be247b61aa842a72bfff355bd960cdfde53ac07d5abbb428480a33880613aac565b6000199250613b30565b50600c541515613b2b565b818452600b60205260408420548285526003602052613bc36040862054613bb28460018060a01b0316600052603a602052604060002090565b858852602052604087205490615222565b11613bd0575b5050613aaf565b818452600b60205260408420600181540190558115613c0c575b6001600160a01b03166000805160206167f18339815191528480a33880613bc9565b60019250613bea565b8115613a9357818452601560209081526040808620338752909152842054613c3c836166ff565b11801590613c8b575b611d175781845260156020908152604080862033808852908352818720805460010190558487526016835281872081885283528187209087529091528420429055613a93565b5081845260166020908152604080862033808852908352818720908752825280862054848752600b909252852054601854613cc591615222565b603c019081603c116120675790613cdb91615066565b4210613c45565b6004848315613cf75763b0789e0960e01b8152fd5b630b2bd92d60e11b8152fd5b506001600160a01b03811615613a4a565b50811515613a43565b503461079057613d2c36614f82565b613d346151cc565b828452603f60205260ff6040852054166120eb57600d54831180613eda575b8015613ed0575b8015613ec6575b613eb7578290613d7182336161d6565b333003613dc15791613da66020927fb6e96cd0774bc8adcd640d87b9dbc0ca4884b88cb38ec01c8d435ea5291675889461671e565b838552602d8252806040862055604051908152a26001815580f35b50613df0575b60207fb6e96cd0774bc8adcd640d87b9dbc0ca4884b88cb38ec01c8d435ea52916758891613da6565b818352601560209081526040808520338652909152832054613e11836166ff565b11801590613e60575b6123b05781835260156020908152604080852033808752908352818620805460010190558486526016835281862081875283528186209086529091528320429055613dc7565b5081835260166020908152604080852033808752908352818620908652825280852054848652600b909252842054601854613e9a91615222565b603c019081603c116105755790613eb091615066565b4210613e1a565b63dadba93b60e01b8452600484fd5b5060648211613d61565b5060018210613d5a565b50821515613d53565b5034610790576020366003190112610790576004356001600160401b03811161101a57613f14903690600401614ea9565b613f1c6151cc565b60018060a01b0360395416916040549160ff613f4a3360018060a01b03166000526004602052604060002090565b54161561443d5780158015614431575b8015614423575b614414576044900490600a8211614405579092849283928392339081141592915b878510613fc357886137af88886040519081527fc85ad4e6d7c6d9539db74ea72099387d7454b9fa8c24ad617b73a8b6962059d560203392a2604054615066565b909192939560448702820195863560601c966024601482013560801c9101359188156143f657613ff382336161d6565b600d54821015806143ed575b6143de5787806143d4575b806143b3575b6143a4578b8052600560205260408c20868d526020528b60ff60408220541683825260056020526040822088835260205260ff60408181852054169386815260096020528181208b8252602052205416908061439c575b80614372575b614363578161435a575b5061434b57818c52600760205260408c20541561433c57818c52600760205260408c20545b831161432d576001600160a01b0389166000908152603a60205260409020828d5260205260408c20541580614320575b614311576001600160a01b0389166000908152603a60205260409020828d52602052888c6040812054156141b1575b6141678561419e9694868560406141839661412c60019d9b9960018060a01b0316600052603a602052604060002090565b8482526020528181208681540190558381526003602052208481540190556000805160206168318339815191526020604051868152a3615066565b6001600160a01b03909b166000908152603a6020526040902090565b908d5260205260408c2054036141a95760ff835b1690615066565b960193929190613f82565b60ff8b614197565b506001600160a01b03166000908152603a60205260409020828d5260205268056bc75e2d6310000060408d2055818c52600360205260408c2080549068056bc75e2d6310000082018092116142fd576000805160206167f18339815191528e85938d9355838152600b6020526040812061422b8154615294565b905580a36001600160a01b0389166000908152603a602052604090208c8052602052888c60408120546140fb57506001600160a01b03166000908152603a602052604090208c805260205268056bc75e2d6310000060408d20558b8052600360205260408c2080549068056bc75e2d6310000082018092116142fd57614167858f94868e604061419e9a9860019c9a986141839855808052600b6020528181206142d58154615294565b905580836000805160206167f18339815191528280a3965050955096985094509550506140fb565b634e487b7160e01b8e52601160045260248efd5b63a817b64760e01b8c5260048cfd5b50629896808710156140cc565b631b4a9d9760e21b8c5260048cfd5b68056bc75e2d6310000061409c565b63e491c33360e01b8c5260048cfd5b90501538614077565b63b71284df60e01b8e5260048efd5b5083158e8115614383575b5061406d565b60ff9150808660409252600a602052205416158e61437d565b508015614067565b63b0789e0960e01b8c5260048cfd5b50336000908152603a60205260409020828d5260205260408c205415614010565b503033141561400a565b63677510db60e11b8c5260048cfd5b50811515613fff565b630702b3d960e41b8c5260048cfd5b6305beb17160e11b8552600485fd5b6333b094a160e01b8552600485fd5b506161a86044820411613f61565b50604481061515613f5a565b636fcf93ab60e11b8552600485fd5b5034610790576040366003190112610790576004356001600160401b03811161101a5761447d903690600401614f64565b6024356001600160401b0381116110165761449c903690600401614f64565b336000908152603a602052604090209091908380526020526040832054158061496f575b61496057600d549182845260016020526040842082516001600160401b0381116148e1576144f8816144f28454615073565b84615242565b6020601f82116001146149005790806145269288916148f5575b508160011b916000199060031b1c19161790565b90555b8284526002602052604084209181516001600160401b0381116148e157906020958261456187959461455b8854615073565b88615242565b87601f821160011461485657956145b48284937f8ba3d42bca86b60bd78de817b5db8a798100d6d738d4ac18ebb2fbd01dfb863a989961473a969161484b57508160011b916000199060031b1c19161790565b90555b858152602b885260326040822055858152602c885260326040822055858152602d8852600a60408220558581526007885268056bc75e2d631000006040822055858152603d88526802b5e3af16b18800006040822055858152603e8852680410d586a20a4c00006040822055858152600888526040812060018060a01b0333168252885260408120600160ff19825416179055614655600d54615294565b600d55336000908152603a602052604090208190818052895260408120541561480d575b338152603a89526040812087825289526040812068056bc75e2d631000008154019055868152600389526040812068056bc75e2d6310000081540190558660405168056bc75e2d6310000081526000805160206168318339815191528b3392a3868152600b8952604081206146ee8154615294565b9055336000908152603a60205260409020878252895268056bc75e2d631000006040822054146147f4575b868152601d8952604081205415806147ea575b6147d6575b50600c54615066565b600c55336000908152600f602052604090205460ff161561479d575b61476560405192839283615041565b0390a260405160018152817f4d0ee27a594c40de3e7fd6fc3f55fac9886753068f8d23420081727b594699a2843393a3604051908152f35b336000908152600f60205260409020600160ff1982541617905560405160018152600080516020616811833981519152873392a2614756565b6040818860039352601d8b52205538614731565b50601c541561472c565b86336000805160206167f18339815191528380a3614719565b905061481833616691565b600190808052600b8952604081206148308154615294565b905580336000805160206167f18339815191528280a3614679565b905087015138614512565b9590601f19811682845287842090845b8181106148c75750916001917f8ba3d42bca86b60bd78de817b5db8a798100d6d738d4ac18ebb2fbd01dfb863a98998261473a979695106148ae575b5050811b0190556145b7565b88015160001960f88460031b161c1916905538806148a2565b898801518355988b01988a98506001909201918b01614866565b634e487b7160e01b86526041600452602486fd5b905085015138614512565b82875280872090601f198316885b8181106149485750908360019493921061492f575b5050811b019055614529565b86015160001960f88460031b161c191690553880614923565b9192602060018192868b01518155019401920161490e565b63a817b64760e01b8352600483fd5b5062989680600c5410156144c0565b5034610790576020366003190112610790576004356001600160401b03811161101a576149af903690600401614ea9565b80158015614a49575b8015614a3b575b614a2c576021900490825b8281106149d5578380f35b6021810282018035808652602360205260408620805415614a1d5791614a1791614a066002600196950154336161d6565b8460203393013560f81c1690615ebd565b016149ca565b631dc0650160e31b8752600487fd5b6333b094a160e01b8352600483fd5b506161a860218204116149bf565b506021810615156149b8565b503461079057604036600319011261079057600435602435614a756151cc565b818352602f6020526040832090815415614e2e57600b8201805490614a9a82336161d6565b60098401544211614e1f5784865260306020908152604080882033895290915286205460ff16614e1057858052602a6020908152604080882033895290915286205460ff1680614dc8575b614db957818652602a6020908152604080882033895290915286205460ff16614daa57600c84015460ff16918215614d8957336000908152603a602052604090209087526020526040862054915b8215614d7a5780614d4c575b80614d3d575b614d2e576007840154151580614d25575b614bd1575b508254855260306020908152604080872033808952908352818820805460ff191660011790556005860180549490940190935584548151938452918301939093526137af946137a794909390927f5f741d08188ce1b820c0a0539f84488705d838c57c8f6064cce21c8c73a1cc639190a2616318565b600684019060018060a01b038254166040516370a0823160e01b8152336004820152602081602481855afa8015614d1a5786918a91614ce1575b5010614cd257602088916064604051809481936323b872dd60e01b83523360048401523060248401528a60448401525af1908115614cc7578891614ca8575b5015614c9957858752603b60209081526040808920338a528252808920805487019055915488526006815281882092546001600160a01b031688529190915285208054830190556137af614b5b565b6312171d8360e31b8752600487fd5b614cc1915060203d602011611a5057611a428183614ef1565b38614c4a565b6040513d8a823e3d90fd5b6378dbf0af60e11b8852600488fd5b9150506020813d602011614d12575b81614cfd60209383614ef1565b81010312614d0e5785905138614c0b565b8880fd5b3d9150614cf0565b6040513d8b823e3d90fd5b50821515614b56565b63a817b64760e01b8652600486fd5b5062989680600c541015614b45565b5060018401546001600160a01b03166000908152603a60205260409020868052602052604086205415614b3f565b630b2bd92d60e11b8752600487fd5b50336000908152603a60205260409020868052602052604086205491614b33565b631e461f3960e21b8652600486fd5b63f86cf85360e01b8652600486fd5b5081158015614df9575b80614ae5575081865260096020908152604080882033895290915286205460ff1615614ae5565b50818652600a60205260ff60408720541615614dd2565b633706ba4960e01b8652600486fd5b63370ec37160e21b8652600486fd5b6339376f9d60e21b8452600484fd5b90503461101a57604036600319011261101a576020916040906001600160a01b03614e66614e7d565b168152603a84528181206024358252845220548152f35b600435906001600160a01b038216820361101157565b602435906001600160a01b038216820361101157565b9181601f84011215611011578235916001600160401b038311611011576020838186019501011161101157565b60e081019081106001600160401b03821117610fec57604052565b90601f801991011681019081106001600160401b03821117610fec57604052565b6001600160401b038111610fec57601f01601f191660200190565b929192614f3982614f12565b91614f476040519384614ef1565b829481845281830111611011578281602093846000960137010152565b9080601f8301121561101157816020614f7f93359101614f2d565b90565b606090600319011261101157600435906024359060443590565b60243590811515820361101157565b60809060031901126110115760043590602435906044359060643590565b608090600319011261101157600435906024356001600160a01b038116810361101157906044358015158103611011579060643590565b919082519283825260005b84811061502c575050826000602080949584010152601f8019910116010190565b8060208092840101518282860101520161500b565b9091615058614f7f93604084526040840190615000565b916020818403910152615000565b9190820180921161321457565b90600182811c921680156150a3575b602083101461508d57565b634e487b7160e01b600052602260045260246000fd5b91607f1691615082565b600092918154916150bd83615073565b808352926001811690811561511357506001146150d957505050565b60009081526020812093945091925b8383106150f9575060209250010190565b6001816020929493945483858701015201910191906150e8565b915050602093945060ff929192191683830152151560051b010190565b9081600052600a60205260ff60406000205416156151a557816000526009602052604060002060018060a01b03821660005260205260ff60406000205416918261517957505090565b909150600052600560205260406000209060018060a01b031660005260205260ff604060002054161590565b6001600160a01b03811660009081526004602052604090205460ff16918261517957505090565b6002600054146151dd576002600055565b60405162461bcd60e51b815260206004820152601f60248201527f5265656e7472616e637947756172643a207265656e7472616e742063616c6c006044820152606490fd5b811561522c570490565b634e487b7160e01b600052601260045260246000fd5b601f821161524f57505050565b6000526020600020906020601f840160051c8301931061528a575b601f0160051c01905b81811061527e575050565b60008155600101615273565b909150819061526a565b60001981146132145760010190565b8181029291811591840414171561321457565b6060810180516001600160a01b03166000908152600460205260409020549394909391929160ff16156158925760008080526005602081815286516001600160a01b0390811684527f05b8ccbb9d4d8fb16ea74ce3c29a41f1b461fbdaff4714a0d9a8eb05499746bc8252604080852054888401805187529484528186208a518416875284528186205485518752600985528287208b519094168752929093529093205460ff938416939081169291169081615889575b8161585c575b5061584b5781615842575b50615831575b83516001600160a01b03928316921682148015615824575b1561581957604083018051600090156157c55750515b935b516001600160a01b0390811691168114806157b9575b1561579f5750506080810180516000526023602052604060002080541591821561578f575b821561577c575b8215615732575b50811561571e575b5061570d575b60a081018051806156b0575b505080516020820180519092916001600160a01b0316801561569f57600d5482101580615696575b6156855760008281526007602052604090205415615676578160005260076020526040600020545b851161566557600052603a6020526040600020906000526020526040600020541580615658575b6156475760018060a01b0390511690519160009382600052603a60205260406000208460005260205260406000205415615511575b5060206000805160206168318339815191529183600052603a82526040600020856000528252604060002081815401905584600052600382526040600020818154019055604051908152a390565b6298968091945010156156475780600052603a60205260406000208260005260205268056bc75e2d63100000604060002055816000526003602052604060002068056bc75e2d63100000815401905581600052600b60205260406000206001815401905581816000805160206167f1833981519152600080a380600052603a602052604060002060008052602052604060002054156155b5575b60019260206154c3565b6000818152603a602090815260408083208380528252822068056bc75e2d63100000908190557f3617319a054d772f909f7c479a2cebe5066e836a939412e32403c99029b92eff80549091019055600b90527fdf7de25b7f1fd6d0b5205f0e18f1f35bd7b8d84cce336588d184533ce43a6f7680546001019055816000805160206167f18339815191528280a36155ab565b63a817b64760e01b60005260046000fd5b506298968084101561548e565b631b4a9d9760e21b60005260046000fd5b68056bc75e2d63100000615467565b63677510db60e11b60005260046000fd5b5081151561543f565b630702b3d960e41b60005260046000fd5b600052602f6020526040600020908154905114908115916156ff575b81156156f0575b506156df573880615417565b6339376f9d60e21b60005260046000fd5b60ff9150600a015416386156d3565b6009810154421191506156cc565b631dc0650160e31b60005260046000fd5b905060096008820154910154101538615405565b9091505160005260256020526040600020546064615773602085018051600052600b6020526040600020549051600052602c602052604060002054906152a3565b041190386153fd565b60028201546020850151141592506153f6565b600b82015460ff161592506153ef565b60a0830151156157b1575b505061540b565b1415386157aa565b5060c0830151156153ca565b602085018051909250806157e5575050506802b5e3af16b18800006153b2565b8152600760205260408120541561580857604091518152600760205220546153b2565b505068056bc75e2d631000006153b2565b6040830151936153b4565b5060c0830151151561539c565b63e491c33360e01b60005260046000fd5b9050153861537e565b63b71284df60e01b60005260046000fd5b5180159150811561586f575b5038615373565b9050600052600a60205260ff604060002054161538615868565b8215915061536d565b835160208401516158ad916001600160a01b031660016162ad565b615384565b6060820180516001600160a01b03166000908152600383016020526040902054949591949293909290919060ff1615615e20576000808052600486016020818152604080842087516001600160a01b03908116865290835281852054898401805187529484528286208951831687528452828620548551875260088c0185528387208a5190931687529190935293205460ff938416939081169291169081615e17575b81615de8575b5061584b5781615ddf575b50615831575b82516001600160a01b03928316921682148015615dd2575b15615dc75760408401805160009015615d705750515b925b516001600160a01b039081169116811480615d64575b15615d4a575050608082018051600052602284016020526040600020805415918215615d3a575b8215615d27575b8215615cd7575b508115615cc3575b5061570d575b60a08201805180615c75575b505060018060a01b038251169260208301928351851561569f57600c83015481101580615c6c575b615685576006830181600052806020526040600020541515600014615c5c57816000526020526040600020545b841161566557603983019560018060a01b0316600052856020526040600020906000526020526040600020541580615c4f575b615647575192516001600160a01b039093166000818152602086815260408083208784529091528120549096949591949015615b12575b506001600160a01b03841660009081526020918252604080822087835283528082208054860190556002939093018252829020805484019055905191825260008051602061683183398151915291a390565b6298968091965010156156475760008051602061683183398151915291600260209260018060a01b038616600052878452604060002087600052845268056bc75e2d6310000060406000205581810187600052808552604060002068056bc75e2d631000008154019055600a8201908860005281865260406000206001815401905588886000805160206167f1833981519152600080a36001600160a01b03881660009081528a87526040808220828052885290205415615bdd575b50506001979294509250615ac0565b60018060a01b038816600052898652604060002060008052865268056bc75e2d63100000604060002055600080528552604060002068056bc75e2d6310000081540190556000805284526040600020600181540190556000866000805160206167f18339815191528280a33880615bce565b5062989680861015615a89565b5068056bc75e2d63100000615a56565b50801515615a29565b600052602e8401602052604060002090815490511490811591615cb5575b8115615ca6575b506156df573880615a01565b60ff9150600a01541638615c9a565b600981015442119150615c93565b9050600960088201549101541015386159ef565b90915051600052602484016020526040600020546064615d1e602086018051600052600a88016020526040600020549051600052602b8801602052604060002054906152a3565b041190386159e7565b60028201546020860151141592506159e0565b600b82015460ff161592506159d9565b60a084015115615d5c575b50506159f5565b141538615d55565b5060c0840151156159b2565b60208601805190925080615d90575050506802b5e3af16b188000061599a565b8152600687016020819052604082205415615db557604092518252602052205461599a565b50505068056bc75e2d6310000061599a565b60408401519261599c565b5060c08401511515615984565b90501538615966565b51801591508115615dfb575b503861595b565b90506000526009870160205260ff604060002054161538615df4565b82159150615955565b82516020850151615e3a916001600160a01b0316876162ad565b61596c565b90816020910312611011575180151581036110115790565b9592615eb594615e9991615ea79460c098949b9a9b60018060a01b03168a5260208a015260018060a01b0316604089015260e0606089015260e0880190615000565b908682036080880152615000565b9084820360a0860152615000565b931515910152565b9182600052602360205260406000209182541561570d57600283018054615ee6818560016162ad565b600a85015442116161c557856000526024602052604060002060018060a01b03851660005260205260ff604060002054166161b4576001600160a01b03841660009081527f25a1a901705ed15d5376e82511cff743d9474883c82d145cebcc7811e0424a9c602052604090205460ff168061615f575b61614e57600052602a602052604060002060018060a01b03841660005260205260ff6040600020541661613d574360005260336020526101f4604060002054101561612c574360005260336020526040600020615fb98154615294565b90555480156160b95760018060a01b038316600052603a6020526040600020906000526020526040600020549182156160a8577f78975aaf742630489badd22949b88ac50eaaea576339ee05440b671a33bfb6a9935b856000526024602052604060002060018060a01b0383166000526020526040600020600160ff1982541617905585600052602560205260406000206160548154615294565b905582156160935760080161606a848254615066565b90555b604080516001600160a01b039092168252911515602082015290810191909152606090a2565b6009016160a1848254615066565b905561606d565b63b0789e0960e01b60005260046000fd5b5060018060a01b038216600052603a60205260406000206000805260205260406000205491821561611b578360ff60077f78975aaf742630489badd22949b88ac50eaaea576339ee05440b671a33bfb6a99601541661600f576001935061600f565b630b2bd92d60e11b60005260046000fd5b63d575c66f60e01b60005260046000fd5b631e461f3960e21b60005260046000fd5b63f86cf85360e01b60005260046000fd5b508015801561619b575b80615f5c5750806000526009602052604060002060018060a01b03851660005260205260ff6040600020541615615f5c565b5080600052600a60205260ff6040600020541615616169565b637c9a1cf960e01b60005260046000fd5b63370ec37160e21b60005260046000fd5b90600052603f60205260ff60406000205416616241576001600160a01b03166000818152600e602052604090205460ff16159081616227575b5061621657565b63ea8e4eb560e01b60005260046000fd5b9050600052600f60205260ff60406000205416153861620f565b637c32ba1d60e11b60005260046000fd5b60008052603f6020527fe9090a6e551363283803e59daf1c144cd0ac55c420ac8519a53d83ef396a73b35460ff16616241576001600160a01b03166000818152600e602052604090205460ff16159081616227575061621657565b9091600052603e810160205260ff60406000205416616241576001600160a01b0382166000908152600d8201602052604090205460ff161591826162f4575b505061621657565b600e925060018060a01b03166000520160205260ff604060002054161538806162ec565b6005810154826000526031602052604060002054118015616683575b61667c57600c81015460ff1691821561667157600b8201546000818152603e60205260409020541561666157600052603e6020526040600020545b905b6000936164bc575b5050600781019081548061639b575b50600a01805460ff191660011790555090565b600b82018054600090815260066020818152604080842092870180546001600160a01b039081168652938352818520805497909703909655855460088801549854915163a9059cbb60e01b815298841660048a0152602489019190915293969390928492604492849291165af19081156164b057600091616491575b501561648057600a92549060018060a01b0390541690806000526006602052604060002060018060a01b0383166000526020527f167b8fecabdfa7ff8ee77b12a1ddca3d239086251b00add8fc240be116451c4d6020604060002054604051908152a338616388565b6312171d8360e31b60005260046000fd5b6164aa915060203d602011611a5057611a428183614ef1565b38616417565b6040513d6000823e3d90fd5b909250600182019260018060a01b0384541690616526600b8501928354604051916164e683614ed6565b82526020820152826040820152306060820152600060808201528460a0820152600060c082015260018060a01b0360395416903091600c549160016158b2565b9460018060a01b0381541680600052603a602052604060002060008052602052604060002054156165c2575b507f321a41b566a977215820e55ed8e0a7cedae8432a21700f674df48255935e25cd9160209160018060a01b03905416809454957fe86aae3667baa3eb0fdc59314938b1ebf01398cc93a90a021d2b59a9cb95ed22604080518981528587820152a3604051908152a33880616379565b95610536616624929397604051906165d982614ed6565b81526000602082015268056bc75e2d631000006040820152306060820152600060808201528660a0820152600060c082015260018060a01b0360395416903091600c549160016158b2565b94600c54906001820180921161321457600c91909155907f321a41b566a977215820e55ed8e0a7cedae8432a21700f674df48255935e25cd616552565b50680410d586a20a4c000061636f565b600782015490616371565b5050600090565b5060ff600a82015416616334565b60009060018060a01b0316808252603a602052604082208280526020526040822068056bc75e2d63100000815401905581805260036020526040822068056bc75e2d631000008154019055600080516020616831833981519152602060405168056bc75e2d631000008152a3565b6000908152601d602052604090205480156167175790565b50601c5490565b908160005260236020526040600020908154159283156167c0575b83156167b1575b831561676b575b50508115616757575b5061570d57565b905060096008820154910154101538616750565b90919250600052602560205260646167a76040600020549280600052600b60205260406000205490600052602c602052604060002054906152a3565b0411903880616747565b60028301548214159350616740565b600b83015460ff1615935061673956fe5a50fbe0d9267d1864b0fec52fca01fe421fc3973f0e547c61e357c5849ceebf10d110aaa7a117a90eed6e9ec3e96729ce1bc0a35c56b25fa189f0850999fbde6f50c1c552bf62b573858ca0cf50e20bc2dc4a154475fbbb8d133d0666497fd32e8ac5177a616f2aec08c3048f5021e4e9743ece034e8d83ba5caf76688bb475a2646970667358221220a5b9c2aedd5a06f146bf78b678761581b988e285c5a6fc7cd132db35d02b73bd64736f6c634300081c0033",
  "linkReferences": {},
  "deployedLinkReferences": {}
}