{
  "_format": "hh-sol-artifact-1",
  "contractName": "VanellixLaunchpadV2",
  "sourceName": "contracts/VanellixLaunchpadV2.sol",
  "abi": [
    {
      "inputs": [],
      "name": "AccountAlreadyAssignedGlobalRole",
      "type": "error"
    },
    {
      "inputs": [],
      "name": "AccountAlreadyOwnsCompany",
      "type": "error"
    },
    {
      "inputs": [],
      "name": "AccountBelongsToCompany",
      "type": "error"
    },
    {
      "inputs": [],
      "name": "BurnWalletAlreadyConfigured",
      "type": "error"
    },
    {
      "inputs": [],
      "name": "BurnWalletNotConfigured",
      "type": "error"
    },
    {
      "inputs": [],
      "name": "CompanyIdAlreadyAssigned",
      "type": "error"
    },
    {
      "inputs": [],
      "name": "CompanyOwnerCannotHaveOtherRoles",
      "type": "error"
    },
    {
      "inputs": [],
      "name": "ConsiglioSaporisAlreadyAssigned",
      "type": "error"
    },
    {
      "inputs": [],
      "name": "DelayNotPassed",
      "type": "error"
    },
    {
      "inputs": [],
      "name": "DirectPauseDisabled",
      "type": "error"
    },
    {
      "inputs": [],
      "name": "DirectUnpauseDisabled",
      "type": "error"
    },
    {
      "inputs": [],
      "name": "DominusCannotAssignLevel3",
      "type": "error"
    },
    {
      "inputs": [],
      "name": "DominusSaporisAlreadyAssigned",
      "type": "error"
    },
    {
      "inputs": [],
      "name": "ExceedsMaxRoleLevel",
      "type": "error"
    },
    {
      "inputs": [],
      "name": "InsufficientPermission",
      "type": "error"
    },
    {
      "inputs": [],
      "name": "InvalidAddress",
      "type": "error"
    },
    {
      "inputs": [],
      "name": "InvalidAmount",
      "type": "error"
    },
    {
      "inputs": [],
      "name": "InvalidBurnVault",
      "type": "error"
    },
    {
      "inputs": [],
      "name": "InvalidCompanyRoleLevel",
      "type": "error"
    },
    {
      "inputs": [],
      "name": "InvalidFeeToken",
      "type": "error"
    },
    {
      "inputs": [],
      "name": "InvalidRoleForCompanyAssignment",
      "type": "error"
    },
    {
      "inputs": [],
      "name": "InvalidRoleForGlobalAssignment",
      "type": "error"
    },
    {
      "inputs": [],
      "name": "InvalidTransitionPeriod",
      "type": "error"
    },
    {
      "inputs": [],
      "name": "LaunchpadNotConfigured",
      "type": "error"
    },
    {
      "inputs": [],
      "name": "NameRequired",
      "type": "error"
    },
    {
      "inputs": [],
      "name": "NewMaxTooLow",
      "type": "error"
    },
    {
      "inputs": [],
      "name": "NoPendingRequest",
      "type": "error"
    },
    {
      "inputs": [],
      "name": "NoPendingTransfer",
      "type": "error"
    },
    {
      "inputs": [],
      "name": "NotAcceptedContract",
      "type": "error"
    },
    {
      "inputs": [],
      "name": "NotAuthorized",
      "type": "error"
    },
    {
      "inputs": [],
      "name": "NotCompanyMember",
      "type": "error"
    },
    {
      "inputs": [],
      "name": "NotCompanySegment",
      "type": "error"
    },
    {
      "inputs": [],
      "name": "NotOwnerNorAdmin",
      "type": "error"
    },
    {
      "inputs": [],
      "name": "OnlyConsiglioOrGlobalAdmin",
      "type": "error"
    },
    {
      "inputs": [],
      "name": "PendingRequestAlreadyExists",
      "type": "error"
    },
    {
      "inputs": [],
      "name": "RenounceOwnershipDisabled",
      "type": "error"
    },
    {
      "inputs": [],
      "name": "RoleDoesNotExist",
      "type": "error"
    },
    {
      "inputs": [],
      "name": "TokenAlreadyFinalized",
      "type": "error"
    },
    {
      "inputs": [],
      "name": "TokenLimitReached",
      "type": "error"
    },
    {
      "inputs": [],
      "name": "TransferDelayNotPassed",
      "type": "error"
    },
    {
      "inputs": [],
      "name": "TransferOwnershipDirectDisabled",
      "type": "error"
    },
    {
      "inputs": [],
      "name": "UnauthorizedCaller",
      "type": "error"
    },
    {
      "inputs": [],
      "name": "UpgradeToAndCallDisabled",
      "type": "error"
    },
    {
      "inputs": [],
      "name": "UpgradeToDisabled",
      "type": "error"
    },
    {
      "inputs": [],
      "name": "ZeroAddress",
      "type": "error"
    },
    {
      "anonymous": false,
      "inputs": [
        {
          "indexed": false,
          "internalType": "address",
          "name": "previousAdmin",
          "type": "address"
        },
        {
          "indexed": false,
          "internalType": "address",
          "name": "newAdmin",
          "type": "address"
        }
      ],
      "name": "AdminChanged",
      "type": "event"
    },
    {
      "anonymous": false,
      "inputs": [
        {
          "indexed": true,
          "internalType": "address",
          "name": "beacon",
          "type": "address"
        }
      ],
      "name": "BeaconUpgraded",
      "type": "event"
    },
    {
      "anonymous": false,
      "inputs": [
        {
          "indexed": true,
          "internalType": "string",
          "name": "segment",
          "type": "string"
        },
        {
          "indexed": true,
          "internalType": "address",
          "name": "contractAddress",
          "type": "address"
        },
        {
          "indexed": true,
          "internalType": "address",
          "name": "setBy",
          "type": "address"
        }
      ],
      "name": "ContractSet",
      "type": "event"
    },
    {
      "anonymous": false,
      "inputs": [
        {
          "indexed": false,
          "internalType": "uint256",
          "name": "percentage",
          "type": "uint256"
        }
      ],
      "name": "FeePercentageSet",
      "type": "event"
    },
    {
      "anonymous": false,
      "inputs": [
        {
          "indexed": true,
          "internalType": "address",
          "name": "token",
          "type": "address"
        }
      ],
      "name": "FeeTokenSet",
      "type": "event"
    },
    {
      "anonymous": false,
      "inputs": [
        {
          "indexed": false,
          "internalType": "uint8",
          "name": "version",
          "type": "uint8"
        }
      ],
      "name": "Initialized",
      "type": "event"
    },
    {
      "anonymous": false,
      "inputs": [
        {
          "indexed": false,
          "internalType": "address",
          "name": "newImplementation",
          "type": "address"
        }
      ],
      "name": "LaunchpadUpgradeAccepted",
      "type": "event"
    },
    {
      "anonymous": false,
      "inputs": [],
      "name": "LaunchpadUpgradeCancelled",
      "type": "event"
    },
    {
      "anonymous": false,
      "inputs": [
        {
          "indexed": false,
          "internalType": "address",
          "name": "newImplementation",
          "type": "address"
        },
        {
          "indexed": false,
          "internalType": "uint256",
          "name": "timestamp",
          "type": "uint256"
        },
        {
          "indexed": true,
          "internalType": "address",
          "name": "assignedBy",
          "type": "address"
        }
      ],
      "name": "LaunchpadUpgradeProposed",
      "type": "event"
    },
    {
      "anonymous": false,
      "inputs": [
        {
          "indexed": true,
          "internalType": "address",
          "name": "currentOwner",
          "type": "address"
        }
      ],
      "name": "OwnershipTransferCancelled",
      "type": "event"
    },
    {
      "anonymous": false,
      "inputs": [
        {
          "indexed": true,
          "internalType": "address",
          "name": "previousOwner",
          "type": "address"
        },
        {
          "indexed": true,
          "internalType": "address",
          "name": "newOwner",
          "type": "address"
        }
      ],
      "name": "OwnershipTransferCompleted",
      "type": "event"
    },
    {
      "anonymous": false,
      "inputs": [
        {
          "indexed": true,
          "internalType": "address",
          "name": "currentOwner",
          "type": "address"
        },
        {
          "indexed": true,
          "internalType": "address",
          "name": "pendingOwner",
          "type": "address"
        },
        {
          "indexed": false,
          "internalType": "uint256",
          "name": "requestTime",
          "type": "uint256"
        }
      ],
      "name": "OwnershipTransferRequested",
      "type": "event"
    },
    {
      "anonymous": false,
      "inputs": [
        {
          "indexed": true,
          "internalType": "address",
          "name": "previousOwner",
          "type": "address"
        },
        {
          "indexed": true,
          "internalType": "address",
          "name": "newOwner",
          "type": "address"
        }
      ],
      "name": "OwnershipTransferred",
      "type": "event"
    },
    {
      "anonymous": false,
      "inputs": [
        {
          "indexed": false,
          "internalType": "address",
          "name": "account",
          "type": "address"
        }
      ],
      "name": "Paused",
      "type": "event"
    },
    {
      "anonymous": false,
      "inputs": [
        {
          "indexed": true,
          "internalType": "address",
          "name": "vault",
          "type": "address"
        }
      ],
      "name": "PyreVaultIgnited",
      "type": "event"
    },
    {
      "anonymous": false,
      "inputs": [
        {
          "indexed": false,
          "internalType": "string",
          "name": "roleName",
          "type": "string"
        },
        {
          "indexed": true,
          "internalType": "address",
          "name": "account",
          "type": "address"
        },
        {
          "indexed": true,
          "internalType": "address",
          "name": "assignedBy",
          "type": "address"
        }
      ],
      "name": "RoleAssignedHierarchical",
      "type": "event"
    },
    {
      "anonymous": false,
      "inputs": [
        {
          "indexed": false,
          "internalType": "string",
          "name": "roleName",
          "type": "string"
        },
        {
          "indexed": true,
          "internalType": "address",
          "name": "account",
          "type": "address"
        },
        {
          "indexed": true,
          "internalType": "address",
          "name": "assignedBy",
          "type": "address"
        },
        {
          "indexed": false,
          "internalType": "uint256",
          "name": "companyId",
          "type": "uint256"
        }
      ],
      "name": "RoleAssignedHierarchicalCompany",
      "type": "event"
    },
    {
      "anonymous": false,
      "inputs": [
        {
          "indexed": false,
          "internalType": "string",
          "name": "roleName",
          "type": "string"
        },
        {
          "indexed": false,
          "internalType": "bytes32",
          "name": "role",
          "type": "bytes32"
        }
      ],
      "name": "RoleCreated",
      "type": "event"
    },
    {
      "anonymous": false,
      "inputs": [
        {
          "indexed": true,
          "internalType": "bytes32",
          "name": "role",
          "type": "bytes32"
        },
        {
          "indexed": true,
          "internalType": "address",
          "name": "account",
          "type": "address"
        },
        {
          "indexed": true,
          "internalType": "address",
          "name": "revokedBy",
          "type": "address"
        }
      ],
      "name": "RoleRevoked",
      "type": "event"
    },
    {
      "anonymous": false,
      "inputs": [
        {
          "indexed": true,
          "internalType": "string",
          "name": "name",
          "type": "string"
        },
        {
          "indexed": true,
          "internalType": "address",
          "name": "router",
          "type": "address"
        },
        {
          "indexed": true,
          "internalType": "address",
          "name": "factory",
          "type": "address"
        }
      ],
      "name": "SwapRouterSet",
      "type": "event"
    },
    {
      "anonymous": false,
      "inputs": [
        {
          "indexed": false,
          "internalType": "uint256",
          "name": "amount",
          "type": "uint256"
        },
        {
          "indexed": true,
          "internalType": "address",
          "name": "token",
          "type": "address"
        },
        {
          "indexed": true,
          "internalType": "uint256",
          "name": "companyId",
          "type": "uint256"
        }
      ],
      "name": "TokensBurned",
      "type": "event"
    },
    {
      "anonymous": false,
      "inputs": [
        {
          "indexed": false,
          "internalType": "address",
          "name": "account",
          "type": "address"
        }
      ],
      "name": "Unpaused",
      "type": "event"
    },
    {
      "anonymous": false,
      "inputs": [
        {
          "indexed": true,
          "internalType": "address",
          "name": "proxy",
          "type": "address"
        },
        {
          "indexed": false,
          "internalType": "address",
          "name": "newImplementation",
          "type": "address"
        }
      ],
      "name": "UpgradeAccepted",
      "type": "event"
    },
    {
      "anonymous": false,
      "inputs": [
        {
          "indexed": true,
          "internalType": "address",
          "name": "proxy",
          "type": "address"
        }
      ],
      "name": "UpgradeCancelled",
      "type": "event"
    },
    {
      "anonymous": false,
      "inputs": [
        {
          "indexed": true,
          "internalType": "address",
          "name": "proxy",
          "type": "address"
        },
        {
          "indexed": false,
          "internalType": "address",
          "name": "newImplementation",
          "type": "address"
        },
        {
          "indexed": false,
          "internalType": "uint256",
          "name": "timestamp",
          "type": "uint256"
        },
        {
          "indexed": true,
          "internalType": "address",
          "name": "assignedBy",
          "type": "address"
        }
      ],
      "name": "UpgradeProposed",
      "type": "event"
    },
    {
      "anonymous": false,
      "inputs": [
        {
          "indexed": true,
          "internalType": "address",
          "name": "implementation",
          "type": "address"
        }
      ],
      "name": "Upgraded",
      "type": "event"
    },
    {
      "anonymous": false,
      "inputs": [
        {
          "indexed": true,
          "internalType": "address",
          "name": "vault",
          "type": "address"
        }
      ],
      "name": "VaultIgnitionCancelled",
      "type": "event"
    },
    {
      "anonymous": false,
      "inputs": [
        {
          "indexed": true,
          "internalType": "address",
          "name": "vault",
          "type": "address"
        },
        {
          "indexed": false,
          "internalType": "uint256",
          "name": "timestamp",
          "type": "uint256"
        }
      ],
      "name": "VaultIgnitionRequested",
      "type": "event"
    },
    {
      "inputs": [
        {
          "internalType": "address",
          "name": "proxy",
          "type": "address"
        }
      ],
      "name": "acceptEmergencyChildUpgrade",
      "outputs": [],
      "stateMutability": "nonpayable",
      "type": "function"
    },
    {
      "inputs": [
        {
          "internalType": "address",
          "name": "newImplementation",
          "type": "address"
        }
      ],
      "name": "acceptEmergencyLaunchpadUpgrade",
      "outputs": [],
      "stateMutability": "nonpayable",
      "type": "function"
    },
    {
      "inputs": [],
      "name": "acceptLaunchpadUpgrade",
      "outputs": [],
      "stateMutability": "nonpayable",
      "type": "function"
    },
    {
      "inputs": [
        {
          "internalType": "address",
          "name": "proxy",
          "type": "address"
        }
      ],
      "name": "acceptUpgrade",
      "outputs": [],
      "stateMutability": "nonpayable",
      "type": "function"
    },
    {
      "inputs": [
        {
          "internalType": "address",
          "name": "vault",
          "type": "address"
        }
      ],
      "name": "activateBurnVault",
      "outputs": [],
      "stateMutability": "nonpayable",
      "type": "function"
    },
    {
      "inputs": [
        {
          "internalType": "uint256",
          "name": "companyId",
          "type": "uint256"
        },
        {
          "internalType": "bytes32",
          "name": "role",
          "type": "bytes32"
        },
        {
          "internalType": "uint256",
          "name": "roleLevel",
          "type": "uint256"
        },
        {
          "internalType": "address",
          "name": "account",
          "type": "address"
        },
        {
          "internalType": "address",
          "name": "assignedBy",
          "type": "address"
        },
        {
          "internalType": "string",
          "name": "roleName",
          "type": "string"
        }
      ],
      "name": "assignCompanyRole",
      "outputs": [],
      "stateMutability": "nonpayable",
      "type": "function"
    },
    {
      "inputs": [
        {
          "internalType": "string",
          "name": "roleName",
          "type": "string"
        },
        {
          "internalType": "address",
          "name": "account",
          "type": "address"
        },
        {
          "internalType": "uint256",
          "name": "roleLevel",
          "type": "uint256"
        }
      ],
      "name": "assignVanellixRole",
      "outputs": [],
      "stateMutability": "nonpayable",
      "type": "function"
    },
    {
      "inputs": [
        {
          "internalType": "address",
          "name": "tokenSale",
          "type": "address"
        },
        {
          "internalType": "address",
          "name": "feeTokenParam",
          "type": "address"
        },
        {
          "internalType": "uint256",
          "name": "totalTransactionAmount",
          "type": "uint256"
        },
        {
          "internalType": "address",
          "name": "sender",
          "type": "address"
        },
        {
          "internalType": "uint256",
          "name": "companyId",
          "type": "uint256"
        }
      ],
      "name": "burnFees",
      "outputs": [
        {
          "internalType": "uint256",
          "name": "",
          "type": "uint256"
        }
      ],
      "stateMutability": "nonpayable",
      "type": "function"
    },
    {
      "inputs": [
        {
          "internalType": "address",
          "name": "proxy",
          "type": "address"
        }
      ],
      "name": "cancelEmergencyChildUpgrade",
      "outputs": [],
      "stateMutability": "nonpayable",
      "type": "function"
    },
    {
      "inputs": [
        {
          "internalType": "address",
          "name": "newImplementation",
          "type": "address"
        }
      ],
      "name": "cancelEmergencyLaunchpadUpgrade",
      "outputs": [],
      "stateMutability": "nonpayable",
      "type": "function"
    },
    {
      "inputs": [],
      "name": "cancelLaunchpadUpgrade",
      "outputs": [],
      "stateMutability": "nonpayable",
      "type": "function"
    },
    {
      "inputs": [],
      "name": "cancelOwnershipTransfer",
      "outputs": [],
      "stateMutability": "nonpayable",
      "type": "function"
    },
    {
      "inputs": [
        {
          "internalType": "address",
          "name": "proxy",
          "type": "address"
        }
      ],
      "name": "cancelUpgrade",
      "outputs": [],
      "stateMutability": "nonpayable",
      "type": "function"
    },
    {
      "inputs": [
        {
          "internalType": "address",
          "name": "vault",
          "type": "address"
        }
      ],
      "name": "cancelVaultUpdate",
      "outputs": [],
      "stateMutability": "nonpayable",
      "type": "function"
    },
    {
      "inputs": [
        {
          "internalType": "address",
          "name": "account",
          "type": "address"
        }
      ],
      "name": "companyIdOwned",
      "outputs": [
        {
          "internalType": "uint256",
          "name": "",
          "type": "uint256"
        }
      ],
      "stateMutability": "view",
      "type": "function"
    },
    {
      "inputs": [
        {
          "internalType": "address",
          "name": "account",
          "type": "address"
        }
      ],
      "name": "companyIdsByUser",
      "outputs": [
        {
          "internalType": "uint256[]",
          "name": "",
          "type": "uint256[]"
        }
      ],
      "stateMutability": "view",
      "type": "function"
    },
    {
      "inputs": [
        {
          "internalType": "uint256",
          "name": "companyId",
          "type": "uint256"
        }
      ],
      "name": "companyOwners",
      "outputs": [
        {
          "internalType": "address",
          "name": "",
          "type": "address"
        }
      ],
      "stateMutability": "view",
      "type": "function"
    },
    {
      "inputs": [
        {
          "internalType": "address",
          "name": "account",
          "type": "address"
        },
        {
          "internalType": "uint256",
          "name": "companyId",
          "type": "uint256"
        }
      ],
      "name": "companyUserRoles",
      "outputs": [
        {
          "components": [
            {
              "internalType": "uint256",
              "name": "companyId",
              "type": "uint256"
            },
            {
              "internalType": "address",
              "name": "wallet",
              "type": "address"
            },
            {
              "internalType": "bytes32",
              "name": "role",
              "type": "bytes32"
            },
            {
              "internalType": "uint256",
              "name": "roleLevel",
              "type": "uint256"
            },
            {
              "internalType": "address",
              "name": "assignedBy",
              "type": "address"
            },
            {
              "internalType": "bool",
              "name": "isActive",
              "type": "bool"
            }
          ],
          "internalType": "struct GlobalStructs.CompanyUserRole",
          "name": "",
          "type": "tuple"
        }
      ],
      "stateMutability": "view",
      "type": "function"
    },
    {
      "inputs": [],
      "name": "completeOwnershipTransfer",
      "outputs": [],
      "stateMutability": "nonpayable",
      "type": "function"
    },
    {
      "inputs": [
        {
          "internalType": "address",
          "name": "vault",
          "type": "address"
        }
      ],
      "name": "confirmVaultUpdate",
      "outputs": [],
      "stateMutability": "nonpayable",
      "type": "function"
    },
    {
      "inputs": [
        {
          "internalType": "string",
          "name": "roleName",
          "type": "string"
        },
        {
          "internalType": "uint256",
          "name": "level",
          "type": "uint256"
        }
      ],
      "name": "createGlobalRole",
      "outputs": [
        {
          "internalType": "bytes32",
          "name": "",
          "type": "bytes32"
        }
      ],
      "stateMutability": "nonpayable",
      "type": "function"
    },
    {
      "inputs": [],
      "name": "daoTransitionTimestamp",
      "outputs": [
        {
          "internalType": "uint256",
          "name": "",
          "type": "uint256"
        }
      ],
      "stateMutability": "view",
      "type": "function"
    },
    {
      "inputs": [
        {
          "internalType": "address",
          "name": "proxy",
          "type": "address"
        },
        {
          "internalType": "address",
          "name": "newImplementation",
          "type": "address"
        }
      ],
      "name": "emergencyProposeChildUpgrade",
      "outputs": [],
      "stateMutability": "nonpayable",
      "type": "function"
    },
    {
      "inputs": [
        {
          "internalType": "address",
          "name": "newImplementation",
          "type": "address"
        }
      ],
      "name": "emergencyProposeLaunchpadUpgrade",
      "outputs": [],
      "stateMutability": "nonpayable",
      "type": "function"
    },
    {
      "inputs": [],
      "name": "feePercentage",
      "outputs": [
        {
          "internalType": "uint256",
          "name": "",
          "type": "uint256"
        }
      ],
      "stateMutability": "view",
      "type": "function"
    },
    {
      "inputs": [],
      "name": "feeToken",
      "outputs": [
        {
          "internalType": "address",
          "name": "",
          "type": "address"
        }
      ],
      "stateMutability": "view",
      "type": "function"
    },
    {
      "inputs": [],
      "name": "getAdminRole",
      "outputs": [
        {
          "internalType": "bytes32",
          "name": "",
          "type": "bytes32"
        }
      ],
      "stateMutability": "view",
      "type": "function"
    },
    {
      "inputs": [],
      "name": "getBurnVaultDetails",
      "outputs": [
        {
          "components": [
            {
              "internalType": "address",
              "name": "wallet",
              "type": "address"
            },
            {
              "internalType": "address",
              "name": "commissionToken",
              "type": "address"
            },
            {
              "internalType": "uint256",
              "name": "commissionPercentage",
              "type": "uint256"
            },
            {
              "internalType": "string",
              "name": "status",
              "type": "string"
            },
            {
              "internalType": "address",
              "name": "comparisonToken",
              "type": "address"
            },
            {
              "internalType": "uint256",
              "name": "burnTokenMinPrice",
              "type": "uint256"
            }
          ],
          "internalType": "struct GlobalStructs.BurnWalletDetail",
          "name": "",
          "type": "tuple"
        }
      ],
      "stateMutability": "view",
      "type": "function"
    },
    {
      "inputs": [
        {
          "internalType": "address",
          "name": "account",
          "type": "address"
        },
        {
          "internalType": "uint256",
          "name": "companyId",
          "type": "uint256"
        }
      ],
      "name": "getCompanyLevel",
      "outputs": [
        {
          "internalType": "uint256",
          "name": "",
          "type": "uint256"
        }
      ],
      "stateMutability": "view",
      "type": "function"
    },
    {
      "inputs": [],
      "name": "getDaoTransitionPeriod",
      "outputs": [
        {
          "internalType": "uint256",
          "name": "",
          "type": "uint256"
        }
      ],
      "stateMutability": "view",
      "type": "function"
    },
    {
      "inputs": [
        {
          "internalType": "string",
          "name": "roleName",
          "type": "string"
        }
      ],
      "name": "getDynamicRole",
      "outputs": [
        {
          "internalType": "bytes32",
          "name": "",
          "type": "bytes32"
        }
      ],
      "stateMutability": "view",
      "type": "function"
    },
    {
      "inputs": [
        {
          "internalType": "string",
          "name": "roleName",
          "type": "string"
        }
      ],
      "name": "getDynamicRoleLevel",
      "outputs": [
        {
          "internalType": "uint256",
          "name": "",
          "type": "uint256"
        }
      ],
      "stateMutability": "view",
      "type": "function"
    },
    {
      "inputs": [],
      "name": "getFeePercentage",
      "outputs": [
        {
          "internalType": "uint256",
          "name": "",
          "type": "uint256"
        }
      ],
      "stateMutability": "view",
      "type": "function"
    },
    {
      "inputs": [],
      "name": "getFeeToken",
      "outputs": [
        {
          "internalType": "address",
          "name": "",
          "type": "address"
        }
      ],
      "stateMutability": "view",
      "type": "function"
    },
    {
      "inputs": [
        {
          "internalType": "address",
          "name": "account",
          "type": "address"
        }
      ],
      "name": "getHighestRoleLevel",
      "outputs": [
        {
          "internalType": "uint256",
          "name": "",
          "type": "uint256"
        }
      ],
      "stateMutability": "view",
      "type": "function"
    },
    {
      "inputs": [],
      "name": "getImplementation",
      "outputs": [
        {
          "internalType": "address",
          "name": "",
          "type": "address"
        }
      ],
      "stateMutability": "view",
      "type": "function"
    },
    {
      "inputs": [],
      "name": "getImplementationType",
      "outputs": [
        {
          "internalType": "bytes32",
          "name": "",
          "type": "bytes32"
        }
      ],
      "stateMutability": "pure",
      "type": "function"
    },
    {
      "inputs": [],
      "name": "getLaunchpadAddress",
      "outputs": [
        {
          "internalType": "address",
          "name": "",
          "type": "address"
        }
      ],
      "stateMutability": "view",
      "type": "function"
    },
    {
      "inputs": [],
      "name": "getOwner",
      "outputs": [
        {
          "internalType": "address",
          "name": "",
          "type": "address"
        }
      ],
      "stateMutability": "view",
      "type": "function"
    },
    {
      "inputs": [],
      "name": "getOwnerLaunchpad",
      "outputs": [
        {
          "internalType": "address",
          "name": "",
          "type": "address"
        }
      ],
      "stateMutability": "view",
      "type": "function"
    },
    {
      "inputs": [],
      "name": "getPendingChanges",
      "outputs": [
        {
          "components": [
            {
              "internalType": "address",
              "name": "pendingOwner",
              "type": "address"
            },
            {
              "internalType": "uint256",
              "name": "ownershipTransferTimestamp",
              "type": "uint256"
            },
            {
              "components": [
                {
                  "internalType": "address",
                  "name": "wallet",
                  "type": "address"
                },
                {
                  "internalType": "uint256",
                  "name": "timestamp",
                  "type": "uint256"
                }
              ],
              "internalType": "struct GlobalStructs.PendingWalletChange[]",
              "name": "adminAdds",
              "type": "tuple[]"
            },
            {
              "components": [
                {
                  "internalType": "address",
                  "name": "wallet",
                  "type": "address"
                },
                {
                  "internalType": "uint256",
                  "name": "timestamp",
                  "type": "uint256"
                }
              ],
              "internalType": "struct GlobalStructs.PendingWalletChange[]",
              "name": "adminRems",
              "type": "tuple[]"
            },
            {
              "components": [
                {
                  "internalType": "address",
                  "name": "wallet",
                  "type": "address"
                },
                {
                  "internalType": "uint256",
                  "name": "timestamp",
                  "type": "uint256"
                }
              ],
              "internalType": "struct GlobalStructs.PendingWalletChange[]",
              "name": "burnAdds",
              "type": "tuple[]"
            },
            {
              "components": [
                {
                  "internalType": "address",
                  "name": "wallet",
                  "type": "address"
                },
                {
                  "internalType": "uint256",
                  "name": "timestamp",
                  "type": "uint256"
                }
              ],
              "internalType": "struct GlobalStructs.PendingWalletChange[]",
              "name": "burnRems",
              "type": "tuple[]"
            }
          ],
          "internalType": "struct GlobalStructs.PendingChanges",
          "name": "",
          "type": "tuple"
        }
      ],
      "stateMutability": "view",
      "type": "function"
    },
    {
      "inputs": [],
      "name": "getPendingUpgrade",
      "outputs": [
        {
          "internalType": "address",
          "name": "",
          "type": "address"
        }
      ],
      "stateMutability": "view",
      "type": "function"
    },
    {
      "inputs": [
        {
          "internalType": "address",
          "name": "vault",
          "type": "address"
        }
      ],
      "name": "getPendingVaultUpdateTime",
      "outputs": [
        {
          "internalType": "uint256",
          "name": "",
          "type": "uint256"
        }
      ],
      "stateMutability": "view",
      "type": "function"
    },
    {
      "inputs": [],
      "name": "getSwapRouter",
      "outputs": [
        {
          "internalType": "address",
          "name": "",
          "type": "address"
        }
      ],
      "stateMutability": "view",
      "type": "function"
    },
    {
      "inputs": [],
      "name": "getSwapRouterNFactory",
      "outputs": [
        {
          "components": [
            {
              "internalType": "string",
              "name": "name",
              "type": "string"
            },
            {
              "internalType": "address",
              "name": "router",
              "type": "address"
            },
            {
              "internalType": "address",
              "name": "factory",
              "type": "address"
            }
          ],
          "internalType": "struct GlobalStructs.SwapRouterNFactory",
          "name": "",
          "type": "tuple"
        }
      ],
      "stateMutability": "view",
      "type": "function"
    },
    {
      "inputs": [],
      "name": "getTimeRemainingForOwnershipTransfer",
      "outputs": [
        {
          "internalType": "uint256",
          "name": "",
          "type": "uint256"
        }
      ],
      "stateMutability": "view",
      "type": "function"
    },
    {
      "inputs": [],
      "name": "getVersion",
      "outputs": [
        {
          "internalType": "string",
          "name": "",
          "type": "string"
        }
      ],
      "stateMutability": "view",
      "type": "function"
    },
    {
      "inputs": [],
      "name": "initialize",
      "outputs": [],
      "stateMutability": "nonpayable",
      "type": "function"
    },
    {
      "inputs": [
        {
          "internalType": "address",
          "name": "_launchpadAddress",
          "type": "address"
        }
      ],
      "name": "initializeV2",
      "outputs": [],
      "stateMutability": "nonpayable",
      "type": "function"
    },
    {
      "inputs": [
        {
          "internalType": "address",
          "name": "vault",
          "type": "address"
        }
      ],
      "name": "isBurnVault",
      "outputs": [
        {
          "internalType": "bool",
          "name": "",
          "type": "bool"
        }
      ],
      "stateMutability": "view",
      "type": "function"
    },
    {
      "inputs": [],
      "name": "owner",
      "outputs": [
        {
          "internalType": "address",
          "name": "",
          "type": "address"
        }
      ],
      "stateMutability": "view",
      "type": "function"
    },
    {
      "inputs": [],
      "name": "pause",
      "outputs": [],
      "stateMutability": "nonpayable",
      "type": "function"
    },
    {
      "inputs": [
        {
          "internalType": "address",
          "name": "contractAddress",
          "type": "address"
        }
      ],
      "name": "pauseContract",
      "outputs": [],
      "stateMutability": "nonpayable",
      "type": "function"
    },
    {
      "inputs": [],
      "name": "paused",
      "outputs": [
        {
          "internalType": "bool",
          "name": "",
          "type": "bool"
        }
      ],
      "stateMutability": "view",
      "type": "function"
    },
    {
      "inputs": [
        {
          "internalType": "address",
          "name": "proxy",
          "type": "address"
        },
        {
          "internalType": "address",
          "name": "newImplementation",
          "type": "address"
        }
      ],
      "name": "proposeChildUpgrade",
      "outputs": [],
      "stateMutability": "nonpayable",
      "type": "function"
    },
    {
      "inputs": [
        {
          "internalType": "address",
          "name": "newImplementation",
          "type": "address"
        }
      ],
      "name": "proposeLaunchpadUpgrade",
      "outputs": [],
      "stateMutability": "nonpayable",
      "type": "function"
    },
    {
      "inputs": [],
      "name": "proxiableUUID",
      "outputs": [
        {
          "internalType": "bytes32",
          "name": "",
          "type": "bytes32"
        }
      ],
      "stateMutability": "view",
      "type": "function"
    },
    {
      "inputs": [],
      "name": "renounceOwnership",
      "outputs": [],
      "stateMutability": "nonpayable",
      "type": "function"
    },
    {
      "inputs": [
        {
          "internalType": "address",
          "name": "newOwner",
          "type": "address"
        }
      ],
      "name": "requestOwnershipTransfer",
      "outputs": [],
      "stateMutability": "nonpayable",
      "type": "function"
    },
    {
      "inputs": [
        {
          "internalType": "address",
          "name": "vault",
          "type": "address"
        }
      ],
      "name": "requestVaultUpdate",
      "outputs": [],
      "stateMutability": "nonpayable",
      "type": "function"
    },
    {
      "inputs": [
        {
          "internalType": "uint256",
          "name": "companyId",
          "type": "uint256"
        },
        {
          "internalType": "bytes32",
          "name": "role",
          "type": "bytes32"
        },
        {
          "internalType": "uint256",
          "name": "roleLevel",
          "type": "uint256"
        },
        {
          "internalType": "address",
          "name": "account",
          "type": "address"
        },
        {
          "internalType": "address",
          "name": "assignedBy",
          "type": "address"
        },
        {
          "internalType": "string",
          "name": "roleName",
          "type": "string"
        }
      ],
      "name": "revokeCompanyRole",
      "outputs": [],
      "stateMutability": "nonpayable",
      "type": "function"
    },
    {
      "inputs": [
        {
          "internalType": "bytes32",
          "name": "role",
          "type": "bytes32"
        },
        {
          "internalType": "uint256",
          "name": "roleLevel",
          "type": "uint256"
        },
        {
          "internalType": "address",
          "name": "account",
          "type": "address"
        },
        {
          "internalType": "string",
          "name": "roleName",
          "type": "string"
        }
      ],
      "name": "revokeVanellixRole",
      "outputs": [],
      "stateMutability": "nonpayable",
      "type": "function"
    },
    {
      "inputs": [
        {
          "internalType": "address",
          "name": "contractAddress",
          "type": "address"
        },
        {
          "internalType": "string",
          "name": "segment",
          "type": "string"
        }
      ],
      "name": "setContract",
      "outputs": [],
      "stateMutability": "nonpayable",
      "type": "function"
    },
    {
      "inputs": [
        {
          "internalType": "uint256",
          "name": "newPeriod",
          "type": "uint256"
        }
      ],
      "name": "setDaoTransitionPeriod",
      "outputs": [],
      "stateMutability": "nonpayable",
      "type": "function"
    },
    {
      "inputs": [
        {
          "internalType": "uint256",
          "name": "percentage",
          "type": "uint256"
        }
      ],
      "name": "setFeePercentage",
      "outputs": [],
      "stateMutability": "nonpayable",
      "type": "function"
    },
    {
      "inputs": [
        {
          "internalType": "address",
          "name": "token",
          "type": "address"
        }
      ],
      "name": "setFeeToken",
      "outputs": [],
      "stateMutability": "nonpayable",
      "type": "function"
    },
    {
      "inputs": [
        {
          "internalType": "uint256",
          "name": "newMax",
          "type": "uint256"
        }
      ],
      "name": "setMaxRoleLevel",
      "outputs": [],
      "stateMutability": "nonpayable",
      "type": "function"
    },
    {
      "inputs": [
        {
          "internalType": "string",
          "name": "name",
          "type": "string"
        },
        {
          "internalType": "address",
          "name": "router",
          "type": "address"
        },
        {
          "internalType": "address",
          "name": "forge",
          "type": "address"
        }
      ],
      "name": "setSwapRouter",
      "outputs": [],
      "stateMutability": "nonpayable",
      "type": "function"
    },
    {
      "inputs": [
        {
          "internalType": "bytes4",
          "name": "interfaceId",
          "type": "bytes4"
        }
      ],
      "name": "supportsInterface",
      "outputs": [
        {
          "internalType": "bool",
          "name": "",
          "type": "bool"
        }
      ],
      "stateMutability": "view",
      "type": "function"
    },
    {
      "inputs": [],
      "name": "swapRouterNFactory",
      "outputs": [
        {
          "internalType": "string",
          "name": "name",
          "type": "string"
        },
        {
          "internalType": "address",
          "name": "router",
          "type": "address"
        },
        {
          "internalType": "address",
          "name": "factory",
          "type": "address"
        }
      ],
      "stateMutability": "view",
      "type": "function"
    },
    {
      "inputs": [
        {
          "internalType": "address",
          "name": "",
          "type": "address"
        }
      ],
      "name": "transferOwnership",
      "outputs": [],
      "stateMutability": "nonpayable",
      "type": "function"
    },
    {
      "inputs": [],
      "name": "unpause",
      "outputs": [],
      "stateMutability": "nonpayable",
      "type": "function"
    },
    {
      "inputs": [
        {
          "internalType": "address",
          "name": "contractAddress",
          "type": "address"
        }
      ],
      "name": "unpauseContract",
      "outputs": [],
      "stateMutability": "nonpayable",
      "type": "function"
    },
    {
      "inputs": [
        {
          "internalType": "address",
          "name": "proxy",
          "type": "address"
        }
      ],
      "name": "upgradeProposals",
      "outputs": [
        {
          "internalType": "address",
          "name": "newImplementation",
          "type": "address"
        },
        {
          "internalType": "uint256",
          "name": "timestamp",
          "type": "uint256"
        },
        {
          "internalType": "address",
          "name": "assignedBy",
          "type": "address"
        }
      ],
      "stateMutability": "view",
      "type": "function"
    },
    {
      "inputs": [
        {
          "internalType": "address",
          "name": "",
          "type": "address"
        }
      ],
      "name": "upgradeTo",
      "outputs": [],
      "stateMutability": "nonpayable",
      "type": "function"
    },
    {
      "inputs": [
        {
          "internalType": "address",
          "name": "",
          "type": "address"
        },
        {
          "internalType": "bytes",
          "name": "",
          "type": "bytes"
        }
      ],
      "name": "upgradeToAndCall",
      "outputs": [],
      "stateMutability": "payable",
      "type": "function"
    },
    {
      "inputs": [
        {
          "internalType": "string",
          "name": "segment",
          "type": "string"
        }
      ],
      "name": "validateContract",
      "outputs": [
        {
          "internalType": "address",
          "name": "",
          "type": "address"
        }
      ],
      "stateMutability": "view",
      "type": "function"
    },
    {
      "inputs": [
        {
          "internalType": "address",
          "name": "account",
          "type": "address"
        }
      ],
      "name": "vanellixUsers",
      "outputs": [
        {
          "components": [
            {
              "internalType": "address",
              "name": "wallet",
              "type": "address"
            },
            {
              "internalType": "bytes32",
              "name": "role",
              "type": "bytes32"
            },
            {
              "internalType": "uint256",
              "name": "roleLevel",
              "type": "uint256"
            },
            {
              "internalType": "address",
              "name": "assignedBy",
              "type": "address"
            },
            {
              "internalType": "bool",
              "name": "isActive",
              "type": "bool"
            }
          ],
          "internalType": "struct GlobalStructs.VanellixUser",
          "name": "",
          "type": "tuple"
        }
      ],
      "stateMutability": "view",
      "type": "function"
    },
    {
      "inputs": [],
      "name": "version",
      "outputs": [
        {
          "internalType": "string",
          "name": "",
          "type": "string"
        }
      ],
      "stateMutability": "view",
      "type": "function"
    }
  ],
  "bytecode": "0x60a080604052346022573060805261632490816100288239608051816135fb0152f35b600080fdfe608080604052600436101561001357600080fd5b600090813560e01c90816301ffc9a714614e31575080630254720814614d7b57806304820a1914614ca95780630952c50414614bc95780630954ae9614614acb5780630d8e6e2c14614a2257806311efbf611461257357806311f1011614614a0757806315cce2241461488d5780631b1c2c7f146145b05780631b81b31d1461441857806323452b9c14614346578063257f36331461430c57806329b6eca9146140ac5780632a2767e51461404b57806332b1364f14613fb95780633659cfe614613f8757806336d35c8614613f6c5780633705d2f014613ec95780633b7774dd14613cdb5780633f4ba83a14613cb35780633f7d9b8214613bb257806344d710a614613a4257806345f806ab146139c5578063494480d91461371b5780634f1ef286146136be57806352d1902d146135e857806354fd4d50146134ff57806359473acf146133775780635c975abb14613354578063622bfc701461331d578063647846a51461105e5780636bccebdb1461323a578063715018a61461320f578063725c9c49146131e5578063734c619f1461318757806374ced8701461316857806379194627146130595780637bffffe914612f845780638129fc1c14612ae95780638456cb5914612ac1578063892c917514612784578063893d20e8146111ea5780638da5cb5b1461275b578063921c24521461272057806393e39076146126f6578063949bbc56146126945780639fba32b914612592578063a001ecdd14612573578063a3b8af39146124a6578063a93253c114612472578063aaf10f421461242a578063adb99c8a1461230f578063ae06c1b714612237578063aed0814c146121e0578063b3ecf236146121a5578063b5dd917c1461206d578063b79a005514611e07578063bb8c976c14611d9d578063be8a366c146116bb578063be92c6db14611450578063c27bce5f1461131f578063c44fb8ec14611213578063c5a820ce146111ef578063c696804f146111ea578063c87d29df146111cb578063c978d8a5146111a3578063c9b4f4ca14611088578063ca709a251461105e578063cfc1b41914610ea6578063d294382b14610c10578063d396cf9614610b71578063d42f79ef14610a6c578063d97b9bd51461092b578063e02e351d146108ff578063e24e2a6314610737578063e60ad0dc146105eb578063e71a7811146103ba5763f2fde38b1461038657600080fd5b346103b75760203660031901126103b7576004906103a2614e86565b506103ab615568565b635a42e44960e01b8152fd5b80fd5b50346103b757806003193601126103b75761015f5442101561059f576033546001600160a01b03163303610590575b6103f1615568565b603354610171546001600160a01b039081169116811561058157610172546202a300810180911161056d57421061055e579080610556926001600160601b0360a01b610171541661017155846101725561050660405161045081614f5e565b838152602081017fa5ccb6867d103f21ecf1c41cfc2f9edaeab012c60e542a449046031f4b3422f581526003604083019289845260608101938685526080820193600185526104b28960018060a01b0316600052610164602052604060002090565b925183546001600160a01b0319166001600160a01b03918216178455905160018401559051600283015593519101805492516001600160a81b0319909316919093161790151560a01b60ff60a01b16179055565b6001600160a01b038116600090815261016460205260409020600301805460ff60a01b191690557fe9a5158ac7353c7c7322ececc080bc8e89334efa5795b6e21e40eb266b0003d68580a3616072565b600160fb5580f35b631442118160e11b8352600483fd5b634e487b7160e01b84526011600452602484fd5b63357a03ed60e21b8352600483fd5b63ea8e4eb560e01b8152600490fd5b6040516244414f60e81b8152610163600382015260239020546001600160a01b031680156105dc5733146103e957635c427cd960e01b8152600490fd5b6336939d7d60e21b8252600482fd5b50346103b75760203660031901126103b757610605614e86565b61015f544210156106eb576033546001600160a01b031633036106dc575b61062b615568565b6001600160a01b038116600090815261017d60205260409020548015610581576201518081018091116106c85742106106b9576001600160a01b038116600090815261017d6020526040902061055691908390556040516001600160a01b03821681527f59b22fe8b92d7f99b54034c49432db394b5fad64472967b2cba6f5a999fed00790602090a1615d91565b631442118160e11b8252600482fd5b634e487b7160e01b83526011600452602483fd5b63ea8e4eb560e01b8252600482fd5b6040516244414f60e81b8152610163600382015260239020546001600160a01b0316801561072857331461062357635c427cd960e01b8252600482fd5b6336939d7d60e21b8352600483fd5b50346103b75760803660031901126103b757602435600435610757614eb7565b916064356001600160401b0381116108fb5761077790369060040161504b565b61078033615647565b600133818060a01b03603354161491149061015f54421060001461089157159081610888575b50610879576107be83915b6107b9615568565b6152d7565b540361086a57600181108015610860575b610851576107dc33615647565b1015610842576001600160a01b0391909116600081815261016460205260409020838155600181018490556002810184905560030183905533917ff6391f5c32d9c69d2a47ea670b442974b53935d1edc7fd64eb21e047a839171b8480a4600160fb5580f35b630deda90360e41b8352600483fd5b63ba8db6af60e01b8452600484fd5b50600281116107cf565b63b810dc5d60e01b8452600484fd5b630ba9cf7d60e01b8552600485fd5b905015386107a6565b6040516244414f60e81b8152610163600382015260239020546001600160a01b03169081156108ec571591826108e3575b50816108d8575b50610879576107be83916107b1565b9050331415386108c9565b159150386108c2565b6336939d7d60e21b8852600488fd5b8480fd5b50346103b75760203660031901126103b757602061092361091e614e86565b615412565b604051908152f35b50346103b75760203660031901126103b757610945614e86565b61094e33615647565b600133818060a01b03603354161491149061015f544210600014610a05571590816109fc575b506109ed5781905b610984615568565b61098e81806161a0565b6001600160a01b0316803b156109ea57818091600460405180948193631fa5d41d60e11b83525af180156109df576109ca575b50600160fb5580f35b816109d491614fd8565b6103b75780386109c1565b6040513d84823e3d90fd5b50fd5b630ba9cf7d60e01b8252600482fd5b90501538610974565b6040516244414f60e81b8152610163600382015260239020546001600160a01b0316908115610a5d57159182610a54575b5081610a49575b506109ed57819061097c565b905033141538610a3d565b15915038610a36565b6336939d7d60e21b8552600485fd5b50346103b75760203660031901126103b757610a86614e86565b61015f54421015610b34576033546001600160a01b031633036106dc575b610aac615568565b6001600160a01b038116600090815261016f602052604090205415610b25576001600160a01b038116600090815261016f60205260409020829055610af0816160bb565b6001600160a01b03167f749159e34d3b1d5a3731c64f970f74cb6f8b53447dd949e4f518d2f7e408f61f8280a2600160fb5580f35b63198580dd60e31b8252600482fd5b6040516244414f60e81b8152610163600382015260239020546001600160a01b03168015610728573314610aa457635c427cd960e01b8252600482fd5b50346103b75760203660031901126103b75760043561015f544210600014610bd3576033546001600160a01b031633036106dc575b610bae615568565b620151808110610bc45761018855600160fb5580f35b6352b9311160e11b8252600482fd5b6040516244414f60e81b8152610163600382015260239020546001600160a01b03168015610728573314610ba657635c427cd960e01b8252600482fd5b50346103b75760603660031901126103b7576004356001600160401b038111610ea257610c4190369060040161504b565b610c49614ea1565b610c51614eb7565b9061015f544210600014610e65576033546001600160a01b03163303610e56575b610c7a615568565b6040516020810190610ca86020828751610c978187858c01614f16565b81010301601f198101835282614fd8565b519020604051858152610cbc602082614fd8565b60208151910120148015610e45575b8015610e34575b610e255782516001600160401b038111610e1157610cfe81610cf661019354615069565b610193615292565b6020601f8211600114610da9579080610d7293928791610d9e575b508160011b916000199060031b1c191617610193555b60018060a01b031691826001600160601b0360a01b6101945416176101945560018060a01b031692836001600160601b0360a01b610195541617610195556153f2565b7fc81c01672b6ff4d4218e8c127ffde1c12f675a7205233e95431fa7df38ce46808480a4600160fb5580f35b905085015138610d19565b610193865280862090601f198316875b818110610df95750918391610d72959460019410610de0575b5050811b0161019355610d2f565b87015160001960f88460031b161c191690553880610dd2565b9192602060018192868b015181550194019201610db9565b634e487b7160e01b85526041600452602485fd5b63d92e233d60e01b8452600484fd5b506001600160a01b03821615610cd2565b506001600160a01b03811615610ccb565b63ea8e4eb560e01b8452600484fd5b6040516244414f60e81b8152610163600382015260239020546001600160a01b03168015610a5d573314610c7257635c427cd960e01b8452600484fd5b5080fd5b50346103b75760203660031901126103b757610ec0614e86565b61015f54421015611021576033546001600160a01b031633036106dc575b610ee6615568565b6001600160a01b038116600090815261017b602052604090209060405191610f0d83614faa565b80546001600160a01b03908116845260018201546020850181815260029093015490911660408501521561101257516202a300810180911161056d57421061055e576001600160a01b038116600090815261017b602052604081206002905b82815560018101839055015581516001600160a01b039182169291849116833b15610ea25760405190631b2ce7f360e11b82526004820152818160248183885af180156109df57610ff9575b5050516040516001600160a01b0390911681527f7dab0d5bdb5c06f7a30c06716066047b3d4fe92aa277d95aec0f06a079096ec890602090a2600160fb5580f35b8161100391614fd8565b61100e578238610fb8565b8280fd5b63357a03ed60e21b8452600484fd5b6040516244414f60e81b8152610163600382015260239020546001600160a01b03168015610728573314610ede57635c427cd960e01b8252600482fd5b50346103b757806003193601126103b757610191546040516001600160a01b039091168152602090f35b50346103b75760203660031901126103b7576110a2614e86565b61015f54421015611166576033546001600160a01b031633036106dc575b6110c8615568565b6110d281806161a0565b6001600160a01b038116600090815261017d6020526040902054611157576001600160a01b038116600090815261017d60205260409020429055604080516001600160a01b03909216825242602083015233917fb18c6270b71e88d80a33e6ff96678cd5372d68c69a43a813e0d47088e8af81d691819081015b0390a2600160fb5580f35b635631a27d60e11b8252600482fd5b6040516244414f60e81b8152610163600382015260239020546001600160a01b031680156107285733146110c057635c427cd960e01b8252600482fd5b50346103b75760403660031901126103b75760206109236111c2614e86565b60243590616020565b50346103b757806003193601126103b757602061018854604051908152f35b61515e565b50346103b75760203660031901126103b757602061092361120e614e86565b615647565b50346103b75760203660031901126103b75761122d614e86565b61015f544210156112e2576033546001600160a01b031633036106dc575b611253615568565b6001600160a01b038116600090815261017b6020526040902060010154156112d3576001600160a01b038116600090815261017b602052604081206002905b8281556001810183905501556001600160a01b03167f3198dc80249fcfedbd0d06e1ff49a7695a51b006592328ce0b127cdeab77e9368280a2600160fb5580f35b63357a03ed60e21b8252600482fd5b6040516244414f60e81b8152610163600382015260239020546001600160a01b0316801561072857331461124b57635c427cd960e01b8252600482fd5b50346103b75760203660031901126103b757611339614e86565b61015f54421015611413576033546001600160a01b031633036106dc575b61135f615568565b6001600160a01b038116600090815261017d60205260409020548015610581576201518081018091116106c85742106106b9576001600160a01b038116600090815261017b6020526040902090604051916113b983614faa565b80546001600160a01b039081168085526001830154602086015260029092015416604084015215610581576001600160a01b038116600090815261017d6020908152604080832086905561017b9091528120600290610f6c565b6040516244414f60e81b8152610163600382015260239020546001600160a01b0316801561072857331461135757635c427cd960e01b8252600482fd5b50346103b75761145f36615187565b6040516926bab63a34aa37b5b2b760b11b8152610163600a820152602a90205491959094939092916001600160a01b031633036116ac5761149e615568565b6040516926bab63a34aa37b5b2b760b11b8152610163600a820152602a90206001600160a01b0390541633149060018060a01b0387169660018060a01b0384169686898914918261167e575b6114f3906152d7565b540361166f576001600160a01b038216600090815261016760205260409020868b5260205260408a209360a060405161152b81614f8f565b86548152600180831b03600188015416602082015260028701549081604082015260ff600460038a015499606084019a8b520154600180861b0381166080840152841c1615908115938491015291611666575b50611657578161164f575b5080611645575b156115f5575b5050506001600160a01b031660009081526101676020526040902090855260205260408420600401805460ff60a01b191690557ff6391f5c32d9c69d2a47ea670b442974b53935d1edc7fd64eb21e047a839171b8480a4600160fb5580f35b611600600191615647565b119182611625575b505061161657388080611596565b630deda90360e41b8652600486fd5b519081108015925061163a575b503880611608565b600391501038611632565b5060038214611590565b905038611589565b6321bf417f60e21b8b5260048bfd5b9050153861157e565b63b810dc5d60e01b8a5260048afd5b905084806116a2575b156116935787906114ea565b630deda90360e41b8b5260048bfd5b5060038414611687565b631792196f60e31b8752600487fd5b50346103b7576116ca36615187565b92939491906040516926bab63a34aa37b5b2b760b11b8152610163600a820152602a60018060a01b039120541633036116ac57611705615568565b6001600160a01b038181169690831695868814611d8e5781611726876152d7565b5403611d7f57600381108015611d75575b611d66578460038203611c5557505060405191610c9760208401875194611769602082818c0198610c9781878c614f16565b51902060405160208101906e444f4d494e55535f5341504f52495360881b8252600f8152611798602f82614fd8565b51902014936117b7602060405180938282019586918d51928391614f16565b519020604051602081019070434f4e5349474c494f5f5341504f52495360781b8252601181526117e8603182614fd8565b519020149060036117f98783616020565b1480918b82611bca575b5061180f600191615647565b116040516b546f6b656e466163746f727960a01b8152610163600c820152602c60018060a01b0391205416928b60018060a01b03611867602a6040516926bab63a34aa37b5b2b760b11b8152610163600a8201522090565b541691159485938496611bc2575b5083611bb7575b505081611bac575b50611b9d5790849182611b95575b5081611b8d575b50611b7e576001600160a01b0384166000908152610164602052604090206003015460a01c60ff16611b6f576001600160a01b038416600090815261016a6020526040902054611b60578280611b41575b80611b21575b611b12576001600160a01b038416600090815261016760205260409020858a526020526040892060ff600482015460a01c16611a26575b50509282819260046119d89661195f7fc56cfa703b6eea7a1c31488509e991f49944dd94f1a0b29c32d87a6ff5f4202499978661620c565b898c5261016760209081526040808e20878f529091528c208581556001810180546001600160a01b0319168c179055600281019190915560038082015501805460ff60a01b198b166001600160a81b031990911617600160a01b1790556119e9575b50505b604051928392604084526040840190614f39565b9060208301520390a3600160fb5580f35b6001600160a01b0316600090815261016a602052604090205580875261017c6020526040872080546001600160a01b0319168617905580386119c1565b8380611abb575b611aac5781611a52575b50611a43573880611927565b635c6eedaf60e11b8852600488fd5b6002915001546040516020810191825260208152611a71604082614fd8565b519020604051602081019070434f4e5349474c494f5f5341504f52495360781b825260118152611aa2603182614fd8565b5190201438611a37565b631867be1160e11b8a5260048afd5b5060028101546040516020810191825260208152611ada604082614fd8565b51902060405160208101906e444f4d494e55535f5341504f52495360881b8252600f8152611b09602f82614fd8565b51902014611a2d565b63747536fb60e01b8952600489fd5b5084895261017c60205260408920546001600160a01b03168714156118f0565b5084895261017c60205260408920546001600160a01b031615156118ea565b634979f0c760e11b8952600489fd5b6368527e6960e11b8952600489fd5b637898098b60e11b8952600489fd5b905038611899565b915038611892565b637e1ef5d560e01b8b5260048bfd5b905033141538611884565b141591508b3861187c565b935038611875565b8193506002604061180f92611bf460019560018060a01b0316600052610167602052604060002090565b8c82526020522001546040516020810191825260208152611c16604082614fd8565b519020604051602081019070434f4e5349474c494f5f5341504f52495360781b825260118152611c47603182614fd8565b51902014939150508b611803565b611c629193949294616020565b6000198114611d575782811090811591611d4c575b50611d3d5783885261017c60205260408820546001600160a01b03168614611d2e577fc56cfa703b6eea7a1c31488509e991f49944dd94f1a0b29c32d87a6ff5f4202494928492611ccd6004936119d89761620c565b878a5261016760209081526040808c20868d529091528a208481556001810180546001600160a01b0319168a1790556002810192909255600382015501805460ff60a01b1988166001600160a81b031990911617600160a01b1790556119c4565b6326b1c0ad60e01b8852600488fd5b630deda90360e41b8852600488fd5b600391501038611c77565b6321bf417f60e21b8952600489fd5b63285544a760e21b8952600489fd5b5060058111611737565b63b810dc5d60e01b8952600489fd5b630deda90360e41b8952600489fd5b50346103b75760203660031901126103b757600435906001600160401b0382116103b7576020611dd0366004850161504b565b81611de46040519283815193849201614f16565b61016390820190815281900382019020546040516001600160a01b039091168152f35b50346103b75760603660031901126103b7576004356001600160401b038111610ea257611e3890369060040161504b565b611e40614ea1565b604435611e4c33615647565b600133818060a01b03603354161491149061015f544210600014611ffd57159081611ff4575b50611fe5575b611e80615568565b611e89836152d7565b54908115611fd657600181108015611fcc575b611fbd5780611eaa33615647565b1015611fae576001600160a01b038316600090815261016460205260409020916001830193845415801590611f9d575b611f8e576001600160a01b03168087526101686020526040872054909490611f7f5783546001600160a01b03191685178455556002820155600301805460ff60a01b19339081166001600160a81b031990921691909117600160a01b17909155604051602080825291937f2271cff5ceb87d1cb9678385844551fbd00ce3a7914ad55dcab51896c63103d0928291611f7491830190614f39565b0390a3600160fb5580f35b636d1a4ed360e11b8752600487fd5b6368527e6960e11b8752600487fd5b5060ff600385015460a01c16611eda565b630deda90360e41b8552600485fd5b63ba8db6af60e01b8552600485fd5b5060028111611e9c565b63b810dc5d60e01b8552600485fd5b630ba9cf7d60e01b8452600484fd5b90501538611e72565b6040516244414f60e81b8152610163600382015260239020546001600160a01b031690811561205e57159182612055575b508161204a575b5015611e7857630ba9cf7d60e01b8452600484fd5b905033141538612035565b1591503861202e565b6336939d7d60e21b8752600487fd5b50346103b757806003193601126103b7576120866152fe565b5061208f6152fe565b5061016c546001600160a01b031690811561217b57506040516120b3604082614fd8565b600681526561637469766560d01b6020820152905b61016d549160018060a01b0361016e54169261216160018060a01b0361018c5416926101895492604051956120fc87614f8f565b86526020860196875260408601908152606086019182526080860194855260a086019384526040519687966020885260018060a01b03905116602088015260018060a01b0390511660408701525160608601525160c0608086015260e0850190614f39565b91516001600160a01b031660a08401525160c08301520390f35b5060405161218a604082614fd8565b6008815267696e61637469766560c01b6020820152906120c8565b50346103b757806003193601126103b75760206040517fa36640f9c3d74ee87c99b3aee39f32849dda077410057abc393a2cb9e13139a78152f35b50346103b757806003193601126103b7576122286121fc6150a3565b60018060a01b03610194541660018060a01b036101955416604051938493606085526060850190614f39565b91602084015260408301520390f35b50346103b75760203660031901126103b75760043561015f5442106000146122d2576033546001600160a01b031633036106dc575b612274615568565b61271081116122c3576020817ffdb174bbb157048e9f3962e375891bace08d9741796e3288bf79ab8ccd1dfa209261016d558282604051838152a18061019255604051908152a1600160fb5580f35b63162908e360e11b8252600482fd5b6040516244414f60e81b8152610163600382015260239020546001600160a01b0316801561072857331461226c57635c427cd960e01b8252600482fd5b50346103b75760203660031901126103b757612329614e86565b61233233615647565b600133818060a01b03603354161491149061015f5442106000146123d2571590816123c9575b506109ed5781905b612368615568565b61237281806161a0565b6001600160a01b0316803b156109ea57818091600460405180958193638456cb5960e01b83525af180156123bc576123ac57600160fb5580f35b6123b591614fd8565b3881610556565b50604051903d90823e3d90fd5b90501538612358565b6040516244414f60e81b8152610163600382015260239020546001600160a01b0316908115610a5d57159182612421575b5081612416575b506109ed578190612360565b90503314153861240a565b15915038612403565b50346103b757806003193601126103b7577f360894a13ba1a3210667c828492db98dca3e2076cc3735a920a3ca505d382bbc546040516001600160a01b039091168152602090f35b50346103b75760203660031901126103b757602090600435815261017c8252604060018060a01b0391205416604051908152f35b50346103b75760203660031901126103b7576124c0614e86565b61015f54421015612536576033546001600160a01b031633036106dc575b6124e6615568565b6001600160a01b038116600090815261017d6020526040902054156112d3576001600160a01b038116600090815261017d6020908152604080832085905561017b90915290208290600290611292565b6040516244414f60e81b8152610163600382015260239020546001600160a01b031680156107285733146124de57635c427cd960e01b8252600482fd5b50346103b757806003193601126103b757602061019254604051908152f35b50346103b75760403660031901126103b757604060c0916125b1614e86565b8160a084516125bf81614f8f565b8281528260208201528286820152826060820152826080820152015260018060a01b031681526101676020528181206024358252602052206040519061260482614f8f565b80549182815260018060a01b03600183015416916020820192835260028101546040830190815260046003830154926060850193845201549360ff60a06080860195600180831b0388168752019560a01c161515855260405195865260018060a01b03905116602086015251604085015251606084015260018060a01b03905116608083015251151560a0820152f35b50346103b75760a03660031901126103b7576126ae614e86565b906126b7614ea1565b91606435916001600160a01b03831683036103b75760206126e98585856126dc615568565b6084359260443591615eb4565b600160fb55604051908152f35b50346103b757806003193601126103b757610177546040516001600160a01b039091168152602090f35b50346103b75760203660031901126103b757600435906001600160401b0382116103b7576020610923612756366004860161504b565b615e58565b50346103b757806003193601126103b7576033546040516001600160a01b039091168152602090f35b50346103b75760403660031901126103b75761279e614e86565b6127a6614ea1565b9061015f544210600014612a75576033546001600160a01b03163303612a66575b6127cf615568565b6127d982826161a0565b6001600160a01b038116600090815261017b6020526040902060010154612a5757604051632a2767e560e01b81526001600160a01b03821691602082600481865afa918215612a4c578592612a18575b50833b156129ee57848060405160208101906301ffc9a760e01b82526317e3c03b60e21b602482015260248152612861604482614fd8565b5190875afa61286e6161dc565b90159081156129fd575b506129ee576040918580845161288e8682614fd8565b601a81527f676574496d706c656d656e746174696f6e54797065496d70282900000000000060209091015284516375a8670960e01b906128cd90614fc5565b855160208101918252600481526128e5602482614fd8565b5190885afa906128f36161dc565b91159182156129ca575b50506129bb57907f9d46c424dbb24cb5db0226a1022c4be6afb7410d2c4b320c52a939c9fbeeed4691600282519161293483614faa565b60018060a01b0387168352602083014281526129698585019233845260018060a01b031660005261017b602052604060002090565b935184546001600160a01b03199081166001600160a01b039283161786559151600186015591519290930180549093169181169190911790915590519316835242602084015233928060408101611f74565b633aa04df960e01b8552600485fd5b8051919250602080820192820191909103126129ea5751141538806128fd565b8680fd5b6338951bb760e11b8552600485fd5b612a11915060208082518301019101615e9c565b1538612878565b9091506020813d602011612a44575b81612a3460209383614fd8565b810103126108fb57519038612829565b3d9150612a27565b6040513d87823e3d90fd5b635631a27d60e11b8352600483fd5b63ea8e4eb560e01b8352600483fd5b6040516244414f60e81b8152610163600382015260239020546001600160a01b03168015612ab25733146127c757635c427cd960e01b8352600483fd5b6336939d7d60e21b8452600484fd5b50346103b757806003193601126103b757600490612add615568565b639809edb560e01b8152fd5b50346103b757806003193601126103b757805460ff8160081c161590818092612f77575b8015612f60575b612b1d90615218565b60ff198116600117835581612f4f575b506301e1338042018042116106c85761015f556301e1338061018855612b6b60ff835460081c16612b5d81615764565b612b6681615764565b615764565b612b7433616072565b612bbb60ff835460081c16612b8881615764565b612b9181615764565b60ff1960c9541660c955612ba481615764565b612bad81615764565b600160fb55612b6681615764565b600561016155612c32604051612bd081614f5e565b338152602081017fa5ccb6867d103f21ecf1c41cfc2f9edaeab012c60e542a449046031f4b3422f581526003604083019286845260608101933385526080820193600185526104b23360018060a01b0316600052610164602052604060002090565b604090612c688251612c448482614fd8565b60128152710929aa08aa482a89ea4beac829c8a989892b60731b602082015261581a565b50612c9c8251612c788482614fd8565b6012815271434f4e5349474c494f5f5354454c4c41544f60701b602082015261581a565b50612ccd8251612cac8482614fd8565b600f81526e4c4547415455535f5354454c4c414560881b602082015261593a565b50612cfd8251612cdd8482614fd8565b600e81526d50524145544f525f4c554d494e4160901b6020820152615a41565b50612d2e8251612d0d8482614fd8565b600f81526e444f4d494e55535f5341504f52495360881b6020820152615b15565b50612d618251612d3e8482614fd8565b6011815270434f4e5349474c494f5f5341504f52495360781b6020820152615b15565b50612d948251612d718482614fd8565b601181527043454e545552494f5f4d454e534152554d60781b6020820152615be9565b50612dc58251612da48482614fd8565b600f81526e4d494c495445535f43554c494e414560881b6020820152615cbd565b50612dd261016054615069565b601f8111612f10575b50602a74158c4815985b995b1b1a5e0813185d5b98da1c1859605a1b01610160556298968061018a55612710610189558261016d558261019255612e2161019354615069565b601f8111612ed1575b506012680517569636b537761760bc1b016101935573a5e0829caced8ffdd4de3c43696c57f7d7a678ff6001600160601b0360a01b6101945416176101945573a5e0829caced8ffdd4de3c43696c57f7d7a678ff6001600160601b0360a01b61019554161761019555612e9b575080f35b60207f7f26b83ff96e1f2b6a682f133852f6798a09c465da95921460cefb38474024989161ff001984541684555160018152a180f35b6101938452612f0a90601f0160051c7ffc8af01f449989052b52093a58fc9f42d0b11f0c6dd5dca0463dab62346ccc689081019061527b565b38612e2a565b6101608452612f4990601f0160051c7fec7e130cdeeae65215fabbcddb1de429e603c4887cc659532eda903e493396639081019061527b565b38612ddb565b61ffff191661010117825538612b2d565b50303b158015612b14575060ff8116600114612b14565b50600160ff821610612b0d565b50346103b757806003193601126103b75761015f5442101561301c576033546001600160a01b03163303610590575b612fbb615568565b610178541561300d57612fe1600061017755600061017855600061017955600061017a55565b7f761942e410ba280153b2ed459ded9f9ddb88850faccd07da7acf1da6cdc7d6898180a1600160fb5580f35b63357a03ed60e21b8152600490fd5b6040516244414f60e81b8152610163600382015260239020546001600160a01b031680156105dc573314612fb357635c427cd960e01b8152600490fd5b50346103b757806003193601126103b75761015f5442101561312b576033546001600160a01b03163303610590575b613090615568565b6101785480156112d3576202a3008101809111613117574210613108576130eb60018060a01b0361017754167f59b22fe8b92d7f99b54034c49432db394b5fad64472967b2cba6f5a999fed0076020604051838152a1615d91565b610556600061017755600061017855600061017955600061017a55565b631442118160e11b8152600490fd5b634e487b7160e01b82526011600452602482fd5b6040516244414f60e81b8152610163600382015260239020546001600160a01b031680156105dc57331461308857635c427cd960e01b8152600490fd5b50346103b757806003193601126103b757602061015f54604051908152f35b50346103b75760203660031901126103b757600435906001600160401b0382116103b75760206131d1816131be366004870161504b565b8160405193828580945193849201614f16565b810161016581520301902054604051908152f35b50346103b757806003193601126103b757610194546040516001600160a01b039091168152602090f35b50346103b757806003193601126103b75760049061322b615568565b6001623f026d60e01b03198152fd5b50346103b75760203660031901126103b757613254614e86565b61015f544210156132e0576033546001600160a01b031633036106dc575b61327a615568565b6001600160a01b038116600090815261017d6020526040902054156112d3576001600160a01b0316600090815261017d602052604090208190557f761942e410ba280153b2ed459ded9f9ddb88850faccd07da7acf1da6cdc7d6898180a1600160fb5580f35b6040516244414f60e81b8152610163600382015260239020546001600160a01b0316801561072857331461327257635c427cd960e01b8252600482fd5b50346103b75760203660031901126103b7576020613339614e86565b61016c546040516001600160a01b0392831691909216148152f35b50346103b757806003193601126103b757602060ff60c954166040519015158152f35b50346103b75760403660031901126103b757613391614e86565b613399614ea1565b61015f544210156134c2576033546001600160a01b03163303612a66575b6133bf615568565b6133c981836161a0565b6001600160a01b038216600090815261017d6020526040902054612a57576001600160a01b038216600090815261017d6020526040902042905560405161340f81614faa565b60018060a01b038216815260026020820142815260408301903382526134488660018060a01b031660005261017b602052604060002090565b935184546001600160a01b03199081166001600160a01b03928316178655915160018601559151929093018054909316918116919091179091556040805192821683524260208401523393909116917f9d46c424dbb24cb5db0226a1022c4be6afb7410d2c4b320c52a939c9fbeeed469181908101611f74565b6040516244414f60e81b8152610163600382015260239020546001600160a01b03168015612ab25733146133b757635c427cd960e01b8352600483fd5b50346103b757806003193601126103b7576040519080610196549061352382615069565b80855291600181169081156135c15750600114613563575b61355f8461354b81860382614fd8565b604051918291602083526020830190614f39565b0390f35b61019681527f828feda00a4b64eb35101b6df8f6c29717b1ea6bae5dd03d3ddada8de0a9e7cb939250905b8082106135a75750909150810160200161354b8261353b565b91926001816020925483858801015201910190929161358e565b60ff191660208087019190915292151560051b8501909201925061354b915083905061353b565b50346103b757806003193601126103b7577f00000000000000000000000000000000000000000000000000000000000000006001600160a01b031630036136535760206040517f360894a13ba1a3210667c828492db98dca3e2076cc3735a920a3ca505d382bbc8152f35b60405162461bcd60e51b815260206004820152603860248201527f555550535570677261646561626c653a206d757374206e6f742062652063616c60448201527f6c6564207468726f7567682064656c656761746563616c6c00000000000000006064820152608490fd5b5060403660031901126103b7576136d3614e86565b506024356001600160401b038111610ea25736602382011215610ea2579061370660049236906024818601359101615014565b5061370f615568565b630c5e6cd360e21b8152fd5b50346103b75760203660031901126103b757613735614e86565b61015f54421015613988576033546001600160a01b031633036106dc575b61375b615568565b61376581806161a0565b6101785461115757803b1561395e57818060405160208101906301ffc9a760e01b8252632a2767e560e01b6024820152602481526137a4604482614fd8565b5190845afa6137b16161dc565b901590811561396d575b5061395e576040828082516137d08482614fd8565b601781527f676574496d706c656d656e746174696f6e5479706528290000000000000000006020909101528251632a2767e560e01b9061380f90614fc5565b83516020810191825260048152613827602482614fd8565b5190855afa6138346161dc565b901590811561391b575b5061390c578051608081018181106001600160401b03821117610e115782526001600160a01b03929092168083524260208085018290527fce9b24d2dc7f9161cd3535ebadb01aa541e3f9f2b1e7ffb37b9f0fa96d292db884860181905233606090960186905261017780546001600160a01b031990811686179091556101788490556101799190915561017a8054909116861790559251918252918101919091527fb18c6270b71e88d80a33e6ff96678cd5372d68c69a43a813e0d47088e8af81d690806040810161114c565b633aa04df960e01b8352600483fd5b805160208083019350908201919091031261395a57517fce9b24d2dc7f9161cd3535ebadb01aa541e3f9f2b1e7ffb37b9f0fa96d292db814153861383e565b8380fd5b6338951bb760e11b8252600482fd5b613981915060208082518301019101615e9c565b15386137bb565b6040516244414f60e81b8152610163600382015260239020546001600160a01b0316801561072857331461375357635c427cd960e01b8252600482fd5b50346103b75760203660031901126103b7576060906040906001600160a01b036139ed614e86565b16815261017b602052206040805191613a0583614faa565b80546001600160a01b0390811680855260018301546020808701829052600290940154909216939094018390526040805194855291840152820152f35b50346103b75760203660031901126103b757613a5c614e86565b61015f54421015613b75576033546001600160a01b031633036106dc575b613a82615568565b6001600160a01b038116600090815261016f602052604090205415610b25576001600160a01b038116600090815261016f60205260409020546202a30081018091116106c8574210613b66576001600160a01b0381169061deac198201613b51575b61016c80546001600160a01b0319166001600160a01b038316179055613b25906001600160a01b038116600090815261016f602052604090208490556160bb565b7fbe8b243cc9b5244fd502d39323d3e688e3ca52d8eee47ea6780c3ec5b4113e058280a2600160fb5580f35b803b613ae457630749aedb60e01b8352600483fd5b6364037fb760e11b8252600482fd5b6040516244414f60e81b8152610163600382015260239020546001600160a01b03168015610728573314613a7a57635c427cd960e01b8252600482fd5b50346103b75760203660031901126103b757613bcc614e86565b61015f54421015613c76576033546001600160a01b031633036106dc575b613bf2615568565b6001600160a01b038116908115613c675761016c546001600160a01b0316613c585761dead8203613c43575b61016c80546001600160a01b0319166001600160a01b03909216919091179055613b25565b803b613c1e57630749aedb60e01b8352600483fd5b63c6f6a6e960e01b8352600483fd5b63d92e233d60e01b8352600483fd5b6040516244414f60e81b8152610163600382015260239020546001600160a01b03168015610728573314613bea57635c427cd960e01b8252600482fd5b50346103b757806003193601126103b757600490613ccf615568565b636aa63d6160e01b8152fd5b50346103b75760403660031901126103b7576004356001600160401b038111610ea257613d0c90369060040161504b565b6024359061015f544210600014613e8c576033546001600160a01b03163303612a66575b613d38615568565b805115613e7d57610161548015612ab2578211613e6e576014610166541015613e5f5790602091604051613d96848201835192613d7f878281880196610c9781878a614f16565b519020948592604051809381928751928391614f16565b81016101658152030190205561016654600160401b811015610e1157806001613dc6920161016655610166615619565b613e4b5781836040602097613ded6000805160206162cf83398151915296613e169661532f565b87815261018789522055610162548411613e41575b604051918291604083526040830190614f39565b85878301520390a1610162548111613e37575b50600160fb55604051908152f35b6101625538613e29565b8361016255613e02565b634e487b7160e01b85526004859052602485fd5b6353bb24f960e01b8352600483fd5b630af469a960e31b8352600483fd5b636cc61e7360e11b8352600483fd5b6040516244414f60e81b8152610163600382015260239020546001600160a01b03168015612ab2573314613d3057635c427cd960e01b8352600483fd5b50346103b757806003193601126103b75760408051613ee781614faa565b606081528260208201520152613f4e604051613f0281614faa565b613f0a6150a3565b815260018060a01b0361019454166020820190815260018060a01b036101955416604083019081526040519384936020855251606060208601526080850190614f39565b91516001600160a01b03908116604085015290511660608301520390f35b50346103b757806003193601126103b75760206109236157c4565b50346103b75760203660031901126103b757600490613fa4614e86565b50613fad615568565b6308ac7db760e21b8152fd5b50346103b75760203660031901126103b75760043561015f54421060001461400e576033546001600160a01b031633036106dc575b610162548110613fff576101615580f35b6309aaecbf60e41b8252600482fd5b6040516244414f60e81b8152610163600382015260239020546001600160a01b03168015610728573314613fee57635c427cd960e01b8252600482fd5b50346103b757806003193601126103b7576020604051818101907f56414e454c4c49585f4c41554e43485041445f494d504c454d454e544154494f8252602760f91b6040820152602181526140a1604182614fd8565b519020604051908152f35b50346103b75760203660031901126103b7576140c6614e86565b610102825460ff8160081c1615806142ff575b6140e290615218565b61ffff1916178083556001600160a01b039091169081156142ba5760405163c696804f60e01b8152602081600481865afa9081156142af57849161426d575b506001600160a01b0316330361421e5760ff6141449160081c16612b5d81615764565b61414d33616072565b61416160ff835460081c16612b8881615764565b61416d61019654615069565b601f81116141df575b506022702b191024b6b83632b6b2b73a30ba34b7b760791b01610196556001600160601b0360a01b6101975416176101975561ff001981541681557f7f26b83ff96e1f2b6a682f133852f6798a09c465da95921460cefb3847402498602060405160028152a180f35b610196835261421890601f0160051c7f828feda00a4b64eb35101b6df8f6c29717b1ea6bae5dd03d3ddada8de0a9e7cb9081019061527b565b38614176565b60405162461bcd60e51b815260206004820152602160248201527f43616c6c6572206973206e6f7420746865204c61756e6368706164206f776e656044820152603960f91b6064820152608490fd5b90506020813d6020116142a7575b8161428860209383614fd8565b8101031261395a57516001600160a01b038116810361395a5738614121565b3d915061427b565b6040513d86823e3d90fd5b60405162461bcd60e51b815260206004820152601a60248201527f4c61756e636870616420616464726573732072657175697265640000000000006044820152606490fd5b50600260ff8216106140d9565b50346103b75760203660031901126103b7576020906040906001600160a01b03614334614e86565b16815261016f83522054604051908152f35b50346103b757806003193601126103b75761015f544210156143db576033546001600160a01b03163303610590575b61437d615568565b603354610171546001600160a01b039182169116156112d3577f48a87225523c5fd46bf3b7da3223e5525f77b8136a962695d701a24699bef8f38280a26001600160601b0360a01b6101715416610171558061017255600160fb5580f35b6040516244414f60e81b8152610163600382015260239020546001600160a01b031680156105dc57331461437557635c427cd960e01b8152600490fd5b50346103b75760203660031901126103b757614432614e86565b61015f54421015614573576033546001600160a01b031633036106dc575b614458615568565b6001600160a01b038116908115613c67576001600160a01b038116600090815261016f6020526040902054614564576001600160a01b0316600090815261016f6020526040902042905561017054600160401b8110156145505760018101610170556101705481101561453c5761017083527f88e1afb22f13be7fec203799fd189c3b9471c5b75e2b22a6d5efec11c7f39255018054600384901b83811b6001600160a01b0390911b199091161790556040514281527f58bb431e0f7936fab42d31349f05b36e6e2bc6030189fafbb5d8b195a3da0cc590602090a2600160fb5580f35b634e487b7160e01b83526032600452602483fd5b634e487b7160e01b83526041600452602483fd5b638c34a7cd60e01b8352600483fd5b6040516244414f60e81b8152610163600382015260239020546001600160a01b0316801561072857331461445057635c427cd960e01b8252600482fd5b50346103b75760403660031901126103b7576145ca614e86565b6024356001600160401b03811161100e576145e990369060040161504b565b906145f333615647565b600133818060a01b03603354161491149061015f54421060001461481d57159081614814575b50614805575b614627615568565b6001600160a01b038116908115610e2557602061473f916040519082820186519261465c8582818b0196610c9781878a614f16565b519020604051848101906244414f60e81b82526003815261467e602382614fd8565b51902081036147bd57506146d060039160236040516244414f60e81b8152610163858201522060018060a01b0390541680614792575b506001600160a01b031660009081526101646020526040902090565b80546001600160a01b031916861781557ff807ff8eec250923b9076d0fbc12c4f8fc15f4a65bc3bb510202d51d46cd1ef660018201556002810188905501805460ff60a01b1933166001600160a81b031990911617600160a01b1790555b604051809381928751928391614f16565b8101610163815203019020816001600160601b0360a01b82541617905561476633926153f2565b7fcd274a007eb61cbcf6df3e9eb2d5bcc233450f045cc22d9ebb0beb460710aca78480a4600160fb5580f35b6001600160a01b03166000908152610164602052604090208301805460ff60a01b19169055386146b4565b9050604051838101906926bab63a34aa37b5b2b760b11b8252600a81526147e5602a82614fd8565b5190200361472e5761016980546001600160a01b0319168517905561472e565b630ba9cf7d60e01b8352600483fd5b90501538614619565b6040516244414f60e81b8152610163600382015260239020546001600160a01b031690811561487e57159182614875575b508161486a575b501561461f57630ba9cf7d60e01b8352600483fd5b905033141538614855565b1591503861484e565b6336939d7d60e21b8652600486fd5b50346103b75760203660031901126103b7576148a7614e86565b61015f544210156149ca576033546001600160a01b031633036106dc575b6148cd615568565b6001600160a01b038116908115613c675761019180546001600160a01b031916831790553b156149bb576040516318160ddd60e01b8152602081600481855afa908161498c575b5061492857636cb9962360e01b8252600482fd5b61016e80546001600160a01b03191682179055807f722ff84c1234b2482061def5c82c6b5080c117b3cbb69d686844a051e4b8e7f38380a27f722ff84c1234b2482061def5c82c6b5080c117b3cbb69d686844a051e4b8e7f38280a2600160fb5580f35b6020813d6020116149b3575b816149a560209383614fd8565b8101031261395a5751614914565b3d9150614998565b636cb9962360e01b8252600482fd5b6040516244414f60e81b8152610163600382015260239020546001600160a01b031680156107285733146148c557635c427cd960e01b8252600482fd5b50346103b757806003193601126103b7576020604051308152f35b50346103b757806003193601126103b75760405190806101605490614a4682615069565b80855291600181169081156135c15750600114614a6d5761355f8461354b81860382614fd8565b61016081527fec7e130cdeeae65215fabbcddb1de429e603c4887cc659532eda903e49339663939250905b808210614ab15750909150810160200161354b8261353b565b919260018160209254838588010152019101909291614a98565b50346103b757806003193601126103b757614ae46151e6565b50614aed6151e6565b50614af66155be565b614afe6155be565b61355f614b096155be565b614bb6614b146155be565b91614ba360018060a01b03610171541695614b90610172549860405198614b3a8a614f8f565b895260208901998a5260408901908152606089019283526080890194855260a08901968752604051998a9960208b5260018060a01b0390511660208b01525160408a01525160c060608a015260e0890190614ecd565b9051878203601f19016080890152614ecd565b9051858203601f190160a0870152614ecd565b9051838203601f190160c0850152614ecd565b50346103b75760203660031901126103b757614be3614e86565b61015f54421015614c6c576033546001600160a01b031633036106dc575b614c09615568565b6033546001600160a01b0391821691168115613c6757816001600160601b0360a01b6101715416176101715542610172557f37cfa1493a4caaf6506c84b43005afeae37478bd57ee3d33b8d93e746295e1756020604051428152a3600160fb5580f35b6040516244414f60e81b8152610163600382015260239020546001600160a01b03168015610728573314614c0157635c427cd960e01b8252600482fd5b50346103b75760203660031901126103b757604060a091614cc8614e86565b8160808451614cd681614f5e565b82815282602082015282868201528260608201520152600180851b031681526101646020522060405190614d0982614f5e565b600180841b03815416918281526001820154916020820192835260036002820154916040840192835201549260ff608060608501946001808a1b03871686520194871c1615158452604051948552516020850152516040840152600180851b0390511660608301525115156080820152f35b50346103b75760203660031901126103b7576001600160a01b03614d9d614e86565b16815261016860205260408120604051908160208254918281520190819285526020852090855b818110614e1b5750505082614dda910383614fd8565b604051928392602084019060208552518091526040840192915b818110614e02575050500390f35b8251845285945060209384019390920191600101614df4565b8254845260209093019260019283019201614dc4565b905034610ea2576020366003190112610ea25760043563ffffffff60e01b811680910361100e5760209250632a2767e560e01b8114908115614e75575b5015158152f35b6301ffc9a760e01b14905038614e6e565b600435906001600160a01b0382168203614e9c57565b600080fd5b602435906001600160a01b0382168203614e9c57565b604435906001600160a01b0382168203614e9c57565b906020808351928381520192019060005b818110614eeb5750505090565b825180516001600160a01b031685526020908101518186015260409094019390920191600101614ede565b60005b838110614f295750506000910152565b8181015183820152602001614f19565b90602091614f5281518092818552858086019101614f16565b601f01601f1916010190565b60a081019081106001600160401b03821117614f7957604052565b634e487b7160e01b600052604160045260246000fd5b60c081019081106001600160401b03821117614f7957604052565b606081019081106001600160401b03821117614f7957604052565b6001600160401b038111614f7957604052565b90601f801991011681019081106001600160401b03821117614f7957604052565b6001600160401b038111614f7957601f01601f191660200190565b92919261502082614ff9565b9161502e6040519384614fd8565b829481845281830111614e9c578281602093846000960137010152565b9080601f83011215614e9c5781602061506693359101615014565b90565b90600182811c92168015615099575b602083101461508357565b634e487b7160e01b600052602260045260246000fd5b91607f1691615078565b6040519060008261019354916150b883615069565b808352926001811690811561513f57506001146150de575b6150dc92500383614fd8565b565b50610193600090815290917ffc8af01f449989052b52093a58fc9f42d0b11f0c6dd5dca0463dab62346ccc685b8183106151235750509060206150dc928201016150d0565b602091935080600191548385890101520191019091849261510b565b602092506150dc94915060ff191682840152151560051b8201016150d0565b34614e9c576000366003190112614e9c576033546040516001600160a01b039091168152602090f35b9060c0600319830112614e9c576004359160243591604435916064356001600160a01b0381168103614e9c57916084356001600160a01b0381168103614e9c579160a435906001600160401b038211614e9c576150669160040161504b565b604051906151f382614f8f565b606060a083600081526000602082015282604082015282808201528260808201520152565b1561521f57565b60405162461bcd60e51b815260206004820152602e60248201527f496e697469616c697a61626c653a20636f6e747261637420697320616c72656160448201526d191e481a5b9a5d1a585b1a5e995960921b6064820152608490fd5b818110615286575050565b6000815560010161527b565b9190601f81116152a157505050565b6150dc926000526020600020906020601f840160051c830193106152cd575b601f0160051c019061527b565b90915081906152c0565b60206152f0918160405193828580945193849201614f16565b810161016581520301902090565b6040519061530b82614f8f565b600060a0838281528260208201528260408201526060808201528260808201520152565b91909182516001600160401b038111614f7957615356816153508454615069565b84615292565b6020601f82116001146153905781929394600092615385575b50508160011b916000199060031b1c1916179055565b01519050388061536f565b601f1982169083600052806000209160005b8181106153da575095836001959697106153c1575b505050811b019055565b015160001960f88460031b161c191690553880806153b7565b9192602060018192868b0151815501940192016153a2565b61540a90602060405192828480945193849201614f16565b810103902090565b6001600160a01b0316600081815261016a602052604090205490919061555557600091600019908084526101646020526040842060ff600382015460a01c1680615548575b8061553a575b61552e575b50835b8185526101686020526040852054811015615513578185526101686020526154908160408720615619565b90549060031b1c828652610167602052604086209086526020526040852060ff600482015460a01c1680615506575b6154cd575b50600101615465565b600301546003811015806154f9575b806154f0575b156154c457925060016154c4565b508381106154e2565b50610161548111156154dc565b50600281015415156154bf565b50509091501560001461552557600090565b64174876e80090565b60020154915038615462565b50600280820154111561545d565b5060018101541515615457565b9060005261016a60205260406000205490565b600260fb541461557957600260fb55565b60405162461bcd60e51b815260206004820152601f60248201527f5265656e7472616e637947756172643a207265656e7472616e742063616c6c006044820152606490fd5b604051906155cd602083614fd8565b60008083528290805b8181106155e257505050565b6040519060408201918083106001600160401b03841117614f795760209260405260008152600083820152828286010152016155d6565b80548210156156315760005260206000200190600090565b634e487b7160e01b600052603260045260246000fd5b6001600160a01b03166000818152610164602052604090206003810154600019919060a01c60ff1680615757575b80615749575b61573d575b5060005b604060008481526101686020522054811015615737576156b1816040600086815261016860205220615619565b90549060031b1c604060008581526101676020522090600052602052604060002060ff600482015460a01c168061572a575b6156f1575b50600101615684565b6003015460038110158061571d575b80615714575b156156e857915060016156e8565b50828110615706565b5061016154811115615700565b50600281015415156156e3565b50905090565b60029150015438615680565b50600280820154111561567b565b5060018101541515615675565b1561576b57565b60405162461bcd60e51b815260206004820152602b60248201527f496e697469616c697a61626c653a20636f6e7472616374206973206e6f74206960448201526a6e697469616c697a696e6760a81b6064820152608490fd5b610171546001600160a01b03161561581557610172546202a30081018082116157ff574210156157f9574290036202a3000190565b50600090565b634e487b7160e01b600052601160045260246000fd5b600090565b600081511561592b57610161541561591c5750601461016654101561590b5760209060405161587383820183519261585c868281880196610c9781878a614f16565b519020938492604051809381928751928391614f16565b81016101658152030190205561016654600160401b811015614f79578060016158a3920161016655610166615619565b6158f557816158c46000805160206162cf833981519152936158e99361532f565b8360005261018760205260006040812055604051918291604083526040830190614f39565b8460208301520390a190565b634e487b7160e01b600052600060045260246000fd5b6353bb24f960e01b60005260046000fd5b6336939d7d60e21b8152600490fd5b636cc61e7360e11b8152600490fd5b805115615a3057610161548015615a1f57600111615a0e57601461016654101561590b5760209060405161598183820183519261585c868281880196610c9781878a614f16565b81016101658152030190205561016654600160401b811015614f79578060016159b1920161016655610166615619565b6158f557816159d26000805160206162cf833981519152936158e99361532f565b83600052610187602052600160406000205561016254600111615a0357604051918291604083526040830190614f39565b600161016255613e02565b630af469a960e31b60005260046000fd5b6336939d7d60e21b60005260046000fd5b636cc61e7360e11b60005260046000fd5b805115615a3057610161548015615a1f57600211615a0e57601461016654101561590b57602090604051615a8883820183519261585c868281880196610c9781878a614f16565b81016101658152030190205561016654600160401b811015614f7957806001615ab8920161016655610166615619565b6158f55781615ad96000805160206162cf833981519152936158e99361532f565b83600052610187602052600260406000205561016254600211615b0a57604051918291604083526040830190614f39565b600261016255613e02565b805115615a3057610161548015615a1f57600311615a0e57601461016654101561590b57602090604051615b5c83820183519261585c868281880196610c9781878a614f16565b81016101658152030190205561016654600160401b811015614f7957806001615b8c920161016655610166615619565b6158f55781615bad6000805160206162cf833981519152936158e99361532f565b83600052610187602052600360406000205561016254600311615bde57604051918291604083526040830190614f39565b600361016255613e02565b805115615a3057610161548015615a1f57600411615a0e57601461016654101561590b57602090604051615c3083820183519261585c868281880196610c9781878a614f16565b81016101658152030190205561016654600160401b811015614f7957806001615c60920161016655610166615619565b6158f55781615c816000805160206162cf833981519152936158e99361532f565b83600052610187602052600460406000205561016254600411615cb257604051918291604083526040830190614f39565b600461016255613e02565b805115615a3057610161548015615a1f57600511615a0e57601461016654101561590b57602090604051615d0483820183519261585c868281880196610c9781878a614f16565b81016101658152030190205561016654600160401b811015614f7957806001615d34920161016655610166615619565b6158f55781615d556000805160206162cf833981519152936158e99361532f565b83600052610187602052600560406000205561016254600511615d8657604051918291604083526040830190614f39565b600561016255613e02565b803b15615dfd577f360894a13ba1a3210667c828492db98dca3e2076cc3735a920a3ca505d382bbc80546001600160a01b0319166001600160a01b039290921691821790557fbc7cd75a20ee27fd9adebab32041f755214dbc6bffa90cc0225b39da2e5c2d3b600080a2565b60405162461bcd60e51b815260206004820152602d60248201527f455243313936373a206e657720696d706c656d656e746174696f6e206973206e60448201526c1bdd08184818dbdb9d1c9858dd609a1b6064820152608490fd5b6020615e71918160405193828580945193849201614f16565b8101610165815203019020548015615e955760005261018760205260406000205490565b5060001990565b90816020910312614e9c57518015158103614e9c5790565b9392909161016d54908181029181830414901517156157ff576127109004938415616016576001600160a01b038316928315801561600e575b615ffd57615efd906101606162a4565b15615fec5761016c546001600160a01b0316908115615fdb576001600160a01b031615615fca576040516323b872dd60e01b81526001600160a01b0390921660048301526024820152604481018490526020816064816000865af18015615fbe57615f91575b507fd9cdec5afc25f7ba2ee747f81cc783a02ebf349091c32d2709b2f81619f754096020604051858152a390565b615fb29060203d602011615fb7575b615faa8183614fd8565b810190615e9c565b615f63565b503d615fa0565b6040513d6000823e3d90fd5b63e6c4247b60e01b60005260046000fd5b63af8c927d60e01b60005260046000fd5b636cb9962360e01b60005260046000fd5b63162908e360e11b60005260046000fd5b506000615eed565b5050505050600090565b60018060a01b0316600052610167602052604060002090600052602052604060002060ff600482015460a01c1680616065575b61605e575060001990565b6003015490565b5060028101541515616053565b603380546001600160a01b039283166001600160a01b0319821681179092559091167f8be0079c531659141344cd1fd0a4f28419497f9722a3daafe3b4186f6b6457e0600080a3565b60005b610170548082101561619b576160d682610170615619565b905460039190911b1c6001600160a01b03908116908416146160fb57506001016160be565b616152925061611361612e9160001901610170615619565b905460039190911b1c6001600160a01b031691610170615619565b81546001600160a01b0393841660039290921b91821b9390911b1916919091179055565b610170548015616185576000190161616c81610170615619565b81549060018060a01b039060031b1b1916905561017055565b634e487b7160e01b600052603160045260246000fd5b505050565b6001600160a01b0316159081156161ca575b506161b957565b63d92e233d60e01b60005260046000fd5b6001600160a01b0316159050386161b2565b3d15616207573d906161ed82614ff9565b916161fb6040519384614fd8565b82523d6000602084013e565b606090565b9060018060a01b03168060005261018f60205260406000208260005260205260ff604060002054161561623d575050565b60406000828152610168602052208054600160401b811015614f795761626891600182018155615619565b81549060031b9084821b91600019901b191617905560005261018f6020526040600020906000526020526040600020600160ff19825416179055565b6001600160a01b039091169081156162c757600e01546001600160a01b03161490565b505060009056fee7f2ce811231737c7fa824ab7e10edafbd2c60dfa014137d276462c057da07baa26469706673582212207ce688bb4e948e24d89bbd36cc647c849d906e3c10922ede26edd05e5e3a8d1464736f6c634300081c0033",
  "linkReferences": {},
  "deployedLinkReferences": {}
}