{
  "_format": "hh-sol-artifact-1",
  "contractName": "PreSaleConstants",
  "sourceName": "contracts/Globals/presale/PreSaleConstants.sol",
  "abi": [
    {
      "inputs": [],
      "name": "MAX_P2P_SALE_DURATION",
      "outputs": [
        {
          "internalType": "uint256",
          "name": "",
          "type": "uint256"
        }
      ],
      "stateMutability": "view",
      "type": "function"
    },
    {
      "inputs": [],
      "name": "MAX_PRE_SALE_DURATION",
      "outputs": [
        {
          "internalType": "uint256",
          "name": "",
          "type": "uint256"
        }
      ],
      "stateMutability": "view",
      "type": "function"
    },
    {
      "inputs": [],
      "name": "MIN_P2P_SALE_DURATION",
      "outputs": [
        {
          "internalType": "uint256",
          "name": "",
          "type": "uint256"
        }
      ],
      "stateMutability": "view",
      "type": "function"
    },
    {
      "inputs": [],
      "name": "PRECISION_FACTOR",
      "outputs": [
        {
          "internalType": "uint256",
          "name": "",
          "type": "uint256"
        }
      ],
      "stateMutability": "view",
      "type": "function"
    }
  ],
  "bytecode": "0x6080806040523460185760e5908161001e823930815050f35b600080fdfe6080806040526004361015601257600080fd5b60003560e01c908163899982c814609957508063ccd34cd514607c578063d21a563e1460645763fbd5168214604657600080fd5b6000366003190112605f5760206040516301e133808152f35b600080fd5b6000366003190112605f576020604051620151808152f35b6000366003190112605f576020604051670de0b6b3a76400008152f35b6000366003190112605f578062278d0060209252f3fea2646970667358221220ff49e91f24f0d531c6a2310981f73bc206bf5020e1b82b2d10ea57da51afc7a664736f6c634300081c0033",
  "linkReferences": {},
  "deployedLinkReferences": {}
}