{
  "_format": "hh-sol-artifact-1",
  "contractName": "PreSaleConstants",
  "sourceName": "contracts/Globals/presale/PreSaleConstants.sol",
  "abi": [
    {
      "inputs": [],
      "name": "MAX_P2P_SALE_DURATION",
      "outputs": [
        {
          "internalType": "uint256",
          "name": "",
          "type": "uint256"
        }
      ],
      "stateMutability": "view",
      "type": "function"
    },
    {
      "inputs": [],
      "name": "MAX_PRE_SALE_DURATION",
      "outputs": [
        {
          "internalType": "uint256",
          "name": "",
          "type": "uint256"
        }
      ],
      "stateMutability": "view",
      "type": "function"
    },
    {
      "inputs": [],
      "name": "MIN_P2P_SALE_DURATION",
      "outputs": [
        {
          "internalType": "uint256",
          "name": "",
          "type": "uint256"
        }
      ],
      "stateMutability": "view",
      "type": "function"
    },
    {
      "inputs": [],
      "name": "PRECISION_FACTOR",
      "outputs": [
        {
          "internalType": "uint256",
          "name": "",
          "type": "uint256"
        }
      ],
      "stateMutability": "view",
      "type": "function"
    }
  ],
  "bytecode": "0x6080806040523460185760e4908161001e823930815050f35b600080fdfe6080806040526004361015601257600080fd5b60003560e01c908163899982c814609857508063ccd34cd514607b578063d21a563e1460635763fbd5168214604657600080fd5b6000366003190112605e5760206040516276a7008152f35b600080fd5b6000366003190112605e576020604051620151808152f35b6000366003190112605e576020604051670de0b6b3a76400008152f35b6000366003190112605e578062278d0060209252f3fea2646970667358221220709d9051dffefaa04305b8701a200a109cd6124427e4b9da422ab10e5028ebb164736f6c634300081c0033",
  "linkReferences": {},
  "deployedLinkReferences": {}
}