{
  "_format": "hh-sol-artifact-1",
  "contractName": "GlobalMeritocracyJobs",
  "sourceName": "contracts/GlobalMeritocracyJobs.sol",
  "abi": [
    {
      "inputs": [
        {
          "internalType": "address",
          "name": "_meritocracy",
          "type": "address"
        }
      ],
      "stateMutability": "nonpayable",
      "type": "constructor"
    },
    {
      "inputs": [],
      "name": "AlreadyApplied",
      "type": "error"
    },
    {
      "inputs": [],
      "name": "AmountExceedsMaxMint",
      "type": "error"
    },
    {
      "inputs": [],
      "name": "DAOBannedGlobally",
      "type": "error"
    },
    {
      "inputs": [],
      "name": "DAOBannedInSegment",
      "type": "error"
    },
    {
      "inputs": [],
      "name": "DescriptionRequired",
      "type": "error"
    },
    {
      "inputs": [],
      "name": "InvalidBrainstorm",
      "type": "error"
    },
    {
      "inputs": [],
      "name": "InvalidJobOffer",
      "type": "error"
    },
    {
      "inputs": [],
      "name": "InvalidProposal",
      "type": "error"
    },
    {
      "inputs": [],
      "name": "InvalidUserAddress",
      "type": "error"
    },
    {
      "inputs": [],
      "name": "MaximumHoldersReachedEpic",
      "type": "error"
    },
    {
      "inputs": [],
      "name": "NoTokensInSegment",
      "type": "error"
    },
    {
      "inputs": [],
      "name": "NotAuthorized",
      "type": "error"
    },
    {
      "inputs": [],
      "name": "NotEnoughMeritTokens",
      "type": "error"
    },
    {
      "inputs": [],
      "name": "PageSizeMustBeGreaterThanZero",
      "type": "error"
    },
    {
      "inputs": [],
      "name": "SegmentPaused",
      "type": "error"
    },
    {
      "inputs": [],
      "name": "TokenDoesNotExist",
      "type": "error"
    },
    {
      "inputs": [],
      "name": "UserBannedGlobally",
      "type": "error"
    },
    {
      "inputs": [],
      "name": "UserBannedInSegment",
      "type": "error"
    },
    {
      "anonymous": false,
      "inputs": [
        {
          "indexed": true,
          "internalType": "uint256",
          "name": "jobId",
          "type": "uint256"
        },
        {
          "indexed": false,
          "internalType": "address",
          "name": "applicant",
          "type": "address"
        }
      ],
      "name": "GlobalJobApplicationSubmitted",
      "type": "event"
    },
    {
      "anonymous": false,
      "inputs": [
        {
          "indexed": true,
          "internalType": "uint256",
          "name": "jobId",
          "type": "uint256"
        }
      ],
      "name": "GlobalJobOfferClosed",
      "type": "event"
    },
    {
      "anonymous": false,
      "inputs": [
        {
          "indexed": true,
          "internalType": "uint256",
          "name": "id",
          "type": "uint256"
        },
        {
          "indexed": false,
          "internalType": "address",
          "name": "poster",
          "type": "address"
        },
        {
          "indexed": false,
          "internalType": "string",
          "name": "title",
          "type": "string"
        },
        {
          "indexed": false,
          "internalType": "uint256",
          "name": "requiredTokenId",
          "type": "uint256"
        },
        {
          "indexed": false,
          "internalType": "uint256",
          "name": "minimumMeritTokens",
          "type": "uint256"
        }
      ],
      "name": "GlobalJobOfferPosted",
      "type": "event"
    },
    {
      "anonymous": false,
      "inputs": [
        {
          "indexed": true,
          "internalType": "address",
          "name": "user",
          "type": "address"
        },
        {
          "indexed": true,
          "internalType": "uint256",
          "name": "tokenId",
          "type": "uint256"
        }
      ],
      "name": "HolderAdded",
      "type": "event"
    },
    {
      "anonymous": false,
      "inputs": [
        {
          "indexed": true,
          "internalType": "address",
          "name": "to",
          "type": "address"
        },
        {
          "indexed": true,
          "internalType": "uint256",
          "name": "tokenId",
          "type": "uint256"
        },
        {
          "indexed": false,
          "internalType": "uint256",
          "name": "amount",
          "type": "uint256"
        }
      ],
      "name": "TokensMinted",
      "type": "event"
    },
    {
      "inputs": [
        {
          "internalType": "uint256",
          "name": "jobId",
          "type": "uint256"
        },
        {
          "internalType": "address",
          "name": "applicant",
          "type": "address"
        }
      ],
      "name": "acceptJobApplicant",
      "outputs": [],
      "stateMutability": "nonpayable",
      "type": "function"
    },
    {
      "inputs": [
        {
          "internalType": "uint256",
          "name": "jobId",
          "type": "uint256"
        }
      ],
      "name": "applyToGlobalJob",
      "outputs": [],
      "stateMutability": "nonpayable",
      "type": "function"
    },
    {
      "inputs": [
        {
          "internalType": "uint256",
          "name": "jobId",
          "type": "uint256"
        }
      ],
      "name": "closeGlobalJobOffer",
      "outputs": [],
      "stateMutability": "nonpayable",
      "type": "function"
    },
    {
      "inputs": [
        {
          "internalType": "uint256",
          "name": "jobId",
          "type": "uint256"
        },
        {
          "internalType": "uint256",
          "name": "page",
          "type": "uint256"
        },
        {
          "internalType": "uint256",
          "name": "pageSize",
          "type": "uint256"
        }
      ],
      "name": "getGlobalApplicants",
      "outputs": [
        {
          "internalType": "address[]",
          "name": "applicants",
          "type": "address[]"
        },
        {
          "internalType": "uint256",
          "name": "totalApplicants",
          "type": "uint256"
        }
      ],
      "stateMutability": "view",
      "type": "function"
    },
    {
      "inputs": [],
      "name": "getGlobalJobOfferCount",
      "outputs": [
        {
          "internalType": "uint256",
          "name": "",
          "type": "uint256"
        }
      ],
      "stateMutability": "view",
      "type": "function"
    },
    {
      "inputs": [],
      "name": "meritocracy",
      "outputs": [
        {
          "internalType": "address",
          "name": "",
          "type": "address"
        }
      ],
      "stateMutability": "view",
      "type": "function"
    },
    {
      "inputs": [
        {
          "internalType": "string",
          "name": "title",
          "type": "string"
        },
        {
          "internalType": "string",
          "name": "description",
          "type": "string"
        },
        {
          "internalType": "uint256",
          "name": "requiredTokenId",
          "type": "uint256"
        },
        {
          "internalType": "uint256",
          "name": "minimumMeritTokens",
          "type": "uint256"
        }
      ],
      "name": "postGlobalJobOffer",
      "outputs": [],
      "stateMutability": "nonpayable",
      "type": "function"
    }
  ],
  "bytecode": "0x608034608957601f61140138819003918201601f19168301916001600160401b03831184841017608e57808492602094604052833981010312608957516001600160a01b0381169081900360895760016000558015607857604080546001600160a01b0319169190911781555161135c90816100a58239f35b630702b3d960e41b60005260046000fd5b600080fd5b634e487b7160e01b600052604160045260246000fdfe608080604052600436101561001357600080fd5b60003560e01c90816341948e84146110e1575080635788de3614610c185780638bc7955e14610b9f57806395d8c7e214610b0d578063de1ee4e914610ae7578063de927862146102c35763f15cb4181461006c57600080fd5b346102be5760203660031901126102be5760043561008861112a565b806000526027602052604060002080541580156102af575b61029e57600082815260286020908152604080832033845290915290205460ff1661028e573360009081527f25a1a901705ed15d5376e82511cff743d9474883c82d145cebcc7811e0424a9c602052604090205460ff1680610230575b61021f5760048101546000818152602a6020908152604080832033845290915290205460ff1661020e57336000908152603a60205260409020906000526020526005604060002054910154116101fd5760008181526028602090815260408083203384528252808320805460ff19166001179055838352602990915290208054680100000000000000008110156101e75761019d916001820181556111f4565b81549060031b9033821b9160018060a01b03901b19161790557f2c24038ac727a2ec14667ac1856865251dc92ecd32f969512fb68c089ba910276020604051338152a26001600055005b634e487b7160e01b600052604160045260246000fd5b6378df347d60e11b60005260046000fd5b631e461f3960e21b60005260046000fd5b63f86cf85360e01b60005260046000fd5b5060048101548015908115610273575b811561024d575b506100fd565b600090815260096020908152604080832033845290915290205460ff1615905038610247565b809150600052600a60205260ff604060002054161590610240565b62540c0360e11b60005260046000fd5b638775fbc560e01b60005260046000fd5b5060ff600782015416156100a0565b600080fd5b346102be5760403660031901126102be576004356024356001600160a01b038116908181036102be576102f461112a565b60018060a01b0360405416918360005260276020526040600020918254158015610ad8575b61029e5760018301546001600160a01b03163303610a8d5784600052602860205260406000208260005260205260ff604060002054161561028e576001600160a01b03166000908152603a60205260409020600080526020526040600020541580610ac9575b6108155760048201546040519160e0830183811067ffffffffffffffff8211176101e7576040528252602082019081526040820191600083526060810194308652608082016000815260a08301916000835260c0840160008152600c549630600052600460205260ff60406000205416600014610a4b57600080526005602052604060002060018060a01b038b511660018060a01b031660005260205260ff6040600020541687516000526005602052604060002060018060a01b038c511660018060a01b031660005260205260ff604060002054169088516000526009602052604060002060018060a01b038d511660018060a01b031660005260205260ff604060002054169080610a43575b80610a16575b610a0557816109fc575b506109eb575b89516001600160a01b0316301480156109e1575b156109da578051600090156109885750515b985b516001600160a01b0316918214908161097e575b50156109665750805160005260236020526040600020805415918215610956575b8215610946575b8215610900575b5081156108ec575b506108db575b80518061087e575b505080518251906001600160a01b0316801561086d57600d5482101580610864575b6108535760008281526007602052604090205415610844578160005260076020526040600020545b8711610833576001600160a01b03166000908152603a60205260409020906000526020526040600020541580610826575b610815575190516001600160a01b039091166000818152603a60205260408120929590939192909190866000526020526040600020541561068f575b5093817f2e8ac5177a616f2aec08c3048f5021e4e9743ece034e8d83ba5caf76688bb4756020600797610624610657979660018060a01b0316600052603a602052604060002090565b856000528252604060002081815401905584600052600382526040600020818154019055604051908152a3600c546111e7565b600c5501805460ff191690557f582baec548a56fee659e39e44dbaf28afa50111d5e69462330bb53979444ff83600080a26001600055005b62989680919293501015610815576001600160a01b0382166000908152603a602052604090206007946106579390918260005260205268056bc75e2d63100000604060002055816000526003602052604060002068056bc75e2d63100000815401905581600052600b60205260406000206001815401905581817f10d110aaa7a117a90eed6e9ec3e96729ce1bc0a35c56b25fa189f0850999fbde600080a36001600160a01b0381166000908152603a602052604090206000805260205260406000205415610767575b9094600193509091906105db565b6001600160a01b0381166000908152603a602090815260408083208380528252822068056bc75e2d63100000908190557f3617319a054d772f909f7c479a2cebe5066e836a939412e32403c99029b92eff80549091019055600b90527fdf7de25b7f1fd6d0b5205f0e18f1f35bd7b8d84cce336588d184533ce43a6f7680546001019055817f10d110aaa7a117a90eed6e9ec3e96729ce1bc0a35c56b25fa189f0850999fbde8280a3610759565b63a817b64760e01b60005260046000fd5b506298968083101561059f565b631b4a9d9760e21b60005260046000fd5b68056bc75e2d6310000061056e565b63677510db60e11b60005260046000fd5b50811515610546565b630702b3d960e41b60005260046000fd5b600052602f6020526040600020908154905114908115916108cd575b81156108be575b506108ad578680610524565b6339376f9d60e21b60005260046000fd5b60ff9150600a015416876108a1565b60098101544211915061089a565b631dc0650160e31b60005260046000fd5b905060096008820154910154101588610516565b9091505160005260256020526040600020548451600052600b602052606461093d6040600020548751600052602c602052604060002054906111be565b0411908961050e565b6002820154865114159250610507565b600b82015460ff16159250610500565b9050815115610976575b5061051c565b301415610970565b905051158a6104df565b9050865180156000146109a65750506802b5e3af16b18800006104c9565b815260076020526040812054156109ca5760409087518152600760205220546104c9565b5068056bc75e2d631000006104c9565b51986104cb565b50815115156104b7565b63e491c33360e01b60005260046000fd5b9050158c61049d565b63b71284df60e01b60005260046000fd5b5088518015908115610a29575b50610493565b9050600052600a60205260ff60406000205416158e610a23565b50801561048d565b60018060a01b038a51168751600052603f60205260ff60406000205416610ab85780600052600e60205260ff60406000205416159081610a9e575b50156104a3575b63ea8e4eb560e01b60005260046000fd5b9050600052600f60205260ff60406000205416158c610a86565b637c32ba1d60e11b60005260046000fd5b5062989680600c54101561037f565b5060ff60078401541615610319565b346102be5760003660031901126102be57602060018060a01b0360405416604051908152f35b346102be5760203660031901126102be57600435610b2961112a565b80600052602760205260406000208054158015610b90575b61029e5760018101546001600160a01b03163303610a8d57600701805460ff191690557f582baec548a56fee659e39e44dbaf28afa50111d5e69462330bb53979444ff83600080a26001600055005b5060ff60078201541615610b41565b346102be5760603660031901126102be57610bc1604435602435600435611222565b9060405190604082019260408352815180945260206060840192016000945b808610610bf557505082935060208301520390f35b81516001600160a01b031684526001959095019460209384019390910190610be0565b346102be5760803660031901126102be5760043567ffffffffffffffff81116102be57610c499036906004016110fc565b60243567ffffffffffffffff81116102be57610c699036906004016110fc565b9190926044359260643590610c7c61112a565b336000908152603a6020526040902085600052602052604060002054156110d057600d54851015806110c7575b610853573360009081527f25a1a901705ed15d5376e82511cff743d9474883c82d145cebcc7811e0424a9c602052604090205460ff168061107b575b61021f576000858152602a6020908152604080832033845290915290205460ff1661020e5783158015611073575b611062576001602654019081602655816000526027602052604060002091825560018201336bffffffffffffffffffffffff60a01b8254161790556002820167ffffffffffffffff86116101e7578054600181811c91168015611058575b6020821014610f8257601f8111611010575b50856000601f8211600114610fad57600091610fa2575b508660011b906000198860031b1c19161790555b600382019067ffffffffffffffff81116101e7578154600181811c91168015610f98575b6020821014610f8257601f8111610f3a575b506000601f8211600114610eab579260a09594928260079389967fed12b81085c1880c1659f31665663d60e2e61f69e8d993264122e6e5ddc2f22a9b9c600092610ea0575b50508160011b916000199060031b1c19161790555b88600482015582600582015542600682015501600160ff19825416179055602654966040519586943386526080602087015281608087015286860137600084840186015260408401526060830152601f01601f19168101030190a26001600055005b013590508c80610e29565b8281526020812090601f198316815b818110610f225750838996937fed12b81085c1880c1659f31665663d60e2e61f69e8d993264122e6e5ddc2f22a9b9c60a09a99979460079760019510610f08575b505050811b019055610e3e565b0135600019600384901b60f8161c191690558c8080610efb565b9192602060018192868f013581550194019201610eba565b826000526020600020601f830160051c81019160208410610f78575b601f0160051c01905b818110610f6c5750610de4565b60008155600101610f5f565b9091508190610f56565b634e487b7160e01b600052602260045260246000fd5b90607f1690610dd2565b905085013589610d9a565b82815260208120915087601f198116825b818110610ff5575010610fdb575b5050600186811b019055610dae565b860135600019600389901b60f8161c191690558880610fcc565b8984013585556001909401936020938401938b935001610fbe565b816000526020600020601f880160051c8101916020891061104e575b601f0160051c01905b8181106110425750610d83565b60008155600101611035565b909150819061102c565b90607f1690610d71565b633e61080d60e01b60005260046000fd5b508015610d13565b50841580156110ae575b80610ce55750600085815260096020908152604080832033845290915290205460ff1615610ce5565b5084600052600a60205260ff6040600020541615611085565b50841515610ca9565b63b0789e0960e01b60005260046000fd5b346102be5760003660031901126102be576020906026548152f35b9181601f840112156102be5782359167ffffffffffffffff83116102be57602083818601950101116102be57565b60026000541461113b576002600055565b60405162461bcd60e51b815260206004820152601f60248201527f5265656e7472616e637947756172643a207265656e7472616e742063616c6c006044820152606490fd5b6040519190601f01601f1916820167ffffffffffffffff8111838210176101e757604052565b67ffffffffffffffff81116101e75760051b60200190565b818102929181159184041417156111d157565b634e487b7160e01b600052601160045260246000fd5b919082018092116111d157565b805482101561120c5760005260206000200190600090565b634e487b7160e01b600052603260045260246000fd5b929091928315611315576000526029602052604060002080549283156112f9578461124c916111be565b93838510156112f9578361126082876111e7565b11156112ea5750825b8481039081116111d15761128461127f826111a6565b611180565b81815291601f19611294836111a6565b01366020850137829560005b8381106112ae575050505050565b6112ba818301846111f4565b9054865160039290921b1c6001600160a01b0316919081101561120c5760019160208260051b88010152016112a0565b6112f490856111e7565b611269565b50509091506113086020611180565b6000815260003681379190565b6363ba40e960e11b60005260046000fdfea264697066735822122021b124de45aac946bde7cbfdb4652f77ee26b2a49aeb5e9e3472566faeaf8a2264736f6c634300081c0033",
  "linkReferences": {},
  "deployedLinkReferences": {}
}