{
  "_format": "hh-sol-artifact-1",
  "contractName": "GlobalMeritocracyJobs",
  "sourceName": "contracts/GlobalMeritocracyJobs.sol",
  "abi": [
    {
      "inputs": [
        {
          "internalType": "address",
          "name": "_meritocracy",
          "type": "address"
        }
      ],
      "stateMutability": "nonpayable",
      "type": "constructor"
    },
    {
      "inputs": [],
      "name": "AlreadyApplied",
      "type": "error"
    },
    {
      "inputs": [],
      "name": "AmountExceedsMaxMint",
      "type": "error"
    },
    {
      "inputs": [],
      "name": "DescriptionRequired",
      "type": "error"
    },
    {
      "inputs": [],
      "name": "InvalidBrainstorm",
      "type": "error"
    },
    {
      "inputs": [],
      "name": "InvalidJobOffer",
      "type": "error"
    },
    {
      "inputs": [],
      "name": "InvalidProposal",
      "type": "error"
    },
    {
      "inputs": [],
      "name": "InvalidUserAddress",
      "type": "error"
    },
    {
      "inputs": [],
      "name": "MaximumHoldersReachedEpic",
      "type": "error"
    },
    {
      "inputs": [],
      "name": "NoTokensInSegment",
      "type": "error"
    },
    {
      "inputs": [],
      "name": "NotAuthorized",
      "type": "error"
    },
    {
      "inputs": [],
      "name": "NotEnoughMeritTokens",
      "type": "error"
    },
    {
      "inputs": [],
      "name": "PageSizeMustBeGreaterThanZero",
      "type": "error"
    },
    {
      "inputs": [],
      "name": "SegmentPaused",
      "type": "error"
    },
    {
      "inputs": [],
      "name": "TokenDoesNotExist",
      "type": "error"
    },
    {
      "inputs": [],
      "name": "UserBannedGlobally",
      "type": "error"
    },
    {
      "inputs": [],
      "name": "UserBannedInSegment",
      "type": "error"
    },
    {
      "anonymous": false,
      "inputs": [
        {
          "indexed": true,
          "internalType": "uint256",
          "name": "jobId",
          "type": "uint256"
        },
        {
          "indexed": false,
          "internalType": "address",
          "name": "applicant",
          "type": "address"
        }
      ],
      "name": "GlobalJobApplicationSubmitted",
      "type": "event"
    },
    {
      "anonymous": false,
      "inputs": [
        {
          "indexed": true,
          "internalType": "uint256",
          "name": "jobId",
          "type": "uint256"
        }
      ],
      "name": "GlobalJobOfferClosed",
      "type": "event"
    },
    {
      "anonymous": false,
      "inputs": [
        {
          "indexed": true,
          "internalType": "uint256",
          "name": "id",
          "type": "uint256"
        },
        {
          "indexed": false,
          "internalType": "address",
          "name": "poster",
          "type": "address"
        },
        {
          "indexed": false,
          "internalType": "string",
          "name": "title",
          "type": "string"
        },
        {
          "indexed": false,
          "internalType": "uint256",
          "name": "requiredTokenId",
          "type": "uint256"
        },
        {
          "indexed": false,
          "internalType": "uint256",
          "name": "minimumMeritTokens",
          "type": "uint256"
        }
      ],
      "name": "GlobalJobOfferPosted",
      "type": "event"
    },
    {
      "anonymous": false,
      "inputs": [
        {
          "indexed": true,
          "internalType": "address",
          "name": "user",
          "type": "address"
        },
        {
          "indexed": true,
          "internalType": "uint256",
          "name": "tokenId",
          "type": "uint256"
        }
      ],
      "name": "HolderAdded",
      "type": "event"
    },
    {
      "anonymous": false,
      "inputs": [
        {
          "indexed": true,
          "internalType": "address",
          "name": "to",
          "type": "address"
        },
        {
          "indexed": true,
          "internalType": "uint256",
          "name": "tokenId",
          "type": "uint256"
        },
        {
          "indexed": false,
          "internalType": "uint256",
          "name": "amount",
          "type": "uint256"
        }
      ],
      "name": "TokensMinted",
      "type": "event"
    },
    {
      "inputs": [
        {
          "internalType": "uint256",
          "name": "jobId",
          "type": "uint256"
        },
        {
          "internalType": "address",
          "name": "applicant",
          "type": "address"
        }
      ],
      "name": "acceptJobApplicant",
      "outputs": [],
      "stateMutability": "nonpayable",
      "type": "function"
    },
    {
      "inputs": [
        {
          "internalType": "uint256",
          "name": "jobId",
          "type": "uint256"
        }
      ],
      "name": "applyToGlobalJob",
      "outputs": [],
      "stateMutability": "nonpayable",
      "type": "function"
    },
    {
      "inputs": [
        {
          "internalType": "uint256",
          "name": "jobId",
          "type": "uint256"
        }
      ],
      "name": "closeGlobalJobOffer",
      "outputs": [],
      "stateMutability": "nonpayable",
      "type": "function"
    },
    {
      "inputs": [
        {
          "internalType": "uint256",
          "name": "jobId",
          "type": "uint256"
        },
        {
          "internalType": "uint256",
          "name": "page",
          "type": "uint256"
        },
        {
          "internalType": "uint256",
          "name": "pageSize",
          "type": "uint256"
        }
      ],
      "name": "getGlobalApplicants",
      "outputs": [
        {
          "internalType": "address[]",
          "name": "applicants",
          "type": "address[]"
        },
        {
          "internalType": "uint256",
          "name": "totalApplicants",
          "type": "uint256"
        }
      ],
      "stateMutability": "view",
      "type": "function"
    },
    {
      "inputs": [],
      "name": "getGlobalJobOfferCount",
      "outputs": [
        {
          "internalType": "uint256",
          "name": "",
          "type": "uint256"
        }
      ],
      "stateMutability": "view",
      "type": "function"
    },
    {
      "inputs": [],
      "name": "meritocracy",
      "outputs": [
        {
          "internalType": "address",
          "name": "",
          "type": "address"
        }
      ],
      "stateMutability": "view",
      "type": "function"
    },
    {
      "inputs": [
        {
          "internalType": "string",
          "name": "title",
          "type": "string"
        },
        {
          "internalType": "string",
          "name": "description",
          "type": "string"
        },
        {
          "internalType": "uint256",
          "name": "requiredTokenId",
          "type": "uint256"
        },
        {
          "internalType": "uint256",
          "name": "minimumMeritTokens",
          "type": "uint256"
        }
      ],
      "name": "postGlobalJobOffer",
      "outputs": [],
      "stateMutability": "nonpayable",
      "type": "function"
    }
  ],
  "bytecode": "0x608034608b57601f6112d238819003918201601f19168301916001600160401b03831184841017609057808492602094604052833981010312608b57516001600160a01b03811690819003608b5760016000558015607a57603f80546001600160a01b03191691909117905560405161122b90816100a78239f35b630702b3d960e41b60005260046000fd5b600080fd5b634e487b7160e01b600052604160045260246000fdfe608080604052600436101561001357600080fd5b60003560e01c90816341948e8414610fb0575080635788de3614610ae75780638bc7955e14610a6e57806395d8c7e2146109dc578063de1ee4e9146109b3578063de927862146102c35763f15cb4181461006c57600080fd5b346102be5760203660031901126102be57600435610088610ff9565b806000526026602052604060002080541580156102af575b61029e57600082815260276020908152604080832033845290915290205460ff1661028e573360009081527fbc72c27881d499e9ea29f42d0975d4e269d866b929e1b555435cbfe829a9d200602052604090205460ff1680610230575b61021f576004810154600081815260296020908152604080832033845290915290205460ff1661020e57336000908152603960205260409020906000526020526005604060002054910154116101fd5760008181526027602090815260408083203384528252808320805460ff19166001179055838352602890915290208054680100000000000000008110156101e75761019d916001820181556110c3565b81549060031b9033821b9160018060a01b03901b19161790557f2c24038ac727a2ec14667ac1856865251dc92ecd32f969512fb68c089ba910276020604051338152a26001600055005b634e487b7160e01b600052604160045260246000fd5b6378df347d60e11b60005260046000fd5b631e461f3960e21b60005260046000fd5b63f86cf85360e01b60005260046000fd5b5060048101548015908115610273575b811561024d575b506100fd565b600090815260096020908152604080832033845290915290205460ff1615905038610247565b809150600052600a60205260ff604060002054161590610240565b62540c0360e11b60005260046000fd5b638775fbc560e01b60005260046000fd5b5060ff600782015416156100a0565b600080fd5b346102be5760403660031901126102be576004356024356001600160a01b038116908181036102be576102f4610ff9565b60018060a01b03603f54169183600052602660205260406000209182541580156109a4575b61029e5760018301546001600160a01b0316330361095a5784600052602760205260406000208260005260205260ff604060002054161561028e576001600160a01b03166000908152603960205260409020600080526020526040600020541580610995575b610784576004820154906040519060e0820182811067ffffffffffffffff8211176101e757604052815260208101908282526040810160008152606082019530875260808301906000825260a08401926000845260c085019060008252600c5497600052603e60205260ff604060002054166109845730600052600e60205260ff60406000205416158061096b575b61095a5789516001600160a01b031630148015610950575b15610949578051600090156108f75750515b985b516001600160a01b031691821490816108ed575b50156108d557508051600052602260205260406000208054159182156108c5575b82156108b5575b821561086f575b50811561085b575b5061084a575b8051806107ed575b505080518251906001600160a01b031680156107dc57600d54821015806107d3575b6107c257600082815260076020526040902054156107b3578160005260076020526040600020545b87116107a2576001600160a01b03166000908152603960205260409020906000526020526040600020541580610795575b610784575190516001600160a01b03909116600081815260396020526040812092959093919290919086600052602052604060002054156105fe575b5093817f2e8ac5177a616f2aec08c3048f5021e4e9743ece034e8d83ba5caf76688bb47560206007976105936105c6979660018060a01b03166000526039602052604060002090565b856000528252604060002081815401905584600052600382526040600020818154019055604051908152a3600c546110b6565b600c5501805460ff191690557f582baec548a56fee659e39e44dbaf28afa50111d5e69462330bb53979444ff83600080a26001600055005b62989680919293501015610784576001600160a01b03821660009081526039602052604090206007946105c69390918260005260205268056bc75e2d63100000604060002055816000526003602052604060002068056bc75e2d63100000815401905581600052600b60205260406000206001815401905581817f10d110aaa7a117a90eed6e9ec3e96729ce1bc0a35c56b25fa189f0850999fbde600080a36001600160a01b038116600090815260396020526040902060008052602052604060002054156106d6575b90946001935090919061054a565b6001600160a01b03811660009081526039602090815260408083208380528252822068056bc75e2d63100000908190557f3617319a054d772f909f7c479a2cebe5066e836a939412e32403c99029b92eff80549091019055600b90527fdf7de25b7f1fd6d0b5205f0e18f1f35bd7b8d84cce336588d184533ce43a6f7680546001019055817f10d110aaa7a117a90eed6e9ec3e96729ce1bc0a35c56b25fa189f0850999fbde8280a36106c8565b63a817b64760e01b60005260046000fd5b506298968083101561050e565b631b4a9d9760e21b60005260046000fd5b68056bc75e2d631000006104dd565b63677510db60e11b60005260046000fd5b508115156104b5565b630702b3d960e41b60005260046000fd5b600052602e60205260406000209081549051149081159161083c575b811561082d575b5061081c578680610493565b6339376f9d60e21b60005260046000fd5b60ff9150600a01541687610810565b600981015442119150610809565b631dc0650160e31b60005260046000fd5b905060096008820154910154101588610485565b9091505160005260246020526040600020548451600052600b60205260646108ac6040600020548751600052602b6020526040600020549061108d565b0411908961047d565b6002820154865114159250610476565b600b82015460ff1615925061046f565b90508151156108e5575b5061048b565b3014156108df565b905051158a61044e565b9050865180156000146109155750506802b5e3af16b1880000610438565b81526007602052604081205415610939576040908751815260076020522054610438565b5068056bc75e2d63100000610438565b519861043a565b5081511515610426565b63ea8e4eb560e01b60005260046000fd5b5030600052600f60205260ff604060002054161561040e565b637c32ba1d60e11b60005260046000fd5b5062989680600c54101561037f565b5060ff60078401541615610319565b346102be5760003660031901126102be57603f546040516001600160a01b039091168152602090f35b346102be5760203660031901126102be576004356109f8610ff9565b80600052602660205260406000208054158015610a5f575b61029e5760018101546001600160a01b0316330361095a57600701805460ff191690557f582baec548a56fee659e39e44dbaf28afa50111d5e69462330bb53979444ff83600080a26001600055005b5060ff60078201541615610a10565b346102be5760603660031901126102be57610a906044356024356004356110f1565b9060405190604082019260408352815180945260206060840192016000945b808610610ac457505082935060208301520390f35b81516001600160a01b031684526001959095019460209384019390910190610aaf565b346102be5760803660031901126102be5760043567ffffffffffffffff81116102be57610b18903690600401610fcb565b60243567ffffffffffffffff81116102be57610b38903690600401610fcb565b9190926044359260643590610b4b610ff9565b3360009081526039602052604090208560005260205260406000205415610f9f57600d5485101580610f96575b6107c2573360009081527fbc72c27881d499e9ea29f42d0975d4e269d866b929e1b555435cbfe829a9d200602052604090205460ff1680610f4a575b61021f57600085815260296020908152604080832033845290915290205460ff1661020e5783158015610f42575b610f31576001602554019081602555816000526026602052604060002091825560018201336bffffffffffffffffffffffff60a01b8254161790556002820167ffffffffffffffff86116101e7578054600181811c91168015610f27575b6020821014610e5157601f8111610edf575b50856000601f8211600114610e7c57600091610e71575b508660011b906000198860031b1c19161790555b600382019067ffffffffffffffff81116101e7578154600181811c91168015610e67575b6020821014610e5157601f8111610e09575b506000601f8211600114610d7a579260a09594928260079389967fed12b81085c1880c1659f31665663d60e2e61f69e8d993264122e6e5ddc2f22a9b9c600092610d6f575b50508160011b916000199060031b1c19161790555b88600482015582600582015542600682015501600160ff19825416179055602554966040519586943386526080602087015281608087015286860137600084840186015260408401526060830152601f01601f19168101030190a26001600055005b013590508c80610cf8565b8281526020812090601f198316815b818110610df15750838996937fed12b81085c1880c1659f31665663d60e2e61f69e8d993264122e6e5ddc2f22a9b9c60a09a99979460079760019510610dd7575b505050811b019055610d0d565b0135600019600384901b60f8161c191690558c8080610dca565b9192602060018192868f013581550194019201610d89565b826000526020600020601f830160051c81019160208410610e47575b601f0160051c01905b818110610e3b5750610cb3565b60008155600101610e2e565b9091508190610e25565b634e487b7160e01b600052602260045260246000fd5b90607f1690610ca1565b905085013589610c69565b82815260208120915087601f198116825b818110610ec4575010610eaa575b5050600186811b019055610c7d565b860135600019600389901b60f8161c191690558880610e9b565b8984013585556001909401936020938401938b935001610e8d565b816000526020600020601f880160051c81019160208910610f1d575b601f0160051c01905b818110610f115750610c52565b60008155600101610f04565b9091508190610efb565b90607f1690610c40565b633e61080d60e01b60005260046000fd5b508015610be2565b5084158015610f7d575b80610bb45750600085815260096020908152604080832033845290915290205460ff1615610bb4565b5084600052600a60205260ff6040600020541615610f54565b50841515610b78565b63b0789e0960e01b60005260046000fd5b346102be5760003660031901126102be576020906025548152f35b9181601f840112156102be5782359167ffffffffffffffff83116102be57602083818601950101116102be57565b60026000541461100a576002600055565b60405162461bcd60e51b815260206004820152601f60248201527f5265656e7472616e637947756172643a207265656e7472616e742063616c6c006044820152606490fd5b6040519190601f01601f1916820167ffffffffffffffff8111838210176101e757604052565b67ffffffffffffffff81116101e75760051b60200190565b818102929181159184041417156110a057565b634e487b7160e01b600052601160045260246000fd5b919082018092116110a057565b80548210156110db5760005260206000200190600090565b634e487b7160e01b600052603260045260246000fd5b9290919283156111e4576000526028602052604060002080549283156111c8578461111b9161108d565b93838510156111c8578361112f82876110b6565b11156111b95750825b8481039081116110a05761115361114e82611075565b61104f565b81815291601f1961116383611075565b01366020850137829560005b83811061117d575050505050565b611189818301846110c3565b9054865160039290921b1c6001600160a01b031691908110156110db5760019160208260051b880101520161116f565b6111c390856110b6565b611138565b50509091506111d7602061104f565b6000815260003681379190565b6363ba40e960e11b60005260046000fdfea26469706673582212200d12638d10ff552aac1133899d70e3bef788084bc88c9d8ff3877fd2200c7aa964736f6c634300081c0033",
  "linkReferences": {},
  "deployedLinkReferences": {}
}